:100000006F10E01D1300000013000000130000003B
:100010001300000013000000130000001300000094
:100020001300000013000000130000001300000084
:08003000130000007300100032
:100038000000000000000000A8020000AC02000060
:10004800000000003811000000000000000000005F
:100058003A1100003C110000000000000000000000
:100068003E110000000000004011000000000000E8
:100078004211000044110000461100004811000020
:100088004A1100004C1100004E11000050110000F0
:1000980052110000541100005611000058110000C0
:1000A8005A1100005C1100005E1100006011000090
:1000B8006211000064110000661100006811000060
:1000C8006A1100006C1100006E1100007011000030
:1000D8007211000074110000761100007811000000
:1000E8007A1100007C1100007E11000080110000D0
:1000F80082110000841100008611000088110000A0
:100108008A1100008C1100008E110000901100006F
:1001180092110000941100000000000096110000E8
:10012800981100009A1100009C1100009E11000017
:10013800A0110000A2110000A4110000A6110000E7
:10014800A8110000AA110000AC110000AE110000B7
:10015800B0110000B2110000B4110000B611000087
:10016800B8110000000000000000000000000000BE
:10017800000000000000000000000000BA110000AC
:10018800000000000000000000000000BC1100009A
:10019800BE110000C0110000C2110000C41100000F
:1001A800C6110000C8110000CA110000CC110000DF
:1001B800CE110000D0110000D2110000D4110000AF
:1001C800D6110000D8110000DA110000DC1100007F
:1001D8000000000000000000000000000000000017
:1001E8000000000000000000000000000000000007
:0801F8000000000000000000FF
:100200003D432A876373C3029377F700BDEFADE5E3
:10021000937606FF3D8ABA960CC34CC30CC74CC7F5
:100220004107E36BD7FE11E28280B306C3408A0622
:100230009702000096966780A6002307B700A306E2
:10024000B7002306B700A305B7002305B700A30432
:10025000B7002304B700A303B7002303B700A3022A
:10026000B7002302B700A301B7002301B700A30022
:10027000B7002300B700828093F5F50F93968500B1
:10028000D58D93960501D58D61B79396270097027A
:10029000000096968682E78086FA9680C1171D8FA9
:1002A0003E96E374C3F8A5B77300203001A0B707EA
:1002B0000460F91783D727004111C207C1832317B0
:1002C000F1000355E10041018280411106C6B707E4
:1002D0000460239FA7FE1545EF10E060B240410186
:1002E000F9B703D78184B7070460239FE7FE8280B4
:1002F0009387018483D64700256713071734639CCF
:10030000E60203D6A700B7060460239FC6FE135675
:1003100085002390C6001375F50F2390A60083D7A0
:10032000C700239FF6FE93D785002390F60093F530
:10033000F50F2390B60082809387018403C867007D
:1003400083D647000546A5679385018493871734B4
:100350006310C8066390F6069D4763E7A70093877E
:1003600081813E95034505007D151375F50F99466E
:10037000814763E7A600938701823E958347050086
:10038000B706046013086003239F06FF13E5870088
:100390002390A60093F7070283D6018403D6250095
:1003A00099CB63FCC6002390C1842391D50031A072
:1003B000E38CF6FA8280E368D6FE03D6A500B70682
:1003C00004609387E6FF239FC6FE239006002390D8
:1003D000060003D701847D171356874042064182E9
:1003E0002390C6001377F70F2390E60003D7C500CC
:1003F000239FE6FE239006002390060003D72500E6
:100400007D1793568740C206C1822391D700137788
:10041000F70F2391E70079BF9387018483D64700C4
:1004200015ED1306000F2390C184238307001307E3
:1004300000142391E700256713071734639EE60035
:100440001307C0022394E7001307A0022395E700D7
:100450001307B0022396E7000145F9BD0546238343
:10046000C700130600142390C1841307000FD1B7EF
:10047000411103D701849387018422C403D4270048
:1004800026C28145AA8401453304E40206C68D359F
:10049000893D81473707046063978700B240224453
:1004A000924441018280231097008507F5B735718A
:1004B00085451305001006CF22CD26CB4AC94EC76D
:1004C00052C5EF10802B854513058006EF10C02C18
:1004D000B71401400D449167C1498A85138504C052
:1004E0002310F10022C24EC4EF00D07FF177938732
:1004F0003773614A8A85138504402310F10022C2B4
:1005000052C4EF00307E37250140930700F88A85FA
:10051000130505802310F10022C252C4EF00907C25
:1005200005698A85138504402310210122C252C423
:10053000EF00507B130909808A851385044023103E
:10054000210122C205694EC4EF00D07993050980CC
:1005500013850440EF10600585473EC6BD473ECA7F
:100560009167BED87C00BEDCC8003C10BEDE22D83D
:1005700002C802CC02CE02D002D202D402D602DAE3
:1005800002DC02DE82C082C282C482C6CEC882CAB7
:1005900082CE82CC82D082D2CAD482D682DAEF00D6
:1005A000F06685450145EF00107213052003EF103A
:1005B00060360145193B93870184130715F0239298
:1005C000A7004207C16741839387F7EF1384018433
:1005D00063E7E700A567938707306318F502B7075D
:1005E00004601307300D239FE7FED1312312A400CE
:1005F0007D392312A400653922052312A400453950
:10060000835744005D8D2312A40083554400373581
:100610000000130505C3EF10403F03574400A567D2
:10062000938717346315F724370404601307F00C1D
:100630009307E4FF231FE4FE239107001306100C29
:100640002391C700130700032391E7009306D00E00
:10065000231FD4FE930640062391D7008D46239195
:10066000D700C9462391D700930610082391D700DD
:100670009306800E231FD4FE930650082391D700C3
:10068000C1462391D7009305A0072391B700930596
:10069000B00C231FB4FE930590032391B70093057C
:1006A000C0022391B70023910700930540032391D3
:1006B000B70089452391B7009305700F231FB4FE3F
:1006C000930500022391B7009305A00E231FB4FEEB
:1006D00023910700239107009305000C231FB4FE0C
:1006E000ED452391B700231FC4FE05462391C700A3
:1006F0009305500C231FB4FE2391E7002391E700DC
:100700001307700C231FE4FE1307700B2391E700FF
:1007100013076003231FE4FE130780042391E700FF
:100720001307A003231FE4FE130750052391E700DE
:100730001307100B231FE4FE239107006947239141
:10074000E7001307600B231FE4FEA9452391B700C0
:100750001307200A2391E7001307200F231FE4FE4D
:100760002391070013076002231FE4FE2391C700B3
:100770001307000E231FE4FE3D472391E7001305F6
:10078000A0022391A70013088002239107012148AA
:1007900023910701B94823911701239107011308F9
:1007A0004005239107011308900A239107011308BC
:1007B0003004239107012391B7002391E70023918F
:1007C0000700239107002391070023910700930559
:1007D000100E231FB4FE23910700D5452391B700C7
:1007E000DD452391B7009D452391B700C545239171
:1007F000B7001948239107011308B002239107019C
:1008000093086005239117019308C00323911701F2
:100810009548239117012391D7002391E700930670
:10082000F0032391D7002391D7002391E700231FE2
:1008300004FF23910700239107002391C700239110
:10084000D700231FA4FE23910700239107002391C3
:1008500007001307F00E2391E700231FB4FE1305D2
:100860008007EF10200B93079002231FF4FE014531
:100870006536371501409165130505C0EF00B0528C
:1008800041657D15F536FA406A44DA444A49BA4969
:100890002A4A0D61828001118545114506CE22CC80
:1008A00002C202C402C6EF00306FE1772312F100EA
:1008B00037140140C1473EC64C008D4713050480E4
:1008C0003EC4EF00304213050480A165EF00B04D37
:1008D000F240624405618280397126DA1306C00253
:1008E000AA848145480006DE22DC193A854509457F
:1008F000EF00B0683704024013058445EF00D016BE
:10090000B70704603EC4930700043ECA9307001073
:100910003ECE930700403ED085673ED44C009167A1
:100920001305844526C202C602C802CC02D23ED6B6
:10093000EF00502AF2506254D2542161828001119A
:100940008545096506CE22CC02C43704055002C68F
:10095000EF00B06283470400280093F7F70C2300F0
:10096000F4008347040093E727002300F400834743
:10097000140093F7970FA300F400930700142312B9
:10098000F4009307001E2313F400B707002083A789
:1009900007071CC483A741805CC48347140093F7F6
:1009A000F703A300F4008347140093F7F70FA300A5
:1009B000F4008347240093E707012301F4008347F1
:1009C000240093E787002301F4008347240093E782
:1009D00047002301F4008347240093E72700230105
:1009E000F4008347240093E717002301F4009307E2
:1009F00060052314F10085473EC623050100EF0082
:100A0000703B8347140093E71700A300F40083476B
:100A1000040093E717002300F400F24062440561EC
:100A200082804111114506C622C4EF005038EF0004
:100A30003069716513050520EF00B07083A58180D2
:100A400037350000130505C4EF00307CA935371495
:100A50000140A16513050480EF0030351305400601
:100A6000EF00506B13050480A165EF00D033813493
:100A7000138701840356270083D50184373500008E
:100A8000130505C5EF00707837340000FD2E0DED1D
:100A900037350000130585C7EF10C0081305803EE9
:100AA000EF005067B52B1305803EEF00B066373579
:100AB0000000130545C8EF10E006B707002003A5A6
:100AC0000707193DAD3D01A01305C4C6EF10800511
:100AD0001305803EEF00106455BFB717014003A710
:100AE00047C0FD769386F60F758F23A2E7C003A754
:100AF00047C0C576FD161367073023A2E7C003A7DA
:100B000047C0758F23A2E7C003A747C08D66558FE6
:100B100023A2E7C01307004023A8E7C00567130717
:100B2000078023A8E7C08280411126C2856406C6DB
:100B300022C44AC03714014093840480232894C0FF
:100B400013090040232824C113052003EF00B059E6
:100B500013052003232A94C0EF00F058B240232A43
:100B600024C122449244024941018280411126C29B
:100B7000856406C622C49384048037140140232A66
:100B800094C013052003EF0010569307004023285C
:100B9000F4C013052003EF001055232894C022440D
:100BA000B24092441305200341016F00D05341111C
:100BB00026C2856422C4938404803714014013053F
:100BC000200306C64AC0EF00105213090040232834
:100BD00094C0232824C113052003EF00D05013052F
:100BE0002003232A24C1EF001050232A94C022445A
:100BF000B240924402491305200341016F00B04EF8
:100C0000011152C4056A26CA4AC84EC656C206CE4B
:100C100022CC2A89A144B71A0140130A0A809309F9
:100C2000004093178901E18713870AC063D807083A
:100C30002328470113052003EF00F04A1305200382
:100C400023A83AC1FD140609EF00F04993F4F40F0C
:100C500023AA3AC11379F90FE9F483A74AC0C574EE
:100C6000FD14E58F23A2FAC083A74AC021671305AC
:100C70002003D98F23A2FAC0EF00F046130520030A
:100C800023A83AC1EF00304603A58AC023AA3AC17F
:100C900083A74AC0F2406244FD8C23A29AC083A776
:100CA0004AC00D672D81D98F23A2FAC0D244424990
:100CB000B249224A924A058905618280232A470166
:100CC00095BFB717014003A747C0C5760111FD16B0
:100CD00022CC26CA4AC84EC652C4758F06CE23A25D
:100CE000E7C003A747C0A1660569558F23A2E7C0E7
:100CF000A1440144371A01409309004013090980B7
:100D000013052003EF00303E23283AC183278AC011
:100D100006041374F40FB3F7270181C70504137495
:100D2000F40F13052003FD14EF00F03B93F4F40FD0
:100D3000232A3AC1F1F403274AC0C576FD16758F00
:100D40002322EAC003274AC02285F24062448D660E
:100D5000558F2322EAC0D2444249B249224A056152
:100D60008280011106CE2EC622CC26CAAA846D3BF3
:100D70001305000671352A8413054006EF00B036CE
:100D80002685BD3D498C13054006EF00D035B245A0
:100D90002E85BD3509C90544D13B2285F240624408
:100DA000D244056182801374F40F33348000EDB7B0
:100DB000011106CE22CC2A84853B13050006893515
:100DC00013054006EF00303222851D3D1305400615
:100DD000EF007031613B13054006EF00D030A933BE
:100DE00013051006313D13054006EF00D02FD13D0D
:100DF0002AC6753BA53BF2406244324505618280BC
:100E0000011185451305C00306CE22CC26CA4AC867
:100E10008964EF007018938784002312F100C147A2
:100E20003EC64C008D4737150140371901403EC47E
:100E3000552D13048004930700634C0013050980AB
:100E40002312F10022C6792D8567938707F44C00A1
:100E5000130509C02312F10022C669254C009384B2
:100E600004F0371501402312910022C6A52D9147A9
:100E70004C001305094022C62312F100A525F240BB
:100E80006244D244424905618280411106C622C4AF
:100E900026C2BD37A147371401405CC82945EF0081
:100EA00070278964294544C8EF00D02604C835312D
:100EB00085451305F00F75359305000849455535EF
:100EC00013052003EF0010257145DD3513140501CE
:100ED0004180220442047545E13D4180418D9315D6
:100EE0000501A167C181938727FA638EF500373525
:100EF0000000130545C9EF0050310545B2402244BA
:100F000092444101828029456535131405014180D1
:100F1000220442042D45693D4180418D9315050110
:100F2000C18193842464638A9500373500001305DA
:100F300005CAEF00902D0945D1B70D641304C4CA4A
:100F40009304441683451400034504000904113D2D
:100F5000E31A94FE01455DB7411122C40D641304E8
:100F600004E126C206C69304C40183451400034568
:100F700004000904FD33E31A94FEB2402244924473
:100F800041018280B367B5008D8BA5E3411122C476
:100F900026C22A84AE841305F00F814506C6D133DC
:100FA00091451305000E753B9355240093F5F50FFD
:100FB0001305A0057D3393D5240093F5F50F130594
:100FC000B005453393D5840029800D889189C18D62
:100FD0001305C005793381451305000E5933B2401E
:100FE000224492440145410182800545828041119D
:100FF00022C426C22E84AA8481451305F00F06C69A
:101000008D33A6851305300DA93B85451305F00FDB
:10101000893BA2852244B24092444545410191B3A7
:10102000411106C6153F930500141305000F993FA3
:10103000B2408545714541015DBFB71702409843F5
:10104000B706FFF841111367170098C3D843370656
:101050000200758FD8C39843B706F7FEFD16758F4B
:1010600098C39843B706FCFFFD16758F98C3D84305
:10107000B70681FFFD16758FD8C39843B70600ECFD
:10108000FD16758F98C33707FF0098C723A6070280
:1010900002C402C69843C166558F98C3B716024072
:1010A00005679C42F18F3EC6A24785073EC4B24702
:1010B00081E7A247E397E7FEB71702409C431397E7
:1010C000E7006357070685473EC632478547631FDB
:1010D000F704B7170240D843B706C1FFFD16D8C3BF
:1010E000D843D8C3D84313670740D8C3D843758FB4
:1010F000D8C3D843B7061D00558FD8C39843B70649
:101100000001558F98C3984393166700E3DD06FEF0
:10111000D843B7160240719BD8C3D8431367270042
:10112000D8C32147DC42B18BE39EE7FE41018280B8
:1011300002C661BF01A001A001A001A001A001A001
:1011400001A001A001A001A001A001A001A001A097
:1011500001A001A001A001A001A001A001A001A087
:1011600001A001A001A001A001A001A001A001A077
:1011700001A001A001A001A001A001A001A001A067
:1011800001A001A001A001A001A001A001A001A057
:1011900001A001A001A001A001A001A001A001A047
:1011A00001A001A001A001A001A001A001A001A037
:1011B00001A001A001A001A001A001A001A001A027
:1011C00001A001A001A001A001A001A001A001A017
:1011D00001A001A001A001A001A001A001A097F120
:1011E000FF1F93812169177100201301A1E11725C9
:1011F00000001305A5CD97F5FF1F9385A5E0138685
:10120000018363FAC5008322050023A05500110560
:101210009105E3EAC5FE13850183938541856377D4
:10122000B500232005001105E36DB5FEFD42739066
:1012300002BCFD4273904280B76200009382820834
:1012400073A0023097F2FFFF938242DF93E23200F5
:1012500073905230EFF07FDE97F2FFFF9382A27C13
:1012600073901234730020301C4141677917F98F55
:101270001CC1232005002322050023240500B707F5
:10128000024023260500138787006317E500D84333
:101290001367F700D8C382801387C7016316E50080
:1012A000D8431367070FFDB7138707036318E500DB
:1012B000D8438566938606F0558FE9BF13874704A8
:1012C0006315E500D843BD66C5BF13878705631660
:1012D000E500D843B7060F00C5B71387C7066316E6
:1012E000E500D843B706F000C1BF138707086316AF
:1012F000E500D843B706000FC1B7138787406319CD
:10130000E50003A747401367F70023A2E740828068
:101310001387C7416317E50003A747401367070F0B
:10132000EDB793870743631BF500B707024003A798
:1013300047408566938606F0558FC1BFB7070240C8
:10134000138747446316E50003A74740BD66EDB722
:10135000138787456317E50003A74740B7060F00CB
:10136000E1BF1387C7466317E50003A74740B706E9
:10137000F000D9B7138707486317E50003A7474074
:10138000B706000F55BF138707496319E50003A788
:10139000474D1367F70023AAE74C82801387074A5B
:1013A0006317E50003A7474D1367070FEDB71387D2
:1013B000074B6319E50003A7474D8566938606F042
:1013C000558FD1BF1387074CE319E5FC03A7474DA1
:1013D000BD66FDB71C4161773D0794517D8F9C45EB
:1013E000D58F9449D58FD449D58F944DD58FD44D71
:1013F000D58FD451D58F9455D58FD98F1CC1DC454D
:101400005CC19C411CC5DC415CC5828014455C41CB
:1014100058450328C502D58FD98F1849370600A033
:10142000D98F5849D98F184DD98F584DD98F185108
:10143000D98F5851D98F1855D98F1859B3E707014B
:10144000D98F18410A073A961CC2A1476396F60045
:101450001C4293E707041CC254598C4E9C42CD8F0A
:10146000CC429205CD8F8C46A205CD8FCC46C205CD
:10147000CD8F8C4AD44AD205CD8FE206D58F5CC27F
:1014800091676319F802145D904E9C42D18FD0424F
:101490001206D18F90462206D18F904AD44A520626
:1014A000E206D18FD58FB70600A0938646103697F7
:1014B0001CC38280B70700A0938747103E97B707E9
:1014C0000010FD17F5B7B70700A00A053E951C41AF
:1014D00089C593E717001CC1828037071000791770
:1014E000F98FD5BF9C4513F7070113F8F70001C723
:1014F000D8413368E80083D5050013F7F50F39C3E9
:1015000018418146854E3D4F930F8002930280041F
:10151000214E3396DE00B3F8C5006311160393988D
:10152000260033131F011343F3FF3377E300B3188F
:10153000180133E7E800639FF70550C98506E39A71
:10154000C6FD18C11307F00F6375B7045441214657
:10155000854E3D4F930F800293028004414EB39815
:10156000CE0033F715016392E80213172600011726
:101570003313EF001343F3FFB376D3003317E800C0
:10158000D98E639DF701232A15010506E319C6FDCF
:1015900054C18280E39457FA10C94DB7E39757FEC0
:1015A00023281501DDB70CC982804CC9828023A88D
:1015B000A18282809387018394430347050089E6D3
:1015C00083472500920731A8944305466391C604DA
:1015D000834725000346150092076314D60093E75E
:1015E00007F8B7E600E093F7F70FBA962380F640C6
:1015F0008546935757003397E6005441ADC693870D
:1016000007048A07B7E600E0B69798C382808C4348
:1016100089466393D5028346150083472500636599
:10162000D6008A06B69779BF9386E6038A06B697F0
:1016300093F7F70F920765B790438D46631ED60068
:1016400083461500834725006364D6008606D9BF0C
:101650009386C6078606E1BF94439147E39AF6F85E
:101660008347150085B79387070661BF3717024088
:101670005C439146B18B6385D700A1466386D7064C
:10168000B7177A00938707201CC1371602405C42C7
:1016900037070020130707009183BD8BBA9783C6D5
:1016A00007001C41B3D7D7005CC15442A1829D8A78
:1016B000BA9683C60600B3D6D70014C55442AD828D
:1016C0009D8A369703470700B3D7E7005CC55842A9
:1016D0003983937637001387C18036970347070015
:1016E000B3D7E7021CC982805C4354434167C98376
:1016F000F98E37F7FF1F0327C770BD8B89071316B5
:10170000170163480600454601476392C702C9476F
:1017100039A809476389E7023D476388E7024147E3
:101720006388E702454601476393C700C14785E6E2
:10173000B746024083A60680C18A8DC6B7167A00D6
:101740009386062025A00147D9B70547B547C5B7F9
:101750000147BD47E9BFB7160240D4421396E600E1
:10176000E35E06FCB7163D0093860690B387D7026A
:101770001CC101DF1C41858301BF99C53717024099
:101780005C4B5D8D48CB8280B7170240D84B134528
:10179000F5FF798DC8CB828099C5371702401C4F61
:1017A0005D8D08CF8280B7170240984F1345F5FF33
:1017B000798D88CF828083560501F577FD17F58FE7
:1017C00083D66500397122DC06DED58F03D7C500CC
:1017D0002318F5008356C500FD779387379FF58F53
:1017E00083D645002A842EC6D58F83D68500D58F13
:1017F00083D6A500D58F2316F50083574501C20770
:10180000C18393F7F7CFD98F231AF5006808B93D44
:10181000B747014093870780B245631EF404A2577F
:101820008356C4006547B387E702C206C186984164
:1018300063D5060406070356C4004206B3D7E70281
:10184000130740064186B3D6E702B3F7E7029206D4
:10185000635706028E0793872703B3D7E70213F770
:101860007700B367D700C207C1832314F400F25096
:10187000625421618280925765B70A076DBF920753
:1018800093872703B3D7E702BD8BD58FE9BF81C903
:101890008357C5000967D98F2316F5008280035747
:1018A000C500F977FD17F98FC5BF93F5F51F231212
:1018B000B5008280035505006D8D3335A000828010
:1018C00083A7818037177A0013070720B3D7E70271
:1018D00093F7F70F238BF1821307803EB387E7025C
:1018E000239AF1828280B7F700E0D8438146799B42
:1018F000D8C303C761833306A70290CBD4CB9843E8
:101900001367170398C3D843058B75DF9843799BFA
:1019100098C38280B7F700E0D8438146799BD8C34B
:1019200003D741833306A70290CBD4CB98431367E8
:10193000170398C3D843058B75DF9843799B98C3E9
:101940008280797122D42A8411658545110506D6D5
:10195000A135930700202312F100371501408D4770
:101960003EC44C00E147130505803EC6A53E22C893
:1019700037440140B70708000C08130504803ECC2B
:1019800002CA231E0100053D130504808545013769
:10199000B250225445618280011126CAB7440140E9
:1019A00022CC4AC84EC606CEAE8932890144938401
:1019B0000480634A2401F24062444A85D244424989
:1019C000B24905618280930500042685E53565DD11
:1019D000B38789008385070026850504C205C18178
:1019E000E935C1BF138701811C43938641853E952C
:1019F000636BD500B78600209386068063E5A6005A
:101A000008C33E858280FD57EDBF39713EDA2ED284
:101A100032D436D63AD842DC46DE9387418122CC96
:101A2000804326CA06CEAA8409C41C4C99E32285A9
:101A300015230C4454102686228536C6EF007016F6
:101A4000F2406244D24421618280011126CA4AC810
:101A500006CE22CC4EC652C4AA842E8901C51C4D86
:101A600091E3CD299C4C804499E32685E521971785
:101A700000009387E73D631CF402C0408357C40015
:101A8000A18BB1C71C48A1C7FD59294A1C448345F5
:101A90000900FD17B1E91CC463DE07062286A945CB
:101AA00026857120FD576308F502294535A0971753
:101AB00000009387E73B6314F4008044C1B7971795
:101AC00000009387E736E31BF4FAC04445BFA285C4
:101AD0002685312A55D97D55F2406244D244424987
:101AE000B249224A056182801CC4050963D70700F8
:101AF000184C63CBE700638945011C40138717002E
:101B000018C02380B70059B7228626850D20E31F11
:101B100035F7D1B71C401387170018C02947238019
:101B2000E70061B793874181AA85884339BF0111D6
:101B300022CC26CA4AC806CE4EC6AA842E89328432
:101B400001C51C4D91E33921971700009387473059
:101B50006319F406C0401C4C1CC48357C400A18BFD
:101B6000C9C31C48BDCF1C4808409379F90F1379AD
:101B7000F90F1D8D5C486346F500A2852685652C0E
:101B80002DE51C440505FD171CC41C4013871700D8
:101B900018C0238037015C486389A7008357C400BD
:101BA000858B81CBA9476316F900A2852685612420
:101BB0000DEDF24062444A85D2444249B249056182
:101BC0008280971700009387A72A6314F40080444B
:101BD00059B7971700009387A725E31EF4F6C04472
:101BE0009DBFA285268521203DDD7D59D9B74111B4
:101BF0009387418126C2844322C44AC006C62A89EB
:101C00002E8489C49C4C99E32685A9269717000049
:101C100093870724631CF402C0400317C400931782
:101C20000701C18393F68700B5EE93F607019DEE99
:101C3000A5472320F900136707042316E4007D5508
:101C4000B240224492440249410182809717000029
:101C5000938707226314F4008044C1B797170000EC
:101C60009387071DE31BF4FAC04445BF918B8DC7D2
:101C70004C5889C9930744046384F5004A85352B81
:101C8000232A04028357C4002322040093F7B7FDDC
:101C90002316F4001C481CC08357C40093E7870038
:101CA0002316F4001C4881EF8357C400130700205B
:101CB00093F707286385E700A2854A858521835726
:101CC000C40013F7170005C75C4823240400B307BA
:101CD000F0401CCC1C480145A5F78317C40013F73E
:101CE000070839DF93E707042316F40089BF898BBF
:101CF000014791E3584818C4F1BF83D7C5000111CB
:101D000022CC26CA06CE4AC84EC613F78700AA843C
:101D10002E8471EFD841634DE000B841634AE00082
:101D20000145F2406244D2444249B2490561828091
:101D300058547DD703A904009396370123A00400CB
:101D400063DD060670488357C400918B99C75C40D9
:101D50001D8E5C5899C33C401D8E5C540C508146CE
:101D600026858297FD570357C400631DF5009440F4
:101D7000F54763E8D706B70740208507B3D7D700F4
:101D8000858BA5C31C48232204001CC09317370170
:101D900063D80700FD576314F5009C4091E368C8C1
:101DA0004C5823A02401ADDD930744046384F5005F
:101DB00026852121232A0402A5B70C500146854619
:101DC00026850297FD572A86E31FF5F69C40A5DF7E
:101DD00075476385E70059476394E70423A024010E
:101DE00081B7136707042316E4007D551DBF83A93F
:101DF0000501E38709F203A905008D8B23A03501B6
:101E000033093941014791E3D84918C4E35A20F115
:101E10001C540C50CA864E86268582976349A000C2
:101E20008357C40093E707042316F4007DBFAA99E3
:101E30003309A940E1BF9C49B9CF011122CC06CE9C
:101E40002A8411C51C4D81E72EC62922B245971759
:101E500000009387E7FF639BF5004C408397C50024
:101E600095C722856244F240056141BD9717000085
:101E7000938707006394F5000C44CDB797170000D3
:101E8000938707FBE39CF5FC4C44C9BFF2406244D6
:101E900001450561828001458280411122C406C648
:101EA0002A842316B5002317C5002320050023220A
:101EB0000500232405002322050623280500232AE4
:101EC0000500232C0500214681451305C505EFE0DB
:101ED0002FB397170000938787B45CD09717000043
:101EE0009387E7B61CD497170000938727BB5CD471
:101EF000971700009387E7BD00D01CD8B24022445A
:101F00004101828097050000938525F3A9A2411124
:101F100026C2130680069384F5FFB384C4024AC028
:101F20002E8922C406C693854407252E2A8401CD16
:101F30002320050023222501310508C413868406C9
:101F40008145EFE0EFAB2285B24022449244024942
:101F5000410182801C4DADE3411106C622C49707A2
:101F60000000938767FA1CD5938781829C432324C2
:101F7000050423260504232805046314F50085477A
:101F80001CCD2A841D2848C02285052808C4228526
:101F90002D2048C448400146914501370844054674
:101FA000A545E53D48440946C945C53D85471CCC86
:101FB000B240224441018280828041119387818214
:101FC00026C284434AC006C69C4C22C42A8999E38F
:101FD00026854937938484048044DC40FD1763D60A
:101FE00007009C40B9CF8440C5BF0317C40039E740
:101FF000C17785072322040623200400232204003E
:10200000232404005CC423280400232A0400232C76
:102010000400214681451305C405EFE06F9E232A85
:102020000402232C0402232404042326040422850E
:10203000B240224492440249410182801304840642
:1020400071BF91454A85E13588C051FDB1472320D4
:10205000F9000144E9BF797122D44AD052CC56CA62
:102060005AC85EC606D626D24ECE2A8AAE8A130437
:1020700085040149054BFD5B09ECB25022544A85A9
:1020800092540259F249624AD24A424BB24B4561DC
:102090008280044483294400FD1963D40900004070
:1020A000E1BF83D7C400637BFB008397E4006387B1
:1020B0007701A6855285829A3369A90093848406A4
:1020C000E1BF1971A6DAAE848395E500A2DC86DE55
:1020D000328463DC050083D7C40023A0060093F795
:1020E000070885E7930700401DA0300836C6EF00BB
:1020F000D023B246E34105FE7247BD67F98F797779
:10210000BA9793B717009CC2F1BF930700041CC095
:10211000F6506654D65401450961828083D7C500C4
:10212000011122CC06CE26CA4AC8898B2E8489CFBB
:10213000930774041CC01CC885475CC8F240624405
:10214000D24442490561828074003000AA84953FE0
:10215000A2452A892685312201ED8317C40013F791
:10216000072069FFF19B93E727002316F400C9B706
:1021700097070000938747D99CD48357C40008C0B1
:1021800008C893E707082316F400A2475CC8B247C3
:1021900091CF8315E4002685EF00D01B01C983573A
:1021A000C400F19B93E717002316F4008357C40083
:1021B0003369F9002316240151B7DDC183A7C5FF98
:1021C000411122C406C626C21384C5FF63D307008B
:1021D0003E94AA84EF00F01E938781839C4381EF95
:1021E0002322040023AC81822244B24026859244FB
:1021F00041016F00301D637EF40014403307D400AA
:102200006396E7009843DC43369718C05CC0D9BF9B
:10221000BA87D84319C3E37DE4FE94433386D700DD
:10222000631F86001040B29694C33386D700E31D27
:10223000C7FA10435843B29694C3D8C375B76375B1
:10224000C400B1479CC04DB71040B306C40063162C
:10225000D70014435843B29614C058C0C0C369B7DE
:102260008280011126CA93843500F19806CE22CCD3
:102270004AC84EC6A104B14763F3F404B14463E213
:10228000B4042A89EF00F0139387818398433A843A
:1022900039E09387C1839C4391E781454A85892F23
:1022A00023AEA182A6854A85A127FD59631935076A
:1022B000B1472320F9004A85EF00D01029A0E3D0D0
:1022C00004FCB1471CC10145F2406244D24442497A
:1022D000B249056182801C40858F63CF0702AD46FD
:1022E00063F6F6001CC03E9404C031A05C4063134A
:1022F000870223ACF1824A85EF00D00C1305B400AD
:102300009307440061993307F5405DDF3A94898F64
:102310001CC05DBF5CC3C5B72287404095BF130496
:1023200035007198E30285FCB305A4404A85C925B0
:10233000E31C35FBB5BF1C46FD171CC663DA07005E
:10234000184E63C5E700A9476394F5006FF02FFEB0
:102350001C422E851387170018C22380B700828085
:10236000011122CC26CA4AC84EC652C406CE2A89BA
:10237000AE893284B304D6007D5A631494000145BB
:1023800009A8834504004E864A8575370504E3167F
:1023900045FFF2406244D2444249B249224A0561B3
:1023A0008280357122CD26CB4AC94EC706CF52C591
:1023B00056C35AC1DEDEE2DCE6DAAA89AE8432898F
:1023C000368409C51C4D99E3EFF0DFB8971700007C
:1023D000938707A8639BF40C83A4490083D7C400A8
:1023E000A18BF5C79C48E5C793070002A304F1023F
:1023F0009307000302D22305F10222C6930B500279
:10240000971A0000938ACAA8054C294B4A8483472F
:10241000040099C36390770FB30C2441638D0C00C3
:10242000E6864A86A6854E85253FFD576306F51E3E
:102430009256E69636D283470400638F071CFD57F9
:102440001309140002C802CE3ECA02CCA30901043B
:1024500082D48345090015465685B927130419000F
:10246000C24759E913F7070109C713070002A30977
:10247000E10413F7870009C71307B002A309E104B9
:10248000834609001307A0026380E608F2474A84E6
:10249000814625460347040093051400130707FDF2
:1024A0006379E60AB5CA3ECE85A8971700009387E0
:1024B000279C6395F40083A489000DB7971700004B
:1024C00093870797E39CF4F083A4C90001BFA68516
:1024D0004E85EFF0CFF109D97D55FA406A44DA44D0
:1024E0004A49BA492A4A9A4A0A4BF65B665CD65C64
:1024F0000D618280050421BF330555413315AC00C1
:10250000C98F3EC82289B1B73247930647001843A6
:1025100036C6634907023ACE034704009307E00238
:10252000631FF704034714009307A002631BF7021D
:10253000B2470904138747009C433AC663C10702A8
:102540003ECA35A83307E04093E727003ACE3EC89D
:10255000E1B7B387670385462E84BA9725BFFD5739
:10256000C5B7050402CA81468147254603470400D2
:1025700093051400130707FD6376E606F1F2834521
:1025800004000D461715000013050591312D11CDDE
:1025900097170000938747901D8D93070004B3970A
:1025A000A700424505045D8D2AC8834504001946ED
:1025B000171500001305858E130914002304B102BA
:1025C000E5233DC197E7FFFF9387C7A395E7424700
:1025D000B2471377071009CF91073EC69257D2979B
:1025E0003ED22DB5B387670385462E84BA97BDBF0B
:1025F0009D07E19BA107D5B7780097060000938659
:1026000066D626860C084E8597000000E70000007D
:10261000FD572A8AE314F5FC83D7C40093F7070417
:10262000E39C07EA125555BD780097060000938693
:1026300066D326860C084E85012AD9BF797156CA01
:102640009C49BA8A984522D426D24ECE52CC06D680
:102650004AD05AC85EC6AA892E84B284368A63D309
:10266000E700BA879CC00347340419C385079CC0A0
:102670001C4093F7070281C79C4089079CC003292F
:10268000040013796900631A0900130B9401FD5BC0
:102690005C449840998F634CF9041C408346340491
:1026A00093F70702B336D000A5EB13063404D285A6
:1026B0004E85829AFD576303F5041C4011469840ED
:1026C000998B544481446397C700B384E64063D335
:1026D000040081441C4418486354F700998FBE9449
:1026E000014969047D5B63982405014509A8854675
:1026F0005A86D2854E85829A631E75017D55B250E9
:10270000225492540259F249624AD24A424BB24B85
:10271000456182800509ADBF3307D400130600036D
:10272000A301C7040347540493871600A2978906A0
:10273000A381E7049DBF85462286D2854E85829A75
:10274000E30E65FB050945B7797122D426D24AD03C
:102750004ECE06D652CC56CA5AC8B68983C6850113
:10276000930790063289AA842E8413863504638DDC
:10277000F60263E2D706930780056387F61863EDD8
:10278000D7006380062293073004638EF60A930A0B
:1027900024042301D404C9A0930730066385F60AF4
:1027A00093074006E395F6FE1C40084393F607089E
:1027B00093054500C5C61C410CC363D80700130729
:1027C000D002B307F040A301E4049706000093860B
:1027D000666D29476DA8930700076383F61663E5C6
:1027E000D7029307E006638AF6189307F006E39092
:1027F000F6FA0C401C4313F80508138547006307DD
:10280000080608C39C438DA893075007E383F6FE90
:1028100093078007638AF61293073007E399F6F669
:102820001C43D04181459386470014C383AA070007
:1028300056859D2E01C53305554148C05C401CC8D6
:10284000A301040471A81C43930A2404938647003F
:102850009C4314C32301F4048547D5B793F60704BA
:102860001C410CC3B9DAC207C18781BF93F50504C7
:1028700008C3C9D983D707001307F0066387E60E9C
:1028800097060000938606622947A30104044C4082
:102890000CC463C5050008406D9908C099E3B28A6D
:1028A00091CDB28AB3F5E702FD1AB69583C505004E
:1028B0002380BA00B3D5E70263FFE70AA147631E8E
:1028C000F7001C40858B91CB58401C4863C7E7003C
:1028D00093070003A38FFAFEFD1A3306564110C872
:1028E0004E87CA867000A2852685893B7D5A631E65
:1028F000450B7D55B250225492540259F249624A16
:10290000D24A424B45618280A382D50497060000DB
:10291000938646590C40084313F805081C411105DD
:10292000630D080208C313F7150001C793E50502FC
:102930000CC04147B9FB0C4093F5F5FD0CC0B1B795
:102940009C4193E707029CC193078007A302F4040C
:10295000970600009386465675BF13F8050408C312
:10296000E30308FCC207C1837DBF9706000093867E
:102970006653214719BFAE8735B794411C43CC49F4
:1029800013F80608138547006306080008C39C4334
:102990008CC301A808C393F606049C43F5DA239080
:1029A000B70023280400B28A25BF14485686CA857A
:1029B00026858299E30F45F31C40898B8DE7B2474A
:1029C0004844E359F5F23E8535B785465686CA85B3
:1029D00026858299E30F65F1050A5C443247998F99
:1029E000E345FAFEE9BF014A930A94017D5BF5B71E
:1029F000411122C42A842E8523A8018406C6EFE053
:102A00007FFEFD576317F500938701859C4391C3B3
:102A10001CC0B240224441018280411122C42E8454
:102A20008395E50006C64522634905007C48AA97C0
:102A30007CC8B2402244410182808357C4007D7724
:102A40007D17F98F2316F400EDB783D7C500011168
:102A500022CC26CA4AC84EC606CE93F70710AA84CF
:102A60002E843289B68991C78395E500894601464F
:102A700031228357C4007D777D17F98F2316F40028
:102A80008315E4006244F240CE864A86B249424948
:102A90002685D24405613DA8411122C42E84839528
:102AA000E50006C6E128FD570357C400631BF50087
:102AB000FD77FD17F98F2316F400B240224441013F
:102AC00082808567D98F2316F40068C8FDB7839587
:102AD000E50005A8411122C42A842E85B2853686D8
:102AE00023A8018406C6EFE03FEBFD576317F5000E
:102AF000938701859C4391C31CC0B240224441018D
:102B00008280411122C42A842E8523A8018406C60E
:102B1000CD20FD576317F500938701859C4391C332
:102B20001CC0B240224441018280411122C42A8447
:102B30002E85B28523A8018406C6D120FD576317D0
:102B4000F500938701859C4391C31CC0B240224489
:102B500041018280411122C42A842E8523A8018448
:102B600006C66520FD576317F500938701859C43D2
:102B700091C31CC0B240224441018280411122C451
:102B80002A842E85B285368623A8018406C6612054
:102B9000FD576317F500938701859C4391C31CC0C3
:102BA000B24022444101828093F5F50F2A966314C6
:102BB000C5000145828083470500E38DB7FE05050A
:102BC000FDB782808280411122C42A842E85B2857D
:102BD000368623A8018406C6A920FD576317F50091
:102BE000938701859C4391C31CC0B240224441019C
:102BF00082809307800523A8F1847D558280930706
:102C0000800523A8F1847D5582809307800523A841
:102C1000F184014582809307800523A8F1847D55C6
:102C200082809307800523A8F1847D55828000006F
:102C3000204C43442049443A25780D0A0000000006
:102C400053797374656D436C6B3A25640D0A00000B
:102C500077696474683A253032642068656967680A
:102C6000743A25303264200A0000000043616D652B
:102C70007261204572720D0043616D65726120536F
:102C800075630D005247423536355F4D4F44450D53
:102C9000000000004D49443A253038780D0A000004
:102CA0005049443A253038780D0A0000FF002CFFC7
:102CB0002EDFFF013C321100090204D813E514484D
:102CC0002C0C33783A333BFB3E00431116103992FB
:102CD00035DA221A37C3230034C0361A068807C0F3
:102CE0000D870E414C0048005B0042034A81219948
:102CF0002440253826825C00630046000C3C61704D
:102D000062807C05208028306C006D806E0070022F
:102D1000719473C13D345A57120017111875190177
:102D20001A973236030F37404FCA50A85A236D0006
:102D30006D38FF00E57FF9C04124E01476FF33A031
:102D4000422043184C0087D5883FD703D910D3823F
:102D5000C808C9807C007D007C037D487D487C08D4
:102D60007D207D107D0E9000910E911A9131915A27
:102D700091699175917E9188918F919691A391AF70
:102D800091C491D791E891209200930693E3930523
:102D90009305930093049300930093009300930092
:102DA000930093009600970897199702970C972421
:102DB00097309728972697029798978097009700C3
:102DC000C3EFA400A800C511C651BF80C710B666E6
:102DD000B8A5B764B97CB3AFB497B5FFB0C5B1942B
:102DE000B20FC45CC0C8C1968C00863D50005190A3
:102DF000522C5300540055885A905B2C5C05D3022A
:102E0000C3ED7F00DA09E51FE167E000DD7F050023
:102E1000FF00DA09D703DF0233A03C00E167FF01BE
:102E2000E000E100E500D700DA00E000000000006B
:102E30000000000000000000000000000000000092
:102E40000000000000000000000000000000000082
:102E50000000000000000000000000000000000072
:102E60000000000000000000000000000000000062
:102E70000000000000000000000000000000000052
:102E8000000000000000000000000000232D302B97
:102E900020000000686C4C006566674546470000EE
:102EA0003031323334353637383941424344454680
:102EB0000000000030313233343536373839616242
:082EC000636465660000000078
:102EC80000000000010203040102030406070809C8
:102ED800000000004C2E00006C2E00002C2E00007C
:102EE80000000000000000000000000000000000DA
:102EF80000000000000000000000000000000000CA
:102F080000000000000000000000000000000000B9
:102F180000000000000000000000000000000000A9
:102F28000000000000000000000000000000000099
:102F380000A00020E0A1002000A24A040204060824
:102F4800C400002010000020060704050100030249
:102F58008040C02060A0E0001000002000000000B9
:00000001FF
