:100000006F20B02713000000130000001300000051
:100010001300000013000000130000001300000094
:100020001300000013000000130000001300000084
:08003000130000007300100032
:100038000000000000000000C4270000D4270000D2
:1000480000000000C02900000000000000000000BF
:10005800C2290000C42900000000000000000000C0
:10006800C629000000000000C829000000000000A8
:10007800CA290000CC290000CE290000D0290000A0
:10008800D2290000D42900002424000048240000BC
:100098006C24000090240000B4240000E029000033
:1000A800E2290000E4290000E6290000E829000010
:1000B800EA290000EC290000EE290000F0290000E0
:1000C800F2290000F4290000F6290000D8240000D5
:1000D800FA290000F4250000FE290000002A00008B
:1000E800242600005426000084260000082A000068
:1000F8000A2A00000C2A00000E2A0000102A00001C
:10010800122A00000C22000040220000A222000057
:10011800602500001C2A00001E2A0000202A00007A
:100128003C270000242A0000262A0000282A000074
:100138002A2A00002C2A0000B4260000302A0000D9
:10014800D62200000A230000E42600000C27000045
:100158003A2A00003C2A00003E2A0000402A0000FB
:10016800422A0000442A0000462A0000482A0000CB
:100178004A2A00004C2A00004E2A0000F8460000D7
:10018800522A0000542A0000E62300003A23000007
:100198006E230000BA2300005E2A00006C270000CE
:1001A800622A0000642A0000662A00009C270000DA
:1001B8006A2A00006C2A00006E2A0000702A0000DB
:1001C800722A0000742A0000762A0000782A0000AB
:1001D8000000000000000000000000000000000017
:1001E8000000000000000000000000000000000007
:0801F8000000000000000000FF
:10020000737504308280B76200009382820873A005
:10021000023082803D432A876373C3029377F700DD
:10022000BDEFADE5937606FF3D8ABA960CC34CC38D
:100230000CC74CC74107E36BD7FE11E28280B306BF
:10024000C3408A069702000096966780A60023079F
:10025000B700A306B7002306B700A305B700230520
:10026000B700A304B7002304B700A303B700230318
:10027000B700A302B7002302B700A301B700230110
:10028000B700A300B7002300B700828093F5F50FF5
:1002900093968500D58D93960501D58D61B793967C
:1002A00027009702000096968682E78086FA96805D
:1002B000C1171D8F3E96E374C3F8A5B7011122CE76
:1002C00000102324A4FE2326B4FEB7F700E023A0E9
:1002D0000700B7F700E08146014794C7D8C7B7F7D2
:1002E00000E0054798C30100B7F700E003A8C70086
:1002F0009C470327C4FEC286636CD7000327C4FE55
:10030000C286E313D7FE032784FE6363F700E9BFC9
:100310000100724405618280011122CE0010232663
:10032000A4FEAE87A305F4FE8347B4FE9DC78327D2
:10033000C4FEBD8B0547B317F70093960701C18232
:100340008327C4FE13D75700A9670A079387C707F7
:10035000BA979C43368798CB35A08327C4FEBD8BC4
:100360000547B317F70093960701C1828327C4FEA0
:1003700013D75700A9670A079387C707BA979C4303
:100380003687D8CB0100724405618280797122D60C
:100390000018232EA4FC8327C4FD958393F7F70F41
:1003A0009D8BA307F4FE8327C4FD93F7F70FBD8B46
:1003B0002307F4FE0347F4FEA9670A079387C707DC
:1003C000BA979C43DC470347E4FE85463397E60033
:1003D000420741833A868346F4FE29678A0613075B
:1003E000C70736971843B18F5CC701003254456187
:1003F0008280797106D622D40018232EA4FC232CE7
:10040000B4FC232AC4FC2328D4FC8327C4FD958391
:1004100093F7F70F9D8BA307F4FE8327C4FD93F793
:10042000F70FBD8B2307F4FE0327C4FD9307F00FDE
:100430006305F7140327C4FD9307F00F6301F71456
:100440008347F4FE91E785451145EF20F07841A000
:100450000347F4FE85476317F70085452145EF20E4
:10046000B077B5A00347F4FE89476317F7008545C9
:100470004145EF207076A1A80347F4FE8D4763182D
:10048000F700854513050002EF20107589A003478A
:10049000F4FE91476318F700854513050004EF202B
:1004A000B07335A00347F4FE95476318F700854500
:1004B00013050008EF20507219A80347F4FE99476E
:1004C0006317F700854513050010EF20F070834790
:1004D000E4FE0547B317F700C207C1832310F4FEFB
:1004E000032784FD85476317F702832704FDC207AE
:1004F000C183A183C207C18389E78D472322F4FE0C
:1005000011A8832704FDC207C183A183C207C18349
:100510002322F4FE832704FDC207C18393F7F70F5C
:100520002324F4FE0347F4FEA9670A079387C7074D
:10053000BA979C433E87930704FEBE853A85EF2019
:100540003003032784FD8547631CF7020347F4FE4D
:10055000A9670A079387C707BA979C43BE86834754
:10056000E4FE0547B317F700C207C183032644FD25
:10057000BE853685EF20702221A0010011A0010068
:10058000B250225445618280011106CE22CC001067
:100590002326A4FE8327C4FE89EB930680310146FF
:1005A00085452145B9356F00C0720327C4FE8547D4
:1005B000631AF70093068031014685452545153DB0
:1005C0006F0020710327C4FE8947631AF700930662
:1005D0008031014685452945293D6F00806F0327FD
:1005E000C4FE8D47631AF7009306803101468545A6
:1005F0002D4501356F00E06D0327C4FEC147631B25
:10060000F700930680310146854513059008D533E0
:100610006F00206C0327C4FEC547631AF7009306DA
:100620008031014685451305B008E1335DA50327F8
:10063000C4FEC947631AF700930680310146854519
:100640001305D0087D3371A50327C4FECD47631A77
:10065000F70093068031014685451305E008513BBC
:100660008DAD0327C4FE930700106319F7009306AE
:100670008031014685450145AD3BA1AD0327C4FE50
:10068000930710106319F7009306803101468545E2
:10069000054585333DAD0327C4FE9307201063193C
:1006A000F70093068031014685450945993315A524
:1006B0000327C4FE930730106319F70093068031B7
:1006C000014685450D45353329A50327C4FE93070B
:1006D00000116319F70093068031014685453D45B9
:1006E000093BC5AB0327C4FE93071011631AF7003B
:1006F000930680310146854513053002DD39D1ABC3
:100700000327C4FE93072011631AF7009306803174
:10071000014685451305A002E93965AB0327C4FEF0
:1007200093073011631AF70093068031014685451F
:100730001305B0027D3971AB0327C4FE9307002077
:100740006319F700930680310146854519455531F7
:1007500049A30327C4FE930710206319F7009306EB
:100760008031014685451D456931A5A30327C4FE97
:1007700093072020631AF7009306803101468545D0
:1007800013050002BD31B1A30327C4FE9307302037
:10079000631AF70093068031014685451305100260
:1007A000893905AB0327C4FE93070021631AF700BC
:1007B0009306803101468545130560041D3911AB50
:1007C0000327C4FE93071021631AF70093068031B4
:1007D00001468545130570042939E5A90327C4FEA0
:1007E00093072021631AF70093068031014685455F
:1007F00013058004FD3EF1A90327C4FE93073021B1
:10080000631AF7009306803101468545130590046D
:10081000CD36C1A10327C4FE93070022631AF70057
:10082000930680310146854513054002D93655A10E
:100830000327C4FE93071022631AF7009306803142
:1008400001468545130550026D3661A10327C4FE9C
:1008500093070030631AF7009306803101468545FF
:10086000130560027936B5A10327C4FE9307103043
:10087000631AF7009306803101468545130570021F
:100880008D3E81A90327C4FE93072030631AF70029
:10089000930680310146854513058002993E15A9CE
:1008A0000327C4FE93073030631AF70093068031A4
:1008B00001468545130590022D3E21A90327C4FE5C
:1008C00093070031631AF70093068031014685458E
:1008D0001305C006393EF5AE0327C4FE9307103159
:1008E000631AF70093068031014685451305D0064B
:1008F0000936C5A60327C4FE93072031631AF70003
:1009000093068031014685451305E006DD34D1A606
:100910000327C4FE93073031631AF7009306803132
:10092000014685451305F006E93465A60327C4FE94
:10093000930700406319F70093068031014685450F
:100940000145453C79A60327C4FE9307104063196F
:10095000F70093068031014685450545593C95AE23
:100960000327C4FE930720406319F70093068031E4
:10097000014685450945B53CA9AE0327C4FE93074A
:1009800030406319F70093068031014685450D45D7
:100990008D3481A60327C4FE93070070631AF70005
:1009A000930680310146854513056004993415A6E8
:1009B0000327C4FE93071070631AF7009306803173
:1009C00001468545130570042D3421A60327C4FE76
:1009D00093072070631AF70093068031014685451E
:1009E000130580043934F5A40327C4FE930730703F
:1009F000631AF7009306803101468545130590047C
:100A0000CD3AC1AC0327C4FE93070071631AF70007
:100A1000930680310146854513056002D93A55ACED
:100A20000327C4FE93071071631AF7009306803101
:100A300001468545130570026D3A61AC0327C4FE7B
:100A400093072071631AF7009306803101468545AC
:100A500013058002793AB5AC0327C4FE93073071C1
:100A6000631AF70093068031014685451305D004CB
:100A7000493285A48327C4FE9387078081EB9306C0
:100A80008031014685450945AD32A1A40327C4FE46
:100A90008567938717806319F700930680310146B5
:100AA00085450D45B93235A40327C4FE8567938774
:100AB00027806319F700930680310146854511456B
:100AC0000D3A01AC0327C4FE856793873780631A0C
:100AD000F700930680310146854513054004113A1D
:100AE000CDAA0327C4FE856793870781631AF700A1
:100AF000930680310146854513059006DD38D1AA5D
:100B00000327C4FE856793871781631AF70093064E
:100B10008031014685451305B006E1385DAA0327FB
:100B2000C4FE856793872781631AF7009306803197
:100B3000014685451305D0066D3861AA0327C4FE1A
:100B4000856793873781631AF700930680310146E2
:100B500085451305F0067138ADAA0327C4FE8567E5
:100B600093870790631AF700930680310146854505
:100B700013058002BD38B1AA0327C4FE8567938799
:100B80001790631AF70093068031014685451305D7
:100B9000900285303DAA0327C4FE8567938727907E
:100BA000631AF7009306803101468545130530042A
:100BB000893005A20327C4FE856793873790631B9E
:100BC000F70093068031014685451305B004EFF028
:100BD0005F8201A20327C4FE856793870791631B89
:100BE000F700930680310146854513051006EFF0A6
:100BF0005F80C5A00327C4FE856793871791631B99
:100C0000F700930680310146854513053006EFF065
:100C10004FFEC1A00327C4FE856793872791631BFE
:100C2000F700930680310146854513055006EFF025
:100C30004FFC45A00327C4FE856793873791631B4C
:100C4000F700930680310146854513057006EFF0E5
:100C50004FFA41A00327C4FE856793870792631B61
:100C6000F700930680310146854513053002EFF009
:100C70004FF885A00327C4FE856793871792631BEF
:100C8000F700930680310146854513054002EFF0D9
:100C90004FF681A00327C4FE856793872792631BC5
:100CA000F700930680310146854513055002EFF0A9
:100CB0004FF405A00327C4FE856793873792631A14
:100CC000F70093068031014685451305F004EFF0E7
:100CD0004FF20100F240624405618280397106DE04
:100CE00022DC80002326A4FC2324B4FC2322C4FCA1
:100CF000231704FE8327C4FCA1838D453E85D52E92
:100D0000AA873E871306900BA9679385C7F93A8592
:100D1000EF10E01E8327C4FCA1833E853D210325FF
:100D2000C4FCEFF07F8685450545EF20E06A832708
:100D3000C4FC13D747008547631AF7008545B707FA
:100D400016001385070CEF20C02801A28327C4FCDE
:100D500013D74700C547631AF7008545B707180042
:100D600013850730EF20E026CDA08327C4FC13D7DE
:100D7000470093071002631AF7008545B7171A005A
:100D8000138507C0EF20E024C9A08327C4FC13D734
:100D9000470093072002631AF7008545B7171A002A
:100DA00013850780EF20E0224DA08327C4FC13D7D2
:100DB0004700930710036317F70085450565EF208B
:100DC000402161A08327C4FC13D747009307100775
:100DD000631BF700B7070140D84FB70701401367FF
:100DE0004700D8CF9DA08327C4FC13D747009307A3
:100DF0001008631BF700B7070140D84FB707014041
:100E000013670701D8CF91A08327C4FC13D74700ED
:100E100093071009631BF700B7070140D84FB707C6
:100E2000014013670704D8CF0DA08327C4FC13D754
:100E3000470093072009631AF700B7070140D84F0E
:100E4000B707014013670702D8CFB707002003A7F1
:100E50000722832784FCB357F702C1832317F4FECC
:100E6000B707002003A707228357E4FE8507BE8645
:100E7000832784FCB387F602B357F7022316F4FEE8
:100E80000357C4FE832744FC3307F702896793871F
:100E90000771B357F7022315F4FE8357C4FEFD17FD
:100EA000C207C1832312F4FE8357E4FE2310F4FE2D
:100EB000231304FE231104FE230404FE8327C4FC31
:100EC00013D78700A9670A0793870709BA979C4336
:100ED0003E87930704FEBE853A85EF20A05893070E
:100EE00000072318F4FC85472319F4FC231A04FC9B
:100EF0008357A4FE231BF4FC8947231CF4FC894779
:100F0000231DF4FC231E04FC231F04FC8327C4FCC4
:100F10008D8BB9EF8327C4FC13D78700A9670A0715
:100F200093870709BA979C433E87930704FDBE85C4
:100F30003A85EF20006B8327C4FC13D78700A9678D
:100F40000A0793870709BA979C43A1453E85EF207E
:100F5000D0618327C4FC13D78700A9670A0793874A
:100F60000709BA979C4391453E85EF20D07489A22A
:100F70008327C4FC13F7370085476311F7068327DF
:100F8000C4FC13D78700A9670A0793870709BA9794
:100F90009C433E87930704FDBE853A85EF20207E63
:100FA0008327C4FC13D78700A9670A07938707091B
:100FB000BA979C43A1453E85EF20F05F8327C4FC90
:100FC00013D78700A9670A0793870709BA979C4335
:100FD000930500403E85EF20D072D9A88327C4FC3A
:100FE00013F7370089476310F7068327C4FC13D72C
:100FF0008700A9670A0793870709BA979C433E872A
:10100000930704FDBE853A85EF2090158327C4FC25
:1010100013D78700A9670A0793870709BA979C43E4
:10102000A1453E85EF20D05E8327C4FC13D78700FF
:10103000A9670A0793870709BA979C4391453E859C
:10104000EF209071B5A08327C4FC13F737008D47BC
:101050006310F7068327C4FC13D78700A9670A0724
:1010600093870709BA979C433E87930704FDBE8583
:101070003A85EF20B02C8327C4FC13D78700A967DB
:101080000A0793870709BA979C43A1453E85EF203D
:10109000F05C8327C4FC13D78700A9670A079387EE
:1010A0000709BA979C43930500403E85EF20906F57
:1010B0008327C4FC13D78700A9670A07938707090A
:1010C000BA979C4385453E85EF2030448327C4FC76
:1010D00013D78700A9670A0793870709BA979C4324
:1010E00085453E85EF20F03C0100F25062542161BD
:1010F0008280011122CE00102326A4FE2324B4FEF8
:101100000327C4FE0A0793874188BA979C4381EF5F
:101110000327C4FE0A0793874188BA97032784FEF2
:1011200098C3854739A80327C4FE0A0793874188D7
:10113000BA979C43032784FE6314F700854711A0E8
:1011400081473E85724405618280011106CE22CC22
:1011500000102326A4FE8327C4FE81EB8545856706
:1011600013850780EF2040276DA80327C4FE85471D
:101170006317F70085450545EF20602A5DA003272A
:10118000C4FE89476317F70085450945EF202029EC
:1011900049A80327C4FE8D476317F700854511450D
:1011A000EF20E027BDA80327C4FE91476317F7008F
:1011B00085452145EF20A026ADA00327C4FE954715
:1011C0006317F70085454145EF20602599A803275F
:1011D000C4FE99476318F700854513050002EF2008
:1011E000002481A00327C4FE9D476317F7008545AF
:1011F0000965EF20601E35A00327C4FEA1476318D0
:10120000F700854537050800EF20001D19A80327C2
:10121000C4FEA5476317F700854537051000EF208A
:10122000A01B0100F240624405618280011106CEDC
:1012300022CC00102326A4FE2324B4FE8327C4FE60
:1012400081EBE146014685452545EFF08F9AC9AA15
:101250000327C4FE8947631AF700E1460146854526
:1012600013056002EFF0EF9865AA0327C4FEC1479B
:101270006319F700E146014685450945EFF06F9790
:1012800045A20327C4FEC947631AF700E146014699
:10129000854513055006EFF0CF9559A20327C4FEEC
:1012A00093070002631AF700E146014685451305DE
:1012B000A002EFF00F94ADA20327C4FE9307200213
:1012C000631AF700E146014685451305A004EFF0D7
:1012D0004F92B9A20327C4FE93074002631AF70096
:1012E000E1460146854513058006EFF08F900DAA73
:1012F0000327C4FE93070004631AF700E146014682
:1013000085451305A004EFF0CF8E19AA0327C4FE6C
:1013100093072004631AF700E1460146854513054B
:101320000002EFF00F8DEDA80327C4FE9307000520
:10133000631AF700E146014685451305C004EFF046
:101340004F8BF9A80327C4FE93072005631AF70003
:10135000E1460146854513058008EFF08F89C9A055
:101360000327C4FE93070006631AF700E14601460F
:10137000854513050004EFF0CF875DA00327C4FE69
:1013800093072006631AF700E146014685451305D9
:101390000004EFF00F8669A00327C4FE930700073F
:1013A000631AF700E1460146854513052004EFF076
:1013B0004F84BDA00327C4FE930720076319F700DD
:1013C000E146014685451945EFF0AF8291A8032714
:1013D000C4FE93074007631AF700E14601468545BE
:1013E0001305C008EFF0EF8025A80327C4FE93077C
:1013F0000008631AF700E1460146854513054004DD
:10140000EFE03FFF31A80327C4FE930720086319CC
:10141000F700E146014685451305E008EFE07FFD52
:10142000032784FE8547631AF7009306800401466C
:1014300081452945EFE0FFFBD5AA032784FE8D47B0
:10144000631BF70093068004014681451305700273
:10145000EFE03FFAE1AA032784FEC547631AF700CD
:1014600093068004014681450D45EFE09FF87DAA73
:10147000032784FECD47631BF700930680040146D3
:10148000814513056006EFE0DFF64DA2032784FED9
:1014900093071002631BF700930680040146814501
:1014A0001305B002EFE0FFF451A2032784FE930777
:1014B0003002631BF7009306800401468145130543
:1014C000B004EFE01FF39DA2032784FE93075002B0
:1014D000631BF700930680040146814513059006BF
:1014E000EFE03FF1A1A2032784FE93071004631BE2
:1014F000F70093068004014681451305B004EFE030
:101500005FEF2DA2032784FE93073004631BF700CF
:10151000930680040146814513051002EFE07FED3C
:1015200031A2032784FE93071005631BF70093067F
:1015300080040146814513052006EFE09FEBFDA0E6
:10154000032784FE93073005631BF700930680048E
:101550000146814513059008EFE0BFE9C1A80327C4
:1015600084FE93071006631BF70093068004014670
:10157000814513051004EFE0DFE74DA8032784FE43
:1015800093073006631BF7009306800401468145EC
:101590001305B008EFE0FFE551A8032784FE930789
:1015A0001007631BF700930680040146814513056D
:1015B0003004EFE01FE49DA8032784FE9307300763
:1015C000631AF70093068004014681451D45EFE04C
:1015D0005FE2A9A8032784FE93075007631BF70067
:1015E00093068004014681451305D008EFE07FE0B3
:1015F00035A8032784FE93071008631BF7009306A2
:1016000080040146814513055004EFE09FDE39A8B0
:10161000032784FE93073008631AF70093068004BB
:10162000014681451305F008EFE0BFDC0100F24000
:10163000624405618280011106CE22CC001023266F
:10164000A4FEAE87A305F4FEA9670327C4FE0A071C
:101650009387870BBA979C433E878347B4FE3E86A9
:10166000930550523A85EF20704CB7E700E093861F
:1016700081810327C4FE369703470700BA9723806A
:1016800007408347B4FE81CF138781818327C4FE3F
:10169000BA9783C707003E85EF00902D19A81387DE
:1016A00081818327C4FEBA9783C707003E85EF0078
:1016B000F02D0100F240624405618280011122CECA
:1016C00000102326A4FE2324B4FEA9670327C4FE2A
:1016D0000A079387870BBA979C4383D70700C207F3
:1016E000C18393F707028DC7A9670327C4FE0A07C2
:1016F0009387870BBA979C4383D74700C207C18360
:1017000013F7F70F832784FE2380E700854711A096
:1017100081473E85724405618280797106D622D464
:101720000018232EA4FC232CB4FC232AC4FC232859
:10173000D4FC85450545EF10304A832504FD03257B
:1017400044FDEFF0BFAE032744FD8947631CF7005B
:10175000032704FD8D476317F70085451145EF10FA
:10176000500795A2032744FDC947631CF7000327D0
:1017700004FDCD476317F70085452145EF1070053F
:1017800099A2032744FD930720026310F702032761
:1017900004FD93073002631AF7008545B70714006C
:1017A00013850701EF10F00239AA032744FD9307C0
:1017B00040026310F702032704FD93075002631AE7
:1017C000F7008545B707140013850703EF10700075
:1017D000DDA8032744FD93072004631DF7000327BA
:1017E00004FD930730046317F70085450565EF1086
:1017F000407ED1A8032744FD930720056310F7021C
:10180000032704FD93073005631AF7008545B707E2
:10181000200013851700EF10C07B75A0032744FD3F
:10182000930720066310F702032704FD9307300691
:10183000631AF7008545B717008013850780EF10FE
:10184000407951A0032744FD930720076312F70254
:10185000032704FD93073007631CF700B707014017
:10186000D44FB707014037074000558FD8CFA1A804
:10187000032744FD930740076312F702032704FD83
:1018800093075007631CF700B7070140D44FB70711
:10189000014037078000558FD8CF35A0032744FD7E
:1018A000930720086311F702032704FD930730080C
:1018B000631BF700B7070140D44FB7070140370754
:1018C0000002558FD8CF8327C4FD91E78545116568
:1018D000EF10903069A80327C4FD85476318F7000F
:1018E000854537050200EF10903351A00327C4FD52
:1018F00089476318F700854537050400EF1030323B
:10190000BDA00327C4FD8D476318F7008545370543
:101910000800EF10D030A1A80327C4FD9147631839
:10192000F700854537051000EF10702F89A00327B9
:10193000C4FD95476318F700854513050004EF10B3
:10194000102E35A00327C4FD99476318F70085457D
:1019500013050008EF10B02C19A80327C4FD9D47FC
:101960006317F700854513050010EF10502B8327F0
:1019700084FD2320F4FE231204FE231304FE23140B
:1019800004FE231604FEB1472315F4FEA9670327BE
:10199000C4FD0A079387870BBA979C433E8793073A
:1019A00004FEBE853A85EF20206FA9670327C4FD9A
:1019B0000A079387870BBA979C4385453E85EF209E
:1019C000F0100100B250225445618280411106C6D8
:1019D00022C40008938581821945CD31054693853F
:1019E00081821385C18A1D250100B2402244410134
:1019F0008280411106C622C4000893859182054564
:101A000075390546938591821385018C0125010066
:101A1000B240224441018280411106C622C400081E
:101A200003A7C1838947630FF70003A7C1838D47CD
:101A30006314F700992039A003A7C183914763136A
:101A4000F70045280100B240224441018280411143
:101A500006C622C4000803A7C18391476314F70098
:101A6000E52839A003A7C1838D476313F7008528B4
:101A70000100B240224441018280411106C622C4C5
:101A8000000883C7F1823E879387C182BA97BE85DB
:101A900011452D31AA8781CB83C7F182850713F7C2
:101AA000F70FA387E18203C7F1828547631AF70026
:101AB00003C7C1829307500A6304F700A38701821A
:101AC00003C7F1828D476317F700A387018205479B
:101AD0002388E1820100B240224441018280411109
:101AE00022C6000805472385E182010032444101F6
:101AF0008280411106C622C4000883C771833E87D5
:101B000093874183BA97BE851145EFF03FBBAA8703
:101B100081CB83C77183850713F7F70FA38BE1820E
:101B200003C771838547631AF70003C7418393078F
:101B3000500A6304F700A38B018203C771838D47AA
:101B40006317F700A38B01820547238CE182010014
:101B5000B240224441018280411122C6000805475B
:101B6000A38CE1820100324441018280411106C60A
:101B700022C40008938541840545EFF03FB4054633
:101B8000938541841385418D51210100B240224447
:101B900041018280411106C622C400089385518408
:101BA0000545EFF0BFB10546938551841385818EBD
:101BB000B1290100B240224441018280011106CEC8
:101BC00022CC00102326A4FE0327C4FE23A4E18414
:101BD00011280325C4FE5120C12B0100F2406244AC
:101BE00005618280411122C60008B7170240984360
:101BF000B71702401367170098C3B7170240D443C2
:101C0000B71702403707FFF8758FD8C3B7170240E0
:101C10009443B71702403707F7FE7D17758F98C3B7
:101C2000B71702409443B71702403707FCFF7D17F0
:101C3000758F98C3B7170240D443B71702403707D0
:101C400081FF7D17758FD8C3B717024037079F00F4
:101C500098C70100324441018280797122D6001870
:101C6000232EA4FC232604FE232404FEB7170240DF
:101C70009443B71702404167558F98C3B717024086
:101C80009843B7070200F98F2324F4FE8327C4FE8C
:101C900085072326F4FE832784FE99E70327C4FEE5
:101CA00093070050E31CF7FCB71702409843B707AF
:101CB0000200F98F89C785472324F4FE19A0232445
:101CC00004FE032784FE85476315F71EB7270240ED
:101CD0009843B72702401367070198C3B72702400C
:101CE0009843B7270240719B98C3B727024094439B
:101CF0008327C4FD1387F7FFB7376E01938707600B
:101D0000B357F70213F77700B7270240558F98C3F0
:101D100037170240B71702405843D8C3371702405D
:101D2000B71702405843D8C337170240B7170240CD
:101D30005843D8C30327C4FDB7177A0093870720F9
:101D4000631BF702B7170240D843B7170240719BD5
:101D5000D8C3B7170240D843B7170240136717001C
:101D6000D8C30100B7170240DC4313F7C7009147FF
:101D7000E31AF7FE81A2B7170240D443B717024017
:101D80003707C1FF7D17758FD8C30327C4FDB74739
:101D9000950893870740631BF700B7170240D443A9
:101DA000B71702404167558FD8C355A80327C4FD14
:101DB000B7172707938707E0631CF700B7170240A0
:101DC000D443B717024037073900558FD8C341A80D
:101DD0000327C4FDB7E7B80593870780631CF700A6
:101DE000B7170240D443B717024037072900558F71
:101DF000D8C3B5A00327C4FDB7A74A04938707201B
:101E0000631CF700B7170240D443B71702403707E7
:101E10001D00558FD8C3A1A00327C4FDB777DC02EE
:101E2000938707C0631CF700B7170240D443B71766
:101E3000024037071100558FD8C315A00327C4FDF2
:101E4000B7376E0193870760631BF700B71702402F
:101E5000D443B717024037070500558FD8C3B717CB
:101E600002409443B717024037070001558F98C3CB
:101E70000100B71702409843B7070002F98FF5DB5E
:101E8000B7170240D843B7170240719BD8C3B717A2
:101E90000240D843B717024013672700D8C3010098
:101EA000B7170240DC4313F7C700A147E31AF7FE58
:101EB00011A001A0325445618280411122C6000860
:101EC00001000100324441018280411106C622C452
:101ED00000089306100213060002F167938507209D
:101EE0000945EFF09F8385450945EFF0CFF405479D
:101EF0002386E1840100B240224441018280011125
:101F000006CE22CC0010AA872324B4FE2322C4FECE
:101F1000A307F4FE8347F4FE85E383C7C18491CB16
:101F2000032644FE832584FEA967138507FFEF502F
:101F3000F0224D2C5937FDBF0100F240624405618B
:101F40008280797106D622D40018232EA4FC232C7B
:101F5000B4FC232AC4FC232604FEA9A00100A9671F
:101F60009387870B9C47930500043E85EF20204B09
:101F7000AA87F5D7A9679387870B9C47BE868327D7
:101F800084FD13871700232CE4FC83870700C20716
:101F9000C183BE853685EF20A0458327C4FE850713
:101FA0002326F4FE0327C4FE832744FDE348F7FA03
:101FB000832744FD3E85B250225445618280011141
:101FC00022CE00102326A4FE2324B4FE8327C4FEC1
:101FD000D843832784FE3E978327C4FED8C319A81D
:101FE0008327C4FED8438327C4FE9C4B1D8F8327C1
:101FF000C4FED8C38327C4FE984B8327C4FEDC43AA
:10200000E3F0E7FE0100724405618280797106D633
:1020100022D40018232EA4FC232CB4FC232AC4FCB5
:102020008327C4FDDC47032744FD637BF70C5D2A4F
:102030008327C4FD984B8327C4FDDC43B307F740D7
:102040002326F4FE032744FD8327C4FE63FBE70633
:102050008327C4FD98438327C4FDDC43BA97032636
:10206000C4FE832584FD3E85EF4090648325C4FE35
:102070000325C4FDA937032784FD8327C4FEBA972F
:10208000232CF4FC8327C4FD98438327C4FDDC4341
:10209000B306F700032744FD8327C4FEB307F740C8
:1020A0003E86832584FD3685EF409060032744FDFE
:1020B0008327C4FEB307F740BE850325C4FD01375F
:1020C00025A08327C4FD98438327C4FDDC43BA972A
:1020D000032644FD832584FD3E85EF40705D832506
:1020E00044FD0325C4FDE13D8327C4FDD847832774
:1020F00044FD1D8F8327C4FDD8C77528814711A0D3
:1021000089473E85B250225445618280011122CE1A
:1021100000102326A4FE8327C4FEFD8B0547B316BB
:10212000F70037E700E08327C4FE95839387070411
:102130008A07BA9794C30100724405618280011135
:1021400022CE00102326A4FE8327C4FEFD8B054764
:10215000B316F70037E700E08327C4FE9583938723
:1021600007068A07BA9794C301007244056182800A
:10217000011106CE22CC00102326A4FE0325C4FEA6
:1021800071370100F240624405618280011106CE80
:1021900022CC00102326A4FE0325C4FE4D370100E7
:1021A000F240624405618280411122C600080100AC
:1021B000324441018280411106C622C4000883A72F
:1021C000018599C783A701851387F7FF23A8E184B9
:1021D00083A7018599E3EFE00F830100B240224419
:1021E00041018280411106C622C4000883A70185EF
:1021F00099E3EFE0EF8083A701851387170023A8F9
:10220000E1840100B240224441018280411122C692
:10221000000893055052B747014013850780EF200F
:102220006024AA8789CB93055052B7470140138594
:102230000780EF2040330100324441017300203019
:10224000411122C6000893055052B747004013853C
:102250000740EF202021AA87A1C303A70184854757
:102260006315F700EFF01F9305A003A701848947CA
:102270006315F700EFF0EFF701A803A701848D477E
:102280006314F700EFF09F8E93055052B74700405C
:1022900013850740EF20202D0100324441017300D7
:1022A0002030411122C6000893055052B757004014
:1022B00013850780EF20001BAA8789CB9305505216
:1022C000B757004013850780EF20E0290100324412
:1022D000410173002030411122C60008930550527D
:1022E000B7570040138507C0EF20C017AA8789CBD6
:1022F00093055052B7570040138507C0EF20A02622
:1023000001003244410173002030411122C600080F
:102310009305505237550040EF20C014AA8789CB4F
:10232000EFF08FEF9305505237550040EF20A02378
:1023300001003244410173002030411122C60008DF
:1023400093055052B727004013850780EF20801176
:10235000AA8789CB93055052B72700401385078081
:10236000EF20602001003244410173002030411110
:1023700022C6000893055052B7270040138507C0B6
:10238000EF20400EAA878DC703A701848547630904
:10239000F70003A7018489476314F700EFF00FE308
:1023A00093055052B7270040138507C0EF20A01BAC
:1023B00001003244410173002030411122C600085F
:1023C0009305505237250040EF20C009AA8799C7CE
:1023D0009305505237250040EF20E01801003244A9
:1023E000410173002030411122C60008B707055093
:1023F00083C7070193F7F70F918B85C3EFF02FE5A4
:10240000B707055083C7070113F7F70FB707055044
:102410006D9B1377F70F2388E700010032444101D9
:1024200073002030411122C600080545EF00F00C72
:102430002A8785476315F7000545EF0070110100F5
:102440003244410173002030411122C60008094581
:10245000EF00B00A2A8785476315F7000945EF00AA
:10246000300F01003244410173002030411122C677
:1024700000081145EF0070082A8785476315F700AB
:102480001145EF00F00C010032444101730020308F
:10249000411122C600082145EF0030062A878547F2
:1024A0006315F7002145EF00B00A010032444101F5
:1024B00073002030411122C600084145EF00F003AF
:1024C0002A8785476315F7004145EF007008010032
:1024D0003244410173002030411122C60008130527
:1024E0000002EF0090012A8785476316F700130565
:1024F0000002EF00F00513050004EF0010002A872A
:1025000085476316F70013050004EF0070041305F8
:102510000008EF00807E2A8785476316F7001305C1
:102520000008EF00F00213050010EF00007D2A877D
:1025300085476316F70013050010EF0070011305BF
:102540000020EF00807B2A8785476316F70013057C
:102550000020EF00E07F0100324441017300203091
:10256000411122C6000813050040EF0000792A87B8
:1025700085476316F70013050040EF00607D85670F
:1025800013850780EF0060772A8785476317F70078
:10259000856713850780EF00A07B0565EF00E07578
:1025A0002A8785476315F7000565EF00607A09659E
:1025B000EF00A0742A8785476315F7000965EF00CF
:1025C00020791165EF0060732A8785476315F7004E
:1025D0001165EF00E0772165EF0020722A878547BB
:1025E0006315F7002165EF00A07601003244410138
:1025F00073002030411122C600088545B7370140DD
:10260000138507C0EF10701FAA8781CB8545B737A8
:102610000140138507C0EF105025010032444101ED
:1026200073002030411122C600088545370500405F
:10263000EF10B01CAA8791CB854537050040EF10FD
:10264000D02213052008EFD07FD40100324441018D
:1026500073002030411122C600088545B7070040AD
:1026600013850740EF107019AA8781CB8545B707FE
:10267000004013850740EF10501F01003244410114
:1026800073002030411122C600088545B71700406D
:1026900013850780EF107016AA8781CB8545B71781
:1026A000004013850780EF10501C010032444101A7
:1026B00073002030411122C600088545B71700403D
:1026C000138507C0EF107013AA8781CB8545B71714
:1026D0000040138507C0EF1050190100324441013A
:1026E00073002030411122C600088545371500408F
:1026F000EF10B010AA8791C7854537150040EF103D
:10270000D01601003244410173002030411122C62D
:1027100000088545B717004013850740EF10F00DFE
:10272000AA8781CB8545B717004013850740EF1076
:10273000D01301003244410173002030411122C600
:1027400000088545B737014013850740EF10F00AB0
:10275000AA8781CB8545B737014013850740EF1025
:10276000D01001003244410173002030411122C6D3
:1027700000088545B7570140138507C0EF10F007E3
:10278000AA8781CB8545B7570140138507C0EF1055
:10279000D00D01003244410173002030411122C6A6
:1027A0000008854537550140EF103005AA8791C7CD
:1027B000854537550140EF10500B0100324441016F
:1027C00073002030411122C600080100324441014B
:1027D00073002030411122C6000801A0411106C635
:1027E00022C4000803A741859307300663D8E70099
:1027F00013052008EFD09FB923AA018483A7418540
:102800001387170023AAE1840100B240224441014A
:102810008280797106D622D44AD24ED052CE56CC7E
:102820005ACA5EC862C666C40018EFF0BF9BB747BD
:10283000950813850740EFF06FB8EFF00FE9C14638
:102840000146854513052008EFD0BFBAC1460146B1
:1028500085451305B006EFD0DFB9C1460146854571
:1028600013059006EFD0FFB8C14601468545130514
:10287000F006EFD01FB8C146014685451305D006C6
:10288000EFD03FB78567138607FA9567938507E210
:1028900013050010EFE08FC48567138607FA95676C
:1028A000938507E20145EFE06FC3EFF0DF908545C8
:1028B0001305B006EFD05FA685451305F006EFD0EF
:1028C000BFA5814513059006EFD01FA581451305CF
:1028D000D006EFD07FA403A781848967938707F48C
:1028E000B357F7023E8C814C6285E685EFD01F9D81
:1028F00081451305B006EFD03FA285451305F006CC
:10290000EFD09FA1854513059006EFD0FFA081452C
:102910001305D006EFD05FA003A781848967938752
:1029200007F4B357F7023E8B814B5A85DE85EFD013
:10293000FF9881451305B006EFD01F9E8145130512
:10294000F006EFD07F9D854513059006EFD0DF9C04
:1029500085451305D006EFD03F9C03A78184896786
:10296000938707F4B357F7023E8A814A5285D6858A
:10297000EFD0DF9485451305B006EFD0FF99814570
:102980001305F006EFD05F99814513059006EFD04F
:10299000BF9885451305D006EFD01F9803A7818403
:1029A0008967938707F4B357F7023E8981494A85BF
:1029B000CE85EFD0BF90EFF07FE2D5BD01A001A0A2
:1029C00001A001A001A001A001A001A001A001A0FF
:1029D00001A001A001A001A001A001A001A001A0EF
:1029E00001A001A001A001A001A001A001A001A0DF
:1029F00001A001A001A001A001A001A001A001A0CF
:102A000001A001A001A001A001A001A001A001A0BE
:102A100001A001A001A001A001A001A001A001A0AE
:102A200001A001A001A001A001A001A001A001A09E
:102A300001A001A001A001A001A001A001A001A08E
:102A400001A001A001A001A001A001A001A001A07E
:102A500001A001A001A001A001A001A001A001A06E
:102A600001A001A001A001A001A001A001A001A05E
:102A700001A001A001A001A001A07390123497E170
:102A8000FF1F938121FA17D100201301A157178549
:102A90000000130565C597D5FF1F9385A5561386BE
:102AA000818263FAC5008322050023A05500110529
:102AB0009105E3EAC5FE13858182938501906377D2
:102AC000B500232005001105E36DB5FEFD427390AE
:102AD00002BCFD4273904280B782000093828288DC
:102AE00073A0023097D2FFFF9382425593E23200E7
:102AF00073905230EF004001970200009382A2D100
:102B00007390123473002030411106C622C40008AD
:102B1000B71702409843B71702401367170098C3CE
:102B2000B7170240D443B71702403707FFF8758F35
:102B3000D8C3B71702409443B71702403707F7FED0
:102B40007D17758F98C3B71702409443B71702409B
:102B50003707FCFF7D17758F98C3B7170240D44322
:102B6000B7170240370781FF7D17758FD8C3B71796
:102B7000024037079F0098C731200100B24022442D
:102B800041018280411106C622C4000831200100A3
:102B9000B240224441018280011122CE001023263E
:102BA00004FE232404FEB71702409443B7170240E3
:102BB0004167558F98C3B71702409843B707020083
:102BC000F98F2324F4FE8327C4FE85072326F4FE11
:102BD000832784FE99E70327C4FE93070050E31C74
:102BE000F7FCB71702409843B7070200F98F89C76F
:102BF00085472324F4FE19A0232404FE032784FE22
:102C000085476318F70EB72702409843B72702405D
:102C10001367070198C3B72702409843B7270240BC
:102C2000719B98C3B72702409843B72702401367A8
:102C3000270098C337170240B71702405843D8C33C
:102C400037170240B71702405843D8C3371702401E
:102C5000B71702405843D8C3B7170240D443B71739
:102C600002403707C1FF7D17758FD8C3B7F7FF1F25
:102C70009387C77098439167F98F99EBB717024014
:102C8000D443B717024037073D00558FD8C309A872
:102C9000B7170240D443B71702404167558FD8C3D6
:102CA000B71702409443B717024037070001558F0A
:102CB00098C30100B71702409843B7070002F98F85
:102CC000F5DBB7170240D843B7170240719BD8C352
:102CD000B7170240D843B717024013672700D8C37D
:102CE0000100B7170240DC4313F7C700A147E31AFE
:102CF000F7FE0100724405618280797122D60018C6
:102D0000232EA4FC232604FE232404FEB70701403F
:102D1000938707409C430327C4FDF98F2324F4FEC7
:102D2000B707014093870740D84B8327C4FDF98F2D
:102D300081CB832784FE89C785472326F4FE19A00B
:102D4000232604FE8327C4FE3E85325445618280DB
:102D5000011122CE00102326A4FEB707014093875D
:102D600007400327C4FED8CB01007244056182806E
:102D7000397122DE80002326A4FC2324B4FC232600
:102D800004FE232004FE232404FE232E04FC23221D
:102D900004FE232C04FC832784FC9C47BD8B232644
:102DA000F4FE832784FC9C47C18B89CB832784FC5A
:102DB000DC430327C4FED98F2326F4FE832784FC3B
:102DC00083D7070093F7F70FF1CF8327C4FC9C4309
:102DD0002322F4FE232404FE65A8832784FE0547EE
:102DE000B317F700232EF4FC832784FC83D7070056
:102DF0003E878327C4FDF98F2320F4FE032704FEBA
:102E00008327C4FD6311F708832784FE8A07232ED6
:102E1000F4FC8327C4FD3D47B317F700232CF4FCD3
:102E2000832784FD93C7F7FF032744FEF98F2322EE
:102E3000F4FE8327C4FD0327C4FEB317F70003275E
:102E400044FED98F2322F4FE832784FC98479307FE
:102E50008002631BF700832784FE05473317F700C2
:102E60008327C4FCD8CB05A0832784FC984793070D
:102E70008004631AF700832784FE05473317F700A1
:102E80008327C4FC98CB832784FE85072324F4FE84
:102E9000032784FE9D47E3F2E7F48327C4FC03275E
:102EA00044FE98C3832784FC03D707009307F00FE1
:102EB00063F1E70E8327C4FCDC432322F4FE2324C2
:102EC00004FE75A8832784FEA1070547B317F70002
:102ED000232EF4FC832784FC83D707003E878327B7
:102EE000C4FDF98F2320F4FE032704FE8327C4FDCD
:102EF0006312F708832784FE8A07232EF4FC8327B6
:102F0000C4FD3D47B317F700232CF4FC832784FD51
:102F100093C7F7FF032744FEF98F2322F4FE83278C
:102F2000C4FD0327C4FEB317F700032744FED98F5F
:102F30002322F4FE832784FC984793078002631BB7
:102F4000F700832784FEA10705473317F70083277F
:102F5000C4FCD8CB832784FC984793078004631B69
:102F6000F700832784FEA10705473317F70083275F
:102F7000C4FC98CB832784FE85072324F4FE032713
:102F800084FE9D47E3F0E7F48327C4FC032744FE57
:102F9000D8C30100725421618280011122CE001039
:102FA0002326A4FEAE872322C4FE2315F4FE832726
:102FB00044FE99C70357A4FE8327C4FE98CB31A0D3
:102FC0000357A4FE8327C4FED8CB010072440561D9
:102FD0008280797122D60018232EA4FC232CB4FC05
:102FE000232404FE232204FE232604FE232004FEC1
:102FF0008327C4FD63D80700B7070140DC4F2326B1
:10300000F4FE31A0B7070140DC432326F4FE8327FA
:10301000C4FDC183BD8B2320F4FE0327C4FDC1671B
:10302000FD17F98F2324F4FE0327C4FDB7073000F2
:103030007D8FB70730006315F7020327C4FEB7077B
:1030400000F1FD17F98F2326F4FEB7070140D443A2
:10305000B7070140370700F17D17758FD8C3ADA0C2
:103060000327C4FDB7071000F98F8DCB832704FE1B
:103070000D47B317F7002322F4FE832744FE93C7BE
:10308000F7FF0327C4FEF98F2326F4FE0327C4FEAF
:10309000B707000FD98F2326F4FE3DA08327C4FD78
:1030A000D5839207032784FEB317F70093C7F7FF72
:1030B0000327C4FEF98F2326F4FE0327C4FEB707B7
:1030C000000FD98F2326F4FE832784FD91CF832719
:1030D000C4FDD5839207032784FEB317F7000327A7
:1030E000C4FED98F2326F4FE8327C4FD63D80700CE
:1030F000B70701400327C4FED8CF31A0B70701406E
:103100000327C4FED8C3010032544561828039715F
:1031100022DE80002326A4FC232204FE232604FEB4
:10312000232004FE232E04FC232404FEB7170240B0
:10313000DC43B18B2322F4FE032744FE9147630353
:10314000F702032744FEA1476306F702832744FEE4
:10315000639907148327C4FC37177A0013070720E5
:1031600098C389AA8327C4FC37177A00130707205E
:1031700098C389A2B7170240D843B7073C00F98F1C
:103180002326F4FEB7170240D843C167F98F2320E6
:10319000F4FE8327C4FEC98389072326F4FEB7F70C
:1031A000FF1F9387C77098439167F98F91EB0327AF
:1031B000C4FEC5476319F704C9472326F4FEA1A03E
:1031C0000327C4FE89476315F700C9472326F4FE89
:1031D0000327C4FEBD476318F700B5472326F4FE56
:1031E00085472324F4FE0327C4FEC1476315F70077
:1031F000BD472326F4FE0327C4FEC5476315F70029
:10320000C1472326F4FE832704FEA1E3B74702400B
:10321000938707809C43C18B89CF0327C4FEB717D0
:103220007A00938707203307F7028327C4FC98C3EB
:1032300099A80327C4FEB7173D009387079033076B
:10324000F7028327C4FC98C33DA8B7170240D843B0
:10325000B7070200F98F89CF0327C4FEB7173D00D7
:10326000938707903307F7028327C4FC98C321A8EC
:103270000327C4FEB7177A00938707203307F702A6
:103280008327C4FC98C3032784FE85476313F70292
:103290008327C4FC9C4313D717008327C4FC98C31F
:1032A00009A88327C4FC37177A001307072098C39F
:1032B00011A00100B7170240DC4393F7070F232248
:1032C000F4FE832744FE91832322F4FEB7070020F7
:1032D00013870700832744FEBA9783C7070093F735
:1032E000F70F232EF4FC8327C4FC98438327C4FDE7
:1032F0003357F7008327C4FCD8C3B7170240DC4319
:1033000093F707702322F4FE832744FEA183232230
:10331000F4FEB707002013870700832744FEBA97FF
:1033200083C7070093F7F70F232EF4FC8327C4FC11
:10333000D8438327C4FD3357F7008327C4FC98C7BD
:10334000B7170240D843916793870780F98F2322EC
:10335000F4FE832744FEAD832322F4FEB70700204A
:1033600013870700832744FEBA9783C7070093F7A4
:10337000F70F232EF4FC8327C4FCD8438327C4FD16
:103380003357F7008327C4FCD8C7B7170240D84388
:10339000B167F98F2322F4FE832744FEB9832322E9
:1033A000F4FEB707002013874722832744FEBA970D
:1033B00083C7070093F7F70F232EF4FC8327C4FC81
:1033C000D8478327C4FD3357F7028327C4FC98CB23
:1033D0000100725421618280011122CE0010232647
:1033E000A4FE2324B4FE832784FE99CBB7170240A2
:1033F000944FB71702400327C4FE558F98CF21A8DA
:10340000B7170240944F8327C4FE13C7F7FFB717BF
:103410000240758F98CF01007244056182800111CE
:1034200022CE00102326A4FE2324B4FE832784FE8C
:1034300099CBB7170240D44FB71702400327C4FEF9
:10344000558FD8CF21A8B7170240D44F8327C4FE89
:1034500013C7F7FFB7170240758FD8CF010072442A
:1034600005618280797122D60018232EA4FC232CBA
:10347000B4FC231704FE8327C4FD83D7070023175A
:10348000F4FE0327C4FDB7370140938707C06306E6
:10349000F7060327C4FDB70700406300F7060327BC
:1034A000C4FDB7070040938707406308F70403276C
:1034B000C4FDB7170040938707806300F704032714
:1034C000C4FDB7170040938707C06308F7020327BE
:1034D000C4FDB7370140938707406300F702032715
:1034E000C4FDB7570140938707C06308F70003275F
:1034F000C4FDB75701406311F7028357E4FE93F709
:10350000F7F82317F4FE832784FD03D7270083579A
:10351000E4FED98F2317F4FE0327C4FDB71700403C
:103520006309F7020327C4FDB717004093870740DC
:103530006301F7028357E4FE93F7F7CF2317F4FEF6
:10354000832784FD03D767008357E4FED98F2317B1
:10355000F4FE8327C4FD0357E4FE2390E70083278E
:1035600084FD03D747008327C4FD2396E702832702
:1035700084FD03D707008327C4FD2394E7020327B4
:10358000C4FDB7370140938707C06308F7020327DC
:10359000C4FDB7370140938707406300F702032754
:1035A000C4FDB7570140938707C06308F70003279E
:1035B000C4FDB7570140631DF700832784FD83C70F
:1035C00087001397070141838327C4FD2398E702EF
:1035D0008327C4FD0547239AE70001003254456163
:1035E0008280797122D60018232EA4FC232CB4FCEF
:1035F000231504FE231704FE231604FE8327C4FDAF
:1036000083D70702C207C183F99B13970701418340
:103610008327C4FD2390E7028327C4FD83D70702D5
:103620002317F4FE8327C4FD83D747002316F4FE37
:103630008327C4FD83D787012315F4FE8357A4FE97
:1036400093F7F7F82315F4FE8357A4FEF19B231597
:10365000F4FE832784FD03D707008357A4FED98F88
:103660002315F4FE8357E4FEF59B2317F4FE83270E
:1036700084FD03D787008357E4FED98F2317F4FE18
:10368000832784FD03D727008357E4FED98F2317B0
:10369000F4FE0327C4FDB7370140938707C06308D2
:1036A000F7020327C4FDB737014093870740630043
:1036B000F7020327C4FDB7570140938707C063088B
:1036C000F7000327C4FDB7570140631CF706835773
:1036D000E4FEDD9B2317F4FE832784FD03D7A700B8
:1036E0008357E4FED98F2317F4FE8357E4FEED9B46
:1036F0002317F4FE832784FD03D747008357E4FE96
:10370000D98F2317F4FE8357C4FE93F7F7EF2316E0
:10371000F4FE8357C4FE93F7F7DF2316F4FE8327E6
:1037200084FD03D7C7008357C4FED98F2316F4FE48
:10373000832784FD03D7E7008357C4FED98F231660
:10374000F4FE8327C4FD0357C4FE2392E7008327BA
:10375000C4FD0357A4FE239CE700832784FD03D701
:1037600067008327C4FD239AE7028327C4FD03571C
:10377000E4FE2390E70201003254456182807971B2
:1037800022D60018232EA4FC232CB4FC231504FEFF
:10379000231704FE231604FE8327C4FD83D70702E4
:1037A000C207C183BD9B1397070141838327C4FDD3
:1037B0002390E7028327C4FD83D707022317F4FE73
:1037C0008327C4FD83D747002316F4FE8327C4FD57
:1037D00083D787012315F4FE0357A4FEE577FD1771
:1037E000F98F2315F4FE8357A4FE93F7F7CF231523
:1037F000F4FE832784FD83D70700A20713970701F0
:1038000041838357A4FED98F2315F4FE8357E4FE2A
:1038100093F7F7FD2317F4FE832784FD83D78700F2
:1038200092071397070141838357E4FED98F23172B
:10383000F4FE832784FD83D727009207139707019F
:1038400041838357E4FED98F2317F4FE0327C4FD79
:10385000B7370140938707C06308F7020327C4FD09
:10386000B7370140938707406300F7020327C4FD81
:10387000B7570140938707C06308F7000327C4FDCB
:10388000B75701406310F70A8357E4FE93F7F7F741
:103890002317F4FE832784FD83D7A700920713978D
:1038A000070141838357E4FED98F2317F4FE835722
:1038B000E4FE93F7F7FB2317F4FE832784FD83D7F9
:1038C000470092071397070141838357E4FED98F7E
:1038D0002317F4FE8357C4FE93F7F7BF2316F4FEB5
:1038E0000357C4FEFD779387F77FF98F2316F4FE05
:1038F000832784FD83D7C7008A0713970701418375
:103900008357C4FED98F2316F4FE832784FD83D703
:10391000E7008A071397070141838357C4FED98FB5
:103920002316F4FE8327C4FD0357C4FE2392E70049
:103930008327C4FD0357A4FE239CE700832784FD4F
:1039400003D767008327C4FD239CE7028327C4FDB8
:103950000357E4FE2390E702010032544561828060
:10396000797122D60018232EA4FC232CB4FC231535
:1039700004FE231704FE231604FE8327C4FD83D709
:103980000702C207C18393F7F7EF1397070141833B
:103990008327C4FD2390E7028327C4FD83D7070252
:1039A0002317F4FE8327C4FD83D747002316F4FEB4
:1039B0008327C4FD83D7C7012315F4FE8357A4FED4
:1039C00093F7F7F82315F4FE8357A4FEF19B231514
:1039D000F4FE832784FD03D707008357A4FED98F05
:1039E0002315F4FE8357E4FE93F7F7DF2317F4FE65
:1039F000832784FD83D78700A2071397070141839C
:103A00008357E4FED98F2317F4FE832784FD83D7E1
:103A10002700A2071397070141838357E4FED98F3C
:103A20002317F4FE0327C4FDB7370140938707C06F
:103A30006308F7020327C4FDB737014093870740A7
:103A40006300F7020327C4FDB7570140938707C0FF
:103A50006308F7000327C4FDB75701406312F70A54
:103A60000357E4FEFD779387F77FF98F2317F4FE62
:103A7000832784FD83D7A700A207139707014183FB
:103A80008357E4FED98F2317F4FE8357E4FE93F7A0
:103A9000F7BF2317F4FE832784FD83D74700A207CF
:103AA0001397070141838357E4FED98F2317F4FE50
:103AB0000357C4FEFD77FD17F98F2316F4FE035755
:103AC000C4FEF977FD17F98F2316F4FE832784FDD2
:103AD00083D7C70092071397070141838357C4FE1A
:103AE000D98F2316F4FE832784FD83D7E70092073E
:103AF0001397070141838357C4FED98F2316F4FE21
:103B00008327C4FD0357C4FE2392E7008327C4FD27
:103B10000357A4FE239EE700832784FD03D7670095
:103B20008327C4FD239EE7028327C4FD0357E4FED9
:103B30002390E7020100325445618280797122D6D8
:103B40000018232EA4FC232CB4FC231604FE2315FA
:103B500004FE231704FE8327C4FD83D707021397AF
:103B600007014183FD77FD17F98F13970701418303
:103B70008327C4FD2390E7028327C4FD83D7070270
:103B80002315F4FE8327C4FD83D747002317F4FED3
:103B90008327C4FD83D7C7012316F4FE0357C4FE51
:103BA000E577FD17F98F2316F4FE8357C4FE93F7CC
:103BB000F7CF2316F4FE832784FD83D70700A207DF
:103BC0001397070141838357C4FED98F2316F4FE50
:103BD0000357A4FEF977FD17F98F2315F4FE832709
:103BE00084FD83D78700B20713970701418383576A
:103BF000A4FED98F2315F4FE832784FD83D72700E5
:103C0000B2071397070141838357A4FED98F231569
:103C1000F4FE0327C4FDB7370140938707C063084C
:103C2000F7020327C4FDB7370140938707406300BD
:103C3000F7020327C4FDB7570140938707C0630805
:103C4000F7000327C4FDB75701406316F702035777
:103C5000E4FEF177FD17F98F2317F4FE832784FD27
:103C600083D7C7009A071397070141838357E4FE60
:103C7000D98F2317F4FE8327C4FD0357E4FE239254
:103C8000E7008327C4FD0357C4FE239EE700832774
:103C900084FD03D767008327C4FD2390E7048327AF
:103CA000C4FD0357A4FE2390E7020100325445618E
:103CB0008280011122CE00102326A4FE2324B4FE0C
:103CC000832784FE8DC38327C4FE83D70700C207E2
:103CD000C18393E717001397070141838327C4FE2D
:103CE0002390E70039A88327C4FE83D70700C207C3
:103CF000C183F99B1397070141838327C4FE239057
:103D0000E7000100724405618280011122CE00109B
:103D10002326A4FE2324B4FE832784FE95C3832791
:103D2000C4FE83D74704139707014183E177D98FF6
:103D30001397070141838327C4FE2392E70415A04C
:103D40008327C4FE83D74704139707014183A167E4
:103D5000FD17F98F1397070141838327C4FE239230
:103D6000E7040100724405618280797122D600184F
:103D7000232EA4FCAE87231DF4FC231704FE832707
:103D8000C4FD83D787012317F4FE8357E4FEDD9B30
:103D90002317F4FE0357E4FE8357A4FDD98F23179E
:103DA000F4FE8327C4FD0357E4FE239CE7000100D3
:103DB000325445618280797122D60018232EA4FCEA
:103DC000AE87231DF4FC231704FE8327C4FD83D78D
:103DD00087012317F4FE0357E4FEFD779387F77FEF
:103DE000F98F2317F4FE8357A4FDA2071397070149
:103DF00041838357E4FED98F2317F4FE8327C4FD44
:103E00000357E4FE239CE7000100325445618280A1
:103E1000797122D60018232EA4FCAE87231DF4FC52
:103E2000231704FE8327C4FD83D7C7012317F4FE9D
:103E30008357E4FEDD9B2317F4FE0357E4FE83570C
:103E4000A4FDD98F2317F4FE8327C4FD0357E4FE96
:103E5000239EE7000100325445618280797122D6A9
:103E60000018232EA4FCAE87231DF4FC231704FEA8
:103E70008327C4FD83D7C7012317F4FE0357E4FE4D
:103E8000FD779387F77FF98F2317F4FE8357A4FDFF
:103E9000A2071397070141838357E4FED98F2317A5
:103EA000F4FE8327C4FD0357E4FE239EE7000100D0
:103EB000325445618280797122D60018232EA4FCE9
:103EC000AE87231DF4FC231704FE8327C4FD83D78C
:103ED00087012317F4FE8357E4FEED9B2317F4FEBE
:103EE0000357E4FE8357A4FDD98F2317F4FE8327DD
:103EF000C4FD0357E4FE239CE700010032544561F2
:103F00008280797122D60018232EA4FCAE87231D4F
:103F1000F4FC231704FE8327C4FD83D787012317EE
:103F2000F4FE8357E4FE93F7F7BF2317F4FE83579D
:103F3000A4FDA2071397070141838357E4FED98F9D
:103F40002317F4FE8327C4FD0357E4FE239CE700F8
:103F50000100325445618280797122D60018232EE7
:103F6000A4FCAE87231DF4FC231704FE8327C4FDA5
:103F700083D7C7012317F4FE8357E4FEED9B231775
:103F8000F4FE0357E4FE8357A4FDD98F2317F4FEF4
:103F90008327C4FD0357E4FE239EE700010032544B
:103FA00045618280797122D60018232EA4FCAE8749
:103FB000231DF4FC231704FE8327C4FD83D7C70108
:103FC0002317F4FE8357E4FE93F7F7BF2317F4FE9D
:103FD0008357A4FDA2071397070141838357E4FE8B
:103FE000D98F2317F4FE8327C4FD0357E4FE239ED5
:103FF000E7000100325445618280797122D60018B1
:10400000232EA4FCAE87231DF4FC232604FE2315D7
:1040100004FE231404FE8327C4FD83D707011397EE
:10402000070141838357A4FDF98F2315F4FE8327ED
:10403000C4FD83D7C7001397070141838357A4FDAD
:10404000F98F2314F4FE8357A4FE81CB835784FE9B
:1040500089C785472326F4FE19A0232604FE83275B
:10406000C4FE3E85325445618280011122CE00108B
:104070002326A4FEAE872315F4FE8357A4FE93C720
:10408000F7FF1397070141838327C4FE2398E700B6
:1040900001007244056182805D7186C6A2C48008F9
:1040A000232EA4FA232CB4FA232604FE232404FE90
:1040B000232204FE232004FE232E04FC8327C4FBBA
:1040C000232EF4FC8327C4FB83D70701C207C183D7
:1040D0002326F4FE0327C4FEB567FD17F98F2326B8
:1040E000F4FE832784FB83D767003E878327C4FEC3
:1040F000D98F2326F4FE8327C4FE1397070141833B
:104100008327C4FB2398E7008327C4FB83D7C7001A
:10411000C207C1832326F4FE0327C4FEBD6793872D
:10412000379FF98F2326F4FE832784FB03D74700AC
:10413000832784FB83D78700D98F13970701418397
:10414000832784FB83D7A700D98FC207C1833E870B
:104150008327C4FED98F2326F4FE8327C4FE13973A
:10416000070141838327C4FB2396E7008327C4FB11
:1041700083D74701C207C1832326F4FE0327C4FE69
:10418000C1679387F7CFF98F2326F4FE832784FB3B
:1041900083D7C7003E878327C4FED98F2326F4FE2A
:1041A0008327C4FE1397070141838327C4FB239A07
:1041B000E700930784FC3E85EFE07FF50327C4FD0D
:1041C000B7470140938707806317F700832744FDB3
:1041D0002324F4FE29A0832704FD2324F4FE83274F
:1041E000C4FB83D7C700C207C183C207C18763D29C
:1041F0000702032784FEBA878607BA978E073E9781
:10420000832784FB9C438607B357F7022322F4FEDF
:1042100005A0032784FEBA878607BA978E073E97C4
:10422000832784FB9C438A07B357F7022322F4FEBB
:10423000032744FE93074006B357F702920723264D
:10424000F4FE8327C4FE13D7470093074006B30745
:10425000F702032744FEB307F7402320F4FE832729
:10426000C4FB83D7C700C207C183C207C18763D21B
:104270000702832704FE8E07138727039307400650
:10428000B357F7029D8B0327C4FED98F2326F4FE74
:1042900005A0832704FE9207138727039307400690
:1042A000B357F702BD8B0327C4FED98F2326F4FE34
:1042B0008327C4FE1397070141838327C4FB2394FC
:1042C000E7000100B640264461618280011122CEE0
:1042D00000102326A4FE2324B4FE832784FE95C366
:1042E0008327C4FE83D7C7001397070141838967DB
:1042F000D98F1397070141838327C4FE2396E700D4
:1043000015A08327C4FE83D7C700139707014183F5
:10431000F977FD17F98F1397070141838327C4FEAF
:104320002396E7000100724405618280797122D6EC
:104330000018232EA4FCAE87232AC4FC231DF4FC02
:10434000232404FE232204FE232004FE232604FE4D
:104350008327C4FD2326F4FE8357A4FD93F7F70FAC
:10436000958393F7F70F2324F4FE8357A4FDFD8B69
:104370002322F4FE832744FE0547B317F7002320CA
:10438000F4FE032784FE85476318F7008327C4FEE5
:10439000B1072326F4FE0DA0032784FE8947631886
:1043A000F7008327C4FEC1072326F4FE31A083272C
:1043B000C4FED1072326F4FE832744FD99CB83272F
:1043C000C4FE94438327C4FE032704FE558F98C37D
:1043D00021A88327C4FE9443832704FE13C7F7FF55
:1043E0008327C4FE758F98C30100325445618280D3
:1043F000011122CE00102326A4FEAE872315F4FE61
:104400008357A4FE93F7F71F139707014183832770
:10441000C4FE2392E7000100724405618280797135
:1044200022D60018232EA4FCAE87231DF4FC2326DD
:1044300004FE8327C4FD83D7070013970701418338
:104440008357A4FDF98FC207C18389C785472326F7
:10445000F4FE19A0232604FE8327C4FE3E853254B1
:1044600045618280797122D60018232EA4FCAE8784
:10447000231DF4FC232204FE232604FE232004FE35
:10448000232404FE8357A4FD93F7F70F958393F736
:10449000F70F2320F4FE8357A4FDFD8B2326F4FEA3
:1044A0008327C4FE0547B317F7002326F4FE03272E
:1044B00004FE8547631FF7008327C4FD83D7C70029
:1044C000C207C1833E878327C4FEF98F2326F4FEEB
:1044D0003DA8032704FE8947631FF7008327C4FD17
:1044E00083D70701C207C1833E878327C4FEF98FA4
:1044F0002326F4FE29A88327C4FD83D74701C207DA
:10450000C1833E878327C4FEF98F2326F4FE835799
:10451000A4FDA183C207C1832322F4FE832744FEA6
:104520000547B317F7002322F4FE8327C4FD83D782
:104530000700C207C1833E87832744FEF98F2322E9
:10454000F4FE8327C4FE81CB832744FE89C78547B9
:104550002324F4FE19A0232404FE832784FE3E8531
:10456000325445618280797122D60018232EA4FC32
:10457000AE87231DF4FC231704FE231604FE835785
:10458000A4FDA1832317F4FE8357E4FE0547B31768
:10459000F7002316F4FE8357C4FE93C7F7FF139763
:1045A000070141838327C4FD2390E70001003254B3
:1045B00045618280011122CE0010AA87A307F4FE74
:1045C000B70700500347F4FE42074183239AE702EE
:1045D000B707005083C7670313F7F70FB7070050FB
:1045E000719B1377F70F238BE7020100724405617B
:1045F0008280011122CE0010AA87A307F4FEB7071C
:1046000000500347F4FE42074183239CE702B707AB
:10461000005083C7A70313F7F70FB7070050719B2C
:104620001377F70F238DE702010072440561828042
:10463000797106D622D40018AA87A30FF4FCA30729
:1046400004FE15A803A741868347F4FEBA9703C763
:10465000070083A641868347F4FE93870704B69735
:104660001347F7FF1377F70F2380E7008347F4FE24
:104670008507A307F4FE0347F4FE8347F4FDE363D5
:10468000F7FC8347F4FD3E8535370100B2502254D4
:1046900045618280797106D622D40018AA87A30FBB
:1046A000F4FCA30704FE15A803A781868347F4FE44
:1046B000BA9703C7070083A681868347F4FE9387D2
:1046C0000704B6971347F7FF1377F70F2380E70028
:1046D0008347F4FE8507A307F4FE0347F4FE8347F0
:1046E000F4FDE363F7FC8347F4FD3E8519370100D1
:1046F000B250225445618280011122CE001023075E
:1047000004FEB707005083C76700A306F4FE834783
:10471000D4FE898BE381073CB707005083C777003D
:1047200093F7F70F93F707034147E38BE7384147C8
:104730006346F700E38E07206F00D03813070002AE
:10474000E386E70413070003E39EE736B70700504C
:1047500019472389E702B70700501147A389E702E9
:1047600083A7018603C7670083C77700A207D98F95
:10477000139707014183239BE18683A7018603C723
:104780001700238AE18683A7018683C707002306D3
:10479000F4FEA30704FE230704FE83A7018683C754
:1047A000070093F70706638B071283C7418793F7C8
:1047B000F70F93F70702D5C383C7418793F7F70F26
:1047C00013071002638BE700130720026389E708D1
:1047D000130700026387E708ADA81387C18023A6EB
:1047E000E1869D47A307F4FE83D7618713970701EE
:1047F00041839D4763E9E70083D76187C207C1838F
:1048000093F7F70F11A0A147A307F4FE03A70186B2
:1048100083A7C1868346F4FE3686BE853A85EF209F
:10482000206983D761871397070141838347F4FE8B
:10483000C207C183B307F740139707014183239B46
:10484000E18603A7C1868347F4FE3E9723A6E1864F
:1048500011A8FD572307F4FE31A0010021A001009B
:1048600011A001000347E4FE9307F00F6303F7680C
:104870008347F4FE13970701418383D76187C207FB
:10488000C1836379F7008347F4FE139707014183DF
:10489000239BE18683D701871397070141839D47B7
:1048A00063E9E70083D70187C207C18393F7F70F56
:1048B00011A0A147A307F4FE83A7C1860347F4FE16
:1048C0003A86BE8513858185EF20805E03A7C18669
:1048D0008347F4FE3E9723A6E18621AD83C7418737
:1048E00093F7F70F2D47636BF75E13972700A967C0
:1048F00093874718BA979C43828783A7018603C78B
:10490000270083C73700A207D98FC207C183A183BD
:10491000C207C183130720026365F71213972700AC
:10492000A9679387471BBA979C4382872967130718
:10493000870D23A6E186C947A307F4FE39A229679C
:104940001307C70E23A6E18693073004A307F4FEDE
:10495000EDA883A7018603C7270083C73700A207F6
:10496000D98FC207C18393F7F70F05476386E70224
:1049700005476344F70089CB99A809476387E70295
:104980000D47638DE702A1A01387018223A6E1866C
:104990009147A307F4FE81A029671307471423A6B4
:1049A000E186B947A307F4FE3DA029671307471521
:1049B00023A6E186B147A307F4FE31A829671307B0
:1049C000071623A6E186D947A307F4FE29A0FD57C1
:1049D0002307F4FE010095A829671307071323A6F0
:1049E000E186D147A307F4FE8DA029671307871737
:1049F00023A6E186A947A307F4FE81A883C7818087
:104A000093F7F70F9DE713061004A9679385E70E48
:104A1000B707002013852701EF20804937070020C2
:104A20001307070123A6E18693073004A307F4FECA
:104A300029A8FD572307F4FE09A8FD572307F4FE14
:104A400029A0FD572307F4FE01008347F4FE1397C6
:104A50000701418383D76187C207C1836379F70068
:104A60008347F4FE139707014183239BE18683D795
:104A700061871397070141839D4763E9E70083D767
:104A80006187C207C18393F7F70F11A0A147A3075E
:104A9000F4FE03A7018683A7C1868346F4FE36860B
:104AA000BE853A85EF20C04003A7C1868347F4FE48
:104AB0003E9723A6E18635A983A7018603C7270071
:104AC00083C73700A207D98FC207C18393F7F70FB7
:104AD000139707014183239BE18621A983A70186C0
:104AE00003C731871377F70F2380E70083D76187E8
:104AF000139707014183854763F6E73E0547239BEC
:104B0000E186CDA683A7018603C7270083C73700A8
:104B1000A207D98FC207C18313F7F70FA389E186D4
:104B2000C9AE83A7018683C7070013F7F70189473A
:104B3000631FF70C83A7018603C7470083C757008D
:104B4000A207D98FC207C18393F7F70F094763887C
:104B5000E70409476346F70005476387E7085DA058
:104B600013071008638BE70413072008639CE7080A
:104B7000B707005083C7A70393F7F70FE207E18752
:104B8000E19BE207E18793E727001397870161879D
:104B9000B70700501377F70F238DE702ADA8B707CB
:104BA000005083C7B70313F7F70FB7070050619B97
:104BB0001377F70FA38DE702B9A8B707005083C793
:104BC000670393F7F70FE207E187E19BE207E187CD
:104BD00093E72700139787016187B7070050137782
:104BE000F70F238BE70205A8B707005083C77703A9
:104BF00013F7F70FB7070050619B1377F70FA38BDD
:104C0000E70211A8FD572307F4FE010029A0FD5774
:104C10002307F4FEF9ACF1AC9387818583C70700C5
:104C2000FD8BA1E39387818503C7270083C73700E6
:104C3000A207D98F1397070141838547631FF700A8
:104C40009307000A93F7070289C705472389E1867E
:104C50004DA4FD572307F4FE69ACFD572307F4FE6E
:104C600049AC9387818583C7070013F7F70189470C
:104C7000631CF7109387818503C7270083C737001C
:104C8000A207D98FC207C183E5EF9387818503C748
:104C9000470083C75700A207D98FC207C18393F784
:104CA000F70F09476387E70409476346F70005479D
:104CB000638DE708C9A0130710086382E70613078E
:104CC0002008639AE70AB707005083C7A70393F742
:104CD000F70F37070050F19B93F7F70F230DF702FB
:104CE0003707005093E7370093F7F70F230DF702CC
:104CF00045A0B707005083C7B70393F7F70F3707EF
:104D00000050F19B93F7F70FA30DF7023707005000
:104D100093E7370093F7F70FA30DF70295A8B707AE
:104D2000005083C7670393F7F70F37070050F19BD5
:104D300093F7F70F230BF7023707005093E737007D
:104D400093F7F70F230BF702A1A0B707005083C713
:104D5000770393F7F70F37070050F19B93F7F70F9F
:104D6000A30BF7023707005093E7370093F7F70FCD
:104D7000A30BF70231A8FD572307F4FE010009A891
:104D8000FD572307F4FEB5A2FD572307F4FE95A2B5
:104D90008DA283A701862380070083D7618713979D
:104DA00007014183854763F1E7140547239BE186AB
:104DB00025AA238C018483D7018713970701418398
:104DC000854763F5E71205472398E18605A2238C02
:104DD000018493878185A38007009387818503C71A
:104DE000470083C75700A207D98F13970701418354
:104DF000930710086311F702B707005083C76703D2
:104E000093F7F70F13F737008D47631DF70A054730
:104E1000238CE18445A89387818503C7470083C716
:104E20005700A207D98F1397070141838547631164
:104E3000F702B707005083C7770393F7F70F13F70D
:104E400037008D476310F7080547238CE1849DA840
:104E50009387818503C7470083C75700A207D98F6F
:104E6000139707014183930720086311F702B707DF
:104E7000005083C7A70393F7F70F13F737008D4749
:104E80006312F7040547238CE1842DA8938781855D
:104E900003C7470083C75700A207D98F139707019D
:104EA000418389476310F702B707005083C7B703F0
:104EB00093F7F70F13F737008D476315F700054792
:104EC000238CE18483D701871397070141838947A6
:104ED00063F0E70209472398E18619A8FD572307E5
:104EE000F4FE01A8010031A0010021A0010011A0E1
:104EF00001000347E4FE9307F00F631DF700B707B7
:104F000000501D472389E702B70700501D47A389BA
:104F1000E70265AE8307C4FE63D5070483D76187C4
:104F2000139707014183A14763E9E70083D76187AE
:104F3000C207C18393F7F70F11A0A147A307F4FE9F
:104F400083D761871397070141838347F4FEC20724
:104F5000C183B307F740139707014183239BE18681
:104F600019A0A30704FEB70700500347F4FE420749
:104F700041832398E702B707005011472389E702CE
:104F8000B70700501147A389E70281A6B707005071
:104F900083C7770093F7F70F93F7F7031307100210
:104FA0006385E71213072002638DE71413070002DD
:104FB000639EE71883C7418793F7F70F1547638010
:104FC000E70A19476394E70E83D7618713970701B0
:104FD00041839D4763E9E70083D76187C207C183A7
:104FE00093F7F70F11A0A147A307F4FE03A70186CB
:104FF00083A7C1868346F4FE3686BE853A85EF10C8
:10500000306B83D761871397070141838347F4FE91
:10501000C207C183B307F740139707014183239B5E
:10502000E18603A7C1868347F4FE3E9723A6E18667
:10503000B70700500347F4FE420741832398E70275
:10504000B707005083C7270313F7F70FB7070050C0
:10505000134747001377F70F2389E702B5A0B70777
:10506000005083C7370093F7F70FE207E18793F704
:1050700007F813978701618783D76187C207C183C8
:10508000E207E187D98F139787016187B70700503F
:105090001377F70FA381E700B7070050094723896B
:1050A000E702B7070050A389070239A8B7070050E5
:1050B00023980702B707005009472389E702B7077B
:1050C0000050A3890702010059A0B707005083C709
:1050D000670313F7F70FB7070050719B1377F70FAC
:1050E000238BE702B707005083C7670313F7F70F57
:1050F000B7070050134747001377F70F238BE702DA
:10510000B9A0B707005083C7A70313F7F70FB70776
:105110000050134747001377F70F238DE702B707B7
:10512000005083C7A70393F7F70FE207E187F19BCE
:10513000E207E18793E72700139787016187B707A5
:1051400000501377F70F238DE70211A00100B5AAD5
:10515000B707005083C7770093F7F70F93F7F7036C
:1051600005476387E70C09476386E710639E0714CA
:1051700083C7418793F7F70F3E87930700026313B6
:10518000F70A83A7018683C7070085E383A7018603
:1051900083C7170099EB83A7018683C7270091E790
:1051A00083A7018683C737009DCF83A7018683C766
:1051B00037001397870183A7018683C72700C2079B
:1051C0005D8F83A7018683C71700A207D98F03A726
:1051D000018603470700D98FBE85A967138587031A
:1051E000EF20C0773DA883A7018683C76700BE85EF
:1051F000A96713858704EF20607683A7018683C79C
:105200004700BE85A96713858705EF20207583A712
:10521000018683C75700BE85A96713858706EF20DF
:10522000E0730100B70700509C47A307F4FE41A8B4
:10523000B707005083C7770093F7F70F93F707047A
:10524000A5CFB707005083C7770313F7F70FB7074A
:105250000050134747001377F70FA38BE702B707F8
:1052600000509C47A307F4FE8347F4FE3E85EFF011
:105270002FBC99A0B707005083C7770093F7F70FAB
:1052800093F7070485CFB707005083C7B70313F719
:10529000F70FB7070050134747001377F70FA38D99
:1052A000E702B70700509C47A307F4FE8347F4FECC
:1052B0003E85EFF02FBE19A0010039A0010029A002
:1052C000010021A0010011A00100B707005009470B
:1052D0002383E70079A08347D4FE858BB9CFB70736
:1052E0000050A3810700B7070050A3890702B70742
:1052F0000050A38B0702B7070050A38D0702B70722
:10530000005009472389E702B70700500947238B5C
:10531000E702B70700500947238DE702B70700509F
:1053200083C7670013F7F70FB7070050136717001D
:105330001377F70F2383E7002DA08347D4FE918BCB
:1053400099CBB707005083C75700B70700501147E4
:105350002383E70039A0B70700500347D4FE238317
:10536000E700010072440561730020303708100027
:1053700001117D183377B80026CA3378D80093D44A
:10538000450113D34601131E37004EC61357D501EE
:105390000E089357D60193F4F47F1373F37F06CE70
:1053A00022CC4AC893D9F50193DEF6013367C701D1
:1053B000131F350033E80701931F3600338E644016
:1053C0006380D9196356C0136304031CB7068000B9
:1053D0009307F07F3368D800638FF4369307800318
:1053E00063C0C735FD4763CDC747130500023305CA
:1053F000C541B3D7CF01B316A8003399AF00DD8EF6
:1054000033392001B357C80133E926011D8F330911
:105410002F41B3372F013306F7409317860063D42B
:105420000724370780007D173374E600630C042CD3
:105430002285EF109020130785FF93070002998FB4
:10544000B357F9003316E400D18F3319E9006341F3
:10545000972A33059740130615007D47634DC738DB
:1054600013070002118FB356C9003319E9003397AF
:10547000E700558F333920013369270133D6C70040
:1054800081449377790081CF1377F90091476308BE
:10549000F70013074900333927014A963A899317D1
:1054A000860063D6071C138514009307F07FCE8512
:1054B0006304F520B70780FFFD17F18F9398D7019C
:1054C00013593900A607B3E82801B1831375F57F96
:1054D0009396C7005205F2406244B182FE05C98E20
:1054E000CD8ED2444249B2494685B6850561828057
:1054F000631E0E0A138314001373E37F63170322E2
:10550000B367E701B368F801639D041A6387074036
:10551000638608443309FF41B307074133362F013F
:105520003386C7409317860063D6074C3389EF4113
:10553000B307E84033B62F013386C740F68991B7E9
:105540006350C00F6300030CB70680009307F07F21
:105550003368D800638AF43A9307800363CBC71398
:10556000FD4763DFC73513090EFE93070002B356EC
:105570002801630AFE00130900043309C9413319E5
:105580002801B3EF2F013339F0013369D90031A27B
:10559000B367F801638A071C9307FEFF638C073823
:1055A0009306F07F6309DE1A3E8E0DBDB30593406E
:1055B00063910422B367E701638707329387F5FF9E
:1055C000638107449306F07F638CD520BE859307E3
:1055D000800363CCB72AFD4763CFB73C9307000233
:1055E0008D8F3319F700B356BF00B317FF0033692F
:1055F000D900B337F0003357B7003369F9003308E7
:10560000E84041ACB367F801638007349307FEFFBD
:10561000638A07209306F07F6308DE2E3E8E2DBF3F
:10562000631E0E149386140093F7E67F639107348C
:10563000B367E7016395042C6380073EB367F80105
:10564000638E07303309FF01B3070701333FE901D8
:105650003386E7019317860063D70700B70780FFFB
:10566000FD177D8E854493777900E39F07E09317BC
:10567000D60193583900B3E8F80093573600130762
:10568000F07F638DE404B207B18313F5F47FCE8518
:1056900081B53369F801333920017A99B337E901CB
:1056A0003386E70093178600E3DF07FA8504930744
:1056B000F07F6396F418CE851305F07F814781480B
:1056C00001BDC1EB6384083A931636009317D801E5
:1056D0008D82B3E8D700F68993573800B3E7F80016
:1056E000F9DB81451305F07FB70708008148CDB38A
:1056F000370680FF7D167D8E93777900998CE39530
:1057000007D8B5B74A85EF10407313078501FD47E9
:10571000E3D5E7D2130685FFB317C900014905BBDE
:105720003369F80133392001DDB13309FF41330614
:10573000074133342F01330486409317840063CD2F
:105740000724B3688900E39308CE814781498144E7
:105750001DBFE39808F80E059317D7010D81B3E834
:10576000A700935737009DBF0E059317D7010D81F2
:10577000B3E8A700F2849357370011B7330593407D
:1057800063820412B70680009307F07F558F630D84
:10579000F32E9307800363CBA720FD4763C3A72A9B
:1057A00093070002898F3319F700B356AF00B31780
:1057B000FF003369D900B337F0003357A7003369CE
:1057C000F9003A987E99B337F901338607019A8434
:1057D000D1BDB70680009307F07F558FE319F3DE44
:1057E000931736008D839318D801B3E81701F68913
:1057F00093573800E5B5130715FE9306000233D71B
:10580000E700630AD600930600043386C640339649
:10581000C7003369C900333920013369E900014603
:10582000814491B53309FF01B30707013336E9011C
:105830003E96931786008544E3D707E28944B7076D
:1058400080FFFD17F18F1357190013791900336981
:1058500027019398F70133E9280113D6170015B1F2
:1058600013090EFE93070002B3562801630AFE00D7
:10587000130900043309C94133192801B3EF2F017B
:105880003339F0013369D90059B63369E701333947
:10589000200133892F41B3B72F013306F8409A8492
:1058A000F689A5BEB367E701638207189307F5FF82
:1058B0006384071C9306F07F6304D5123E85D1BD37
:1058C00093070002B387C741B316F8003399FF006E
:1058D00033D6CF01D18E33392001B357C80133E914
:1058E00026013E975DBB931736008D839318D80130
:1058F000B3E81701AE8493573800F68949B3EDC376
:105900003369F801E31F09DC0E059317D7010D81F8
:10591000B368F50093573700D1B36381080E93162F
:1059200036009317D8018D82B3E8D700F6899357D4
:10593000380091BB3309FF41B3070741333F2F01C3
:105940003386E7418544D1BC0E059317D7010D81FD
:10595000B368F500F2849357370015B30E0593171B
:10596000D7010D81B3E8A7009357370029BB9307F0
:10597000F07FE382F6D43309FF013336E901B30740
:105980000701B2979398F7011359190033E92801D9
:1059900013D61700B684C1B93389EF413307E84005
:1059A00033B62F013304C740F68949B43369E701A0
:1059B0003339200101BD938705FE93060002B357DA
:1059C000F700638AD50093060004B385B640331709
:1059D000B700336FEF003339E0013369F90055BD8B
:1059E000931736008D839318D801B3E817019357A6
:1059F0003800EDB1B368C900E39708C68147814913
:105A000059B13389EF41B307E84033B62F013386EC
:105A1000C740F689854411B4931636009317D80110
:105A20008D82B3E8D70093573800B1B9931636008A
:105A30009317D8018D82B3E8D700AA849357380012
:105A40003DB9930705FE93060002B357F700630ABA
:105A5000D500930600043385A6403317A700336FA3
:105A6000EF003339E0013369F900A9BB8145130523
:105A7000F07FB7070800A9BC3309FF01B30707018E
:105A80003336F9013E9675B3931636009317D80155
:105A90008D82B3E8D7009357380089B1397193D715
:105AA000450122DC4AD856D22A891394C50006DE65
:105AB00026DA4ED652D45AD05ECE13F5F77F318017
:105AC00093DAF501630B05109307F07F630BF51470
:105AD000135AD9010E0433648A00370A8000336AEE
