:100000006F00E070130000001300000013000000F8
:100010001300000013000000130000001300000094
:100020001300000013000000130000001300000084
:08003000130000007300100032
:100038000000000000000000A8020000AC02000060
:10004800000000006806000000000000000000003A
:100058006A0600006C0600000000000000000000B6
:100068006E0600000000000070060000000000009E
:10007800720600007406000076060000780600008C
:100088007A0600007C0600007E060000800600005C
:10009800820600008406000086060000880600002C
:1000A8008A0600008C0600008E06000090060000FC
:1000B80092060000940600009606000098060000CC
:1000C8009A0600009C0600009E060000A00600009C
:1000D800A2060000A4060000A6060000A80600006C
:1000E800AA060000AC060000AE060000B00600003C
:1000F800B2060000B4060000B6060000B80600000C
:10010800BA060000BC060000BE060000C0060000DB
:10011800C2060000C406000000000000C606000079
:10012800C8060000CA060000CC060000CE06000083
:10013800D0060000D2060000D4060000D606000053
:10014800D8060000DA060000DC060000DE06000023
:10015800E0060000E2060000E4060000E6060000F3
:10016800E806000000000000000000000000000099
:10017800000000000000000000000000EA06000087
:10018800000000000000000000000000EC06000075
:10019800EE060000F0060000F2060000F40600007B
:1001A800F6060000F8060000FA060000FC0600004B
:1001B800FE06000000070000020700000407000018
:1001C80006070000080700000A0700000C070000E7
:1001D8000000000000000000000000000000000017
:1001E8000000000000000000000000000000000007
:0801F8000000000000000000FF
:100200003D432A876373C3029377F700BDEFADE5E3
:10021000937606FF3D8ABA960CC34CC30CC74CC7F5
:100220004107E36BD7FE11E28280B306C3408A0622
:100230009702000096966780A6002307B700A306E2
:10024000B7002306B700A305B7002305B700A30432
:10025000B7002304B700A303B7002303B700A3022A
:10026000B7002302B700A301B7002301B700A30022
:10027000B7002300B700828093F5F50F93968500B1
:10028000D58D93960501D58D61B79396270097027A
:10029000000096968682E78086FA9680C1171D8FA9
:1002A0003E96E374C3F8A5B77300203001A05971DE
:1002B000A6D2CAD0CECEAE84AA8932898145130691
:1002C0000002081886D6A2D436C63AC402C802CAAA
:1002D00002CC3D378545254502CE02D002D202D45C
:1002E00002D6EF00F032854537050002EF003034CA
:1002F000854537451D00EF00901493070020231813
:10030000F10037140140E1473ECC0C088D4713053E
:1003100004C03ECAEF009006930700102318F100B6
:100320000C0893078004130504C03ECCEF001005B1
:100330002247B2463765004005440C1813050540B6
:10034000A2C22309E102A3093103230A2103A30A5C
:1003500091022318D10202DC02DE82C082C482C66E
:100360002529B7070600680822D22304810222D675
:1003700002CE3ED0192BB650265496540659F64953
:10038000656182803971AE87130770317400C207CE
:100390003AC6230BB10006DE22DC26DA4AD84ED656
:1003A00052D4231A01000147B685C18313160701F1
:1003B00041828506636EF602B764004013850440EF
:1003C000F1230569AA89014493840440054A7D19F3
:1003D000CE852685712563094503631324030545EE
:1003E000F2506254D2544259B259225A2161828049
:1003F0003306E5000346060005072385C6007DB7E2
:10040000050442044180E9B77D7505052295133541
:100410001500F9B7797122D43764004026D285459A
:10042000AA841305044006D63D2F15C970008545E2
:100430001305044079257C000147A14683C5B70018
:100440003386E40005072300B6008507E318D7FECE
:1004500003456101B25022549254456182800145A6
:10046000D5BF397106DE22DC4AD84ED652D456D2D8
:100470005AD05ECE26DA62CCEF00F02D71651305FE
:100480000520EF00D032B707002083A507073725E6
:10049000000013058529EF00103E0D47B1461546B3
:1004A000914501452935372500001305852AEF00C0
:1004B000304E0144B7290000372A000037290000D8
:1004C000B72A0000372B0000B72B000081472147D7
:1004D000B306F1003306F4002380C6008507E399D4
:1004E000E7FEA1450A85793D31C513850A2CEF0049
:1004F000304A280005372DC513854B2FEF00504992
:100500008144214CB307910083C507001305C92E10
:100510008504EF005036E39784FF1305803EEF001B
:10052000302605041374F40F9307F00FE310F4FA68
:10053000014469BF1385092DEF00904513050A2E6C
:10054000EF0010458144214CB307910083C507009B
:100550001305C92E8504EF001032E39784FF51BFC5
:1005600013054B30EF00D0424DBFB7170240984300
:10057000B706FFF841111367170098C3D843370631
:100580000200758FD8C39843B706F7FEFD16758F26
:1005900098C39843B706FCFFFD16758F98C3D843E0
:1005A000B70681FFFD16758FD8C39843B70600ECD8
:1005B000FD16758F98C33707FF0098C723A607025B
:1005C00002C402C69843C166558F98C3B71602404D
:1005D00005679C42F18F3EC6A24785073EC4B247DD
:1005E00081E7A247E397E7FEB71702409C431397C2
:1005F000E7006357070685473EC632478547631FB6
:10060000F704B7170240D843B706C1FFFD16D8C399
:10061000D843D8C3D84313670740D8C3D843758F8E
:10062000D8C3D843B7061D00558FD8C39843B70623
:100630000001558F98C3984393166700E3DD06FECB
:10064000D843B7160240719BD8C3D843136727001D
:10065000D8C32147DC42B18BE39EE7FE4101828093
:1006600002C661BF01A001A001A001A001A001A0DC
:1006700001A001A001A001A001A001A001A001A072
:1006800001A001A001A001A001A001A001A001A062
:1006900001A001A001A001A001A001A001A001A052
:1006A00001A001A001A001A001A001A001A001A042
:1006B00001A001A001A001A001A001A001A001A032
:1006C00001A001A001A001A001A001A001A001A022
:1006D00001A001A001A001A001A001A001A001A012
:1006E00001A001A001A001A001A001A001A001A002
:1006F00001A001A001A001A001A001A001A001A0F2
:1007000001A001A001A001A001A001A001A09701EA
:10071000002093812116178100201301A18E172537
:100720000000130565C9970500209385A58D1386E4
:10073000818163FAC5008322050023A055001105BD
:100740009105E3EAC5FE13858181938581826377F4
:10075000B500232005001105E36DB5FEFD42739041
:1007600002BCFD4273904280B7620000938282080F
:1007700073A00230970200009382428C93E2320011
:1007800073905230EFF07FDE970200009382A2CD8B
:1007900073901234730020301841AA87759B18C1DA
:1007A00018411367170018C14167D443858A99E23D
:1007B0007D1765FFD8430145058B55C39445054713
:1007C0006390E60A984313670708D44598C3054722
:1007D000639CE608984313670704944998C3054748
:1007E0006398E608984313670702D44998C30547FE
:1007F0006394E608984313670701944D98C305472F
:10080000639FE606984313678700D44D98C3054756
:10081000639AE60698431367470098C303C7250009
:1008200083C635007A07E206558F83C64500C206A7
:10083000558F83C65500D206558F83D60500FD1609
:10084000558FD8CF9843799B98C34167D443858A05
:1008500099C27D1765FFC8431345F5FF058982805E
:1008600098431377F7F795B798431377F7FBB5B726
:1008700098431377F7FD95BF98433D9BBDBF9843C1
:100880005D9B61B798436D9B49BF37670040130775
:100890000740832607208347A500054893E61600F6
:1008A0002320D7208325C7213316F8009346F6FF6F
:1008B000F58D232EB7208345C500C1E58325C720CC
:1008C000035825008E07F58D2326B7208355650034
:1008D000BA9703574500C205B3E5050123A0B72425
:1008E0008355050042074D8F23A2E7240347B50037
:1008F000B7670040938707402DEF03A74720758F08
:1009000023A2E72003578500B7670040938707407D
:100910002DE703A74721F98E23AAD7201849854739
:100920006319F700B767004003A7C761598E23AE6C
:10093000C760B767004003A70760799B23A0E76003
:100940008280E39505FB8325C720035825008E0789
:10095000D18D2326B72083550500BA97035745004C
:10096000C205B3E5050123A0B724420783556500FE
:100970009DBF03A74720518F61B78546E310D7FA83
:1009800003A74721518F23AAE72049BF1C4513978E
:100990005700634A070A1C45139747006347070A35
:1009A0001C45914613973700635D07088946939766
:1009B0004600AA9703A70718058B23A0E71803C6CC
:1009C000850003C5950041E6984103A60718560720
:1009D000498F518F23A0E71803C7A5003D8B2385BE
:1009E000E50003A64718419A23A2C71803A6471893
:1009F000518F23A2E71803C6C50003C7B50022061E
:100A0000598E03C7D5004207598E03C7E500620718
:100A1000518F23A4E71803C6050103C7F50022067A
:100A2000598E03C715014207598E03C72501620776
:100A3000518F23A6E71803A707181367170023A0F1
:100A4000E7183685828081469DB785468DB7D841A7
:100A500003A807180E07498F518F336707019DBF01
:100A600085476389F50291C58947638BF50209457E
:100A700082801C45370500040D0537070004E98F07
:100A80000D070545638EE7026360F70213B5170093
:100A9000060582801C453705000813050530F1BFA7
:100AA0001C4537050310D1BF37070008130707306F
:100AB00005456387E70037050310898F13B51700D5
:100AC000828093974500AA9703A7071B118B2304E5
:100AD000E60041E303A7071B558318C203A7071BC2
:100AE000098BA304E60003A7471B3D8B2305E60003
:100AF00003A7471B2183A309E60003A7871BA305C0
:100B0000E60003A7871B21832306E60003A7871BB4
:100B10004183A306E60003A7871B61832307E60042
:100B200003A7C71BA307E60003A7C71B218323084E
:100B3000E60003A7C71B4183A308E60083A7C71BE2
:100B4000E1832309F60099E95C4593E707025CC558
:100B5000828003A7071B0D8358C249B71C4993E73E
:100B600007021CC9828089E55C458D8B3E858280A9
:100B700005478147E39CE5FE1C49C5BF9C4513F72B
:100B8000070113F8F70001C7D8413368E80083D59F
:100B9000050013F7F50F39C318418146854E3D4FC7
:100BA000930F800293028004214E3396DE00B3F847
:100BB000C500631116039398260033131F011343D6
:100BC000F3FF3377E300B318180133E7E800639FBE
:100BD000F70550C98506E39AC6FD18C11307F00F43
:100BE0006375B70454412146854E3D4F930F8002F3
:100BF00093028004414EB398CE0033F715016392FF
:100C0000E8021317260001173313EF001343F3FF15
:100C1000B376D3003317E800D98E639DF701232AFA
:100C200015010506E319C6FD54C18280E39457FA05
:100C300010C94DB7E39757FE23281501DDB7B70755
:100C4000014063570504DC4F135705019376F70005
:100C5000131605013707300041823378E500635CE5
:100C600005046319E802138706018D46B396E60072
:100C700093C6F6FFF58F89C913575501120733172D
:100C8000E600D98F63570504370701405CCF8280A7
:100C9000DC435DBF1317B500635607000D47B3165D
:100CA000D700F9B71357550112073317E60013475A
:100CB000F7FFF98FC9B76312E802370801408326AE
:100CC0004800370700F17D17F98F758F2322E80060
:100CD000C5F5370701405CC382801317B500635C1C
:100CE00007000D473317D7001347F7FF7D8FB7076E
:100CF000000FD98FF1BF1357550112073317E600C4
:100D0000E5B7371702405C439146B18B6385D70046
:100D1000A1466386D706B7177A00938707201CC1C0
:100D2000371602405C423707002013070700918303
:100D3000BD8BBA9783C607001C41B3D7D7005CC1EF
:100D40005442A1829D8ABA9683C60600B3D6D700C4
:100D500014C55442AD829D8A369703470700B3D726
:100D6000E7005CC55842398393763700138741808A
:100D7000369703470700B3D7E7021CC982805C435C
:100D800054434167C983F98E37F7FF1F0327C770A4
:100D9000BD8B8907131617016348060045460147B6
:100DA0006392C702C94739A809476389E7023D47EB
:100DB0006388E70241476388E7024546014763933A
:100DC000C700C14785E6B746024083A60680C18AB0
:100DD0008DC6B7167A009386062025A00147D9B79D
:100DE0000547B547C5B70147BD47E9BFB71602403C
:100DF000D4421396E600E35E06FCB7163D009386E8
:100E00000690B387D7021CC101DF1C41858301BF57
:100E100099C5371702401C4F5D8D08CF8280B717E8
:100E20000240984F1345F5FF798D88CF828099C590
:100E3000371702405C4F5D8D48CF8280B717024064
:100E4000D84F1345F5FF798DC8CF828083560501B1
:100E5000F577FD17F58F83D66500397122DC06DE44
:100E6000D58F03D7C5002318F5008356C500FD773D
:100E70009387379FF58F83D645002A842EC6D58F5A
:100E800083D68500D58F83D6A500D58F2316F50090
:100E900083574501C207C18393F7F7CFD98F231A30
:100EA000F5006808B93DB747014093870780B24510
:100EB000631EF404A2578356C4006547B387E70254
:100EC000C206C186984163D5060406070356C400CE
:100ED0004206B3D7E702130740064186B3D6E702BE
:100EE000B3F7E7029206635706028E07938727033C
:100EF000B3D7E70213F77700B367D700C207C18300
:100F00002314F400F250625421618280925765B735
:100F10000A076DBF920793872703B3D7E702BD8BFC
:100F2000D58FE9BF81C98357C5000967D98F2316BB
:100F3000F50082800357C500F977FD17F98FC5BF0B
:100F400093F5F51F2312B5008280035505006D8DC2
:100F50003335A0008280B707002083A70707371723
:100F60007A0013070720B3D7E70293F7F70F238D13
:100F7000F1801307803EB387E702239CF1808280D3
:100F8000B7F700E0D8438146799BD8C303D7818166
:100F90003306A70290CBD4CB98431367170398C3AB
:100FA000D843058B75DF9843799B98C3828079710C
:100FB00022D42A8411658545110506D6913D9307F3
:100FC00000202312F100371501408D473EC44C002C
:100FD000E147130505803EC6553622C83744014017
:100FE000B70708000C08130504803ECC02CA231E74
:100FF0000100A93D1305048085452D37B2502254C8
:1010000045618280011126CAB744014022CC4AC8FA
:101010004EC606CEAE893289014493840480634A69
:101020002401F24062444A85D2444249B2490561F2
:101030008280930500042685093F65DDB38789001A
:101040008385070026850504C205C181D53DC1BF42
:10105000138781801C43938681823E95636BD50004
:10106000B78600209386068063E5A60008C33E8508
:101070008280FD57EDBF39713EDA2ED232D436D69A
:101080003AD842DC46DE9387C18022CC804326CA10
:1010900006CEAA8409C41C4C99E3228515230C446E
:1010A00054102686228536C6EF007016F240624440
:1010B000D24421618280011126CA4AC806CE22CCC0
:1010C0004EC652C4AA842E8901C51C4D91E3CD2978
:1010D0009C4C804499E32685E5219717000093876F
:1010E000E725631CF402C0408357C400A18BB1C73D
:1010F0001C48A1C7FD59294A1C4483450900FD1716
:10110000B1E91CC463DE07062286A9452685712045
:10111000FD576308F502294535A09717000093870E
:10112000E7236314F4008044C1B797170000938746
:10113000E71EE31BF4FAC04445BFA2852685312A89
:1011400055D97D55F2406244D2444249B249224ABF
:10115000056182801CC4050963D70700184C63CB66
:10116000E700638945011C401387170018C02380DE
:10117000B70059B7228626850D20E31F35F7D1B772
:101180001C401387170018C029472380E70061B768
:101190009387C180AA85884339BF011122CC26CA12
:1011A0004AC806CE4EC6AA842E89328401C51C4D7B
:1011B00091E3392197170000938747186319F406C4
:1011C000C0401C4C1CC48357C400A18BC9C31C481D
:1011D000BDCF1C4808409379F90F1379F90F1D8D85
:1011E0005C486346F500A2852685652C2DE51C44E8
:1011F0000505FD171CC41C401387170018C0238069
:1012000037015C486389A7008357C400858B81CB75
:10121000A9476316F900A285268561240DEDF240E9
:1012200062444A85D2444249B24905618280971797
:1012300000009387A7126314F400804459B79717EE
:1012400000009387A70DE31EF4F6C0449DBFA2855E
:10125000268521203DDD7D59D9B741119387C18075
:1012600026C2844322C44AC006C62A892E8489C461
:101270009C4C99E32685A926971700009387070CB5
:10128000631CF402C0400317C40093170701C18315
:1012900093F68700B5EE93F607019DEEA547232050
:1012A000F900136707042316E4007D55B240224479
:1012B0009244024941018280971700009387070AF0
:1012C0006314F4008044C1B79717000093870705A3
:1012D000E31BF4FAC04445BF918B8DC74C5889C9B4
:1012E000930744046384F5004A85352B232A0402BE
:1012F0008357C4002322040093F7B7FD2316F4009C
:101300001C481CC08357C40093E787002316F400D1
:101310001C4881EF8357C4001307002093F7072868
:101320006385E700A2854A8585218357C40013F7AA
:10133000170005C75C4823240400B307F0401CCC09
:101340001C480145A5F78317C40013F7070839DFC8
:1013500093E707042316F40089BF898B014791E3C3
:10136000584818C4F1BF83D7C500011122CC26CA42
:1013700006CE4AC84EC613F78700AA842E8471EFA2
:10138000D841634DE000B841634AE0000145F240B6
:101390006244D2444249B2490561828058547DD7A3
:1013A00003A904009396370123A0040063DD060619
:1013B00070488357C400918B99C75C401D8E5C5860
:1013C00099C33C401D8E5C540C5081462685829703
:1013D000FD570357C400631DF5009440F54763E8CB
:1013E000D706B70740208507B3D7D700858BA5C39D
:1013F0001C48232204001CC09317370163D8070040
:10140000FD576314F5009C4091E368C84C5823A035
:101410002401ADDD930744046384F5002685212172
:10142000232A0402A5B70C5001468546268502975B
:10143000FD572A86E31FF5F69C40A5DF75476385B7
:10144000E70059476394E70423A0240181B7136799
:1014500007042316E4007D551DBF83A90501E3871A
:1014600009F203A905008D8B23A035013309394109
:10147000014791E3D84918C4E35A20F11C540C5099
:10148000CA864E86268582976349A0008357C4008A
:1014900093E707042316F4007DBFAA993309A940F6
:1014A000E1BF9C49B9CF011122CC06CE2A8411C5D7
:1014B0001C4D81E72EC62922B2459717000093875D
:1014C000E7E7639BF5004C408397C50095C72285ED
:1014D0006244F240056141BD97170000938707E819
:1014E0006394F5000C44CDB797170000938707E38A
:1014F000E39CF5FC4C44C9BFF240624401450561E0
:10150000828001458280411122C406C62A842316A6
:10151000B5002317C500232005002322050023243E
:1015200005002322050623280500232A0500232C75
:101530000500214681451305C505EFE07FCC9717CF
:101540000000938767B45CD0971700009387C7B6F5
:101550001CD497170000938707BB5CD49717000033
:101560009387C7BD00D01CD8B2402244410182807D
:1015700097050000938525F3A9A2411126C2130601
:1015800080069384F5FFB384C4024AC02E8922C426
:1015900006C693854407252E2A8401CD2320050005
:1015A00023222501310508C4138684068145EFE016
:1015B0003FC52285B24022449244024941018280C3
:1015C0001C4DADE3411106C622C497070000938766
:1015D00067FA1CD5938701819C43232405042326A5
:1015E0000504232805046314F50085471CCD2A84CF
:1015F0001D2848C02285052808C422852D2048C4FE
:10160000484001469145013708440546A545E53D5A
:1016100048440946C945C53D85471CCCB2402244D3
:1016200041018280828041119387018126C28443D7
:101630004AC006C69C4C22C42A8999E326854937AC
:10164000938484048044DC40FD1763D607009C40EB
:10165000B9CF8440C5BF0317C40039E7C1778507F8
:101660002322040623200400232204002324040050
:101670005CC423280400232A0400232C04002146F0
:1016800081451305C405EFE0BFB7232A0402232CCC
:10169000040223240404232604042285B2402244A5
:1016A00092440249410182801304840671BF91452E
:1016B0004A85E13588C051FDB1472320F900014436
:1016C000E9BF797122D44AD052CC56CA5AC85EC6F4
:1016D00006D626D24ECE2A8AAE8A13048504014944
:1016E000054BFD5B09ECB25022544A8592540259D5
:1016F000F249624AD24A424BB24B4561828004446D
:1017000083294400FD1963D409000040E1BF83D759
:10171000C400637BFB008397E40063877701A685A1
:101720005285829A3369A90093848406E1BF1971B6
:10173000A6DAAE848395E500A2DC86DE328463DC23
:10174000050083D7C40023A0060093F7070885E7A8
:10175000930700401DA0300836C6EF00B023B24604
:10176000E34105FE7247BD67F98F7977BA9793B762
:1017700017009CC2F1BF930700041CC0F6506654CA
:10178000D65401450961828083D7C500011122CC5E
:1017900006CE26CA4AC8898B2E8489CF9307740443
:1017A0001CC01CC885475CC8F2406244D244424910
:1017B0000561828074003000AA84953FA2452A8981
:1017C0002685312201ED8317C40013F7072069FF36
:1017D000F19B93E727002316F400C9B79707000091
:1017E000938747D99CD48357C40008C008C893E79F
:1017F00007082316F400A2475CC8B24791CF8315AF
:10180000E4002685EF00B01B01C98357C400F19B9B
:1018100093E717002316F4008357C4003369F900D7
:101820002316240151B7DDC183A7C5FF411122C48E
:1018300006C626C21384C5FF63D307003E94AA845C
:10184000EF00D01E9387C1819C4381EF23220400C7
:1018500023AE81802244B2402685924441016F002C
:10186000101D637EF40014403307D4006396E70034
:101870009843DC43369718C05CC0D9BFBA87D843B9
:1018800019C3E37DE4FE94433386D700631F8600CB
:101890001040B29694C33386D700E31DC7FA1043B5
:1018A0005843B29694C3D8C375B76375C400B147A3
:1018B0009CC04DB71040B306C4006316D700144354
:1018C0005843B29614C058C0C0C369B78280011192
:1018D00026CA93843500F19806CE22CC4AC84EC65B
:1018E000A104B14763F3F404B14463E2B4042A8968
:1018F000EF00D0139387C18198433A8439E09387EE
:1019000001829C4391E781454A85812F23A0A182D2
:10191000A6854A859927FD5963193507B1472320C4
:10192000F9004A85EF00B01029A0E3D004FCB147CC
:101930001CC10145F2406244D2444249B2490561AA
:1019400082801C40858F63CF0702AD4663F6F600A8
:101950001CC03E9404C031A05C406313870223AED8
:10196000F1804A85EF00B00C1305B40093074400E2
:1019700061993307F5405DDF3A94898F1CC05DBFE4
:101980005CC3C5B72287404095BF130435007198EA
:10199000E30285FCB305A4404A85C125E31C35FB61
:1019A000B5BF1C46FD171CC663DA0700184E63C599
:1019B000E700A9476394F5006FF02FFE1C422E85C7
:1019C0001387170018C22380B7008280011122CC30
:1019D00026CA4AC84EC652C406CE2A89AE89328467
:1019E000B304D6007D5A63149400014509A88345C9
:1019F00004004E864A8575370504E31645FFF2401C
:101A00006244D2444249B249224A0561828035711A
:101A100022CD26CB4AC94EC706CF52C556C35AC19E
:101A2000DEDEE2DCE6DAAA89AE843289368401C5DC
:101A30001C4D91E371369717000093872790639BA5
:101A4000F40C83A4490083D7C400A18BF5C79C483C
:101A5000E5C793070002A304F1029307000302D233
:101A60002305F10222C6930B5002971A0000938AB5
:101A7000EA90054C294B4A848347040099C363903C
:101A8000770FB30C2441638D0C00E6864A86A68549
:101A90004E852D3FFD576306F51E9256E69636D2CB
:101AA00083470400638F071CFD571309140002C805
:101AB00002CE3ECA02CCA309010482D483450900A8
:101AC00015465685B92713041900C24759E913F77B
:101AD000070109C713070002A309E10413F78700F0
:101AE00009C71307B002A309E104834609001307DD
:101AF000A0026380E608F2474A84814625460347F0
:101B0000040093051400130707FD6379E60AB5CABC
:101B10003ECE85A897170000938747846395F4000D
:101B200083A489000DB7970700009387277FE39C64
:101B3000F4F083A4C90001BFA6854E85EFF0EFF154
:101B400009D97D55FA406A44DA444A49BA492A4AD1
:101B50009A4A0A4BF65B665CD65C0D61828005048E
:101B600021BF330555413315AC00C98F3EC82289CA
:101B7000B1B7324793064700184336C66349070298
:101B80003ACE034704009307E002631FF7040347BC
:101B900014009307A002631BF702B24709041387DE
:101BA00047009C433AC663C107023ECA35A83307C3
:101BB000E04093E727003ACE3EC8E1B7B38767031A
:101BC00085462E84BA9725BFFD57C5B7050402CABE
:101BD00081468147254603470400930514001307F7
:101BE00007FD6376E606F1F2834504000D4617050E
:101BF000000013052579312D11CD9707000093873B
:101C000067781D8D93070004B397A700424505042C
:101C10005D8D2AC883450400194617050000130589
:101C2000A576130914002304B102E5233DC197E70B
:101C3000FFFF9387273D95E74247B2471377071089
:101C400009CF91073EC69257D2973ED22DB5B387A2
:101C5000670385462E84BA97BDBF9D07E19BA10708
:101C6000D5B7780097060000938686D626860C089E
:101C70004E8597000000E7000000FD572A8AE31414
:101C8000F5FC83D7C40093F70704E39C07EA1255D9
:101C900055BD780097060000938686D326860C08EB
:101CA0004E85012AD9BF797156CA9C49BA8A98458E
:101CB00022D426D24ECE52CC06D64AD05AC85EC6C0
:101CC000AA892E84B284368A63D3E700BA879CC07F
:101CD0000347340419C385079CC01C4093F70702CF
:101CE00081C79C4089079CC00329040013796900BF
:101CF000631A0900130B9401FD5B5C449840998FB3
:101D0000634CF9041C408346340493F70702B3364E
:101D1000D000A5EB13063404D2854E85829AFD5778
:101D20006303F5041C4011469840998B5444814448
:101D30006397C700B384E64063D3040081441C4426
:101D400018486354F700998FBE94014969047D5B7C
:101D500063982405014509A885465A86D2854E8593
:101D6000829A631E75017D55B250225492540259D5
:101D7000F249624AD24A424BB24B45618280050920
:101D8000ADBF3307D40013060003A301C704034704
:101D9000540493871600A2978906A381E7049DBF88
:101DA00085462286D2854E85829AE30E65FB05091B
:101DB00045B7797122D426D24AD04ECE06D652CC1F
:101DC00056CA5AC8B68983C68501930790063289D8
:101DD000AA842E8413863504638DF60263E2D70647
:101DE000930780056387F61863EDD70063800622AA
:101DF00093073004638EF60A930A24042301D40463
:101E0000C9A0930730066385F60A93074006E39559
:101E1000F6FE1C40084393F6070893054500C5C627
:101E20001C410CC363D807001307D002B307F0406E
:101E3000A301E404970600009386865529476DA800
:101E4000930700076383F61663E5D7029307E0065E
:101E5000638AF6189307F006E390F6FA0C401C43E9
:101E600013F80508138547006307080608C39C4359
:101E70008DA893075007E383F6FE93078007638AD4
:101E8000F61293073007E399F6F61C43D0418145DB
:101E90009386470014C383AA070056859D2E01C56B
:101EA0003305554148C05C401CC8A301040471A817
:101EB0001C43930A2404938647009C4314C32301C4
:101EC000F4048547D5B793F607041C410CC3B9DA6F
:101ED000C207C18781BF93F5050408C3C9D983D759
:101EE00007001307F0066387E60E97060000938647
:101EF000264A2947A30104044C400CC463C50500CD
:101F000008406D9908C099E3B28A91CDB28AB3F5C1
:101F1000E702FD1AB69583C505002380BA00B3D544
:101F2000E70263FFE70AA147631EF7001C40858BA9
:101F300091CB58401C4863C7E70093070003A38F69
:101F4000FAFEFD1A3306564110C84E87CA86700045
:101F5000A2852685893B7D5A631E450B7D55B2506F
:101F6000225492540259F249624AD24A424B456184
:101F70008280A382D50497060000938666410C40B8
:101F8000084313F805081C411105630D080208C336
:101F900013F7150001C793E505020CC04147B9FBD3
:101FA0000C4093F5F5FD0CC0B1B79C4193E70702D7
:101FB0009CC193078007A302F40497060000938650
:101FC000663E75BF13F8050408C3E30308FCC207A7
:101FD000C1837DBF970600009386863B214719BFCA
:101FE000AE8735B794411C43CC4913F806081385D6
:101FF00047006306080008C39C438CC301A808C3BC
:1020000093F606049C43F5DA2390B70023280400D6
:10201000B28A25BF14485686CA8526858299E30F61
:1020200045F31C40898B8DE7B2474844E359F5F2EC
:102030003E8535B785465686CA8526858299E30F43
:1020400065F1050A5C443247998FE345FAFEE9BF22
:10205000014A930A94017D5BF5B7411122C42A8499
:102060002E8523A2018206C6EFE09FFEFD5763176F
:10207000F500938741829C4391C31CC0B240224427
:1020800041018280411122C42E848395E50006C659
:102090004522634905007C48AA977CC8B240224487
:1020A000410182808357C4007D777D17F98F231605
:1020B000F400EDB783D7C500011122CC26CA4AC867
:1020C0004EC606CE93F70710AA842E843289B689AD
:1020D00091C78395E5008946014631228357C400A4
:1020E0007D777D17F98F2316F4008315E400624491
:1020F000F240CE864A86B24942492685D2440561DD
:102100003DA8411122C42E848395E50006C6E1282E
:10211000FD570357C400631BF500FD77FD17F98FCA
:102120002316F400B2402244410182808567D98F92
:102130002316F40068C8FDB78395E50005A8411192
:1021400022C42A842E85B285368623A2018206C641
:10215000EFE05FEBFD576317F500938741829C43E7
:1021600091C31CC0B240224441018280411122C46B
:102170002A842E8523A2018206C6CD20FD5763172F
:10218000F500938741829C4391C31CC0B240224416
:1021900041018280411122C42A842E85B28523A266
:1021A000018206C6D120FD576317F500938741824F
:1021B0009C4391C31CC0B240224441018280411122
:1021C00022C42A842E8523A2018206C66520FD57DB
:1021D0006317F500938741829C4391C31CC0B240B2
:1021E000224441018280411122C42A842E85B28575
:1021F000368623A2018206C66120FD576317F500CB
:10220000938741829C4391C31CC0B2402244410148
:10221000828093F5F50F2A966314C50001458280EC
:1022200083470500E38DB7FE0505FDB782808280F8
:10223000411122C42A842E85B285368623A20182CA
:1022400006C6A920FD576317F500938741829C437A
:1022500091C31CC0B2402244410182809307800593
:1022600023A2F1827D5582809307800523A2F1820B
:102270007D5582809307800523A2F18201458280EB
:102280009307800523A2F1827D5582809307800504
:1022900023A2F1827D55828053797374656D436CFE
:1022A0006B3A25640D0A000053696C656E745F4CCF
:1022B0006F6F704261636B204D6F64650D000000AD
:1022C00053656E64204661696C65640D0000000012
:1022D00053656E6420537563636573730D0000006E
:1022E00053656E6420446174613A0D002530327884
:1022F0000D0A00005265636569766520446174616A
:102300003A0D00004E6F2052656365697665204482
:102310006174610D0000000000000000000000007A
:1023200000000000000000000000000000000000AD
:10233000000000000000000000000000000000009D
:10234000000000000000000000000000000000008D
:10235000000000000000000000000000000000007D
:10236000000000000000000000000000000000006D
:102370000000000000000000232D302B2000000092
:10238000686C4C0065666745464700003031323363
:102390003435363738394142434445460000000061
:1023A00030313233343536373839616263646566CB
:0423B0000000000029
:1023B40000000000010203040102030406070809E7
:1023C40000000000382300005823000018230000F8
:1023D40000000000000000000000000000000000F9
:1023E40000000000000000000000000000000000E9
:1023F40000000000000000000000000000000000D9
:1024040000000000000000000000000000000000C8
:1024140000000000000000000000000000000000B8
:1024240000A24A04020406089800002010000020BC
:08243400100000200000000070
:00000001FF
