:100000006F20000B1300000013000000130000001D
:100010001300000013000000130000001300000094
:100020001300000013000000130000001300000084
:08003000130000007300100032
:100038000000000000000000CA190000DA190000E2
:1000480000000000F61F0000000000000000000093
:10005800F81F0000FA1F0000000000000000000068
:10006800FC1F000000000000FE1F00000000000050
:1000780000200000022000000420000006200000EC
:10008800082000000A2000000C16000030160000AE
:100098005416000096160000BA160000162000003C
:1000A800182000001A2000001C2000001E2000005C
:1000B800202000002220000024200000262000002C
:1000C800282000002A2000002C200000DE16000056
:1000D80030200000FA17000034200000362000000D
:1000E8002A1800005A1800008A1800003E20000054
:1000F800402000004220000044200000462000006C
:1001080048200000F4130000281400008A1400009E
:1001180066170000522000005420000056200000FE
:10012800421900005A2000005C2000005E200000F8
:100138006020000062200000BA180000662000005D
:10014800BE140000F2140000EA18000012190000A2
:10015800702000007220000074200000762000004B
:10016800782000007A2000007C2000007E2000001B
:100178008020000082200000842000005E340000FF
:10018800882000008A200000CE15000022150000FB
:1001980056150000A21500009420000072190000F6
:1001A800982000009A2000009C200000A21900005E
:1001B800A0200000A2200000A4200000A62000002B
:1001C800A8200000AA200000AC200000AE200000FB
:1001D8000000000000000000000000000000000017
:1001E8000000000000000000000000000000000007
:0801F8000000000000000000FF
:10020000737504308280B76200009382820873A005
:10021000023082803D432A876373C3029377F700DD
:10022000BDEFADE5937606FF3D8ABA960CC34CC38D
:100230000CC74CC74107E36BD7FE11E28280B306BF
:10024000C3408A069702000096966780A60023079F
:10025000B700A306B7002306B700A305B700230520
:10026000B700A304B7002304B700A303B700230318
:10027000B700A302B7002302B700A301B700230110
:10028000B700A300B7002300B700828093F5F50FF5
:1002900093968500D58D93960501D58D61B793967C
:1002A00027009702000096968682E78086FA96805D
:1002B000C1171D8F3E96E374C3F8A5B7797122D696
:1002C0000018232EA4FC8327C4FD958393F7F70F12
:1002D0009D8BA307F4FE8327C4FD93F7F70FBD8B17
:1002E0002307F4FE0347F4FEAD670A07938747DA56
:1002F000BA979C43DC470347E4FE85463397E60004
:10030000420741833A868346F4FE2D678A06130727
:1003100047DA36971843B18F5CC701003254456104
:100320008280797106D622D40018232EA4FC232CB7
:10033000B4FC232AC4FC2328D4FC8327C4FD958362
:1003400093F7F70F9D8BA307F4FE8327C4FD93F764
:10035000F70FBD8B2307F4FE0327C4FD9307F00FAF
:100360006305F7140327C4FD9307F00F6301F71427
:100370008347F4FE91E785451145EF20207141A0A8
:100380000347F4FE85476317F70085452145EF20B5
:10039000E06FB5A00347F4FE89476317F700854572
:1003A0004145EF20A06EA1A80347F4FE8D476318D6
:1003B000F700854513050002EF20406D89A0034733
:1003C000F4FE91476318F700854513050004EF20FC
:1003D000E06B35A00347F4FE95476318F7008545A9
:1003E00013050008EF20806A19A80347F4FE994717
:1003F0006317F700854513050010EF202069834738
:10040000E4FE0547B317F700C207C1832310F4FECB
:10041000032784FD85476317F702832704FDC2077E
:10042000C183A183C207C18389E78D472322F4FEDC
:1004300011A8832704FDC207C183A183C207C1831A
:100440002322F4FE832704FDC207C18393F7F70F2D
:100450002324F4FE0347F4FEAD670A07938747DAC7
:10046000BA979C433E87930704FEBE853A85EF10FA
:100470009073032784FD8547631CF7020347F4FE4E
:10048000AD670A07938747DABA979C43BE868347CE
:10049000E4FE0547B317F700C207C183032644FDF6
:1004A000BE853685EF20A01A21A0010011A0010011
:1004B000B250225445618280011106CE22CC001038
:1004C0002326A4FE2324B4FE8327C4FE99E7E14635
:1004D000014685452545B13545AA0327C4FE894710
:1004E0006319F700E1460146854513056002153D95
:1004F00061AA0327C4FEC1476318F700E14601461D
:1005000085450945393D49A20327C4FEC9476319FA
:10051000F700E14601468545130550061935ADA2A1
:100520000327C4FE930700026319F700E146014662
:1005300085451305A002F53381AA0327C4FE93075E
:1005400020026319F700E146014685451305A00422
:10055000C93B1DAA0327C4FE930740026319F70095
:10056000E1460146854513058006653B31AA032710
:10057000C4FE930700046319F700E1460146854570
:100580001305A004793B09A20327C4FE93072004A6
:100590006319F700E1460146854513050002513312
:1005A000E5A00327C4FE930700056319F700E146A1
:1005B000014685451305C004AD33F9A00327C4FEE9
:1005C000930720056319F700E146014685451305A9
:1005D0008008813B55A80327C4FE930700066319D2
:1005E000F700E14601468545130500041D3B69A857
:1005F0000327C4FE930720066319F700E14601466E
:10060000854513050004313B41A00327C4FE930731
:1006100000076319F700E1460146854513052004EC
:1006200009339DA00327C4FE930720076318F70032
:10063000E146014685451945ED31B9A00327C4FEC1
:10064000930740076319F700E14601468545130506
:10065000C008C13915A80327C4FE93070008631911
:10066000F700E14601468545130540045D3929A898
:100670000327C4FE930720086318F700E1460146EC
:1006800085451305E0087139032784FE8547631902
:10069000F700930680040146814529455931C9AACE
:1006A000032784FE8D47631AF700930680040146F2
:1006B000814513057002B53165AA032784FEC5473D
:1006C0006319F70093068004014681450D45913971
:1006D00045A2032784FECD47631AF70093068004E2
:1006E00001468145130560062D3959A2032784FE72
:1006F00093071002631AF7009306800401468145B0
:100700001305B0023939ADA2032784FE93073002E6
:10071000631AF70093068004014681451305B0046F
:100720000931B9A2032784FE93075002631AF70028
:10073000930680040146814513059006DD360DAA17
:10074000032784FE93071004631AF70093068004BE
:10075000014681451305B004E93619AA032784FE32
:1007600093073004631AF70093068004014681451D
:10077000130510027D36EDA8032784FE93071005AC
:10078000631AF7009306800401468145130520068D
:10079000493EF9A8032784FE93073005631AF70042
:1007A0009306800401468145130590089D3EC9A02B
:1007B000032784FE93071006631AF700930680044C
:1007C0000146814513051004A93E5DA0032784FE60
:1007D00093073006631AF7009306800401468145AB
:1007E0001305B0083D3E69A0032784FE9307100758
:1007F000631AF7009306800401468145130530040F
:100800000D36BDA0032784FE930730076319F70058
:1008100093068004014681451D45213691A8032792
:1008200084FE93075007631AF7009306800401467D
:1008300081451305D008F53425A8032784FE9307C6
:100840001008631AF70093068004014681451305DA
:100850005004C13C31A8032784FE93073008631974
:10086000F70093068004014681451305F008553CC6
:100870000100F240624405618280011106CE22CC63
:1008800000102326A4FEAE87A305F4FEAD67032760
:10089000C4FE0A07938787DBBA979C433E8783474A
:1008A000B4FE3E86930550523A85EF20807EB7E72E
:1008B00000E0938681810327C4FE36970347070033
:1008C000BA97238007408347B4FE81CF1387818185
:1008D0008327C4FEBA9783C707003E85EF00D02761
:1008E00019A8138781818327C4FEBA9783C707009D
:1008F0003E85EF0030280100F240624405618280AD
:10090000011122CE00102326A4FE2324B4FEAD67DD
:100910000327C4FE0A07938787DBBA979C4383D7D4
:100920000700C207C18393F707028DC7AD6703278E
:10093000C4FE0A07938787DBBA979C4383D7470097
:10094000C207C18313F7F70F832784FE2380E700D4
:10095000854711A081473E85724405618280797187
:1009600006D622D40018232EA4FC232CB4FC232A60
:10097000C4FC2328D4FC85450545EF2020118325A0
:1009800004FD032544FD0D3E032744FD8947631CF8
:10099000F700032704FD8D476317F70085451145D0
:1009A000EF10704E95A2032744FDC947631CF70062
:1009B000032704FDCD476317F70085452145EF1058
:1009C000904C99A2032744FD930720026310F7027D
:1009D000032704FD93073002631AF7008545B70724
:1009E000140013850701EF10104A39AA032744FDAC
:1009F000930740026310F702032704FD9307500298
:100A0000631AF7008545B707140013850703EF1035
:100A10009047DDA8032744FD93072004631DF700DA
:100A2000032704FD930730046317F7008545056528
:100A3000EF107045D1A8032744FD930720056310EC
:100A4000F702032704FD93073005631AF700854575
:100A5000B707200013851700EF10F04275A0032799
:100A600044FD930720066310F702032704FD930754
:100A70003006631AF7008545B71700801385078095
:100A8000EF10704051A0032744FD93072007631225
:100A9000F702032704FD93073007631CF700B7072D
:100AA0000140D44FB707014037074000558FD8CFDA
:100AB000A1A8032744FD930740076312F702032709
:100AC00004FD93075007631CF700B7070140D44F9C
:100AD000B707014037078000558FD8CF35A00327CF
:100AE00044FD930720086311F702032704FD9307D1
:100AF0003008631BF700B7070140D44FB707014028
:100B000037070002558FD8CF8327C4FD91E785456D
:100B10001165EF10B07769A80327C4FD85476318F6
:100B2000F700854537050200EF10B07A51A0032782
:100B3000C4FD89476318F700854537050400EF10A9
:100B40005079BDA00327C4FD8D476318F700854584
:100B500037050800EF10F077A1A80327C4FD9147DF
:100B60006318F700854537051000EF10907689A0CF
:100B70000327C4FD95476318F70085451305000456
:100B8000EF10307535A00327C4FD99476318F700AF
:100B9000854513050008EF10D07319A80327C4FD7D
:100BA0009D476317F700854513050010EF1070721D
:100BB000832784FD2320F4FE231204FE231304FE66
:100BC000231404FE231604FEB1472315F4FEAD677B
:100BD0000327C4FD0A07938787DBBA979C433E87A8
:100BE000930704FEBE853A85EF206021AD67032799
:100BF000C4FD0A07938787DBBA979C4385453E85EA
:100C0000EF2020430100B2502254456182804111FF
:100C100006C622C40008938501851945D5310546CD
:100C2000938501851385418EF1230100B240224452
:100C300041018280411106C622C4000893851185B6
:100C400005457D390546938511851385818F5D2383
:100C50000100B240224441018280411106C622C4F3
:100C6000000803A741868947630FF70003A7418661
:100C70008D476314F700992039A003A74186914757
:100C80006313F70045280100B240224441018280ED
:100C9000411106C622C4000803A741869147631488
:100CA000F700DD2839A003A741868D476313F700BD
:100CB00085280100B240224441018280411106C6CC
:100CC00022C4000883C771853E8793874185BA9700
:100CD000BE8511453531AA8781CB83C771858507CC
:100CE00013F7F70FA38BE18403C771858547631A58
:100CF000F70003C741859307500A6304F700A38BED
:100D0000018403C771858D476317F700A38B0184A6
:100D10000547238CE1840100B240224441018280D6
:100D2000411122C6000805472389E18401003244AD
:100D300041018280411106C622C4000883C7F185A3
:100D40003E879387C185BA97BE851145553EAA87D0
:100D500081CB83C7F185850713F7F70FA38FE18454
:100D600003C7F1858547631AF70003C7C185930759
:100D7000500A6304F700A38F018403C7F1858D47F0
:100D80006317F700A38F018405472380E1860100E4
:100D9000B240224441018280411122C60008054729
:100DA000A380E1860100324441018280411106C6E0
:100DB00022C400089385C18605459936054693856A
:100DC000C1861385C1903D210100B24022444101FA
:100DD0008280411106C622C400089385D18605454C
:100DE000053605469385D1861385019221210100A0
:100DF000B240224441018280011106CE22CC001073
:100E00002326A4FE0327C4FE23A8E1861128032578
:100E1000C4FE5120B52B0100F2406244056182807E
:100E2000411122C60008B71702409843B717024085
:100E30001367170098C3B7170240D443B71702408F
:100E40003707FFF8758FD8C3B71702409443B71719
:100E500002403707F7FE7D17758F98C3B71702401A
:100E60009443B71702403707FCFF7D17758F98C36F
:100E7000B7170240D443B7170240370781FF7D17E9
:100E8000758FD8C3B717024037079F0098C7010076
:100E9000324441018280797122D60018232EA4FCAD
:100EA000232604FE232404FEB71702409443B717F9
:100EB00002404167558F98C3B71702409843B70760
:100EC0000200F98F2324F4FE8327C4FE850723261E
:100ED000F4FE832784FE99E70327C4FE930700509E
:100EE000E31CF7FCB71702409843B7070200F98FDD
:100EF00089C785472324F4FE19A0232404FE032771
:100F000084FE85476315F71EB72702409843B7272D
:100F100002401367070198C3B72702409843B727D9
:100F20000240719B98C3B727024094438327C4FDB6
:100F30001387F7FFB7376E0193870760B357F70240
:100F400013F77700B7270240558F98C33717024031
:100F5000B71702405843D8C337170240B7170240AB
:100F60005843D8C337170240B71702405843D8C375
:100F70000327C4FDB7177A0093870720631BF70286
:100F8000B7170240D843B7170240719BD8C3B717B1
:100F90000240D843B717024013671700D8C30100B7
:100FA000B7170240DC4313F7C7009147E31AF7FE77
:100FB00081A2B7170240D443B71702403707C1FFD9
:100FC0007D17758FD8C30327C4FDB747950893874E
:100FD0000740631BF700B7170240D443B71702401E
:100FE0004167558FD8C355A80327C4FDB7172707F6
:100FF000938707E0631CF700B7170240D443B71785
:10100000024037073900558FD8C341A80327C4FDD4
:10101000B7E7B80593870780631CF700B71702404E
:10102000D443B717024037072900558FD8C3B5A05E
:101030000327C4FDB7A74A0493870720631CF70062
:10104000B7170240D443B717024037071D00558F2A
:10105000D8C3A1A00327C4FDB777DC02938707C0DC
:10106000631CF700B7170240D443B7170240370795
:101070001100558FD8C315A00327C4FDB7376E01E3
:1010800093870760631BF700B7170240D443B71775
:10109000024037070500558FD8C3B7170240944365
:1010A000B717024037070001558F98C30100B717E3
:1010B00002409843B7070002F98FF5DBB7170240EB
:1010C000D843B7170240719BD8C3B7170240D84323
:1010D000B717024013672700D8C30100B7170240B3
:1010E000DC4313F7C700A147E31AF7FE11A001A0E4
:1010F000325445618280411106C622C4000893061D
:10110000100213060002F167938507200945EFF0EE
:101110001F8585450945EFF04FF60547238AE1868F
:101120000100B240224441018280797106D622D466
:101130000018232EA4FC232CB4FC232AC4FC232651
:1011400004FEA9A00100AD67938787DB9C47930548
:1011500000043E85EF200003AA87F5D7AD6793878B
:1011600087DB9C47BE86832784FD13871700232CCB
:10117000E4FC83870700C207C183BE853685EF1074
:10118000907D8327C4FE85072326F4FE0327C4FE33
:10119000832744FDE348F7FA832744FD3E85B25098
:1011A000225445618280011122CE00102326A4FE24
:1011B0002324B4FE8327C4FED843832784FE3E97AE
:1011C0008327C4FED8C319A88327C4FED843832726
:1011D000C4FE9C4B1D8F8327C4FED8C38327C4FE47
:1011E000984B8327C4FEDC43E3F0E7FE0100724422
:1011F00005618280797106D622D40018232EA4FCC2
:10120000232CB4FC232AC4FC8327C4FDDC4703271A
:1012100044FD637BF70C5D2A8327C4FD984B83272D
:10122000C4FDDC43B307F7402326F4FE032744FD47
:101230008327C4FE63FBE7068327C4FD9843832707
:10124000C4FDDC43BA970326C4FE832584FD3E8596
:10125000EF60C05E8325C4FE0325C4FDA9370327C4
:1012600084FD8327C4FEBA97232CF4FC8327C4FD96
:1012700098438327C4FDDC43B306F700032744FDEE
:101280008327C4FEB307F7403E86832584FD368559
:10129000EF60C05A032744FD8327C4FEB307F7401D
:1012A000BE850325C4FD013725A08327C4FD9843CF
:1012B0008327C4FDDC43BA97032644FD832584FDC0
:1012C0003E85EF60A057832544FD0325C4FDE13D25
:1012D0008327C4FDD847832744FD1D8F8327C4FD82
:1012E000D8C77528814711A089473E85B25022543E
:1012F00045618280011122CE00102326A4FE83279F
:10130000C4FEFD8B0547B316F70037E700E08327DF
:10131000C4FE9583938707048A07BA9794C3010094
:10132000724405618280011122CE00102326A4FEA2
:101330008327C4FEFD8B0547B316F70037E700E0AF
:101340008327C4FE9583938707068A07BA9794C3B9
:101350000100724405618280011106CE22CC00108A
:101360002326A4FE0325C4FE71370100F240624427
:1013700005618280011106CE22CC00102326A4FE36
:101380000325C4FE4D370100F240624405618280AE
:10139000411122C6000801003244410182804111FE
:1013A00006C622C4000883A7818799C783A78187BF
:1013B0001387F7FF23ACE18683A7818799E3EFE0EA
:1013C0009FE40100B240224441018280411106C6DF
:1013D00022C4000883A7818799E3EFE07FE283A717
:1013E00081871387170023ACE1860100B2402244B5
:1013F00041018280411122C6000893055052B7472F
:10140000014013850780EF10505CAA8789CB9305B4
:101410005052B747014013850780EF10306B010031
:101420003244410173002030411122C60008930567
:101430005052B747004013850740EF101059AA8754
:10144000A1C303A7818685476315F700EFF07F9856
:1014500005A003A7818689476315F700EFF08FFD8C
:1014600001A803A781868D476314F700EFF01F944E
:1014700093055052B747004013850740EF101065A1
:1014800001003244410173002030411122C600089E
:1014900093055052B757004013850780EF10F05264
:1014A000AA8789CB93055052B75700401385078010
:1014B000EF10D0610100324441017300203041112E
:1014C00022C6000893055052B7570040138507C045
:1014D000EF10B04FAA8789CB93055052B757004001
:1014E000138507C0EF10905E010032444101730084
:1014F0002030411122C60008930550523755004054
:10150000EF10B04CAA8789CBEFF02FF5930550521E
:1015100037550040EF10905B0100324441017300E9
:101520002030411122C6000893055052B7270040D1
:1015300013850780EF107049AA8789CB9305505215
:10154000B727004013850780EF1050580100324440
:10155000410173002030411122C60008930550520A
:10156000B7270040138507C0EF103046AA878DC704
:1015700003A7818685476309F70003A7818689470A
:101580006314F700EFF0AFE893055052B72700401F
:10159000138507C0EF1090530100324441017300DE
:1015A0002030411122C600089305505237250040D3
:1015B000EF10B041AA8799C79305505237250040D4
:1015C000EF10D0500100324441017300203041112E
:1015D00022C60008B707055083C7070193F7F70F26
:1015E000918B85C3EFF0CFEAB707055083C707019A
:1015F00013F7F70FB70705506D9B1377F70F238885
:10160000E70001003244410173002030411122C63D
:1016100000080545EF00D0512A8785476315F7007C
:101620000545EF005056010032444101730020305F
:10163000411122C600080945EF00904F2A878547CF
:101640006315F7000945EF001054010032444101D1
:1016500073002030411122C600081145EF00504DA3
:101660002A8785476314F70283A7418D82979145A6
:10167000B717014013850780EF009075AA873E8752
:101680008547E303F7FE1145EF00F04F01003244B8
:10169000410173002030411122C600082145EF00AE
:1016A00030492A8785476315F7002145EF00B04D83
:1016B00001003244410173002030411122C600086C
:1016C0004145EF00F0462A8785476315F7004145FD
:1016D000EF00704B01003244410173002030411192
:1016E00022C6000813050002EF0090442A878547B0
:1016F0006316F70013050002EF00F048130500041D
:10170000EF0010432A8785476316F700130500048E
:10171000EF00704713050008EF0090412A878547C6
:101720006316F70013050008EF00F04513050010DD
:10173000EF0010402A8785476316F7001305001055
:10174000EF00704413050020EF00903E2A87854784
:101750006316F70013050020EF00F0420100324449
:10176000410173002030411122C6000813050040DA
:10177000EF00103C2A8785476316F70013050040E9
:10178000EF007040856713850780EF00703A2A8765
:1017900085476317F700856713850780EF00B03E24
:1017A0000565EF00F0382A8785476315F700056562
:1017B000EF00703D0965EF00B0372A878547631554
:1017C000F7000965EF00303C1165EF0070362A879D
:1017D00085476315F7001165EF00F03A2165EF00CA
:1017E00030352A8785476315F7002165EF00B0394A
:1017F00001003244410173002030411122C600082B
:101800008545B7370140138507C0EF106055AA879B
:1018100081CB8545B7370140138507C0EF10405B8A
:1018200001003244410173002030411122C60008FA
:10183000854537050040EF10A052AA8791CB85451A
:1018400037050040EF10C05813052008EFE01FA730
:1018500001003244410173002030411122C60008CA
:101860008545B707004013850740EF10604FAA87F2
:1018700081CB8545B707004013850740EF104055E1
:1018800001003244410173002030411122C600089A
:101890008545B717004013850780EF10604CAA8775
:1018A00081CB8545B717004013850780EF10405264
:1018B00001003244410173002030411122C600086A
:1018C0008545B7170040138507C0EF106049AA8708
:1018D00081CB8545B7170040138507C0EF10404FF7
:1018E00001003244410173002030411122C600083A
:1018F000854537150040EF10A046AA8791C785455A
:1019000037150040EF10C04C010032444101730014
:101910002030411122C600088545B71700401385C5
:101920000740EF10E043AA8781CB8545B7170040F9
:1019300013850740EF10C049010032444101730094
:101940002030411122C600088545B7370140138574
:101950000740EF10E040AA8781CB8545B7370140AB
:1019600013850740EF10C046010032444101730067
:101970002030411122C600088545B7570140138524
:1019800007C0EF10E03DAA8781CB8545B7570140DE
:10199000138507C0EF10C0430100324441017300BA
:1019A0002030411122C60008854537550140EF100F
:1019B000203BAA8791C7854537550140EF1040412C
:1019C00001003244410173002030411122C6000859
:1019D00001003244410173002030411122C6000849
:1019E00001A0597186D6A2D4CAD2CED0D2CED6CC3E
:1019F0008018EFF0BF9DB747950813850740EFF0BB
:101A0000AFBFEFF04FEFEF205043930500023735A3
:101A10000140EF205025B75700001385072FEF2016
:101A2000D03DEFF0DF97C1460146854513057006AE
:101A3000EFE03F8FEF20503531A0AD67138587D39E
:101A4000EF60900A0145EF2090422A87FD57E30698
:101A5000F7FEEF20D01FB707002013850700EF2007
:101A6000D05D916713854703EF30C01891671385E8
:101A70004703EF30C01A5145EF3050690145EF3050
:101A8000B05F0145EF30D056010081453D45EF3054
:101A9000204F2A8723A0E18803A70188B7D72724EE
:101AA000F98FE5D703A701889167F98F638E07380F
:101AB000116681453D45EF30206781454145EF3056
:101AC000204CAA8793F7F73F232EF4FC0327C4FD8D
:101AD0009307004063ECE7008327C4FDC207C1837E
:101AE0000146BE8513854193EF30C01F9387419314
:101AF000238107002946B70700209385C700138577
:101B00004193EF505051AA87B5FBFD26AA872E8836
:101B100023A4F18823A6018903A8C18883A781880B
:101B2000B705A0280146B386B70036853335F500E2
:101B30003307C800B307E5003E87B6873A88131716
:101B4000880113D987003369270193598800232C12
:101B500024FD032584FDEF3030301305007DEF3088
:101B60000074A1671385870EEF30105103C7C1873A
:101B7000B7070020938787012381E7000146B70755
:101B80000020938587013D45EF30A00B0546814538
:101B90003D45EF3040100D45EF30302E232AA4FC98
:101BA000032744FDFD57630AF72A010081453D459F
:101BB000EF30003D2A8723A0E18803A70188B7D72B
:101BC0002724F98FE5D783C7C187850713F7F70F58
:101BD000238EE18603A701889167F98F638D07241F
:101BE00091671386070881453D45EF30E0538145F5
:101BF0004145EF30E038AA8793F7F707232EF4FC2E
:101C00000327C4FDE14763ECE7008327C4FDC20757
:101C1000C1830146BE8513854193EF30A00C9387A5
:101C20004193238107002946B70700209385870247
:101C300013854193EF50303EAA87E39107E40524D2
:101C4000AA872E8823A8F18823AA01897524AA8748
:101C50002E8823ACF18823AE01899307C4F9BE8591
:101C60001385E1933D26930784F9BE85138521945E
:101C70000D26930744F9BE8513856194192E03A898
:101C8000C18883A781882328F4FC03A8418983A7FE
:101C900001892326F4FC03A8C18983A78189232411
:101CA000F4FC032784F98327C4F9B307F7403E8582
:101CB000EF50D001AA872E882320F4FC232204FDB4
:101CC000032784FC8327C4FCB307F7403E85EF500D
:101CD000E07FAA872E88232CF4FA232E04FB032707
:101CE00044F9832784F9B307F7403E85EF50007E1F
:101CF000AA872E882328F4FA232A04FB0327C4FC8E
:101D0000832704FDB307F7403E85EF50207CAA8768
:101D10002E882324F4FA232604FB032684FB83263F
:101D2000C4FB032504FC832544FCEF40702DAA87E7
:101D30002E883E8AC28A032684FA8326C4FA0325A3
:101D400004FB832544FBEF40B02BAA872E883E86F8
:101D5000C2865285D685EF403076AA872E883E8A85
:101D6000C28A032684FB8326C4FB032504FC832547
:101D700044FCEF30B048AA872E88032604FB832654
:101D800044FB3E85C285EF307047AA872E88032624
:101D900084FA8326C4FA3E85C285EF303046AA878E
:101DA0002E883E86C2865285D685EF402038AA8787
:101DB0002E883E85C285EF50C077AA872E882320C3
:101DC000F4FA232204FB032504FA832544FAEF5096
:101DD0001002AD6703A607D583A647D5EF40502272
:101DE000AA872E8823A0F18A23A2018B03A8418A07
:101DF00083A7018A2D67032687D58326C7D53E850D
:101E0000C285EF40F01FAA872E8823A4F18A23A65B
:101E1000018B13057006EFE06FCA03A8C18A83A780
:101E2000818A3E86C286AD67938507D41385C194A7
:101E3000EF60A04FA1B13796272481453D45EF3093
:101E4000A02EEF30502F1DB93796272481453D45F0
:101E5000EF30802DEF30302E15B1010005B17971D2
:101E600006D622D44AD24ED00018814701482324F6
:101E7000F4FE232604FF9307C4FD3E85EF20106A7D
:101E800091472322F4FE89A8832784FEE183032758
:101E9000C4FE2207D98F2326F4FE832784FEA207DF
:101EA0002324F4FE832744FE130704FFBA9783C755
:101EB000C7FE3E898149832784FEB3E72701232497
:101EC000F4FE8327C4FEB3E737012326F4FE8327FD
:101ED00044FEFD172322F4FE832744FEE3D607FACF
:101EE000832784FE0328C4FE3E85C285B250225457
:101EF0001259825945618280797106D622D44AD21C
:101F00004ED00018814701482324F4FE232604FF05
:101F10009307C4FD3E85EF20906291472322F4FE93
:101F200089A8832784FEE1830327C4FE2207D98F73
:101F30002326F4FE832784FEA2072324F4FE8327AE
:101F400044FE130704FFBA9783C7C7FE3E89814941
:101F5000832784FEB3E727012324F4FE8327C4FEEE
:101F6000B3E737012326F4FE832744FEFD1723221F
:101F7000F4FE832744FEE3D607FA832784FE032872
:101F8000C4FE3E85C285B250225412598259456121
:101F90008280797122D60018232EA4FC232CB4FC55
:101FA000832784FD23A00700232604FE15A883278A
:101FB00084FD9C430327C4FE8326C4FD3697034754
:101FC0000700BA860327C4FE0E073397E6003E9744
:101FD000832784FD98C38327C4FE85072326F4FE48
:101FE0000327C4FE8D47E3D4E7FC0100325445616A
:101FF000828001A001A001A001A001A001A001A078
:1020000001A001A001A001A001A001A001A001A0C8
:1020100001A001A001A001A001A001A001A001A0B8
:1020200001A001A001A001A001A001A001A001A0A8
:1020300001A001A001A001A001A001A001A001A098
:1020400001A001A001A001A001A001A001A001A088
:1020500001A001A001A001A001A001A001A001A078
:1020600001A001A001A001A001A001A001A001A068
:1020700001A001A001A001A001A001A001A001A058
:1020800001A001A001A001A001A001A001A001A048
:1020900001A001A001A001A001A001A001A001A038
:1020A00001A001A001A001A001A001A001A001A028
:1020B0007390123497F1FF1F9381C19A17E10020AA
:1020C000130141F4179500001305053F97E5FF1F25
:1020D000938545F31386018563FAC50083220500C5
:1020E00023A0550011059105E3EAC5FE138501857E
:1020F000938581996377B500232005001105E36D71
:10210000B5FEFD42739002BCFD4273904280B782DF
:1021100000009382828873A0023097E2FFFF9382CF
:10212000E2F193E2320073905230EF0040019702E7
:1021300000009382428B739012347300203041115F
:1021400006C622C40008B71702409843B7170240DA
:102150001367170098C3B7170240D443B71702405C
:102160003707FFF8758FD8C3B71702409443B717E6
:1021700002403707F7FE7D17758F98C3B7170240E7
:102180009443B71702403707FCFF7D17758F98C33C
:10219000B7170240D443B7170240370781FF7D17B6
:1021A000758FD8C3B717024037079F0098C73120F3
:1021B0000100B240224441018280411106C622C47E
:1021C000000831200100B240224441018280011107
:1021D00022CE0010232604FE232404FEB71702405B
:1021E0009443B71702404167558F98C3B717024011
:1021F0009843B7070200F98F2324F4FE8327C4FE17
:1022000085072326F4FE832784FE99E70327C4FE6F
:1022100093070050E31CF7FCB71702409843B70739
:102220000200F98F89C785472324F4FE19A02324CF
:1022300004FE032784FE85476318F70EB727024084
:102240009843B72702401367070198C3B727024096
:102250009843B7270240719B98C3B7270240984321
:10226000B72702401367270098C337170240B717F4
:1022700002405843D8C337170240B71702405843AB
:10228000D8C337170240B71702405843D8C3B7170F
:102290000240D443B71702403707C1FF7D17758F3F
:1022A000D8C3B7F7FF1F9387C77098439167F98F1B
:1022B00099EBB7170240D443B717024037073D00E8
:1022C000558FD8C309A8B7170240D443B7170240A7
:1022D0004167558FD8C3B71702409443B7170240E0
:1022E00037070001558F98C30100B7170240984384
:1022F000B7070002F98FF5DBB7170240D843B717CD
:102300000240719BD8C3B7170240D843B7170240A9
:1023100013672700D8C30100B7170240DC4313F747
:10232000C700A147E31AF7FE0100724405618280ED
:10233000797122D60018232EA4FC232604FE232420
:1023400004FEB7070140938707409C430327C4FD61
:10235000F98F2324F4FEB707014093870740D84B39
:102360008327C4FDF98F81CB832784FE89C78547E6
:102370002326F4FE19A0232604FE8327C4FE3E85EF
:10238000325445618280011122CE00102326A4FE22
:10239000B7070140938707400327C4FED8CB01004D
:1023A000724405618280397122DE80002326A4FCFC
:1023B0002324B4FC232604FE232004FE232404FE4D
:1023C000232E04FC232204FE232C04FC832784FCFC
:1023D0009C47BD8B2326F4FE832784FC9C47C18B3E
:1023E00089CB832784FCDC430327C4FED98F2326B3
:1023F000F4FE832784FC83D7070093F7F70FF1CF10
:102400008327C4FC9C432322F4FE232404FE65A8F6
:10241000832784FE0547B317F700232EF4FC832798
:1024200084FC83D707003E878327C4FDF98F2320D0
:10243000F4FE032704FE8327C4FD6311F7088327F6
:1024400084FE8A07232EF4FC8327C4FD3D47B3177F
:10245000F700232CF4FC832784FD93C7F7FF0327A1
:1024600044FEF98F2322F4FE8327C4FD0327C4FE14
:10247000B317F700032744FED98F2322F4FE8327E6
:1024800084FC984793078002631BF700832784FE30
:1024900005473317F7008327C4FCD8CB05A0832753
:1024A00084FC984793078004631AF700832784FE0F
:1024B00005473317F7008327C4FC98CB832784FE96
:1024C00085072324F4FE032784FE9D47E3F2E7F407
:1024D0008327C4FC032744FE98C3832784FC03D7C7
:1024E00007009307F00F63F1E70E8327C4FCDC437A
:1024F0002322F4FE232404FE75A8832784FEA1076B
:102500000547B317F700232EF4FC832784FC83D7F9
:1025100007003E878327C4FDF98F2320F4FE03279D
:1025200004FE8327C4FD6312F708832784FE8A070D
:10253000232EF4FC8327C4FD3D47B317F700232C5B
:10254000F4FC832784FD93C7F7FF032744FEF98F2C
:102550002322F4FE8327C4FD0327C4FEB317F7002C
:10256000032744FED98F2322F4FE832784FC984757
:1025700093078002631BF700832784FEA1070547AA
:102580003317F7008327C4FCD8CB832784FC9847F4
:1025900093078004631BF700832784FEA107054788
:1025A0003317F7008327C4FC98CB832784FE850765
:1025B0002324F4FE032784FE9D47E3F0E7F48327FA
:1025C000C4FC032744FED8C30100725421618280F9
:1025D000797122D60018232EA4FCAE87231DF4FCAB
:1025E000A30704FE8327C4FD98478357A4FDF98FF2
:1025F00089C78547A307F4FE19A0A30704FE8347F4
:10260000F4FE3E85325445618280011122CE0010D5
:102610002326A4FEAE872315F4FE0357A4FE8327CA
:10262000C4FE98CB0100724405618280011122CE64
:1026300000102326A4FEAE872315F4FE0357A4FE44
:102640008327C4FED8CB010072440561828001114A
:1026500022CE00102326A4FEAE872322C4FE23151B
:10266000F4FE832744FE99C70357A4FE8327C4FEC4
:1026700098CB31A00357A4FE8327C4FED8CB01001A
:10268000724405618280797122D60018232EA4FC41
:10269000232CB4FC232404FE232204FE232604FE60
:1026A000232004FE8327C4FD63D80700B707014039
:1026B000DC4F2326F4FE31A0B7070140DC4323267C
:1026C000F4FE8327C4FDC183BD8B2320F4FE0327C2
:1026D000C4FDC167FD17F98F2324F4FE0327C4FD51
:1026E000B70730007D8FB70730006315F702032767
:1026F000C4FEB70700F1FD17F98F2326F4FEB707D4
:102700000140D443B7070140370700F17D17758FAB
:10271000D8C3ADA00327C4FDB7071000F98F8DCB38
:10272000832704FE0D47B317F7002322F4FE832707
:1027300044FE93C7F7FF0327C4FEF98F2326F4FE58
:102740000327C4FEB707000FD98F2326F4FE3DA050
:102750008327C4FDD5839207032784FEB317F700B0
:1027600093C7F7FF0327C4FEF98F2326F4FE032740
:10277000C4FEB707000FD98F2326F4FE832784FDFC
:1027800091CF8327C4FDD5839207032784FEB31717
:10279000F7000327C4FED98F2326F4FE8327C4FD48
:1027A00063D80700B70701400327C4FED8CF31A084
:1027B000B70701400327C4FED8C301003254456166
:1027C0008280397122DE80002326A4FC232204FEAD
:1027D000232604FE232004FE232E04FC232404FECF
:1027E000B7170240DC43B18B2322F4FE032744FEDB
:1027F00091476303F702032744FEA1476306F702EC
:10280000832744FE639907148327C4FC37177A0093
:102810001307072098C389AA8327C4FC37177A00B7
:102820001307072098C389A2B7170240D843B707F8
:102830003C00F98F2326F4FEB7170240D843C16746
:10284000F98F2320F4FE8327C4FEC983890723263A
:10285000F4FEB7F7FF1F9387C77098439167F98F0E
:1028600091EB0327C4FEC5476319F704C947232624
:10287000F4FEA1A00327C4FE89476315F700C947EA
:102880002326F4FE0327C4FEBD476318F700B547AF
:102890002326F4FE85472324F4FE0327C4FEC14704
:1028A0006315F700BD472326F4FE0327C4FEC54782
:1028B0006315F700C1472326F4FE832704FEA1E336
:1028C000B7470240938707809C43C18B89CF03277A
:1028D000C4FEB7177A00938707203307F7028327D0
:1028E000C4FC98C399A80327C4FEB7173D0093877B
:1028F00007903307F7028327C4FC98C33DA8B71796
:102900000240D843B7070200F98F89CF0327C4FEDE
:10291000B7173D00938707903307F7028327C4FC5E
:1029200098C321A80327C4FEB7177A00938707200E
:102930003307F7028327C4FC98C3032784FE854727
:102940006313F7028327C4FC9C4313D71700832724
:10295000C4FC98C309A88327C4FC37177A0013075F
:10296000072098C311A00100B7170240DC4393F77A
:10297000070F2322F4FE832744FE91832322F4FED3
:10298000B707002013870704832744FEBA9783C73D
:10299000070093F7F70F232EF4FC8327C4FC98431A
:1029A0008327C4FD3357F7008327C4FCD8C3B71768
:1029B0000240DC4393F707702322F4FE832744FE92
:1029C000A1832322F4FEB70700201387070483277F
:1029D00044FEBA9783C7070093F7F70F232EF4FC42
:1029E0008327C4FCD8438327C4FD3357F7008327CC
:1029F000C4FC98C7B7170240D843916793870780F4
:102A0000F98F2322F4FE832744FEAD832322F4FEB4
:102A1000B707002013870704832744FEBA9783C7AC
:102A2000070093F7F70F232EF4FC8327C4FCD84349
:102A30008327C4FD3357F7008327C4FCD8C7B717D3
:102A40000240D843B167F98F2322F4FE832744FE66
:102A5000B9832322F4FEB7070020138707268327B4
:102A600044FEBA9783C7070093F7F70F232EF4FCB1
:102A70008327C4FCD8478327C4FD3357F702832735
:102A8000C4FC98CB0100725421618280011122CED6
:102A900000102326A4FE2324B4FE832784FE99CBB2
:102AA000B7170240944FB71702400327C4FE558F53
:102AB00098CF21A8B7170240944F8327C4FE13C7AD
:102AC000F7FFB7170240758F98CF01007244056178
:102AD0008280011122CE00102326A4FE2324B4FEFE
:102AE000832784FE99CBB7170240D44FB717024013
:102AF0000327C4FE558FD8CF21A8B7170240D44F63
:102B00008327C4FE13C7F7FFB7170240758FD8CFCE
:102B10000100724405618280011122CE001023263B
:102B2000A4FE2324B4FE832784FE99CBB71702406A
:102B3000D447B71702400327C4FE558FD8C721A832
:102B4000B7170240D4478327C4FE13C7F7FFB71750
:102B50000240758FD8C7010072440561828001115F
:102B600022CE00102326A4FE2324B4FE832784FE55
:102B700099CBB7170240944BB71702400327C4FE06
:102B8000558F98CB21A8B7170240944B8327C4FEDA
:102B900013C7F7FFB7170240758F98CB0100724437
:102BA00005618280011106CE22CC00102326A4FEEE
:102BB0000327C4FEB73701406319F7008545056553
:102BC000A13F81450565893F35A80327C4FEB74766
:102BD0000040938707806319F700854511654137E9
:102BE00081451165AD3F39A80327C4FEB7470040B2
:102BF000938707C06318F700854521658D378145A8
:102C00002165B13F0100F240624405618280797123
:102C100022D60018232EA4FC232CB4FC231704FE78
:102C20008327C4FD83D707002317F4FE0357E4FE70
:102C30008D6793870704F98F2317F4FE832784FD9C
:102C400003D70700832784FD83D72700D98F1397E5
:102C500007014183832784FD83D74700D98F1397CA
:102C600007014183832784FD83D76700D98F13979A
:102C700007014183832784FD83D78700D98F13976A
:102C800007014183832784FD83D7A700D98F13973A
:102C900007014183832784FD83D7C700D98F13970A
:102CA00007014183832784FD83D7E700D98F1397DA
:102CB000070141838357E4FED98F2317F4FE83274E
:102CC000C4FD0357E4FE2390E7008327C4FD83D7A8
:102CD000C701139707014183FD779387F77FF98F2A
:102CE0001397070141838327C4FD239EE7008327B1
:102CF00084FD03D707018327C4FD2398E700010063
:102D0000325445618280011122CE00102326A4FE98
:102D10002324B4FE832784FE8DC38327C4FE83D778
:102D20000700C207C18393E7070413970701418394
:102D30008327C4FE2390E70005A08327C4FE83D722
:102D40000700C207C18393F7F7FB1397070141837D
:102D50008327C4FE2390E70001007244056182804E
:102D6000797122D60018232EA4FCAE87231DF4FC13
:102D7000232604FE231504FE231404FE8327C4FD2A
:102D800083D707011397070141838357A4FDF98F68
:102D90002315F4FE8327C4FD83D7C70013970701CB
:102DA00041838357A4FDF98F2314F4FE8357A4FEB7
:102DB00081CB835784FE89C785472326F4FE19A05B
:102DC000232604FE8327C4FE3E853254456182805B
:102DD000011122CE00102326A4FEAE872315F4FE97
:102DE0008357A4FE93C7F7FF1397070141838327F7
:102DF000C4FE2398E70001007244056182805D7182
:102E000086C6A2C48008232EA4FA232CB4FA232653
:102E100004FE232404FE232204FE232004FE232E8A
:102E200004FC8327C4FB232EF4FC8327C4FB83D735
:102E30000701C207C1832326F4FE0327C4FEB5673A
:102E4000FD17F98F2326F4FE832784FB83D76700C1
:102E50003E878327C4FED98F2326F4FE8327C4FE32
:102E60001397070141838327C4FB2398E700832737
:102E7000C4FB83D7C700C207C1832326F4FE032700
:102E8000C4FEBD679387379FF98F2326F4FE8327FF
:102E900084FB03D74700832784FB83D78700D98F20
:102EA000139707014183832784FB83D7A700D98F1A
:102EB000C207C1833E878327C4FED98F2326F4FE31
:102EC0008327C4FE1397070141838327C4FB2396FE
:102ED000E7008327C4FB83D74701C207C1832326AA
:102EE000F4FE0327C4FEC1679387F7CFF98F23262B
:102EF000F4FE832784FB83D7C7003E878327C4FE65
:102F0000D98F2326F4FE8327C4FE1397070141833C
:102F10008327C4FB239AE700930784FC3E85EFF0E8
:102F20005F8A0327C4FDB747014093870780631773
:102F3000F700832744FD2324F4FE29A0832704FD02
:102F40002324F4FE8327C4FB83D7C700C207C183B1
:102F5000C207C18763D20702032784FEBA878607A8
:102F6000BA978E073E97832784FB9C438607B35707
:102F7000F7022322F4FE05A0032784FEBA87860702
:102F8000BA978E073E97832784FB9C438A07B357E3
:102F9000F7022322F4FE032744FE93074006B357AB
:102FA000F70292072326F4FE8327C4FE13D74700B7
:102FB00093074006B307F702032744FEB307F74021
:102FC0002320F4FE8327C4FB83D7C700C207C18335
:102FD000C207C18763D20702832704FE8E071387C7
:102FE000270393074006B357F7029D8B0327C4FEC0
:102FF000D98F2326F4FE05A0832704FE92071387AA
:10300000270393074006B357F702BD8B0327C4FE7F
:10301000D98F2326F4FE8327C4FE1397070141832B
:103020008327C4FB2394E7000100B6402644616176
:103030008280011122CE00102326A4FE2324B4FE98
:10304000832784FE95C38327C4FE83D7C7001397C5
:10305000070141838967D98F13970701418383272C
:10306000C4FE2396E70015A08327C4FE83D7C700BC
:10307000139707014183F977FD17F98F139707011C
:1030800041838327C4FE2396E70001007244056153
:103090008280797122D60018232EA4FCAE87232AC1
:1030A000C4FC231DF4FC232404FE232204FE23205D
:1030B00004FE232604FE8327C4FD2326F4FE835743
:1030C000A4FD93F7F70F958393F7F70F2324F4FEEE
:1030D0008357A4FDFD8B2322F4FE832744FE05477E
:1030E000B317F7002320F4FE032784FE85476318F7
:1030F000F7008327C4FEB1072326F4FE0DA00327A3
:1031000084FE89476318F7008327C4FEC10723267E
:10311000F4FE31A08327C4FED1072326F4FE8327C3
:1031200044FD99CB8327C4FE94438327C4FE032721
:1031300004FE558F98C321A88327C4FE9443832798
:1031400004FE13C7F7FF8327C4FE758F98C30100E1
:10315000325445618280011122CE00102326A4FE44
:10316000AE872315F4FE8357A4FE93F7F71F13973A
:10317000070141838327C4FE2392E70001007244C4
:1031800005618280797122D60018232EA4FCAE87B7
:10319000231DF4FC232604FE8327C4FD83D70700E8
:1031A0001397070141838357A4FDF98FC207C18399
:1031B00089C785472326F4FE19A0232604FE83270A
:1031C000C4FE3E85325445618280797122D6001852
:1031D000232EA4FCAE87231DF4FC232204FE232609
:1031E00004FE232004FE232404FE8357A4FD93F74A
:1031F000F70F958393F7F70F2320F4FE8357A4FD71
:10320000FD8B2326F4FE8327C4FE0547B317F70082
:103210002326F4FE032704FE8547631FF700832758
:10322000C4FD83D7C700C207C1833E878327C4FE7E
:10323000F98F2326F4FE3DA8032704FE8947631F68
:10324000F7008327C4FD83D70701C207C1833E87E8
:103250008327C4FEF98F2326F4FE29A88327C4FD03
:1032600083D74701C207C1833E878327C4FEF98FF6
:103270002326F4FE8357A4FDA183C207C183232222
:10328000F4FE832744FE0547B317F7002322F4FE1C
:103290008327C4FD83D70700C207C1833E878327E6
:1032A00044FEF98F2322F4FE8327C4FE81CB8327BB
:1032B00044FE89C785472324F4FE19A0232404FE75
:1032C000832784FE3E85325445618280797122D6FF
:1032D0000018232EA4FCAE87231DF4FC231704FE44
:1032E000231604FE8357A4FDA1832317F4FE8357FE
:1032F000E4FE0547B317F7002316F4FE8357C4FE18
:1033000093C7F7FF1397070141838327C4FD2390D9
:10331000E7000100325445618280011122CE001085
:10332000AA87A307F4FEB70700500347F4FE42073D
:103330004183239AE702B707005083C7670313F757
:10334000F70FB7070050719B1377F70F238BE70236
:103350000100724405618280011122CE0010AA870B
:10336000A307F4FEB70700500347F4FE420741836A
:10337000239CE702B707005083C7A70313F7F70F93
:10338000B7070050719B1377F70F238DE7020100F9
:10339000724405618280797106D622D40018AA870A
:1033A000A30FF4FCA30704FE15A803A7C18B834752
:1033B000F4FEBA9703C7070083A6C18B8347F4FEC8
:1033C00093870704B6971347F7FF1377F70F238008
:1033D000E7008347F4FE8507A307F4FE0347F4FEE6
:1033E0008347F4FDE363F7FC8347F4FD3E853537FF
:1033F0000100B250225445618280797106D622D4F0
:103400000018AA87A30FF4FCA30704FE15A803A7BE
:10341000018C8347F4FEBA9703C7070083A6018C8B
:103420008347F4FE93870704B6971347F7FF137794
:10343000F70F2380E7008347F4FE8507A307F4FE18
:103440000347F4FE8347F4FDE363F7FC8347F4FD91
:103450003E8519370100B250225445618280011126
:1034600022CE0010230704FEB707005083C7670071
:10347000A306F4FE8347D4FE898BE385073CB70798
:10348000005083C7770093F7F70F93F7070341477F
:10349000E38FE73841476346F700E38207226F0076
:1034A000503913070002E38AE70413070003E3928D
:1034B000E738B707005019472389E702B7070050DC
:1034C0001147A389E70283A7818B03C7670083C7DE
:1034D0007700A207D98F1397070141832397E18CC7
:1034E00083A7818B03C717002386E18C83A7818B79
:1034F00083C707002306F4FEA30704FE230704FE88
:1035000083A7818B83C7070093F70706638D071294
:1035100083C7C18C93F7F70F93F70702C5C783C71B
:10352000C18C93F7F70F13071002638BE7001307A3
:103530002002638BE708130700026389E708BDA830
:10354000370700201307872623A2E18C9D47A30796
:10355000F4FE83D7E18C1397070141839D4763E90C
:10356000E70083D7E18CC207C18393F7F70F11A05F
:10357000A147A307F4FE03A7818B83A7418C834651
:10358000F4FE3686BE853A85EF40402B83D7E18C2A
:103590001397070141838347F4FEC207C183B30732
:1035A000F7401397070141832397E18C03A7418CD0
:1035B0008347F4FE3E9723A2E18C11A8FD57230711
:1035C000F4FE31A0010021A0010011A00100034779
:1035D000E4FE9307F00F6305F7688347F4FE139743
:1035E0000701418383D7E18CC207C1836379F70068
:1035F0008347F4FE1397070141832397E18C83D718
:10360000818C1397070141839D4763E9E70083D7C6
:10361000818CC207C18393F7F70F11A0A147A307BD
:10362000F4FE83A7418C0347F4FE3A86BE851385DA
:10363000018BEF40A02003A7418C8347F4FE3E9707
:1036400023A2E18C31AD83C7C18C93F7F70F2D47CF
:10365000636DF75E13972700AD67938747E8BA97C6
:103660009C43828783A7818B03C7270083C73700CA
:10367000A207D98FC207C183A183C207C1831307E1
:1036800020026367F71213972700AD67938747EB14
:10369000BA979C4382872D67130787DD23A2E18CAD
:1036A000C947A307F4FE09AA2D671307C7DE23A2A3
:1036B000E18C93073004A307F4FEFDA883A7818B58
:1036C00003C7270083C73700A207D98FC207C1836A
:1036D00093F7F70F05476386E70205476344F70052
:1036E00089CB99A809476387E7020D47638DE702F5
:1036F000A1A01387018223A2E18C9147A307F4FEC6
:1037000081A02D67130747E423A2E18CB947A307E3
:10371000F4FE3DA02D67130747E523A2E18CB147D6
:10372000A307F4FE31A82D67130707E623A2E18C57
:10373000D947A307F4FE29A0FD572307F4FE010093
:10374000A5A82D67130707E323A2E18CD147A307A0
:10375000F4FE9DA02D67130787E723A2E18CA947FC
:10376000A307F4FE91A8B707002083C7472693F765
:10377000F70F9DE713061004AD679385E7DEB707E3
:10378000002013852705EF40600B37070020130743
:10379000070523A2E18C93073004A307F4FE29A8B0
:1037A000FD572307F4FE09A8FD572307F4FE29A0BF
:1037B000FD572307F4FE01008347F4FE139707012A
:1037C000418383D7E18CC207C1836379F7008347C4
:1037D000F4FE1397070141832397E18C83D7E18C93
:1037E0001397070141839D4763E9E70083D7E18C85
:1037F000C207C18393F7F70F11A0A147A307F4FEF7
:1038000003A7818B83A7418C8346F4FE3686BE8551
:103810003A85EF40A00203A7418C8347F4FE3E9710
:1038200023A2E18C35A983A7818B03C7270083C717
:103830003700A207D98FC207C18393F7F70F1397F9
:10384000070141832397E18C21A983A7818B03C7BB
:10385000B18C1377F70F2380E70083D7E18C1397A0
:1038600007014183854763F6E73E05472397E18CCF
:10387000CDA683A7818B03C7270083C73700A20784
:10388000D98FC207C18313F7F70FA385E18CC9AEA7
:1038900083A7818B83C7070013F7F7018947631F4D
:1038A000F70C83A7818B03C7470083C75700A20784
:1038B000D98FC207C18393F7F70F09476388E704DD
:1038C00009476346F70005476387E7085DA01307CC
:1038D0001008638BE70413072008639CE708B70709
:1038E000005083C7A70393F7F70FE207E187E19B37
:1038F000E207E18793E72700139787016187B707FE
:1039000000501377F70F238DE702ADA8B7070050DB
:1039100083C7B70313F7F70FB7070050619B1377FF
:10392000F70FA38DE702B9A8B707005083C7670355
:1039300093F7F70FE207E187E19BE207E18793E75F
:103940002700139787016187B70700501377F70F98
:10395000238BE70205A8B707005083C7770313F747
:10396000F70FB7070050619B1377F70FA38BE702A0
:1039700011A8FD572307F4FE010029A0FD572307D6
:10398000F4FEF9ACF1AC9387018B83C70700FD8B84
:10399000A1E39387018B03C7270083C73700A207E2
:1039A000D98F1397070141838547631FF70093075A
:1039B000000A93F7070289C705472385E18C4DA4C8
:1039C000FD572307F4FE69ACFD572307F4FE49AC0D
:1039D0009387018B83C7070013F7F7018947631C9F
:1039E000F7109387018B03C7270083C73700A2070F
:1039F000D98FC207C183E5EF9387018B03C74700C7
:103A000083C75700A207D98FC207C18393F7F70F67
:103A100009476387E70409476346F7000547638D55
:103A2000E708C9A0130710086382E70613072008F8
:103A3000639AE70AB707005083C7A70393F7F70F06
:103A400037070050F19B93F7F70F230DF702370765
:103A5000005093E7370093F7F70F230DF70245A0C7
:103A6000B707005083C7B70393F7F70F3707005026
:103A7000F19B93F7F70FA30DF7023707005093E779
:103A8000370093F7F70FA30DF70295A8B70700507B
:103A900083C7670393F7F70F37070050F19B93F73E
:103AA000F70F230BF7023707005093E7370093F720
:103AB000F70F230BF702A1A0B707005083C77703C6
:103AC00093F7F70F37070050F19B93F7F70FA30B0E
:103AD000F7023707005093E7370093F7F70FA30B70
:103AE000F70231A8FD572307F4FE010009A8FD578E
:103AF0002307F4FEB5A2FD572307F4FE95A28DA27D
:103B000083A7818B2380070083D7E18C139707015C
:103B10004183854763F1E71405472397E18C25AA84
:103B20002388018A83D7818C1397070141838547B6
:103B300063F5E71205472394E18C05A22388018AE7
:103B40009387018BA38007009387018B03C74700EE
:103B500083C75700A207D98F1397070141839307A3
:103B600010086311F702B707005083C7670393F784
:103B7000F70F13F737008D47631DF70A05472388B2
:103B8000E18A45A89387018B03C7470083C7570085
:103B9000A207D98F13970701418385476311F70265
:103BA000B707005083C7770393F7F70F13F7370072
:103BB0008D476310F70805472388E18A9DA89387FE
:103BC000018B03C7470083C75700A207D98F1397FC
:103BD00007014183930720086311F702B7070050DC
:103BE00083C7A70393F7F70F13F737008D476312C7
:103BF000F70405472388E18A2DA89387018B03C723
:103C0000470083C75700A207D98F13970701418345
:103C100089476310F702B707005083C7B70393F7CC
:103C2000F70F13F737008D476315F7000547238813
:103C3000E18A83D7818C139707014183894763F019
:103C4000E70209472394E18C19A8FD572307F4FEE6
:103C500001A8010031A0010021A0010011A0010074
:103C60000347E4FE9307F00F631DF700B70700500A
:103C70001D472389E702B70700501D47A389E702C4
:103C800065AE8307C4FE63D5070483D7E18C139721
:103C900007014183A14763E9E70083D7E18CC207AD
:103CA000C18393F7F70F11A0A147A307F4FE83D7B1
:103CB000E18C1397070141838347F4FEC207C18358
:103CC000B307F7401397070141832397E18C19A0AD
:103CD000A30704FEB70700500347F4FE42074183E1
:103CE0002398E702B707005011472389E702B70777
:103CF00000501147A389E70281A6B707005083C788
:103D0000770093F7F70F93F7F70313071002638514
:103D1000E71213072002638DE71413070002639E66
:103D2000E71883C7C18C93F7F70F15476380E70A3D
:103D300019476394E70E83D7E18C139707014183FA
:103D40009D4763E9E70083D7E18CC207C18393F7FE
:103D5000F70F11A0A147A307F4FE03A7818B83A748
:103D6000418C8346F4FE3686BE853A85EF30102DB1
:103D700083D7E18C1397070141838347F4FEC20781
:103D8000C183B307F7401397070141832397E18C61
:103D900003A7418C8347F4FE3E9723A2E18CB7072B
:103DA00000500347F4FE420741832398E702B70718
:103DB000005083C7270313F7F70FB70700501347C7
:103DC00047001377F70F2389E702B5A0B707005024
:103DD00083C7370093F7F70FE207E18793F707F8F8
:103DE00013978701618783D7E18CC207C183E207FC
:103DF000E187D98F139787016187B7070050137741
:103E0000F70FA381E700B707005009472389E702AE
:103E1000B7070050A389070239A8B70700502398B5
:103E20000702B707005009472389E702B707005088
:103E3000A3890702010059A0B707005083C7670391
:103E400013F7F70FB7070050719B1377F70F238B0A
:103E5000E702B707005083C7670313F7F70FB707E9
:103E60000050134747001377F70F238BE702B9A0E1
:103E7000B707005083C7A70313F7F70FB707005022
:103E8000134747001377F70F238DE702B70700505A
:103E900083C7A70393F7F70FE207E187F19BE207D8
:103EA000E18793E72700139787016187B7070050E1
:103EB0001377F70F238DE70211A00100B5AAB7070A
:103EC000005083C7770093F7F70F93F7F703054781
:103ED0006387E70C09476386E710639E071483C76F
:103EE000C18C93F7F70F3E87930700026313F70A1D
:103EF00083A7818B83C7070085E383A7818B83C753
:103F0000170099EB83A7818B83C7270091E783A7CD
:103F1000818B83C737009DCF83A7818B83C73700F1
:103F20001397870183A7818B83C72700C2075D8F03
:103F300083A7818B83C71700A207D98F03A7818B23
:103F400003470700D98FBE85AD67138507D6EF40BD
:103F5000A0393DA883A7818B83C76700BE85AD6765
:103F6000138507D7EF40403883A7818B83C747006D
:103F7000BE85AD67138507D8EF40003783A7818BD7
:103F800083C75700BE85AD67138507D9EF40C0359D
:103F90000100B70700509C47A307F4FE41A8B707EC
:103FA000005083C7770093F7F70F93F70704A5CF67
:103FB000B707005083C7770313F7F70FB707005011
:103FC000134747001377F70FA38BE702B70700509B
:103FD0009C47A307F4FE8347F4FE3E85EFF0AFBB9A
:103FE00099A0B707005083C7770093F7F70F93F7AF
:103FF000070485CFB707005083C7B70313F7F70F40
:10400000B7070050134747001377F70FA38DE70258
:10401000B70700509C47A307F4FE8347F4FE3E8594
:10402000EFF0AFBD19A0010039A0010029A00100E7
:1040300021A0010011A00100B70700500947238308
:10404000E70079A08347D4FE858BB9CFB70700502E
:10405000A3810700B7070050A3890702B7070050E4
:10406000A38B0702B7070050A38D0702B7070050C4
:1040700009472389E702B70700500947238BE70266
:10408000B70700500947238DE702B707005083C7E1
:10409000670013F7F70FB707005013671700137780
:1040A000F70F2383E7002DA08347D4FE918B99CB94
:1040B000B707005083C75700B70700501147238345
:1040C000E70039A0B70700500347D4FE2383E70079
:1040D00001007244056173002030011122CE0010EE
:1040E0002326A4FE8327C4FEFD8B0547B316F700E5
:1040F00037E700E08327C4FE9583938707048A0788
:10410000BA9794C30100724405618280011122CEE6
:1041100000102326A4FE8327C4FEFD8B0547B3169B
:10412000F70037E700E08327C4FE958393870706EF
:104130008A07BA9794C30100724405618280011115
:1041400006CE22CC00106145A52CAA872326F4FEBA
:104150008327C4FE81C76145EFF05FFB8327C4FE60
:104160003E85F240624405618280011106CE22CC78
:1041700000102326A4FE8327C4FE81C76145EFF00B
:10418000DFF50100F240624405618280011106CE34
:1041900022CC00102326A4FE0325C4FE452A0100DC
:1041A000F240624405618280011126CC4ACA4EC8A1
:1041B00052C606CE2A8A2E89B289B684EFF03FF81D
:1041C000B7170140414723AAE780630A0A02930711
:1041D000FAFFC20793061900C183CA85BE96373716
:1041E000014083C705002316F7008357870093F724
:1041F0000708E5FF8357C7008505E394D5FE63856F
:104200000902A686338634013737014083C706008A
:104210002316F7008357870093F70708E5FF8357B6
:10422000C7008506E314D6FEB7170140414723A80F
:10423000E780EFF09FF3F240E2445249C249324A2C
:10424000014505618280011126CC4ACA4EC852C67A
:1042500006CE2A8A2E89B289B684EFF05FEEB717B0
:104260000140414723AAE780630C0A029307FAFF43
:10427000C20793061900C183CA85BE96373701402D
:1042800083C705002316F7008357870093F70708B5
:10429000E5FF8357C70085052380F400E392D5FE30
:1042A00063850902A6863386340137370140231619
:1042B00007008357870093F70708E5FF8357C70078
:1042C0008506A38FF6FEE314D6FEB71701404147DB
:1042D00023A8E780EFF07FE9F240E2445249C24967
:1042E000324A014505618280011122CE0010232649
:1042F000A4FE8327C4FEFD8B0547B316F70037E7FE
:1043000000E08327C4FE9583938707048A07BA9742
:1043100094C30100724405618280011122CE001015
:104320002326A4FE8327C4FEFD8B0547B316F700A2
:1043300037E700E08327C4FE9583938707068A0743
:10434000BA9794C30100724405618280797122D6C4
:104350000018232EA4FC37F700E0544337F700E0A1
:10436000F99A54C303D7018DBA860327C4FD3307D6
:10437000D7022326E4FE37F700E08326C4FEB68783
:1043800001481CCB232A0701B7F700E09843B7F791
:1043900000E01367170398C30100B7F700E0DC43A0
:1043A00013F717008547E31AF7FEB7F700E09843C5
:1043B000B7F700E0799B98C30100325445618280D1
:1043C000797122D60018232EA4FC232604FE232470
:1043D00004FEB707014093870740DC430327C4FD71
:1043E000F98F2324F4FE832784FE89C7854723267B
:1043F000F4FE19A0232604FE8327C4FE3E85325412
:1044000045618280797122D60018AA87231FF4FCA7
:10441000231704FEB737014083D707002317F4FEA4
:104420008357E4FE93F777FC2317F4FE0357E4FE6B
:104430008357E4FDD98F2317F4FEB73701400357A4
:10444000E4FE2390E700010032544561828041116F
:1044500006C622C400084145EFF0DFFA0100B24071
:10446000224441018280397106DE22DC800023264D
:10447000A4FCAE872315F4FC0325C4FCEFE08FF207
:1044800085450545EFE08FE085450565EFE00FE0E8
:10449000231E04FC93074010231FF4FC231004FE8A
:1044A000231104FE231204FE8357A4FC2314F4FEFC
:1044B000930700202313F4FE231504FE9D472316C3
:1044C000F4FE9307C4FDBE850325C4FCEFE02FF482
:1044D000C1472318F4FCC147232CF4FC8D47232A41
:1044E000F4FC930704FDBE85B717014013850780D0
:1044F000EFD07FEB930700022318F4FCE147232C55
:10450000F4FC8D47232AF4FC930704FDBE85B717FE
:10451000014013850780EFD01FE993070008231897
:10452000F4FCE147232CF4FC8D47232AF4FC930789
:1045300004FDBE85B717014013850780EFD0BFE6A5
:10454000930700042318F4FC9147232CF4FC8D47B7
:10455000232AF4FC930704FDBE85B7170140138599
:104560000780EFD05FE485450325C4FCEFE0AFF999
:10457000C145B717014013850780EFE00F8901009F
:10458000F250625421618280011106CE22CC0010CB
:10459000930700102312F4FEC1472326F4FE8D4733
:1045A0002324F4FE930744FEBE85B717014013850C
:1045B0000740EFD05FDF93050010B7170140138568
:1045C0000740EFE0AF86930700102312F4FE232686
:1045D00004FE8D472324F4FE930744FEBE85B717DF
:1045E000014013850740EFD01FDC0945EFF01FD6CF
:1045F0000100F240624405618280797106D622D4BE
:104600000018232EA4FC6145EFF09FDB2326A4FEB7
:104610008327C4FE81C76145EFF03FD00327C4FD67
:1046200023AAE18C8327C4FE81C76145EFF0DFCB6D
:104630000100B250225445618280411106C622C455
:10464000000885451145EFE06FC485452145EFE041
:10465000EFC385454145EFE06FC385451305000273
:10466000EFE0CFC20100B240224441018280797163
:1046700006D622D426D20018AA87231FF4FC2317BB
:1046800004FE232404FE83A70181A388070083A7D7
:104690000181238D070083A70181239C070083A745
:1046A000018123A4070283A7018123A6070283A710
:1046B000018123A8070283A7018123AA070285227B
:1046C0002A87B707CADE938707136304F700FD57ED
:1046D00089A2EF1020290145EF00505F1146814566
:1046E00013054002EF00B01A7945EF00502BAA875E
:1046F0002317F4FE8357E4FEA18313970701418338
:1047000083A701811377F70FA384E7001145EF001A
:1047100010292324A4FE832784FE93F7F70F9DC35B
:104720000946C9451305D002EF00701683A7018121
:1047300083D6870183A701810567558F420741838F
:10474000239CE70083A401811945EF005025AA8727
:104750009CC083A401811D45EF007024AA87DCC0A2
:104760008357E4FE13F7F70F83A701817D8B13773F
:10477000F70F2388E70083A7018183C7070191E72B
:1047800083A7018141472388E70083A7018183C76D
:1047900007013E85EF10A0228357E4FD858B95C36A
:1047A000EF00302D83A7018183D6870183A7018184
:1047B000056713070780558F42074183239CE70055
:1047C0003DA0954513056003EF00D002AA8723138F
:1047D000F4FE835764FE93F7F7DF2313F4FE835749
:1047E00064FE3E86954513056003EF00300E0545D7
:1047F000EF00D04D0146A9451305C002EF00300976
:1048000083A4018181451145EF008077AA87DCC828
:1048100081473E85B25022549254456182804111B5
:1048200006C622C4000881450145EF006075AA87CD
:104830003E85B240224441018280797106D622D45D
:104840000018232EA4FCA30704FE230704FE8327DD
:10485000C4FD83C70700A305F4FE8327C4FD83C7F7
:1048600057003E87AD670607938787FDBA9783D7C2
:1048700007002316F4FE8327C4FD83C71700FD1726
:104880002305F4FE0347B4FE91476307F70003478F
:10489000B4FE9D476314F700854711A08147A30428
:1048A000F4FE8327C4FD83C7770085E383A70181D6
:1048B000D44B83A7018137074000558FD8CB83574E
:1048C000C4FE8D832316F4FE19A883A70181D44B5F
:1048D00083A701813707C0FF7D17758FD8CB83A7CA
:1048E00001810327C4FD034787002384E70083A7D2
:1048F0000181D44B83A701813707FDFF7D17758F99
:10490000D8CB83A70181D44B8327C4FD83C78700FD
:10491000C2073E87B70703007D8F83A70181558FAC
:10492000D8CB83A70181DC4B3E8681451145EF0042
:10493000A07F8357C4FE3E868D679385478013050D
:10494000E002EF00A0788347A4FE3E85EF00100D43
:104950000347B4FE93874182BA9783C707003E8717
:10496000AD670A07938747F9BA979C433E869D45F2
:104970001305B002EF00407B0347B4FE93874182EA
:10498000BA9783C707003E879387C182BA9783C7C8
:1049900007003E86AD451305B002EF00406F0347A8
:1049A00094FE93874183BA9783C707003E86AD453F
:1049B00013058002E92D0347B4FE93874182BA971D
:1049C00083C707003E87AD670A079387C7F7BA9783
:1049D0009C433E86B14513058002EF00E0748327B7
:1049E000C4FD83C777003E878327C4FD83C7670064
:1049F000BE86AD670607369706079387C7FABA974C
:104A000083D707003E86894513057002C1250347F9
:104A1000A4FE060793874184BA9783D707003E8692
:104A20009145130570025D258327C4FD83C7770078
:104A300081EB13064006994513057002412D89A0AC
:104A40008327C4FD03C727009147631EF700414633
:104A50009945130570029D2D41469305600213058B
:104A60007002352531A8130600029945130570021E
:104A7000B12D130680029305600213057002012D0B
:104A80000347A4FE8327C4FD83C73700BE86AD67F6
:104A90000A0736970A07938787FBBA979C433E8697
:104AA000A1451305700249258327C4FD83D7A700BC
:104AB00081EB8327C4FD0567130717042395E700DF
:104AC0008327C4FD83D7A7003E8693050002130504
:104AD0007002ED2B83A781833E86B145130530021A
:104AE000A1258347A4FE138781838607BA9783D7BE
:104AF00047003E86914513053002C92B8327C4FD2C
:104B000083C7670095C78327C4FD83C777003E87A7
:104B100093870184BA9783C707003E8681451305B2
:104B20001002B5238D47A307F4FE85472307F4FE43
:104B30008347B4FE13F7F7008347B4FE920793F759
:104B4000F70F5D8F8327C4FD83C71700CA07BE8692
:104B5000B7070C00F58F5D8F8347F4FED207BE8642
:104B6000B7073000F58F5D8F8347E4FEC607BE862A
:104B7000B7070200F58F5D8F8327C4FD83C7470009
:104B8000DA07BE86B707C007F58FD98F0327C4FDA4
:104B9000034757006E07D98F2322F4FE032644FEF5
:104BA00081457D4551238327C4FD03C72700832703
:104BB000C4FD83C71700D98F93F7F70F1397070129
:104BC0008327C4FD83C77700B6075D8F83A7018164
:104BD000D8C783A70181DC473E8681452145A923AB
:104BE00013062004814535455D210100B250225451
:104BF00045618280011106CE22CC0010AA872317BE
:104C0000F4FE8357E4FE3E8689679385478013054B
:104C1000E0026D290100F2406244056182800111C9
:104C200006CE22CC0010AA872317F4FE8357E4FE99
:104C30003E868145614559290100F2406244056183
:104C40008280011106CE22CC0010AA872324B4FE54
:104C500032872317F4FEBA872316F4FE0357C4FEE7
:104C60008357E4FE3E979307004063C0E7028357F3
:104C7000E4FEF9173E878357C4FE832684FE3A86F6
:104C8000BE852545F128814711A0FD573E85F2409C
:104C9000624405618280797106D622D40018AA8701
:104CA0002E87232CC4FC231FF4FCBA87231EF4FC9C
:104CB00083A70181D8478357E4FDD98F0357C4FDEB
:104CC0005A07D98F032784FD3E07D98F2326F4FE88
:104CD0000326C4FE8145214581290100B25022549A
:104CE00045618280011106CE22CC00102326A4FE4D
:104CF000AE8732872315F4FEBA872314F4FE0357D8
:104D0000A4FE835784FE8326C4FE3A86BE854545AD
:104D100095220100F240624405618280011106CEB5
:104D200022CC00102326A4FE8326C4FE154681450E
:104D30005D4589220100F2406244056182800111D3
:104D400006CE22CC00102326A4FE8326C4FE1546E0
:104D50008145554505220100F2406244056182808B
:104D6000797106D622D40018AA872E87232CC4FC7A
:104D7000232AD4FC231FF4FCBA87231EF4FC232629
:104D800004FE8357C4FD8DE78357E4FD13F7F70F47
:104D90008327C4FE938617002326D4FE136707F8E3
:104DA0001377F70F930604FFB697238CE7FE45A011
:104DB0008357E4FD13F7F70F8327C4FE938617008C
:104DC0002326D4FE136707FC1377F70F930604FF1F
:104DD000B697238CE7FE0357C4FD9307F00763E201
:104DE000E7028327C4FE138717002326E4FE035738
:104DF000C4FD1377F70F930604FFB697238CE7FEE5
:104E0000B9A08357C4FD13F7F70F8327C4FE938619
:104E100017002326D4FE136707F81377F70F9306BE
:104E200004FFB697238CE7FE8357C4FD9D839396BA
:104E30000701C1828327C4FE138717002326E4FEDF
:104E400013F7F60F930604FFB697238CE7FE83272C
:104E5000C4FEC207C183130784FE832644FD0326D4
:104E600084FDBA853E85EFF02FB40100B250225484
:104E700045618280797106D622D40018AA872E87D0
:104E8000232CC4FC232AD4FC231FF4FCBA87231E42
:104E9000F4FC232604FE8357C4FD8DE38327C4FE60
:104EA000138717002326E4FE0357E4FD1377F70F5B
:104EB000930604FFB697238CE7FE45A08357E4FDD5
:104EC00013F7F70F8327C4FE938617002326D4FE1B
:104ED000136707041377F70F930604FFB697238C25
:104EE000E7FE0357C4FD9307F00763E2E702832759
:104EF000C4FE138717002326E4FE0357C4FD13776F
:104F0000F70F930604FFB697238CE7FEB9A08357EB
:104F1000C4FD13F7F70F8327C4FE938617002326DB
:104F2000D4FE136707F81377F70F930604FFB697BD
:104F3000238CE7FE8357C4FD9D8393960701C182AE
:104F40008327C4FE138717002326E4FE13F7F60F0A
:104F5000930604FFB697238CE7FE8327C4FEC2079F
:104F6000C183130784FE832644FD032684FDBA858E
:104F70003E85EFF04FAD0100B25022544561828072
:104F8000797106D622D40018232EA4FC232CB4FC5D
:104F9000232604FE8327C4FDC207C183032784FDA3
:104FA00042074183930644FE1146BA853E85EFF0E1
:104FB0007FEC8D472324F4FE1DA08327C4FEA207A7
:104FC000032784FE930604FF3697034747FFBA97EB
:104FD0002326F4FE832784FEFD172324F4FE832773
:104FE00084FEE3DC07FC8327C4FE3E85B2502254D6
:104FF00045618280797106D622D40018232EA4FC44
:10500000232CB4FC231704FE8327C4FDC207C183ED
:10501000032784FD420741839306C4FE0946BA85EF
:105020003E85EFF03FE58347D4FEC207C183A20768
:105030001397070141838347C4FEC207C183BA9710
:105040002317F4FE8357E4FE3E85B2502254456197
:105050008280797106D622D40018232EA4FC232C3A
:10506000B4FC8327C4FDC207C183032784FD420724
:1050700041839306F4FE0546BA853E85EFF09FDF37
:105080008347F4FE3E85B25022544561828001116F
:1050900006CE22CC00102326A4FE2324B4FEB28721
:1050A000A303F4FE8327C4FEC207C183032784FE43
:1050B00042074183930674FE0546BA853E85EFF0AC
:1050C0003FCA0100F240624405618280797106D6D0
:1050D00022D40018232EA4FC232CB4FCB287231B5B
:1050E000F4FC835764FD93F7F70F2306F4FE835710
:1050F00064FDA183C207C18393F7F70FA306F4FEF3
:105100008327C4FDC207C183032784FD420741836F
:105110009306C4FE0946BA853E85EFF07FC40100C0
:10512000B250225445618280797106D622D400188B
:10513000232EA4FC232CB4FC232AC4FC232604FE27
:1051400035A0832744FD13F7F70F8327C4FE93068A
:1051500004FFB697238CE7FE832744FDA183232A0F
:10516000F4FC8327C4FE85072326F4FE0327C4FE30
:105170008D47E3D8E7FC8327C4FDC207C18303271B
:1051800084FD42074183930684FE1146BA853E851D
:10519000EFF01FBD0100B250225445618280797149
:1051A00006D622D40018232EA4FC8327C4FDC207F0
:1051B000C1833E8691451305D002EFF03FF10D46C5
:1051C00099451305D002EFF09FEC01469945130570
:1051D000D002EFF0DFEBA9451305D002EFF05FDA64
:1051E0002326A4FE8327C4FE3E85B2502254456187
:1051F0008280411106C622C4000801468945130574
:10520000C002EFF0DFE8094689451305C002EFF060
:105210001FE80100B240224441018280011106CE04
:1052200022CC00102326A4FE1306D00685679385A2
:1052300067801305E002EFF09FE58327C4FE99CB5A
:10524000130670608967938567801305E002EFF0AD
:10525000FFE719A88567138677608967938567805C
:105260001305E002EFF09FE60100F24062440561A1
:105270008280411106C622C400083945812C21666E
:1052800099451305D002EFF07FE40545EFE01FF0EC
:1052900005452D2C0100B2402244410182807971E4
:1052A00006D622D40018232EA4FC81456945EFF0D0
:1052B0003FCD2326A4FE0327C4FEB707F0FFF98FD6
:1052C0002326F4FE0327C4FDB7071000FD17F98F4E
:1052D0000327C4FED98F2326F4FE0326C4FE81458E
:1052E0006945EFF07FE40100B250225445618280AD
:1052F000011106CE22CC26CA001083A4018181456B
:105300003D45EFF0FFC7AA87DCCCDC4C2324F4FE3C
:10531000032784FE9167F98F6386070E9D671386C6
:1053200007F081453D45EFF03FE083A701812382EF
:10533000070281454145EFF0FFCBAA872313F4FE16
:10534000835764FE93F7F73F2317F4FE83A7018189
:1053500083C7870099E78357E4FE93F7F70723177E
:10536000F4FE83A701810357E4FE2390E70283172D
:1053700064FE63DE070083A7018103C7470283A79A
:105380000181136717001377F70F2382E70283A7C2
:10539000018193872702BE86094681454545EFF086
:1053A0007FAD832784FEA18B85CB83A7018183C733
:1053B000270293F707028DE3214681453D45EFF033
:1053C000BFD683A70181D84F83A701815D9BD8CF2A
:1053D00083A70181238D070083A70181DC5789CB37
:1053E00083A70181D85783A70181F1073E850297E2
:1053F00083A7018183C7170191C705468D453545B0
:10540000EFF0FFC8832784FE93F7070895CF1306B4
:10541000800F81453D45EFF03FD1832784FEA18B6E
:1054200081CB83A7018183C7A70199C3392E21238B
:1054300083A701819C5789CB83A70181985783A7B4
:105440000181F1073E850297032784FEB7072200FA
:10545000F98F8DCB3706020081453D45EFF0DFCC5B
:1054600083A70181238D0700CD24F12183A701812A
:105470009C5B89CB83A70181985B83A70181F1079E
:105480003E850297032784FEB7970524F98F8DCBBD
:105490003796052481453D45EFF01FC983A701815B
:1054A000238D07005D24412983A70181DC5B89CB23
:1054B00083A70181D85B83A70181F1073E8502970D
:1054C0000100F2406244D24405618280797106D6BF
:1054D00022D40018232EA4FC9307C4FEBE860946DE
:1054E000814513056003EFF0FF980327C4FDB9471A
:1054F00063E9E7108327C4FD13972700AD679387FF
:1055000007F4BA979C438287230604FE8347D4FEA0
:10551000F99B93F7F70FA306F4FEEDA08347C4FEB3
:10552000E207E187F19BE207E18793E71700E207D3
:10553000E18793F7F70F2306F4FEE9A08347C4FE43
:10554000E207E187F19BE207E18793E72700E207A3
:10555000E18793F7F70F2306F4FE6DA08347C4FE9F
:10556000E207E18793F737FBE207E18793E78704D8
:10557000E207E18793F7F70F2306F4FE8347D4FE93
:1055800093E707F893F7F70FA306F4FEA5A8834760
:10559000C4FE93F737FB93F7F70F2306F4FE834718
:1055A000D4FE93F7F70793F7F70FA306F4FE99A835
:1055B0008347D4FE93E7270093F7F70FA306F4FE83
:1055C00091A08347D4FEF59B93F7F70FA306F4FE53
:1055D00015A88347C4FEE207E18793F7F7FCE207CB
:1055E000E18793E70702E207E18793F7F70F2306C6
:1055F000F4FE09A885472306F4FE8D47A306F4FEB2
:1056000011A001009307C4FEBE860546814513051F
:105610006003EFF0EFF49307C4FE8507BE860546EE
:10562000854513056003EFF0AFF30100B25022543B
:1056300045618280411106C622C400080145EFF091
:10564000FFE80146914513056003EFF03FA8010014
:10565000B240224441018280011106CE22CC0010CA
:105660002326A4FE0326C4FE85452945EFF0DFABC3
:105670000100F240624405618280797106D622D42D
:105680000018AA87A30FF4FC232604FEA30504FE3A
:10569000231404FE8347F4FD898B8DC3930700F820
:1056A000A305F4FE8347B4FE3E8681453545EFF001
:1056B0001F9E83A701810547238DE7008347F4FDE3
:1056C000858BA5C38347B4FE93E76700A305F4FE6B
:1056D0008347B4FE3E8681453545EFF05F9B8D459F
:1056E0003D45EFF03F91AA872314F4FE835784FED3
:1056F00093F7874081E7232604FE89A093070004DF
:10570000A305F4FE8347B4FE3E8681453545EFF0A0
:105710001F9883A70181238D0700FD572326F4FEE0
:1057200031A88347B4FE93E72700A305F4FE83471F
:10573000B4FE3E8681453545EFF07F958327C4FE54
:105740003E85B250225445618280011106CE22CCA2
:10575000001081453945EFF0BF822326A4FEEFE01B
:105760001F9E2324A4FE014681453945EFF0DF9BAF
:105770001306000481453545EFF07F91B7072824D3
:10578000138687FF81453D45EFF01F9A25200326AC
:10579000C4FE81453945EFF03F99032584FEEFE0D3
:1057A000DF9C83A70181238D07000100F240624442
:1057B00005618280011106CE22CC00108D453D4549
:1057C000EFF03F89AA87A307F4FE0347F4FE83475F
:1057D000F4FE8607B98F93F7070891C705468D45F4
:1057E0003545EFF0DF8A0100F240624405618280B6
:1057F000797106D622D40018232EA4FC8327C4FD79
:10580000918B99E3EFF01FFB930700102317F4FE31
:105810008327C4FD858B99C78357E4FE93E7072050
:105820002317F4FE8357E4FE3E8681453545EFF0AD
:10583000FF898327C4FD858B95CB8D453D45EFF0D2
:105840005F81AA87A306F4FE8347D4FEA18B99CF7C
:10585000EFF0BFEF8327C4FD898B99E71306001093
:1058600081453545EFF09F86FD5711A081473E8564
:10587000B250225445618280797106D622D4001834
:10588000AA87231FF4FC8D451145EFF08FFCAA87F2
:10589000A307F4FE8357E4FD9DCF8357E4FD3E86C6
:1058A00081453145EFF09F828347F4FE93E707017E
:1058B000A307F4FE83A70181D44B83A70181370797
:1058C0000010558FD8CB8347F4FE3E868D45114599
:1058D000EFF0EFFB3DA08347F4FEBD9BA307F4FE72
:1058E00083A70181D44B83A70181370700F07D177F
:1058F000758FD8CB8347F4FE3E868D451145EFF07A
:105900000FF90100B250225445618280011106CE88
:1059100022CC0010AA872317F4FE8357E4FE3E86AC
:105920009305400213057002EFF04FFA0100F240B8
:10593000624405618280411106C622C40008130634
:10594000000E8D4513056003EFF06FF41306000F92
:105950008D4513056003EFF08FF30100B240224440
:1059600041018280411106C622C40008EFF09FCC9D
:10597000014681451305C002EFF04FF501469945F8
:105980001305C002EFF0AFF0EFF0BF8601468D4582
:1059900013056003EFF0AFEF0545EFE02FFF1306AF
:1059A000000F8D4513056003EFF06FEE83A70181B3
:1059B000238D07000100B2402244410182807971A9
:1059C00006D622D40018AA87A30FF4FC8307F4FD9F
:1059D000FD8BE207E18793E70706E207E187A3076C
:1059E000F4FE8347F4FE3E86B9451305B002EFF09E
:1059F0000FEA0100B250225445618280370810003E
:105A000001117D183377B80026CA3378D80093D4B3
:105A1000450113D34601131E37004EC61357D50157
:105A20000E089357D60193F4F47F1373F37F06CED9
:105A300022CC4AC893D9F50193DEF6013367C7013A
:105A4000131F350033E80701931F3600338E64407F
:105A50006380D9196356C0136304031CB706800022
:105A60009307F07F3368D800638FF4369307800381
:105A700063C0C735FD4763CDC74713050002330533
:105A8000C541B3D7CF01B316A8003399AF00DD8E5F
:105A900033392001B357C80133E926011D8F33097B
:105AA0002F41B3372F013306F7409317860063D495
:105AB0000724370780007D173374E600630C042C3D
:105AC0002285EF10F04D130785FF93070002998F91
:105AD000B357F9003316E400D18F3319E90063415D
