:100000006F40A04613000000130000001300000022
:100010001300000013000000130000001300000094
:100020001300000013000000130000001300000084
:08003000130000007300100032
:1000380000000000000000002841000038410000D6
:1000480000000000B04300000000000000000000B5
:10005800B2430000B44300000000000000000000AC
:10006800B643000000000000B84300000000000094
:10007800BA430000BC430000BE430000C043000078
:10008800C2430000C4430000043D0000283D0000B6
:100098004C3D0000703D0000943D0000D04300003E
:1000A800D2430000D4430000D6430000D8430000E8
:1000B800DA430000DC430000DE430000E0430000B8
:1000C800E2430000E4430000E6430000B83D0000BE
:1000D800EA430000583F0000EE430000F0430000F0
:1000E800883F0000B83F0000E83F0000F8430000E8
:1000F800FA430000FC430000FE43000000440000F7
:1001080002440000EC3A0000203B0000823B000063
:10011800403E00000C4400000E4400001044000063
:10012800A0400000144400001644000018440000D9
:100138001A4400001C44000018400000204400003D
:10014800B63B0000EA3B0000484000007040000059
:100158002A4400002C4400002E44000030440000D3
:1001680032440000344400003644000038440000A3
:100178003A4400003C4400003E4400000C64000087
:100188004244000044440000C63C00001A3C000001
:100198004E3C00009A3C00004E440000D040000055
:1001A800524400005444000056440000004100003E
:1001B8005A4400005C4400005E44000060440000B3
:1001C8006244000064440000664400006844000083
:1001D8000000000000000000000000000000000017
:1001E8000000000000000000000000000000000007
:0801F8000000000000000000FF
:10020000737504308280B76200009382820873A005
:10021000023082803D432A876373C3029377F700DD
:10022000BDEFADE5937606FF3D8ABA960CC34CC38D
:100230000CC74CC74107E36BD7FE11E28280B306BF
:10024000C3408A069702000096966780A60023079F
:10025000B700A306B7002306B700A305B700230520
:10026000B700A304B7002304B700A303B700230318
:10027000B700A302B7002302B700A301B700230110
:10028000B700A300B7002300B700828093F5F50FF5
:1002900093968500D58D93960501D58D61B793967C
:1002A00027009702000096968682E78086FA96805D
:1002B000C1171D8F3E96E374C3F8A5B7011122CE76
:1002C00000102324A4FE2326B4FEB7F700E023A0E9
:1002D0000700B7F700E08146014794C7D8C7B7F7D2
:1002E00000E0054798C30100B7F700E003A8C70086
:1002F0009C470327C4FEC286636CD7000327C4FE55
:10030000C286E313D7FE032784FE6363F700E9BFC9
:100310000100724405618280011106CE22CC0010DA
:100320002326A4FE2324B4FE9306800401468145BF
:100330000325C4FE3121930680040146814503252F
:1003400084FEFD2E0100F2406244056182800111AD
:1003500006CE22CC00102326A4FEB7070020138768
:1003600007008327C4FEBA9703C707009307F00F5F
:100370006311F702B5670327C4FE0A079387470B8B
:10038000BA979C4383D74702C207C183C207C1877C
:10039000B9A8B7070020138707008327C4FEBA97C0
:1003A00083C707003E85D52CAA8785C3B567032779
:1003B000C4FE0A079387470BBA979C4383D747022B
:1003C000C207C183C207C1871DA0B5670327C4FE4A
:1003D0000A079387470BBA979C4383D74702C20704
:1003E000C183B307F040C207C183C207C1873E85FE
:1003F000F240624405618280011122CE0010232662
:10040000A4FEB5670327C4FE0A079387470BBA9774
:100410009C43239207020100724405618280797136
:1004200006D622D40018232EA4FC232CB4FC232AA5
:10043000C4FC91450325C4FDEF100062AA873E87E6
:1004400013064008B5679385C7D63A85EF30A015E7
:100450000325C4FDEF10C065832784FD13F7F70F54
:10046000832744FD93F7F70FBE853A8575358327BB
:1004700084FD13F7F70FB707002093860700832743
:10048000C4FDB6972380E700832784FD13D7870038
:100490008547631AF7008545B70716001385070CD3
:1004A000EF40205201A2832784FD13D78700C54760
:1004B000631AF7008545B707180013850730EF402A
:1004C0004050CDA0832784FD13D7870093071002E7
:1004D000631AF7008545B7171A00138507C0EF4068
:1004E000404EC9A0832784FD13D7870093072002BD
:1004F000631AF7008545B7171A0013850780EF4088
:10050000404C4DA0832784FD13D787009307100329
:100510006317F70085450565EF40A04A61A0832772
:1005200084FD13D7870093071007631BF700B707F5
:100530000140D84FB707014013674700D8CF9DA0AF
:10054000832784FD13D7870093071008631BF700E8
:10055000B7070140D84FB707014013670701D8CF4D
:1005600091A0832784FD13D7870093071009631B8D
:10057000F700B7070140D84FB707014013670704DA
:10058000D8CF0DA0832784FD13D7870093072009B8
:10059000631AF700B7070140D84FB7070140136748
:1005A0000702D8CF85450545EF40D001930744FEAB
:1005B0003E85EF500034231204FEFD572314F4FE51
:1005C000231504FE231304FE230604FEB567032748
:1005D000C4FD0A079387470BBA979C433E8793074E
:1005E00044FEBE853A85EF40F02BB5670327C4FD76
:1005F0000A079387470BBA979C43930500063E85ED
:10060000EF50603EB5670327C4FD0A079387470B89
:10061000BA979C4385453E85EF5060310100B2504A
:10062000225445618280011122CE00102326A4FEAF
:10063000AE87A305F4FE8347B4FE9DC78327C4FE9F
:10064000BD8B0547B317F70093960701C182832737
:10065000C4FE13D75700B5670A0793874709BA97AF
:100660009C43368798CB35A08327C4FEBD8B0547B6
:10067000B317F70093960701C1828327C4FE13D7EF
:100680005700B5670A0793874709BA979C4336878F
:10069000D8CB0100724405618280011122CE001086
:1006A0002326A4FE8327C4FE958313F77700B5673E
:1006B0000A0793874709BA979C439C470327C4FEC0
:1006C0007D8B85463397E600F98F99C3854711A046
:1006D00081473E85724405618280797122D6001877
:1006E000232EA4FC8327C4FD958393F7F70F9D8BDE
:1006F000A307F4FE8327C4FD93F7F70FBD8B2307F1
:10070000F4FE0347F4FEB5670A0793874709BA97D3
:100710009C43DC470347E4FE85463397E6004207E7
:1007200041833A868346F4FE35678A0613074709F4
:1007300036971843B18F5CC70100325445618280FF
:10074000797106D622D40018232EA4FC232CB4FCE5
:10075000232AC4FC2328D4FC8327C4FD958393F764
:10076000F70F9D8BA307F4FE8327C4FD93F7F70FC4
:10077000BD8B2307F4FE0327C4FD9307F00F630529
:10078000F7140327C4FD9307F00F6301F7148347A1
:10079000F4FE91E785451145EF40C06241A0034753
:1007A000F4FE85476317F70085452145EF408061DA
:1007B000B5A00347F4FE89476317F7008545414517
:1007C000EF404060A1A80347F4FE8D476318F7008F
:1007D000854513050002EF40E05E89A00347F4FE63
:1007E00091476318F700854513050004EF40805DCD
:1007F00035A00347F4FE95476318F70085451305B8
:100800000008EF40205C19A80347F4FE99476317DE
:10081000F700854513050010EF40C05A8347E4FEFA
:100820000547B317F700C207C1832310F4FE03275F
:1008300084FD85476317F702832704FDC207C18340
:10084000A183C207C18389E78D472322F4FE11A843
:10085000832704FDC207C183A183C207C18323226A
:10086000F4FE832704FDC207C18393F7F70F232407
:10087000F4FE0347F4FEB5670A0793874709BA9762
:100880009C433E87930704FEBE853A85EF30506D4A
:10089000032784FD8547631CF7020347F4FEB56711
:1008A0000A0793874709BA979C43BE868347E4FEAD
:1008B0000547B317F700C207C183032644FDBE8571
:1008C0003685EF40800C21A0010011A00100B2503C
:1008D000225445618280011106CE22CC00102326CD
:1008E000A4FE8327C4FE89EB93068031014685452B
:1008F0002145B9356F0020730327C4FE8547631A6D
:10090000F70093068031014685452545153D6F006A
:1009100080710327C4FE8947631AF700930680316C
:10092000014685452945293D6F00E06F0327C4FE38
:100930008D47631AF70093068031014685452D45A2
:1009400001356F00406E0327C4FEC147631BF700EB
:10095000930680310146854513059008D5336F0015
:10096000806C0327C4FEC547631AF70093068031E5
:10097000014685451305B008E13375A50327C4FE7C
:10098000C947631AF7009306803101468545130570
:10099000D0087D3349AD0327C4FECD47631AF70065
:1009A00093068031014685451305E008513BA5AD0E
:1009B0000327C4FE930700106319F70093068031E4
:1009C000014685450145AD3BB9AD0327C4FE9307FC
:1009D00010106319F70093068031014685450545DF
:1009E000853391A50327C4FE930720106319F700F0
:1009F0009306803101468545094599332DA5032786
:100A0000C4FE930730106319F70093068031014646
:100A100085450D45353301AD0327C4FE930700110D
:100A20006319F70093068031014685453D45093B32
:100A3000DDAB0327C4FE93071011631AF70093067A
:100A400080310146854513053002DD39E9AB0327C6
:100A5000C4FE93072011631AF70093068031014604
:100A600085451305A002E9397DAB0327C4FE930732
:100A70003011631AF700930680310146854513054E
:100A8000B0027D394DA30327C4FE930700206319EC
:100A9000F70093068031014685451945553161A31C
:100AA0000327C4FE930710206319F70093068031D3
:100AB000014685451D456931BDA30327C4FE930743
:100AC0002020631AF70093068031014685451305FF
:100AD0000002BD3189AB0327C4FE93073020631A9F
:100AE000F7009306803101468545130510028939C8
:100AF0001DAB0327C4FE93070021631AF70093067A
:100B0000803101468545130560041D3929AB032753
:100B1000C4FE93071021631AF70093068031014643
:100B20008545130570042939FDA90327C4FE9307E1
:100B30002021631AF700930680310146854513058D
:100B40008004FD3ECDA10327C4FE93073021631A24
:100B5000F700930680310146854513059004CD3694
:100B6000D9A10327C4FE93070022631AF700930656
:100B700080310146854513054002D9366DA1032712
:100B8000C4FE93071022631AF700930680310146D2
:100B90008545130550026D3679A10327C4FE9307DE
:100BA0000030631AF700930680310146854513052E
:100BB000600279368DA90327C4FE93071030631AAB
:100BC000F7009306803101468545130570028D3E7E
:100BD00099A90327C4FE93072030631AF7009306F0
:100BE00080310146854513058002993E2DA90327D2
:100BF000C4FE93073030631AF70093068031014634
:100C00008545130590022D3E39A90327C4FE93079D
:100C10000031631AF70093068031014685451305BC
:100C2000C006393E09A10327C4FE93071031631A99
:100C3000F70093068031014685451305D006093635
:100C4000DDA60327C4FE93072031631AF70093063D
:100C50008031014685451305E006DD34E9A603270A
:100C6000C4FE93073031631AF700930680310146C2
:100C700085451305F006E9347DA60327C4FE9307D6
:100C800000406319F7009306803101468545014510
:100C9000453C51AE0327C4FE930710406319F7008B
:100CA00093068031014685450545593CADAE032785
:100CB000C4FE930720406319F70093068031014674
:100CC00085450945B53C85A60327C4FE93073040FA
:100CD0006319F70093068031014685450D458D3433
:100CE00099A60327C4FE93070070631AF7009306C2
:100CF0008031014685451305600499342DA60327EC
:100D0000C4FE93071070631AF70093068031014602
:100D10008545130570042D3439A60327C4FE9307B7
:100D20002070631AF700930680310146854513054C
:100D300080043934CDAC0327C4FE93073070631AA6
:100D4000F700930680310146854513059004CD3A9E
:100D5000D9AC0327C4FE93070071631AF70093060A
:100D600080310146854513056002D93A6DAC0327F1
:100D7000C4FE93071071631AF70093068031014691
:100D80008545130570026D3A79AC0327C4FE9307BD
:100D90002071631AF70093068031014685451305DB
:100DA0008002793A49A40327C4FE93073071631A7D
:100DB000F70093068031014685451305D00449327A
:100DC0009DA48327C4FE9387078081EB930680311F
:100DD000014685450945AD32B9A40327C4FE8567A0
:100DE000938717806319F700930680310146854584
:100DF0000D45B9320DAC0327C4FE85679387278064
:100E00006319F700930680310146854511450D3A77
:100E100019AC0327C4FE856793873780631AF700F0
:100E2000930680310146854513054004113AE5AA31
:100E30000327C4FE856793870781631AF70093062B
:100E400080310146854513059006DD38E9AA032760
:100E5000C4FE856793871781631AF7009306803174
:100E6000014685451305B006E13875AA0327C4FE7F
:100E7000856793872781631AF700930680310146BF
:100E800085451305D0066D3879AA0327C4FE85670A
:100E900093873781631AF7009306803101468545B1
:100EA0001305F006713841A20327C4FE85679387B6
:100EB0000790631BF70093068031014685451305B3
:100EC0008002EFF0FF8785A20327C4FE8567938722
:100ED0001790631BF7009306803101468545130583
:100EE0009002EFF0FF8581A20327C4FE85679387F8
:100EF0002790631BF7009306803101468545130553
:100F00003004EFF0FF8305A20327C4FE85679387B3
:100F10003790631BF7009306803101468545130522
:100F2000B004EFF0FF8101A20327C4FE8567938719
:100F30000791631BF7009306803101468545130531
:100F40001006EFF0EFFFC5A00327C4FE8567938767
:100F50001791631BF7009306803101468545130501
:100F60003006EFF0EFFDC1A00327C4FE856793872D
:100F70002791631BF70093068031014685451305D1
:100F80005006EFF0EFFB45A00327C4FE856793876B
:100F90003791631BF70093068031014685451305A1
:100FA0007006EFF0EFF941A00327C4FE8567938731
:100FB0000792631BF70093068031014685451305B0
:100FC0003002EFF0EFF785A00327C4FE8567938713
:100FD0001792631BF7009306803101468545130580
:100FE0004002EFF0EFF581A00327C4FE85679387E9
:100FF0002792631BF7009306803101468545130550
:101000005002EFF0EFF305A00327C4FE8567938736
:101010003792631AF7009306803101468545130520
:10102000F004EFF0EFF10100F240624405618280CC
:10103000797122D60018232EA4FC232CB4FC83271C
:10104000C4FD13D78700B5670A079387470BBA9784
:101050009C4383D7C7022317F4FE0357E4FE83277C
:1010600084FD3307F702896793870771B357F70247
:101070002316F4FE8327C4FD13D78700B5670A073C
:101080009387470BBA9798438327C4FD8D8B8A07B4
:10109000BA97938747033E878357C4FE1CC301005A
:1010A000325445618280397106DE22DC80002326BD
:1010B000A4FC2324B4FC2322C4FC232004FE23220A
:1010C00004FE231404FE232804FC232A04FC232CFE
:1010D00004FC232E04FC231704FE8327C4FCA183F5
:1010E0008D453E85EF005017AA873E871306900B6B
:1010F000B567938587DD3A85EF20E04A8327C4FCF6
:10110000A1833E85EF00D01A0325C4FCEFF0AFFCAD
:1011100085450545EF30104B8327C4FC13D74700A6
:101120008547631AF7008545B70716001385070C36
:10113000EF30300901A28327C4FC13D74700C5470D
:10114000631AF7008545B707180013850730EF309D
:101150005007CDA08327C4FC13D747009307100284
:10116000631AF7008545B7171A00138507C0EF30DB
:101170005005C9A08327C4FC13D74700930720025A
:10118000631AF7008545B7171A0013850780EF30FB
:1011900050034DA08327C4FC13D7470093071003C7
:1011A0006317F70085450565EF30B00161A083271F
:1011B000C4FC13D7470093071007631BF700B7075A
:1011C0000140D84FB707014013674700D8CF9DA013
:1011D0008327C4FC13D7470093071008631BF7004D
:1011E000B7070140D84FB707014013670701D8CFB1
:1011F00091A08327C4FC13D7470093071009631BF2
:10120000F700B7070140D84FB7070140136707043D
:10121000D8CF0DA08327C4FC13D74700930720091C
:10122000631AF700B7070140D84FB70701401367AB
:101230000702D8CF03A78180832784FCB357F70226
:10124000C1832317F4FE03A781808357E4FE85073B
:10125000BE86832784FCB387F602B357F7022316B2
:10126000F4FE0357C4FE832744FC3307F702896763
:1012700093870771B357F7022315F4FE8357C4FE13
:10128000FD17C207C1832312F4FE8357E4FE231027
:10129000F4FE231304FE231104FE230404FE83271B
:1012A000C4FC13D78700B5670A079387470BBA9723
:1012B0009C433E87930704FEBE853A85EF30905EDF
:1012C000930700072318F4FC85472319F4FC231A1D
:1012D00004FC8357A4FE231BF4FC8947231CF4FC65
:1012E0008947231DF4FC231E04FC231F04FC8327D1
:1012F000C4FC8D8BB9EF8327C4FC13D78700B56777
:101300000A079387470BBA979C433E87930704FDD0
:10131000BE853A85EF30F0708327C4FC13D7870071
:10132000B5670A079387470BBA979C43A1453E854B
:10133000EF40A0748327C4FC13D78700B5670A0762
:101340009387470BBA979C4391453E85EF40B00782
:1013500089A28327C4FC13F7370085476311F7067A
:101360008327C4FC13D78700B5670A079387470B09
:10137000BA979C433E87930704FDBE853A85EF40AC
:1013800000048327C4FC13D78700B5670A07938737
:10139000470BBA979C43A1453E85EF40C072832717
:1013A000C4FC13D78700B5670A079387470BBA9722
:1013B0009C43930500403E85EF40B005D9A88327A4
:1013C000C4FC13F7370089476310F7068327C4FC72
:1013D00013D78700B5670A079387470BBA979C43D3
:1013E0003E87930704FDBE853A85EF40601B832747
:1013F000C4FC13D78700B5670A079387470BBA97D2
:101400009C43A1453E85EF40A0718327C4FC13D7C0
:101410008700B5670A079387470BBA979C439145A6
:101420003E85EF407004B5A08327C4FC13F7370056
:101430008D476310F7068327C4FC13D78700B56771
:101440000A079387470BBA979C433E87930704FD8F
:10145000BE853A85EF4080328327C4FC13D78700CE
:10146000B5670A079387470BBA979C43A1453E850A
:10147000EF40C06F8327C4FC13D78700B5670A0706
:101480009387470BBA979C43930500403E85EF40F6
:1014900070028327C4FC13D78700B5670A079387B8
:1014A000470BBA979C4385453E85EF40C04D832747
:1014B000C4FC13D78700B5670A079387470BBA9711
:1014C0009C4385453E85EF4080460100F2506254C2
:1014D00021618280011106CE22CC00102326A4FEB9
:1014E0002324B4FE2322C4FE2320D4FE8327C4FE7B
:1014F00089EB93068031054685451545EFF04FA4ED
:1015000061A00327C4FEC147631BF7009306803127
:101510000546854513053002EFF08FA2B5A00327DD
:10152000C4FE93070002631BF70093068031054653
:1015300085451305D002EFF0AFA0B9A00327C4FE84
:1015400093070003631BF70093068031054685452A
:1015500013053002EFF0CF9E05A80327C4FE9307C2
:101560000004631BF700930680310546854513058B
:10157000A004EFF0EF9C09A813069002B5679385CD
:1015800007E40145EF202002032784FE8947631A00
:10159000F70093068031054685451D45EFF04F9ACB
:1015A00061A0032784FEC947631BF70093068031BF
:1015B0000546854513055002EFF08F98B5A0032727
:1015C00084FE93072002631BF700930680310546D3
:1015D00085451305F002EFF0AF96B9A0032784FE0E
:1015E00093072003631BF70093068031054685456A
:1015F00013055002EFF0CF9405A8032784FE93074C
:101600002004631BF70093068031054685451305CA
:10161000C004EFF0EF9209A813060003B5679385A5
:1016200007E40145EF103078032744FE8547631A2D
:10163000F70093064030054681451945EFF04F907D
:1016400079A8032744FEC547631BF7009306403083
:101650000546814513054002EFF08F8E49A0032710
:1016600044FE93071002631BF700930640300546C3
:1016700081451305E002EFF0AF8C95A0032744FEEF
:1016800093071004631BF70093064030054681451D
:101690001305B004EFF0CF8A99A0032744FE930707
:1016A0001003631BF7009306403005468145130580
:1016B0004002EFF0EF8825A0032744FE9307F00FC8
:1016C0006317F7009307F00F2322F4FE09A813060F
:1016D0008003B567938507E40145EF10D06C93064E
:1016E000003101468545032504FEEFF06F850100BA
:1016F000F2406244056182805D7186C6A2C48008A2
:101700002326A4FC2324B4FC2322C4FC2320D4FCE1
:10171000232EE4FA232CF4FA232A04FB231704FED5
:10172000B5670327C4FC0A079387870ABA979C43C7
:101730003E85EF30A07A85450545EF30A068032748
:1017400004FCC1476311F7020327C4FBC947631CAC
:10175000F700032784FBC5476317F7008545054558
:10176000EF30202615A8032704FC93070004631517
:10177000F7020327C4FB93072004631FF700032726
:1017800084FB930710046319F7008545B717200001
:1017900013850710EF30E0228327C4FC91E78545CD
:1017A0000565EF30206225A00327C4FC8547631739
:1017B000F70085451165EF30406511A80327C4FC8B
:1017C00089476316F70085452165EF30006483265D
:1017D00044FB032684FB8325C4FB032504FCDD397D
:1017E000231E04FC93074010231FF4FC231004FE67
:1017F000032784FC85476305F702832784FC81CF98
:10180000032784FC89476303F702032784FC8D4781
:101810006304F7020DA8231104FE231204FE25A081
:10182000231104FE85472312F4FE31A889472311B2
:10183000F4FE231204FE01A889472311F4FE854714
:101840002312F4FE010003A74185832744FCB3570C
:10185000F7022317F4FE0357E4FE9307F00F63F734
:10186000E700930780032317F4FE61A80357E4FE03
:101870009307F00763F7E700930700032317F4FECD
:1018800049A00357E4FE9307F00363F7E7009307CB
:1018900080022317F4FEB5A00357E4FEFD4763F76B
:1018A000E700930700022317F4FEA1A80357E4FE04
:1018B000BD4763F6E700E1472317F4FE99A00357FD
:1018C000E4FE9D4763F6E700C1472317F4FE15A821
:1018D0000357E4FE8D4763F6E700A1472317F4FEA4
:1018E0000DA00357E4FE854763F5E700231704FEC8
:1018F00009A81306D008B567938507E40145EF10E2
:10190000904A8357E4FE2314F4FE93070020231328
:10191000F4FE231504FE9D472316F4FEB567032746
:10192000C4FC0A079387870ABA979C433E879307AC
:10193000C4FDBE853A85EF30C061B5670327C4FC9E
:101940000A079387870ABA979C4385453E85EF30FF
:10195000C06F0100B640264461618280011122CE31
:1019600000102326A4FEAE87A305F4FEB567032767
:10197000C4FE0A079387870ABA979C433E8783472A
:10198000B4FEC207C1832316F7000100B567032721
:10199000C4FE0A079387870ABA979C4383D78700B8
:1019A000C207C18393F70708F5F30100724405618C
:1019B0008280011122CE00102326A4FEAE872315BB
:1019C000F4FE8357A4FEA183C207C18393F6F70FE9
:1019D000B5670327C4FE0A079387870ABA979C4313
:1019E0003E8793970601C1832316F7000100B56770
:1019F0000327C4FE0A079387870ABA979C4383D7B5
:101A00008700C207C18393F70708F5F38357A4FE45
:101A100093F6F70FB5670327C4FE0A079387870A73
:101A2000BA979C433E8793970601C1832316F7001C
:101A30000100B5670327C4FE0A079387870ABA9790
:101A40009C4383D78700C207C18393F70708F5F348
:101A50000100724405618280011122CE001023260C
:101A6000A4FE2324B4FE0327C4FE0A079387018A39
:101A7000BA979C4381EF0327C4FE0A079387018A24
:101A8000BA97032784FE98C3854739A80327C4FE65
:101A90000A079387018ABA979C43032784FE63143D
:101AA000F700854711A081473E8572440561828019
:101AB000011106CE22CC00102326A4FE8327C4FEEB
:101AC00081EB8545856713850780EF30A02F6DA8D2
:101AD0000327C4FE85476317F70085450545EF30AA
:101AE000C0325DA00327C4FE89476317F700854510
:101AF0000945EF30803149A80327C4FE8D4763179D
:101B0000F70085451145EF304030BDA80327C4FEDE
:101B100091476317F70085452145EF30002FADA0B1
:101B20000327C4FE95476317F70085454145EF300D
:101B3000C02D99A80327C4FE99476318F70085456F
:101B400013050002EF30602C81A00327C4FE9D47DF
:101B50006317F70085450965EF30C02635A00327D8
:101B6000C4FEA1476318F700854537050800EF302C
:101B7000602519A80327C4FEA5476317F70085450C
:101B800037051000EF3000240100F2406244056187
:101B90008280797106D622D40018232EA4FC232C2F
:101BA000B4FC85450325C4FD453DAA873E87130641
:101BB0003006B567938587EA3A85EF10D01E032576
:101BC000C4FDFD350327C4FD0A079387818CBA97AE
:101BD000032784FD98C3032784FD85476315F70217
:101BE000FD572314F4FE03A74185B7470F009387E1
:101BF0000724B357F702C207C183FD17C207C18389
:101C00002312F4FE2DA8032784FD89476314F702ED
:101C1000FD572314F4FE03A741858567938787BB8F
:101C2000B357F702C207C183FD17C207C18323124E
:101C3000F4FE31A0FD572314F4FE231204FE2315F5
:101C400004FE231304FE230604FEB5670327C4FD28
:101C50000A079387470BBA979C433E87930744FE36
:101C6000BE853A85EF300044B5670327C4FD0A07F7
:101C70009387470BBA979C4385453E85EF30304BA1
:101C80000100B250225445618280011122CE001021
:101C90002326A4FE0327C4FE0A079387818CBA97E4
:101CA000984389476315F702B5670327C4FE0A07FF
:101CB0009387470BBA979C4383D747021397070133
:101CC00041838D47B357F702C207C18329A8B5677F
:101CD0000327C4FE0A079387470BBA979C4383D711
:101CE0004702C207C1833E857244056182800111AB
:101CF00006CE22CC00102326A4FEB5670327C4FE1F
:101D00000A079387470BBA979C4381453E85EF307E
:101D100010420100F240624405618280011106CE4A
:101D200022CC00102326A4FE2324B4FE8327C4FE65
:101D300081EBE146014685452545EFE07FA0C9AA34
:101D40000327C4FE8947631AF700E146014685452B
:101D500013056002EFE0DF9E65AA0327C4FEC147BA
:101D60006319F700E146014685450945EFE05F9DAF
:101D700045A20327C4FEC947631AF700E14601469E
:101D8000854513055006EFE0BF9B59A20327C4FE0B
:101D900093070002631AF700E146014685451305E3
:101DA000A002EFE0FF99ADA20327C4FE9307200233
:101DB000631AF700E146014685451305A004EFE0EC
:101DC0003F98B9A20327C4FE93074002631AF700A5
:101DD000E1460146854513058006EFE07F960DAA92
:101DE0000327C4FE93070004631AF700E146014687
:101DF00085451305A004EFE0BF9419AA0327C4FE8C
:101E000093072004631AF700E14601468545130550
:101E10000002EFE0FF92EDA80327C4FE9307000540
:101E2000631AF700E146014685451305C004EFE05B
:101E30003F91F9A80327C4FE93072005631AF70012
:101E4000E1460146854513058008EFE07F8FC9A074
:101E50000327C4FE93070006631AF700E146014614
:101E6000854513050004EFE0BF8D5DA00327C4FE88
:101E700093072006631AF700E146014685451305DE
:101E80000004EFE0FF8B69A00327C4FE930700075F
:101E9000631AF700E1460146854513052004EFE08B
:101EA0003F8ABDA00327C4FE930720076319F700EC
:101EB000E146014685451945EFE09F8891A8032733
:101EC000C4FE93074007631AF700E14601468545C3
:101ED0001305C008EFE0DF8625A80327C4FE93079B
:101EE0000008631AF700E1460146854513054004E2
:101EF000EFE01F8531A80327C4FE9307200863196C
:101F0000F700E146014685451305E008EFE05F83F1
:101F1000032784FE8547631AF70093068004014671
:101F200081452945EFE0DF81D5AA032784FE8D474F
:101F3000631BF70093068004014681451305700278
:101F4000EFE01F80E1AA032784FEC547631AF7006C
:101F500093068004014681450D45EFE06FFE7DAAA2
:101F6000032784FECD47631BF700930680040146D8
:101F7000814513056006EFE0AFFC4DA2032784FE08
:101F800093071002631BF700930680040146814506
:101F90001305B002EFE0CFFA51A2032784FE9307A6
:101FA0003002631BF7009306800401468145130548
:101FB000B004EFE0EFF89DA2032784FE93075002E0
:101FC000631BF700930680040146814513059006C4
:101FD000EFE00FF7A1A2032784FE93071004631B11
:101FE000F70093068004014681451305B004EFE035
:101FF0002FF52DA2032784FE93073004631BF700FF
:10200000930680040146814513051002EFE04FF36B
:1020100031A2032784FE93071005631BF700930684
:1020200080040146814513052006EFE06FF1FDA015
:10203000032784FE93073005631BF7009306800493
:102040000146814513059008EFE08FEFC1A80327F3
:1020500084FE93071006631BF70093068004014675
:10206000814513051004EFE0AFED4DA8032784FE72
:1020700093073006631BF7009306800401468145F1
:102080001305B008EFE0CFEB51A8032784FE9307B8
:102090001007631BF7009306800401468145130572
:1020A0003004EFE0EFE99DA8032784FE9307300793
:1020B000631AF70093068004014681451D45EFE051
:1020C0002FE8A9A8032784FE93075007631BF70096
:1020D00093068004014681451305D008EFE04FE6E2
:1020E00035A8032784FE93071008631BF7009306A7
:1020F00080040146814513055004EFE06FE439A8E0
:10210000032784FE93073008631AF70093068004C0
:10211000014681451305F008EFE08FE20100F2402F
:10212000624405618280011106CE22CC0010232674
:10213000A4FEAE87A305F4FEB5670327C4FE0A0715
:102140009387C70DBA979C433E878347B4FE3E866C
:10215000930550523A85EF30706EB7E700E09386F2
:1021600001820327C4FE369703470700BA972380EE
:1021700007408347B4FE81CF138701828327C4FEC3
:10218000BA9783C707003E85EF10500C19A8138734
:1021900001828327C4FEBA9783C707003E85EF10EC
:1021A000D00C0100F240624405618280011122CE10
:1021B00000102326A4FE2324B4FEB5670327C4FE23
:1021C0000A079387C70DBA979C4383D70700C207B6
:1021D000C18393F707028DC7B5670327C4FE0A07BB
:1021E0009387C70DBA979C4383D74700C207C18323
:1021F00013F7F70F832784FE2380E700854711A09C
:1022000081473E85724405618280797106D622D469
:102210000018232EA4FC232CB4FC232AC4FC23285E
:10222000D4FC85450545EF20F039832504FD0325C1
:1022300044FDEFF0BFAE032744FD8947631CF70060
:10224000032704FD8D476317F70085451145EF20EF
:10225000407795A2032744FDC947631CF700032775
:1022600004FDCD476317F70085452145EF206075D4
:1022700099A2032744FD930720026310F702032766
:1022800004FD93073002631AF7008545B707140071
:1022900013850701EF20E07239AA032744FD930755
:1022A00040026310F702032704FD93075002631AEC
:1022B000F7008545B707140013850703EF2060700A
:1022C000DDA8032744FD93072004631DF7000327BF
:1022D00004FD930730046317F70085450565EF207B
:1022E000406ED1A8032744FD930720056310F70231
:1022F000032704FD93073005631AF7008545B707E8
:10230000200013851700EF20C06B75A0032744FD44
:10231000930720066310F702032704FD9307300696
:10232000631AF7008545B717008013850780EF20F3
:10233000406951A0032744FD930720076312F70269
:10234000032704FD93073007631CF700B70701401C
:10235000D44FB707014037074000558FD8CFA1A809
:10236000032744FD930740076312F702032704FD88
:1023700093075007631CF700B7070140D44FB70716
:10238000014037078000558FD8CF35A0032744FD83
:10239000930720086311F702032704FD9307300811
:1023A000631BF700B7070140D44FB7070140370759
:1023B0000002558FD8CF8327C4FD91E7854511656D
:1023C000EF20502069A80327C4FD85476318F70054
:1023D000854537050200EF20502351A00327C4FD97
:1023E00089476318F700854537050400EF20F02181
:1023F000BDA00327C4FD8D476318F7008545370549
:102400000800EF209020A1A80327C4FD914763187E
:10241000F700854537051000EF20301F89A00327FE
:10242000C4FD95476318F700854513050004EF20A8
:10243000D01D35A00327C4FD99476318F7008545D3
:1024400013050008EF20701C19A80327C4FD9D4741
:102450006317F700854513050010EF20101B832735
:1024600084FD2320F4FE231204FE231304FE231410
:1024700004FE231604FEB1472315F4FEB5670327B7
:10248000C4FD0A079387C70DBA979C433E879307FD
:1024900004FEBE853A85EF303011B5670327C4FDD1
:1024A0000A079387C70DBA979C4385453E85EF3051
:1024B000F0320100B250225445618280411106C6BB
:1024C00022C40008938501831945CD3105469385C3
:1024D00001831385818EEF10001E0100B24022445B
:1024E00041018280411106C622C4000893851183F0
:1024F00005456D390546938511831385C18FEF100E
:10250000801B0100B240224441018280411106C675
:1025100022C4000803A781848947630FF70003A73B
:1025200081848D476314F700992039A003A7818423
:1025300091476313F7004D280100B2402244410146
:102540008280411106C622C4000803A781849147F6
:102550006314F700ED2839A003A781848D47631326
:10256000F7008D280100B2402244410182804111D0
:1025700006C622C4000883C771833E8793874183C0
:10258000BA97BE851145EFF07FC2AA8781CB83C77A
:102590007183850713F7F70FA38BE18203C771835C
:1025A0008547631AF70003C741839307500A630402
:1025B000F700A38B018203C771838D476317F70070
:1025C000A38B01820547238CE1820100B2402244A3
:1025D00041018280411122C6000805472389E1821A
:1025E0000100324441018280411106C622C4000824
:1025F00083C7F1833E879387C183BA97BE85114510
:10260000EFF0DFBAAA8781CB83C7F183850713F781
:10261000F70FA38FE18203C7F1838547631AF700A1
:1026200003C7C1839307500A6304F700A38F018295
:1026300003C7F1838D476317F700A38F0182054716
:102640002380E1840100B240224441018280411193
:1026500022C600080547A380E184010032444101FD
:102660008280011106CE22CC0010AA87A307F4FEB7
:10267000B56793874709DC473E87C1471CCBB567E1
:1026800093874709DC473E87C1475CCBB567938793
:102690004709DC473E87930700085CCB8347F4FE7D
:1026A000BE850545EFF08FABB56793874709DC47DB
:1026B0003E87C1471CCBB56793874709DC473E87F8
:1026C000930700081CCBB56793874709DC473E8713
:1026D000C1475CCB0100F240624405618280011178
:1026E00006CE22CC0010AA8736872317F4FEAE87C9
:1026F0002316F4FEB2872315F4FEBA872314F4FEE2
:10270000B707002083C74723C207C1830357E4FEEE
:10271000B337F70093F7F70F3E871306F004B5675A
:10272000938507F13A85EF00106883C75180C2078F
:10273000C1830357C4FEB337F70093F7F70F3E8703
:1027400013060005B567938507F13A85EF00B0657C
:10275000B707002083C74723C207C1830357A4FEDE
:10276000B337F70093F7F70F3E8713061005B567E9
:10277000938507F13A85EF00106383C75180C20744
:10278000C183035784FEB337F70093F7F70F3E87F3
:1027900013062005B567938507F13A85EF00B06011
:1027A00083A7418491C703A7418485476315F70830
:1027B0001305A0027D3581450545EFF02F9A83571B
:1027C000E4FE93F7F70F890793F7F70FBE850545EA
:1027D000EFF0CF9881450545EFF04F988357A4FE61
:1027E00093F7F70F890793F7F70FBE850545EFF0CD
:1027F000EF961305B002B53581450545EFF00F960C
:102800008357C4FE93F7F70F850793F7F70FBE853D
:102810000545EFF0AF9481450545EFF02F948357C0
:1028200084FE93F7F70F850793F7F70FBE850545ED
:10283000EFF0CF9259A01305A0022535814505453B
:10284000EFF0CF918357E4FE93F7F70F850793F7E7
:10285000F70FBE850545EFF06F9081450545EFF018
:10286000EF8F8357A4FE93F7F70F850793F7F70FC2
:10287000BE850545EFF08F8E1305B002DD3381452F
:102880000545EFF0AF8D8357C4FE93F7F70F890727
:1028900093F7F70FBE850545EFF04F8C8145054551
:1028A000EFF0CF8B835784FE93F7F70F890793F7E9
:1028B000F70FBE850545EFF06F8A1305C00255334B
:1028C0000100F240624405618280797106D622D40B
:1028D0000018AA87231FF4FCB707002083C74723EB
:1028E0003E8783C75180B307F7022326F4FEB7075C
:1028F000002083C74723C207C183FD171397070131
:10290000418383C75180C207C183FD17C207C183BA
:10291000BE863A8681450145EFF07FDC21A88357CA
:10292000E4FDBE850545EFF0CF888327C4FEFD1783
:102930002326F4FE8327C4FEFDF30100B250225487
:1029400045618280011122CE00102326A4FE0327B8
:10295000C4FE23A2E1840327C4FE854763EDE7009C
:10296000B7070020130700F8238AE722130700FAAD
:10297000A382E18019A8B7070020130700FA238A71
:10298000E722130700F8A382E18001007244056189
:102990008280011122CE0010AA872E872317F4FE11
:1029A000BA872316F4FEB70700200357E4FE2398E6
:1029B000E722B70700200357C4FE2399E72201004E
:1029C000724405618280797106D622D40018AA87E4
:1029D000AE863287231FF4FCB687231EF4FCBA8729
:1029E000A30DF4FCB707002083C74723C207C183A8
:1029F0000357E4FDB337F70093F7F70F3E8713064D
:102A0000800FB567938507F13A85EF00D03983C70A
:102A10005180C207C1830357C4FDB337F70093F752
:102A2000F70F3E871306900FB567938507F13A8538
:102A3000EF007037A30704FE7DA88347F4FE1397C9
:102A4000070141838357C4FDBA9793950701C1815C
:102A50008357E4FD9D071396070141828347F4FEE7
:102A60001397070141838357C4FDBA971397070152
:102A700041838357E4FDBA863E85EFF05FC6830746
:102A8000B4FD938607FE8347F4FE3567920613076D
:102A9000C70F3697BA9783C70700A306F4FE23072C
:102AA00004FE81A08347D4FE858B91CBB70700201D
:102AB00083D70723BE850545EFE0BFEF09A8B70719
:102AC000002083D72723BE850545EFE09FEE83478F
:102AD000D4FE8583A306F4FE8347E4FE850723071F
:102AE000F4FE0347E4FE9D47E3FEE7FA8347F4FE66
:102AF0008507A307F4FE0347F4FEBD47E3FFE7F2B3
:102B00000100B250225445618280797106D622D4E8
:102B10000018AA872E87232CC4FC231FF4FCBA8735
:102B2000231EF4FCB707002083C74723C207C183D5
:102B30000357E4FDB337F70093F7F70F3E8713060B
:102B40007011B567938507F13A85EF00D02583C7EB
:102B50005180C207C1830357C4FDB337F70093F711
:102B6000F70F3E8713068011B567938507F13A8505
:102B7000EF007023231704FE3DA88357E4FE8E0761
:102B80001397070141838357E4FDBA979396070192
:102B9000C1828357E4FE032784FDBA9703870700A9
:102BA0008357C4FD3A86BE853685313D8357E4FEA2
:102BB00085072317F4FE8357E4FE032784FDBA97A5
:102BC00083870700DDFB0100B250225445618280FB
:102BD000397106DE22DC26DA8000AA872324C4FCB1
:102BE0002317F4FCAE872316F4FCB687A303F4FC8A
:102BF000BA872303F4FCB707002083C74723C20723
:102C0000C1830357E4FCB337F70093F7F70F3E8710
:102C100013065017B567938507F13A85EF00B01892
:102C200083C75180C207C1830357C4FCB337F70081
:102C300093F7F70F3E8713066017B567938507F183
:102C40003A85EF005016834774FCB337F00093F7D2
:102C5000F70F3E8713067017B567938507F13A851E
:102C6000EF007014834774FC93B7970093F7F70F46
:102C70003E8713068017B567938507F13A85EF0005
:102C80009012834764FCB337F00093F7F70F3E8749
:102C900013069017B567938507F13A85EF00B010DA
:102CA000834764FC93B7770093F7F70F3E871306CB
:102CB000A017B567938507F13A85EF00D00E8327FB
:102CC00084FC2326F4FEB56783A7C7F72324F4FE0C
:102CD000930744FD454681453E85EFD0AFD303477A
:102CE00074FC834764FCBA9789073E87930744FDC9
:102CF0003A86930500023E85EFD0CFD1034774FC9E
:102D0000A54763E3E70605A0B56783A507F8032594
:102D100084FEEF606054AA872324F4FE834774FC8A
:102D2000FD17A303F4FC834774FCF9FF0325C4FEDD
:102D3000EF605034AA84032584FEEF60B033AA8785
:102D4000B3C7F4023E85EF60703EAA87832584FEF8
:102D50003E85EF606050AA87BE850325C4FEEF6004
:102D6000E078AA872326F4FE034764FC930744FD1A
:102D70003A868325C4FE3E85EF005024930644FD29
:102D80000357C4FC8357E4FC3686BA853E85EFF0D2
:102D9000DFD70100F2506254D254216182800111C8
:102DA00006CE22CC4ACA4EC852C656C45AC25EC0CB
:102DB000001083A7418513D627001308F00F93074F
:102DC000F00F130720029306000281450545EFE04E
:102DD000BF92C1460146854513057006EFD05F9648
:102DE000C146014685451305A006EFD07F95C14633
:102DF0000146854513054006EFD09F94C146054620
:102E0000854513050006EFD0BF9383A741843E8517
:102E1000EFF05FB3B707002003D70723B707002001
:102E200083D72723BE853A85EFF0BFB6B567938772
:102E30004709DC473E87930700405CCB03A74185E9
:102E40008967938707F43357F702BA878A07BA97D7
:102E500086073E8B814B5A85DE85EFD02FC6B5673E
:102E600093874709DC473E87930700401CCB03A7A5
:102E700041858967938707F43357F702BA8792072A
:102E8000998F8E073E8A814A5285D685EFD00FC32F
:102E90004545EFF00FFD03A741858967938707F448
:102EA0003357F702BA879207998F8E073E89814977
:102EB0004A85CE85EFD08FC01305100BEFF06FFA67
:102EC00085450545EFE09FA99305C0020545EFE064
:102ED000FFA89305D0020545EFE05FA81305200B7E
:102EE000EFF02FF885450545EFE05FA79305C00299
:102EF0000545EFE0BFA69305D0020545EFE01FA60C
:102F00001305300BEFF0EFF585450545EFE01FA504
:102F10009305C0020545EFE07FA49305D002054567
:102F2000EFE0DFA385450545EFE05FA39305C00211
:102F30000545EFE0BFA29305D0020545EFE01FA2D3
:102F40001305400BEFF0EFF19D450545EFE01FA1A4
:102F50001305000CEFF0EFF09305200A0545EFE0B4
:102F6000FF9F89450545EFE07F9F93054008054594
:102F7000EFE0DF9E1305100CEFF0AFEE9305500C61
:102F80000545EFE0BF9D1305200CEFF08FEDA9453F
:102F90000545EFE0BF9C81450545EFE03F9C1305EB
:102FA000300CEFF00FEC9305A0080545EFE01F9BF8
:102FB0009305A0020545EFE07F9A1305400CEFF062
:102FC0004FEA9305A0080545EFE05F999305E00EF1
:102FD0000545EFE0BF981305500CEFF08FE8B945B9
:102FE0000545EFE0BF9713056003EFF08FE783A778
:102FF000418405476380E70281CB09476381E7028B
:103000000D476384E70205A89305000C0545EFE032
:10301000FF9415A081450545EFE05F9429A893052D
:10302000000A0545EFE09F9339A09305000605458A
:10303000EFE0DF9201001305000EEFF08FE2BD45D7
:103040000545EFE0BF91E9450545EFE03F91BD45FE
:103050000545EFE0BF90E1450545EFE03F90930562
:10306000F0020545EFE09F8F930580020545EFE0F4
:10307000FF8E930500020545EFE05F8E9305200269
:103080000545EFE0BF8DFD450545EFE03F8DED4582
:103090000545EFE0BF8C930530020545EFE01F8C3E
:1030A000930570030545EFE07F8B81450545EFE013
:1030B000FF8A9D450545EFE07F8A89450545EFE09C
:1030C000FF89C1450545EFE07F891305100EEFF03C
:1030D0004FD9BD450545EFE07F88ED450545EFE05B
:1030E000FF87BD450545EFE07F87DD450545EFE0FE
:1030F000FF86930530030545EFE05F869305C00228
:103100000545EFE0BF85930590020545EFE01F857B
:103110009305E0020545EFE07F8493050003054534
:10312000EFE0DF83930500030545EFE03F83930560
:1031300090030545EFE09F829305F0030545EFE01E
:10314000FF8181450545EFE07F819D450545EFE025
:10315000FF808D450545EFE07F80C1450545EFE0E7
:10316000EFFF1305A002EFF0CFCF81450545EFE05B
:10317000EFFE89450545EFE06FFE81450545EFE02F
:10318000EFFD930520080545EFE04FFD1305B00264
:10319000EFF02FCD81450545EFE04FFC8D4505450E
:1031A000EFE0CFFB81450545EFE04FFB930530088D
:1031B0000545EFE0AFFA1305000FEFF08FCA854524
:1031C0000545EFE0AFF91305600FEFF08FC98145BA
:1031D0000545EFE0AFF81305A003EFF08FC8954564
:1031E0000545EFE0AFF713059002EFF08FC7B70783
:1031F000002083D727233E85EFF02FED0100F2401A
:1032000062445249C249324AA24A124B824B05617A
:103210008280411106C622C40008938501850545B8
:10322000EFE0DFF805469385018513850191612163
:103230000100B240224441018280411106C622C4ED
:103240000008938511850545EFE05FF605469385F7
:1032500011851385419285210100B240224441012C
:103260008280011106CE22CC00102326A4FE032763
:10327000C4FE23AAE18419280325C4FE5920EF00C7
:10328000B0000100F240624405618280411122C613
:103290000008B71702409843B7170240136717009A
:1032A00098C3B7170240D443B71702403707FFF857
:1032B000758FD8C3B71702409443B717024037073A
:1032C000F7FE7D17758F98C3B71702409443B71761
:1032D00002403707FCFF7D17758F98C3B717024070
:1032E000D443B7170240370781FF7D17758FD8C3C6
:1032F000B717024037079F0098C7010032444101C9
:103300008280797122D60018232EA4FC232604FE85
:10331000232404FEB71702409443B71702404167C5
:10332000558F98C3B71702409843B7070200F98F2B
:103330002324F4FE8327C4FE85072326F4FE832777
:1033400084FE99E70327C4FE93070050E31CF7FCB3
:10335000B71702409843B7070200F98F89C785471E
:103360002324F4FE19A0232404FE032784FE8547AA
:103370006315F71EB72702409843B727024013672B
:10338000070198C3B72702409843B7270240719BB3
:1033900098C3B727024094438327C4FD1387F7FFE0
:1033A000B7376E0193870760B357F70213F77700BB
:1033B000B7270240558F98C337170240B71702400E
:1033C0005843D8C337170240B71702405843D8C3F1
:1033D00037170240B71702405843D8C30327C4FD2C
:1033E000B7177A0093870720631BF702B7170240CD
:1033F000D843B7170240719BD8C3B7170240D843D0
:10340000B717024013671700D8C30100B71702406F
:10341000DC4313F7C7009147E31AF7FE81A2B71701
:103420000240D443B71702403707C1FF7D17758F9D
:10343000D8C30327C4FDB747950893870740631B8C
:10344000F700B7170240D443B71702404167558FC2
:10345000D8C355A80327C4FDB7172707938707E0EC
:10346000631CF700B7170240D443B7170240370771
:103470003900558FD8C341A80327C4FDB7E7B80565
:1034800093870780631CF700B7170240D443B71730
:10349000024037072900558FD8C3B5A00327C4FDC4
:1034A000B7A74A0493870720631CF700B7170240A9
:1034B000D443B717024037071D00558FD8C3A1A0CA
:1034C0000327C4FDB777DC02938707C0631CF700AE
:1034D000B7170240D443B717024037071100558F82
:1034E000D8C315A00327C4FDB7376E0193870760C3
:1034F000631BF700B7170240D443B71702403707E2
:103500000500558FD8C3B71702409443B717024040
:1035100037070001558F98C30100B7170240984341
:10352000B7070002F98FF5DBB7170240D843B7178A
:103530000240719BD8C3B7170240D843B717024067
:1035400013672700D8C30100B7170240DC4313F705
:10355000C700A147E31AF7FE11A001A0325445614C
:103560008280411122C6000801000100324441015D
:103570008280411106C622C4000893061002130679
:103580000002F167938507200945EFE01FC88545D4
:103590000945EFE05FB90547238CE1840100B240A3
:1035A000224441018280011106CE22CC0010AA875C
:1035B0002324B4FE2322C4FEA307F4FE8347F4FEB3
:1035C0008DE383C7818591CB032644FE832584FE4A
:1035D000B567138547F8EF704015ED21EFF07FF8E0
:1035E000F5BF0100F240624405618280797106D620
:1035F00022D40018232EA4FC232CB4FC232AC4FCC0
:10360000232604FEA9A00100B5679387C70D9C4738
:10361000930500043E85EF209031AA87F5D7B56762
:103620009387C70D9C47BE86832784FD13871700A9
:10363000232CE4FC83870700C207C183BE8536853F
:10364000EF20102C8327C4FE85072326F4FE0327D2
:10365000C4FE832744FDE348F7FA832744FD3E85F3
:10366000B250225445618280011122CE00102326DF
:10367000A4FE2324B4FE8327C4FED843832784FEFC
:103680003E978327C4FED8C319A88327C4FED84316
:103690008327C4FE9C4B1D8F8327C4FED8C383277A
:1036A000C4FE984B8327C4FEDC43E3F0E7FE010031
:1036B000724405618280797106D622D40018232EC7
:1036C000A4FC232CB4FC232AC4FC8327C4FDDC47C0
:1036D000032744FD637EF70CF5268327C4FD984B32
:1036E0008327C4FDDC43B307F7402326F4FE0327FA
:1036F00044FD8327C4FE63FDE7068327C4FD98438A
:103700008327C4FDDC43BA970326C4FE832584FDCA
:103710003E85EF60C0568325C4FE0325C4FDEFF04F
:10372000BFF4032784FD8327C4FEBA97232CF4FC3F
:103730008327C4FD98438327C4FDDC43B306F70009
:10374000032744FD8327C4FEB307F7403E86832545
:1037500084FD3685EF60A052032744FD8327C4FE15
:10376000B307F740BE850325C4FDEFF0FFEF2DA0A2
:103770008327C4FD98438327C4FDDC43BA970326FF
:1037800044FD832584FD3E85EF60604F832544FD25
:103790000325C4FDEFF05FED8327C4FDD8478327E1
:1037A00044FD1D8F8327C4FDD8C7F524814711A090
:1037B00089473E85B2502254456182801D7186CE74
:1037C000A2CC80102326A4FA2324B4FAB287A30340
:1037D000F4FA232604FE232404FEA30304FE032597
:1037E00084FAEF602009AA872326F4FE93050000DF
:1037F000032584FAEF50901DAA8763DD0700832715
:10380000C4FA138717002326E4FA1307D002238093
:10381000E700A1A093050000032584FAEF5050159E
:10382000AA8785EF8327C4FA138717002326E4FAB3
:10383000130700032380E7008327C4FA13871700C8
:103840002326E4FA1307E0022380E7008327C4FA63
:10385000130700032380E70061A20325C4FEEF6085
:10386000E00CAA87BE85032584FAEF503048AA876A
:103870002324F4FA19A8B56783A507FD032584FA64
:10388000EF50901DAA872324F4FA834774FA138714
:10389000F7FFA303E4FAE5F3032584FAEF50907DE4
:1038A000AA872324F4FE1DA8834774FE13871700FC
:1038B000A303E4FEBE860327C4FEA9473367F702CD
:1038C00093972600930604FFB69723A0E7FE0327ED
:1038D000C4FEA947B347F7022326F4FE8327C4FE9C
:1038E000E1F7A1A0834774FEFD178A07130704FFC1
:1038F000BA9783A707FE13D7F741B98F998F93F72C
:10390000F70F9387070393F6F70F8327C4FA1387FC
:1039100017002326E4FA1397860161872380E700C6
:10392000834774FEFD17A303F4FE834774FEDDFB9B
:103930008327C4FA138717002326E4FA1307E0024B
:103940002380E700832784FEB1E38327C4FA1307AB
:1039500000032380E70069A0834774FE13871700E4
:10396000A303E4FEBE86032784FEA9473367F7025C
:1039700093972600930604FFB69723A6E7FC032738
:1039800084FEA947B347F7022324F4FE832784FE6D
:10399000E1F7A1A0834774FEFD178A07130704FF10
:1039A000BA9783A7C7FC13D7F741B98F998F93F7BD
:1039B000F70F9387070393F6F70F8327C4FA13874C
:1039C00017002326E4FA1397860161872380E70016
:1039D000834774FEFD17A303F4FE834774FEDDFBEB
:1039E000F640664425618280011122CE0010232614
:1039F000A4FE8327C4FEFD8B0547B316F70037E707
:103A000000E08327C4FE9583938707048A07BA974B
:103A100094C30100724405618280011122CE00101E
:103A20002326A4FE8327C4FEFD8B0547B316F700AB
:103A300037E700E08327C4FE9583938707068A074C
:103A4000BA9794C30100724405618280011106CEC9
:103A500022CC00102326A4FE0325C4FEEFF0DFF8DD
:103A60000100F240624405618280011106CE22CC41
:103A700000102326A4FE0325C4FEEFF01FFA010068
:103A8000F240624405618280411122C600080100B3
:103A9000324441018280411106C622C4000883A736
:103AA000C18599C783A7C1851387F7FF23AEE1843A
:103AB00083A7C18599E3EFC00FF50100B24022440E
:103AC00041018280411106C622C4000883A7C18536
:103AD00099E3EFC0EFF283A7C1851387170023AEE8
:103AE000E1840100B240224441018280411122C69A
:103AF000000893055052B747014013850780EF2017
:103B00006067AA8789CB93055052B7470140138558
:103B10000780EF20407601003244410173002030DD
:103B2000411122C6000893055052B7470040138543
:103B30000740EF202064AA87A1C303A7C18485475B
:103B40006315F700EFF06FEF05A003A7C184894765
:103B50006315F700EFE01F9901A803A7C1848D4703
:103B60006314F700EFF0EFEA93055052B7470040B7
:103B700013850740EF20207001003244410173009B
:103B80002030411122C6000893055052B75700401B
:103B900013850780EF20005EAA8789CB93055052DA
:103BA000B757004013850780EF20E06C01003244D6
:103BB000410173002030411122C600089305505284
:103BC000B7570040138507C0EF20C05AAA8789CB9A
:103BD00093055052B7570040138507C0EF20A069E6
:103BE00001003244410173002030411122C6000817
:103BF0009305505237550040EF20C057AA8789CB14
:103C0000EFE0DF909305505237550040EF20A0665B
:103C100001003244410173002030411122C60008E6
:103C200093055052B727004013850780EF2080543A
:103C3000AA8789CB93055052B72700401385078088
:103C4000EF206063010032444101730020304111D4
:103C500022C6000893055052B7270040138507C0BD
:103C6000EF204051AA878DC703A7C1848547630908
:103C7000F70003A7C18489476314F700EFE01F84AE
:103C800093055052B7270040138507C0EF20A05E70
:103C900001003244410173002030411122C6000866
:103CA0009305505237250040EF20C04CAA8799C792
:103CB0009305505237250040EF20E05B010032446D
:103CC000410173002030411122C60008B70705509A
:103CD00083C7070193F7F70F918B85C3EFE07F86CA
:103CE000B707055083C7070113F7F70FB70705504C
:103CF0006D9B1377F70F2388E700010032444101E1
:103D000073002030411122C600080545EF00F01D68
:103D10002A8785476315F7000545EF0070220100EB
:103D20003244410173002030411122C60008094588
:103D3000EF00B01B2A8785476315F7000945EF00A0
:103D4000302001003244410173002030411122C66D
:103D500000081145EF0070192A8785476315F700A1
:103D60001145EF00F01D0100324441017300203085
:103D7000411122C600082145EF0030172A878547E8
:103D80006315F7002145EF00B01B010032444101EB
:103D900073002030411122C600084145EF00F014A5
:103DA0002A8785476315F7004145EF007019010028
:103DB0003244410173002030411122C6000813052E
:103DC0000002EF0090122A8785476316F70013055B
:103DD0000002EF00F01613050004EF0010112A870F
:103DE00085476316F70013050004EF0070151305EF
:103DF0000008EF00900F2A8785476316F700130528
:103E00000008EF00F01313050010EF00100E2A87D2
:103E100085476316F70013050010EF0070121305B5
:103E20000020EF00900C2A8785476316F7001305E2
:103E30000020EF00F01001003244410173002030F7
:103E4000411122C6000813050040EF00100A2A871E
:103E500085476316F70013050040EF00700E856775
:103E600013850780EF0070082A8785476317F700DE
:103E7000856713850780EF00B00C0565EF00F0063D
:103E80002A8785476315F7000565EF00700B096504
:103E9000EF00B0052A8785476317F7080965EF002B
:103EA000300A85450145EFD0DFCE01001305D0066D
:103EB000EFC0AFFEAA873E878547E309F7FE0145BD
:103EC000EFD0BFDCAA873E85EF40B041B56703A6BF
:103ED00087FE83A6C7FEEF30F07AAA872E883E853C
:103EE000C285B56703A607FF83A647FFEF30500CD6
:103EF000AA872E883E85C285EF50703A2A8723A074
:103F0000E1860145EFD0BFDEB7370140938707C098
:103F10002392070283A70186154795463E86814571
:103F20000145EFE0FFCA1165EF00207C2A87854735
:103F30006315F7001165EF00B0002165EF00E07A2E
:103F40002A8785476315F7002165EF00607F010030
:103F50003244410173002030411122C600088545DA
:103F6000B7370140138507C0EF10305AAA8781CBBD
:103F70008545B7370140138507C0EF101060010079
:103F80003244410173002030411122C600088545AA
:103F900037050040EF107057AA8791CB854537054C
:103FA0000040EF10905D13052008EFC00FF30100F3
:103FB0003244410173002030411122C6000885457A
:103FC000B707004013850740EF103054AA8781CB14
:103FD0008545B707004013850740EF10105A0100D0
:103FE0003244410173002030411122C6000885454A
:103FF000B717004013850780EF103051AA8781CB97
:104000008545B717004013850780EF101057010052
:104010003244410173002030411122C60008854519
:10402000B7170040138507C0EF10304EAA8781CB29
:104030008545B7170040138507C0EF1010540100E5
:104040003244410173002030411122C600088545E9
:1040500037150040EF10704BAA8791C7854537157B
:104060000040EF10905101003244410173002030B4
:10407000411122C600088545B71700401385074047
:10408000EF10B048AA8781CB8545B717004013854C
:104090000740EF10904E0100324441017300203080
:1040A000411122C600088545B737014013850740F6
:1040B000EF10B045AA8781CB8545B73701401385FE
:1040C0000740EF10904B0100324441017300203053
:1040D000411122C600088545B7570140138507C026
:1040E000EF10B042AA8781CB8545B75701401385B1
:1040F00007C0EF10904801003244410173002030A6
:10410000411122C60008854537550140EF10F03FA8
:10411000AA8791C7854537550140EF101046010029
:104120003244410173002030411122C600080100D1
:104130003244410173002030411122C6000801A021
:10414000011106CE22CC0010AA872317F4FE0357D4
:10415000E4FE83A7018763C8E70013057008EFC07A
:10416000CFD723A8018683A701871387170023A829
:10417000E1860100F240624405618280411106C679
:1041800022C40008C1460146854513057008EFC0EA
:104190002FDBEFE0DFC08567138687BB85679385DC
:1041A000873813050010EFC01FF00146856793851F
:1041B000873813052010EFC01FEF014685679385F0
:1041C000873813050031EFC01FEE014685679385E0
:1041D000873813052031EFC01FED014685679385B1
:1041E000873813051010EFC01FEC014685679385D3
:1041F000873813053010EFC01FEB014685679385A4
:10420000873813051031EFC01FEA01468567938593
:10421000873813053031EFC01FE9C1460146854597
:104220003D45EFC0EFD10146930520034145EFC066
:104230009FE7130670049D67938567041D45EFC0D3
:104240000F9E0100B240224441018280411106C606
:1042500022C44AC24EC00008EFF0DF86B747950877
:1042600013850740EFE0FFFFEFF0AFB0EFF01FF175
:10427000EFF07F8285453D45EFC0EFBAB567138605
:1042800087FF81450145EFE05F8835670327870297
:1042900023A2E18683A741863E8579202A8723A42D
:1042A000E18683A781863E85EF50E062AA87BE85BE
:1042B0004145EFC0FFD703A741858967938707F47E
:1042C0003357F7029307401FB307F7023E8981492E
:1042D0004A85CE85EFB09FFE81454145EFC05FD551
:1042E0001D45EFC0CF86AA873E872396E1861D45F0
:1042F000EFC08F908397C186BE85B5671385870011
:10430000EF60A0428397C1863E85EF502062AA8766
:10431000154795463E8681450145EFE07F8B1305A5
:10432000803EEFF0FFE16DBF797106D622D4001810
:10433000232EA4FCB56783A507030325C4FDEF4026
:104340001038AA873E87B56783A547033A85EF40B3
:104350007000AA873E87B56783A587033A85EF403B
:10436000B06FAA872326F4FE0325C4FEEF506068D1
:10437000B56703A6070483A64704EF306043AA8706
:104380002E883E85C285B56703A6870483A6C70429
:10439000EF30502FAA872E883E85C285EF502070BF
:1043A000AA873E85B25022544561828001A001A0B7
:1043B00001A001A001A001A001A001A001A001A0F5
:1043C00001A001A001A001A001A001A001A001A0E5
:1043D00001A001A001A001A001A001A001A001A0D5
:1043E00001A001A001A001A001A001A001A001A0C5
:1043F00001A001A001A001A001A001A001A001A0B5
:1044000001A001A001A001A001A001A001A001A0A4
:1044100001A001A001A001A001A001A001A001A094
:1044200001A001A001A001A001A001A001A001A084
:1044300001A001A001A001A001A001A001A001A074
:1044400001A001A001A001A001A001A001A001A064
:1044500001A001A001A001A001A001A001A001A054
:1044600001A001A001A001A001A07390123497C186
:10447000FF1F9381215C17C100201301A1B817A56C
:1044800000001305E59397C5FF1F9385A5B7138615
:10449000018363FAC5008322050023A0550011059E
:1044A0009105E3EAC5FE138501839385C193637784
:1044B000B500232005001105E36DB5FEFD427390A4
:1044C00002BCFD4273904280B782000093828288D2
:1044D00073A0023097C2FFFF938242B693E232008C
:1044E00073905230EF00400197020000938242D651
:1044F0007390123473002030411106C622C40008A4
:10450000B71702409843B71702401367170098C3C4
:10451000B7170240D443B71702403707FFF8758F2B
:10452000D8C3B71702409443B71702403707F7FEC6
:104530007D17758F98C3B71702409443B717024091
:104540003707FCFF7D17758F98C3B7170240D44318
:10455000B7170240370781FF7D17758FD8C3B7178C
:10456000024037079F0098C731200100B240224423
:1045700041018280411106C622C400083120010099
:10458000B240224441018280011122CE0010232634
:1045900004FE232404FEB71702409443B7170240D9
:1045A0004167558F98C3B71702409843B707020079
:1045B000F98F2324F4FE8327C4FE85072326F4FE07
:1045C000832784FE99E70327C4FE93070050E31C6A
:1045D000F7FCB71702409843B7070200F98F89C765
:1045E00085472324F4FE19A0232404FE032784FE18
:1045F00085476318F70EB72702409843B727024054
:104600001367070198C3B72702409843B7270240B2
:10461000719B98C3B72702409843B727024013679E
:10462000270098C337170240B71702405843D8C332
:1046300037170240B71702405843D8C33717024014
:10464000B71702405843D8C3B7170240D443B7172F
:1046500002403707C1FF7D17758FD8C3B7F7FF1F1B
:104660009387C77098439167F98F99EBB71702400A
:10467000D443B717024037073D00558FD8C309A868
:10468000B7170240D443B71702404167558FD8C3CC
:10469000B71702409443B717024037070001558F00
:1046A00098C30100B71702409843B7070002F98F7B
:1046B000F5DBB7170240D843B7170240719BD8C348
:1046C000B7170240D843B717024013672700D8C373
:1046D0000100B7170240DC4313F7C700A147E31AF4
:1046E000F7FE0100724405618280797122D60018BC
:1046F000232EA4FC232604FE232404FEB707014036
:10470000938707409C430327C4FDF98F2324F4FEBD
:10471000B707014093870740D84B8327C4FDF98F23
:1047200081CB832784FE89C785472326F4FE19A001
:10473000232604FE8327C4FE3E85325445618280D1
:10474000011122CE00102326A4FEB7070140938753
:1047500007400327C4FED8CB010072440561828064
:10476000397122DE80002326A4FC2324B4FC2326F6
:1047700004FE232004FE232404FE232E04FC232213
:1047800004FE232C04FC832784FC9C47BD8B23263A
:10479000F4FE832784FC9C47C18B89CB832784FC50
:1047A000DC430327C4FED98F2326F4FE832784FC31
:1047B00083D7070093F7F70FF1CF8327C4FC9C43FF
:1047C0002322F4FE232404FE65A8832784FE0547E4
:1047D000B317F700232EF4FC832784FC83D707004C
:1047E0003E878327C4FDF98F2320F4FE032704FEB0
:1047F0008327C4FD6311F708832784FE8A07232ECD
:10480000F4FC8327C4FD3D47B317F700232CF4FCC9
:10481000832784FD93C7F7FF032744FEF98F2322E4
:10482000F4FE8327C4FD0327C4FEB317F700032754
:1048300044FED98F2322F4FE832784FC98479307F4
:104840008002631BF700832784FE05473317F700B8
:104850008327C4FCD8CB05A0832784FC9847930703
:104860008004631AF700832784FE05473317F70097
:104870008327C4FC98CB832784FE85072324F4FE7A
:10488000032784FE9D47E3F2E7F48327C4FC032754
:1048900044FE98C3832784FC03D707009307F00FD7
:1048A00063F1E70E8327C4FCDC432322F4FE2324B8
:1048B00004FE75A8832784FEA1070547B317F700F8
:1048C000232EF4FC832784FC83D707003E878327AD
:1048D000C4FDF98F2320F4FE032704FE8327C4FDC3
:1048E0006312F708832784FE8A07232EF4FC8327AC
:1048F000C4FD3D47B317F700232CF4FC832784FD48
:1049000093C7F7FF032744FEF98F2322F4FE832782
:10491000C4FD0327C4FEB317F700032744FED98F55
:104920002322F4FE832784FC984793078002631BAD
:10493000F700832784FEA10705473317F700832775
:10494000C4FCD8CB832784FC984793078004631B5F
:10495000F700832784FEA10705473317F700832755
:10496000C4FC98CB832784FE85072324F4FE032709
:1049700084FE9D47E3F0E7F48327C4FC032744FE4D
:10498000D8C30100725421618280011122CE00102F
:104990002326A4FEAE872322C4FE2315F4FE83271C
:1049A00044FE99C70357A4FE8327C4FE98CB31A0C9
:1049B0000357A4FE8327C4FED8CB010072440561CF
:1049C0008280797122D60018232EA4FC232CB4FCFB
:1049D000232404FE232204FE232604FE232004FEB7
:1049E0008327C4FD63D80700B7070140DC4F2326A7
:1049F000F4FE31A0B7070140DC432326F4FE8327F1
:104A0000C4FDC183BD8B2320F4FE0327C4FDC16711
:104A1000FD17F98F2324F4FE0327C4FDB7073000E8
:104A20007D8FB70730006315F7020327C4FEB70771
:104A300000F1FD17F98F2326F4FEB7070140D44398
:104A4000B7070140370700F17D17758FD8C3ADA0B8
:104A50000327C4FDB7071000F98F8DCB832704FE11
:104A60000D47B317F7002322F4FE832744FE93C7B4
:104A7000F7FF0327C4FEF98F2326F4FE0327C4FEA5
:104A8000B707000FD98F2326F4FE3DA08327C4FD6E
:104A9000D5839207032784FEB317F70093C7F7FF68
:104AA0000327C4FEF98F2326F4FE0327C4FEB707AD
:104AB000000FD98F2326F4FE832784FD91CF83270F
:104AC000C4FDD5839207032784FEB317F70003279D
:104AD000C4FED98F2326F4FE8327C4FD63D80700C4
:104AE000B70701400327C4FED8CF31A0B707014064
:104AF0000327C4FED8C30100325445618280397156
:104B000022DE80002326A4FC232204FE232604FEAA
:104B1000232004FE232E04FC232404FEB7170240A6
:104B2000DC43B18B2322F4FE032744FE9147630349
:104B3000F702032744FEA1476306F702832744FEDA
:104B4000639907148327C4FC37177A0013070720DB
:104B500098C389AA8327C4FC37177A001307072054
:104B600098C389A2B7170240D843B7073C00F98F12
:104B70002326F4FEB7170240D843C167F98F2320DC
:104B8000F4FE8327C4FEC98389072326F4FEB7F702
:104B9000FF1F9387C77098439167F98F91EB0327A5
:104BA000C4FEC5476319F704C9472326F4FEA1A034
:104BB0000327C4FE89476315F700C9472326F4FE7F
:104BC0000327C4FEBD476318F700B5472326F4FE4C
:104BD00085472324F4FE0327C4FEC1476315F7006D
:104BE000BD472326F4FE0327C4FEC5476315F7001F
:104BF000C1472326F4FE832704FEA1E3B747024002
:104C0000938707809C43C18B89CF0327C4FEB717C6
:104C10007A00938707203307F7028327C4FC98C3E1
:104C200099A80327C4FEB7173D0093870790330761
:104C3000F7028327C4FC98C33DA8B7170240D843A6
:104C4000B7070200F98F89CF0327C4FEB7173D00CD
:104C5000938707903307F7028327C4FC98C321A8E2
:104C60000327C4FEB7177A00938707203307F7029C
:104C70008327C4FC98C3032784FE85476313F70288
:104C80008327C4FC9C4313D717008327C4FC98C315
:104C900009A88327C4FC37177A001307072098C395
:104CA00011A00100B7170240DC4393F7070F23223E
:104CB000F4FE832744FE91832322F4FEB7070020ED
:104CC0001387C700832744FEBA9783C7070093F76B
:104CD000F70F232EF4FC8327C4FC98438327C4FDDD
:104CE0003357F7008327C4FCD8C3B7170240DC430F
:104CF00093F707702322F4FE832744FEA183232227
:104D0000F4FEB70700201387C700832744FEBA9735
:104D100083C7070093F7F70F232EF4FC8327C4FC07
:104D2000D8438327C4FD3357F7008327C4FC98C7B3
:104D3000B7170240D843916793870780F98F2322E2
:104D4000F4FE832744FEAD832322F4FEB707002040
:104D50001387C700832744FEBA9783C7070093F7DA
:104D6000F70F232EF4FC8327C4FCD8438327C4FD0C
:104D70003357F7008327C4FCD8C7B7170240D8437E
:104D8000B167F98F2322F4FE832744FEB9832322DF
:104D9000F4FE1387C180832744FEBA9783C70700B8
:104DA00093F7F70F232EF4FC8327C4FCD8478327FF
:104DB000C4FD3357F7028327C4FC98CB010072541B
:104DC00021618280011122CE00102326A4FE23241B
:104DD000B4FE832784FE99CBB7170240944FB717D0
:104DE00002400327C4FE558F98CF21A8B717024071
:104DF000944F8327C4FE13C7F7FFB7170240758F80
:104E000098CF0100724405618280011122CE00100A
:104E10002326A4FE2324B4FE832784FE99CBB71750
:104E20000240D44FB71702400327C4FE558FD8CF96
:104E300021A8B7170240D44F8327C4FE13C7F7FF3A
:104E4000B7170240758FD8CF010072440561828088
:104E5000011122CE00102326A4FE2324B4FE8327B2
:104E600084FE99CBB7170240D447B71702400327F7
:104E7000C4FE558FD8C721A8B7170240D44783274F
:104E8000C4FE13C7F7FFB7170240758FD8C70100DC
:104E9000724405618280011122CE00102326A4FEF7
:104EA0002324B4FE832784FE99CBB7170240944B8A
:104EB000B71702400327C4FE558F98CB21A8B71718
:104EC0000240944B8327C4FE13C7F7FFB717024075
:104ED000758F98CB0100724405618280011106CE66
:104EE00022CC00102326A4FE0327C4FEB7370140BE
:104EF000631BF70085450565EFF09FF58145056566
:104F0000EFF01FF591A00327C4FEB7470040938739
:104F10000780631BF70085451165EFF0DFF78145DA
:104F20001165EFF05FF70DA00327C4FEB7470040FF
:104F3000938707C0631AF70085452165EFF0BFF539
:104F400081452165EFF03FF50100F24062440561C3
:104F50008280797122D60018232EA4FC232CB4FC65
:104F6000231704FE8327C4FD83D707002317F4FE0D
:104F70000357E4FE8D6793870704F98F2317F4FE28
:104F8000832784FD03D70700832784FD83D7270069
:104F9000D98F139707014183832784FD83D7470067
:104FA000D98F139707014183832784FD83D7670037
:104FB000D98F139707014183832784FD83D7870007
:104FC000D98F139707014183832784FD83D7A700D7
:104FD000D98F139707014183832784FD83D7C700A7
:104FE000D98F139707014183832784FD83D7E70077
:104FF000D98F1397070141838357E4FED98F231775
:10500000F4FE8327C4FD0357E4FE2390E7008327C3
:10501000C4FD83D7C701139707014183FD779387A9
:10502000F77FF98F1397070141838327C4FD239EE0
:10503000E700832784FD03D707018327C4FD239856
:10504000E7000100325445618280011122CE001038
:105050002326A4FE2324B4FE832784FE8DC3832746
:10506000C4FE83D70700C207C18393E707041397E1
:10507000070141838327C4FE2390E70005A083270F
:10508000C4FE83D70700C207C18393F7F7FB1397CA
:10509000070141838327C4FE2390E7000100724487
:1050A00005618280797122D60018232EA4FC232C5E
:1050B000B4FC231704FE8327C4FD83D707002317FE
:1050C000F4FE0327C4FDB7370140938707C063068A
:1050D000F7060327C4FDB70700406300F706032760
:1050E000C4FDB7070040938707406308F704032710
:1050F000C4FDB7170040938707806300F7040327B8
:10510000C4FDB7170040938707C06308F702032761
:10511000C4FDB7370140938707406300F7020327B8
:10512000C4FDB7570140938707C06308F700032702
:10513000C4FDB75701406311F7028357E4FE93F7AC
:10514000F7F82317F4FE832784FD03D7270083573E
:10515000E4FED98F2317F4FE0327C4FDB7170040E0
:105160006309F7020327C4FDB71700409387074080
:105170006301F7028357E4FE93F7F7CF2317F4FE9A
:10518000832784FD03D767008357E4FED98F231755
:10519000F4FE8327C4FD0357E4FE2390E700832732
:1051A00084FD03D747008327C4FD2396E7028327A6
:1051B00084FD03D707008327C4FD2394E702032758
:1051C000C4FDB7370140938707C06308F702032780
:1051D000C4FDB7370140938707406300F7020327F8
:1051E000C4FDB7570140938707C06308F700032742
:1051F000C4FDB7570140631DF700832784FD83C7B3
:1052000087001397070141838327C4FD2398E70292
:105210008327C4FD0547239AE70001003254456106
:105220008280797122D60018232EA4FC232CB4FC92
:10523000231504FE231704FE231604FE8327C4FD52
:1052400083D70702C207C183F99B139707014183E4
:105250008327C4FD2390E7028327C4FD83D7070279
:105260002317F4FE8327C4FD83D747002316F4FEDB
:105270008327C4FD83D787012315F4FE8357A4FE3B
:1052800093F7F7F82315F4FE8357A4FEF19B23153B
:10529000F4FE832784FD03D707008357A4FED98F2C
:1052A0002315F4FE8357E4FEF59B2317F4FE8327B2
:1052B00084FD03D787008357E4FED98F2317F4FEBC
:1052C000832784FD03D727008357E4FED98F231754
:1052D000F4FE0327C4FDB7370140938707C0630876
:1052E000F7020327C4FDB7370140938707406300E7
:1052F000F7020327C4FDB7570140938707C063082F
:10530000F7000327C4FDB7570140631CF706835716
:10531000E4FEDD9B2317F4FE832784FD03D7A7005B
:105320008357E4FED98F2317F4FE8357E4FEED9BE9
:105330002317F4FE832784FD03D747008357E4FE39
:10534000D98F2317F4FE8357C4FE93F7F7EF231684
:10535000F4FE8357C4FE93F7F7DF2316F4FE83278A
:1053600084FD03D7C7008357C4FED98F2316F4FEEC
:10537000832784FD03D7E7008357C4FED98F231604
:10538000F4FE8327C4FD0357C4FE2392E70083275E
:10539000C4FD0357A4FE239CE700832784FD03D7A5
:1053A00067008327C4FD239AE7028327C4FD0357C0
:1053B000E4FE2390E7020100325445618280797156
:1053C00022D60018232EA4FC232CB4FC231504FEA3
:1053D000231704FE231604FE8327C4FD83D7070288
:1053E000C207C183BD9B1397070141838327C4FD77
:1053F0002390E7028327C4FD83D707022317F4FE17
:105400008327C4FD83D747002316F4FE8327C4FDFA
:1054100083D787012315F4FE0357A4FEE577FD1714
:10542000F98F2315F4FE8357A4FE93F7F7CF2315C6
:10543000F4FE832784FD83D70700A2071397070193
:1054400041838357A4FED98F2315F4FE8357E4FECE
:1054500093F7F7FD2317F4FE832784FD83D7870096
:1054600092071397070141838357E4FED98F2317CF
:10547000F4FE832784FD83D7270092071397070143
:1054800041838357E4FED98F2317F4FE0327C4FD1D
:10549000B7370140938707C06308F7020327C4FDAD
:1054A000B7370140938707406300F7020327C4FD25
:1054B000B7570140938707C06308F7000327C4FD6F
:1054C000B75701406310F70A8357E4FE93F7F7F7E5
:1054D0002317F4FE832784FD83D7A7009207139731
:1054E000070141838357E4FED98F2317F4FE8357C6
:1054F000E4FE93F7F7FB2317F4FE832784FD83D79D
:10550000470092071397070141838357E4FED98F21
:105510002317F4FE8357C4FE93F7F7BF2316F4FE58
:105520000357C4FEFD779387F77FF98F2316F4FEA8
:10553000832784FD83D7C7008A0713970701418318
:105540008357C4FED98F2316F4FE832784FD83D7A7
:10555000E7008A071397070141838357C4FED98F59
:105560002316F4FE8327C4FD0357C4FE2392E700ED
:105570008327C4FD0357A4FE239CE700832784FDF3
:1055800003D767008327C4FD239CE7028327C4FD5C
:105590000357E4FE2390E702010032544561828004
:1055A000797122D60018232EA4FC232CB4FC2315D9
:1055B00004FE231704FE231604FE8327C4FD83D7AD
:1055C0000702C207C18393F7F7EF139707014183DF
:1055D0008327C4FD2390E7028327C4FD83D70702F6
:1055E0002317F4FE8327C4FD83D747002316F4FE58
:1055F0008327C4FD83D7C7012315F4FE8357A4FE78
:1056000093F7F7F82315F4FE8357A4FEF19B2315B7
:10561000F4FE832784FD03D707008357A4FED98FA8
:105620002315F4FE8357E4FE93F7F7DF2317F4FE08
:10563000832784FD83D78700A2071397070141833F
:105640008357E4FED98F2317F4FE832784FD83D785
:105650002700A2071397070141838357E4FED98FE0
:105660002317F4FE0327C4FDB7370140938707C013
:105670006308F7020327C4FDB7370140938707404B
:105680006300F7020327C4FDB7570140938707C0A3
:105690006308F7000327C4FDB75701406312F70AF8
:1056A0000357E4FEFD779387F77FF98F2317F4FE06
:1056B000832784FD83D7A700A2071397070141839F
:1056C0008357E4FED98F2317F4FE8357E4FE93F744
:1056D000F7BF2317F4FE832784FD83D74700A20773
:1056E0001397070141838357E4FED98F2317F4FEF4
:1056F0000357C4FEFD77FD17F98F2316F4FE0357F9
:10570000C4FEF977FD17F98F2316F4FE832784FD75
:1057100083D7C70092071397070141838357C4FEBD
:10572000D98F2316F4FE832784FD83D7E7009207E1
:105730001397070141838357C4FED98F2316F4FEC4
:105740008327C4FD0357C4FE2392E7008327C4FDCB
:105750000357A4FE239EE700832784FD03D7670039
:105760008327C4FD239EE7028327C4FD0357E4FE7D
:105770002390E7020100325445618280797122D67C
:105780000018232EA4FC232CB4FC231604FE23159E
:1057900004FE231704FE8327C4FD83D70702139753
:1057A00007014183FD77FD17F98F139707014183A7
:1057B0008327C4FD2390E7028327C4FD83D7070214
:1057C0002315F4FE8327C4FD83D747002317F4FE77
:1057D0008327C4FD83D7C7012316F4FE0357C4FEF5
:1057E000E577FD17F98F2316F4FE8357C4FE93F770
:1057F000F7CF2316F4FE832784FD83D70700A20783
:105800001397070141838357C4FED98F2316F4FEF3
:105810000357A4FEF977FD17F98F2315F4FE8327AC
:1058200084FD83D78700B20713970701418383570D
:10583000A4FED98F2315F4FE832784FD83D7270088
:10584000B2071397070141838357A4FED98F23150D
:10585000F4FE0327C4FDB7370140938707C06308F0
:10586000F7020327C4FDB737014093870740630061
:10587000F7020327C4FDB7570140938707C06308A9
:10588000F7000327C4FDB75701406316F70203571B
:10589000E4FEF177FD17F98F2317F4FE832784FDCB
:1058A00083D7C7009A071397070141838357E4FE04
:1058B000D98F2317F4FE8327C4FD0357E4FE2392F8
:1058C000E7008327C4FD0357C4FE239EE700832718
:1058D00084FD03D767008327C4FD2390E704832753
:1058E000C4FD0357A4FE2390E70201003254456132
:1058F0008280011122CE00102326A4FE8327C4FE3D
:105900007D572392E7008327C4FE23900700832757
:10591000C4FE239307008327C4FE23910700832737
:10592000C4FE2384070001007244056182800111D6
:1059300022CE00102326A4FE2324B4FE832784FE57
:105940008DC38327C4FE83D70700C207C18393E7B3
:1059500017001397070141838327C4FE2390E700B4
:1059600039A88327C4FE83D70700C207C183F99BE8
:105970001397070141838327C4FE2390E7000100AA
:10598000724405618280011122CE00102326A4FEFC
:105990002324B4FE832784FE95C38327C4FE83D7C4
:1059A0004704139707014183E177D98F13970701C4
:1059B00041838327C4FE2392E70415A08327C4FEF6
:1059C00083D74704139707014183A167FD17F98F18
:1059D0001397070141838327C4FE2392E704010044
:1059E000724405618280011106CE22CC001023266C
:1059F000A4FEAE872315F4FE8357A4FEBE850325BF
:105A0000C4FE2D208327C4FE83D78700C207C1832D
:105A100093E777001397070141838327C4FE2394FC
:105A2000E7000100F240624405618280797122D66C
:105A30000018232EA4FCAE87231DF4FC231704FEBC
:105A40008327C4FD83D787002317F4FE8357E4FE22
:105A500093F7F7F82317F4FE0357E4FE8357A4FDEA
:105A6000D98F2317F4FE8327C4FD0357E4FE239444
:105A7000E7000100325445618280797122D6001816
:105A8000232EA4FCAE87231DF4FC231704FE8327DA
:105A9000C4FD83D787012317F4FE8357E4FEDD9B03
:105AA0002317F4FE0357E4FE8357A4FDD98F231771
:105AB000F4FE8327C4FD0357E4FE239CE7000100A6
:105AC000325445618280797122D60018232EA4FCBD
:105AD000AE87231DF4FC231704FE8327C4FD83D760
