:100000006F40604313000000130000001300000065
:100010001300000013000000130000001300000094
:100020001300000013000000130000001300000084
:08003000130000007300100032
:100038000000000000000000F83D0000083E00003D
:10004800000000007C4300000000000000000000E9
:100058007E43000080430000000000000000000014
:1000680082430000000000008443000000000000FC
:1000780086430000884300008A4300008C43000048
:100088008E43000090430000583A00007C3A00007C
:10009800A03A0000C43A0000E83A00009C4300007F
:1000A8009E430000A0430000A2430000A4430000B8
:1000B800A6430000A8430000AA430000AC43000088
:1000C800AE430000B0430000B24300000C3B000008
:1000D800B6430000283C0000BA430000BC430000BF
:1000E800583C0000883C0000B83C0000C4430000B5
:1000F800C6430000C8430000CA430000CC430000C8
:10010800CE4300004038000074380000D6380000A4
:10011800943B0000D8430000DA430000DC430000B1
:10012800703D0000E0430000E2430000E4430000AB
:10013800E6430000E8430000E83C0000EC43000010
:100148000A3900003E390000183D0000403D00001B
:10015800F6430000F8430000FA430000FC430000A7
:10016800FE43000000440000024400000444000074
:1001780006440000084400000A4400004A6D0000DC
:100188000E440000104400001A3A00006E390000C6
:10019800A2390000EE3900001A440000A03D00001A
:1001A8001E4400002044000022440000D03D00000E
:1001B80026440000284400002A4400002C44000083
:1001C8002E44000030440000324400003444000053
:1001D8000000000000000000000000000000000017
:1001E8000000000000000000000000000000000007
:0801F8000000000000000000FF
:10020000737504308280B76200009382820873A005
:10021000023082803D432A876373C3029377F700DD
:10022000BDEFADE5937606FF3D8ABA960CC34CC38D
:100230000CC74CC74107E36BD7FE11E28280B306BF
:10024000C3408A069702000096966780A60023079F
:10025000B700A306B7002306B700A305B700230520
:10026000B700A304B7002304B700A303B700230318
:10027000B700A302B7002302B700A301B700230110
:10028000B700A300B7002300B700828093F5F50FF5
:1002900093968500D58D93960501D58D61B793967C
:1002A00027009702000096968682E78086FA96805D
:1002B000C1171D8F3E96E374C3F8A5B73367B50029
:1002C000FD530D8B79E7B7877F7F9387F7F7104151
:1002D0009441B372F6003363F600BE92B3E262005B
:1002E0006397720C6318D6065041D441B372F6007E
:1002F0003363F600BE92B3E262006398720A631B36
:10030000D60410459445B372F6003363F600BE92EE
:10031000B3E262006391720A631ED6025045D4456F
:10032000B372F6003363F600BE92B3E26200639AE2
:1003300072086311D60210499449B372F600336310
:10034000F600BE92B3E26200639372085105D105D4
:10035000E30FD6F61317060193970601631CF70007
:100360001357060193D706013305F7409375F50F30
:1003700091E982804183C1833305F7409375F50F7E
:1003800091E182801377F70F93F7F70F3305F7406A
:1003900082800346050083C60500050585056313B5
:1003A000D60065FA3305D640828011059105E31227
:1003B000D6FE014582802105A105E31CD6FC01453E
:1003C00082803105B105E316D6FC014582804105E6
:1003D000C105E310D6FC01458280011122CE001038
:1003E0002324A4FE2326B4FEB7F700E023A00700D1
:1003F000B7F700E08146014794C7D8C7B7F700E0D8
:10040000054798C30100B7F700E003A8C7009C4761
:100410000327C4FEC286636CD7000327C4FEC286CE
:10042000E313D7FE032784FE6363F700E9BF0100EF
:10043000724405618280011122CE00102326A4FEA1
:10044000AE87A305F4FE8347B4FE9DC78327C4FE91
:10045000BD8B0547B317F70093960701C182832729
:10046000C4FE13D75700B5670A079387C7AFBA977B
:100470009C43368798CB35A08327C4FEBD8B0547A8
:10048000B317F70093960701C1828327C4FE13D7E1
:100490005700B5670A079387C7AFBA979C4336875B
:1004A000D8CB0100724405618280797122D6001890
:1004B000232EA4FC8327C4FD958393F7F70F9D8B10
:1004C000A307F4FE8327C4FD93F7F70FBD8B230723
:1004D000F4FE0347F4FEB5670A079387C7AFBA97E0
:1004E0009C43DC470347E4FE85463397E60042071A
:1004F00041833A868346F4FE35678A061307C7AF01
:1005000036971843B18F5CC7010032544561828031
:10051000797106D622D40018232EA4FC232CB4FC17
:10052000232AC4FC2328D4FC8327C4FD958393F796
:10053000F70F9D8BA307F4FE8327C4FD93F7F70FF6
:10054000BD8B2307F4FE0327C4FD9307F00F63055B
:10055000F7140327C4FD9307F00F6301F7148347D3
:10056000F4FE91E785451145EF50A02641A00347D1
:10057000F4FE85476317F70085452145EF50602558
:10058000B5A00347F4FE89476317F7008545414549
:10059000EF502024A1A80347F4FE8D476318F7000D
:1005A000854513050002EF50C02289A00347F4FEE1
:1005B00091476318F700854513050004EF5060214B
:1005C00035A00347F4FE95476318F70085451305EA
:1005D0000008EF50002019A80347F4FE994763175D
:1005E000F700854513050010EF50A01E8347E4FE79
:1005F0000547B317F700C207C1832310F4FE032792
:1006000084FD85476317F702832704FDC207C18372
:10061000A183C207C18389E78D472322F4FE11A875
:10062000832704FDC207C183A183C207C18323229C
:10063000F4FE832704FDC207C18393F7F70F232439
:10064000F4FE0347F4FEB5670A079387C7AFBA976E
:100650009C433E87930704FEBE853A85EF403031C8
:10066000032784FD8547631CF7020347F4FEB56743
:100670000A079387C7AFBA979C43BE868347E4FEB9
:100680000547B317F700C207C183032644FDBE85A3
:100690003685EF40705021A0010011A00100B2503A
:1006A000225445618280011106CE22CC00102326FF
:1006B000A4FE8327C4FE89EB93068031014685455D
:1006C0002145B9356F00C0720327C4FE8547631A00
:1006D000F70093068031014685452545153D6F009D
:1006E00020710327C4FE8947631AF70093068031FF
:1006F000014685452945293D6F00806F0327C4FECB
:100700008D47631AF70093068031014685452D45D4
:1007100001356F00E06D0327C4FEC147631BF7007E
:10072000930680310146854513059008D5336F0047
:10073000206C0327C4FEC547631AF7009306803177
:10074000014685451305B008E1335DA50327C4FEC6
:10075000C947631AF70093068031014685451305A2
:10076000D0087D3371A50327C4FECD47631AF70077
:1007700093068031014685451305E008513B8DAD58
:100780000327C4FE930700106319F7009306803116
:10079000014685450145AD3BA1AD0327C4FE930746
:1007A00010106319F7009306803101468545054511
:1007B00085333DAD0327C4FE930720106319F7006E
:1007C00093068031014685450945993315A50327D0
:1007D000C4FE930730106319F70093068031014679
:1007E00085450D45353329A50327C4FE9307001120
:1007F0006319F70093068031014685453D45093B65
:10080000C5AB0327C4FE93071011631AF7009306C4
:1008100080310146854513053002DD39D1AB032710
:10082000C4FE93072011631AF70093068031014636
:1008300085451305A002E93965AB0327C4FE93077C
:100840003011631AF7009306803101468545130580
:10085000B0027D3971AB0327C4FE930700206319F2
:10086000F70093068031014685451945553149A366
:100870000327C4FE930710206319F7009306803105
:10088000014685451D456931A5A30327C4FE93078D
:100890002020631AF7009306803101468545130531
:1008A0000002BD31B1A30327C4FE93073020631AB1
:1008B000F7009306803101468545130510028939FA
:1008C00005AB0327C4FE93070021631AF7009306C4
:1008D000803101468545130560041D3911AB03279E
:1008E000C4FE93071021631AF70093068031014676
:1008F0008545130570042939E5A90327C4FE93072C
:100900002021631AF70093068031014685451305BF
:100910008004FD3EF1A90327C4FE93073021631A2A
:10092000F700930680310146854513059004CD36C6
:10093000C1A10327C4FE93070022631AF7009306A0
:1009400080310146854513054002D93655A103275C
:10095000C4FE93071022631AF70093068031014604
:100960008545130550026D3661A10327C4FE930728
:100970000030631AF7009306803101468545130560
:1009800060027936B5A10327C4FE93071030631ABD
:10099000F7009306803101468545130570028D3EB0
:1009A00081A90327C4FE93072030631AF70093063A
:1009B00080310146854513058002993E15A903271C
:1009C000C4FE93073030631AF70093068031014666
:1009D0008545130590022D3E21A90327C4FE9307E8
:1009E0000031631AF70093068031014685451305EF
:1009F000C006393EF5AE0327C4FE93071031631AD3
:100A0000F70093068031014685451305D006093667
:100A1000C5A60327C4FE93072031631AF700930687
:100A20008031014685451305E006DD34D1A6032754
:100A3000C4FE93073031631AF700930680310146F4
:100A400085451305F006E93465A60327C4FE930720
:100A500000406319F7009306803101468545014542
:100A6000453C79A60327C4FE930710406319F7009D
:100A700093068031014685450545593C95AE0327CF
:100A8000C4FE930720406319F700930680310146A6
:100A900085450945B53CA9AE0327C4FE9307304000
:100AA0006319F70093068031014685450D458D3465
:100AB00081A60327C4FE93070070631AF70093060C
:100AC00080310146854513056004993415A6032736
:100AD000C4FE93071070631AF70093068031014635
:100AE0008545130570042D3421A60327C4FE930702
:100AF0002070631AF700930680310146854513057F
:100B000080043934F5A40327C4FE93073070631AB8
:100B1000F700930680310146854513059004CD3AD0
:100B2000C1AC0327C4FE93070071631AF700930654
:100B300080310146854513056002D93A55AC03273B
:100B4000C4FE93071071631AF700930680310146C3
:100B50008545130570026D3A61AC0327C4FE930707
:100B60002071631AF700930680310146854513050D
:100B70008002793AB5AC0327C4FE93073071631A3B
:100B8000F70093068031014685451305D0044932AC
:100B900085A48327C4FE9387078081EB9306803169
:100BA000014685450945AD32A1A40327C4FE8567EA
:100BB000938717806319F7009306803101468545B6
:100BC0000D45B93235A40327C4FE85679387278076
:100BD0006319F700930680310146854511450D3AAA
:100BE00001AC0327C4FE856793873780631AF7003B
:100BF000930680310146854513054004113ACDAA7C
:100C00000327C4FE856793870781631AF70093065D
:100C100080310146854513059006DD38D1AA0327AA
:100C2000C4FE856793871781631AF70093068031A6
:100C3000014685451305B006E1385DAA0327C4FEC9
:100C4000856793872781631AF700930680310146F1
:100C500085451305D0066D3861AA0327C4FE856754
:100C600093873781631AF7009306803101468545E3
:100C70001305F0067138ADAA0327C4FE8567938774
:100C80000790631AF70093068031014685451305E6
:100C90008002BD38B1AA0327C4FE856793871790E9
:100CA000631AF700930680310146854513059002CB
:100CB00085303DAA0327C4FE856793872790631A72
:100CC000F7009306803101468545130530048930CD
:100CD00005A20327C4FE856793873790631BF7003F
:100CE00093068031014685451305B004EFF05F821D
:100CF00001A20327C4FE856793870791631BF70052
:100D0000930680310146854513051006EFF05F809C
:100D1000C5A00327C4FE856793871791631BF7005F
:100D2000930680310146854513053006EFF04FFEEE
:100D3000C1A00327C4FE856793872791631BF70033
:100D4000930680310146854513055006EFF04FFCB0
:100D500045A00327C4FE856793873791631BF7007F
:100D6000930680310146854513057006EFF04FFA72
:100D700041A00327C4FE856793870792631BF70092
:100D8000930680310146854513053002EFF04FF898
:100D900085A00327C4FE856793871792631BF7001E
:100DA000930680310146854513054002EFF04FF66A
:100DB00081A00327C4FE856793872792631BF700F2
:100DC000930680310146854513055002EFF04FF43C
:100DD00005A00327C4FE856793873792631AF7003F
:100DE00093068031014685451305F004EFF04FF27C
:100DF0000100F240624405618280397106DE22DC26
:100E000080002326A4FC2324B4FC2322C4FC231743
:100E100004FE8327C4FCA1838D453E85EF00501757
:100E2000AA873E871306900BB5679385C7913A85CD
:100E3000EF2020158327C4FCA1833E85EF00D01A44
:100E40000325C4FCEFF03F8685450545EF4070184B
:100E50008327C4FC13D747008547631AF7008545ED
:100E6000B70716001385070CEF40805601A28327B1
:100E7000C4FC13D74700C547631AF7008545B70779
:100E8000180013850730EF40A054CDA08327C4FC81
:100E900013D7470093071002631AF7008545B71769
:100EA0001A00138507C0EF40A052C9A08327C4FCD5
:100EB00013D7470093072002631AF7008545B71739
:100EC0001A0013850780EF40A0504DA08327C4FC73
:100ED00013D74700930710036317F700854505658F
:100EE000EF40004F61A08327C4FC13D7470093074E
:100EF0001007631BF700B7070140D84FB707014041
:100F000013674700D8CF9DA08327C4FC13D74700A1
:100F100093071008631BF700B7070140D84FB707C6
:100F2000014013670701D8CF91A08327C4FC13D7D2
:100F3000470093071009631BF700B7070140D84F1C
:100F4000B707014013670704D8CF0DA08327C4FC5F
:100F500013D7470093072009631AF700B70701402A
:100F6000D84FB707014013670702D8CF03A7818086
:100F7000832784FCB357F702C1832317F4FE03A72A
:100F800081808357E4FE8507BE86832784FCB38770
:100F9000F602B357F7022316F4FE0357C4FE832765
:100FA00044FC3307F702896793870771B357F70249
:100FB0002315F4FE8357C4FEFD17C207C183231215
:100FC000F4FE8357E4FE2310F4FE231304FE2311E2
:100FD00004FE230404FE8327C4FC13D78700B567EF
:100FE0000A079387C7B1BA979C433E87930704FECD
:100FF000BE853A85EF40F02B930700072318F4FCD9
:1010000085472319F4FC231A04FC8357A4FE231BF1
:10101000F4FC8947231CF4FC8947231DF4FC231EA0
:1010200004FC231F04FC8327C4FC8D8BB9EF8327AA
:10103000C4FC13D78700B5670A079387C7B1BA976F
:101040009C433E87930704FDBE853A85EF40503EA2
:101050008327C4FC13D78700B5670A079387C7B1F6
:10106000BA979C43A1453E85EF5000358327C4FCC9
:1010700013D78700B5670A079387C7B1BA979C4310
:1010800091453E85EF50004889A28327C4FC13F7A1
:10109000370085476311F7068327C4FC13D7870001
:1010A000B5670A079387C7B1BA979C433E879307F2
:1010B00004FDBE853A85EF4070518327C4FC13D7E9
:1010C0008700B5670A079387C7B1BA979C43A145C4
:1010D0003E85EF5020338327C4FC13D78700B567C4
:1010E0000A079387C7B1BA979C43930500403E8592
:1010F000EF500046D9A88327C4FC13F7370089476F
:101100006310F7068327C4FC13D78700B5670A0767
:101110009387C7B1BA979C433E87930704FDBE856A
:101120003A85EF40D0688327C4FC13D78700B567A2
:101130000A079387C7B1BA979C43A1453E85EF50F4
:1011400000328327C4FC13D78700B5670A0793874B
:10115000C7B1BA979C4391453E85EF50C044B5A0B6
:101160008327C4FC13F737008D476310F7068327E6
:10117000C4FC13D78700B5670A079387C7B1BA972E
:101180009C433E87930704FDBE853A85EF40F07F80
:101190008327C4FC13D78700B5670A079387C7B1B5
:1011A000BA979C43A1453E85EF5020308327C4FC6D
:1011B00013D78700B5670A079387C7B1BA979C43CF
:1011C000930500403E85EF50C0428327C4FC13D7EF
:1011D0008700B5670A079387C7B1BA979C438545CF
:1011E0003E85EF5060178327C4FC13D78700B5678F
:1011F0000A079387C7B1BA979C4385453E85EF5050
:1012000020100100F250625421618280011106CE4B
:1012100022CC00102326A4FE2324B4FE2322C4FEE5
:101220002320D4FE8327C4FE89EB93068031054634
:1012300085451545EFF0CFAD61A00327C4FEC1473A
:10124000631BF70093068031054685451305300280
:10125000EFF00FACB5A00327C4FE93070002631B99
:10126000F70093068031054685451305D002EFF05F
:101270002FAAB9A00327C4FE93070003631BF7003E
:10128000930680310546854513053002EFF04FA8DF
:1012900005A80327C4FE93070004631BF700930609
:1012A0008031054685451305A004EFF06FA609A817
:1012B00013069002B567938587970145EF10704C30
:1012C000032784FE8947631AF70093068031054699
:1012D00085451D45EFF0CFA361A0032784FEC947D4
:1012E000631BF700930680310546854513055002C0
:1012F000EFF00FA2B5A0032784FE93072002631B23
:10130000F70093068031054685451305F002EFF09E
:101310002FA0B9A0032784FE93072003631BF700C7
:10132000930680310546854513055002EFF04F9E28
:1013300005A8032784FE93072004631BF700930688
:101340008031054685451305C004EFF06F9C09A860
:1013500013060003B567938587970145EF10704228
:10136000032744FE8547631AF7009306403005467D
:1013700081451945EFF0CF9979A8032744FEC54769
:10138000631BF70093064030054681451305400274
:10139000EFF00F9849A0032744FE93071002631B48
:1013A000F70093064030054681451305E002EFF053
:1013B0002F9695A0032744FE93071004631BF700A4
:1013C00093064030054681451305B004EFF04F9475
:1013D00099A0032744FE93071003631BF7009306AD
:1013E00040300546814513054002EFF06F9225A07D
:1013F000032744FE9307F00F6317F7009307F00FDE
:101400002322F4FE09A813068003B5679385879706
:101410000145EF101037930600310146854503253D
:1014200004FEEFF0EF8E0100F2406244056182801D
:101430005D7186C6A2C480082326A4FC2324B4FCC4
:101440002322C4FC2320D4FC232EE4FA232CF4FA18
:10145000232A04FB231704FEB5670327C4FC0A07ED
:10146000938707B1BA979C433E85EF400048854576
:101470000545EF400036032704FCC1476311F7021E
:101480000327C4FBC947631CF700032784FBC54738
:101490006317F70085450545EF30907315A80327BE
:1014A00004FC930700046315F7020327C4FB9307AA
:1014B0002004631FF700032784FB930710046319BC
:1014C000F7008545B717200013850710EF305070DF
:1014D0008327C4FC91E785450565EF40802F25A053
:1014E0000327C4FC85476317F70085451165EF4066
:1014F000A03211A80327C4FC89476316F70085456D
:101500002165EF406031832644FB032684FB83255D
:10151000C4FB032504FCDD39231E04FC93074010A3
:10152000231FF4FC231004FE032784FC8547630576
:10153000F702832784FC81CF032784FC8947630358
:10154000F702032784FC8D476304F7020DA82311DB
:1015500004FE231204FE25A0231104FE8547231256
:10156000F4FE31A889472311F4FE231204FE01A8DA
:1015700089472311F4FE85472312F4FE010003A7D7
:101580004185832744FCB357F7022317F4FE035722
:10159000E4FE9307F00F63F7E70093078003231738
:1015A000F4FE61A80357E4FE9307F00763F7E70032
:1015B000930700032317F4FE49A00357E4FE9307A3
:1015C000F00363F7E700930780022317F4FEB5A04A
:1015D0000357E4FEFD4763F7E70093070002231774
:1015E000F4FEA1A80357E4FEBD4763F6E700E14718
:1015F0002317F4FE99A00357E4FE9D4763F6E70026
:10160000C1472317F4FE15A80357E4FE8D4763F680
:10161000E700A1472317F4FE0DA00357E4FE85471A
:1016200063F5E700231704FE09A81306D008B56781
:10163000938587970145EF10D0148357E4FE231458
:10164000F4FE930700202313F4FE231504FE9D47A8
:101650002316F4FEB5670327C4FC0A07938707B176
:10166000BA979C433E879307C4FDBE853A85EF40F9
:10167000202FB5670327C4FC0A07938707B1BA97E1
:101680009C4385453E85EF40203D0100B640264401
:1016900061618280011122CE00102326A4FEAE8754
:1016A000A305F4FEB5670327C4FE0A07938707B1B5
:1016B000BA979C433E878347B4FEC207C183231673
:1016C000F7000100B5670327C4FE0A07938707B137
:1016D000BA979C4383D78700C207C18393F7070853
:1016E000F5F30100724405618280011122CE0010E1
:1016F0002326A4FEAE872315F4FE8357A4FEA18300
:10170000C207C18393F6F70FB5670327C4FE0A0724
:10171000938707B1BA979C433E8793970601C1838D
:101720002316F7000100B5670327C4FE0A07938755
:1017300007B1BA979C4383D78700C207C18393F749
:101740000708F5F38357A4FE93F6F70FB567032751
:10175000C4FE0A07938707B1BA979C433E879397C5
:101760000601C1832316F7000100B5670327C4FEF5
:101770000A07938707B1BA979C4383D78700C207AC
:10178000C18393F70708F5F3010072440561828075
:10179000011122CE00102326A4FE2324B4FE032729
:1017A000C4FE0A079387C189BA979C4381EF032738
:1017B000C4FE0A079387C189BA97032784FE98C39A
:1017C000854739A80327C4FE0A079387C189BA97BA
:1017D0009C43032784FE6314F700854711A08147CB
:1017E0003E85724405618280011106CE22CC001034
:1017F0002326A4FE8327C4FE81EB854585671385D8
:101800000780EF30107D6DA80327C4FE854763175E
:10181000F70085450545EF4020005DA00327C4FE85
:1018200089476317F70085450945EF30F07E49A8E1
:101830000327C4FE8D476317F70085451145EF3038
:10184000B07DBDA80327C4FE91476317F700854507
:101850002145EF30707CADA00327C4FE9547631788
:10186000F70085454145EF30307B99A80327C4FE3A
:1018700099476318F700854513050002EF30D079CA
:1018800081A00327C4FE9D476317F70085450965BE
:10189000EF30307435A00327C4FEA1476318F7006A
:1018A000854537050800EF30D07219A80327C4FE1C
:1018B000A5476317F700854537051000EF307071B5
:1018C0000100F240624405618280011106CE22CC03
:1018D00000102326A4FE2324B4FE8327C4FE81EB3C
:1018E000E146014685452545EFE09FC2C9AA032789
:1018F000C4FE8947631AF700E14601468545130592
:101900006002EFE0FFC065AA0327C4FEC147631968
:10191000F700E146014685450945EFE07FBF45A256
:101920000327C4FEC947631AF700E146014685450F
:1019300013055006EFE0DFBD59A20327C4FE93074D
:101940000002631AF700E146014685451305A0022F
:10195000EFE01FBCADA20327C4FE93072002631A69
:10196000F700E146014685451305A004EFE05FBAA4
:10197000B9A20327C4FE93074002631AF700E146A9
:101980000146854513058006EFE09FB80DAA0327A1
:10199000C4FE93070004631AF700E146014685453B
:1019A0001305A004EFE0DFB619AA0327C4FE9307CE
:1019B0002004631AF700E14601468545130500023D
:1019C000EFE01FB5EDA80327C4FE93070005631AD7
:1019D000F700E146014685451305C004EFE05FB31B
:1019E000F9A80327C4FE93072005631AF700E14610
:1019F0000146854513058008EFE09FB1C9A0032784
:101A0000C4FE93070006631AF700E14601468545C8
:101A100013050004EFE0DFAF5DA00327C4FE9307CA
:101A20002006631AF700E1460146854513050004C8
:101A3000EFE01FAE69A00327C4FE93070007631AF7
:101A4000F700E1460146854513052004EFE05FAC51
:101A5000BDA00327C4FE930720076319F700E146E2
:101A6000014685451945EFE0BFAA91A80327C4FEAA
:101A700093074007631AF700E146014685451305C1
:101A8000C008EFE0FFA825A80327C4FE93070008BD
:101A9000631AF700E1460146854513054004EFE06F
:101AA0003FA731A80327C4FE930720086319F70056
:101AB000E146014685451305E008EFE07FA50327D1
:101AC00084FE8547631AF70093068004014681452A
:101AD0002945EFE0FFA3D5AA032784FE8D47631BAA
:101AE000F700930680040146814513057002EFE07C
:101AF0003FA2E1AA032784FEC547631AF7009306B5
:101B00008004014681450D45EFE09FA07DAA032793
:101B100084FECD47631BF700930680040146814590
:101B200013056006EFE0DF9E4DA2032784FE9307B6
:101B30001002631BF70093068004014681451305DC
:101B4000B002EFE0FF9C51A2032784FE930730020E
:101B5000631BF70093068004014681451305B0041A
:101B6000EFE01F9B9DA2032784FE93075002631B97
:101B7000F700930680040146814513059006EFE0C7
:101B80003F99A1A2032784FE93071004631BF7006B
:101B900093068004014681451305B004EFE05F978A
:101BA0002DA2032784FE93073004631BF7009306DE
:101BB00080040146814513051002EFE07F9531A2B4
:101BC000032784FE93071005631BF7009306800428
:101BD0000146814513052006EFE09F93FDA00327F2
:101BE00084FE93073005631BF700930680040146CB
:101BF000814513059008EFE0BF91C1A8032784FE3B
:101C000093071006631BF700930680040146814585
:101C100013051004EFE0DF8F4DA8032784FE930720
:101C20003006631BF70093068004014681451305C7
:101C3000B008EFE0FF8D51A8032784FE930710073B
:101C4000631BF700930680040146814513053004A9
:101C5000EFE01F8C9DA8032784FE93073007631ACB
:101C6000F70093068004014681451D45EFE05F8A39
:101C7000A9A8032784FE93075007631BF700930668
:101C80008004014681451305D008EFE07F8835A820
:101C9000032784FE93071008631BF7009306800454
:101CA0000146814513055004EFE09F8639A80327BC
:101CB00084FE93073008631AF700930680040146F8
:101CC00081451305F008EFE0BF840100F240624453
:101CD00005618280011106CE22CC00102326A4FECD
:101CE000AE87A305F4FEB5670327C4FE0A079387F2
:101CF00047B4BA979C433E878347B4FE3E8693051C
:101D000050523A85EF407047B7E700E09386018272
:101D10000327C4FE369703470700BA97238007407E
:101D20008347B4FE81CF138701828327C4FEBA970D
:101D300083C707003E85EF10604C19A81387018206
:101D40008327C4FEBA9783C707003E85EF10E04C97
:101D50000100F240624405618280011122CE001030
:101D60002326A4FE2324B4FEB5670327C4FE0A0776
:101D7000938747B4BA979C4383D70700C207C183B0
:101D800093F707028DC7B5670327C4FE0A07938739
:101D900047B4BA979C4383D74700C207C18313F760
:101DA000F70F832784FE2380E700854711A0814732
:101DB0003E85724405618280797106D622D400186E
:101DC000232EA4FC232CB4FC232AC4FC2328D4FCFB
:101DD00085450545EF30F01F832504FD032544FDAF
:101DE000EFF0BFAE032744FD8947631CF7000327CC
:101DF00004FD8D476317F70085451145EF30405DC1
:101E000095A2032744FDC947631CF700032704FD7F
:101E1000CD476317F70085452145EF30605B99A2F8
:101E2000032744FD930720026310F702032704FDF4
:101E300093073002631AF7008545B707140013852E
:101E40000701EF30E05839AA032744FD9307400209
:101E50006310F702032704FD93075002631AF7008B
:101E60008545B707140013850703EF306056DDA8DA
:101E7000032744FD93072004631DF700032704FD97
:101E8000930730046317F70085450565EF3040542C
:101E9000D1A8032744FD930720056310F702032709
:101EA00004FD93073005631AF7008545B707200046
:101EB00013851700EF30C05175A0032744FD930729
:101EC00020066310F702032704FD93073006631A08
:101ED000F7008545B717008013850780EF30404F26
:101EE00051A0032744FD930720076312F70203273D
:101EF00004FD93073007631CF700B7070140D44F78
:101F0000B707014037074000558FD8CFA1A8032756
:101F100044FD930740076312F702032704FD93076C
:101F20005007631CF700B7070140D44FB7070140C3
:101F300037078000558FD8CF35A0032744FD93077E
:101F400020086311F702032704FD93073008631B81
:101F5000F700B7070140D44FB70701403707000229
:101F6000558FD8CF8327C4FD91E785451165EF30A4
:101F7000500669A80327C4FD85476318F700854507
:101F800037050200EF30500951A00327C4FD8947EF
:101F90006318F700854537050400EF30F007BDA052
:101FA0000327C4FD8D476318F700854537050800F2
:101FB000EF309006A1A80327C4FD91476318F700EE
:101FC000854537051000EF30300589A00327C4FD93
:101FD00095476318F700854513050004EF30D003DB
:101FE00035A00327C4FD99476318F70085451305FD
:101FF0000008EF30700219A80327C4FD9D4763173E
:10200000F700854513050010EF301001832784FD8C
:102010002320F4FE231204FE231304FE231404FEE3
:10202000231604FEB1472315F4FEB5670327C4FD4C
:102030000A07938747B4BA979C433E87930704FEE9
:10204000BE853A85EF40206AB5670327C4FD0A07BD
:10205000938747B4BA979C4385453E85EF40F00B84
:102060000100B250225445618280411106C622C44B
:102070000008938501831945CD3105469385018379
:102080001385418CEF10E0000100B2402244410171
:102090008280411106C622C400089385118305453C
:1020A0006D390546938511831385818DEF00707E10
:1020B0000100B240224441018280411106C622C47F
:1020C000000803A781848947630FF70003A7818471
:1020D0008D476314F700992039A003A781849147A5
:1020E0006313F7004D280100B24022444101828071
:1020F000411106C622C4000803A7818491476314D6
:10210000F700ED2839A003A781848D476313F700FA
:102110008D280100B240224441018280411106C64F
:1021200022C4000883C771833E8793874183BA978F
:10213000BE851145EFF07FC2AA8781CB83C771832B
:10214000850713F7F70FA38BE18203C771838547D8
:10215000631AF70003C741839307500A6304F7002B
:10216000A38B018203C771838D476317F700A38B8D
:1021700001820547238CE1820100B24022444101E3
:102180008280411122C6000805472389E1820100AF
:10219000324441018280411106C622C4000883C72F
:1021A000F1833E879387C183BA97BE851145EFF0CF
:1021B000DFBAAA8781CB83C7F183850713F7F70FAF
:1021C000A38FE18203C7F1838547631AF70003C732
:1021D000C1839307500A6304F700A38F018203C7EA
:1021E000F1838D476317F700A38F01820547238092
:1021F000E1840100B240224441018280411122C6A3
:1022000000080547A380E184010032444101828037
:10221000011106CE22CC0010AA87A307F4FEB567F1
:102220009387C7AFDC433E8785671CCBB567938731
:10223000C7AFDC433E8785675CCBB5679387C7AF85
:10224000DC473E87930700105CCB8347F4FEBE85D6
:102250000545EFF02FC4B5679387C7AFDC433E87D2
:1022600085671CCBB5679387C7AFDC473E8793076D
:1022700000101CCBB5679387C7AFDC433E878567EB
:102280005CCB0100F240624405618280011106CE00
:1022900022CC0010AA8736872317F4FEAE872316B8
:1022A000F4FEB2872315F4FEBA872314F4FEB707B1
:1022B000002083C74722C207C1830357E4FEB33718
:1022C000F70093F7F70F3E871306F004B567938581
:1022D000479D3A85EF00F04A83C75180C207C1830A
:1022E0000357C4FEB337F70093F7F70F3E87130683
:1022F0000005B5679385479D3A85EF009048B7077D
:10230000002083C74722C207C1830357A4FEB33707
:10231000F70093F7F70F3E8713061005B56793850F
:10232000479D3A85EF00F04583C75180C207C183BE
:10233000035784FEB337F70093F7F70F3E87130672
:102340002005B5679385479D3A85EF00904383A7A5
:10235000418491C703A7418485476315F708130596
:10236000A0027D3581450545EFF0CFB28357E4FEED
:1023700093F7F70F890793F7F70FBE850545EFF041
:102380006FB181450545EFF0EFB08357A4FE93F799
:10239000F70F890793F7F70FBE850545EFF08FAF6D
:1023A0001305B002B53581450545EFF0AFAE835753
:1023B000C4FE93F7F70F850793F7F70FBE85054522
:1023C000EFF04FAD81450545EFF0CFAC835784FE6C
:1023D00093F7F70F850793F7F70FBE850545EFF0E5
:1023E0006FAB59A01305A002253581450545EFF0D7
:1023F0006FAA8357E4FE93F7F70F850793F7F70F5C
:10240000BE850545EFF00FA981450545EFF08FA882
:102410008357A4FE93F7F70F850793F7F70FBE8551
:102420000545EFF02FA71305B002DD3381450545C3
:10243000EFF04FA68357C4FE93F7F70F890793F782
:10244000F70FBE850545EFF0EFA481450545EFF098
:102450006FA4835784FE93F7F70F890793F7F70F5D
:10246000BE850545EFF00FA31305C00255330100EB
:10247000F240624405618280797106D622D4001848
:10248000AA87231FF4FCB707002083C747223E8793
:1024900083C75180B307F7022326F4FEB707002055
:1024A00083C74722C207C183FD17139707014183E2
:1024B00083C75180C207C183FD17C207C183BE868F
:1024C0003A8681450145D93321A88357E4FDBE856D
:1024D0000545EFF08FA18327C4FEFD172326F4FEE8
:1024E0008327C4FEFDF30100B2502254456182806F
:1024F000011122CE00102326A4FE0327C4FE23A22E
:10250000E1840327C4FE854763EDE700B707002099
:10251000130700F82382E722130700FAA382E18061
:1025200019A8B7070020130700FA2382E722130730
:1025300000F8A382E18001007244056182800111EC
:1025400022CE0010AA872E872317F4FEBA872316FF
:10255000F4FEB70700200357E4FE2390E722B707F5
:1025600000200357C4FE2391E72201007244056155
:102570008280797106D622D40018AA87AE86328767
:10258000231FF4FCB687231EF4FCBA87A30DF4FCCA
:10259000B707002083C74722C207C1830357E4FD62
:1025A000B337F70093F7F70F3E871306800FB56731
:1025B0009385479D3A85EF00D01C83C75180C207A1
:1025C000C1830357C4FDB337F70093F7F70F3E8776
:1025D0001306900FB5679385479D3A85EF00701AF3
:1025E000A30704FE7DA88347F4FE139707014183E8
:1025F0008357C4FDBA9793950701C1818357E4FDC2
:102600009D071396070141828347F4FE1397070144
:1026100041838357C4FDBA971397070141838357BA
:10262000E4FDBA863E85EFF07FC68307B4FD93864E
:1026300007FE8347F4FE35679206130747B63697C1
:10264000BA9783C70700A306F4FE230704FE81A000
:102650008347D4FE858B91CBB707002083D7072211
:10266000BE850545EFF06F8809A8B707002083D71E
:102670002722BE850545EFF04F878347D4FE85832B
:10268000A306F4FE8347E4FE85072307F4FE034711
:10269000E4FE9D47E3FEE7FA8347F4FE8507A307C0
:1026A000F4FE0347F4FEBD47E3FFE7F20100B2503A
:1026B000225445618280797106D622D40018AA87F7
:1026C0002E87232CC4FC231FF4FCBA87231EF4FCA2
:1026D000B707002083C74722C207C1830357E4FD21
:1026E000B337F70093F7F70F3E8713067011B567FE
:1026F0009385479D3A85EF00D00883C75180C20774
:10270000C1830357C4FDB337F70093F7F70F3E8734
:1027100013068011B5679385479D3A85EF007006D3
:10272000231704FE3DA88357E4FE8E071397070185
:1027300041838357E4FDBA9793960701C18283577B
:10274000E4FE032784FDBA97038707008357C4FD7F
:102750003A86BE853685313D8357E4FE85072317CB
:10276000F4FE8357E4FE032784FDBA9783870700AE
:10277000DDFB0100B250225445618280011106CE7A
:1027800022CC4ACA4EC852C656C45AC25EC00010B5
:1027900083A7418513D627001308F00F9307F00F86
:1027A000130720029306000281450545EFE05FC84C
:1027B000C1460146854513058006EFD07FD5C14649
:1027C000014685451305A006EFD09FD4C1460146BA
:1027D00085451305C002EFD0BFD3C14605468545E8
:1027E0001305C006EFD0DFD283A741843E85EFF00A
:1027F0003FD0B707002003D70722B707002083D7B1
:102800002722BE853A85EFF09FD3B5679387C7AF80
:10281000DC473E87930700405CCB03A7418589676F
:10282000938707F43357F702BA878A07BA97860760
:102830003E8B814B5A85DE85EFD03FBAB5679387D3
:10284000C7AFDC473E87930700401CCB03A74185F9
:102850008967938707F43357F702BA879207998FEE
:102860008E073E8A814A5285D685EFD01FB74545EF
:10287000EFF01F9A03A741858967938707F43357C1
:10288000F702BA879207998F8E073E8981494A8558
:10289000CE85EFD09FB41305100BEFF07F978545E1
:1028A0000545EFE03FDF9305C0020545EFE09FDE01
:1028B0009305D0020545EFE0FFDD1305200BEFF097
:1028C0003F9585450545EFE0FFDC9305C0020545D2
:1028D000EFE05FDC9305D0020545EFE0BFDB1305B9
:1028E000300BEFF0FF9285450545EFE0BFDA930529
:1028F000C0020545EFE01FDA9305D0020545EFE081
:102900007FD985450545EFE0FFD89305C002054511
:10291000EFE05FD89305D0020545EFE0BFD7130580
:10292000400BEFF0FF8E9D450545EFE0BFD6130548
:10293000000CEFF0FF8D9305200A0545EFE09FD5D1
:1029400089450545EFE01FD5930540080545EFE0B3
:102950007FD41305100CEFF0BF8B9305500C054589
:10296000EFE05FD31305200CEFF09F8AA9450545E2
:10297000EFE05FD281450545EFE0DFD11305300C74
:10298000EFF01F899305A0080545EFE0BFD0930540
:10299000A0020545EFE01FD01305400CEFF05F8764
:1029A0009305A0080545EFE0FFCE9305E00E054531
:1029B000EFE05FCE1305500CEFF09F85B94505455C
:1029C000EFE05FCD13056003EFF09F8483A74184A0
:1029D00005476380E70281CB09476381E7020D4722
:1029E0006384E70205A89305000C0545EFE09FCA44
:1029F00015A081450545EFE0FFC929A89305000A08
:102A00000545EFE03FC939A0930500060545EFE015
:102A10007FC801001305000EEFF08FFFBD4505458F
:102A2000EFE05FC7E9450545EFE0DFC6BD45054579
:102A3000EFE05FC6E1450545EFE0DFC59305F00235
:102A40000545EFE03FC5930580020545EFE09FC4D3
:102A5000930500020545EFE0FFC3930520020545FD
:102A6000EFE05FC3FD450545EFE0DFC2ED450545FD
:102A7000EFE05FC2930530020545EFE0BFC193056B
:102A800070030545EFE01FC181450545EFE09FC09C
:102A90009D450545EFE01FC089450545EFE09FBF17
:102AA000C1450545EFE01FBF1305100EEFF04FF6CF
:102AB000BD450545EFE01FBEED450545EFE09FBD77
:102AC000BD450545EFE01FBDDD450545EFE09FBC79
:102AD000930530030545EFE0FFBB9305C0020545B4
:102AE000EFE05FBB930590020545EFE0BFBA9305A9
:102AF000E0020545EFE01FBA930500030545EFE04E
:102B00007FB9930500030545EFE0DFB89305900317
:102B10000545EFE03FB89305F0030545EFE09FB7AB
:102B200081450545EFE01FB79D450545EFE09FB6A0
:102B30008D450545EFE01FB6C1450545EFE09FB562
:102B40001305A002EFF0CFEC81450545EFE09FB4FF
:102B500089450545EFE01FB481450545EFE09FB38A
:102B6000930520080545EFE0FFB21305B002EFF032
:102B70002FEA81450545EFE0FFB18D450545EFE0C2
:102B80007FB181450545EFE0FFB09305300805456D
:102B9000EFE05FB01305000FEFF08FE785450545C7
:102BA000EFE05FAF1305600FEFF08FE6814505455D
:102BB000EFE05FAE1305A003EFF08FE59545054507
:102BC000EFE05FAD13059002EFF08FE4B707002050
:102BD00083D727223E85EFF03F8A0100F24062440E
:102BE0005249C249324AA24A124B824B0561828045
:102BF000411106C622C40008938501850545EFF002
:102C0000CF950546938501851385C18E5921010015
:102C1000B240224441018280411106C622C400080C
:102C2000938511850545EFF04F93054693851185F2
:102C300013850190B9290100B240224441018280EC
:102C4000011106CE22CC00102326A4FE0327C4FEC9
:102C500023AAE18411280325C4FE5120F12B010091
:102C6000F240624405618280411122C60008B71714
:102C700002409843B71702401367170098C3B7176D
:102C80000240D443B71702403707FFF8758FD8C307
:102C9000B71702409443B71702403707F7FE7D1776
:102CA000758F98C3B71702409443B7170240370790
:102CB000FCFF7D17758F98C3B7170240D443B71731
:102CC0000240370781FF7D17758FD8C3B7170240C1
:102CD00037079F0098C70100324441018280797113
:102CE00022D60018232EA4FC232604FE232404FE4F
:102CF000B71702409443B71702404167558F98C3F6
:102D0000B71702409843B7070200F98F2324F4FE57
:102D10008327C4FE85072326F4FE832784FE99E7D4
:102D20000327C4FE93070050E31CF7FCB7170240CB
:102D30009843B7070200F98F89C785472324F4FE1B
:102D400019A0232404FE032784FE85476315F71E7C
:102D5000B72702409843B72702401367070198C37B
:102D6000B72702409843B7270240719B98C3B72703
:102D7000024094438327C4FD1387F7FFB7376E01E2
:102D800093870760B357F70213F77700B72702401E
:102D9000558F98C337170240B71702405843D8C31E
:102DA00037170240B71702405843D8C337170240BD
:102DB000B71702405843D8C30327C4FDB7177A009A
:102DC00093870720631BF702B7170240D843B71752
:102DD0000240719BD8C3B7170240D843B7170240CF
:102DE00013671700D8C30100B7170240DC4313F77D
:102DF000C7009147E31AF7FE81A2B7170240D443F8
:102E0000B71702403707C1FF7D17758FD8C3032757
:102E1000C4FDB747950893870740631BF700B717B2
:102E20000240D443B71702404167558FD8C355A815
:102E30000327C4FDB7172707938707E0631CF70034
:102E4000B7170240D443B717024037073900558FF0
:102E5000D8C341A80327C4FDB7E7B8059387078007
:102E6000631CF700B7170240D443B7170240370777
:102E70002900558FD8C3B5A00327C4FDB7A74A04BE
:102E800093870720631CF700B7170240D443B71796
:102E9000024037071D00558FD8C3A1A00327C4FDEA
:102EA000B777DC02938707C0631CF700B7170240AF
:102EB000D443B717024037071100558FD8C315A068
:102EC0000327C4FDB7376E0193870760631BF700C4
:102ED000B7170240D443B717024037070500558F94
:102EE000D8C3B71702409443B71702403707000111
:102EF000558F98C30100B71702409843B7070002E7
:102F0000F98FF5DBB7170240D843B7170240719B22
:102F1000D8C3B7170240D843B7170240136727003A
:102F2000D8C30100B7170240DC4313F7C700A1471D
:102F3000E31AF7FE11A001A03254456182804111CD
:102F400022C6000801000100324441018280411183
:102F500006C622C400089306100213060002F16799
:102F6000938507200945EFE03FE585450945EFE0FA
:102F70007FD60547238CE1840100B2402244410101
:102F80008280011106CE22CC0010AA872324B4FE31
:102F90002322C4FEA307F4FE8347F4FE8DE383C718
:102FA000818591CB032644FE832584FEB567138576
:102FB000C7A3EF7000057D2CEFF07FF8F5BF01008F
:102FC000F240624405618280797106D622D40018ED
:102FD000232EA4FC232CB4FC232AC4FC232604FEA9
:102FE000A9A00100B567938747B49C4793050004E7
:102FF0003E85EF30B027AA87F5D7B567938747B4EA
:103000009C47BE86832784FD13871700232CE4FC8E
:1030100083870700C207C183BE853685EF30302223
:103020008327C4FE85072326F4FE0327C4FE8327D7
:1030300044FDE348F7FA832744FD3E85B25022540D
:1030400045618280011122CE00102326A4FE232494
:10305000B4FE8327C4FED843832784FE3E9783278C
:10306000C4FED8C319A88327C4FED8438327C4FE4F
:103070009C4B1D8F8327C4FED8C38327C4FE984B67
:103080008327C4FEDC43E3F0E7FE010072440561E0
:103090008280797106D622D40018232EA4FC232C1A
:1030A000B4FC232AC4FC8327C4FDDC47032744FD6A
:1030B000637EF70CC1228327C4FD984B8327C4FD90
:1030C000DC43B307F7402326F4FE032744FD8327A0
:1030D000C4FE63FDE7068327C4FD98438327C4FD30
:1030E000DC43BA970326C4FE832584FD3E85EF604A
:1030F00080468325C4FE0325C4FDEFF0BFF40327FB
:1031000084FD8327C4FEBA97232CF4FC8327C4FDD7
:1031100098438327C4FDDC43B306F700032744FD2F
:103120008327C4FEB307F7403E86832584FD36859A
:10313000EF606042032744FD8327C4FEB307F740D6
:10314000BE850325C4FDEFF0FFEF2DA08327C4FD4E
:1031500098438327C4FDDC43BA97032644FD8325A7
:1031600084FD3E85EF60203F832544FD0325C4FD9B
:10317000EFF05FED8327C4FDD847832744FD1D8F03
:103180008327C4FDD8C7C120814711A089473E8548
:10319000B250225445618280011122CE00102326B4
:1031A000A4FE8327C4FEFD8B0547B316F70037E75F
:1031B00000E08327C4FE9583938707048A07BA97A4
:1031C00094C30100724405618280011122CE001077
:1031D0002326A4FE8327C4FEFD8B0547B316F70004
:1031E00037E700E08327C4FE9583938707068A07A5
:1031F000BA9794C30100724405618280011106CE22
:1032000022CC00102326A4FE0325C4FEEFF0DFF835
:103210000100F240624405618280011106CE22CC99
:1032200000102326A4FE0325C4FEEFF01FFA0100C0
:10323000F240624405618280411122C6000801000B
:10324000324441018280411106C622C4000883A78E
:10325000C18599C783A7C1851387F7FF23AEE18492
:1032600083A7C18599E3EFC01FFA0100B240224451
:1032700041018280411106C622C4000883A7C1858E
:1032800099E3EFC0FFF783A7C1851387170023AE2B
:10329000E1840100B240224441018280011122CE2A
:1032A00000102326A4FE2324B4FE2322C4FE2320E0
:1032B000D4FE39AA832784FE83D707003567832687
:1032C000C4FE8A06130707B136971843A183C207C5
:1032D000C1832316F7000100B5670327C4FE0A0760
:1032E000938707B1BA979C4383D78700C207C183EE
:1032F00093F70708F5F3832744FE8DCBB5670327C3
:10330000C4FE0A07938707B1BA979C4383D7C700C7
:10331000C207C183A207C207C18393F707F01397BF
:1033200007014183832744FE2390E700832784FE1F
:1033300083D7070035678326C4FE8A06130707B1C3
:103340003697184393F7F70FC207C1832316F70088
:103350000100B5670327C4FE0A07938707B1BA9730
:103360009C4383D78700C207C18393F70708F5F30F
:10337000832744FEA1C7832744FE83D70700139702
:1033800007014187B5678326C4FE8A06938707B184
:10339000B6979C4383D7C700C207C183C207C187C2
:1033A00093F7F70FC207C187D98FC207C187139759
:1033B00007014183832744FE2390E700832784FE8F
:1033C00089072324F4FE832744FE89072322F4FE81
:1033D000832704FE1387F7FF2320E4FEE39C07EC1A
:1033E0000100724405618280411106C622C40008B2
:1033F00093060031054685451145EFD06F9183A7AF
:10340000418513D647001308F00F854709478146C9
:103410008D450145EFE0CF810100B24022444101DA
:103420008280797106D622D40018AA87231FF4FC63
:10343000231704FE81451145EFC0FFFF1307E4FE8B
:103440009307E4FD85463A86BE850145EFF01FE50A
:1034500085451145EFC03FFE8357E4FE3E85B250DF
:10346000225445618280797106D622D40018232E19
:10347000A4FCE177938707302310F4FEE17793876C
:1034800007402311F4FEA30704FECDA8835704FED2
:103490003E85EFF01FF9AA872312F4FE835724FE1E
:1034A0003E85EFF01FF8AA872313F4FE835744FEEE
:1034B000A207139707014187835764FEC207C1879C
:1034C00093F7F70FC207C187D98FC207C1872315AA
:1034D000F4FE230704FE8547A306F4FE1DA0035750
:1034E000A4FE8347D4FEB357F740858B91C783472B
:1034F000E4FE85072307F4FE8347D4FE8507A30671
:10350000F4FE0347D4FEBD47E3FBE7FC0347E4FEBC
:103510008357A4FEB98F858BA9EF8327C4FD03577A
:10352000A4FE2390E7008357A4FE8983C207C183CA
:103530003E8793078016B307F70293D6F7411167CA
:103540007D17758FBA97B987139707014183832732
:10355000C4FD2391E7008357A4FE858793F7F70FF7
:10356000858B13F7F70F8327C4FD2382E700854778
:1035700021A88347F4FE8507A307F4FE0347F4FE62
:103580008D47E3F5E7F081473E85B250225445610F
:1035900082801D7186CEA2CC8010AA87A307F4FA80
:1035A000AE872307F4FAB287A306F4FAB687231589
:1035B000F4FABA872306F4FA232204FE232404FE35
:1035C000232604FE232204FC232404FC232604FCDB
:1035D000232804FC232A04FC232C04FC232E04FCB3
:1035E000232004FE232804FA232A04FA232C04FAB5
:1035F000232E04FA232004FC85451545EF20601D89
:10360000854537050002EF20202185672312F4FE4F
:10361000E1472326F4FE8D472324F4FE930744FE5E
:10362000BE85B717014013850780EF1050348567BA
:10363000938707802312F4FE930780042326F4FE69
:10364000930744FEBE85B717014013850780EF102E
:103650001032232604FC232804FC232A04FC85477B
:10366000232CF4FC232E04FC232004FE8347C4FAFD
:103670002303F4FC8347F4FAA303F4FC8347D4FA4E
:103680002304F4FC8347E4FAA304F4FC8357A4FA6C
:103690002312F4FC930744FCBE85B76700401385F2
:1036A0000740EF104001230D04FA8547A30DF4FAFB
:1036B000230E04FA930700362318F4FA9307003414
:1036C0002319F4FA93070032231AF4FA930700300F
:1036D000231BF4FA231C04FA85472320F4FC9307E8
:1036E00004FB3E85EF1000200100F6406644256192
:1036F0008280397106DE22DC80002326A4FCAE879E
:10370000A305F4FC231704FE232C04FC230004FE71
:10371000A30004FE8347B4FC2301F4FE231704FE38
:1037200025A08357E4FE0327C4FC3E978357E4FE9D
:1037300003470700930604FFB697A389E7FE835764
:10374000E4FE85072317F4FE8347B4FCC207C18358
:103750000357E4FEE367F7FC930784FDBE85B76774
:10376000004013850740EF10603FAA87A306F4FED0
:10377000231704FE31A08357E4FE85072317F4FEC8
:103780008347D4FEBE85B767004013850740EF101E
:10379000605FAA873E8785476308F7000357E4FE0A
:1037A0008567F917E3F9E7FC0357E4FE8567FD1722
:1037B0006314F700854711A081473E85F25062549B
:1037C00021618280397106DE22DC80002326A4FC80
:1037D0008145B767004013850740EF10700CAA873A
:1037E00099E3814789A8930784FD3E868145B767A1
:1037F000004013850740EF10C06AA30704FE25A010
:103800000347F4FE8347F4FE8326C4FCB697930671
:1038100004FF3697034737FF2380E7008347F4FE12
:103820008507A307F4FE834724FE0347F4FEE369FC
:10383000F7FC834724FE3E85F2506254216182806A
:10384000411122C6000893055052B7470140138525
:103850000780EF300026AA8789CB93055052B747DF
:10386000014013850780EF30E0340100324441010C
:1038700073002030411122C6000893055052B7470B
:10388000004013850740EF30C022AA87A1C303A7D9
:10389000C18485476315F700EFF00FB805A003A7B3
:1038A000C18489476315F700EFE0AFFE01A803A7C5
:1038B000C1848D476314F700EFF08FB39305505226
:1038C000B747004013850740EF30C02E0100324457
:1038D000410173002030411122C600089305505267
:1038E000B757004013850780EF30A01CAA8789CB0B
:1038F00093055052B757004013850780EF30802B57
:1039000001003244410173002030411122C60008F9
:1039100093055052B7570040138507C0EF30601928
:10392000AA8789CB93055052B7570040138507C02B
:10393000EF30402801003244410173002030411132
:1039400022C600089305505237550040EF306016EC
:10395000AA8789CBEFE06FF69305505237550040A8
:10396000EF30402501003244410173002030411105
:1039700022C6000893055052B727004013850780E0
:10398000EF302013AA8789CB93055052B727004008
:1039900013850780EF30002201003244410173009B
:1039A0002030411122C6000893055052B72700402D
:1039B000138507C0EF30E00FAA878DC703A7C18426
:1039C00085476309F70003A7C18489476314F7009B
:1039D000EFE0AFE993055052B7270040138507C0C9
:1039E000EF30401D0100324441017300203041118D
:1039F00022C600089305505237250040EF30600B77
:103A0000AA8799C79305505237250040EF30801A96
:103A100001003244410173002030411122C60008E8
:103A2000B707055083C7070193F7F70F918B85C33D
:103A3000EFE00FECB707055083C7070113F7F70F47
:103A4000B70705506D9B1377F70F2388E700010038
:103A50003244410173002030411122C6000805455F
:103A6000EF1080692A8785476315F7000545EF1039
:103A7000006E01003244410173002030411122C622
:103A800000080945EF1040672A8785476315F7004E
:103A90000945EF10C06B0100324441017300203032
:103AA000411122C600081145EF1000652A8785479D
:103AB0006315F7001145EF108069010032444101A0
:103AC00073002030411122C600082145EF10C0626A
:103AD0002A8785476315F7002145EF1040670100ED
:103AE0003244410173002030411122C60008414593
:103AF000EF1080602A8785476315F7004145EF1076
:103B0000006501003244410173002030411122C69A
:103B1000000813050002EF10205E2A878547631610
:103B2000F70013050002EF10806213050004EF1088
:103B3000A05C2A8785476316F70013050004EF1081
:103B4000006113050008EF10205B2A878547631684
:103B5000F70013050008EF10805F13050010EF1049
:103B6000A0592A8785476316F70013050010EF1048
:103B7000005E13050020EF1020582A878547631642
:103B8000F70013050020EF10805C01003244410172
:103B900073002030411122C6000813050040EF10C9
:103BA000A0552A8785476316F70013050040EF10DC
:103BB000005A856713850780EF1000542A878547D0
:103BC0006317F700856713850780EF104058056578
:103BD000EF1080522A8785476315F7000565EF10BF
:103BE00000570965EF1040512A8785476315F70094
:103BF0000965EF10C0551165EF1000502A87854701
:103C00006315F7001165EF1080542165EF10C04E69
:103C10002A8785476315F7002165EF10405301009F
:103C20003244410173002030411122C6000885450D
:103C3000B7370140138507C0EF201021AA8781CB39
:103C40008545B7370140138507C0EF20F0260100F6
:103C50003244410173002030411122C600088545DD
:103C600037050040EF20501EAA8791CB85453705C8
:103C70000040EF20702413052008EFC01F830100CF
:103C80003244410173002030411122C600088545AD
:103C9000B707004013850740EF20101BAA8781CB90
:103CA0008545B707004013850740EF20F02001004D
:103CB0003244410173002030411122C6000885457D
:103CC000B717004013850780EF201018AA8781CB13
:103CD0008545B717004013850780EF20F01D0100D0
:103CE0003244410173002030411122C6000885454D
:103CF000B7170040138507C0EF201015AA8781CBA6
:103D00008545B7170040138507C0EF20F01A010062
:103D10003244410173002030411122C6000885451C
:103D200037150040EF205012AA8791C785453715F7
:103D30000040EF2070180100324441017300203030
:103D4000411122C600088545B7170040138507407A
:103D5000EF20900FAA8781CB8545B71700401385C8
:103D60000740EF20701501003244410173002030FC
:103D7000411122C600088545B73701401385074029
:103D8000EF20900CAA8781CB8545B737014013857A
:103D90000740EF20701201003244410173002030CF
:103DA000411122C600088545B7570140138507C059
:103DB000EF209009AA8781CB8545B757014013852D
:103DC00007C0EF20700F0100324441017300203022
:103DD000411122C60008854537550140EF20D00625
:103DE000AA8791C7854537550140EF20F00C0100A7
:103DF0003244410173002030411122C60008010005
:103E00003244410173002030411122C6000801A054
:103E1000011106CE22CC0010AA872317F4FE035707
:103E2000E4FE83A7418663C8E70013052008EFC0BE
:103E3000CFE723A2018683A741861387170023A219
:103E4000E1860100F240624405618280411106C6AC
:103E500022C40008C1460146854513052008EFC06D
:103E60002FEBC146014685451305B006EFC04FEA6A
:103E7000C1460146854513059006EFC06FE9C1466E
:103E8000014685451305F006EFC08FE8C14601469F
:103E900085451305D006EFC0AFE71306C05D9567F3
:103EA000938507E213050010EFC03FF51306C05DD0
:103EB0009567938507E20145EFC03FF4EFF0CFD25D
:103EC000EFE0DF8B0147B146154691450145EFF024
:103ED0004FEC0100B240224441018280797106D644
:103EE00022D44AD24ED00018AA872E87231FF4FC72
:103EF000BA87231EF4FC231704FE7DA883C76180C4
:103F00008D8793F7F70F858B93F7F70FBE85130512
:103F1000B006EFC04FD283C76180898793F7F70F50
:103F2000858B93F7F70FBE851305F006EFC0AFD072
:103F300083C76180858793F7F70F858B93F7F70F1A
:103F4000BE8513059006EFC00FCF83C76180858BB8
:103F500093F7F70FBE851305D006EFC0CFCD83C70B
:103F60006180858393F7F70F13978701618783C774
:103F700061808E07E207E187A18BE207E187D98F95
:103F8000E207E18713F7F70F2383E1800357C4FDAE
:103F900083A641858967938707F4B3D7F602B307F1
:103FA000F7023E8981494A85CE85EFC00FC383570A
:103FB000E4FE85072317F4FE0357E4FE8357E4FD70
:103FC000E36EF7F20100B250225412598259456152
:103FD0008280797106D622D44AD24ED00018AA87A0
:103FE0002E87231FF4FCBA87231EF4FC231704FE3C
:103FF0007DA883C77180858B93F7F70FBE85130566
:10400000B006EFC04FC383C77180858793F7F70F62
:10401000858B93F7F70FBE851305F006EFC0AFC190
:1040200083C77180898793F7F70F858B93F7F70F15
:10403000BE8513059006EFC00FC083C771808D87C2
:1040400093F7F70F858B93F7F70FBE851305D0060F
:10405000EFC06FBE83C77180858393F7F70F139707
:104060008701618783C771808E07E207E187A18B93
:10407000E207E187D98FE207E18713F7F70FA38300
:10408000E1800357C4FD83A641858967938707F4C0
:10409000B3D7F602B307F7023E8981494A85CE8538
:1040A000EFC0AFB38357E4FE85072317F4FE035731
:1040B000E4FE8357E4FDE36EF7F20100B2502254B0
:1040C00012598259456182801D7186CEA2CC801022
:1040D0002326A4FAB567938547A80325C4FAEF50B1
:1040E00090772324A4FEB567938587A8032584FED3
:1040F000EF5070762322A4FE832744FE6385071EBB
:10410000B5679385C7A8032544FEEFC02F9BAA87F8
:10411000639D0716B567938587A80145EF50B07377
:104120002320A4FEB567938507A9032504FEEFC0ED
:10413000EF98AA878DEBB567938587A80145EF5067
:104140009071232EA4FC8327C4FD638E07180325DA
:10415000C4FDEF50003BAA87C207C183BD453E8521
:10416000EFF0DFD749A2B567938547A9032504FE81
:10417000EFC0CF94AA878DEBB567938587A80145DB
:10418000EF50706D232CA4FC832784FD638D0714EE
:10419000032584FDEF50E036AA87C207C183BD45E1
:1041A0003E85EFF01FE381A2B567938587A90325BC
:1041B00004FEEFC0AF90AA87639707129307C4FC71
:1041C0003E85EFF04FAA232E04FA232004FC9147EA
:1041D000A307F4FE930700052302F4FC93070002F3
:1041E000A302F4FC930760032303F4FC930700028B
:1041F000A303F4FC8357E4FC3E879307C4FB2946E2
:10420000BE853A85EF50E034230704FE1DA883479E
:10421000E4FE130704FFBA970387C7FC8347F4FE45
:104220001377F70F930604FFB697238AE7FC8347BB
:10423000F4FE8507A307F4FE8347E4FE8507230702
:10424000F4FE8347E4FE130704FFBA978387C7FC95
:1042500091C70347E4FE9D47E3FBE7FA0347F4FEFB
:104260009D4763E2E7088347F4FE130704FFBA970C
:1042700013073002238AE7FC0347F4FE930744FC4C
:10428000BA853E85EFF0EFC6B9A8B5679385C7A993
:10429000032544FEEFC08F82AA87B1E7B5679385F7
:1042A00087A80145EF50305B232AA4FCB5679385AE
:1042B00007AA032544FDEFC06F80AA8799E78545CB
:1042C00013052008EFC02F9739A8B567938547AA33
:1042D000032544FDEFB09FFEAA8791E781451305B2
:1042E0002008EFC04F959387818603D7270023903E
:1042F000E1860100F640664425618280397106DE60
:1043000022DC8000EFE01FF7B747950813850740D0
:10431000EFE01F93EFE0BFC3EFF05FB3EFE0BFF25A
:10432000B567138687AA81450145EFE0CFB89307AB
:1043300084FE3E85EFF02F930357A4FE2390E18681
:10434000930784FC3E85EFF0EFC7AA87A307F4FE2E
:104350008347F4FE89CF930784FC3E86814501455F
:10436000EFE06FB5930784FC3E85EFF0FFD51305B2
:10437000803EEFF0FFA9E9B701A001A001A001A0D4
:1043800001A001A001A001A001A001A001A001A025
:1043900001A001A001A001A001A001A001A001A015
:1043A00001A001A001A001A001A001A001A001A005
:1043B00001A001A001A001A001A001A001A001A0F5
:1043C00001A001A001A001A001A001A001A001A0E5
:1043D00001A001A001A001A001A001A001A001A0D5
:1043E00001A001A001A001A001A001A001A001A0C5
:1043F00001A001A001A001A001A001A001A001A0B5
:1044000001A001A001A001A001A001A001A001A0A4
:1044100001A001A001A001A001A001A001A001A094
:1044200001A001A001A001A001A001A001A001A084
:1044300001A001A001A07390123497C1FF1F9381C6
:10444000615E17C100201301E1BB17950000130541
:10445000253497C5FF1F9385E5BA1386018363FA58
:10446000C5008322050023A0550011059105E3EA4C
:10447000C5FE13850183938581916377B500232061
:1044800005001105E36DB5FEFD42739002BCFD42CF
:1044900073904280B78200009382828873A00230BA
:1044A00097C2FFFF938282B993E232007390523039
:1044B000EF00400197020000938282E4739012346F
:1044C00073002030411106C622C40008B71702400D
:1044D0009843B71702401367170098C3B7170240F5
:1044E000D443B71702403707FFF8758FD8C3B71703
:1044F00002409443B71702403707F7FE7D17758FC8
:1045000098C3B71702409443B71702403707FCFF20
:104510007D17758F98C3B7170240D443B717024071
:10452000370781FF7D17758FD8C3B717024037074C
:104530009F0098C731200100B2402244410182808F
:10454000411106C622C4000831200100B2402244B5
:1045500041018280011122CE0010232604FE232473
:1045600004FEB71702409443B71702404167558FC6
:1045700098C3B71702409843B7070200F98F232466
:10458000F4FE8327C4FE85072326F4FE832784FEDA
:1045900099E70327C4FE93070050E31CF7FCB71705
:1045A00002409843B7070200F98F89C78547232443
:1045B000F4FE19A0232404FE032784FE8547631814
:1045C000F70EB72702409843B72702401367070149
:1045D00098C3B72702409843B7270240719B98C3FE
:1045E000B72702409843B72702401367270098C3B4
:1045F00037170240B71702405843D8C33717024055
:10460000B71702405843D8C337170240B7170240C4
:104610005843D8C3B7170240D443B71702403707EF
:10462000C1FF7D17758FD8C3B7F7FF1F9387C7707A
:1046300098439167F98F99EBB7170240D443B717A6
:10464000024037073D00558FD8C309A8B71702406D
:10465000D443B71702404167558FD8C3B7170240FC
:104660009443B717024037070001558F98C30100E4
:10467000B71702409843B7070002F98FF5DBB71769
:104680000240D843B7170240719BD8C3B717024006
:10469000D843B717024013672700D8C30100B717E4
:1046A0000240DC4313F7C700A147E31AF7FE0100FD
:1046B000724405618280797122D60018232EA4FCF1
:1046C000232CB4FCA30704FE232404FE8327C4FD8B
:1046D0009C4313F7D7FF8327C4FD98C38327C4FDEA
:1046E0009C4313E717008327C4FD98C331A0832799
:1046F00084FE85072324F4FE8327C4FDDC4313F7DF
:10470000170085476308F700032784FEC167FD177C
:10471000E31FF7FC8327C4FDDC4313F7170085472D
:104720006305F700A30704FE45AA832784FD984785
:104730008547631BF7008327C4FD9C4313E70708E5
:104740008327C4FD98C309A88327C4FD9C4313F79E
:10475000F7F78327C4FD98C3832784FDD84785478F
:10476000631BF7008327C4FD9C4313E707048327DB
:10477000C4FD98C309A88327C4FD9C4313F7F7FB26
:104780008327C4FD98C3832784FD984B8547631B0B
:10479000F7008327C4FD9C4313E707028327C4FD6A
:1047A00098C309A88327C4FD9C4313F7F7FD83270B
:1047B000C4FD98C3832784FDD84B8547631BF7004E
:1047C0008327C4FD9C4313E707018327C4FD98C3D7
:1047D00009A88327C4FD9C4313F7F7FE8327C4FD74
:1047E00098C3832784FD984F8547631BF700832771
:1047F000C4FD9C4313E787008327C4FD98C309A821
:104800008327C4FD9C4313F777FF8327C4FD98C318
:10481000832784FDD84F8547631BF7008327C4FD9A
:104820009C4313E747008327C4FD98C309A8832747
:10483000C4FD9C4313F7B7FF8327C4FD98C38327A8
:1048400084FD83C727001397E701832784FD83C76F
:104850003700E2075D8F832784FD83C74700C207C7
:104860005D8F832784FD83C75700D2075D8F832721
:1048700084FD83D70700FD175D8F8327C4FDD8CF44
:104880008327C4FD9C4313F7E7FF8327C4FD98C328
:10489000232404FE31A0832784FE85072324F4FE0D
:1048A0008327C4FDDC4313F7170085476318F7001F
:1048B000032784FEC167FD17E31FF7FC8327C4FDB0
:1048C000DC4313F7170085476315F700A30704FEC1
:1048D00021A08547A307F4FE8347F4FE3E853254AA
:1048E00045618280797122D60018232EA4FC2326EC
:1048F00004FE8327C4FD83C7A7003E878547B3977F
:10490000E7002326F4FEB76700409387074003A71C
:104910000720B7670040938707401367170023A05D
:10492000E720B76700409387074083A6C721832706
:10493000C4FE13C7F7FFB767004093870740758F22
:1049400023AEE7208327C4FD83C7C700D1E7B7673D
:1049500000409387074083A6C7208327C4FE13C760
:10496000F7FFB767004093870740758F23A6E720BE
:104970008327C4FD83D76700C2070327C4FD0357FD
:104980002700BA8537670040930607400327C4FD18
:104990000347A7003A8633E7B700930786048E07DC
:1049A000B69798C38327C4FD83D74700C207032760
:1049B000C4FD03570700BA853767004093060740D8
:1049C0000327C4FD0347A7003A8633E7B7009307E0
:1049D00086048E07B697D8C38327C4FD03C7C700D4
:1049E00085476315F708B76700409387074083A69C
:1049F000C720B7670040938707400327C4FE558F41
:104A000023A6E7208327C4FD83D70700C207032717
:104A1000C4FD03572700BA85376700409306074057
:104A20000327C4FD0347A7003A8633E7B70093077F
:104A300086048E07B69798C38327C4FD83D74700A3
:104A4000C2070327C4FD03576700BA8537670040D4
:104A5000930607400327C4FD0347A7003A8633E7C0
:104A6000B700930786048E07B697D8C38327C4FD83
:104A700083C7B7009DE3B76700409387074083A6CD
:104A800047208327C4FE13C7F7FFB767004093870B
:104A90000740758F23A2E72005A0B76700409387E2
:104AA000074083A64720B767004093870740032746
:104AB000C4FE558F23A2E7208327C4FD83D7870038
:104AC00095E3B76700409387074083A64721832774
:104AD000C4FE13C7F7FFB767004093870740758F81
:104AE00023AAE7208327C4FD03D7870085476311E6
:104AF000F702B76700409387074083A64721B7674F
:104B00000040938707400327C4FE558F23AAE72060
:104B10008327C4FD984B85476311F702B7670040B0
:104B20009387074083A6C721B76700409387074054
:104B30000327C4FE558F23AEE720B7670040938755
:104B4000074003A70720B767004093870740799B7A
:104B500023A0E7200100325445618280797122D67A
:104B60000018232EA4FC232CB4FCA30704FE8327E7
:104B7000C4FD9847B70700047D8FB707000463158D
:104B8000F700A30704FE81A08327C4FD9847B70759
:104B900000087D8FB70700086316F7008547A30755
:104BA000F4FE15A08327C4FD9847B70700107D8F3A
:104BB000B70700106316F7008947A307F4FE21A08A
:104BC0009147A307F4FE0347F4FE91476306F71AE3
:104BD0008347F4FE0327C4FDE1079207BA97984381
:104BE0008347F4FE058B8326C4FDE1079207B69741
:104BF00098C3832784FD83C7870085EF8347F4FE2E
:104C00000327C4FDE1079207BA979443832784FDE5
:104C10009C43D607032784FD034797005D8F834796
:104C2000F4FE558F8326C4FDE1079207B69798C31B
:104C300081A08347F4FE0327C4FDE1079207BA97DA
:104C40009443832784FDDC438E07032784FD0347B9
:104C50008700D98F032784FD034797005D8F834723
:104C6000F4FE558F8326C4FDE1079207B69798C3DB
:104C7000832784FD83C7A700BD8B13F7F70F832716
:104C800084FD2385E7008347F4FE0327C4FDE10785
:104C90009207BA97D8438347F4FE419B8326C4FD0D
:104CA000E1079207B697D8C38347F4FE0327C4FDF4
:104CB000E1079207BA97D843832784FD83C7A700EB
:104CC000BE868347F4FE558F8326C4FDE107920715
:104CD000B697D8C3832784FD83C7E700139787015E
:104CE000832784FD83C7D700C2075D8F832784FD98
:104CF00083C7C700A2075D8F832784FD83C7B700E2
:104D0000BE868347F4FE558F8326C4FDE1079207D4
:104D1000B69798C7832784FD83C727011397870118
:104D2000832784FD83C71701C2075D8F832784FD16
:104D300083C70701A2075D8F832784FD83C7F70020
:104D4000BE868347F4FE558F8326C4FDE107920794
:104D5000B697D8C78347F4FE0327C4FDE10792073F
:104D6000BA9798438347F4FE136717008326C4FD60
:104D7000E1079207B69798C38347F4FE3E85325405
:104D800045618280797122D60018232EA4FCAE875B
:104D9000A30DF4FC232604FE8347B4FD054763807E
:104DA000E70209476388E7029DEF8327C4FD984720
:104DB000B70700048D07F98F2326F4FE05A8832783
:104DC000C4FD9847B707000893870730F98F23265B
:104DD000F4FE29A88327C4FD9847B7070310F98F6D
:104DE0002326F4FE21A0232604FE01000327C4FE8F
:104DF000B7070008938707106308F7060327C4FE68
:104E0000B70700089387071063E4E7020327C4FE8F
:104E1000B707000485076306F7040327C4FEB70736
:104E200000048D076308F7048327C4FE9DC7B9A853
:104E30000327C4FEB7070110630BF7020327C4FE64
:104E4000B70703106300F7040327C4FEB707000881
:104E5000938707306304F70215A889472326F4FED9
:104E60000DA8232604FE35A0232604FE1DA023261C
:104E700004FE05A085472326F4FE21A885472326A6
:104E8000F4FE01A885472326F4FE21A0232604FE74
:104E900001008327C4FE93F7F70F3E853254456126
:104EA0008280011122CE00102326A4FEAE87232289
:104EB000C4FEA305F4FE8347B4FE0327C4FEED073A
:104EC0009207BA979C4393F7F70F918B13F7F70F5D
:104ED000832744FE2384E700832744FE83C787009B
:104EE00085E38347B4FE0327C4FEED079207BA9714
:104EF0009C43D58313F7F77F832744FE98C315A0FF
:104F00008347B4FE0327C4FEED079207BA979C437C
:104F100013D73700B7070020FD177D8F832744FE86
:104F2000D8C38347B4FE0327C4FEED079207BA97A0
:104F30009C4393F7F70F898B13F7F70F832744FEF2
:104F4000A384E7008347B4FE0327C4FEED0792075E
:104F5000BA97DC4393F7F70FBD8B13F7F70F83274F
:104F600044FE2385E7008347B4FE0327C4FEED0714
:104F70009207BA97DC43A18313F7F70F832744FE08
:104F8000A389E7008347B4FE0327C4FEED07920719
:104F9000BA979C4713F7F70F832744FEA385E700D2
:104FA0008347B4FE0327C4FEED079207BA979C47D8
:104FB000A18313F7F70F832744FE2386E700834777
:104FC000B4FE0327C4FEED079207BA979C47C1833E
:104FD00013F7F70F832744FEA386E7008347B4FE49
:104FE0000327C4FEED079207BA979C47E18313F7A6
:104FF000F70F832744FE2387E7008347B4FE032788
:10500000C4FEED079207BA97DC4713F7F70F832723
:1050100044FEA387E7008347B4FE0327C4FEED07E1
:105020009207BA97DC47A18313F7F70F832744FE53
:105030002388E7008347B4FE0327C4FEED079207E9
:10504000BA97DC47C18313F7F70F832744FEA38881
:10505000E7008347B4FE0327C4FEED079207BA9723
:10506000DC47E18313F7F70F832744FE2389E7002A
:105070008347B4FE91EB8327C4FEDC4713E70702A6
:105080008327C4FED8C709A88327C4FE9C4B13E717
:1050900007028327C4FE98CB010072440561828019
:1050A000797122D60018232EA4FCAE87A30DF4FC40
:1050B000A30704FE8347B4FD91EB8327C4FDDC47BF
:1050C00093F7F70F8D8BA307F4FE0DA00347B4FDF4
:1050D0008547631BF7008327C4FD9C4B93F7F70FAD
:1050E0008D8BA307F4FE19A0A30704FE8347F4FEEB
:1050F0003E85325445618280797122D60018232E74
:10510000A4FC232604FE232404FEB7070140938752
:1051100007409C430327C4FDF98F2324F4FEB707FF
:10512000014093870740D84B8327C4FDF98F81CB7B
:10513000832784FE89C785472326F4FE19A02326EA
:1051400004FE8327C4FE3E853254456182800111EE
:1051500022CE00102326A4FEB70701409387074004
:105160000327C4FED8CB01007244056182803971E7
:1051700022DE80002326A4FC2324B4FC232604FE84
:10518000232004FE232404FE232E04FC232204FEF9
:10519000232C04FC832784FC9C47BD8B2326F4FE30
:1051A000832784FC9C47C18B89CB832784FCDC4309
:1051B0000327C4FED98F2326F4FE832784FC83D7DC
:1051C000070093F7F70FF1CF8327C4FC9C432322FA
:1051D000F4FE232404FE65A8832784FE0547B31745
:1051E000F700232EF4FC832784FC83D707003E8737
:1051F0008327C4FDF98F2320F4FE032704FE8327B1
:10520000C4FD6311F708832784FE8A07232EF4FC6C
:105210008327C4FD3D47B317F700232CF4FC8327F5
:1052200084FD93C7F7FF032744FEF98F2322F4FE82
:105230008327C4FD0327C4FEB317F700032744FEEA
:10524000D98F2322F4FE832784FC9847930780029A
:10525000631BF700832784FE05473317F700832776
:10526000C4FCD8CB05A0832784FC9847930780040F
:10527000631AF700832784FE05473317F700832757
:10528000C4FC98CB832784FE85072324F4FE0327E0
:1052900084FE9D47E3F2E7F48327C4FC032744FE22
:1052A00098C3832784FC03D707009307F00F63F1AB
:1052B000E70E8327C4FCDC432322F4FE232404FEF0
:1052C00075A8832784FEA1070547B317F700232E8F
:1052D000F4FC832784FC83D707003E878327C4FD23
:1052E000F98F2320F4FE032704FE8327C4FD6312F5
:1052F000F708832784FE8A07232EF4FC8327C4FD46
:105300003D47B317F700232CF4FC832784FD93C794
:10531000F7FF032744FEF98F2322F4FE8327C4FD01
:105320000327C4FEB317F700032744FED98F2322B7
:10533000F4FE832784FC984793078002631BF700E1
:10534000832784FEA10705473317F7008327C4FC92
:10535000D8CB832784FC984793078004631BF7000E
:10536000832784FEA10705473317F7008327C4FC72
:1053700098CB832784FE85072324F4FE032784FE2D
:105380009D47E3F0E7F48327C4FC032744FED8C31A
:105390000100725421618280011122CE0010232667
:1053A000A4FEAE872322C4FE2315F4FE832744FE09
:1053B00099C70357A4FE8327C4FE98CB31A0035797
:1053C000A4FE8327C4FED8CB01007244056182800D
:1053D000797122D60018232EA4FC232CB4FC23249C
:1053E00004FE232204FE232604FE232004FE83273A
:1053F000C4FD63D80700B7070140DC4F2326F4FE45
:1054000031A0B7070140DC432326F4FE8327C4FD07
:10541000C183BD8B2320F4FE0327C4FDC167FD17A4
:10542000F98F2324F4FE0327C4FDB70730007D8FD6
:10543000B70730006315F7020327C4FEB70700F172
:10544000FD17F98F2326F4FEB7070140D443B707B1
:105450000140370700F17D17758FD8C3ADA0032732
:10546000C4FDB7071000F98F8DCB832704FE0D47CD
:10547000B317F7002322F4FE832744FE93C7F7FFF8
:105480000327C4FEF98F2326F4FE0327C4FEB707C3
:10549000000FD98F2326F4FE3DA08327C4FDD583BA
:1054A0009207032784FEB317F70093C7F7FF03277C
:1054B000C4FEF98F2326F4FE0327C4FEB707000FAE
:1054C000D98F2326F4FE832784FD91CF8327C4FD43
:1054D000D5839207032784FEB317F7000327C4FE82
:1054E000D98F2326F4FE8327C4FD63D80700B707AE
:1054F00001400327C4FED8CF31A0B70701400327DE
:10550000C4FED8C30100325445618280397122DE65
:1055100080002326A4FC232204FE232604FE23204D
:1055200004FE232E04FC232404FEB7170240DC43B0
:10553000B18B2322F4FE032744FE91476303F70255
:10554000032744FEA1476306F702832744FE6399BD
:1055500007148327C4FC37177A001307072098C362
:1055600089AA8327C4FC37177A001307072098C33A
:1055700089A2B7170240D843B7073C00F98F23260A
:10558000F4FEB7170240D843C167F98F2320F4FE19
:105590008327C4FEC98389072326F4FEB7F7FF1FBC
:1055A0009387C77098439167F98F91EB0327C4FEE7
:1055B000C5476319F704C9472326F4FEA1A00327B2
:1055C000C4FE89476315F700C9472326F4FE032765
:1055D000C4FEBD476318F700B5472326F4FE854790
:1055E0002324F4FE0327C4FEC1476315F700BD471B
:1055F0002326F4FE0327C4FEC5476315F700C14701
:105600002326F4FE832704FEA1E3B74702409387D5
:1056100007809C43C18B89CF0327C4FEB7177A004C
:10562000938707203307F7028327C4FC98C399A800
:105630000327C4FEB7173D00938707903307F7028F
:105640008327C4FC98C33DA8B7170240D843B707C7
:105650000200F98F89CF0327C4FEB7173D00938757
:1056600007903307F7028327C4FC98C321A80327B8
:10567000C4FEB7177A00938707203307F702832702
:10568000C4FC98C3032784FE85476313F70283276E
:10569000C4FC9C4313D717008327C4FC98C309A8F4
:1056A0008327C4FC37177A001307072098C311A07B
:1056B0000100B7170240DC4393F7070F2322F4FEE3
:1056C000832744FE91832322F4FEB707002013872B
:1056D0000700832744FEBA9783C7070093F7F70FA5
:1056E000232EF4FC8327C4FC98438327C4FD33573F
:1056F000F7008327C4FCD8C3B7170240DC4393F7F5
:1057000007702322F4FE832744FEA1832322F4FEA4
:10571000B707002013870700832744FEBA9783C783
:10572000070093F7F70F232EF4FC8327C4FCD8431C
:105730008327C4FD3357F7008327C4FC98C7B717E6
:105740000240D843916793870780F98F2322F4FEA4
:10575000832744FEAD832322F4FEB707002013877E
:105760000700832744FEBA9783C7070093F7F70F14
:10577000232EF4FC8327C4FCD8438327C4FD33576E
:10578000F7008327C4FCD8C7B7170240D843B167D6
:10579000F98F2322F4FE832744FEB9832322F4FEEB
:1057A0001387C180832744FEBA9783C7070093F706
:1057B000F70F232EF4FC8327C4FCD8478327C4FDAE
:1057C0003357F7028327C4FC98CB01007254216140
:1057D0008280011122CE00102326A4FE2324B4FED1
:1057E000832784FE99CBB7170240944FB717024026
:1057F0000327C4FE558F98CF21A8B7170240944FB6
:105800008327C4FE13C7F7FFB7170240758F98CFE1
:105810000100724405618280011122CE001023260E
:10582000A4FE2324B4FE832784FE99CBB71702403D
:10583000D44FB71702400327C4FE558FD8CF21A8F5
:10584000B7170240D44F8327C4FE13C7F7FFB7171B
:105850000240758FD8CF010072440561828001112A
:1058600022CE00102326A4FE2324B4FE832784FE28
:1058700099CBB7170240D447B71702400327C4FE9D
:10588000558FD8C721A8B7170240D4478327C4FE35
:1058900013C7F7FFB7170240758FD8C701007244CE
:1058A00005618280011122CE00102326A4FE23244C
:1058B000B4FE832784FE99CBB7170240944BB717E9
:1058C00002400327C4FE558F98CB21A8B71702408A
:1058D000944B8327C4FE13C7F7FFB7170240758F99
:1058E00098CB0100724405618280011106CE22CC62
:1058F00000102326A4FE0327C4FEB7370140631B14
:10590000F70085450565EFF09FF581450565EFF0EA
:105910001FF591A00327C4FEB74700409387078077
:10592000631BF70085451165EFF0DFF781451165D1
:10593000EFF05FF70DA00327C4FEB7470040938741
:1059400007C0631AF70085452165EFF0BFF5814573
:105950002165EFF03FF50100F2406244056182806D
:10596000797122D60018232EA4FC232CB4FC231713
:1059700004FE8327C4FD83D707002317F4FE0357D3
:10598000E4FE8D6793870704F98F2317F4FE8327BE
:1059900084FD03D70700832784FD83D72700D98F91
:1059A000139707014183832784FD83D74700D98F4D
:1059B000139707014183832784FD83D76700D98F1D
:1059C000139707014183832784FD83D78700D98FED
:1059D000139707014183832784FD83D7A700D98FBD
:1059E000139707014183832784FD83D7C700D98F8D
:1059F000139707014183832784FD83D7E700D98F5D
:105A00001397070141838357E4FED98F2317F4FED0
:105A10008327C4FD0357E4FE2390E7008327C4FDDA
:105A200083D7C701139707014183FD779387F77FDA
:105A3000F98F1397070141838327C4FD239EE70055
:105A4000832784FD03D707018327C4FD2398E7003C
:105A50000100325445618280011122CE00102326BC
:105A6000A4FE2324B4FE832784FE8DC38327C4FEB3
:105A700083D70700C207C18393E707041397070181
:105A800041838327C4FE2390E70005A08327C4FE3B
:105A900083D70700C207C18393F7F7FB139707016A
:105AA00041838327C4FE2390E7000100724405610F
:105AB0008280797122D60018232EA4FC232CB4FCFA
:105AC000231704FE8327C4FD83D707002317F4FEA2
:105AD0000327C4FDB7370140938707C06306F70665
