:100000006F40707413000000130000001300000024
:100010001300000013000000130000001300000094
:100020001300000013000000130000001300000084
:08003000130000007300100032
:1000380000000000000000002C4800003C480000C0
:10004800000000008C4E00000000000000000000CE
:100058008E4E0000904E00000000000000000000DE
:10006800924E000000000000944E000000000000C6
:10007800964E0000984E00009A4E00009C4E0000DC
:100088009E4E0000A04E00003E4400006244000066
:1000980086440000AA440000CE440000AC4E000094
:1000A800AE4E0000B04E0000B24E0000B44E00004C
:1000B800B64E0000B84E0000BA4E0000BC4E00001C
:1000C800DE470000C04E0000C24E0000F2440000AF
:1000D800C64E00000E460000CA4E0000CC4E00007E
:1000E8003E4600006646000096460000D44E0000DA
:1000F800D64E0000D84E0000DA4E0000DC4E00005C
:10010800DE4E0000264200005A420000BC420000B9
:100118007A450000E84E0000EA4E0000EC4E000070
:100128004E470000F04E0000F24E0000F44E000072
:10013800F64E0000F84E0000C6460000FC4E0000D7
:10014800F042000024430000F64600001E4700006D
:10015800064F0000084F00000A4F00000C4F000037
:100168000E4F0000104F0000124F0000144F000007
:10017800164F0000184F00001A4F00006A7F000059
:100188001E4F0000204F00000044000054430000B0
:1001980088430000D44300002A4F0000864700002F
:1001A8002E4F0000304F0000324F0000B6470000CD
:1001B800364F0000384F00003A4F00003C4F000017
:1001C8003E4F0000404F0000424F0000444F0000E7
:1001D8000000000000000000000000000000000017
:1001E8000000000000000000000000000000000007
:0801F8000000000000000000FF
:10020000737504308280B76200009382820873A005
:10021000023082803D432A876373C3029377F700DD
:10022000BDEFADE5937606FF3D8ABA960CC34CC38D
:100230000CC74CC74107E36BD7FE11E28280B306BF
:10024000C3408A069702000096966780A60023079F
:10025000B700A306B7002306B700A305B700230520
:10026000B700A304B7002304B700A303B700230318
:10027000B700A302B7002302B700A301B700230110
:10028000B700A300B7002300B700828093F5F50FF5
:1002900093968500D58D93960501D58D61B793967C
:1002A00027009702000096968682E78086FA96805D
:1002B000C1171D8F3E96E374C3F8A5B73367B50029
:1002C000FD530D8B79E7B7877F7F9387F7F7104151
:1002D0009441B372F6003363F600BE92B3E262005B
:1002E0006397720C6318D6065041D441B372F6007E
:1002F0003363F600BE92B3E262006398720A631B36
:10030000D60410459445B372F6003363F600BE92EE
:10031000B3E262006391720A631ED6025045D4456F
:10032000B372F6003363F600BE92B3E26200639AE2
:1003300072086311D60210499449B372F600336310
:10034000F600BE92B3E26200639372085105D105D4
:10035000E30FD6F61317060193970601631CF70007
:100360001357060193D706013305F7409375F50F30
:1003700091E982804183C1833305F7409375F50F7E
:1003800091E182801377F70F93F7F70F3305F7406A
:1003900082800346050083C60500050585056313B5
:1003A000D60065FA3305D640828011059105E31227
:1003B000D6FE014582802105A105E31CD6FC01453E
:1003C00082803105B105E316D6FC014582804105E6
:1003D000C105E310D6FC01458280011122CE001038
:1003E0002324A4FE2326B4FEB7F700E023A00700D1
:1003F000B7F700E08146014794C7D8C7B7F700E0D8
:10040000054798C30100B7F700E003A8C7009C4761
:100410000327C4FEC286636CD7000327C4FEC286CE
:10042000E313D7FE032784FE6363F700E9BF0100EF
:10043000724405618280011122CE00102326A4FEA1
:10044000AE87A305F4FE8347B4FE9DC78327C4FE91
:10045000BD8B0547B317F70093960701C182832729
:10046000C4FE13D75700BD670A079387C7D6BA974C
:100470009C43368798CB35A08327C4FEBD8B0547A8
:10048000B317F70093960701C1828327C4FE13D7E1
:100490005700BD670A079387C7D6BA979C4336872C
:1004A000D8CB0100724405618280797122D6001890
:1004B000232EA4FC8327C4FD958393F7F70F9D8B10
:1004C000A307F4FE8327C4FD93F7F70FBD8B230723
:1004D000F4FE0347F4FEBD670A079387C7D6BA97B1
:1004E0009C43DC470347E4FE85463397E60042071A
:1004F00041833A868346F4FE3D678A061307C7D6D2
:1005000036971843B18F5CC7010032544561828031
:10051000797106D622D40018232EA4FC232CB4FC17
:10052000232AC4FC2328D4FC8327C4FD958393F796
:10053000F70F9D8BA307F4FE8327C4FD93F7F70FF6
:10054000BD8B2307F4FE0327C4FD9307F00F63055B
:10055000F7140327C4FD9307F00F6301F7148347D3
:10056000F4FE91E785451145EF60A04141A00347A6
:10057000F4FE85476317F70085452145EF6060402D
:10058000B5A00347F4FE89476317F7008545414549
:10059000EF60203FA1A80347F4FE8D476318F700E2
:1005A000854513050002EF60C03D89A00347F4FEB6
:1005B00091476318F700854513050004EF60603C20
:1005C00035A00347F4FE95476318F70085451305EA
:1005D0000008EF60003B19A80347F4FE9947631732
:1005E000F700854513050010EF60A0398347E4FE4E
:1005F0000547B317F700C207C1832310F4FE032792
:1006000084FD85476317F702832704FDC207C18372
:10061000A183C207C18389E78D472322F4FE11A875
:10062000832704FDC207C183A183C207C18323229C
:10063000F4FE832704FDC207C18393F7F70F232439
:10064000F4FE0347F4FEBD670A079387C7D6BA973F
:100650009C433E87930704FEBE853A85EF50B01F4A
:10066000032784FD8547631CF7020347F4FEBD673B
:100670000A079387C7D6BA979C43BE868347E4FE92
:100680000547B317F700C207C183032644FDBE85A3
:100690003685EF50F03E21A0010011A00100B250BC
:1006A0002254456182801D7186CEA2CC8010232603
:1006B000A4FA2324B4FABD6703AE07B3138707B3C4
:1006C00003234700138707B383288700138707B3E3
:1006D0000328C700138707B3084B138707B34C4B96
:1006E000138707B3104F138707B3544F138707B30C
:1006F0001853938707B3DC532322C4FD232464FCDF
:10070000232614FD232804FD232AA4FC232CB4FC57
:10071000232EC4FC2320D4FE2322E4FE2324F4FE53
:1007200085450325C4FAEF106022AA873E87130689
:100730005002BD67938547AD3A85EF20502083274F
:1007400084FAB337F00093F7F70F3E871306600281
:10075000BD67938547AD3A85EF20701E832784FAE5
:10076000BD832317F4FE8357E4FE85073E87832766
:1007700084FAB3D7E7022316F4FE0325C4FAEF1078
:1007800060228357C4FE231EF4FA8357E4FE231C21
:10079000F4FA231F04FA231D04FA230004FCBD67A6
:1007A0000327C4FA0A079387C7D8BA979C433E87A2
:1007B000930784FBBE853A85EF60A04ABD67032797
:1007C000C4FA0A079387C7D8BA979C43054685455C
:1007D0003E85EF607059BD670327C4FA0A07938707
:1007E000C7D8BA979C4385453E85EF70E00E8327B6
:1007F000C4FA93F7F70F8A07130704FFBA9783A782
:1008000047FD8D453E85EF2090418327C4FA8A0736
:10081000130704FFBA9783A747FD3E85EF20703C7E
:10082000BD670327C4FA0A079387C7D8BA979C43C2
:1008300085453E85EF60D0470100F640664425615E
:100840008280011106CE22CC00102326A4FE83272D
:10085000C4FE89EB930680310146854521454D391B
:100860006F00C0740327C4FE8547631AF700930620
:10087000803101468545254561396F002073032786
:10088000C4FE8947631AF700930680310146854507
:100890002945BD396F0080710327C4FE8D47631A57
:1008A000F70093068031014685452D4595316F004F
:1008B000E06F0327C4FEC147631BF7009306803136
:1008C0000146854513059008A1316F00206E03276E
:1008D000C4FEC547631AF70093068031014685457B
:1008E0001305B0083531D9A50327C4FEC947631ADB
:1008F000F70093068031014685451305D008093974
:1009000075A50327C4FECD47631AF700930680310F
:10091000014685451305E008E53E49AD0327C4FEC1
:10092000930700106319F70093068031014685454F
:100930000145F93EA5AD0327C4FE930710106319C6
:10094000F70093068031014685450545D136B9AD9E
:100950000327C4FE930720106319F7009306803124
:100960000146854509456D3691A50327C4FE9307C9
:1009700030106319F70093068031014685450D4517
:10098000413E2DA50327C4FE930700116319F7000C
:1009900093068031014685453D459D3E01AD0327C7
:1009A000C4FE93071011631AF700930680310146C5
:1009B000854513053002A93ED5AB0327C4FE930736
:1009C0002011631AF700930680310146854513050F
:1009D000A0023D3EE1AB0327C4FE93073011631A2A
:1009E000F70093068031014685451305B0020D36A8
:1009F00075AB0327C4FE930700206319F700930625
:100A0000803101468545194521364DA30327C4FE93
:100A1000930710206319F70093068031014685453E
:100A20001D45FD3461A30327C4FE93072020631AEC
:100A3000F700930680310146854513050002C93C45
:100A4000B5A30327C4FE93073020631AF70093066B
:100A5000803101468545130510025D3C81AB0327BB
:100A6000C4FE93070021631AF70093068031014604
:100A7000854513056004693C15AB0327C4FE930745
:100A80001021631AF700930680310146854513054E
:100A90007004BD3C21AB0327C4FE93072021631AD9
:100AA000F7009306803101468545130580048D3497
:100AB000F5A90327C4FE93073021631AF7009306B4
:100AC000803101468545130590049934C5A103275B
:100AD000C4FE93070022631AF70093068031014693
:100AE0008545130540022D34D1A10327C4FE930789
:100AF0001022631AF70093068031014685451305DD
:100B00005002393465A10327C4FE93070030631AED
:100B1000F700930680310146854513056002CD3A02
:100B200071A10327C4FE93071030631AF7009306E0
:100B300080310146854513057002D93A85A90327FE
:100B4000C4FE93072030631AF700930680310146F4
:100B50008545130580026D3A91A90327C4FE9307CA
:100B60003030631AF700930680310146854513053E
:100B70009002793A25A90327C4FE93070031631A2E
:100B8000F70093068031014685451305C0064932BA
:100B900031A90327C4FE93071031631AF7009306A7
:100BA0008031014685451305D0069D3201A10327FA
:100BB000C4FE93072031631AF70093068031014683
:100BC00085451305E006A932D5A60327C4FE930781
:100BD0003031631AF70093068031014685451305CD
:100BE000F0063D32E1A60327C4FE930700406319D7
:100BF000F70093068031014685450145113A7DA6EF
:100C00000327C4FE930710406319F7009306803151
:100C1000014685450545ED3851AE0327C4FE9307CF
:100C200020406319F7009306803101468545094548
:100C3000C530ADAE0327C4FE930730406319F700FB
:100C400093068031014685450D45D93085A6032799
:100C5000C4FE93070070631AF700930680310146C3
:100C60008545130560046D3091A60327C4FE9307E4
:100C70001070631AF700930680310146854513050D
:100C80007004793025A60327C4FE93072070631AE9
:100C9000F7009306803101468545130580048D38A1
:100CA00031A60327C4FE93073070631BF700930639
:100CB00080310146854513059004EFF07F85FDA442
:100CC0000327C4FE93070071631BF700930680316E
:100CD0000146854513056002EFF09F83C1AC0327F1
:100CE000C4FE93071071631BF70093068031014621
:100CF000854513057002EFF0BF814DAC0327C4FE9C
:100D000093072071631BF7009306803101468545E8
:100D100013058002EFF0CFFF51AC0327C4FE930709
:100D20003071631BF700930680310146854513053A
:100D3000D004EFF0EFFD9DAC8327C4FE93870780BE
:100D400089EB93068031014685450945EFF04FFC5C
:100D5000B1AC0327C4FE856793871780631AF70039
:100D600093068031014685450D45EFF06FFA3DACA5
:100D70000327C4FE856793872780631AF7009306CD
:100D80008031014685451145EFF08FF805A4032712
:100D9000C4FE856793873780631BF7009306803115
:100DA0000146854513054004EFF08FF601A40327A3
:100DB000C4FE856793870781631BF7009306803124
:100DC0000146854513059006EFF08FF4C5A2032771
:100DD000C4FE856793871781631BF70093068031F4
:100DE000014685451305B006EFF08FF2C1A2032737
:100DF000C4FE856793872781631BF70093068031C4
:100E0000014685451305D006EFF08FF045A2032774
:100E1000C4FE856793873781631BF7009306803193
:100E2000014685451305F006EFF08FEE41A203273A
:100E3000C4FE856793870790631BF7009306803194
:100E40000146854513058002EFF08FEC85A203274C
:100E5000C4FE856793871790631BF7009306803164
:100E60000146854513059002EFF08FEA81A2032722
:100E7000C4FE856793872790631BF7009306803134
:100E80000146854513053004EFF08FE805A20327DE
:100E9000C4FE856793873790631BF7009306803104
:100EA000014685451305B004EFF08FE601A2032744
:100EB000C4FE856793870791631BF7009306803113
:100EC0000146854513051006EFF08FE4C5A0032702
:100ED000C4FE856793871791631BF70093068031E3
:100EE0000146854513053006EFF08FE2C1A00327C8
:100EF000C4FE856793872791631BF70093068031B3
:100F00000146854513055006EFF08FE045A0032705
:100F1000C4FE856793873791631BF7009306803182
:100F20000146854513057006EFF08FDE41A00327CB
:100F3000C4FE856793870792631BF7009306803191
:100F40000146854513053002EFF08FDC85A00327AD
:100F5000C4FE856793871792631BF7009306803161
:100F60000146854513054002EFF08FDA81A0032783
:100F7000C4FE856793872792631BF7009306803131
:100F80000146854513055002EFF08FD805A00327D1
:100F9000C4FE856793873792631AF7009306803102
:100FA000014685451305F004EFF08FD60100F240AD
:100FB000624405618280397106DE22DC80002326CE
:100FC000A4FC2324B4FC2322C4FC231704FE83279F
:100FD000C4FCA1838D453E85EF005017AA873E874C
:100FE0001306900BBD67938587B53A85EF202015D2
:100FF0008327C4FCA1833E85EF00D01A0325C4FCDF
:10100000EFF03F8485450545EF50B0178327C4FCBA
:1010100013D747008547631AF7008545B7071600C1
:101020001385070CEF50402901A28327C4FC13D776
:101030004700C547631AF7008545B70718001385B1
:101040000730EF506027CDA08327C4FC13D747009B
:1010500093071002631AF7008545B7171A00138526
:1010600007C0EF506025C9A08327C4FC13D74700F1
:1010700093072002631AF7008545B7171A001385F6
:101080000780EF5060234DA08327C4FC13D747008F
:10109000930710036317F70085450565EF50C021DE
:1010A00061A08327C4FC13D7470093071007631B75
:1010B000F700B7070140D84FB70701401367470053
:1010C000D8CF9DA08327C4FC13D7470093071008EF
:1010D000631BF700B7070140D84FB70701401367FC
:1010E0000701D8CF91A08327C4FC13D747009307EB
:1010F0001009631BF700B7070140D84FB70701403D
:1011000013670704D8CF0DA08327C4FC13D747006B
:1011100093072009631AF700B7070140D84FB707B4
:10112000014013670702D8CF03A70181832784FCFE
:10113000B357F702C1832317F4FE03A70181835736
:10114000E4FE8507BE86832784FCB387F602B35787
:10115000F7022316F4FE0357C4FE832744FC33072B
:10116000F702896793870771B357F7022315F4FED7
:101170008357C4FEFD17C207C1832312F4FE8357B1
:10118000E4FE2310F4FE231304FE231104FE2304C3
:1011900004FE8327C4FC13D78700BD670A07938723
:1011A000C7D8BA979C433E87930704FEBE853A850D
:1011B000EF50302B930700072318F4FC85472319C1
:1011C000F4FC231A04FC8357A4FE231BF4FC894778
:1011D000231CF4FC8947231DF4FC231E04FC231F5D
:1011E00004FC8327C4FC8D8BB9EF8327C4FC13D781
:1011F0008700BD670A079387C7D8BA979C433E8785
:10120000930704FDBE853A85EF50903D8327C4FCCB
:1012100013D78700BD670A079387C7D8BA979C433F
:10122000A1453E85EF60403B8327C4FC13D7870070
:10123000BD670A079387C7D8BA979C4391453E85F7
:10124000EF60404E89A28327C4FC13F7370085471F
:101250006311F7068327C4FC13D78700BD670A070D
:101260009387C7D8BA979C433E87930704FDBE85F2
:101270003A85EF50B0508327C4FC13D78700BD6771
:101280000A079387C7D8BA979C43A1453E85EF606C
:1012900060398327C4FC13D78700BD670A0793878B
:1012A000C7D8BA979C43930500403E85EF60404CF9
:1012B000D9A88327C4FC13F7370089476310F706C2
:1012C0008327C4FC13D78700BD670A079387C7D855
:1012D000BA979C433E87930704FDBE853A85EF503D
:1012E00010688327C4FC13D78700BD670A0793875C
:1012F000C7D8BA979C43A1453E85EF604038832705
:10130000C4FC13D78700BD670A079387C7D8BA976D
:101310009C4391453E85EF60004BB5A08327C4FCFC
:1013200013F737008D476310F7068327C4FC13D7E4
:101330008700BD670A079387C7D8BA979C433E8743
:10134000930704FDBE853A85EF50307F8327C4FCA8
:1013500013D78700BD670A079387C7D8BA979C43FE
:10136000A1453E85EF6060368327C4FC13D7870014
:10137000BD670A079387C7D8BA979C439305004077
:101380003E85EF6000498327C4FC13D78700BD6703
:101390000A079387C7D8BA979C4385453E85EF6077
:1013A000A0168327C4FC13D78700BD670A0793875D
:1013B000C7D8BA979C4385453E85EF60600F010012
:1013C000F250625421618280011106CE22CC0010BD
:1013D0002326A4FE2324B4FE2322C4FE2320D4FE0D
:1013E0008327C4FE89EB9306803105468545154564
:1013F000EFF00F9261A00327C4FEC147631BF70003
:10140000930680310546854513053002EFF04F9075
:10141000B5A00327C4FE93070002631BF7009306E1
:101420008031054685451305D002EFF06F8EB9A0D7
:101430000327C4FE93070003631BF7009306803164
:101440000546854513053002EFF08F8C05A803276C
:10145000C4FE93070004631BF70093068031054622
:1014600085451305A004EFF0AF8A09A81306900282
:10147000BD67938547BB0145EF10704C032784FE81
:101480008947631AF70093068031054685451D4557
:10149000EFF00F8861A0032784FEC947631BF700A4
:1014A000930680310546854513055002EFF04F86BF
:1014B000B5A0032784FE93072002631BF700930661
:1014C0008031054685451305F002EFF06F84B9A021
:1014D000032784FE93072003631BF70093068031E4
:1014E0000546854513055002EFF08F8205A80327B6
:1014F00084FE93072004631BF700930680310546A2
:1015000085451305C004EFF0AF8009A8130600035A
:10151000BD67938547BB0145EF107042032744FE2A
:101520008547631AF7009306403005468145194503
:10153000EFE01FFE79A8032744FEC547631BF700B1
:10154000930640300546814513054002EFE05FFCFD
:1015500049A0032744FE93071002631BF70093067C
:101560004030054681451305E002EFE07FFA95A083
:10157000032744FE93071004631BF70093064030D3
:10158000054681451305B004EFE09FF899A00327B5
:1015900044FE93071003631BF70093064030054693
:1015A000814513054002EFE0BFF625A0032744FE66
:1015B0009307F00F6317F7009307F00F2322F4FE51
:1015C00009A813068003BD67938547BB0145EF104B
:1015D00010379306003101468545032504FEEFE0F0
:1015E0003FF30100F2406244056182805D7186C66E
:1015F000A2C480082326A4FC2324B4FC2322C4FC18
:101600002320D4FC232EE4FA232CF4FA232A04FB0F
:10161000231704FEBD670327C4FC0A07938707D876
:10162000BA979C433E85EF50404785450545EF50AE
:101630004035032704FCC1476311F7020327C4FBAD
:10164000C947631CF700032784FBC5476317F700EE
:1016500085450545EF40504615A8032704FC930730
:1016600000046315F7020327C4FB93072004631FDC
:10167000F700032784FB930710046319F7008545DF
:10168000B717200013850710EF4010438327C4FCD1
:1016900091E785450565EF50C02E25A00327C4FCC2
:1016A00085476317F70085451165EF50E03111A8B4
:1016B0000327C4FC89476316F70085452165EF5071
:1016C000A030832644FB032684FB8325C4FB03252B
:1016D00004FCDD39231E04FC93074010231FF4FC97
:1016E000231004FE032784FC85476305F702832744
:1016F00084FC81CF032784FC89476303F702032717
:1017000084FC8D476304F7020DA8231104FE231205
:1017100004FE25A0231104FE85472312F4FE31A800
:1017200089472311F4FE231204FE01A889472311DF
:10173000F4FE85472312F4FE010003A7C185832729
:1017400044FCB357F7022317F4FE0357E4FE930754
:10175000F00F63F7E700930780032317F4FE61A8F7
:101760000357E4FE9307F00763F7E70093070003CE
:101770002317F4FE49A00357E4FE9307F00363F731
:10178000E700930780022317F4FEB5A00357E4FE99
:10179000FD4763F7E700930700022317F4FEA1A8B3
:1017A0000357E4FEBD4763F6E700E1472317F4FE65
:1017B00099A00357E4FE9D4763F6E700C14723174E
:1017C000F4FE15A80357E4FE8D4763F6E700A14732
:1017D0002317F4FE0DA00357E4FE854763F5E700E9
:1017E000231704FE09A81306D008BD67938547BBDD
:1017F0000145EF10D0148357E4FE2314F4FE930741
:1018000000202313F4FE231504FE9D472316F4FE47
:10181000BD670327C4FC0A07938707D8BA979C4380
:101820003E879307C4FDBE853A85EF50602EBD67A5
:101830000327C4FC0A07938707D8BA979C438545BA
:101840003E85EF50603C0100B640264461618280D5
:10185000011122CE00102326A4FEAE87A305F4FEBC
:10186000BD670327C4FE0A07938707D8BA979C432E
:101870003E878347B4FEC207C1832316F7000100E9
:10188000BD670327C4FE0A07938707D8BA979C430E
:1018900083D78700C207C18393F70708F5F30100D8
:1018A000724405618280011122CE00102326A4FE1D
:1018B000AE872315F4FE8357A4FEA183C207C1831C
:1018C00093F6F70FBD670327C4FE0A07938707D86F
:1018D000BA979C433E8793970601C1832316F7006E
:1018E0000100BD670327C4FE0A07938707D8BA978C
:1018F0009C4383D78700C207C18393F70708F5F39A
:101900008357A4FE93F6F70FBD670327C4FE0A07AB
:10191000938707D8BA979C433E8793970601C18364
:101920002316F7000100BD670327C4FE0A0793874B
:1019300007D8BA979C4383D78700C207C18393F720
:101940000708F5F30100724405618280011122CE7F
:1019500000102326A4FE2324B4FE0327C4FE0A0796
:101960009387818CBA979C4381EF0327C4FE0A07B3
:101970009387818CBA97032784FE98C3854739A83B
:101980000327C4FE0A079387818CBA979C430327D9
:1019900084FE6314F700854711A081473E85724499
:1019A00005618280011106CE22CC00102326A4FE00
:1019B0008327C4FE81EB8545856713850780EF404B
:1019C000507C6DA80327C4FE85476317F700854543
:1019D0000545EF40707F5DA00327C4FE894763176C
:1019E000F70085450945EF40307E49A80327C4FE2E
:1019F0008D476317F70085451145EF40F07CBDA882
:101A00000327C4FE91476317F70085452145EF4042
:101A1000B07BADA00327C4FE95476317F70085454B
:101A20004145EF40707A99A80327C4FE994763188F
:101A3000F700854513050002EF40107981A00327C8
:101A4000C4FE9D476317F70085450965EF40707335
:101A500035A00327C4FEA1476318F7008545370565
:101A60000800EF40107219A80327C4FEA5476317AA
:101A7000F700854537051000EF40B0700100F240D7
:101A8000624405618280011106CE22CC001023261B
:101A9000A4FE2324B4FE8327C4FE81EBE146014665
:101AA00085452545EFE0DFA6C9AA0327C4FE89477F
:101AB000631AF700E1460146854513056002EFE031
:101AC0003FA565AA0327C4FEC1476319F700E14695
:101AD000014685450945EFE0BFA345A20327C4FEA3
:101AE000C947631AF700E1460146854513055006CC
:101AF000EFE01FA259A20327C4FE93070002631A56
:101B0000F700E146014685451305A002EFE05FA01E
:101B1000ADA20327C4FE93072002631AF700E14633
:101B2000014685451305A004EFE09F9EB9A2032757
:101B3000C4FE93074002631AF700E146014685455B
:101B400013058006EFE0DF9C0DAA0327C4FE930770
:101B50000004631AF700E146014685451305A00419
:101B6000EFE01F9B19AA0327C4FE93072004631A02
:101B7000F700E1460146854513050002EFE05F9955
:101B8000EDA80327C4FE93070005631AF700E1469A
:101B9000014685451305C004EFE09F97F9A8032788
:101BA000C4FE93072005631AF700E1460146854508
:101BB00013058008EFE0DF95C9A00327C4FE930753
:101BC0000006631AF700E146014685451305000447
:101BD000EFE01F945DA00327C4FE93072006631A5D
:101BE000F700E1460146854513050004EFE05F92EA
:101BF00069A00327C4FE93070007631AF700E146B4
:101C00000146854513052004EFE09F90BDA0032702
:101C1000C4FE930720076319F700E1460146854596
:101C20001945EFE0FF8E91A80327C4FE93074007F4
:101C3000631AF700E146014685451305C008EFE049
:101C40003F8D25A80327C4FE93070008631AF700F9
:101C5000E1460146854513054004EFE07F8B31A83E
:101C60000327C4FE930720086319F700E1460146E5
:101C700085451305E008EFE0BF89032784FE85470B
:101C8000631AF70093068004014681452945EFE079
:101C90003F88D5AA032784FE8D47631BF700930670
:101CA00080040146814513057002EFE07F86E1AABA
:101CB000032784FEC547631AF70093068004014694
:101CC00081450D45EFE0DF847DAA032784FECD47E3
:101CD000631BF700930680040146814513056006E7
:101CE000EFE01F834DA2032784FE93071002631BBE
:101CF000F70093068004014681451305B002EFE02A
:101D00003F8151A2032784FE93073002631BF70033
:101D100093068004014681451305B004EFE04FFFB0
:101D20009DA2032784FE93075002631BF7009306CE
:101D300080040146814513059006EFE06FFDA1A2E6
:101D4000032784FE93071004631BF70093068004A7
:101D5000014681451305B004EFE08FFB2DA2032758
:101D600084FE93073004631BF7009306800401464A
:101D7000814513051002EFE0AFF931A2032784FE7D
:101D800093071005631BF700930680040146814505
:101D900013052006EFE0CFF7FDA0032784FE93078D
:101DA0003005631BF7009306800401468145130547
:101DB0009008EFE0EFF5C1A8032784FE9307100613
:101DC000631BF70093068004014681451305100448
:101DD000EFE00FF44DA8032784FE93073006631B42
:101DE000F70093068004014681451305B008EFE033
:101DF0002FF251A8032784FE93071007631BF700F7
:101E0000930680040146814513053004EFE04FF04E
:101E10009DA8032784FE93073007631AF7009306F3
:101E20008004014681451D45EFE08FEEA9A80327F8
:101E300084FE93075007631BF70093068004014656
:101E400081451305D008EFE0AFEC35A8032784FEE9
:101E500093071008631BF700930680040146814531
:101E600013055004EFE0CFEA39A8032784FE930757
:101E70003008631AF7009306800401468145130574
:101E8000F008EFE0EFE80100F24062440561828073
:101E9000011106CE22CC00102326A4FEAE87A30596
:101EA000F4FEBD670327C4FE0A07938747DBBA9792
:101EB0009C433E878347B4FE3E86930550523A8545
:101EC000EF50B04DB7E700E0938681820327C4FE50
:101ED000369703470700BA97238007408347B4FE2D
:101EE00081CF138781828327C4FEBA9783C70700F7
:101EF0003E85EF10004F19A8138781828327C4FE07
:101F0000BA9783C707003E85EF10804F0100F2406B
:101F1000624405618280011122CE00102326A4FEB6
:101F20002324B4FEBD670327C4FE0A07938747DB5B
:101F3000BA979C4383D70700C207C18393F7070270
:101F40008DC7BD670327C4FE0A07938747DBBA978F
:101F50009C4383D74700C207C18313F7F70F83273A
:101F600084FE2380E700854711A081473E857244A7
:101F700005618280797106D622D40018232EA4FC34
:101F8000232CB4FC232AC4FC2328D4FC8545054516
:101F9000EF40301F832504FD032544FDEFF0BFAE65
:101FA000032744FD8947631CF700032704FD8D4781
:101FB0006317F70085451145EF40003095A20327D0
:101FC00044FDC947631CF700032704FDCD47631791
:101FD000F70085452145EF40202E99A2032744FDB7
:101FE000930720026310F702032704FD93073002D2
:101FF000631AF7008545B707140013850701EF4002
:10200000A02B39AA032744FD930740026310F7026F
:10201000032704FD93075002631AF7008545B707AD
:10202000140013850703EF402029DDA8032744FD92
:1020300093072004631DF700032704FD9307300472
:102040006317F70085450565EF400027D1A80327F2
:1020500044FD930720056310F702032704FD93074F
:102060003005631AF7008545B70720001385170070
:10207000EF40802475A0032744FD930720066310DA
:10208000F702032704FD93073006631AF70085451E
:10209000B717008013850780EF40002251A0032767
:1020A00044FD930720076312F702032704FD9307FB
:1020B0003007631CF700B7070140D44FB707014052
:1020C00037074000558FD8CFA1A8032744FD9307B9
:1020D00040076312F702032704FD93075007631CB0
:1020E000F700B7070140D44FB7070140370780001A
:1020F000558FD8CF35A0032744FD930720086311DF
:10210000F702032704FD93073008631BF700B707A6
:102110000140D44FB707014037070002558FD8CF91
:102120008327C4FD91E785451165EF40900569A8B7
:102130000327C4FD85476318F7008545370502006E
:10214000EF40900851A00327C4FD89476318F700AA
:10215000854537050400EF403007BDA00327C4FDC7
:102160008D476318F700854537050800EF40D00517
:10217000A1A80327C4FD91476318F70085453705DB
:102180001000EF40700489A00327C4FD9547631831
:10219000F700854513050004EF40100335A0032721
:1021A000C4FD99476318F700854513050008EF4003
:1021B000B00119A80327C4FD9D476317F7008545A3
:1021C00013050010EF405000832784FD2320F4FE08
:1021D000231204FE231304FE231404FE231604FE1C
:1021E000B1472315F4FEBD670327C4FD0A07938793
:1021F00047DBBA979C433E87930704FEBE853A852A
:10220000EF506070BD670327C4FD0A07938747DB63
:10221000BA979C4385453E85EF5030120100B2507D
:10222000225445618280411106C622C4000893856C
:1022300081831945CD310546938581831385018FAF
:10224000EF10E0000100B2402244410182804111C0
:1022500006C622C400089385918305456D3905465D
:102260009385918313854190EF00707E0100B24009
:10227000224441018280411106C622C4000803A7FE
:1022800001858947630FF70003A701858D47631414
:10229000F700992039A003A7018591476313F70040
:1022A0004D280100B240224441018280411106C6FE
:1022B00022C4000803A7018591476314F700ED28A5
:1022C00039A003A701858D476313F7008D2801000E
:1022D000B240224441018280411106C622C4000856
:1022E00083C7F1833E879387C183BA97BE85114523
:1022F000EFF07FC2AA8781CB83C7F183850713F7ED
:10230000F70FA38FE18203C7F1838547631AF700B4
:1023100003C7C1839307500A6304F700A38F0182A8
:1023200003C7F1838D476317F700A38F0182054729
:102330002380E1840100B2402244410182804111A6
:1023400022C600080547238DE18201003244410185
:102350008280411106C622C4000883C771843E876B
:1023600093874184BA97BE851145EFF0DFBAAA87FB
:1023700081CB83C77184850713F7F70FA383E184AB
:1023800003C771848547631AF70003C74184930725
:10239000500A6304F700A383018403C771848D4747
:1023A0006317F700A383018405472384E1840100B8
:1023B000B240224441018280411122C600080547F3
:1023C000A384E1840100324441018280011106CEE0
:1023D00022CC0010AA87A307F4FEBD679387C7D657
:1023E000DC433E8785671CCBBD679387C7D6DC433C
:1023F0003E8785675CCBBD679387C7D6DC473E8742
:10240000930700105CCB8347F4FEBE850545EFF0D3
:102410002FC4BD679387C7D6DC433E8785671CCB37
:10242000BD679387C7D6DC473E87930700101CCB58
:10243000BD679387C7D6DC433E8785675CCB0100C9
:10244000F240624405618280011106CE22CC001068
:10245000AA8736872317F4FEAE872316F4FEB287C9
:102460002315F4FEBA872314F4FEB707002083C7B0
:102470004723C207C1830357E4FEB337F70093F73E
:10248000F70F3E871306F004BD67938507C13A85B1
:10249000EF00F04A83C75180C207C1830357C4FECF
:1024A000B337F70093F7F70F3E8713060005BD67B4
:1024B000938507C13A85EF009048B707002083C78E
:1024C0004723C207C1830357A4FEB337F70093F72E
:1024D000F70F3E8713061005BD67938507C13A8540
:1024E000EF00F04583C75180C207C183035784FEC4
:1024F000B337F70093F7F70F3E8713062005BD6744
:10250000938507C13A85EF00904383A7C18491C7A3
:1025100003A7C18485476315F7081305A0027D351D
:1025200081450545EFF0CFB28357E4FE93F7F70FEF
:10253000890793F7F70FBE850545EFF06FB1814529
:102540000545EFF0EFB08357A4FE93F7F70F890727
:1025500093F7F70FBE850545EFF08FAF1305B00277
:10256000B53581450545EFF0AFAE8357C4FE93F70F
:10257000F70F850793F7F70FBE850545EFF04FADD1
:1025800081450545EFF0CFAC835784FE93F7F70FF5
:10259000850793F7F70FBE850545EFF06FAB59A0A0
:1025A0001305A002253581450545EFF06FAA835735
:1025B000E4FE93F7F70F850793F7F70FBE85054500
:1025C000EFF00FA981450545EFF08FA88357A4FED2
:1025D00093F7F70F850793F7F70FBE850545EFF0E3
:1025E0002FA71305B002DD3381450545EFF04FA657
:1025F0008357C4FE93F7F70F890793F7F70FBE854C
:102600000545EFF0EFA481450545EFF06FA4835732
:1026100084FE93F7F70F890793F7F70FBE850545FB
:10262000EFF00FA31305C00255330100F2406244DE
:1026300005618280797106D622D40018AA87231FEB
:10264000F4FCB707002083C747233E8783C7518028
:10265000B307F7022326F4FEB707002083C74723FA
:10266000C207C183FD1713970701418383C75180B8
:10267000C207C183FD17C207C183BE863A86814562
:102680000145D93321A88357E4FDBE850545EFF008
:102690008FA18327C4FEFD172326F4FE8327C4FEE3
:1026A000FDF30100B250225445618280011122CE17
:1026B00000102326A4FE0327C4FE23A6E1840327DB
:1026C000C4FE854763EDE700B7070020130700F855
:1026D000238AE722130700FAA382E18019A8B7072B
:1026E0000020130700FA238AE722130700F8A382C9
:1026F000E1800100724405618280011122CE001048
:10270000AA872E872317F4FEBA872316F4FEB7078D
:1027100000200357E4FE2398E722B7070020035761
:10272000C4FE2399E7220100724405618280797119
:1027300006D622D40018AA87AE863287231FF4FC5F
:10274000B687231EF4FCBA87A30DF4FCB70700205C
:1027500083C74723C207C1830357E4FDB337F7009C
:1027600093F7F70F3E871306800FBD67938507C168
:102770003A85EF00D01C83C75180C207C18303573D
:10278000C4FDB337F70093F7F70F3E871306900F9A
:10279000BD67938507C13A85EF00701AA30704FE51
:1027A0007DA88347F4FE1397070141838357C4FD37
:1027B000BA9793950701C1818357E4FD9D0713964E
:1027C000070141828347F4FE139707014183835732
:1027D000C4FDBA971397070141838357E4FDBA8676
:1027E0003E85EFF07FC68307B4FD938607FE8347DF
:1027F000F4FE3D679206130747DD3697BA9783C705
:102800000700A306F4FE230704FE81A08347D4FE3D
:10281000858B91CBB707002083D70723BE8505455D
:10282000EFF06F8809A8B707002083D72723BE855C
:102830000545EFF04F878347D4FE8583A306F4FE5A
:102840008347E4FE85072307F4FE0347E4FE9D4724
:10285000E3FEE7FA8347F4FE8507A307F4FE034788
:10286000F4FEBD47E3FFE7F20100B2502254456198
:102870008280797106D622D40018AA872E87232C4D
:10288000C4FC231FF4FCBA87231EF4FCB707002006
:1028900083C74723C207C1830357E4FDB337F7005B
:1028A00093F7F70F3E8713067011BD67938507C135
:1028B0003A85EF00D00883C75180C207C183035710
:1028C000C4FDB337F70093F7F70F3E871306801167
:1028D000BD67938507C13A85EF007006231704FE94
:1028E0003DA88357E4FE8E07139707014183835762
:1028F000E4FDBA9793960701C1828357E4FE03274C
:1029000084FDBA97038707008357C4FD3A86BE85C6
:102910003685313D8357E4FE85072317F4FE835740
:10292000E4FE032784FDBA9783870700DDFB0100DF
:10293000B250225445618280011106CE22CC4ACA8F
:102940004EC852C656C45AC25EC0001083A7C18585
:1029500013D627001308F00F9307F00F1307200278
:102960009306000281450545EFE05FC8C146014678
:10297000854513058006EFD0BFB9C14601468545A0
:102980001305A006EFD0DFB8C14601468545130503
:10299000C002EFD0FFB7C146054685451305C00606
:1029A000EFD01FB783A7C1843E85EFF03FD0B707B4
:1029B000002003D70723B707002083D72723BE852E
:1029C0003A85EFF09FD3BD679387C7D6DC473E8734
:1029D000930700405CCB03A7C1858967938707F401
:1029E0003357F702BA878A07BA9786073E8B814B1F
:1029F0005A85DE85EFD07F9EBD679387C7D6DC47BB
:102A00003E87930700401CCB03A7C1858967938746
:102A100007F43357F702BA879207998F8E073E8AD9
:102A2000814A5285D685EFD05F9B4545EFF01F9ACE
:102A300003A7C1858967938707F43357F702BA87DD
:102A40009207998F8E073E8981494A85CE85EFD0BE
:102A5000DF981305100BEFF07F9785450545EFE0F4
:102A60003FDF9305C0020545EFE09FDE9305D002EE
:102A70000545EFE0FFDD1305200BEFF03F958545A1
:102A80000545EFE0FFDC9305C0020545EFE05FDCA4
:102A90009305D0020545EFE0BFDB1305300BEFF0E7
:102AA000FF9285450545EFE0BFDA9305C002054575
:102AB000EFE01FDA9305D0020545EFE07FD98545A9
:102AC0000545EFE0FFD89305C0020545EFE05FD86C
:102AD0009305D0020545EFE0BFD71305400BEFF09B
:102AE000FF8E9D450545EFE0BFD61305000CEFF0C6
:102AF000FF8D9305200A0545EFE09FD589450545E3
:102B0000EFE01FD5930540080545EFE07FD413059E
:102B1000100CEFF0BF8B9305500C0545EFE05FD331
:102B20001305200CEFF09F8AA9450545EFE05FD221
:102B300081450545EFE0DFD11305300CEFF01F892B
:102B40009305A0080545EFE0BFD09305A002054519
:102B5000EFE01FD01305400CEFF05F879305A0084E
:102B60000545EFE0FFCE9305E00E0545EFE05FCEB3
:102B70001305500CEFF09F85B9450545EFE05FCD9B
:102B800013056003EFF09F8483A7C184054763802A
:102B9000E70281CB09476381E7020D476384E702BF
:102BA00005A89305000C0545EFE09FCA15A08145D7
:102BB0000545EFE0FFC929A89305000A0545EFE0A8
:102BC0003FC939A0930500060545EFE07FC8010025
:102BD0001305000EEFF08FFFBD450545EFE05FC721
:102BE000E9450545EFE0DFC6BD450545EFE05FC6B9
:102BF000E1450545EFE0DFC59305F0020545EFE04F
:102C00003FC5930580020545EFE09FC49305000290
:102C10000545EFE0FFC3930520020545EFE05FC3E4
:102C2000FD450545EFE0DFC2ED450545EFE05FC23C
:102C3000930530020545EFE0BFC1930570030545DC
:102C4000EFE01FC181450545EFE09FC09D4505456B
:102C5000EFE01FC089450545EFE09FBFC145054531
:102C6000EFE01FBF1305100EEFF04FF6BD45054511
:102C7000EFE01FBEED450545EFE09FBDBD450545B5
:102C8000EFE01FBDDD450545EFE09FBC9305300338
:102C90000545EFE0FFBB9305C0020545EFE05FBBD4
:102CA000930590020545EFE0BFBA9305E0020545A4
:102CB000EFE01FBA930500030545EFE07FB99305E8
:102CC00000030545EFE0DFB8930590030545EFE00D
:102CD0003FB89305F0030545EFE09FB781450545F3
:102CE000EFE01FB79D450545EFE09FB68D450545D3
:102CF000EFE01FB6C1450545EFE09FB51305A00203
:102D0000EFF0CFEC81450545EFE09FB489450545DF
:102D1000EFE01FB481450545EFE09FB39305200820
:102D20000545EFE0FFB21305B002EFF02FEA814551
:102D30000545EFE0FFB18D450545EFE07FB18145E9
:102D40000545EFE0FFB0930530080545EFE05FB0C3
:102D50001305000FEFF08FE785450545EFE05FAF06
:102D60001305600FEFF08FE681450545EFE05FAE9C
:102D70001305A003EFF08FE595450545EFE05FAD46
:102D800013059002EFF08FE4B707002083D72723C5
:102D90003E85EFF03F8A0100F24062445249C24949
:102DA000324AA24A124B824B05618280411106C60B
:102DB00022C40008938581850545EFF0CF9505462F
:102DC000938581851385819159210100B240224468
:102DD00041018280411106C622C400089385918575
:102DE0000545EFF04F930546938591851385C19274
:102DF000B9290100B240224441018280011106CE6E
:102E000022CC00102326A4FE0327C4FE23AEE184B7
:102E100011280325C4FE5120052D0100F240624413
:102E200005618280411122C60008B717024098430D
:102E3000B71702401367170098C3B7170240D4436F
:102E4000B71702403707FFF8758FD8C3B71702408E
:102E50009443B71702403707F7FE7D17758F98C365
:102E6000B71702409443B71702403707FCFF7D179E
:102E7000758F98C3B7170240D443B717024037077E
:102E800081FF7D17758FD8C3B717024037079F00A2
:102E900098C70100324441018280797122D600181E
:102EA000232EA4FC232604FE232404FEB71702408D
:102EB0009443B71702404167558F98C3B717024034
:102EC0009843B7070200F98F2324F4FE8327C4FE3A
:102ED00085072326F4FE832784FE99E70327C4FE93
:102EE00093070050E31CF7FCB71702409843B7075D
:102EF0000200F98F89C785472324F4FE19A02324F3
:102F000004FE032784FE85476315F71EB72702409A
:102F10009843B72702401367070198C3B7270240B9
:102F20009843B7270240719B98C3B7270240944348
:102F30008327C4FD1387F7FFB7376E0193870760B8
:102F4000B357F70213F77700B7270240558F98C39E
:102F500037170240B71702405843D8C3371702400B
:102F6000B71702405843D8C337170240B71702407B
:102F70005843D8C30327C4FDB7177A0093870720A7
:102F8000631BF702B7170240D843B7170240719B83
:102F9000D8C3B7170240D843B717024013671700CA
:102FA000D8C30100B7170240DC4313F7C7009147AD
:102FB000E31AF7FE81A2B7170240D443B7170240C5
:102FC0003707C1FF7D17758FD8C30327C4FDB747E7
:102FD000950893870740631BF700B7170240D44357
:102FE000B71702404167558FD8C355A80327C4FDC2
:102FF000B7172707938707E0631CF700B71702404E
:10300000D443B717024037073900558FD8C341A8BA
:103010000327C4FDB7E7B80593870780631CF70053
:10302000B7170240D443B717024037072900558F1E
:10303000D8C3B5A00327C4FDB7A74A0493870720C8
:10304000631CF700B7170240D443B7170240370795
:103050001D00558FD8C3A1A00327C4FDB777DC029C
:10306000938707C0631CF700B7170240D443B71714
:10307000024037071100558FD8C315A00327C4FDA0
:10308000B7376E0193870760631BF700B7170240DD
:10309000D443B717024037070500558FD8C3B71779
:1030A00002409443B717024037070001558F98C379
:1030B0000100B71702409843B7070002F98FF5DB0C
:1030C000B7170240D843B7170240719BD8C3B71750
:1030D0000240D843B717024013672700D8C3010046
:1030E000B7170240DC4313F7C700A147E31AF7FE06
:1030F00011A001A0325445618280411122C600080E
:1031000001000100324441018280411106C622C4FF
:1031100000089306100213060002F167938507204A
:103120000945EFE03FE585450945EFE07FD60547D6
:103130002380E1860100B2402244410182800111D6
:1031400006CE22CC0010AA872324B4FE2322C4FE7C
:10315000A307F4FE8347F4FE8DE383C7018691CB7A
:10316000032644FE832584FEBD67138587C7EF9041
:10317000C004092EEFF07FF8F5BF0100F240624471
:1031800005618280797106D622D40018232EA4FC12
:10319000232CB4FC232AC4FC232604FEA9A001008E
:1031A000BD67938747DB9C47930500043E85EF404E
:1031B000F02DAA87F5D7BD67938747DB9C47BE866E
:1031C000832784FD13871700232CE4FC83870700E3
:1031D000C207C183BE853685EF4070288327C4FEB1
:1031E00085072326F4FE0327C4FE832744FDE34816
:1031F000F7FA832744FD3E85B25022544561828010
:10320000011122CE00102326A4FE2324B4FE83271E
:10321000C4FED843832784FE3E978327C4FED8C3C9
:1032200019A88327C4FED8438327C4FE9C4B1D8F57
:103230008327C4FED8C38327C4FE984B8327C4FECC
:10324000DC43E3F0E7FE010072440561828079719E
:1032500006D622D40018232EA4FC232CB4FC232A47
:10326000C4FC8327C4FDDC47032744FD637EF70CC1
:10327000112C8327C4FD984B8327C4FDDC43B3077F
:10328000F7402326F4FE032744FD8327C4FE63FD95
:10329000E7068327C4FD98438327C4FDDC43BA9720
:1032A0000326C4FE832584FD3E85EF8040468325AA
:1032B000C4FE0325C4FDEFF0BFF4032784FD83277C
:1032C000C4FEBA97232CF4FC8327C4FD98438327BC
:1032D000C4FDDC43B306F700032744FD8327C4FE87
:1032E000B307F7403E86832584FD3685EF80204274
:1032F000032744FD8327C4FEB307F740BE8503259B
:10330000C4FDEFF0FFEF2DA08327C4FD9843832772
:10331000C4FDDC43BA97032644FD832584FD3E8526
:10332000EF80E03E832544FD0325C4FDEFF05FED13
:103330008327C4FDD847832744FD1D8F8327C4FD01
:10334000D8C7112A814711A089473E85B25022541F
:1033500045618280011122CE00102326A4FE83271E
:10336000C4FEFD8B0547B316F70037E700E083275F
:10337000C4FE9583938707048A07BA9794C3010014
:10338000724405618280011122CE00102326A4FE22
:103390008327C4FEFD8B0547B316F70037E700E02F
:1033A0008327C4FE9583938707068A07BA9794C339
:1033B0000100724405618280011122CE0010232693
:1033C000A4FEAE87A305F4FE37E700E08327C4FE22
:1033D000BA970347B4FE2380E740010072440561B9
:1033E0008280011106CE22CC00102326A4FE0325E4
:1033F000C4FEEFF03FF60100F240624405618280B6
:10340000011106CE22CC00102326A4FE0325C4FE03
:10341000EFF07FF70100F240624405618280011104
:1034200006CE22CC00102326A4FEAE87A305F4FE10
:103430008347B4FEBE850325C4FEEFF0FFF701000D
:10344000F240624405618280411122C600080100F9
:10345000324441018280411106C622C4000883A77C
:10346000418699C783A741861387F7FF23A2E18688
:1034700083A7418699E3EFC01FD90100B2402244DF
:1034800041018280411106C622C4000883A74186FB
:1034900099E3EFC0FFD683A741861387170023A2C5
:1034A000E1860100B240224441018280011122CE16
:1034B00000102326A4FE2324B4FE2322C4FE2320CE
:1034C000D4FE39AA832784FE83D707003D6783266D
:1034D000C4FE8A06130707D836971843A183C2078C
:1034E000C1832316F7000100BD670327C4FE0A0746
:1034F000938707D8BA979C4383D78700C207C183B5
:1035000093F70708F5F3832744FE8DCBBD670327A8
:10351000C4FE0A07938707D8BA979C4383D7C7008E
:10352000C207C183A207C207C18393F707F01397AD
:1035300007014183832744FE2390E700832784FE0D
:1035400083D707003D678326C4FE8A06130707D882
:103550003697184393F7F70FC207C1832316F70076
:103560000100BD670327C4FE0A07938707D8BA97EF
:103570009C4383D78700C207C18393F70708F5F3FD
:10358000832744FEA1C7832744FE83D707001397F0
:1035900007014187BD678326C4FE8A06938707D843
:1035A000B6979C4383D7C700C207C183C207C187B0
:1035B00093F7F70FC207C187D98FC207C187139747
:1035C00007014183832744FE2390E700832784FE7D
:1035D00089072324F4FE832744FE89072322F4FE6F
:1035E000832704FE1387F7FF2320E4FEE39C07EC08
:1035F0000100724405618280411106C622C40008A0
:1036000093060031054685451145EFC07FF083A73D
:10361000C18513D647001308F00F85470947814637
:103620008D450145EFD09FFC0100B240224441018D
:103630008280797106D622D40018AA87231FF4FC51
:10364000231704FE81451145EFC0FFDE1307E4FE9A
:103650009307E4FD85463A86BE850145EFF01FE5F8
:1036600085451145EFC03FDD8357E4FE3E85B250EE
:10367000225445618280797106D622D40018232E07
:10368000A4FCE177938707302310F4FEE17793875A
:1036900007402311F4FEA30704FECDA8835704FEC0
:1036A0003E85EFF01FF9AA872312F4FE835724FE0C
:1036B0003E85EFF01FF8AA872313F4FE835744FEDC
:1036C000A207139707014187835764FEC207C1878A
:1036D00093F7F70FC207C187D98FC207C187231598
:1036E000F4FE230704FE8547A306F4FE1DA003573E
:1036F000A4FE8347D4FEB357F740858B91C7834719
:10370000E4FE85072307F4FE8347D4FE8507A3065E
:10371000F4FE0347D4FEBD47E3FBE7FC0347E4FEAA
:103720008357A4FEB98F858BA9EF8327C4FD035768
:10373000A4FE2390E7008357A4FE8983C207C183B8
:103740003E8793078016B307F70293D6F7411167B8
:103750007D17758FBA97B987139707014183832720
:10376000C4FD2391E7008357A4FE858793F7F70FE5
:10377000858B13F7F70F8327C4FD2382E700854766
:1037800021A88347F4FE8507A307F4FE0347F4FE50
:103790008D47E3F5E7F081473E85B25022544561FD
:1037A0008280397106DE22DC26DA4AD84ED68000C5
:1037B000AA872E872317F4FCBA872316F4FC2386E6
:1037C0000180231F04FC4DA2EF10605883C7D180F5
:1037D0008D8793F7F70F858B93F7F70FBE8513054A
:1037E000B006EFC05FC583C7D180898793F7F70F15
:1037F000858B93F7F70FBE851305F006EFC0BFC3A7
:1038000083C7D180858793F7F70F858B93F7F70FE1
:10381000BE8513059006EFC01FC283C7D180858B7C
:1038200093F7F70FBE851305D006EFC0DFC083C73F
:10383000D180858393F7F70F13978701618783C73B
:10384000D1808E07E207E187A18BE207E187D98F5C
:10385000E207E18713F7F70FA386E180138541871D
:10386000EFF07FE19387418783D727003E85EF7094
:103870009050AA87232CF4FC93870194DC433E8567
:10388000EF701043AA87BE85032584FDEF70407E4C
:10389000AA873E87BD6783A507CC3A85EF70204392
:1038A000AA876355F004938701949C473E85EF7087
:1038B0003040AA8493870194DC43938787163E8522
:1038C000EF70103FAA87BE85032584FDEF70407A14
:1038D000AA87BE852685EF60D05DAA873E85EF70FA
:1038E000B0312A879387019498C789A09387019460
:1038F0009C473E85EF70D03BAA8493870194DC43BC
:103900003E85EF70F03AAA87BE85032584FDEF70EF
:103910002076AA87BE852685EF60B059AA873E85A6
:10392000EF70902D2A879387019498C7032584FD13
:10393000EF70902C2A8793870194D8C30357C4FC57
:1039400083A6C1858967938707F4B3D7F602B307C7
:10395000F7023E8981494A85CE85EFC01FA883576B
:10396000E4FD8507231FF4FC0357E4FD8357E4FCC3
:103970006376F70083C7A188E38807E405472386B9
:10398000E1800100F2506254D2544259B25921618F
:103990008280397106DE22DC26DA4AD84ED68000D3
:1039A000AA872E872317F4FCBA872316F4FC231F5B
:1039B00004FC7DA2EF10A03983C7E180858B93F7CB
:1039C000F70FBE851305B006EFC0FFA683C7E180E1
:1039D000858793F7F70F858B93F7F70FBE85130550
:1039E000F006EFC05FA583C7E180898793F7F70FE3
:1039F000858B93F7F70FBE8513059006EFC0BFA325
:103A000083C7E1808D8793F7F70F858B93F7F70FC7
:103A1000BE851305D006EFC01FA283C7E180858352
:103A200093F7F70F13978701618783C7E1808E07AC
:103A3000E207E187A18BE207E187D98FE207E187FF
:103A400013F7F70F2387E1801385C187EFF0BFC21B
:103A50009387C18783D727003E85EF70D031AA872F
:103A6000232CF4FC93870194DC433E85EF705024B3
:103A7000AA87BE85032584FDEF70805FAA873E87F5
:103A8000BD6783A547CC3A85EF70C02CAA8763DB5E
:103A90000704938701949C473E85EF707021AA84A8
:103AA00093870194DC433E85EF709020AA87BE8502
:103AB000032584FDEF70C05BAA873E87BD6783A5A1
:103AC00087CC3A85EF60F03EAA87BE852685EF60F9
:103AD000503EAA873E85EF7030122A879387019463
:103AE00098C789A0938701949C473E85EF70501C2E
:103AF000AA8493870194DC433E85EF70701BAA87EC
:103B0000BE85032584FDEF70A056AA87BE85268555
:103B1000EF60303AAA873E85EF70100E2A879387B0
:103B2000019498C7032584FDEF70100D2A879387B1
:103B30000194D8C30357C4FC83A6C18589679387C2
:103B400007F4B3D7F602B307F7023E8981494A85E5
:103B5000CE85EFC09F888357E4FD8507231FF4FCC3
:103B60000357E4FD8357E4FC6376F70083C7A1881D
:103B7000E38207E40100F2506254D2544259B25930
:103B800021618280797106D622D426D24AD00018CB
:103B9000232EA4FC232CB4FC232AC4FC2328D4FC0D
:103BA000832544FD032504FDEF70804CAA873E87E2
:103BB0008327C4FD98C38327C4FDD8478327C4FD4A
:103BC0009C43BE853A85EF60D02EAA873E87832727
:103BD000C4FDD8C7832784FD98438327C4FD9C4335
:103BE000BE853A85EF70C01FAA87BE84832784FDF7
:103BF000D8438327C4FDDC47BE853A85EF70401E5D
:103C0000AA87BE852685EF60D02AAA873E898327AA
:103C100084FD84478327C4FD98438327C4FDDC4388
:103C2000BE853A85EF70C044AA87BE852685EF70B1
:103C3000201BAA87BE854A85EF60B027AA87232666
:103C4000F4FE8327C4FD98438327C4FDD8C383278C
:103C5000C4FE3E85B250225492540259456182807E
:103C6000011106CE22CC26CA001013854188EFF040
:103C70009FA09387418883D727003E85EF70B00FC0
:103C8000AA872326F4FE938701949C473E85EF7014
:103C90003002AA8493870194DC433E85EF70500183
:103CA000AA87BE850325C4FEEF70803CAA87BE8527
:103CB0002685EF601020AA873E85EF70E0732A8783
:103CC0009387019498C70325C4FEEF70E0722A879A
:103CD00093870194D8C3EF00D07D83C7A188639DEB
:103CE000070E938701949C473E85EF70607CAA8401
:103CF00093870194DC473E85EF70807BAA87BE8660
:103D00002686B70700209385070013854195EFF0BD
:103D10007FE72324A4FE9387419513070000D8C7AB
:103D200003A7018789476315F702032784FEB707B6
:103D3000008093C7F7FF7D8FBD6783A5C7CC3A8509
:103D4000EF704001AA8763D507000D4723A8E186DD
:103D500093050000032584FEEF607077AA87635700
:103D6000F002032584FEEF702069AA87BE85014515
:103D7000EF00D072032584FEEF70206EAA87C20781
:103D8000C183E5453E85EFF0DFC0B9A09305000093
:103D9000032584FEEF60107CAA8763C307002DA86B
:103DA000032784FEB7070080B98F3E85EF70C0649B
:103DB000AA87BE850545EF00706E032784FEB7070E
:103DC0000080B98F3E85EF704069AA87C207C18322
:103DD000E5453E85EFF0FF9C0100F2406244D2448D
:103DE00005618280011106CE22CC00101307400429
:103DF00023A0E194930784FE3E85EFF0DF8783578D
:103E0000A4FE3E8793870194D8C393870194DC4333
:103E10001387C7FB9387019498C79387019423A8BE
:103E20000700054723A4E18693870194984B938765
:103E30000194D8C70547A385E188054723A8E186F3
:103E40000100F240624405618280011106CE22CC5D
:103E500000102326A4FE0327C4FEB7070080B98FF5
:103E60003E85EF7060592A8793870194D8C793875E
:103E7000019498479385C1943A850928094723A856
:103E8000E1860100F240624405618280011122CE88
:103E900000102326A4FE2324B4FE832784FE9C4323
:103EA0000327C4FE6318F70003A7818693878186E2
:103EB000D8C3B5A0832784FE9C430327C4FE635662
:103EC000F702938781860547D8C303A78186938726
:103ED0008186DC436305F704832784FE9C431387B4
:103EE000D702832784FE98C31DA8832784FE9C43A2
:103EF0000327C4FE63D5E7029387818623A20700C8
:103F000003A7818693878186DC43630AF7008327B2
:103F100084FE9C43138737FD832784FE98C39387D1
:103F20008186D84323A4E186010072440561828022
:103F3000597186D6A2D48018AA87A30FF4F8AE8749
:103F4000230FF4F8B287A30EF4F8B687231DF4F814
:103F5000BA87230EF4F8232204FE232404FE23262A
:103F600004FE232204FC232404FC232604FC23282F
:103F700004FC232A04FC232C04FC232E04FC232011
:103F800004FE232804FA232A04FA232C04FA232EFD
:103F900004FA232004FC85451545EF20901E854535
:103FA00037050002EF20502285672312F4FEE14717
:103FB0002326F4FE8D472324F4FE930744FEBE859A
:103FC000B717014013850780EF20E00885679387C6
:103FD00007802312F4FE930780042326F4FE930740
:103FE00044FEBE85B717014013850780EF20A00669
:103FF000232604FC232804FC232A04FC8547232CC5
:10400000F4FC232E04FC232004FE8347C4F923037D
:10401000F4FC8347F4F9A303F4FC8347D4F92304A5
:10402000F4FC8347E4F9A304F4FC8357A4F92312B6
:10403000F4FC930744FCBE85B76700401385074036
:10404000EF106018230D04FA8547A30DF4FA230E30
:1040500004FA930700402318F4FA93070034231955
:10406000F4FA93070032231AF4FA93070030231B63
:10407000F4FA231C04FA85472320F4FC930704FB7D
:104080003E85EF1020378945B7670040138507400C
:10409000EF10905C930740022304F4FA8547A304D1
:1040A000F4FA230504FA85472326F4FA930784FAE1
:1040B0003E85EF20003D05468945B76700401385E2
:1040C0000740EF1070340100B650265465618280BD
:1040D000397106DE22DC80002326A4FCAE87232271
:1040E000C4FCA305F4FC231704FE832744FC232C03
:1040F000F4FC230004FEA30004FE8347B4FC230168
:10410000F4FE231704FE25A08357E4FE0327C4FC16
:104110003E978357E4FE03470700930604FFB697D4
:10412000A389E7FE8357E4FE85072317F4FE834740
:10413000B4FCC207C1830357E4FEE367F7FC9307AF
:1041400084FDBE85B767004013850740EF1000521D
:10415000AA87A306F4FE231704FE31A08357E4FECA
:1041600085072317F4FE8347D4FEBE85B76700405A
:1041700013850740EF100072AA873E8785476308C2
:10418000F7000357E4FE8567F917E3F9E7FC0357E7
:10419000E4FE8567FD176314F700854711A081478A
:1041A0003E85F250625421618280397106DE22DC44
:1041B00080002326A4FC8145B76700401385074093
:1041C000EF10101FAA8799E3814789A8930784FD00
:1041D0003E868145B767004013850740EF10607D3C
:1041E000A30704FE25A00347F4FE8347F4FE8326BD
:1041F000C4FCB697930604FF3697034737FF238026
:10420000E7008347F4FE8507A307F4FE834724FEF7
:104210000347F4FEE369F7FC834724FE3E85F25032
:10422000625421618280411122C6000893055052D8
:10423000B747014013850780EF30B029AA8789CBA3
:1042400093055052B747014013850780EF309038EF
:1042500001003244410173002030411122C60008A0
:1042600093055052B747004013850740EF30702642
:10427000AA87A1C303A7418585476315F700EFE02F
:104280007FB505A003A7418589476315F700EFD0E7
:104290001FFC01A803A741858D476314F700EFE0D9
:1042A000FFB093055052B747004013850740EF30E9
:1042B000703201003244410173002030411122C6A6
:1042C000000893055052B757004013850780EF3020
:1042D0005020AA8789CB93055052B75700401385C9
:1042E0000780EF30302F010032444101730020304D
:1042F000411122C6000893055052B757004013855C
:1043000007C0EF30101DAA8789CB93055052B757CD
:104310000040138507C0EF30F02B0100324441010B
:1043200073002030411122C60008930550523755C2
:104330000040EF30101AAA8789CBEFD0DFF3930546
:10434000505237550040EF30F0280100324441010F
:1043500073002030411122C6000893055052B72740
:10436000004013850780EF30D016AA8789CB9305CC
:104370005052B727004013850780EF30B025010069
:104380003244410173002030411122C600089305D8
:104390005052B7270040138507C0EF309013AA870B
:1043A0008DC703A7418585476309F70003A74185AA
:1043B00089476314F700EFD01FE793055052B727E2
:1043C0000040138507C0EF30F02001003244410166
:1043D00073002030411122C6000893055052372542
:1043E0000040EF30100FAA8799C793055052372528
:1043F0000040EF30301E0100324441017300203094
:10440000411122C60008B707055083C7070193F77B
:10441000F70F918B85C3EFD07FE9B707055083C7AE
:10442000070113F7F70FB70705506D9B1377F70FC9
:104430002388E7000100324441017300203041111C
:1044400022C600080545EF10B0392A878547631555
:10445000F7000545EF10303E010032444101730082
:104460002030411122C600080945EF1070372A8715
:1044700085476315F7000945EF10F03B0100324412
:10448000410173002030411122C600081145EF1090
:1044900030352A8785476315F7001145EF10B0398D
:1044A00001003244410173002030411122C600084E
:1044B0002145EF10F0322A8785476315F700214523
:1044C000EF10703701003244410173002030411178
:1044D00022C600084145EF10B0302A878547631592
:1044E000F7004145EF1030350100324441017300BF
:1044F0002030411122C6000813050002EF10502E93
:104500002A8785476316F70013050002EF10B032C3
:1045100013050004EF10D02C2A8785476316F70097
:1045200013050004EF10303113050008EF10502B75
:104530002A8785476316F70013050008EF10B02F90
:1045400013050010EF10D0292A8785476316F7005E
:1045500013050010EF10302E13050020EF10502827
:104560002A8785476316F70013050020EF10B02C4B
:1045700001003244410173002030411122C600087D
:1045800013050040EF10D0252A8785476316F700F2
:1045900013050040EF10302A856713850780EF1060
:1045A00030242A8785476317F700856713850780BE
:1045B000EF1070280565EF10B0222A878547631534
:1045C000F7000565EF1030270965EF1070212A8785
:1045D00085476315F7000965EF10F0251165EF10A9
:1045E00030202A8785476315F7001165EF10B02446
:1045F0002165EF10F01E2A8785476315F7002165B6
:10460000EF1070230100324441017300203041114A
:1046100022C600088545B7370140138507C0EF3033
:10462000A024AA8781CB8545B7370140138507C0F1
:10463000EF30802A010032444101730020304111E3
:1046400022C60008854537050040EF30E021AA87E3
:1046500091C7854537050040EF30002801003244FE
:10466000410173002030411122C600088545B7077B
:10467000004013850740EF30201FAA8781CB854576
:10468000B707004013850740EF3000250100324492
:10469000410173002030411122C600088545B7173B
:1046A000004013850780EF30201CAA8781CB854509
:1046B000B717004013850780EF3000220100324415
:1046C000410173002030411122C600088545B7170B
:1046D0000040138507C0EF302019AA8781CB85459C
:1046E000B7170040138507C0EF30001F01003244A8
:1046F000410173002030411122C60008854537155D
:104700000040EF306016AA8791C7854537150040F5
:10471000EF30801C01003244410173002030411110
:1047200022C600088545B717004013850740EF30C3
:10473000A013AA8781CB8545B71700401385074092
:10474000EF308019010032444101730020304111E3
:1047500022C600088545B737014013850740EF3072
:10476000A010AA8781CF8545B73701401385074040
:10477000EF30801613052008EFB03FD3010032441C
:10478000410173002030411122C600088545B7570A
:104790000140138507C0EF30200DAA8781CB8545E6
:1047A000B7570140138507C0EF30001301003244B2
:1047B000410173002030411122C60008854537555C
:1047C0000140EF30600AAA8791C7854537550140FF
:1047D000EF3080100100324441017300203001119C
:1047E00022CE00108945B767004013850740EF10BF
:1047F00040462A8785476316F70213854196EFF0F6
:10480000DF9AAA87A307F4FE8347F4FE81C71385C6
:104810004196B52A8945B767004013850740EF10D8
:10482000A06301007244056173002030411122C66B
:10483000000801003244410173002030411122C6BA
:10484000000801A0411106C622C426C20008C146C4
:104850000546854513052008EFB09FCBC1460146AC
:1048600085451305B006EFB0BFCAC1460146854570
:1048700013059006EFB0DFC9C14601468545130513
:10488000F006EFB0FFC8C146014685451305D006C6
:10489000EFB01FC81306C05D9567938507E2130547
:1048A0000010EFC04FF11306C05D9567938507E2D6
:1048B0000145EFC04FF0EFE03FD4EFE0EF87014755
:1048C000B146154691450145EFF08FE603A7C18536
:1048D0009307803E3357F7029307800CB307F70224
:1048E000BE851D45EFB03FDC83A781803E85EF602C
:1048F00090482A87BD67BA8503A507CEEF600012EE
:10490000AA87BE8403A7C185B7470F0093870724F2
:10491000B357F7023E85EF601046AA87BE8526850D
:10492000EF60004CAA873E85EF603033AA87BE85D2
:104930002145EFB05FD70100B240224492444101CB
:104940008280011106CE22CC0010EFE0BFB3B74742
:10495000950813850740EFE06FCAEFE00FFBEFF01B
:104960007FEEEFE05FAFBD67138607CD8145014560
:10497000EFD03FF0930784FE3E85EFE0DFCF83C7A3
:10498000B18893F7F70FE5DFEFF08FADCDBF1D7165
:1049900086CEA2CC80102326A4FA23860188BD6788
:1049A000938547CE0325C4FAEF7070062324A4FE36
:1049B000832784FE6380072EBD67938587CE0325FA
:1049C00084FEEFB0BF8FAA8781E7EFF0AFC1D9A413
:1049D000BD67938507CF032584FEEFB03F8EAA877E
:1049E00099EB05472386E18893870194984B938739
:1049F0000194D8C745A4BD67938587CF032584FE5E
:104A0000EFB0DF8BAA8791E7238501882386018891
:104A100019A8BD67938507D0032584FEEFB01F8AD0
:104A2000AA8791E3252EBD67938587D0032584FE51
:104A3000EF70E07D2322A4FE832744FE638C0724CD
:104A4000BD679385C7D0032544FEEFB03F87AA8793
:104A500063910718BD67938587D00145EF70207B70
:104A60002320A4FEBD67938507D1032504FEEFB084
:104A7000FF84AA878DEBBD67938587D00145EF70D2
:104A80000079232EA4FC8327C4FD6385072003251A
:104A9000C4FDEF609042AA87C207C183E5453E8509
:104AA000EFE03FD0C5AABD67938547D1032504FE3B
:104AB000EFB0DF80AA878DEBBD67938587D0014576
:104AC000EF70E074232CA4FC832784FD6384071C0F
:104AD000032584FDEF60703EAA87C207C183E545C8
:104AE0003E85EFE01FEB7DA2BD67938587D103254F
:104AF00004FEEFB0AFFCAA87639E0718930744FC3F
:104B00003E85EFE05FB7232A04FA232C04FA91478D
:104B1000A307F4FE93070005230EF4FA930700029F
:104B2000A30EF4FA93076003230FF4FA930700022D
:104B3000A30FF4FA835764FC3E87930744FB29468E
:104B4000BE853A85EF60703C230704FE1DA88347AD
:104B5000E4FE130704FFBA97038747FC8347F4FE7C
:104B60001377F70F930604FFB6972386E7FC834776
:104B7000F4FE8507A307F4FE8347E4FE85072307B9
:104B8000F4FE8347E4FE130704FFBA97838747FCCC
:104B900091C70347E4FE9D47E3FBE7FA0347F4FEB2
:104BA0009D4763E9E70E8347F4FE130704FFBA97B6
:104BB000130730022386E7FC8347F4FE850713F7CB
:104BC000F70F9307C4FB0146BA853E85EFF04FD03F
:104BD000D1A0BD679385C7D1032544FEEFB00FEE8A
:104BE000AA8789E705472385E1886DA0BD6793857E
:104BF00047D2032544FEEFB06FECAA878DEBBD676B
:104C0000938547CE0145EF708060232AA4FC83275B
:104C100044FDC9C3032544FDEF60302AAA873E85C1
:104C2000EF601009AA873E85EFF02FA2A5A0832789
:104C300044FE038707009307A004631DF70483273E
:104C400044FE850783870700938707FD2328F4FC2C
:104C5000BD67938547CE0145EF70605B2326A4FCBA
:104C60008327C4FC85CBBD67938507CF0325C4FC90
:104C7000EFB0CFE4AA8799EF832704FD1387F7FFEE
:104C800093870189BA9705472380E7001305200819
:104C9000EFB0BF81F640664425618280011122CECB
:104CA00000102326A4FE2324B4FE010072440561F3
:104CB0008280011106CE22CC001083C7C188D9C3DF
:104CC00093870194984793870194DC471D8FDD57A4
:104CD000634AF70693870194984793870194DC47CA
:104CE0001D8FA54763C0E706232404FE232604FE88
:104CF0009307A0042304F4FE93076003A304F4FEC7
:104D0000930700022305F4FE93072004A305F4FE95
:104D1000930710042306F4FE93073004A306F4FE61
:104D20009307B0042307F4FE93073002A307F4FEB1
:104D3000930784FE13060002A1453E85EFF04FB9AC
:104D4000238601880100F24062440561828041119E
:104D500022C600080100324441018280797106D6E2
:104D600022D40018B7372055938747A52324F4FE93
:104D7000B75723009387E7942326F4FEB7372049DB
:104D8000938747A52320F4FEB75723009387E79422
:104D90002322F4FEB7372053938747A5232CF4FC36
:104DA000B747230093874715232EF4FCB7372052CB
:104DB000938747A52328F4FCB75723009387F7442C
:104DC000232AF4FC93076003A304F4FE9307600313
:104DD000A300F4FE93076003A30CF4FC93076003A5
:104DE000A308F4FC83A701870547638AE70281CB08
:104DF00009476386E7040D476383E70649A09307E5
:104E000084FE3E85EF70803FAA8713F7F70F930764
:104E100084FE0146BA853E85EFF08FAB8DA09307E7
:104E200004FE3E85EF70803DAA8713F7F70F9307C6
:104E300004FE0146BA853E85EFF08FA989A093074D
:104E400004FD3E85EF70803BAA8713F7F70F9307A9
:104E500004FD0146BA853E85EFF08FA70DA09307AC
:104E600084FD3E85EF708039AA8713F7F70F93070B
:104E700084FD0146BA853E85EFF08FA50100010053
:104E8000B25022544561828001A001A001A001A07E
:104E900001A001A001A001A001A001A001A001A00A
:104EA00001A001A001A001A001A001A001A001A0FA
:104EB00001A001A001A001A001A001A001A001A0EA
:104EC00001A001A001A001A001A001A001A001A0DA
:104ED00001A001A001A001A001A001A001A001A0CA
:104EE00001A001A001A001A001A001A001A001A0BA
:104EF00001A001A001A001A001A001A001A001A0AA
:104F000001A001A001A001A001A001A001A001A099
:104F100001A001A001A001A001A001A001A001A089
:104F200001A001A001A001A001A001A001A001A079
:104F300001A001A001A001A001A001A001A001A069
:104F400001A001A001A07390123497C1FF1F9381AB
:104F500061AE17B100201301E10A17B50000130577
:104F600025B697B5FF1F9385E5091386818363FAFC
:104F7000C5008322050023A0550011059105E3EA31
:104F8000C5FE13858183938581986377B5002320BF
:104F900005001105E36DB5FEFD42739002BCFD42B4
:104FA00073904280B78200009382828873A002309F
:104FB00097B2FFFF9382820893E2320073905230DF
:104FC000EF004001970200009382E2977390123441
:104FD00073002030411106C622C40008B7170240F2
:104FE0009843B71702401367170098C3B7170240DA
:104FF000D443B71702403707FFF8758FD8C3B717E8
:1050000002409443B71702403707F7FE7D17758FAC
:1050100098C3B71702409443B71702403707FCFF05
:105020007D17758F98C3B7170240D443B717024056
:10503000370781FF7D17758FD8C3B7170240370731
:105040009F0098C731200100B24022444101828074
:10505000411106C622C4000831200100B24022449A
:1050600041018280011122CE0010232604FE232458
:1050700004FEB71702409443B71702404167558FAB
:1050800098C3B71702409843B7070200F98F23244B
:10509000F4FE8327C4FE85072326F4FE832784FEBF
:1050A00099E70327C4FE93070050E31CF7FCB717EA
:1050B00002409843B7070200F98F89C78547232428
:1050C000F4FE19A0232404FE032784FE85476318F9
:1050D000F70EB72702409843B7270240136707012E
:1050E00098C3B72702409843B7270240719B98C3E3
:1050F000B72702409843B72702401367270098C399
:1051000037170240B71702405843D8C33717024039
:10511000B71702405843D8C337170240B7170240A9
:105120005843D8C3B7170240D443B71702403707D4
:10513000C1FF7D17758FD8C3B7F7FF1F9387C7705F
:1051400098439167F98F99EBB7170240D443B7178B
:10515000024037073D00558FD8C309A8B717024052
:10516000D443B71702404167558FD8C3B7170240E1
:105170009443B717024037070001558F98C30100C9
:10518000B71702409843B7070002F98FF5DBB7174E
:105190000240D843B7170240719BD8C3B7170240EB
:1051A000D843B717024013672700D8C30100B717C9
:1051B0000240DC4313F7C700A147E31AF7FE0100E2
:1051C000724405618280797122D60018232EA4FCD6
:1051D000232CB4FCA30704FE232404FE8327C4FD70
:1051E0009C4313F7D7FF8327C4FD98C38327C4FDCF
:1051F0009C4313E717008327C4FD98C331A083277E
:1052000084FE85072324F4FE8327C4FDDC4313F7C3
:10521000170085476308F700032784FEC167FD1761
:10522000E31FF7FC8327C4FDDC4313F71700854712
:105230006305F700A30704FE45AA832784FD98476A
:105240008547631BF7008327C4FD9C4313E70708CA
:105250008327C4FD98C309A88327C4FD9C4313F783
:10526000F7F78327C4FD98C3832784FDD847854774
:10527000631BF7008327C4FD9C4313E707048327C0
:10528000C4FD98C309A88327C4FD9C4313F7F7FB0B
:105290008327C4FD98C3832784FD984B8547631BF0
:1052A000F7008327C4FD9C4313E707028327C4FD4F
:1052B00098C309A88327C4FD9C4313F7F7FD8327F0
:1052C000C4FD98C3832784FDD84B8547631BF70033
:1052D0008327C4FD9C4313E707018327C4FD98C3BC
:1052E00009A88327C4FD9C4313F7F7FE8327C4FD59
:1052F00098C3832784FD984F8547631BF700832756
:10530000C4FD9C4313E787008327C4FD98C309A805
:105310008327C4FD9C4313F777FF8327C4FD98C3FD
:10532000832784FDD84F8547631BF7008327C4FD7F
:105330009C4313E747008327C4FD98C309A883272C
:10534000C4FD9C4313F7B7FF8327C4FD98C383278D
:1053500084FD83C727001397E701832784FD83C754
:105360003700E2075D8F832784FD83C74700C207AC
:105370005D8F832784FD83C75700D2075D8F832706
:1053800084FD83D70700FD175D8F8327C4FDD8CF29
:105390008327C4FD9C4313F7E7FF8327C4FD98C30D
:1053A000232404FE31A0832784FE85072324F4FEF2
:1053B0008327C4FDDC4313F7170085476318F70004
:1053C000032784FEC167FD17E31FF7FC8327C4FD95
:1053D000DC4313F7170085476315F700A30704FEA6
:1053E00021A08547A307F4FE8347F4FE3E8532548F
:1053F00045618280797122D60018232EA4FC2326D1
:1054000004FE8327C4FD83C7A7003E878547B39763
:10541000E7002326F4FEB76700409387074003A701
:105420000720B7670040938707401367170023A042
:10543000E720B76700409387074083A6C7218327EB
:10544000C4FE13C7F7FFB767004093870740758F07
:1054500023AEE7208327C4FD83C7C700D1E7B76722
:1054600000409387074083A6C7208327C4FE13C745
:10547000F7FFB767004093870740758F23A6E720A3
:105480008327C4FD83D76700C2070327C4FD0357E2
:105490002700BA8537670040930607400327C4FDFD
:1054A0000347A7003A8633E7B700930786048E07C1
:1054B000B69798C38327C4FD83D74700C207032745
:1054C000C4FD03570700BA853767004093060740BD
:1054D0000327C4FD0347A7003A8633E7B7009307C5
:1054E00086048E07B697D8C38327C4FD03C7C700B9
:1054F00085476315F708B76700409387074083A681
:10550000C720B7670040938707400327C4FE558F25
:1055100023A6E7208327C4FD83D70700C2070327FC
:10552000C4FD03572700BA8537670040930607403C
:105530000327C4FD0347A7003A8633E7B700930764
:1055400086048E07B69798C38327C4FD83D7470088
:10555000C2070327C4FD03576700BA8537670040B9
:10556000930607400327C4FD0347A7003A8633E7A5
:10557000B700930786048E07B697D8C38327C4FD68
:1055800083C7B7009DE3B76700409387074083A6B2
:1055900047208327C4FE13C7F7FFB76700409387F0
:1055A0000740758F23A2E72005A0B76700409387C7
:1055B000074083A64720B76700409387074003272B
:1055C000C4FE558F23A2E7208327C4FD83D787001D
:1055D00095E3B76700409387074083A64721832759
:1055E000C4FE13C7F7FFB767004093870740758F66
:1055F00023AAE7208327C4FD03D7870085476311CB
:10560000F702B76700409387074083A64721B76733
:105610000040938707400327C4FE558F23AAE72045
:105620008327C4FD984B85476311F702B767004095
:105630009387074083A6C721B76700409387074039
:105640000327C4FE558F23AEE720B767004093873A
:10565000074003A70720B767004093870740799B5F
:1056600023A0E7200100325445618280797122D65F
:105670000018232EA4FC232CB4FCA30704FE8327CC
:10568000C4FD9847B70700047D8FB7070004631572
:10569000F700A30704FE81A08327C4FD9847B7073E
:1056A00000087D8FB70700086316F7008547A3073A
:1056B000F4FE15A08327C4FD9847B70700107D8F1F
:1056C000B70700106316F7008947A307F4FE21A06F
:1056D0009147A307F4FE0347F4FE91476306F71AC8
:1056E0008347F4FE0327C4FDE1079207BA97984366
:1056F0008347F4FE058B8326C4FDE1079207B69726
:1057000098C3832784FD83C7870085EF8347F4FE12
:105710000327C4FDE1079207BA979443832784FDCA
:105720009C43D607032784FD034797005D8F83477B
:10573000F4FE558F8326C4FDE1079207B69798C300
:1057400081A08347F4FE0327C4FDE1079207BA97BF
:105750009443832784FDDC438E07032784FD03479E
:105760008700D98F032784FD034797005D8F834708
:10577000F4FE558F8326C4FDE1079207B69798C3C0
:10578000832784FD83C7A700BD8B13F7F70F8327FB
:1057900084FD2385E7008347F4FE0327C4FDE1076A
:1057A0009207BA97D8438347F4FE419B8326C4FDF2
:1057B000E1079207B697D8C38347F4FE0327C4FDD9
:1057C000E1079207BA97D843832784FD83C7A700D0
:1057D000BE868347F4FE558F8326C4FDE1079207FA
:1057E000B697D8C3832784FD83C7E7001397870143
:1057F000832784FD83C7D700C2075D8F832784FD7D
:1058000083C7C700A2075D8F832784FD83C7B700C6
:10581000BE868347F4FE558F8326C4FDE1079207B9
:10582000B69798C7832784FD83C7270113978701FD
:10583000832784FD83C71701C2075D8F832784FDFB
:1058400083C70701A2075D8F832784FD83C7F70005
:10585000BE868347F4FE558F8326C4FDE107920779
:10586000B697D8C78347F4FE0327C4FDE107920724
:10587000BA9798438347F4FE136717008326C4FD45
:10588000E1079207B69798C38347F4FE3E853254EA
:1058900045618280797122D60018232EA4FCAE8740
:1058A000A30DF4FC232604FE8347B4FD0547638063
:1058B000E70209476388E7029DEF8327C4FD984705
:1058C000B70700048D07F98F2326F4FE05A8832768
:1058D000C4FD9847B707000893870730F98F232640
:1058E000F4FE29A88327C4FD9847B7070310F98F52
:1058F0002326F4FE21A0232604FE01000327C4FE74
:10590000B7070008938707106308F7060327C4FE4C
:10591000B70700089387071063E4E7020327C4FE74
:10592000B707000485076306F7040327C4FEB7071B
:1059300000048D076308F7048327C4FE9DC7B9A838
:105940000327C4FEB7070110630BF7020327C4FE49
:10595000B70703106300F7040327C4FEB707000866
:10596000938707306304F70215A889472326F4FEBE
:105970000DA8232604FE35A0232604FE1DA0232601
:1059800004FE05A085472326F4FE21A8854723268B
:10599000F4FE01A885472326F4FE21A0232604FE59
:1059A00001008327C4FE93F7F70F3E85325445610B
:1059B0008280011122CE00102326A4FEAE8723226E
:1059C000C4FEA305F4FE8347B4FE0327C4FEED071F
:1059D0009207BA979C4393F7F70F918B13F7F70F42
:1059E000832744FE2384E700832744FE83C7870080
:1059F00085E38347B4FE0327C4FEED079207BA97F9
:105A00009C43D58313F7F77F832744FE98C315A0E3
:105A10008347B4FE0327C4FEED079207BA979C4361
:105A200013D73700B7070020FD177D8F832744FE6B
:105A3000D8C38347B4FE0327C4FEED079207BA9785
:105A40009C4393F7F70F898B13F7F70F832744FED7
:105A5000A384E7008347B4FE0327C4FEED07920743
:105A6000BA97DC4393F7F70FBD8B13F7F70F832734
:105A700044FE2385E7008347B4FE0327C4FEED07F9
:105A80009207BA97DC43A18313F7F70F832744FEED
:105A9000A389E7008347B4FE0327C4FEED079207FE
:105AA000BA979C4713F7F70F832744FEA385E700B7
:105AB0008347B4FE0327C4FEED079207BA979C47BD
:105AC000A18313F7F70F832744FE2386E70083475C
:105AD000B4FE0327C4FEED079207BA979C47C18323
