:100000006F40F033130000001300000013000000E5
:100010001300000013000000130000001300000094
:100020001300000013000000130000001300000084
:08003000130000007300100032
:100038000000000000000000BE3D0000CE3D0000B2
:1000480000000000844A00000000000000000000DA
:10005800864A0000884A00000000000000000000F6
:100068008A4A0000000000008C4A000000000000DE
:100078008E4A0000904A0000924A0000944A00000C
:10008800964A0000984A00001E3A0000423A0000D2
:10009800663A00008A3A0000AE3A0000A44A00001E
:1000A800A64A0000A84A0000AA4A0000AC4A00007C
:1000B800AE4A0000B04A0000B24A0000B44A00004C
:1000C800B64A0000B84A0000BA4A0000D23A000016
:1000D800BE4A0000EE3B0000C24A0000C44A0000CD
:1000E8001E3C00004E3C00007E3C0000CC4A000054
:1000F800CE4A0000D04A0000D24A0000D44A00008C
:10010800D64A000074360000A83600000A370000FE
:100118005A3B0000E04A0000E24A0000E44A0000BE
:10012800363D0000E84A0000EA4A0000EC4A0000B8
:10013800EE4A0000F04A0000AE3C0000F44A00001D
:100148003E37000072370000DE3C0000063D00002C
:10015800FE4A0000004B0000024B0000044B000068
:10016800064B0000084B00000A4B00000C4B000037
:100178000E4B0000104B0000124B00008A73000069
:10018800164B0000184B00004E380000A237000044
:10019800D637000022380000224B0000663D0000E0
:1001A800264B0000284B00002A4B0000963D00001B
:1001B8002E4B0000304B0000324B0000344B000047
:1001C800364B0000384B00003A4B00003C4B000017
:1001D8000000000000000000000000000000000017
:1001E8000000000000000000000000000000000007
:0801F8000000000000000000FF
:10020000737504308280B76200009382820873A005
:10021000023082803D432A876373C3029377F700DD
:10022000BDEFADE5937606FF3D8ABA960CC34CC38D
:100230000CC74CC74107E36BD7FE11E28280B306BF
:10024000C3408A069702000096966780A60023079F
:10025000B700A306B7002306B700A305B700230520
:10026000B700A304B7002304B700A303B700230318
:10027000B700A302B7002302B700A301B700230110
:10028000B700A300B7002300B700828093F5F50FF5
:1002900093968500D58D93960501D58D61B793967C
:1002A00027009702000096968682E78086FA96805D
:1002B000C1171D8F3E96E374C3F8A5B7011122CE76
:1002C00000102324A4FE2326B4FEB7F700E023A0E9
:1002D0000700B7F700E08146014794C7D8C7B7F7D2
:1002E00000E0054798C30100B7F700E003A8C70086
:1002F0009C470327C4FEC286636CD7000327C4FE55
:10030000C286E313D7FE032784FE6363F700E9BFC9
:100310000100724405618280797122D60018232E73
:10032000A4FC8327C4FD958393F7F70F9D8BA30748
:10033000F4FE8327C4FD93F7F70FBD8B2307F4FE6C
:100340000347F4FEB5670A07938747F3BA979C43C0
:10035000DC470347E4FE85463397E60042074183C6
:100360003A868346F4FE35678A06130747F33697C5
:100370001843B18F5CC701003254456182807971A6
:1003800006D622D40018232EA4FC232CB4FC232A46
:10039000C4FC2328D4FC8327C4FD958393F7F70F6F
:1003A0009D8BA307F4FE8327C4FD93F7F70FBD8B46
:1003B0002307F4FE0327C4FD9307F00F6305F7142A
:1003C0000327C4FD9307F00F6301F7148347F4FE7E
:1003D00091E785451145EF50D02341A00347F4FE36
:1003E00085476317F70085452145EF509022B5A05A
:1003F0000347F4FE89476317F70085454145EF50F1
:100400005021A1A80347F4FE8D476318F7008545E6
:1004100013050002EF50F01F89A00347F4FE914737
:100420006318F700854513050004EF50901E35A0B2
:100430000347F4FE95476318F70085451305000848
:10044000EF50301D19A80347F4FE99476317F700D2
:10045000854513050010EF50D01B8347E4FE054788
:10046000B317F700C207C1832310F4FE032784FDEE
:1004700085476317F702832704FDC207C183A18361
:10048000C207C18389E78D472322F4FE11A8832781
:1004900004FDC207C183A183C207C1832322F4FEE6
:1004A000832704FDC207C18393F7F70F2324F4FECB
:1004B0000347F4FEB5670A07938747F3BA979C434F
:1004C0003E87930704FEBE853A85EF40D07B032725
:1004D00084FD8547631CF7020347F4FEB5670A07EE
:1004E000938747F3BA979C43BE868347E4FE05474C
:1004F000B317F700C207C183032644FDBE853685C6
:10050000EF50001B21A0010011A00100B2502254A5
:1005100045618280011106CE22CC00102326A4FE64
:100520008327C4FE89EB930680310146854521452A
:10053000B9356F00C0720327C4FE8547631AF70000
:1005400093068031014685452545153D6F00207194
:100550000327C4FE8947631AF700930680310146DA
:1005600085452945293D6F00806F0327C4FE8D47CF
:10057000631AF70093068031014685452D45013504
:100580006F00E06D0327C4FEC147631BF7009306AD
:1005900080310146854513059008D5336F00206CE6
:1005A0000327C4FEC547631AF7009306803101464E
:1005B00085451305B008E1335DA50327C4FEC9478F
:1005C000631AF70093068031014685451305D0086C
:1005D0007D3371A50327C4FECD47631AF700930648
:1005E0008031014685451305E008513B8DAD032759
:1005F000C4FE930700106319F7009306803101468B
:1006000085450145AD3BA1AD0327C4FE93071010FE
:100610006319F7009306803101468545054585330A
:100620003DAD0327C4FE930720106319F70093061E
:100630008031014685450945993315A50327C4FE38
:10064000930730106319F700930680310146854502
:100650000D45353329A50327C4FE930700116319FF
:10066000F70093068031014685453D45093BC5AB02
:100670000327C4FE93071011631AF7009306803115
:100680000146854513053002DD39D1AB0327C4FE91
:1006900093072011631AF7009306803101468545C0
:1006A0001305A002E93965AB0327C4FE9307301197
:1006B000631AF70093068031014685451305B002A1
:1006C0007D3971AB0327C4FE930700206319F7003F
:1006D00093068031014685451945553149A30327C5
:1006E000C4FE930710206319F7009306803101467A
:1006F00085451D456931A5A30327C4FE9307202026
:10070000631AF70093068031014685451305000200
:10071000BD31B1A30327C4FE93073020631AF7004D
:10072000930680310146854513051002893905ABD2
:100730000327C4FE93070021631AF7009306803154
:1007400001468545130560041D3911AB0327C4FE1E
:1007500093071021631AF7009306803101468545FF
:10076000130570042939E5A90327C4FE9307202146
:10077000631AF7009306803101468545130580040E
:10078000FD3EF1A90327C4FE93073021631AF70049
:10079000930680310146854513059004CD36C1A1ED
:1007A0000327C4FE93070022631AF70093068031E3
:1007B0000146854513054002D93655A10327C4FEDD
:1007C00093071022631AF70093068031014685458E
:1007D000130550026D3661A10327C4FE9307003054
:1007E000631AF700930680310146854513056002C0
:1007F0007936B5A10327C4FE93071030631AF700BA
:100800009306803101468545130570028D3E81A90E
:100810000327C4FE93072030631AF7009306803144
:100820000146854513058002993E15A90327C4FE9C
:1008300093073030631AF7009306803101468545EF
:10084000130590022D3E21A90327C4FE9307003112
:10085000631AF70093068031014685451305C006EB
:10086000393EF5AE0327C4FE93071031631AF70033
:1008700093068031014685451305D0060936C5A685
:100880000327C4FE93072031631AF70093068031D3
:10089000014685451305E006DD34D1A60327C4FED5
:1008A00093073031631AF70093068031014685457E
:1008B0001305F006E93465A60327C4FE930700403C
:1008C0006319F70093068031014685450145453C93
:1008D00079A60327C4FE930710406319F700930617
:1008E0008031014685450545593C95AE0327C4FE38
:1008F000930720406319F700930680310146854530
:100900000945B53CA9AE0327C4FE930730406319DF
:10091000F70093068031014685450D458D3481A64B
:100920000327C4FE93070070631AF7009306803113
:100930000146854513056004993415A60327C4FEB6
:1009400093071070631AF7009306803101468545BE
:10095000130570042D3421A60327C4FE93072070CD
:10096000631AF7009306803101468545130580041C
:100970003934F5A40327C4FE93073070631AF700D7
:10098000930680310146854513059004CD3AC1ACEC
:100990000327C4FE93070071631AF70093068031A2
:1009A0000146854513056002D93A55AC0327C4FEBC
:1009B00093071071631AF70093068031014685454D
:1009C000130570026D3A61AC0327C4FE93072071D2
:1009D000631AF700930680310146854513058002AE
:1009E000793AB5AC0327C4FE93073071631AF70058
:1009F00093068031014685451305D004493285A40C
:100A00008327C4FE9387078081EB930680310146DC
:100A100085450945AD32A1A40327C4FE85679387A8
:100A200017806319F70093068031014685450D450F
:100A3000B93235A40327C4FE8567938727806319DD
:100A4000F700930680310146854511450D3A01AC0A
:100A50000327C4FE856793873780631AF7009306E0
:100A600080310146854513054004113ACDAA03277C
:100A7000C4FE856793870781631AF7009306803168
:100A80000146854513059006DD38D1AA0327C4FE2B
:100A9000856793871781631AF700930680310146B3
:100AA00085451305B006E1385DAA0327C4FE8567B6
:100AB00093872781631AF7009306803101468545A5
:100AC0001305D0066D3861AA0327C4FE8567938796
:100AD0003781631AF7009306803101468545130577
:100AE000F0067138ADAA0327C4FE85679387079087
:100AF000631AF7009306803101468545130580028D
:100B0000BD38B1AA0327C4FE856793871790631A7F
:100B1000F700930680310146854513059002853024
:100B20003DAA0327C4FE856793872790631AF700C1
:100B3000930680310146854513053004893005A2AE
:100B40000327C4FE856793873790631BF7009306DE
:100B50008031014685451305B004EFF05F8201A2A4
:100B60000327C4FE856793870791631BF7009306ED
:100B700080310146854513051006EFF05F80C5A062
:100B80000327C4FE856793871791631BF7009306BD
:100B900080310146854513053006EFF04FFEC1A0B8
:100BA0000327C4FE856793872791631BF70093068D
:100BB00080310146854513055006EFF04FFC45A0F6
:100BC0000327C4FE856793873791631BF70093065D
:100BD00080310146854513057006EFF04FFA41A0BC
:100BE0000327C4FE856793870792631BF70093066C
:100BF00080310146854513053002EFF04FF885A09E
:100C00000327C4FE856793871792631BF70093063B
:100C100080310146854513054002EFF04FF681A073
:100C20000327C4FE856793872792631BF70093060B
:100C300080310146854513055002EFF04FF405A0C1
:100C40000327C4FE856793873792631AF7009306DC
:100C50008031014685451305F004EFF04FF20100A5
:100C6000F240624405618280397106DE22DC800038
:100C70002326A4FC2324B4FC2322C4FC231704FE53
:100C80008327C4FCA1838D453E85EF005017AA87BA
:100C90003E871306900BB567938587D63A85EF207C
:100CA00000398327C4FCA1833E85EF00D01A0325B9
:100CB000C4FCEFF03F8685450545EF50801583273E
:100CC000C4FC13D747008547631AF7008545B7076B
:100CD00016001385070CEF40302101A28327C4FCC6
:100CE00013D74700C547631AF7008545B7071800B3
:100CF00013850730EF40501FCDA08327C4FC13D7C6
:100D0000470093071002631AF7008545B7171A00CA
:100D1000138507C0EF40501DC9A08327C4FC13D71B
:100D2000470093072002631AF7008545B7171A009A
:100D300013850780EF40501B4DA08327C4FC13D7B9
:100D40004700930710036317F70085450565EF40DB
:100D5000B01961A08327C4FC13D74700930710077D
:100D6000631BF700B7070140D84FB707014013676F
:100D70004700D8CF9DA08327C4FC13D74700930713
:100D80001008631BF700B7070140D84FB7070140B1
:100D900013670701D8CF91A08327C4FC13D747005E
:100DA00093071009631BF700B7070140D84FB70737
:100DB000014013670704D8CF0DA08327C4FC13D7C5
:100DC000470093072009631AF700B7070140D84F7F
:100DD000B707014013670702D8CF03A741818327D4
:100DE00084FCB357F702C1832317F4FE03A74181A4
:100DF0008357E4FE8507BE86832784FCB387F6020B
:100E0000B357F7022316F4FE0357C4FE832744FCAE
:100E10003307F702896793870771B357F7022315E2
:100E2000F4FE8357C4FEFD17C207C1832312F4FEEC
:100E30008357E4FE2310F4FE231304FE231104FE63
:100E4000230404FE8327C4FC13D78700B5670A0771
:100E5000938747F5BA979C433E87930704FEBE8568
:100E60003A85EF500029930700072318F4FC8547C3
:100E70002319F4FC231A04FC8357A4FE231BF4FC5F
:100E80008947231CF4FC8947231DF4FC231E04FC22
:100E9000231F04FC8327C4FC8D8BB9EF8327C4FC7C
:100EA00013D78700B5670A07938747F5BA979C431E
:100EB0003E87930704FDBE853A85EF50603B83274C
:100EC000C4FC13D78700B5670A07938747F5BA971D
:100ED0009C43A1453E85EF5030328327C4FC13D795
:100EE0008700B5670A07938747F5BA979C439145F2
:100EF0003E85EF50304589A28327C4FC13F73700A5
:100F000085476311F7068327C4FC13D78700B567AD
:100F10000A07938747F5BA979C433E87930704FDDA
:100F2000BE853A85EF50804E8327C4FC13D78700D7
:100F3000B5670A07938747F5BA979C43A1453E8555
:100F4000EF5050308327C4FC13D78700B5670A07DA
:100F5000938747F5BA979C43930500403E85EF5031
:100F60003043D9A88327C4FC13F73700894763109F
:100F7000F7068327C4FC13D78700B5670A07938752
:100F800047F5BA979C433E87930704FDBE853A8593
:100F9000EF50E0658327C4FC13D78700B5670A07C5
:100FA000938747F5BA979C43A1453E85EF50302F74
:100FB0008327C4FC13D78700B5670A07938747F5D3
:100FC000BA979C4391453E85EF50F041B5A08327E9
:100FD000C4FC13F737008D476310F7068327C4FC62
:100FE00013D78700B5670A07938747F5BA979C43DD
:100FF0003E87930704FDBE853A85EF50007D832729
:10100000C4FC13D78700B5670A07938747F5BA97DB
:101010009C43A1453E85EF50502D8327C4FC13D738
:101020008700B5670A07938747F5BA979C439305EE
:1010300000403E85EF50F03F8327C4FC13D7870064
:10104000B5670A07938747F5BA979C4385453E8560
:10105000EF5090148327C4FC13D78700B5670A07A5
:10106000938747F5BA979C4385453E85EF50500DD1
:101070000100F250625421618280011106CE22CC1F
:1010800000102326A4FE2324B4FE2322C4FE232022
:10109000D4FE8327C4FE89EB93068031054685453F
:1010A0001545EFF0CFAD61A00327C4FEC147631B18
:1010B000F700930680310546854513053002EFF0B1
:1010C0000FACB5A00327C4FE93070002631BF70013
:1010D00093068031054685451305D002EFF02FAA0F
:1010E000B9A00327C4FE93070003631BF700930610
:1010F00080310546854513053002EFF04FA805A85D
:101100000327C4FE93070004631BF7009306803196
:10111000054685451305A004EFF06FA609A8130640
:101120009002B567938587DB0145EF105070032768
:1011300084FE8947631AF70093068031054685458A
:101140001D45EFF0CFA361A0032784FEC947631BB1
:10115000F700930680310546854513055002EFF0F0
:101160000FA2B5A0032784FE93072002631BF7009C
:1011700093068031054685451305F002EFF02FA058
:10118000B9A0032784FE93072003631BF70093068F
:1011900080310546854513055002EFF04F9E05A8A6
:1011A000032784FE93072004631BF7009306803116
:1011B000054685451305C004EFF06F9C09A813068A
:1011C0000003B567938587DB0145EF105066032761
:1011D00044FE8547631AF700930640300546814573
:1011E0001945EFF0CF9979A8032744FEC547631B43
:1011F000F700930640300546814513054002EFF0A5
:101200000F9849A0032744FE93071002631BF700C1
:1012100093064030054681451305E002EFF02F9616
:1012200095A0032744FE93071004631BF700930661
:101230004030054681451305B004EFF04F9499A066
:10124000032744FE93071003631BF7009306403007
:101250000546814513054002EFF06F9225A0032754
:1012600044FE9307F00F6317F7009307F00F232254
:10127000F4FE09A813068003B567938587DB014553
:10128000EF10F05A9306003101468545032504FE10
:10129000EFF0EF8E0100F2406244056182805D71E3
:1012A00086C6A2C480082326A4FC2324B4FC2322DF
:1012B000C4FC2320D4FC232EE4FA232CF4FA232AA2
:1012C00004FB231704FEB5670327C4FC0A079387B2
:1012D00087F4BA979C433E85EF40304585450545E8
:1012E000EF403033032704FCC1476311F7020327A3
:1012F000C4FBC947631CF700032784FBC54763177A
:10130000F70085450545EF40203E15A8032704FC5E
:10131000930700046315F7020327C4FB9307200417
:10132000631FF700032784FB930710046319F7007A
:101330008545B717200013850710EF40E03A832753
:10134000C4FC91E785450565EF40B02C25A0032737
:10135000C4FC85476317F70085451165EF40D02F22
:1013600011A80327C4FC89476316F700854521654A
:10137000EF40902E832644FB032684FB8325C4FB89
:10138000032504FCDD39231E04FC93074010231FB2
:10139000F4FC231004FE032784FC85476305F70251
:1013A000832784FC81CF032784FC89476303F702EA
:1013B000032784FC8D476304F7020DA8231104FE64
:1013C000231204FE25A0231104FE85472312F4FEF8
:1013D00031A889472311F4FE231204FE01A889478E
:1013E0002311F4FE85472312F4FE010003A7818632
:1013F000832744FCB357F7022317F4FE0357E4FE98
:101400009307F00F63F7E700930780032317F4FEB9
:1014100061A80357E4FE9307F00763F7E70093071B
:1014200000032317F4FE49A00357E4FE9307F003DB
:1014300063F7E700930780022317F4FEB5A0035774
:10144000E4FEFD4763F7E700930700022317F4FE6D
:10145000A1A80357E4FEBD4763F6E700E147231761
:10146000F4FE99A00357E4FE9D4763F6E700C147E9
:101470002317F4FE15A80357E4FE8D4763F6E70033
:10148000A1472317F4FE0DA00357E4FE854763F53B
:10149000E700231704FE09A81306D008B567938553
:1014A00087DB0145EF10B0388357E4FE2314F4FEC8
:1014B000930700202313F4FE231504FE9D472316F3
:1014C000F4FEB5670327C4FC0A07938787F4BA972D
:1014D0009C433E879307C4FDBE853A85EF40502C60
:1014E000B5670327C4FC0A07938787F4BA979C4320
:1014F00085453E85EF40503A0100B6402644616183
:101500008280011122CE00102326A4FEAE87A305FF
:10151000F4FEB5670327C4FE0A07938787F4BA97DA
:101520009C433E878347B4FEC207C1832316F7005E
:101530000100B5670327C4FE0A07938787F4BA97AB
:101540009C4383D78700C207C18393F70708F5F34D
:101550000100724405618280011122CE0010232611
:10156000A4FEAE872315F4FE8357A4FEA183C20711
:10157000C18393F6F70FB5670327C4FE0A07938765
:1015800087F4BA979C433E8793970601C18323163D
:10159000F7000100B5670327C4FE0A07938787F4A5
:1015A000BA979C4383D78700C207C18393F7070884
:1015B000F5F38357A4FE93F6F70FB5670327C4FE30
:1015C0000A07938787F4BA979C433E87939706014F
:1015D000C1832316F7000100B5670327C4FE0A077D
:1015E000938787F4BA979C4383D78700C207C18348
:1015F00093F70708F5F30100724405618280011139
:1016000022CE00102326A4FE2324B4FE0327C4FE0A
:101610000A079387818BBA979C4381EF0327C4FE07
:101620000A079387818BBA97032784FE98C385475F
:1016300039A80327C4FE0A079387818BBA979C4376
:10164000032784FE6314F700854711A081473E8578
:10165000724405618280011106CE22CC001023263F
:10166000A4FE8327C4FE81EB85458567138507802B
:10167000EF40207A6DA80327C4FE85476317F70063
:1016800085450545EF40407D5DA00327C4FE8947A1
:101690006317F70085450945EF40007C49A80327FB
:1016A000C4FE8D476317F70085451145EF40C07AAA
:1016B000BDA80327C4FE91476317F7008545214560
:1016C000EF408079ADA00327C4FE95476317F7006C
:1016D00085454145EF40407899A80327C4FE9947C6
:1016E0006318F700854513050002EF40E07681A0FE
:1016F0000327C4FE9D476317F70085450965EF4042
:10170000407135A00327C4FEA1476318F700854543
:1017100037050800EF40E06F19A80327C4FEA5476E
:101720006317F700854537051000EF40806E010014
:10173000F240624405618280011106CE22CC001085
:101740002326A4FE2324B4FE8327C4FE81EBE146B6
:10175000014685452545EFE09FC2C9AA0327C4FE7F
:101760008947631AF700E146014685451305600283
:10177000EFE0FFC065AA0327C4FEC1476319F70065
:10178000E146014685450945EFE07FBF45A20327B5
:10179000C4FEC947631AF700E146014685451305B3
:1017A0005006EFE0DFBD59A20327C4FE93070002F5
:1017B000631AF700E146014685451305A002EFE0F4
:1017C0001FBCADA20327C4FE93072002631AF700D3
:1017D000E146014685451305A004EFE05FBAB9A2D2
:1017E0000327C4FE93074002631AF700E14601464F
:1017F000854513058006EFE09FB80DAA0327C4FEB8
:1018000093070004631AF700E14601468545130576
:10181000A004EFE0DFB619AA0327C4FE9307200453
:10182000631AF700E1460146854513050002EFE023
:101830001FB5EDA80327C4FE93070005631AF70040
:10184000E146014685451305C004EFE05FB3F9A802
:101850000327C4FE93072005631AF700E1460146FB
:10186000854513058008EFE09FB1C9A00327C4FE9A
:1018700093070006631AF700E14601468545130504
:101880000004EFE0DFAF5DA00327C4FE930720064E
:10189000631AF700E1460146854513050004EFE0B1
:1018A0001FAE69A00327C4FE93070007631AF70061
:1018B000E1460146854513052004EFE05FACBDA07D
:1018C0000327C4FE930720076319F700E14601468A
:1018D00085451945EFE0BFAA91A80327C4FE9307E9
:1018E0004007631AF700E146014685451305C00825
:1018F000EFE0FFA825A80327C4FE93070008631A9A
:10190000F700E1460146854513054004EFE03FA797
:1019100031A80327C4FE930720086319F700E146A6
:10192000014685451305E008EFE07FA5032784FE07
:101930008547631AF70093068004014681452945CF
:10194000EFE0FFA3D5AA032784FE8D47631BF700B2
:10195000930680040146814513057002EFE03FA223
:10196000E1AA032784FEC547631AF70093068004A3
:10197000014681450D45EFE09FA07DAA032784FE27
:10198000CD47631BF700930680040146814513058C
:101990006006EFE0DF9E4DA2032784FE930710024E
:1019A000631BF70093068004014681451305B002CE
:1019B000EFE0FF9C51A2032784FE93073002631BD4
:1019C000F70093068004014681451305B004EFE05B
:1019D0001F9B9DA2032784FE93075002631BF70001
:1019E000930680040146814513059006EFE03F9978
:1019F000A1A2032784FE93071004631BF70093063C
:101A00008004014681451305B004EFE05F972DA2E5
:101A1000032784FE93073004631BF70093068004BA
:101A20000146814513051002EFE07F9531A203279F
:101A300084FE93071005631BF7009306800401469C
:101A4000814513052006EFE09F93FDA0032784FE48
:101A500093073005631BF700930680040146814518
:101A600013059008EFE0BF91C1A8032784FE9307F8
:101A70001006631BF7009306800401468145130599
:101A80001004EFE0DF8F4DA8032784FE9307300694
:101A9000631BF70093068004014681451305B008D7
:101AA000EFE0FF8D51A8032784FE93071007631B07
:101AB000F700930680040146814513053004EFE0EA
:101AC0001F8C9DA8032784FE93073007631AF70035
:101AD00093068004014681451D45EFE05F8AA9A871
:101AE000032784FE93075007631BF70093068004C7
:101AF000014681451305D008EFE07F8835A803270C
:101B000084FE93071008631BF700930680040146C8
:101B1000814513055004EFE09F8639A8032784FE12
:101B200093073008631AF700930680040146814545
:101B30001305F008EFE0BF840100F2406244056144
:101B40008280011122CE00102326A4FEAE87A305B9
:101B5000F4FE0100B5670327C4FE0A079387C7F7A1
:101B6000BA979C4383D70700C207C18393F707083E
:101B7000F5D3B5670327C4FE0A079387C7F7BA975B
:101B80009C433E878347B4FEC207C1832312F700FC
:101B90000100724405618280011106CE22CC001042
:101BA0002326A4FE2324B4FE2322C4FE29A88327CF
:101BB00084FE138717002324E4FE83C70700BE8535
:101BC0000325C4FEBD3F832744FE1387F7FF23226E
:101BD000E4FEF1FF0100F2406244056182800111E0
:101BE00006CE22CC00102326A4FEAE87A305F4FE69
:101BF000B5670327C4FE0A079387C7F7BA979C43C4
:101C00003E878347B4FE3E86930550523A85EF5097
:101C1000C03AB7E700E09386C1820327C4FE369737
:101C200003470700BA97238007408347B4FE81CF5C
:101C30001387C1828327C4FEBA9783C707003E85F6
:101C4000EF10806619A81387C1828327C4FEBA9754
:101C500083C707003E85EF1000670100F240624431
:101C600005618280011122CE00102326A4FE2324C8
:101C7000B4FEB5670327C4FE0A079387C7F7BA9770
:101C80009C4383D70700C207C18393F707028DC720
:101C9000B5670327C4FE0A079387C7F7BA979C4323
:101CA00083D74700C207C18313F7F70F832784FE4A
:101CB0002380E700854711A081473E857244056176
:101CC0008280797106D622D40018232EA4FC232CFE
:101CD000B4FC232AC4FC2328D4FC85450545EF40E9
:101CE0004013832504FD032544FDEFF0FFA40327E3
:101CF00044FD8947631CF700032704FD8D476317E4
:101D0000F70085451145EF30301E95A2032744FDAD
:101D1000C947631CF700032704FDCD476317F7008D
:101D200085452145EF30501C99A2032744FD9307B8
:101D300020026310F702032704FD93073002631AA1
:101D4000F7008545B707140013850701EF30D01958
:101D500039AA032744FD930740026310F7020327C3
:101D600004FD93075002631AF7008545B707140076
:101D700013850703EF305017DDA8032744FD9307B1
:101D80002004631DF700032704FD93073004631745
:101D9000F70085450565EF303015D1A8032744FDD0
:101DA000930720056310F702032704FD930730050E
:101DB000631AF7008545B707200013851700EF3039
:101DC000B01275A0032744FD930720066310F702A5
:101DD000032704FD93073006631AF7008545B717FC
:101DE000008013850780EF30301051A0032744FD99
:101DF000930720076312F702032704FD93073007B8
:101E0000631CF700B7070140D44FB70701403707FD
:101E10004000558FD8CFA1A8032744FD9307400762
:101E20006312F702032704FD93075007631CF700B2
:101E3000B7070140D44FB707014037078000558FDF
:101E4000D8CF35A0032744FD930720086311F7027C
:101E5000032704FD93073008631BF700B707014011
:101E6000D44FB707014037070002558FD8CF8327DB
:101E7000C4FD91E785451165EF30B07969A8032766
:101E8000C4FD85476318F700854537050200EF302C
:101E9000B07C51A00327C4FD89476318F70085452E
:101EA00037050400EF30507BBDA00327C4FD8D47EC
:101EB0006318F700854537050800EF30F079A1A8D1
:101EC0000327C4FD91476318F700854537051000C7
:101ED000EF30907889A00327C4FD95476318F70079
:101EE000854513050004EF30307735A00327C4FD86
:101EF00099476318F700854513050008EF30D07542
:101F000019A80327C4FD9D476317F70085451305EE
:101F10000010EF307074832784FD2320F4FE231219
:101F200004FE231304FE231404FE231604FEB1470B
:101F30002315F4FEB5670327C4FD0A079387C7F787
:101F4000BA979C433E87930704FEBE853A85EF40CF
:101F5000905DB5670327C4FD0A079387C7F7BA9753
:101F60009C4385453E85EF40507F0100B25022548E
:101F700045618280411106C622C400089385818490
:101F80001945CD310546938581841385018EEF1067
:101F9000001B0100B240224441018280411106C66B
:101FA00022C400089385918405456D3905469385C3
:101FB00091841385418FEF1080180100B2402244B4
:101FC00041018280411106C622C4000803A7C185D1
:101FD0008947630FF70003A7C1858D476314F70096
:101FE000292839A003A7C18591476313F7008528E5
:101FF0000100B240224441018280411106C622C440
:10200000000883C7F1843E879387C184BA97BE8551
:1020100011458939AA8781CB83C7F184850713F7D6
:10202000F70FA387E18403C7F1848547631AF7009C
:1020300003C7C1849307500A6304F700A387018490
:1020400003C7F1848D476317F700A3870184054711
:102050002388E1840100B240224441018280411181
:1020600006C622C4000883C771853E8793874185D1
:10207000BA97BE851145EFF0FFBEAA8781CB83C713
:102080007185850713F7F70FA38BE18403C771856B
:102090008547631AF70003C741859307500A630415
:1020A000F700A38B018403C771858D476317F70081
:1020B000A38B01840547238CE1840100B2402244B4
:1020C00041018280011106CE22CC0010AA87A3070D
:1020D000F4FEB567938747F3DC473E87C1471CCBC7
:1020E000B567938747F3DC473E87C1475CCBB5674D
:1020F000938747F3DC473E87930700085CCB834711
:10210000F4FEBE850545EFF0CFBFB567938747F373
:10211000DC473E87C1471CCBB567938747F3DC4755
:102120003E87930700081CCBB567938747F3DC47CE
:102130003E87C1475CCB0100F2406244056182806A
:10214000011106CE22CC0010AA8736872317F4FE91
:10215000AE872316F4FEB2872315F4FEBA87231444
:10216000F4FE83C78180C207C1830357E4FEB337FF
:10217000F70093F7F70F3E871306F004B5679385D2
:1021800087E03A85EF00B06A83C79180C207C183B8
:102190000357C4FEB337F70093F7F70F3E871306D4
:1021A0000005B567938587E03A85EF00506883C7DF
:1021B0008180C207C1830357A4FEB337F70093F7AA
:1021C000F70F3E8713061005B567938587E03A85BC
:1021D000EF00F06583C79180C207C183035784FE77
:1021E000B337F70093F7F70F3E8713062005B5675F
:1021F000938587E03A85EF009063B707002083A7B7
:10220000472281CBB707002003A7472285476315E4
:10221000F7081305A0027D3581450545EFF06FAE47
:102220008357E4FE93F7F70F890793F7F70FBE85FF
:102230000545EFF00FAD81450545EFF08FAC8357B5
:10224000A4FE93F7F70F890793F7F70FBE850545AF
:10225000EFF02FAB1305B002B53581450545EFF022
:102260004FAA8357C4FE93F7F70F850793F7F70F2D
:10227000BE850545EFF0EFA881450545EFF06FA855
:10228000835784FE93F7F70F850793F7F70FBE8503
:102290000545EFF00FA759A01305A002253581458C
:1022A0000545EFF00FA68357E4FE93F7F70F850778
:1022B00093F7F70FBE850545EFF0AFA481450545BF
:1022C000EFF02FA48357A4FE93F7F70F850793F73A
:1022D000F70FBE850545EFF0CFA21305B002DD3341
:1022E00081450545EFF0EFA18357C4FE93F7F70F43
:1022F000890793F7F70FBE850545EFF08FA081455D
:102300000545EFF00FA0835784FE93F7F70F890779
:1023100093F7F70FBE850545EFF0AF9E1305C0029A
:1023200055330100F240624405618280797106D61E
:1023300022D40018AA87231FF4FC83C781803E871C
:1023400083C79180B307F7022326F4FE83C78180F9
:10235000C207C183FD1713970701418383C791808B
:10236000C207C183FD17C207C183BE863A86814575
:102370000145F93321A88357E4FDBE850545EFF0FB
:10238000AF9D8327C4FEFD172326F4FE8327C4FEDA
:10239000FDF30100B250225445618280011122CE2A
:1023A00000102326A4FEB70700200327C4FE23A2A3
:1023B000E7220327C4FE854763EBE700130700F815
:1023C0002384E180130700FAA384E18009A813079E
:1023D00000FA2384E180130700F8A384E180010060
:1023E000724405618280011122CE0010AA872E87D7
:1023F0002317F4FEBA872316F4FEB707002003570D
:10240000E4FE2390E722B70700200357C4FE239180
:10241000E7220100724405618280797106D622D4D8
:102420000018AA87AE863287231FF4FCB687231EC6
:10243000F4FCBA87A30DF4FC83C78180C207C18373
:102440000357E4FDB337F70093F7F70F3E87130602
:10245000800FB567938587E03A85EF00503D83C7CD
:102460009180C207C1830357C4FDB337F70093F7C8
:10247000F70F3E871306900FB567938587E03A857F
:10248000EF00F03AA30704FE7DA88347F4FE1397FC
:10249000070141838357C4FDBA9793950701C18112
:1024A0008357E4FD9D071396070141828347F4FE9D
:1024B0001397070141838357C4FDBA971397070108
:1024C00041838357E4FDBA863E85EFF07FC78307DB
:1024D000B4FD938607FE8347F4FE35679206130723
:1024E000C7F93697BA9783C70700A306F4FE2307F8
:1024F00004FE81A08347D4FE858B91CBB7070020D3
:1025000083D70722BE850545EFF00F8509A8B707D9
:10251000002083D72722BE850545EFF0EF83834750
:10252000D4FE8583A306F4FE8347E4FE85072307D4
:10253000F4FE0347E4FE9D47E3FEE7FA8347F4FE1B
:102540008507A307F4FE0347F4FEBD47E3FFE7F268
:102550000100B250225445618280797106D622D49E
:102560000018AA872E87232CC4FC231FF4FCBA87EB
:10257000231EF4FC83C78180C207C1830357E4FD97
:10258000B337F70093F7F70F3E8713067011B5675F
:10259000938587E03A85EF00902983C79180C20731
:1025A000C1830357C4FDB337F70093F7F70F3E8796
:1025B00013068011B567938587E03A85EF003027D1
:1025C000231704FE3DA88357E4FE8E0713970701E7
:1025D00041838357E4FDBA9793960701C1828357DD
:1025E000E4FE032784FDBA97038707008357C4FDE1
:1025F0003A86BE85368515358357E4FE8507231751
:10260000F4FE8357E4FE032784FDBA97838707000F
:10261000DDFB0100B2502254456182805D7186C6A7
:10262000A2C480082A8E2E832324C4FC3685BA8552
:102630003E86C2864687F2872317F4FC9A872316C4
:10264000F4FCAA872313F4FCAE872312F4FCB287B0
:102650002311F4FCB6872310F4FCBA87A30FF4FA15
:1026600083C78180C207C1830357E4FCB337F700F7
:1026700093F7F70F3E871306101CB567938587E025
:102680003A85EF00D01A83C79180C207C1830357F0
:10269000C4FCB337F70093F7F70F3E871306201CEF
:1026A000B567938587E03A85EF007018232604FE0E
:1026B000232404FE231304FE231204FE232004FE1D
:1026C000232E04FC0357E4FC835724FCBA97C2076B
:1026D000C183FD171396070141820357C4FC83573A
:1026E00004FCBA97C207C183FD1793960701C18204
:1026F0000357C4FC8357E4FCBA853E85EFF05FA422
:10270000232404FE19A2035744FC832784FE3307C5
:10271000F702835704FCB357F702232EF4FC232659
:1027200004FEC9A8035764FC8327C4FE3307F702DD
:10273000835724FCB357F7022320F4FE035764FCAD
:102740008327C4FD3307F702832704FEBA970327C4
:1027500084FCBA9783C707002312F4FE8347F4FB77
:10276000B5E3835744FE8D83C207C183AE072313AD
:10277000F4FE835744FE8983C207C1839607C207CC
:10278000C18793F7077E139707014187831764FE7C
:10279000D98FC207C1872313F4FE835744FE8D836C
:1027A000C207C183FD8B139707014183835764FEE2
:1027B000D98F2313F4FE835764FEBE850545EFE0F1
:1027C000BFD925A08347F4FBC207C183035744FE4A
:1027D0006377F70081450545EFE01FD839A0C16751
:1027E0009385F7FF0545EFE03FD78327C4FE8507B4
:1027F0002326F4FE835724FC0327C4FEE364F7F288
:10280000832784FE85072324F4FE835704FC0327D3
:1028100084FEE36AF7EE0100B640264461618280DF
:10282000011106CE22CC4ACA4EC852C656C45AC25C
:102830005EC0001083A7818613D627001308F00F0F
:102840009307F00F13072002930600028145054508
:10285000EFE0FFA4C1460146854513057006EFD0A1
:102860001FB2C146014685451305A006EFD03FB112
:10287000C1460146854513054006EFD05FB0C1460D
:102880000546854513050006EFD07FAFB70700204A
:1028900083A747223E85EFF07FB0B707002003D71C
:1028A0000722B707002083D72722BE853A85EFF09D
:1028B0009FB3B567938747F3DC473E879307004094
:1028C0005CCB03A781868967938707F43357F702A8
:1028D000BA878A07BA9786073E8B814B5A85DE8571
:1028E000EFD0DF9DB567938747F3DC473E879307BB
:1028F00000401CCB03A781868967938707F4335771
:10290000F702BA879207998F8E073E8A814A5285CD
:10291000D685EFD0BF9A4545EFF0CFFA03A7818661
:102920008967938707F43357F702BA879207998F1D
:102930008E073E8981494A85CE85EFD03F981305A1
:10294000100BEFF02FF885450545EFE09FBB930591
:10295000C0020545EFE0FFBA9305D0020545EFE060
:102960005FBA1305200BEFF0EFF585450545EFE065
:102970005FB99305C0020545EFE0BFB89305D002EB
:102980000545EFE01FB81305300BEFF0AFF38545B9
:102990000545EFE01FB79305C0020545EFE07FB6A0
:1029A0009305D0020545EFE0DFB585450545EFE02D
:1029B0005FB59305C0020545EFE0BFB49305D002B3
:1029C0000545EFE01FB41305400BEFF0AFEF9D4559
:1029D0000545EFE01FB31305000CEFF0AFEE9305D4
:1029E000200A0545EFE0FFB189450545EFE07FB1DD
:1029F000930540080545EFE0DFB01305100CEFF03C
:102A00006FEC9305500C0545EFE0BFAF1305200CAC
:102A1000EFF04FEBA9450545EFE0BFAE8145054519
:102A2000EFE03FAE1305300CEFF0CFE99305A008BF
:102A30000545EFE01FAD9305A0020545EFE07FAC33
:102A40001305400CEFF00FE89305A0080545EFE0F3
:102A50005FAB9305E00E0545EFE0BFAA1305500CF0
:102A6000EFF04FE6B9450545EFE0BFA91305600358
:102A7000EFF04FE5B707002083A7472205476380A3
:102A8000E70281CB09476381E7020D476384E702D0
:102A900005A89305000C0545EFE0BFA615A08145EC
:102AA0000545EFE01FA629A89305000A0545EFE0BC
:102AB0005FA539A0930500060545EFE09FA401003E
:102AC0001305000EEFF00FE0BD450545EFE07FA3D5
:102AD000E9450545EFE0FFA2BD450545EFE07FA2D2
:102AE000E1450545EFE0FFA19305F0020545EFE064
:102AF0005FA1930580020545EFE0BFA093050002AA
:102B00000545EFE01FA0930520020545EFE07F9FFC
:102B1000FD450545EFE0FF9EED450545EFE07F9E55
:102B2000930530020545EFE0DF9D930570030545F1
:102B3000EFE03F9D81450545EFE0BF9C9D45054584
:102B4000EFE03F9C89450545EFE0BF9BC14505454A
:102B5000EFE03F9B1305100EEFF0CFD6BD450545C6
:102B6000EFE03F9AED450545EFE0BF99BD450545CE
:102B7000EFE03F99DD450545EFE0BF989305300351
:102B80000545EFE01F989305C0020545EFE07F97EC
:102B9000930590020545EFE0DF969305E0020545B9
:102BA000EFE03F96930500030545EFE09F95930501
:102BB00000030545EFE0FF94930590030545EFE022
:102BC0005F949305F0030545EFE0BF93814505450C
:102BD000EFE03F939D450545EFE0BF928D450545EC
:102BE000EFE03F92C1450545EFE0BF911305A0021C
:102BF000EFF04FCD81450545EFE0BF908945054594
:102C0000EFE03F9081450545EFE0BF8F9305200839
:102C10000545EFE01F8F1305B002EFF0AFCA814505
:102C20000545EFE01F8E8D450545EFE09F8D814501
:102C30000545EFE01F8D930530080545EFE07F8CDB
:102C40001305000FEFF00FC885450545EFE07F8BBA
:102C50001305600FEFF00FC781450545EFE07F8A50
:102C60001305A003EFF00FC695450545EFE07F89FA
:102C700013059002EFF00FC5B707002083D7272276
:102C80003E85EFF0AFEA0100F24062445249C2498A
:102C9000324AA24A124B824B05618280411106C61C
:102CA00022C40008938541860545EFE0BFFB054639
:102CB000938541861385819059210100B2402244B9
:102CC00041018280411106C622C4000893855186C5
:102CD0000545EFE03FF90546938551861385C1917F
:102CE000B9290100B240224441018280011106CE7F
:102CF00022CC00102326A4FE0327C4FE23A4E186D1
:102D000011280325C4FE5120F12B0100F24062443A
:102D100005618280411122C60008B717024098431E
:102D2000B71702401367170098C3B7170240D44380
:102D3000B71702403707FFF8758FD8C3B71702409F
:102D40009443B71702403707F7FE7D17758F98C376
:102D5000B71702409443B71702403707FCFF7D17AF
:102D6000758F98C3B7170240D443B717024037078F
:102D700081FF7D17758FD8C3B717024037079F00B3
:102D800098C70100324441018280797122D600182F
:102D9000232EA4FC232604FE232404FEB71702409E
:102DA0009443B71702404167558F98C3B717024045
:102DB0009843B7070200F98F2324F4FE8327C4FE4B
:102DC00085072326F4FE832784FE99E70327C4FEA4
:102DD00093070050E31CF7FCB71702409843B7076E
:102DE0000200F98F89C785472324F4FE19A0232404
:102DF00004FE032784FE85476315F71EB7270240AC
:102E00009843B72702401367070198C3B7270240CA
:102E10009843B7270240719B98C3B7270240944359
:102E20008327C4FD1387F7FFB7376E0193870760C9
:102E3000B357F70213F77700B7270240558F98C3AF
:102E400037170240B71702405843D8C3371702401C
:102E5000B71702405843D8C337170240B71702408C
:102E60005843D8C30327C4FDB7177A0093870720B8
:102E7000631BF702B7170240D843B7170240719B94
:102E8000D8C3B7170240D843B717024013671700DB
:102E9000D8C30100B7170240DC4313F7C7009147BE
:102EA000E31AF7FE81A2B7170240D443B7170240D6
:102EB0003707C1FF7D17758FD8C30327C4FDB747F8
:102EC000950893870740631BF700B7170240D44368
:102ED000B71702404167558FD8C355A80327C4FDD3
:102EE000B7172707938707E0631CF700B71702405F
:102EF000D443B717024037073900558FD8C341A8CC
:102F00000327C4FDB7E7B80593870780631CF70064
:102F1000B7170240D443B717024037072900558F2F
:102F2000D8C3B5A00327C4FDB7A74A0493870720D9
:102F3000631CF700B7170240D443B71702403707A6
:102F40001D00558FD8C3A1A00327C4FDB777DC02AD
:102F5000938707C0631CF700B7170240D443B71725
:102F6000024037071100558FD8C315A00327C4FDB1
:102F7000B7376E0193870760631BF700B7170240EE
:102F8000D443B717024037070500558FD8C3B7178A
:102F900002409443B717024037070001558F98C38A
:102FA0000100B71702409843B7070002F98FF5DB1D
:102FB000B7170240D843B7170240719BD8C3B71761
:102FC0000240D843B717024013672700D8C3010057
:102FD000B7170240DC4313F7C700A147E31AF7FE17
:102FE00011A001A0325445618280411122C600081F
:102FF00001000100324441018280411106C622C411
:1030000000089306100213060002F167938507205B
:103010000945EFE01FCB85450945EFE05FBC05475B
:103020002386E1860100B2402244410182800111E1
:1030300006CE22CC0010AA872324B4FE2322C4FE8D
:10304000A307F4FE8347F4FE8DE383C7C18691CBCB
:10305000032644FE832584FEB567138547E6EF709B
:10306000E0637D2CEFF07FF8F5BF0100F240624491
:1030700005618280797106D622D40018232EA4FC23
:10308000232CB4FC232AC4FC232604FEA9A001009F
:10309000B5679387C7F79C47930500043E85EF40CB
:1030A000E000AA87F5D7B5679387C7F79C47BE8628
:1030B000832784FD13871700232CE4FC83870700F4
:1030C000C207C183BE853685EF30707B8327C4FE7F
:1030D00085072326F4FE0327C4FE832744FDE34827
:1030E000F7FA832744FD3E85B25022544561828021
:1030F000011122CE00102326A4FE2324B4FE832730
:10310000C4FED843832784FE3E978327C4FED8C3DA
:1031100019A88327C4FED8438327C4FE9C4B1D8F68
:103120008327C4FED8C38327C4FE984B8327C4FEDD
:10313000DC43E3F0E7FE01007244056182807971AF
:1031400006D622D40018232EA4FC232CB4FC232A58
:10315000C4FC8327C4FDDC47032744FD637EF70CD2
:10316000C1228327C4FD984B8327C4FDDC43B307EA
:10317000F7402326F4FE032744FD8327C4FE63FDA6
:10318000E7068327C4FD98438327C4FDDC43BA9731
:103190000326C4FE832584FD3E85EF6070258325CC
:1031A000C4FE0325C4FDEFF0BFF4032784FD83278D
:1031B000C4FEBA97232CF4FC8327C4FD98438327CD
:1031C000C4FDDC43B306F700032744FD8327C4FE98
:1031D000B307F7403E86832584FD3685EF60502196
:1031E000032744FD8327C4FEB307F740BE850325AC
:1031F000C4FDEFF0FFEF2DA08327C4FD9843832784
:10320000C4FDDC43BA97032644FD832584FD3E8537
:10321000EF60101E832544FD0325C4FDEFF05FED34
:103220008327C4FDD847832744FD1D8F8327C4FD12
:10323000D8C7C120814711A089473E85B25022548A
:1032400045618280011122CE00102326A4FE83272F
:10325000C4FEFD8B0547B316F70037E700E0832770
:10326000C4FE9583938707048A07BA9794C3010025
:10327000724405618280011122CE00102326A4FE33
:103280008327C4FEFD8B0547B316F70037E700E040
:103290008327C4FE9583938707068A07BA9794C34A
:1032A0000100724405618280011106CE22CC00101B
:1032B0002326A4FE0325C4FEEFF0DFF80100F24050
:1032C000624405618280011106CE22CC00102326C3
:1032D000A4FE0325C4FEEFF01FFA0100F240624491
:1032E00005618280411122C600080100324441017B
:1032F0008280411106C622C4000883A7018799C7AE
:1033000083A701871387F7FF23A8E18683A7018797
:1033100099E3EFC05FEF0100B24022444101828097
:10332000411106C622C4000883A7018799E3EFC0B4
:103330003FED83A701871387170023A8E1860100CB
:10334000B2402244410182801D7186CEA2CC801001
:10335000AA87A307F4FAAE872307F4FAB287A30675
:10336000F4FAB6872315F4FABA872306F4FA23226F
:1033700004FE232404FE232604FE232204FC23242B
:1033800004FC232604FC232804FC232A04FC232C0D
:1033900004FC232E04FC232004FE232804FA232A01
:1033A00004FA232C04FA232E04FA232004FC854576
:1033B0001545EF201026854537050002EF20D0295E
:1033C00085672312F4FEE1472326F4FE8D4723246C
:1033D000F4FE930744FEBE85B717014013850780AE
:1033E000EF20600A8567938707802312F4FE930716
:1033F00080042326F4FE930744FEBE85B7170140E0
:1034000013850780EF202008232604FC232804FCD2
:10341000232A04FC8547232CF4FC232E04FC2320C0
:1034200004FE8347C4FA2303F4FC8347F4FAA3039E
:10343000F4FC8347D4FA2304F4FC8347E4FAA3049E
:10344000F4FC8357A4FA2312F4FC930744FCBE85D2
:10345000B767004013850740EF10B016230D04FA3C
:103460008547A30DF4FA230E04FA9307003E2318B0
:10347000F4FA9307003C2319F4FA9307003A231A4D
:10348000F4FA93070038231BF4FA231C04FA854747
:103490002320F4FC930704FB3E85EF1070350100F8
:1034A000F640664425618280011106CE22CC0010D0
:1034B00085450965EF209011B707055083C70700C0
:1034C00013F7F70FB70705501377F7FC1377F70FCC
:1034D0002380E700B707055083C7070013F7F70FEE
:1034E000B7070550136727011377F70F2380E7000D
:1034F000B707055083C7170013F7F70FB707055035
:10350000659B1377F70FA380E700B70705501307F4
:10351000000F2392E700B7070550130700282393F5
:10352000E700B70705501307000A239CE700B70719
:10353000055013078003239DE700B70705501307C5
:103540000014239EE700B707055013070008239FC8
:10355000E700B707055083C7170013F7F70FB70742
:103560000550136707021377F70FA380E700B7072B
:10357000055003A7C18098C7B707055003A701816D
:10358000D8C7B707055083C7170013F7F70FB7075A
:1035900005501377F7031377F70FA380E70037077A
:1035A0000550B7070550034717001377F70FA3809F
:1035B000E700B707055083C7270013F7F70FB707D2
:1035C0000550136747001377F70F2381E700B7070C
:1035D000055083C7270013F7F70FB7070550136788
:1035E00027001377F70F2381E700232404FE232607
:1035F00004FE930760052304F4FEA30404FE2305E0
:1036000004FE85472326F4FE930784FE3E85EF20C3
:10361000E02BB707055083C7170013F7F70FB7075D
:103620000550136717001377F70FA380E700B7075C
:10363000055083C7070013F7F70FB7070550136747
:1036400017001377F70F2380E7000100F240624470
:1036500005618280411106C622C400080547238EF9
:10366000E18613054006EF0000770100B2402244D6
:1036700041018280411122C6000893055052B7478C
:10368000014013850780EF30D026AA8789CB9305A8
:103690005052B747014013850780EF30B035010025
:1036A0003244410173002030411122C600089305C5
:1036B0005052B747004013850740EF309023AA8748
:1036C000A1C303A7018685476315F700EFF08FDFDD
:1036D00005A003A7018689476315F700EFE01F8C5B
:1036E00001A803A701868D476314F700EFF00FDBF5
:1036F00093055052B747004013850740EF30902F95
:1037000001003244410173002030411122C60008FB
:1037100093055052B757004013850780EF30701D56
:10372000AA8789CB93055052B7570040138507806D
:10373000EF30502C01003244410173002030411120
:1037400022C6000893055052B7570040138507C0A2
:10375000EF30301AAA8789CB93055052B7570040F3
:10376000138507C0EF301029010032444101730076
:103770002030411122C600089305505237550040B1
:10378000EF303017AA8789CBEFE0DF8393055052E3
:1037900037550040EF3010260100324441017300DC
:1037A0002030411122C6000893055052B72700402F
:1037B00013850780EF30F013AA8789CB9305505209
:1037C000B727004013850780EF30D0220100324434
:1037D000410173002030411122C600089305505268
:1037E000B7270040138507C0EF30B010AA878DC7F8
:1037F00003A7018685476309F70003A70186894768
:103800006314F700EFE00FF793055052B72700401D
:10381000138507C0EF30101E0100324441017300D0
:103820002030411122C60008930550523725004030
:10383000EF30300CAA8799C79305505237250040C6
:10384000EF30501B01003244410173002030011160
:1038500022CE0010B707055083C7070193F7F70F73
:10386000898B638E0716B707055083C7070113F7C7
:10387000F70FB7070550759B1377F70F2388E700FD
:1038800083A74187858BDDC783A7418713871700EF
:1038900023AAE186231704FE49A08357E4FE8A0782
:1038A0003E8783A70181BA97890783D70700898359
:1038B000C207C183A2071397070141878357E4FE1C
:1038C0008A07BE8683A70181B69783D707008983BD
:1038D000C207C183C207C18793F7F70FC207C18729
:1038E000D98F93960701C18603A781878355E4FE8C
:1038F000C206C18237060020BA878A07BA979607A0
:10390000AE971397170093070635BA972390D70001
:103910008357E4FE85072317F4FE0357E4FE93075D
:10392000F009E3FCE7F683A781871387170023AC30
:10393000E18675A083A741871387170023AAE18634
:10394000231604FE49A08357C4FE8A073E8783A737
:10395000C180BA97890783D707008983C207C183CB
:10396000A2071397070141878357C4FE8A07BE86C3
:1039700083A7C180B69783D707008983C207C18315
:10398000C207C18793F7F70FC207C187D98F9396F4
:103990000701C18603A781878355C4FEC206C18281
:1039A00037060020BA878A07BA979607AE9713970B
:1039B000170093070635BA972390D7008357C4FEA4
:1039C00085072316F4FE0357C4FE9307F009E3FCB2
:1039D000E7F683A781871387170023ACE186B70733
:1039E000055083C7070193F7F70F918B85C723AA6B
:1039F000018623AC0186EFF0FFC5B707055083C7EA
:103A0000070113F7F70FB70705506D9B1377F70FF3
:103A10002388E700010072440561730020304111E2
:103A200022C600080545EF1030042A878547631534
:103A3000F7000545EF10B008010032444101730062
:103A40002030411122C600080945EF10F0012A87F5
:103A500085476315F7000945EF10700601003244F1
:103A6000410173002030411122C600081145EF10BA
:103A7000A07F2A8785476315F7001145EF103004B2
:103A800001003244410173002030411122C6000878
:103A90002145EF10607D2A8785476315F700214592
:103AA000EF10F00101003244410173002030411158
:103AB00022C600084145EF10207B2A878547631501
:103AC000F7004145EF10A07F01003244410173002F
:103AD0002030411122C6000813050002EF10C07803
:103AE0002A8785476316F70013050002EF10207D33
:103AF00013050004EF1040772A8785476316F70007
:103B000013050004EF10A07B13050008EF10C0752B
:103B10002A8785476316F70013050008EF10207AFF
:103B200013050010EF1040742A8785476316F700CD
:103B300013050010EF10A07813050020EF10C072DD
:103B40002A8785476316F70013050020EF102077BA
:103B500001003244410173002030411122C60008A7
:103B600013050040EF1040702A8785476316F70061
:103B700013050040EF10A074856713850780EF10D0
:103B8000A06E2A8785476317F7008567138507802E
:103B9000EF10E0720565EF10206D2A8785476315E9
:103BA000F7000565EF10A0710965EF10E06B2A873B
:103BB00085476315F7000965EF1060701165EF1018
:103BC000A06A2A8785476315F7001165EF10206FFB
:103BD0002165EF1060692A8785476315F700216525
:103BE000EF10E06D010032444101730020304111BB
:103BF00022C600088545B7370140138507C0EF305E
:103C0000A008AA8781CB8545B7370140138507C037
:103C1000EF30800E01003244410173002030411129
:103C200022C60008854537050040EF30E005AA8729
:103C300091CB854537050040EF30000C1305200877
:103C4000EFC08FED0100324441017300203041117B
:103C500022C600088545B707004013850740EF30AE
:103C6000A002AA8781CB8545B7070040138507408E
:103C7000EF308008010032444101730020304111CF
:103C800022C600088545B717004013850780EF203E
:103C9000B07FAA8781CB8545B71700401385078081
:103CA000EF308005010032444101730020304111A2
:103CB00022C600088545B7170040138507C0EF20CE
:103CC000B07CAA8781CB8545B7170040138507C014
:103CD000EF30800201003244410173002030411175
:103CE00022C60008854537150040EF20F079AA87E5
:103CF00091C7854537150040EF3000000100324480
:103D0000410173002030411122C600088545B717D4
:103D1000004013850740EF203077AA8781CB854587
:103D2000B717004013850740EF20107D0100324493
:103D3000410173002030411122C600088545B73784
:103D4000014013850740EF203074AA8781CB854559
:103D5000B737014013850740EF20107A0100324445
:103D6000410173002030411122C600088545B75734
:103D70000140138507C0EF203071AA8781CB8545AC
:103D8000B7570140138507C0EF2010770100324478
:103D9000410173002030411122C600088545375586
:103DA0000140EF20706EAA8791C7854537550140C5
:103DB000EF20907401003244410173002030411122
:103DC00022C6000801003244410173002030411135
:103DD00022C6000801A0011106CE22CC0010AA873D
:103DE0002317F4FE0357E4FE83A7018863C8E700A6
:103DF00013057008EFC04FD223A0018883A7018864
:103E00001387170023A0E1880100F2406244056196
:103E10008280797106D622D40018232EA4FCEF10DC
:103E2000005AAA87A307F4FE0327C4FD854763074A
:103E3000F7028327C4FD81CF0327C4FD8947630CA4
:103E4000F7020327C4FD8D476304F704B1A083473D
:103E5000F4FE93F7F703A307F4FE3DA88347F4FEAF
:103E600093F7F703A307F4FE8347F4FE93E7F707FE
:103E7000A307F4FE15A08347F4FE93F7F703A30707
:103E8000F4FE8347F4FE93E7F7FBA307F4FE29A0B3
:103E9000FD57A307F4FE0100EF1060448347F4FED2
:103EA000BE85B707002013852780EF10C047EF10AD
:103EB000A0450100B250225445618280797122D61A
:103EC00000189307000A2315F4FE231704FECDA85B
:103ED000231604FED9A80357E4FE0356C4FEB70612
:103EE0000020BA878A07BA979607B29713971700E8
:103EF00093870635BA9783D707002314F4FE8357B8
:103F000084FEA207139707014187835784FEA1838C
:103F1000C207C183C207C187D98FC207C1872314D3
:103F2000F4FE835784FEAD83C207C1832322F4FECF
:103F3000835784FE9583C207C18393F7F703232039
:103F4000F4FE835784FEFD8B232EF4FC032744FEEE
:103F500095679387B7C83307F702832604FEA567E2
:103F600093875764B387F6023E978326C4FD89671B
:103F7000938707D3B387F602BA97C1830357E4FE4A
:103F80000356C4FE93F6F70FB7A50020BA878A0739
:103F9000BA97960713870535BA97B2972380D7004B
:103FA0008357C4FE85072316F4FE0357C4FE8357C8
:103FB000A4FEE362F7F28357E4FE85072317F4FEBD
:103FC0000357E4FE9307F007E3F4E7F001003254EF
:103FD00045618280011106CE22CC00102326A4FE6A
:103FE000AE873287A305F4FEBA872305F4FE854524
:103FF0001945EFD01FB59305E00F1945EFD07FB4F9
:104000000347B4FE8347A4FEB307F7023E86832529
:10401000C4FE1945EFD05FB89305E00F1945EFD006
:104020005FB285451945EFD0DFB10100F24062442F
:1040300005618280411106C622C400080945EF10BF
:104040005007EFE0EFFD0147B146154691450145A8
:10405000EFF08FAFC1460146854513057008EFC0EC
:104060000FB21306803E9305200313050040EFC0F6
:10407000BFBF9306100713060007F167938507205B
:104080001945EFD01FC40100B24022444101828093
:10409000797106D622D44AD24ED00018EFF04FA83C
:1040A0000945EFF01FD7B747950813850740EFE0A4
:1040B000FFC3EFE09FF4EFF0FFF7EFF08FA309A845
:1040C000B567138507EBEF60606F1305803E4120F5
:1040D0003D2DAA87F5F7EF00C078EFF0EFBCB5678C
:1040E0001386C7EB81450145EFE02FC783C7C18722
:1040F000A1C3EFF0BFDC130600089305000AB7A7C1
:10410000002013850735EFF0FFEC81481308000805
:104110009307000A130700089306000A37A6002039
:104120001306063581450145EFE04FCF238E01860A
:1041300003A781868967938707F4B357F702860739
:104140003E8981494A85CE85EFC04F9745B7797141
:1041500022D60018232EA4FC37F700E0544337F78B
:1041600000E0F99A54C303D74188BA860327C4FDF7
:104170003307D7022326E4FE37F700E08326C4FE88
:10418000B68701481CCB232A0701B7F700E0984304
:10419000B7F700E01367170398C30100B7F700E013
:1041A000DC4313F717008547E31AF7FEB7F700E083
:1041B0009843B7F700E0799B98C3010032544561FA
:1041C0008280797122D60018232EA4FC37F700E0F4
:1041D000544337F700E0F99A54C303C76188BA869D
:1041E0000327C4FD3307D7022326E4FE37F700E098
:1041F0008326C4FEB68701481CCB232A0701B7F7E4
:1042000000E09843B7F700E01367170398C3010075
:10421000B7F700E0DC4313F717008547E31AF7FE12
:10422000B7F700E09843B7F700E0799B98C3010027
:10423000325445618280411122C60008B7170140FF
:10424000938707C0D443B7170140938707C07D7792
:104250001307F70F758FD8C3B7170140938707C0AF
:10426000D843B7170140938707C013670730D8C3F7
:10427000B7170140938707C0D443B717014093870E
:1042800007C045777D17758FD8C3B717014093874F
:1042900007C0D443B7170140938707C00D67558FF8
:1042A000D8C3B7170140938707C01307004098CBC6
:1042B000B7170140938707C005671307078098CB9E
:1042C0000100324441018280411106C622C4000827
:1042D000B7170140938707C005671307078098CB7E
:1042E000B7170140938707C01307004098CB130509
:1042F0002003EFF01FEDB7170140938707C0056754
:1043000013070780D8CB13052003EFF09FEBB717F7
:104310000140938707C013070040D8CB0100B2408B
:10432000224441018280411106C622C40008B71709
:104330000140938707C0056713070780D8CB130593
:104340002003EFF01FE8B7170140938707C013075A
:10435000004098CB13052003EFF0BFE6B7170140EC
:10436000938707C005671307078098CB13052003C1
:10437000EFF03FE50100B24022444101828041114B
:1043800006C622C4000813052003EFF09FE3B71709
:104390000140938707C005671307078098CBB717BD
:1043A0000140938707C01307004098CB13052003F3
:1043B000EFF03FE1B7170140938707C013070040B4
:1043C000D8CB13052003EFF0DFDFB7170140938749
:1043D00007C0056713070780D8CB13052003EFF04C
:1043E0005FDE0100B240224441018280797106D62D
:1043F00022D40018AA87A30FF4FCA30704FEB5A0DB
:104400008307F4FD63DB0700B7170140938707C0FC
:1044100005671307078098CB09A8B7170140938752
:1044200007C0056713070780D8CB8347F4FD8607CD
:10443000A30FF4FC13052003EFF0BFD8B71701401A
:10444000938707C01307004098CB13052003EFF0B4
:104450005FD7B7170140938707C013070040D8CB39
:104460008347F4FE8507A307F4FE0347F4FE9D4748
:10447000E3F8E7F8B7170140938707C0D443B717AD
:104480000140938707C045777D17758FD8C3B7174D
:104490000140938707C0D443B7170140938707C0F3
:1044A0002167558FD8C313052003EFF09FD1B717AD
:1044B0000140938707C01307004098CB13052003E2
:1044C000EFF03FD0B7170140938707C09847856743
:1044D00093870780F98F89C785472307F4FE19A0C2
:1044E000230704FEB7170140938707C01307004056
:1044F000D8CBB7170140938707C0D443B717014003
:10450000938707C045777D17758FD8C3B7170140CC
:10451000938707C0D443B7170140938707C00D673F
:10452000558FD8C38347E4FE3E85B250225445617F
:104530008280011106CE22CC0010A30704FEB7171B
:104540000140938707C0D443B7170140938707C042
:1045500045777D17758FD8C3B7170140938707C07C
:10456000D443B7170140938707C02167558FD8C33D
:10457000A1472307F4FE85A013052003EFF07FC4B5
:10458000B7170140938707C01307004098CB8347B4
:10459000F4FE8607A307F4FEB7170140938707C010
:1045A0009847856793870780F98F91C78347F4FE03
:1045B0008507A307F4FE13052003EFF09FC0B7178C
:1045C0000140938707C013070040D8CB8347E4FE20
:1045D000FD172307F4FE8347E4FED9FFB717014018
:1045E000938707C0D443B7170140938707C0457727
:1045F0007D17758FD8C3B7170140938707C0D44381
:10460000B7170140938707C00D67558FD8C38347FD
:10461000F4FE3E85F240624405618280797106D6DF
:1046200022D40018AA872E87A30FF4FCBA87230F81
:10463000F4FCA30704FEEFF03FC913050006EFF0FA
:10464000FFDAAA8781C78547A307F4FE1305400652
:10465000EFF03FB78347F4FD3E85EFF03FD9AA87DF
:1046600081C78547A307F4FE13054006EFF07FB529
:104670008347E4FD3E85EFF07FD7AA8781C7854752
:10468000A307F4FEEFF03FCA8347F4FE3E85B25025
:10469000225445618280797106D622D40018AA87F7
:1046A000A30FF4FCA30704FEEFF01FC213050006DE
:1046B000EFF0DFD313054006EFF0BFB08347F4FD02
:1046C0003E85EFF0BFD213054006EFF09FAFEFF04D
:1046D0009FC513054006EFF0DFAEEFF0FFBE1305F8
:1046E0001006EFF0BFD013054006EFF09FADEFF0DE
:1046F0005FE4AA87A307F4FEEFF07FC8EFF0BFC224
:104700008347F4FE3E85B2502254456182800111F8
:1047100006CE22CC0010231704FE712CB7170140DF
:1047200013070008D8CB2945EFF07FA2B717014047
:10473000938707C013070008D8CB2945EFF03FA1A6
:10474000B7170140938707C01307000898CBEFF015
:104750009FAE85451305F00FEFF05FEC9305000861
:104760004945EFF0BFEB13052003EFF05F9E714565
:10477000EFF07FF2AA872316F4FE8357C4FEA20748
:104780002316F4FE7545EFF01FF1AA871397070172
:1047900041838357C4FED98F2316F4FE0357C4FE0A
:1047A000A167938727FA630CF7008357C4FEBE8581
:1047B000B567138587EDEF50706E854771A8294561
:1047C000EFF07FEDAA872316F4FE8357C4FEA207FD
:1047D0002316F4FE2D45EFF01FECAA87139707016F
:1047E00041838357C4FED98F2316F4FE0357C4FEBA
:1047F000896793872764630CF7008357C4FEBE85DF
:10480000B567138547EEEF5070698947B1A023174C
:1048100004FE25A80357E4FEB56706079387C7582B
:10482000BA9783C607000357E4FEB5670607938768
:10483000C758BA9783C71700BE853685EFF01FDECD
:104840008357E4FE85072317F4FE0357E4FE93071E
:10485000A00AE3F1E7FC81473E85F240624405612E
:104860008280411106C622C4000865203120010063
:10487000B240224441018280011106CE22CC0010B8
:10488000231704FE231704FE15A80357E4FE0607AA
:1048900093874183BA9783C607000357E4FE060750
:1048A00093874183BA9783C71700BE853685EFF09B
:1048B000FFD68357E4FE85072317F4FE0357E4FE73
:1048C0008547E3F4E7FC231704FE15A80357E4FE2D
:1048D000060793878183BA9783C607000357E4FED0
:1048E000060793878183BA9783C71700BE853685ED
:1048F000EFF0DFD28357E4FE85072317F4FE03575A
:10490000E4FE8D47E3F4E7FC0100F24062440561F8
:104910008280011106CE22CC0010231704FE23173B
:1049200004FE25A80357E4FEB56706079387476E84
:10493000BA9783C607000357E4FEB5670607938757
:10494000476EBA9783C71700BE853685EFF01FCD37
:104950008357E4FE85072317F4FE0357E4FEAD47B3
:10496000E3F2E7FC231704FE25A80357E4FEB5672E
:1049700006079387C76FBA9783C607000357E4FEFD
:10498000B56706079387C76FBA9783C71700BE85B9
:104990003685EFF0BFC88357E4FE85072317F4FE82
:1049A0000357E4FE9547E3F2E7FC81473E85F2407A
:1049B000624405618280011106CE22CC001085453B
:1049C0001305C003EF10E044930700082312F4FE20
:1049D000C1472326F4FE8D472324F4FE930744FEAB
:1049E000BE8537150140EF00102A930700082312F7
:1049F000F4FEC1472326F4FE8D472324F4FE9307DB
:104A000044FEBE85B7170140138507C0EF00B027ED
:104A1000930700672312F4FE930780042326F4FE15
:104A2000930744FEBE85B717014013850780EF004A
:104A300090258567938707F42312F4FE930780047B
:104A40002326F4FE930744FEBE85B7170140138565
:104A500007C0EF0050238967938707F02312F4FE05
:104A6000930780042326F4FE930744FEBE85371582
:104A70000140EF0050210100F24062440561828054
:104A800001A001A001A001A001A001A001A001A01E
:104A900001A001A001A001A001A001A001A001A00E
:104AA00001A001A001A001A001A001A001A001A0FE
:104AB00001A001A001A001A001A001A001A001A0EE
:104AC00001A001A001A001A001A001A001A001A0DE
:104AD00001A001A001A001A001A001A001A001A0CE
:104AE00001A001A001A001A001A001A001A001A0BE
:104AF00001A001A001A001A001A001A001A001A0AE
:104B000001A001A001A001A001A001A001A001A09D
:104B100001A001A001A001A001A001A001A001A08D
:104B200001A001A001A001A001A001A001A001A07D
:104B300001A001A001A001A001A001A001A073900B
:104B4000123497C1FF1F9381E1ED17B100201301CB
:104B5000614B179500001305251C97B5FF1F938522
:104B6000654A1386818463FAC5008322050023A069
:104B7000550011059105E3EAC5FE1385818497A5CB
:104B800000209385657D6377B5002320050011051E
:104B9000E36DB5FEFD42739002BCFD42739042800E
:104BA000B78200009382828873A0023097B2FFFF21
:104BB0009382C24893E2320073905230EF0040017A
:104BC00097F2FFFF9382024D7390123473002030EE
:104BD000411106C622C40008B71702409843B71710
:104BE00002401367170098C3B7170240D443B717A2
:104BF00002403707FFF8758FD8C3B71702409443B8
:104C0000B71702403707F7FE7D17758F98C3B717A0
:104C100002409443B71702403707FCFF7D17758F9A
:104C200098C3B7170240D443B7170240370781FF34
:104C30007D17758FD8C3B717024037079F0098C7F5
:104C400031200100B240224441018280411106C658
:104C500022C4000831200100B24022444101828078
:104C6000011122CE0010232604FE232404FEB717D0
:104C700002409443B71702404167558F98C3B71756
:104C800002409843B7070200F98F2324F4FE8327DC
:104C9000C4FE85072326F4FE832784FE99E70327B5
:104CA000C4FE93070050E31CF7FCB717024098437B
:104CB000B7070200F98F89C785472324F4FE19A09E
:104CC000232404FE032784FE85476318F70EB727C5
:104CD00002409843B72702401367070198C3B727DC
:104CE00002409843B7270240719B98C3B727024000
:104CF0009843B72702401367270098C3371702402D
:104D0000B71702405843D8C337170240B7170240BD
:104D10005843D8C337170240B71702405843D8C387
:104D2000B7170240D443B71702403707C1FF7D17BA
:104D3000758FD8C3B7F7FF1F9387C77098439167E4
:104D4000F98F99EBB7170240D443B71702403707E2
:104D50003D00558FD8C309A8B7170240D443B717F1
:104D600002404167558FD8C3B71702409443B71725
:104D7000024037070001558F98C30100B717024062
:104D80009843B7070002F98FF5DBB7170240D84305
:104D9000B7170240719BD8C3B7170240D843B71763
:104DA000024013672700D8C30100B7170240DC4355
:104DB00013F7C700A147E31AF7FE0100724405612B
:104DC0008280797122D60018232EA4FC232CB4FCF7
:104DD000A30704FE232404FE8327C4FD9C4313F78A
:104DE000D7FF8327C4FD98C38327C4FD9C4313E7E3
:104DF00017008327C4FD98C331A0832784FE85074D
:104E00002324F4FE8327C4FDDC4313F717008547F2
:104E10006308F700032784FEC167FD17E31FF7FC53
:104E20008327C4FDDC4313F7170085476305F700AC
:104E3000A30704FE45AA832784FD98478547631B83
:104E4000F7008327C4FD9C4313E707088327C4FDAD
:104E500098C309A88327C4FD9C4313F7F7F783275A
:104E6000C4FD98C3832784FDD8478547631BF7009B
:104E70008327C4FD9C4313E707048327C4FD98C31D
:104E800009A88327C4FD9C4313F7F7FB8327C4FDC0
:104E900098C3832784FD984B8547631BF7008327BE
:104EA000C4FD9C4313E707028327C4FD98C309A8E8
:104EB0008327C4FD9C4313F7F7FD8327C4FD98C3E4
:104EC000832784FDD84B8547631BF7008327C4FDE8
:104ED0009C4313E707018327C4FD98C309A88327D0
:104EE000C4FD9C4313F7F7FE8327C4FD98C38327B3
:104EF00084FD984F8547631BF7008327C4FD9C43BF
:104F000013E787008327C4FD98C309A88327C4FD3E
:104F10009C4313F777FF8327C4FD98C3832784FD41
:104F2000D84F8547631BF7008327C4FD9C4313E7D5
:104F300047008327C4FD98C309A88327C4FD9C4369
:104F400013F7B7FF8327C4FD98C3832784FD83C766
:104F500027001397E701832784FD83C73700E20703
:104F60005D8F832784FD83C74700C2075D8F83273A
:104F700084FD83C75700D2075D8F832784FD83D7C5
:104F80000700FD175D8F8327C4FDD8CF8327C4FD9D
:104F90009C4313F7E7FF8327C4FD98C3232404FE33
:104FA00031A0832784FE85072324F4FE8327C4FDD4
:104FB000DC4313F7170085476318F700032784FEC7
:104FC000C167FD17E31FF7FC8327C4FDDC4313F71C
:104FD000170085476315F700A30704FE21A0854746
:104FE000A307F4FE8347F4FE3E8532544561828078
:104FF000797122D60018232EA4FC232604FE8327D1
:10500000C4FD83C7A7003E878547B397E7002326E3
:10501000F4FEB76700409387074003A70720B767F0
:105020000040938707401367170023A0E720B76766
:1050300000409387074083A6C7218327C4FE13C778
:10504000F7FFB767004093870740758F23AEE720CF
:105050008327C4FD83C7C700D1E7B76700409387A4
:10506000074083A6C7208327C4FE13C7F7FFB7678F
:10507000004093870740758F23A6E7208327C4FD50
:1050800083D76700C2070327C4FD03572700BA85EB
:1050900037670040930607400327C4FD0347A70076
:1050A0003A8633E7B700930786048E07B69798C30E
:1050B0008327C4FD83D74700C2070327C4FD0357D6
:1050C0000700BA8537670040930607400327C4FDF1
:1050D0000347A7003A8633E7B700930786048E0795
:1050E000B697D8C38327C4FD03C7C7008547631598
:1050F000F708B76700409387074083A6C720B767C4
:105100000040938707400327C4FE558F23A6E7205E
:105110008327C4FD83D70700C2070327C4FD0357B5
:105120002700BA8537670040930607400327C4FD70
:105130000347A7003A8633E7B700930786048E0734
:10514000B69798C38327C4FD83D74700C2070327B8
:10515000C4FD03576700BA853767004093060740D0
:105160000327C4FD0347A7003A8633E7B700930738
:1051700086048E07B697D8C38327C4FD83C7B700BC
:105180009DE3B76700409387074083A647208327A6
:10519000C4FE13C7F7FFB767004093870740758FBA
:1051A00023A2E72005A0B76700409387074083A6A6
:1051B0004720B7670040938707400327C4FE558FF9
:1051C00023A2E7208327C4FD83D7870095E3B76731
:1051D00000409387074083A647218327C4FE13C757
:1051E000F7FFB767004093870740758F23AAE72032
:1051F0008327C4FD03D7870085476311F702B7678C
:1052000000409387074083A64721B76700409387F4
:1052100007400327C4FE558F23AAE7208327C4FD38
:10522000984B85476311F702B767004093870740A3
:1052300083A6C721B7670040938707400327C4FEB2
:10524000558F23AEE720B76700409387074003A739
:105250000720B767004093870740799B23A0E7208A
:105260000100325445618280797122D60018232EC4
:10527000A4FC232604FE232404FEB70701409387E1
:1052800007409C430327C4FDF98F2324F4FEB7078E
:10529000014093870740D84B8327C4FDF98F81CB0A
:1052A000832784FE89C785472326F4FE19A0232679
:1052B00004FE8327C4FE3E8532544561828001117D
:1052C00022CE00102326A4FEB70701409387074093
:1052D0000327C4FED8CB01007244056182804111CE
:1052E00022C60008B7270240370767451307371261
:1052F000D8C3B72702403797EFCD1307B79AD8C363
:105300000100324441018280411122C60008B727C2
:105310000240984BB72702401367070898CB01005B
:10532000324441018280797106D622D40018232E9E
:10533000A4FCAE87A30DF4FC91472326F4FE15656B
:10534000FD202326A4FE0327C4FE91476312F7061F
:10535000B7270240370767451307371298C7B727A3
:1053600002403797EFCD1307B79A98C7B727024087
:10537000984BB72702401367070198CB8327C4FDDA
:105380000347B4FD420741832390E700156545209C
:105390002326A4FE0327C4FE9547630BF700B72717
:1053A0000240944BB727024009673D17758F98CB91
:1053B0008327C4FE3E85B25022544561828041114C
:1053C00022C60008B7270240DC4F89833E8532445D
:1053D00041018280011122CE001091472326F4FE64
:1053E000B7270240DC4713F7170085476316F7001D
:1053F00085472326F4FE35A0B7270240DC47918B72
:1054000089C789472326F4FE29A8B7270240DC472D
:10541000C18B89C78D472326F4FE21A091472326FF
:10542000F4FE8327C4FE3E85724405618280797153
:1054300006D622D40018232EA4FC91472326F4FE7E
:10544000EFF05FF92326A4FE11A8EFF0BFF82326A2
:10545000A4FE8327C4FDFD17232EF4FC0327C4FEFE
:1054600085476315F7008327C4FDE5F38327C4FD53
:1054700081E795472326F4FE8327C4FE3E85B2507C
:10548000225445618280397122DE80002326A4FCEB
:105490002324B4FC232604FE232004FE232404FE3C
:1054A000232E04FC232204FE232C04FC832784FCEB
:1054B0009C47BD8B2326F4FE832784FC9C47C18B2D
:1054C00089CB832784FCDC430327C4FED98F2326A2
:1054D000F4FE832784FC83D7070093F7F70FF1CFFF
:1054E0008327C4FC9C432322F4FE232404FE65A8E6
:1054F000832784FE0547B317F700232EF4FC832788
:1055000084FC83D707003E878327C4FDF98F2320BF
:10551000F4FE032704FE8327C4FD6311F7088327E5
:1055200084FE8A07232EF4FC8327C4FD3D47B3176E
:10553000F700232CF4FC832784FD93C7F7FF032790
:1055400044FEF98F2322F4FE8327C4FD0327C4FE03
:10555000B317F700032744FED98F2322F4FE8327D5
:1055600084FC984793078002631BF700832784FE1F
:1055700005473317F7008327C4FCD8CB05A0832742
:1055800084FC984793078004631AF700832784FEFE
:1055900005473317F7008327C4FC98CB832784FE85
:1055A00085072324F4FE032784FE9D47E3F2E7F4F6
:1055B0008327C4FC032744FE98C3832784FC03D7B6
:1055C00007009307F00F63F1E70E8327C4FCDC4369
:1055D0002322F4FE232404FE75A8832784FEA1075A
:1055E0000547B317F700232EF4FC832784FC83D7E9
:1055F00007003E878327C4FDF98F2320F4FE03278D
:1056000004FE8327C4FD6312F708832784FE8A07FC
:10561000232EF4FC8327C4FD3D47B317F700232C4A
:10562000F4FC832784FD93C7F7FF032744FEF98F1B
:105630002322F4FE8327C4FD0327C4FEB317F7001B
:10564000032744FED98F2322F4FE832784FC984746
:1056500093078002631BF700832784FEA107054799
:105660003317F7008327C4FCD8CB832784FC9847E3
:1056700093078004631BF700832784FEA107054777
:105680003317F7008327C4FC98CB832784FE850754
:105690002324F4FE032784FE9D47E3F0E7F48327E9
:1056A000C4FC032744FED8C30100725421618280E8
:1056B000011122CE00102326A4FEAE872322C4FEB1
:1056C0002315F4FE832744FE99C70357A4FE8327BE
:1056D000C4FE98CB31A00357A4FE8327C4FED8CBC9
:1056E0000100724405618280797122D60018232E50
:1056F000A4FC232CB4FC232404FE232204FE232632
:1057000004FE232004FE8327C4FD63D80700B707E7
:105710000140DC4F2326F4FE31A0B7070140DC43F3
:105720002326F4FE8327C4FDC183BD8B2320F4FE12
:105730000327C4FDC167FD17F98F2324F4FE032757
:10574000C4FDB70730007D8FB70730006315F7023F
:105750000327C4FEB70700F1FD17F98F2326F4FED7
:10576000B7070140D443B7070140370700F17D1761
:10577000758FD8C3ADA00327C4FDB7071000F98FFC
:105780008DCB832704FE0D47B317F7002322F4FEC9
:10579000832744FE93C7F7FF0327C4FEF98F232610
:1057A000F4FE0327C4FEB707000FD98F2326F4FEAB
:1057B0003DA08327C4FDD5839207032784FEB3173A
:1057C000F70093C7F7FF0327C4FEF98F2326F4FEE3
:1057D0000327C4FEB707000FD98F2326F4FE8327C3
:1057E00084FD91CF8327C4FDD5839207032784FED0
:1057F000B317F7000327C4FED98F2326F4FE8327AF
:10580000C4FD63D80700B70701400327C4FED8CF03
:1058100031A0B70701400327C4FED8C301003254AA
:1058200045618280011122CE00102326A4FE832729
:10583000C4FEFD8B0547B316F70037E700E083276A
:10584000C4FE9583938707048A07BA9794C301001F
:10585000724405618280011122CE00102326A4FE2D
:105860008327C4FEFD8B0547B316F70037E700E03A
:105870008327C4FE9583938707068A07BA9794C344
:105880000100724405618280011122CE001023269E
:10589000A4FEAE87A305F4FE37E700E08327C4FE2D
:1058A000BA970347B4FE2380E740010072440561C4
:1058B0008280011122CE00102326A4FE0327C4FEFD
:1058C00023A4E1880100724405618280797106D6C3
:1058D00022D40018232EA4FCA30704FE83A78188EA
:1058E00095E38327C4FD83C707003E878327C4FD54
:1058F00083C72700920793F7F70FBE853A85EFF02D
:10590000BFF8D1AA03A7818885476311F7068327CB
:10591000C4FD03C7170085476319F7028327C4FD39
:1059200083C707003E878327C4FD83C727009207EC
:10593000E207E18793E707F8E207E18793F7F70FBC
:10594000BE853A85EFF05FF479A28327C4FD83C753
:1059500007003E878327C4FD83C72700920793F77C
:10596000F70FBE853A85EFF03FF2B5A203A7818815
:105970008947631DF7088327C4FD03C717008547C0
:1059800063EFE7028327C4FD03C727008327C4FD15
:1059900083C717008A0793F7F70FBA97A307F4FE98
:1059A0008327C4FD83C707003E878347F4FE920721
:1059B00093F7F70FBE853A85EFF01FED29AA8327ED
:1059C000C4FD03C727008327C4FD83C7170093873F
:1059D000E70393F7F70F8A0793F7F70FBA97A30731
:1059E000F4FE8327C4FD83C707003E878347F4FE88
:1059F0009207E207E18793E707F8E207E18793F769
:105A0000F70FBE853A85EFF03FE8F1A003A7818844
:105A10008D47631DF7088327C4FD03C717008D4713
:105A200063EFE7028327C4FD03C727008327C4FD74
:105A300083C71700860793F7F70FBA97A307F4FEFB
:105A40008327C4FD83C707003E878347F4FE920780
:105A500093F7F70FBE853A85EFF01FE3ADA88327D4
:105A6000C4FD03C727008327C4FD83C7170093879E
:105A7000C70793F7F70F860793F7F70FBA97A307B0
:105A8000F4FE8327C4FD83C707003E878347F4FEE7
:105A90009207E207E18793E707F8E207E18793F7C8
:105AA000F70FBE853A85EFF03FDE35A003A781886A
:105AB00091476312F7028327C4FD83C707003E871F
:105AC0008327C4FD83C71700920793F7F70FBE859E
:105AD0003A85EFF07FDB8327C4FDDC4389CB832746
