:100000006F500017130000001300000013000000E1
:100010001300000013000000130000001300000094
:100020001300000013000000130000001300000084
:08003000130000007300100032
:1000380000000000000000006C4400007C44000048
:1000480000000000B65000000000000000000000A2
:10005800B8500000BA500000000000000000000086
:10006800BC50000000000000BE500000000000006E
:10007800C0500000C2500000C4500000C65000002C
:10008800C8500000CA500000764000009A400000A6
:10009800BE400000E240000006410000D6500000CB
:1000A800D8500000DA500000DC500000DE5000009C
:1000B800E0500000E2500000E4500000E65000006C
:1000C80016440000EA500000EC5000002A410000ED
:1000D800F050000046420000F4500000F6500000C6
:1000E80076420000A6420000D6420000FE50000002
:1000F80000510000025100000451000006510000A8
:1001080008510000CC3C0000003D0000623D0000AA
:10011800B2410000125100001451000016510000B5
:100128008E4300001A5100001C5100001E510000AF
:100138002051000022510000064300002651000013
:10014800963D0000CA3D0000364300005E430000B3
:100158003051000032510000345100003651000087
:10016800385100003A5100003C5100003E51000057
:10017800405100004251000044510000EA7F000055
:10018800485100004A510000A63E0000FA3D000018
:100198002E3E00007A3E000054510000BE4300008D
:1001A800585100005A5100005C510000EE43000015
:1001B8006051000062510000645100006651000067
:1001C800685100006A5100006C5100006E51000037
:1001D8000000000000000000000000000000000017
:1001E8000000000000000000000000000000000007
:0801F8000000000000000000FF
:10020000737504308280B76200009382820873A005
:10021000023082803D432A876373C3029377F700DD
:10022000BDEFADE5937606FF3D8ABA960CC34CC38D
:100230000CC74CC74107E36BD7FE11E28280B306BF
:10024000C3408A069702000096966780A60023079F
:10025000B700A306B7002306B700A305B700230520
:10026000B700A304B7002304B700A303B700230318
:10027000B700A302B7002302B700A301B700230110
:10028000B700A300B7002300B700828093F5F50FF5
:1002900093968500D58D93960501D58D61B793967C
:1002A00027009702000096968682E78086FA96805D
:1002B000C1171D8F3E96E374C3F8A5B73367B50029
:1002C000FD530D8B79E7B7877F7F9387F7F7104151
:1002D0009441B372F6003363F600BE92B3E262005B
:1002E0006397720C6318D6065041D441B372F6007E
:1002F0003363F600BE92B3E262006398720A631B36
:10030000D60410459445B372F6003363F600BE92EE
:10031000B3E262006391720A631ED6025045D4456F
:10032000B372F6003363F600BE92B3E26200639AE2
:1003300072086311D60210499449B372F600336310
:10034000F600BE92B3E26200639372085105D105D4
:10035000E30FD6F61317060193970601631CF70007
:100360001357060193D706013305F7409375F50F30
:1003700091E982804183C1833305F7409375F50F7E
:1003800091E182801377F70F93F7F70F3305F7406A
:1003900082800346050083C60500050585056313B5
:1003A000D60065FA3305D640828011059105E31227
:1003B000D6FE014582802105A105E31CD6FC01453E
:1003C00082803105B105E316D6FC014582804105E6
:1003D000C105E310D6FC01458280011122CE001038
:1003E0002324A4FE2326B4FEB7F700E023A00700D1
:1003F000B7F700E08146014794C7D8C7B7F700E0D8
:10040000054798C30100B7F700E003A8C7009C4761
:100410000327C4FEC286636CD7000327C4FEC286CE
:10042000E313D7FE032784FE6363F700E9BF0100EF
:10043000724405618280797122D60018232EA4FCB3
:100440008327C4FD958393F7F70F9D8BA307F4FED5
:100450008327C4FD93F7F70FBD8B2307F4FE0347F3
:10046000F4FEB9670A07938787C7BA979C43DC47AE
:100470000347E4FE85463397E600420741833A8608
:100480008346F4FE39678A06130787C736971843F1
:10049000B18F5CC70100325445618280797106D604
:1004A00022D40018232EA4FC232CB4FC232AC4FC41
:1004B0002328D4FC8327C4FD958393F7F70F9D8BE6
:1004C000A307F4FE8327C4FD93F7F70FBD8B230723
:1004D000F4FE0327C4FD9307F00F6305F714032709
:1004E000C4FD9307F00F6301F7148347F4FE91E70F
:1004F00085451145EF60E05741A00347F4FE85476D
:100500006317F70085452145EF60A056B5A0034766
:10051000F4FE89476317F70085454145EF60605554
:10052000A1A80347F4FE8D476318F700854513051E
:100530000002EF60005489A00347F4FE914763185E
:10054000F700854513050004EF60A05235A003476E
:10055000F4FE95476318F700854513050008EF6022
:10056000405119A80347F4FE99476317F7008545E2
:1005700013050010EF60E04F8347E4FE0547B31713
:10058000F700C207C1832310F4FE032784FD8547CB
:100590006317F702832704FDC207C183A183C20743
:1005A000C18389E78D472322F4FE11A8832704FD28
:1005B000C207C183A183C207C1832322F4FE83271C
:1005C00004FDC207C18393F7F70F2324F4FE03470A
:1005D000F4FEB9670A07938787C7BA979C433E879B
:1005E000930704FEBE853A85EF50F02F032784FD64
:1005F0008547631CF7020347F4FEB9670A07938730
:1006000087C7BA979C43BE868347E4FE0547B31766
:10061000F700C207C183032644FDBE853685EF502F
:10062000304F21A0010011A00100B25022544561B9
:100630008280011106CE22CC00102326A4FE83273F
:10064000C4FE89EB93068031014685452145B935C5
:100650006F00C0720327C4FE8547631AF700930634
:100660008031014685452545153D6F0020710327E2
:10067000C4FE8947631AF700930680310146854519
:100680002945293D6F00806F0327C4FE8D47631AFB
:10069000F70093068031014685452D4501356F00F1
:1006A000E06D0327C4FEC147631BF700930680314A
:1006B0000146854513059008D5336F00206C03274C
:1006C000C4FEC547631AF70093068031014685458D
:1006D0001305B008E1335DA50327C4FEC947631ABB
:1006E000F70093068031014685451305D0087D3318
:1006F00071A50327C4FECD47631AF7009306803126
:10070000014685451305E008513B8DAD0327C4FE26
:10071000930700106319F700930680310146854561
:100720000145AD3BA1AD0327C4FE9307101063192B
:10073000F7009306803101468545054585333DAD7B
:100740000327C4FE930720106319F7009306803136
:10075000014685450945993315A50327C4FE93072E
:1007600030106319F70093068031014685450D4529
:10077000353329A50327C4FE930700116319F70039
:1007800093068031014685453D45093BC5AB0327AE
:10079000C4FE93071011631AF700930680310146D7
:1007A000854513053002DD39D1AB0327C4FE93071D
:1007B0002011631AF7009306803101468545130521
:1007C000A002E93965AB0327C4FE93073011631A11
:1007D000F70093068031014685451305B0027D3947
:1007E00071AB0327C4FE930700206319F70093063B
:1007F0008031014685451945553149A30327C4FE7B
:10080000930710206319F700930680310146854550
:100810001D456931A5A30327C4FE93072020631A51
:10082000F700930680310146854513050002BD316E
:10083000B1A30327C4FE93073020631AF700930681
:1008400080310146854513051002893905AB032720
:10085000C4FE93070021631AF70093068031014616
:100860008545130560041D3911AB0327C4FE9307AA
:100870001021631AF7009306803101468545130560
:1008800070042939E5A90327C4FE93072021631AC0
:10089000F700930680310146854513058004FD3E2F
:1008A000F1A90327C4FE93073021631AF7009306CA
:1008B00080310146854513059004CD36C1A103273B
:1008C000C4FE93070022631AF700930680310146A5
:1008D000854513054002D93655A10327C4FE930769
:1008E0001022631AF70093068031014685451305EF
:1008F00050026D3661A10327C4FE93070030631ACE
:10090000F70093068031014685451305600279366C
:10091000B5A10327C4FE93071030631AF7009306AE
:10092000803101468545130570028D3E81A903275C
:10093000C4FE93072030631AF70093068031014606
:10094000854513058002993E15A90327C4FE930728
:100950003030631AF7009306803101468545130550
:1009600090022D3E21A90327C4FE93070031631A8C
:10097000F70093068031014685451305C006393ED0
:10098000F5AE0327C4FE93071031631AF7009306F0
:100990008031014685451305D0060936C5A60327D3
:1009A000C4FE93072031631AF70093068031014695
:1009B00085451305E006DD34D1A60327C4FE930761
:1009C0003031631AF70093068031014685451305DF
:1009D000F006E93465A60327C4FE930700406319B7
:1009E000F70093068031014685450145453C79A6CF
:1009F0000327C4FE930710406319F7009306803164
:100A0000014685450545593C95AE0327C4FE93072D
:100A100020406319F700930680310146854509455A
:100A2000B53CA9AE0327C4FE930730406319F70015
:100A300093068031014685450D458D3481A60327F7
:100A4000C4FE93070070631AF700930680310146D5
:100A5000854513056004993415A60327C4FE930742
:100A60001070631AF700930680310146854513051F
:100A700070042D3421A60327C4FE93072070631A47
:100A8000F70093068031014685451305800439340B
:100A9000F5A40327C4FE93073070631AF70093068A
:100AA00080310146854513059004CD3AC1AC03273A
:100AB000C4FE93070071631AF70093068031014664
:100AC000854513056002D93A55AC0327C4FE930748
:100AD0001071631AF70093068031014685451305AE
:100AE00070026D3A61AC0327C4FE93072071631A4C
:100AF000F700930680310146854513058002793A57
:100B0000B5AC0327C4FE93073071631AF700930650
:100B10008031014685451305D004493285A48327D9
:100B2000C4FE9387078081EB93068031014685459B
:100B30000945AD32A1A40327C4FE856793871780BA
:100B40006319F70093068031014685450D45B9329A
:100B500035A40327C4FE8567938727806319F700B0
:100B6000930680310146854511450D3A01AC0327B6
:100B7000C4FE856793873780631AF7009306803138
:100B80000146854513054004113ACDAA0327C4FE4A
:100B9000856793870781631AF700930680310146C2
:100BA000854513059006DD38D1AA0327C4FE856765
:100BB00093871781631AF7009306803101468545B4
:100BC0001305B006E1385DAA0327C4FE8567938745
:100BD0002781631AF7009306803101468545130586
:100BE000D0066D3861AA0327C4FE856793873781D5
:100BF000631AF70093068031014685451305F00618
:100C00007138ADAA0327C4FE856793870790631ADE
:100C1000F700930680310146854513058002BD38F3
:100C2000B1AA0327C4FE856793871790631AF7005C
:100C300093068031014685451305900285303DAA13
:100C40000327C4FE856793872790631AF7009306EE
:100C500080310146854513053004893005A20327FC
:100C6000C4FE856793873790631BF7009306803136
:100C7000014685451305B004EFF05F8201A203270A
:100C8000C4FE856793870791631BF7009306803145
:100C90000146854513051006EFF05F80C5A00327C8
:100CA000C4FE856793871791631BF7009306803115
:100CB0000146854513053006EFF04FFEC1A003271E
:100CC000C4FE856793872791631BF70093068031E5
:100CD0000146854513055006EFF04FFC45A003275C
:100CE000C4FE856793873791631BF70093068031B5
:100CF0000146854513057006EFF04FFA41A0032722
:100D0000C4FE856793870792631BF70093068031C3
:100D10000146854513053002EFF04FF885A0032703
:100D2000C4FE856793871792631BF7009306803193
:100D30000146854513054002EFF04FF681A00327D9
:100D4000C4FE856793872792631BF7009306803163
:100D50000146854513055002EFF04FF405A0032727
:100D6000C4FE856793873792631AF7009306803134
:100D7000014685451305F004EFF04FF20100F24003
:100D8000624405618280797122D60018232EA4FC6A
:100D9000232CB4FC8327C4FD13D78700B9670A0747
:100DA000938787C9BA979C4383D7C7022317F4FE5A
:100DB0000357E4FE832784FD3307F702896793878F
:100DC0000771B357F7022316F4FE8327C4FD13D728
:100DD0008700B9670A07938787C9BA97984383271B
:100DE000C4FD8D8B8A07BA97938747033E87835745
:100DF000C4FE1CC30100325445618280397106DE95
:100E000022DC80002326A4FC2324B4FC2322C4FC7F
:100E1000231704FE8327C4FCA1838D453E85EF0084
:100E20005017AA873E871306900BB967938547AA88
:100E30003A85EF2080438327C4FCA1833E85EF00E1
:100E4000D01A0325C4FCEFF0CFFE85450545EF50D1
:100E500050428327C4FC13D747008547631AF70025
:100E60008545B70716001385070CEF50E04D01A22A
:100E70008327C4FC13D74700C547631AF70085458D
:100E8000B707180013850730EF50004CCDA083271B
:100E9000C4FC13D7470093071002631AF700854577
:100EA000B7171A00138507C0EF50004AC9A083275F
:100EB000C4FC13D7470093072002631AF700854547
:100EC000B7171A0013850780EF5000484DA08327FD
:100ED000C4FC13D74700930710036317F700854539
:100EE0000565EF50604661A08327C4FC13D7470017
:100EF00093071007631BF700B7070140D84FB707E8
:100F0000014013674700D8CF9DA08327C4FC13D7A7
:100F1000470093071008631BF700B7070140D84F3D
:100F2000B707014013670701D8CF91A08327C4FCFE
:100F300013D7470093071009631BF700B707014059
:100F4000D84FB707014013670704D8CF0DA08327F8
:100F5000C4FC13D7470093072009631AF700B707AB
:100F60000140D84FB707014013670702D8CF03A746
:100F70004181832784FCB357F702C1832317F4FE12
:100F800003A741818357E4FE8507BE86832784FC3F
:100F9000B387F602B357F7022316F4FE0357C4FED5
:100FA000832744FC3307F702896793870771B35798
:100FB000F7022315F4FE8357C4FEFD17C207C18351
:100FC0002312F4FE8357E4FE2310F4FE231304FEE1
:100FD000231104FE230404FE8327C4FC13D78700D7
:100FE000B9670A07938787C9BA979C433E879307D7
:100FF00004FEBE853A85EF50D055930700072318AD
:10100000F4FC85472319F4FC231A04FC8357A4FE3F
:10101000231BF4FC8947231CF4FC8947231DF4FCA3
:10102000231E04FC231F04FC8327C4FC8D8BB9EF13
:101030008327C4FC13D78700B9670A07938787C93A
:10104000BA979C433E87930704FDBE853A85EF50CF
:1010500030688327C4FC13D78700B9670A079387D2
:1010600087C9BA979C43A1453E85EF60E05E832720
:10107000C4FC13D78700B9670A07938787C9BA9753
:101080009C4391453E85EF60E07189A28327C4FCB3
:1010900013F7370085476311F7068327C4FC13D77E
:1010A0008700B9670A07938787C9BA979C433E8729
:1010B000930704FDBE853A85EF50507B8327C4FC1F
:1010C00013D78700B9670A07938787C9BA979C43E4
:1010D000A1453E85EF60005D8327C4FC13D78700E0
:1010E000B9670A07938787C9BA979C43930500405D
:1010F0003E85EF60E06FD9A88327C4FC13F7370063
:1011000089476310F7068327C4FC13D78700B967A4
:101110000A07938787C9BA979C433E87930704FDC4
:10112000BE853A85EF60A0128327C4FC13D78700E1
:10113000B9670A07938787C9BA979C43A1453E853B
:10114000EF60E05B8327C4FC13D78700B9670A0709
:10115000938787C9BA979C4391453E85EF60A06EFF
:10116000B5A08327C4FC13F737008D476310F7063B
:101170008327C4FC13D78700B9670A07938787C9F9
:10118000BA979C433E87930704FDBE853A85EF607E
:10119000C0298327C4FC13D78700B9670A07938740
:1011A00087C9BA979C43A1453E85EF60005A8327C3
:1011B000C4FC13D78700B9670A07938787C9BA9712
:1011C0009C43930500403E85EF60A06C8327C4FCE0
:1011D00013D78700B9670A07938787C9BA979C43D3
:1011E00085453E85EF6040418327C4FC13D78700C7
:1011F000B9670A07938787C9BA979C4385453E8597
:10120000EF60003A0100F2506254216182800111C6
:1012100006CE22CC00102326A4FE2324B4FE2322D3
:10122000C4FE2320D4FE8327C4FE89EB93068031BD
:10123000054685451545EFF06FA661A00327C4FE5E
:10124000C147631BF70093068031054685451305AA
:101250003002EFF0AFA4B5A00327C4FE930700024D
:10126000631BF70093068031054685451305D002C0
:10127000EFF0CFA2B9A00327C4FE93070003631BBE
:10128000F700930680310546854513053002EFF0DF
:10129000EFA005A80327C4FE93070004631BF70013
:1012A00093068031054685451305A004EFF00F9F96
:1012B00009A813069002B967938547AF0145EF105F
:1012C000D07A032784FE8947631AF700930680319A
:1012D000054685451D45EFF06F9C61A0032784FE00
:1012E000C947631BF7009306803105468545130502
:1012F0005002EFF0AF9AB5A0032784FE93072002B7
:10130000631BF70093068031054685451305F002FF
:10131000EFF0CF98B9A0032784FE93072003631B47
:10132000F700930680310546854513055002EFF01E
:10133000EF9605A8032784FE93072004631BF7009C
:1013400093068031054685451305C004EFF00F95DF
:1013500009A813060003B967938547AF0145EF104D
:10136000D070032744FE8547631AF7009306403088
:10137000054681451945EFF06F9279A8032744FE91
:10138000C547631BF70093064030054681451305AA
:101390004002EFF0AF9049A0032744FE93071002EC
:1013A000631BF70093064030054681451305E002B4
:1013B000EFF0CF8E95A0032744FE93071004631B24
:1013C000F70093064030054681451305B004EFF061
:1013D000EF8C99A0032744FE93071003631BF700CB
:1013E000930640300546814513054002EFF00F8B10
:1013F00025A0032744FE9307F00F6317F700930718
:10140000F00F2322F4FE09A813068003B967938521
:1014100047AF0145EF1070659306003101468545E1
:10142000032504FEEFF08F870100F240624405615E
:1014300082805D7186C6A2C480082326A4FC232472
:10144000B4FC2322C4FC2320D4FC232EE4FA232C56
:10145000F4FA232A04FB231704FEB9670327C4FC0C
:101460000A079387C7C8BA979C433E85EF50E0713F
:1014700085450545EF50E05F032704FCC147631134
:10148000F7020327C4FBC947631CF700032784FB4B
:10149000C5476317F70085450545EF40F06A15A875
:1014A000032704FC930700046315F7020327C4FB1A
:1014B00093072004631FF700032784FB930710049E
:1014C0006319F7008545B717200013850710EF4013
:1014D000B0678327C4FC91E785450565EF506059E7
:1014E00025A00327C4FC85476317F70085451165D0
:1014F000EF50805C11A80327C4FC89476316F700EE
:1015000085452165EF50405B832644FB032684FB21
:101510008325C4FB032504FCDD39231E04FC93074B
:101520004010231FF4FC231004FE032784FC85478E
:101530006305F702832784FC81CF032784FC894756
:101540006303F702032784FC8D476304F7020DA8A9
:10155000231104FE231204FE25A0231104FE854757
:101560002312F4FE31A889472311F4FE231204FE4E
:1015700001A889472311F4FE85472312F4FE0100D8
:1015800003A78186832744FCB357F7022317F4FE91
:101590000357E4FE9307F00F63F7E7009307800318
:1015A0002317F4FE61A80357E4FE9307F00763F7DF
:1015B000E700930700032317F4FE49A00357E4FE56
:1015C0009307F00363F7E700930780022317F4FE05
:1015D000B5A00357E4FEFD4763F7E7009307000259
:1015E0002317F4FEA1A80357E4FEBD4763F6E70006
:1015F000E1472317F4FE99A00357E4FE9D4763F6E5
:10160000E700C1472317F4FE15A80357E4FE8D47F2
:1016100063F6E700A1472317F4FE0DA00357E4FE8D
:10162000854763F5E700231704FE09A81306D008D1
:10163000B967938547AF0145EF1030438357E4FE08
:101640002314F4FE930700202313F4FE231504FE55
:101650009D472316F4FEB9670327C4FC0A07938746
:10166000C7C8BA979C433E879307C4FDBE853A8599
:10167000EF500059B9670327C4FC0A079387C7C80E
:10168000BA979C4385453E85EF5000670100B64000
:10169000264461618280011122CE00102326A4FE1F
:1016A000AE87A305F4FEB9670327C4FE0A07938734
:1016B000C7C8BA979C433E878347B4FEC207C1831D
:1016C0002316F7000100B9670327C4FE0A079387B2
:1016D000C7C8BA979C4383D78700C207C18393F7D3
:1016E0000708F5F30100724405618280011122CEE2
:1016F00000102326A4FEAE872315F4FE8357A4FE14
:10170000A183C207C18393F6F70FB9670327C4FE0D
:101710000A079387C7C8BA979C433E8793970601E9
:10172000C1832316F7000100B9670327C4FE0A0727
:101730009387C7C8BA979C4383D78700C207C183E2
:1017400093F70708F5F38357A4FE93F6F70FB967ED
:101750000327C4FE0A079387C7C8BA979C433E87EE
:1017600093970601C1832316F7000100B967032789
:10177000C4FE0A079387C7C8BA979C4383D78700DC
:10178000C207C18393F70708F5F3010072440561AE
:101790008280011122CE00102326A4FE2324B4FE51
:1017A0000327C4FE0A079387418BBA979C4381EFB6
:1017B0000327C4FE0A079387418BBA97032784FE49
:1017C00098C3854739A80327C4FE0A079387418B2E
:1017D000BA979C43032784FE6314F700854711A042
:1017E00081473E85724405618280011106CE22CC7C
:1017F00000102326A4FE8327C4FE81EB8545856760
:1018000013850780EF50E0266DA80327C4FE8547A7
:101810006317F70085450545EF50002A5DA00327B3
:10182000C4FE89476317F70085450945EF50C02876
:1018300049A80327C4FE8D476317F7008545114566
:10184000EF508027BDA80327C4FE91476317F70018
:1018500085452145EF504026ADA00327C4FE95479E
:101860006317F70085454145EF50002599A80327E8
:10187000C4FE99476318F700854513050002EF5031
:10188000A02381A00327C4FE9D476317F700854569
:101890000965EF50001E35A00327C4FEA147631859
:1018A000F700854537050800EF50A01C19A803274D
:1018B000C4FEA5476317F700854537051000EF50B4
:1018C000401B0100F240624405618280011106CE96
:1018D00022CC00102326A4FE2324B4FE8327C4FEBA
:1018E00081EBE146014685452545EFE03FBBC9AAAE
:1018F0000327C4FE8947631AF700E1460146854580
:1019000013056002EFE09FB965AA0327C4FEC14733
:101910006319F700E146014685450945EFE01FB828
:1019200045A20327C4FEC947631AF700E1460146F2
:10193000854513055006EFE07FB659A20327C4FE84
:1019400093070002631AF700E14601468545130537
:10195000A002EFE0BFB4ADA20327C4FE93072002AC
:10196000631AF700E146014685451305A004EFE040
:10197000FFB2B9A20327C4FE93074002631AF7001F
:10198000E1460146854513058006EFE03FB10DAA0B
:101990000327C4FE93070004631AF700E1460146DB
:1019A00085451305A004EFE07FAF19AA0327C4FE05
:1019B00093072004631AF700E146014685451305A5
:1019C0000002EFE0BFADEDA80327C4FE93070005BA
:1019D000631AF700E146014685451305C004EFE0B0
:1019E000FFABF9A80327C4FE93072005631AF7008D
:1019F000E1460146854513058008EFE03FAAC9A0EE
:101A00000327C4FE93070006631AF700E146014668
:101A1000854513050004EFE07FA85DA00327C4FE01
:101A200093072006631AF700E14601468545130532
:101A30000004EFE0BFA669A00327C4FE93070007D8
:101A4000631AF700E1460146854513052004EFE0DF
:101A5000FFA4BDA00327C4FE930720076319F70066
:101A6000E146014685451945EFE05FA391A80327AC
:101A7000C4FE93074007631AF700E1460146854517
:101A80001305C008EFE09FA125A80327C4FE930714
:101A90000008631AF700E146014685451305400436
:101AA000EFE0DF9F31A80327C4FE930720086319E6
:101AB000F700E146014685451305E008EFE01F9E6B
:101AC000032784FE8547631AF700930680040146C6
:101AD00081452945EFE09F9CD5AA032784FE8D47C9
:101AE000631BF700930680040146814513057002CD
:101AF000EFE0DF9AE1AA032784FEC547631AF700E7
:101B000093068004014681450D45EFE03F997DAA8B
:101B1000032784FECD47631BF7009306800401462C
:101B2000814513056006EFE07F974DA2032784FEF1
:101B300093071002631BF70093068004014681455A
:101B40001305B002EFE09F9551A2032784FE93078F
:101B50003002631BF700930680040146814513059C
:101B6000B004EFE0BF939DA2032784FE93075002C9
:101B7000631BF70093068004014681451305900618
:101B8000EFE0DF91A1A2032784FE93071004631BFB
:101B9000F70093068004014681451305B004EFE089
:101BA000FF8F2DA2032784FE93073004631BF700E9
:101BB000930680040146814513051002EFE01F8E55
:101BC00031A2032784FE93071005631BF7009306D9
:101BD00080040146814513052006EFE03F8CFDA0FF
:101BE000032784FE93073005631BF70093068004E8
:101BF0000146814513059008EFE05F8AC1A80327DD
:101C000084FE93071006631BF700930680040146C9
:101C1000814513051004EFE07F884DA8032784FE5B
:101C200093073006631BF700930680040146814545
:101C30001305B008EFE09F8651A8032784FE9307A1
:101C40001007631BF70093068004014681451305C6
:101C50003004EFE0BF849DA8032784FE930730077C
:101C6000631AF70093068004014681451D45EFE0A5
:101C7000FF82A9A8032784FE93075007631BF70080
:101C800093068004014681451305D008EFE01F81CB
:101C900035A8032784FE93071008631BF7009306FB
:101CA00080040146814513055004EFE02FFF39A859
:101CB000032784FE93073008631AF7009306800415
:101CC000014681451305F008EFE04FFD0100F240A9
:101CD000624405618280011106CE22CC00102326C9
:101CE000A4FEAE87A305F4FEB9670327C4FE0A0766
:101CF000938707CCBA979C433E878347B4FE3E86C2
:101D0000930550523A85EF505071B7E700E0938643
:101D1000C1820327C4FE369703470700BA97238082
:101D200007408347B4FE81CF1387C1828327C4FE57
:101D3000BA9783C707003E85EF10900719A813874D
:101D4000C1828327C4FEBA9783C707003E85EF1080
:101D500010080100F240624405618280011122CE28
:101D600000102326A4FE2324B4FEB9670327C4FE73
:101D70000A07938707CCBA979C4383D70700C2070B
:101D8000C18393F707028DC7B9670327C4FE0A070B
:101D9000938707CCBA979C4383D74700C207C18378
:101DA00013F7F70F832784FE2380E700854711A0F0
:101DB00081473E85724405618280797106D622D4BE
:101DC0000018232EA4FC232CB4FC232AC4FC2328B3
:101DD000D4FC85450545EF40D049832504FD032506
:101DE00044FDEFF0BFAE032744FD8947631CF700B5
:101DF000032704FD8D476317F70085451145EF4024
:101E0000A05495A2032744FDC947631CF70003278C
:101E100004FDCD476317F70085452145EF40C052CB
:101E200099A2032744FD930720026310F7020327BA
:101E300004FD93073002631AF7008545B7071400C5
:101E400013850701EF40405039AA032744FD93074B
:101E500040026310F702032704FD93075002631A40
:101E6000F7008545B707140013850703EF40C04D01
:101E7000DDA8032744FD93072004631DF700032713
:101E800004FD930730046317F70085450565EF40AF
:101E9000A04BD1A8032744FD930720056310F70248
:101EA000032704FD93073005631AF7008545B7073C
:101EB000200013851700EF40204975A0032744FD3B
:101EC000930720066310F702032704FD93073006EB
:101ED000631AF7008545B717008013850780EF4028
:101EE000A04651A0032744FD930720076312F70281
:101EF000032704FD93073007631CF700B707014071
:101F0000D44FB707014037074000558FD8CFA1A85D
:101F1000032744FD930740076312F702032704FDDC
:101F200093075007631CF700B7070140D44FB7076A
:101F3000014037078000558FD8CF35A0032744FDD7
:101F4000930720086311F702032704FD9307300865
:101F5000631BF700B7070140D44FB70701403707AD
:101F60000002558FD8CF8327C4FD91E785451165C1
:101F7000EF40303069A80327C4FD85476318F70098
:101F8000854537050200EF40303351A00327C4FDDB
:101F900089476318F700854537050400EF40D031C5
:101FA000BDA00327C4FD8D476318F700854537059D
:101FB0000800EF407030A1A80327C4FD91476318C3
:101FC000F700854537051000EF40102F89A0032743
:101FD000C4FD95476318F700854513050004EF40DD
:101FE000B02D35A00327C4FD99476318F700854538
:101FF00013050008EF40502C19A80327C4FD9D4786
:102000006317F700854513050010EF40F02A83277A
:1020100084FD2320F4FE231204FE231304FE231464
:1020200004FE231604FEB1472315F4FEB967032707
:10203000C4FD0A07938707CCBA979C433E87930752
:1020400004FEBE853A85EF501014B9670327C4FD1E
:102050000A07938707CCBA979C4385453E85EF5086
:10206000D0350100B250225445618280411106C62C
:1020700022C40008938581841945CD310546938596
:1020800081841385C18DEF10402F0100B24022449E
:1020900041018280411106C622C4000893859184C3
:1020A00005456D390546938591841385018FEF10A1
:1020B000C02C0100B240224441018280411106C679
:1020C00022C4000803A7C1858947630FF70003A74F
:1020D000C1858D476314F700292839A003A7C1855E
:1020E00091476313F70085280100B2402244410163
:1020F0008280411106C622C4000883C7F1843E874E
:102100009387C184BA97BE8511458939AA8781CB47
:1021100083C7F184850713F7F70FA387E18403C70B
:10212000F1848547631AF70003C7C1849307500AF7
:102130006304F700A387018403C7F1848D47631705
:10214000F700A387018405472388E1840100B2409A
:10215000224441018280411106C622C4000883C77F
:1021600071853E8793874185BA97BE851145EFF00B
:10217000FFBEAA8781CB83C77185850713F7F70F49
:10218000A38BE18403C771858547631AF70003C7F2
:1021900041859307500A6304F700A38B018403C7AA
:1021A00071858D476317F700A38B01840547238C46
:1021B000E1840100B240224441018280011106CE37
:1021C00022CC0010AA87A307F4FEB967938787C7BC
:1021D000DC473E87C1471CCBB967938787C7DC477D
:1021E0003E87C1475CCBB967938787C7DC473E878B
:1021F000930700085CCB8347F4FEBE850545EFF0EE
:102200008FC9B967938787C7DC473E87C1471CCB17
:10221000B967938787C7DC473E87930700081CCBC5
:10222000B967938787C7DC473E87C1475CCB01000E
:10223000F240624405618280011106CE22CC00107A
:10224000AA8736872317F4FEAE872316F4FEB287DB
:102250002315F4FEBA872314F4FE83C78180C207D6
:10226000C1830357E4FEB337F70093F7F70F3E87B8
:102270001306F004B967938547B43A85EF00F07E02
:1022800083C79180C207C1830357C4FEB337F700E9
:1022900093F7F70F3E8713060005B967938547B498
:1022A0003A85EF00907C83C78180C207C1830357C2
:1022B000A4FEB337F70093F7F70F3E871306100518
:1022C000B967938547B43A85EF00307A83C7918028
:1022D000C207C183035784FEB337F70093F7F70FA4
:1022E0003E8713062005B967938547B43A85EF000A
:1022F000D077B707002083A7472281CBB7070020FC
:1023000003A7472285476315F7081305A0027D350B
:1023100081450545EFF02FB88357E4FE93F7F70F9B
:10232000890793F7F70FBE850545EFF0CFB68145D6
:102330000545EFF04FB68357A4FE93F7F70F8907D3
:1023400093F7F70FBE850545EFF0EFB41305B00224
:10235000B53581450545EFF00FB48357C4FE93F7BB
:10236000F70F850793F7F70FBE850545EFF0AFB27E
:1023700081450545EFF02FB2835784FE93F7F70FA1
:10238000850793F7F70FBE850545EFF0CFB059A04D
:102390001305A002253581450545EFF0CFAF8357E2
:1023A000E4FE93F7F70F850793F7F70FBE85054512
:1023B000EFF06FAE81450545EFF0EFAD8357A4FE1A
:1023C00093F7F70F850793F7F70FBE850545EFF0F5
:1023D0008FAC1305B002DD3381450545EFF0AFAB9F
:1023E0008357C4FE93F7F70F890793F7F70FBE855E
:1023F0000545EFF04FAA81450545EFF0CFA983577A
:1024000084FE93F7F70F890793F7F70FBE8505450D
:10241000EFF06FA81305C00255330100F24062448B
:1024200005618280797106D622D40018AA87231FFD
:10243000F4FC83C781803E8783C79180B307F7028E
:102440002326F4FE83C78180C207C183FD1713973B
:102450000701418383C79180C207C183FD17C2076B
:10246000C183BE863A8681450145F93321A8835749
:10247000E4FDBE850545EFF06FA78327C4FEFD1779
:102480002326F4FE8327C4FEFDF30100B25022543C
:1024900045618280011122CE00102326A4FEB707D9
:1024A00000200327C4FE23A2E7220327C4FE85479A
:1024B00063EBE700130700F82384E180130700FAB9
:1024C000A384E18009A8130700FA2384E18013079D
:1024D00000F8A384E180010072440561828001114B
:1024E00022CE0010AA872E872317F4FEBA87231660
:1024F000F4FEB70700200357E4FE2390E722B70756
:1025000000200357C4FE2391E722010072440561B5
:102510008280797106D622D40018AA87AE863287C7
:10252000231FF4FCB687231EF4FCBA87A30DF4FC2A
:1025300083C78180C207C1830357E4FDB337F70027
:1025400093F7F70F3E871306800FB967938547B45B
:102550003A85EF00905183C79180C207C18303572A
:10256000C4FDB337F70093F7F70F3E871306900FBC
:10257000B967938547B43A85EF00304FA30704FE4F
:102580007DA88347F4FE1397070141838357C4FD59
:10259000BA9793950701C1818357E4FD9D07139670
:1025A000070141828347F4FE139707014183835754
:1025B000C4FDBA971397070141838357E4FDBA8698
:1025C0003E85EFF07FC78307B4FD938607FE834700
:1025D000F4FE39679206130707CE3697BA9783C77A
:1025E0000700A306F4FE230704FE81A08347D4FE60
:1025F000858B91CBB707002083D70722BE85054581
:10260000EFF0CF8E09A8B707002083D72722BE8519
:102610000545EFF0AF8D8347D4FE8583A306F4FE16
:102620008347E4FE85072307F4FE0347E4FE9D4746
:10263000E3FEE7FA8347F4FE8507A307F4FE0347AA
:10264000F4FEBD47E3FFE7F20100B25022544561BA
:102650008280797106D622D40018AA872E87232C6F
:10266000C4FC231FF4FCBA87231EF4FC83C78180BB
:10267000C207C1830357E4FDB337F70093F7F70FA1
:102680003E8713067011B967938547B43A85EF000A
:10269000D03D83C79180C207C1830357C4FDB337C0
:1026A000F70093F7F70F3E8713068011B9679385FC
:1026B00047B43A85EF00703B231704FE3DA88357CB
:1026C000E4FE8E071397070141838357E4FDBA9711
:1026D00093960701C1828357E4FE032784FDBA97CE
:1026E000038707008357C4FD3A86BE8536851535B6
:1026F0008357E4FE85072317F4FE8357E4FE032780
:1027000084FDBA9783870700DDFB0100B250225495
:1027100045618280397106DE22DC8000AA8723248D
:10272000C4FC36872317F4FCAE872316F4FCBA8763
:10273000A303F4FC83C78180C207C1830357E4FC71
:10274000B337F70093F7F70F3E871306E012B96728
:10275000938547B43A85EF00503183C79180C20713
:10276000C1830357C4FCB337F70093F7F70F3E87D5
:102770001306F012B967938547B43A85EF00F02E3F
:10278000834774FCB337F00093F7F70F3E871306C7
:102790000013B967938547B43A85EF00102D83473E
:1027A00074FC93B7B70093F7F70F3E871306101327
:1027B000B967938547B43A85EF00302B832784FCB3
:1027C0002326F4FE85472324F4FE9307C4FD3146F7
:1027D00081453E85EFD01FA4834774FC85073E8763
:1027E0009307C4FD3A86930500023E85EFD09FA271
:1027F000034774FCA54763EBE70231A8032784FE77
:10280000BA878A07BA9786072324F4FE834774FCA5
:10281000FD17A303F4FC834774FCEDF30327C4FE08
:10282000832784FEB367F7022326F4FE9307C4FDD3
:102830008325C4FE3E85EF00B0449306C4FD0357D4
:10284000C4FC8357E4FC3686BA853E851935010001
:10285000F2506254216182805D7186C6A2C48008F4
:102860002A8E2E832324C4FC3685BA853E86C286F2
:102870004687F2872317F4FC9A872316F4FCAA876D
:102880002313F4FCAE872312F4FCB2872311F4FC6B
:10289000B6872310F4FCBA87A30FF4FA83C78180AC
:1028A000C207C1830357E4FCB337F70093F7F70F70
:1028B0003E871306101CB967938547B43A85EF002D
:1028C000D01A83C79180C207C1830357C4FCB337B2
:1028D000F70093F7F70F3E871306201CB96793851F
:1028E00047B43A85EF007018232604FE232404FE23
:1028F000231304FE231204FE232004FE232E04FCD3
:102900000357E4FC835724FCBA97C207C183FD1721
:102910001396070141820357C4FC835704FCBA97FE
:10292000C207C183FD1793960701C1820357C4FCF8
:102930008357E4FCBA853E85EFF01F90232404FE04
:1029400019A2035744FC832784FE3307F7028357F9
:1029500004FCB357F702232EF4FC232604FEC9A877
:10296000035764FC8327C4FE3307F702835724FC14
:10297000B357F7022320F4FE035764FC8327C4FDFA
:102980003307F702832704FEBA97032784FCBA971C
:1029900083C707002312F4FE8347F4FBB5E3835794
:1029A00044FE8D83C207C183AE072313F4FE835711
:1029B00044FE8983C207C1839607C207C18793F784
:1029C000077E139707014187831764FED98FC207DB
:1029D000C1872313F4FE835744FE8D83C207C1834E
:1029E000FD8B139707014183835764FED98F23130F
:1029F000F4FE835764FEBE850545EFE03FCF25A07A
:102A00008347F4FBC207C183035744FE6377F70093
:102A100081450545EFE09FCD39A0C1679385F7FF5C
:102A20000545EFE0BFCC8327C4FE85072326F4FECF
:102A3000835724FC0327C4FEE364F7F2832784FE54
:102A400085072324F4FE835704FC032784FEE36AEE
:102A5000F7EE0100B640264461618280011106CE86
:102A600022CC4ACA4EC852C656C45AC25EC00010D2
:102A700083A7818613D627001308F00F9307F00F62
:102A8000130720029306000281450545EFE07F9A77
:102A9000C1460146854513057006EFD03FA0C146EB
:102AA000014685451305A006EFD05F9FC14601464C
:102AB000854513054006EFD07F9EC14605468545F6
:102AC00013050006EFD09F9DB707002083A747227C
:102AD0003E85EFF03F9CB707002003D70722B707DA
:102AE000002083D72722BE853A85EFF05F9FB96724
:102AF000938787C7DC473E87930700405CCB03A7DB
:102B000081868967938707F43357F702BA878A0764
:102B1000BA9786073E8B814B5A85DE85EFD0FF8BB7
:102B2000B967938787C7DC473E87930700401CCB74
:102B300003A781868967938707F43357F702BA871B
:102B40009207998F8E073E8A814A5285D685EFD0AB
:102B5000DF884545EFF08FE603A781868967938775
:102B600007F43357F702BA879207998F8E073E8989
:102B700081494A85CE85EFD05F861305100BEFF0B3
:102B8000EFE385450545EFE01FB19305C00205451C
:102B9000EFE07FB09305D0020545EFE0DFAF13050E
:102BA000200BEFF0AFE185450545EFE0DFAE930583
:102BB000C0020545EFE03FAE9305D0020545EFE0CA
:102BC0009FAD1305300BEFF06FDF85450545EFE056
:102BD0009FAC9305C0020545EFE0FFAB9305D00223
:102BE0000545EFE05FAB85450545EFE0DFAA9305BE
:102BF000C0020545EFE03FAA9305D0020545EFE08E
:102C00009FA91305400BEFF06FDB9D450545EFE0F5
:102C10009FA81305000CEFF06FDA9305200A054515
:102C2000EFE07FA789450545EFE0FFA69305400843
:102C30000545EFE05FA61305100CEFF02FD89305C4
:102C4000500C0545EFE03FA51305200CEFF00FD722
:102C5000A9450545EFE03FA481450545EFE0BFA349
:102C60001305300CEFF08FD59305A0080545EFE074
:102C70009FA29305A0020545EFE0FFA11305400CBC
:102C8000EFF0CFD39305A0080545EFE0DFA0930553
:102C9000E00E0545EFE03FA01305500CEFF00FD21A
:102CA000B9450545EFE03F9F13056003EFF00FD1F5
:102CB000B707002083A7472205476380E70281CB3F
:102CC00009476381E7020D476384E70205A893057E
:102CD000000C0545EFE03F9C15A081450545EFE060
:102CE0009F9B29A89305000A0545EFE0DF9A39A0CC
:102CF000930500060545EFE01F9A01001305000E3D
:102D0000EFF0CFCBBD450545EFE0FF98E945054520
:102D1000EFE07F98BD450545EFE0FF97E1450545AC
:102D2000EFE07F979305F0020545EFE0DF9693050E
:102D300080020545EFE03F96930500020545EFE070
:102D40009F95930520020545EFE0FF94FD4505455D
:102D5000EFE07F94ED450545EFE0FF9393053002EA
:102D60000545EFE05F93930570030545EFE0BF92E3
:102D700081450545EFE03F929D450545EFE0BF9158
:102D800089450545EFE03F91C1450545EFE0BF901E
:102D90001305100EEFF08FC2BD450545EFE0BF8F64
:102DA000ED450545EFE03F8FBD450545EFE0BF8EA2
:102DB000DD450545EFE03F8E930530030545EFE027
:102DC0009F8D9305C0020545EFE0FF8C93059002AF
:102DD0000545EFE05F8C9305E0020545EFE0BF8B12
:102DE000930500030545EFE01F8B930500030545A0
:102DF000EFE07F8A930590030545EFE0DF899305B7
:102E0000F0030545EFE03F8981450545EFE0BF88C8
:102E10009D450545EFE03F888D450545EFE0BF87BF
:102E2000C1450545EFE03F871305A002EFF00FB95C
:102E300081450545EFE03F8689450545EFE0BF85C3
:102E400081450545EFE03F85930520080545EFE006
:102E50009F841305B002EFF06FB681450545EFE0A2
:102E60009F838D450545EFE01F8381450545EFE0D4
:102E70009F82930530080545EFE0FF811305000FA1
:102E8000EFF0CFB385450545EFE0FF801305600FF8
:102E9000EFF0CFB281450545EFE0EFFF1305A0034A
:102EA000EFF0CFB195450545EFE0EFFE1305900239
:102EB000EFF0CFB0B707002083D727223E85EFF091
:102EC0006FD60100F24062445249C249324AA24AD6
:102ED000124B824B05618280411106C622C4000854
:102EE000938541860545EFE07FE70546938541865A
:102EF0001385419059210100B24022444101828052
:102F0000411106C622C40008938551860545EFE0AD
:102F1000FFE405469385518613858191B929010007
:102F2000B240224441018280011106CE22CC001021
:102F30002326A4FE0327C4FE23A4E186112803252B
:102F4000C4FE512065250100F24062440561828083
:102F5000411122C60008B71702409843B717024034
:102F60001367170098C3B7170240D443B71702403E
:102F70003707FFF8758FD8C3B71702409443B717C8
:102F800002403707F7FE7D17758F98C3B7170240C9
:102F90009443B71702403707FCFF7D17758F98C31E
:102FA000B7170240D443B7170240370781FF7D1798
:102FB000758FD8C3B717024037079F0098C7010025
:102FC000324441018280797122D60018232EA4FC5C
:102FD000232604FE232404FEB71702409443B717A8
:102FE00002404167558F98C3B71702409843B7070F
:102FF0000200F98F2324F4FE8327C4FE85072326CD
:10300000F4FE832784FE99E70327C4FE930700504C
:10301000E31CF7FCB71702409843B7070200F98F8B
:1030200089C785472324F4FE19A0232404FE03271F
:1030300084FE85476315F71EB72702409843B727DC
:1030400002401367070198C3B72702409843B72788
:103050000240719B98C3B727024094438327C4FD65
:103060001387F7FFB7376E0193870760B357F702EF
:1030700013F77700B7270240558F98C337170240E0
:10308000B71702405843D8C337170240B71702405A
:103090005843D8C337170240B71702405843D8C324
:1030A0000327C4FDB7177A0093870720631BF70235
:1030B000B7170240D843B7170240719BD8C3B71760
:1030C0000240D843B717024013671700D8C3010066
:1030D000B7170240DC4313F7C7009147E31AF7FE26
:1030E00081A2B7170240D443B71702403707C1FF88
:1030F0007D17758FD8C30327C4FDB74795089387FD
:103100000740631BF700B7170240D443B7170240CC
:103110004167558FD8C355A80327C4FDB7172707A4
:10312000938707E0631CF700B7170240D443B71733
:10313000024037073900558FD8C341A80327C4FD83
:10314000B7E7B80593870780631CF700B7170240FD
:10315000D443B717024037072900558FD8C3B5A00D
:103160000327C4FDB7A74A0493870720631CF70011
:10317000B7170240D443B717024037071D00558FD9
:10318000D8C3A1A00327C4FDB777DC02938707C08B
:10319000631CF700B7170240D443B7170240370744
:1031A0001100558FD8C315A00327C4FDB7376E0192
:1031B00093870760631BF700B7170240D443B71724
:1031C000024037070500558FD8C3B7170240944314
:1031D000B717024037070001558F98C30100B71792
:1031E00002409843B7070002F98FF5DBB71702409A
:1031F000D843B7170240719BD8C3B7170240D843D2
:10320000B717024013672700D8C30100B717024061
:10321000DC4313F7C700A147E31AF7FE11A001A092
:10322000325445618280411122C60008010001002C
:10323000324441018280411106C622C4000893062F
:10324000100213060002F167938507200945EFE09D
:10325000DFB685450945EFE01FA805472386E186CF
:103260000100B240224441018280011106CE22CCED
:103270000010AA872324B4FE2322C4FEA307F4FE71
:103280008347F4FE8DE383C7C18691CB032644FEBA
:10329000832584FEB967138507BAEF802006692667
:1032A000EFF07FF8F5BF0100F240624405618280D3
:1032B000797106D622D40018232EA4FC232CB4FC4A
:1032C000232AC4FC232604FEA9A00100B967938722
:1032D00007CC9C47930500043E85EF403023AA8726
:1032E000F5D7B967938707CC9C47BE86832784FDB3
:1032F00013871700232CE4FC83870700C207C183D0
:10330000BE853685EF40B01D8327C4FE8507232682
:10331000F4FE0327C4FE832744FDE348F7FA83271E
:1033200044FD3E85B250225445618280011122CE77
:1033300000102326A4FE2324B4FE8327C4FED84312
:10334000832784FE3E978327C4FED8C319A883270A
:10335000C4FED8438327C4FE9C4B1D8F8327C4FE25
:10336000D8C38327C4FE984B8327C4FEDC43E3F015
:10337000E7FE0100724405618280797106D622D48D
:103380000018232EA4FC232CB4FC232AC4FC83277E
:10339000C4FDDC47032744FD637EF70C71248327BB
:1033A000C4FD984B8327C4FDDC43B307F7402326B5
:1033B000F4FE032744FD8327C4FE63FDE70683274D
:1033C000C4FD98438327C4FDDC43BA970326C4FE9B
:1033D000832584FD3E85EF70A0478325C4FE032529
:1033E000C4FDEFF0BFF4032784FD8327C4FEBA9722
:1033F000232CF4FC8327C4FD98438327C4FDDC43BE
:10340000B306F700032744FD8327C4FEB307F74044
:103410003E86832584FD3685EF708043032744FD77
:103420008327C4FEB307F740BE850325C4FDEFF034
:10343000FFEF2DA08327C4FD98438327C4FDDC4301
:10344000BA97032644FD832584FD3E85EF704040F6
:10345000832544FD0325C4FDEFF05FED8327C4FD04
:10346000D847832744FD1D8F8327C4FDD8C7712209
:10347000814711A089473E85B25022544561828020
:10348000397122DE80002326A4FC2324B4FCA30788
:1034900004FE832784FC63DD07008327C4FC1387B5
:1034A00017002326E4FC1307D0022380E70089A835
:1034B000832784FCB1E78327C4FC13070003238020
:1034C000E70051A0032784FCA947B367F70213D78D
:1034D000F741B98F998F0347F4FE93061700A307AE
:1034E000D4FEBA8613F7F70F930704FFB697238627
:1034F000E7FE032784FCA947B347F7022324F4FC23
:10350000832784FCE1F32DA88347F4FEFD171307FE
:1035100004FFBA9783C7C7FE9387070393F6F70F95
:103520008327C4FC138717002326E4FC1397860126
:1035300061872380E7008347F4FEFD17A307F4FEAD
:103540008347F4FEF1F3725421618280011122CE8F
:1035500000102326A4FE8327C4FEFD8B0547B31667
:10356000F70037E700E08327C4FE958393870704BD
:103570008A07BA9794C301007244056182800111E1
:1035800022CE00102326A4FE8327C4FEFD8B054710
:10359000B316F70037E700E08327C4FE95839387CF
:1035A00007068A07BA9794C30100724405618280B6
:1035B000011106CE22CC00102326A4FE0325C4FE52
:1035C000EFF0DFF80100F2406244056182800111F2
:1035D00006CE22CC00102326A4FE0325C4FEEFF065
:1035E0001FFA0100F240624405618280411122C647
:1035F00000080100324441018280411106C622C404
:10360000000883A7018799C783A701871387F7FF5E
:1036100023A8E18683A7018799E3EFC0DFBE0100FD
:10362000B240224441018280411106C622C40008F2
:1036300083A7018799E3EFC0BFBC83A701871387E6
:10364000170023A8E1860100B24022444101828094
:10365000597186D6A2D48018AA87A30FF4F8AE8732
:10366000230FF4F8B287A30EF4F8B687231DF4F8FD
:10367000BA87230EF4F8232204FE232404FE232613
:1036800004FE232204FC232404FC232604FC232818
:1036900004FC232A04FC232C04FC232E04FC2320FA
:1036A00004FE232804FA232A04FA232C04FA232EE6
:1036B00004FA232004FC85451545EF30803B854501
:1036C00037050002EF30403F85672312F4FEE147E3
:1036D0002326F4FE8D472324F4FE930744FEBE8583
:1036E000B717014013850780EF20F01F8567938788
:1036F00007802312F4FE930780042326F4FE930729
:1037000044FEBE85B717014013850780EF20B01D2A
:10371000232604FC232804FC232A04FC8547232CAD
:10372000F4FC232E04FC232004FE8347C4F9230366
:10373000F4FC8347F4F9A303F4FC8347D4F923048E
:10374000F4FC8347E4F9A304F4FC8357A4F923129F
:10375000F4FC930744FCBE85B7670040138507401F
:10376000EF105049230D04FA8547A30DF4FA230EF8
:1037700004FA9307003E2318F4FA9307003C231938
:10378000F4FA9307003A231AF4FA93070038231B3C
:10379000F4FA231C04FA85472320F4FC930704FB66
:1037A0003E85EF1010688945B767004013850740D4
:1037B000EF200059930740022304F4FA8547A3043D
:1037C000F4FA230504FA85472326F4FA930784FACA
:1037D0003E85EF20B05505468945B7670040138503
:1037E0000740EF20E0300100B6502654656182802A
:1037F000397106DE22DC80002326A4FC8145B767F0
:10380000004013850740EF202029AA8799E38147CC
:1038100089A8930784FD3E868145B76700401385DC
:103820000740EF208007A30704FE25A00347F4FE0E
:103830008347F4FE8326C4FCB697930604FF3697AD
:10384000034737FF2380E7008347F4FE8507A3077C
:10385000F4FE834724FE0347F4FEE369F7FC834745
:1038600024FE3E85F250625421618280011106CE11
:1038700022CC001085450965EF30401BB707055085
:1038800083C7070013F7F70FB70705501377F7FC47
:103890001377F70F2380E700B707055083C70700AA
:1038A00013F7F70FB7070550136727011377F70FC3
:1038B0002380E700B707055083C7170013F7F70FFA
:1038C000B7070550659B1377F70FA380E700B7078D
:1038D00005501307000F2392E700B70705501307A1
:1038E00000282393E700B70705501307000A239C1D
:1038F000E700B707055013078003239DE700B707CC
:10390000055013070014239EE700B707055013075F
:103910000008239FE700B707055083C7170013F778
:10392000F70FB7070550136707021377F70FA38048
:10393000E700B707055003A7C18098C7B707055030
:1039400003A70181D8C7B707055083C7170013F72E
:10395000F70FB70705501377F7031377F70FA38017
:10396000E70037070550B7070550034717001377DF
:10397000F70FA380E700B707055083C7270013F7A9
:10398000F70FB7070550136747001377F70F238129
:10399000E700B707055083C7270013F7F70FB707EE
:1039A0000550136727001377F70F2381E7002324BF
:1039B00004FE232604FE930760052304F4FEA304FB
:1039C00004FE230504FE85472326F4FE930784FEA8
:1039D0003E85EF20B035B707055083C7170013F7B2
:1039E000F70FB7070550136717001377F70FA3807A
:1039F000E700B707055083C7070013F7F70FB707AE
:103A00000550136717001377F70F2380E7000100B5
:103A1000F240624405618280411122C600080547D8
:103A2000238EE1860100324441018280397122DE19
:103A300080002326A4FC2324B4FCB2872320E4FCCA
:103A40002313F4FCB6872312F4FCA30504FE23170A
:103A500004FED5A8231604FEE1A80357E4FE83570D
:103A600064FC3307F7028357C4FEBA97860703271F
:103A700084FCBA9783D707002314F4FE835784FE8F
:103A8000A207139707014187835784FEA183C207CA
:103A9000C183C207C187D98FC207C1872314F4FE2F
:103AA000835784FEAD83C207C1832322F4FE83576C
:103AB00084FE9583C207C18393F7F7032320F4FEA6
:103AC000835784FEFD8B232EF4FC832704FE8D0791
:103AD000032744FE63F9E7028327C4FD8D0703270C
:103AE00044FE63F2E7020357E4FE835764FC3307A6
:103AF000F7028357C4FEBA973E87832704FCBA9720
:103B0000238007000DA00357E4FE835764FC3307AE
:103B1000F7028357C4FEBA973E87832704FCBA97FF
:103B20007D572380E7008357C4FE85072316F4FEE4
:103B30000357C4FE835764FCE361F7F28357E4FE46
:103B400085072317F4FE0357E4FE835744FCE36321
:103B5000F7F08347B4FE3E8572542161828079710B
:103B600022D60018232EA4FCAE873287231DF4FC36
:103B7000BA87231CF4FCFD572315F4FEFD572314CC
:103B8000F4FEFD572313F4FEFD572312F4FEA301A8
:103B900004FE230104FE8547A300F4FE834714FEC0
:103BA00063810712835784FD8583C207C183230085
:103BB000F4FE835784FD1387E7FF834704FE63C445
:103BC000E700FD5701A2A30704FE230704FEA30696
:103BD00004FE230604FED1A88347E4FEA1EB0347BD
:103BE00004FE8357A4FD3307F7028347C4FEBA9748
:103BF0003E878327C4FDBA9783C7070085EB034739
:103C000004FE8357A4FD3307F7028347C4FEBA9727
:103C100085070327C4FDBA9783C7070081EB854753
:103C20002307F4FE8347C4FEA306F4FE0347E4FE25
:103C300085476317F706034704FE8357A4FD330740
:103C4000F7028347C4FEBA973E878327C4FDBA971D
:103C500003C707009307F00F6314F704034704FE3C
:103C60008357A4FD3307F7028347C4FEBA9785073D
:103C70000327C4FDBA9703C707009307F00F63112A
:103C8000F702230704FE0347C4FE8347D4FE1D8FBB
:103C9000894763D7E7008347F4FE8507A307F4FE4F
:103CA0008347C4FE85072306F4FE0347C4FE8357FB
:103CB000A4FDFD17E342F7F28347F4FEC207C18774
:103CC00011A0FD573E85325445618280411122C6C4
:103CD000000893055052B747014013850780EF4015
:103CE0004007AA8789CB93055052B74701401385F7
:103CF0000780EF402016010032444101730020305C
:103D0000411122C6000893055052B7470040138561
:103D10000740EF400004AA87A1C303A70186854797
:103D20006315F700EFF0CF9D05A003A70186894733
:103D30006315F700EFE00FB601A803A701868D47D2
:103D40006314F700EFF04F9993055052B7470040C6
:103D500013850740EF400010010032444101730019
:103D60002030411122C6000893055052B757004039
:103D700013850780EF30F07DAA8789CB93055052D9
:103D8000B757004013850780EF40C00C0100324454
:103D9000410173002030411122C6000893055052A2
:103DA000B7570040138507C0EF30B07AAA8789CB98
:103DB00093055052B7570040138507C0EF40800964
:103DC00001003244410173002030411122C6000835
:103DD0009305505237550040EF30B077AA8789CB12
:103DE000EFE0CFAD9305505237550040EF408006CD
:103DF00001003244410173002030411122C6000805
:103E000093055052B727004013850780EF30707438
:103E1000AA8789CB93055052B727004013850780A6
:103E2000EF40400301003244410173002030411152
:103E300022C6000893055052B7270040138507C0DB
:103E4000EF303071AA878DC703A7018685476309C4
:103E5000F70003A7018689476314F700EFE00FA17D
:103E600093055052B7270040138507C0EF30907E6E
:103E700001003244410173002030411122C6000884
:103E80009305505237250040EF30B06CAA8799C790
:103E90009305505237250040EF30D07B010032446B
:103EA000410173002030011122CE0010B7070550E8
:103EB00083C7070193F7F70F898B638E0716B70740
:103EC000055083C7070113F7F70FB7070550759B18
:103ED0001377F70F2388E70083A74187858BDDC71A
:103EE00083A741871387170023AAE186231704FEBF
:103EF00049A08357E4FE8A073E8783A70181BA97CA
:103F0000890783D707008983C207C183A207139754
:103F1000070141878357E4FE8A07BE8683A7018194
:103F2000B69783D707008983C207C183C207C187B9
:103F300093F7F70FC207C187D98F93960701C18600
:103F400003A781878355E4FEC206C182370600209D
:103F5000BA878A07BA979607AE9713971700930701
:103F6000C634BA972390D7008357E4FE85072317FA
:103F7000F4FE0357E4FE9307F009E3FCE7F683A79A
:103F800081871387170023ACE18675A083A741873B
:103F90001387170023AAE186231604FE49A083573E
:103FA000C4FE8A073E8783A7C180BA97890783D753
:103FB00007008983C207C183A207139707014187BE
:103FC0008357C4FE8A07BE8683A7C180B69783D76E
:103FD00007008983C207C183C207C18793F7F70F20
:103FE000C207C187D98F93960701C18603A781872E
:103FF0008355C4FEC206C18237060020BA878A07ED
:10400000BA979607AE97139717009307C634BA97D7
:104010002390D7008357C4FE85072316F4FE035769
:10402000C4FE9307F009E3FCE7F683A781871387B3
:10403000170023ACE186B707055083C7070193F744
:10404000F70F918B85C723AA018623AC0186EFF079
:10405000BF9CB707055083C7070113F7F70FB707D2
:1040600005506D9B1377F70F2388E700010072441A
:10407000056173002030411122C600080545EF108C
:10408000B0642A8785476315F7000545EF1030694E
:1040900001003244410173002030411122C6000862
:1040A0000945EF1070622A8785476315F7000945B7
:1040B000EF10F066010032444101730020304111DD
:1040C00022C600081145EF1030602A878547631526
:1040D000F7001145EF10B064010032444101730054
:1040E0002030411122C600082145EF10F05D2A87DB
:1040F00085476315F7002145EF10706201003244D7
:10410000410173002030411122C600084145EF10E3
:10411000B05B2A8785476315F7004145EF10306093
:1041200001003244410173002030411122C60008D1
:1041300013050002EF1050592A8785476316F700D0
:1041400013050002EF10B05D13050004EF10D05707
:104150002A8785476316F70013050004EF10305CCB
:1041600013050008EF1050562A8785476316F7009D
:1041700013050008EF10B05A13050010EF10D054CB
:104180002A8785476316F70013050010EF10305992
:1041900013050020EF1050532A8785476316F70058
:1041A00013050020EF10B0570100324441017300A5
:1041B0002030411122C6000813050040EF10D050F6
:1041C0002A8785476316F70013050040EF10305526
:1041D000856713850780EF10304F2A87854763175F
:1041E000F700856713850780EF1070530565EF10A2
:1041F000B04D2A8785476315F7000565EF103052EB
:104200000965EF10704C2A8785476315F70009652B
:10421000EF10F0501165EF10304B2A87854763157A
:10422000F7001165EF10B04F2165EF10F0492A87B4
:1042300085476315F7002165EF10704E0100324489
:10424000410173002030411122C600088545B7376F
:104250000140138507C0EF302069AA8781CB8545CF
:10426000B7370140138507C0EF30006F01003244BB
:10427000410173002030411122C6000885453705F1
:104280000040EF306066AA8791CB85453705004036
:10429000EF30806C13052008EFC0EF990100324425
:1042A000410173002030411122C600088545B7073F
:1042B000004013850740EF302063AA8781CB8545F6
:1042C000B707004013850740EF3000690100324412
:1042D000410173002030411122C600088545B717FF
:1042E000004013850780EF302060AA8781CB854589
:1042F000B717004013850780EF3000660100324495
:10430000410173002030411122C600088545B717CE
:104310000040138507C0EF30205DAA8781CB85451B
:10432000B7170040138507C0EF3000630100324427
:10433000410173002030411122C600088545371520
:104340000040EF30605AAA8791C785453715004075
:10435000EF30806001003244410173002030411190
:1043600022C600088545B717004013850740EF3087
:10437000A057AA8781CB8545B71700401385074012
:10438000EF30805D01003244410173002030411163
:1043900022C600088545B737014013850740EF3036
:1043A000A054AA8781CB8545B737014013850740C4
:1043B000EF30805A01003244410173002030411136
:1043C00022C600088545B7570140138507C0EF3066
:1043D000A051AA8781CB8545B7570140138507C0F7
:1043E000EF30805701003244410173002030411109
:1043F00022C60008854537550140EF30E04EAA87B8
:1044000091C7854537550140EF30005501003244D2
:10441000410173002030011122CE00108945B76799
:10442000004013850740EF1040712A878547631AC3
:10443000F702B7F7002013858738EFF06FBBAA8724
:10444000A307F4FE8347F4FE91C7B7F70020138556
:104450008738BD2C8945B767004013850740EF10AA
:10446000300E01007244056173002030411122C6F4
:10447000000801003244410173002030411122C67E
:10448000000801A0797106D622D40018232EA4FCBE
:10449000EF10F038AA87A307F4FE0327C4FD854771
:1044A0006307F7028327C4FD81CF0327C4FD894733
:1044B000630CF7020327C4FD8D476304F704B1A022
:1044C0008347F4FE93F7F703A307F4FE3DA8834761
:1044D000F4FE93F7F703A307F4FE8347F4FE93E794
:1044E000F707A307F4FE15A08347F4FE93F7F7033D
:1044F000A307F4FE8347F4FE93E7F7FBA307F4FE5C
:1045000029A0FD57A307F4FE0100EF1050238347B5
:10451000F4FEBE85B707002013852780EF10B02674
:10452000EF1090240100B250225445618280411165
:1045300006C622C400080945EF10B07DEFE00FD297
:104540000147B146154691450145EFF06F90C146D0
:104550000146854513057008EFB05FF41306803EF1
:10456000930520034545EFC07F8993061007130686
:104570000007F167938507201945EFD01F840100DC
:10458000B240224441018280397106DE22DC4ADADF
:104590004ED88000EFF04F890945EFF0BFEEB747E6
:1045A000950813850740EFE03F98EFE0DFC8EFF094
:1045B0001FF8EFF08F8409A8B967138587BEEF60F5
:1045C000F0651305803E6D2AEF008077AA87EDF72E
:1045D000EF00500CEFF08FA9B967138647BF8145F4
:1045E0000145EFE00F87232604FE232404FEFD5738
:1045F0002322F4FE83C7C187CDCF83C7D187D5CB14
:104600001306000A93060008B7A70020138787380F
:10461000B70700209385C734B7A700201385C73498
:10462000EFF0CFC09307000A130700083A86BE8553
:10463000B7A7002013858738EFF06FD2AA87231120
:10464000F4FE831724FE95CB8327C4FE850723261B
:10465000F4FE831724FE032784FE6356F7008317B6
:1046600024FE2324F4FE0327C4FE9307800C63D6A4
:10467000E700832784FE2322F4FE831724FE8D4661
:104680003E8681450145EFE0EF889306000A130757
:1046900000089307000A130600088148328837A6ED
:1046A00000201306863881450145EFE0EF9A238EFE
:1046B000018603A781868967938707F4B357F702BA
:1046C00086073E8981494A85CE85EFB01FD11DB747
:1046D000797106D622D40018232EA4FCB9679385DD
:1046E00087C00325C4FDEF6050552326A4FE832711
:1046F000C4FEB9C3B9679385C7C00325C4FEEFB034
:10470000FFBBAA8789E70547A38EE18635A0B96775
:10471000938547C10325C4FEEFB05FBAAA8799E32A
:104720000D2019A8B967938587C10325C4FEEFB092
:10473000FFB8AA8791E33D200100B25022544561A1
:104740008280411106C622C400089305401A4545DF
:10475000EFC06FE31305007D25200100B240224425
:1047600041018280411106C622C400089305803EA3
:104770004545EFC04FE10100B24022444101828033
:10478000797122D60018232EA4FC37F700E0544399
:1047900037F700E0F99A54C303D7E187BA860327B5
:1047A000C4FD3307D7022326E4FE37F700E0832653
:1047B000C4FEB68701481CCB232A0701B7F700E0E7
:1047C0009843B7F700E01367170398C30100B7F7E2
:1047D00000E0DC4313F717008547E31AF7FEB7F74D
:1047E00000E09843B7F700E0799B98C3010032548A
:1047F00045618280797122D60018232EA4FC37F7F8
:1048000000E0544337F700E0F99A54C303C7018826
:10481000BA860327C4FD3307D7022326E4FE37F701
:1048200000E08326C4FEB68701481CCB232A07017B
:10483000B7F700E09843B7F700E01367170398C392
:104840000100B7F700E0DC4313F717008547E31AD0
:10485000F7FEB7F700E09843B7F700E0799B98C3FD
:104860000100325445618280411122C60008B71709
:104870000140938707C0D443B7170140938707C00F
:104880007D771307F70F758FD8C3B717014093874C
:1048900007C0D843B7170140938707C01367073095
:1048A000D8C3B7170140938707C0D443B717014057
:1048B000938707C045777D17758FD8C3B717014019
:1048C000938707C0D443B7170140938707C00D678C
:1048D000558FD8C3B7170140938707C0130700400F
:1048E00098CBB7170140938707C005671307078068
:1048F00098CB0100324441018280411106C622C496
:104900000008B7170140938707C0056713070780A2
:1049100098CBB7170140938707C01307004098CB87
:1049200013052003EFF01FEDB7170140938707C071
:10493000056713070780D8CB13052003EFF09FEB23
:10494000B7170140938707C013070040D8CB010079
:10495000B240224441018280411106C622C40008AF
:10496000B7170140938707C0056713070780D8CBA7
:1049700013052003EFF01FE8B7170140938707C026
:104980001307004098CB13052003EFF0BFE6B717DD
:104990000140938707C005671307078098CB13056D
:1049A0002003EFF03FE50100B24022444101828044
:1049B000411106C622C4000813052003EFF09FE34F
:1049C000B7170140938707C005671307078098CB87
:1049D000B7170140938707C01307004098CB130512
:1049E0002003EFF03FE1B7170140938707C013079B
:1049F0000040D8CB13052003EFF0DFDFB7170140ED
:104A0000938707C0056713070780D8CB13052003DA
:104A1000EFF05FDE0100B2402244410182807971F3
:104A200006D622D40018AA87A30FF4FCA30704FE1D
:104A3000B5A08307F4FD63DB0700B7170140938738
:104A400007C005671307078098CB09A8B71701406F
:104A5000938707C0056713070780D8CB8347F4FD0A
:104A60008607A30FF4FC13052003EFF0BFD8B71798
:104A70000140938707C01307004098CB130520031C
:104A8000EFF05FD7B7170140938707C013070040C7
:104A9000D8CB8347F4FE8507A307F4FE0347F4FE53
:104AA0009D47E3F8E7F8B7170140938707C0D44361
:104AB000B7170140938707C045777D17758FD8C317
:104AC000B7170140938707C0D443B71701409387B6
:104AD00007C02167558FD8C313052003EFF09FD17E
:104AE000B7170140938707C01307004098CB130501
:104AF0002003EFF03FD0B7170140938707C09847D6
:104B0000856793870780F98F89C785472307F4FE58
:104B100019A0230704FEB7170140938707C01307A6
:104B20000040D8CBB7170140938707C0D443B717CD
:104B30000140938707C045777D17758FD8C3B71796
:104B40000140938707C0D443B7170140938707C03C
:104B50000D67558FD8C38347E4FE3E85B25022547B
:104B600045618280011106CE22CC0010A30704FE0D
:104B7000B7170140938707C0D443B7170140938705
:104B800007C045777D17758FD8C3B7170140938746
:104B900007C0D443B7170140938707C02167558FDB
:104BA000D8C3A1472307F4FE85A013052003EFF027
:104BB0007FC4B7170140938707C01307004098CB05
:104BC0008347F4FE8607A307F4FEB71701409387D7
:104BD00007C09847856793870780F98F91C78347F8
:104BE000F4FE8507A307F4FE13052003EFF09FC032
:104BF000B7170140938707C013070040D8CB8347FE
:104C0000E4FEFD172307F4FE8347E4FED9FFB71740
:104C10000140938707C0D443B7170140938707C06B
:104C200045777D17758FD8C3B7170140938707C0A5
:104C3000D443B7170140938707C00D67558FD8C37A
:104C40008347F4FE3E85F2406244056182807971BB
:104C500006D622D40018AA872E87A30FF4FCBA87A1
:104C6000230FF4FCA30704FEEFF03FC91305000671
:104C7000EFF0FFDAAA8781C78547A307F4FE130583
:104C80004006EFF03FB78347F4FD3E85EFF03FD994
:104C9000AA8781C78547A307F4FE13054006EFF0F6
:104CA0007FB58347E4FD3E85EFF07FD7AA8781C7B4
:104CB0008547A307F4FEEFF03FCA8347F4FE3E8525
:104CC000B250225445618280797106D622D40018F0
:104CD000AA87A30FF4FCA30704FEEFF01FC213057D
:104CE0000006EFF0DFD313054006EFF0BFB08347B7
:104CF000F4FD3E85EFF0BFD213054006EFF09FAF05
:104D0000EFF09FC513054006EFF0DFAEEFF0FFBEFA
:104D100013051006EFF0BFD013054006EFF09FAD6E
:104D2000EFF05FE4AA87A307F4FEEFF07FC8EFF08F
:104D3000BFC28347F4FE3E85B25022544561828053
:104D4000011106CE22CC0010231704FE712CB717D8
:104D5000014013070008D8CB2945EFF07FA2B71711
:104D60000140938707C013070008D8CB2945EFF00F
:104D70003FA1B7170140938707C01307000898CBDE
:104D8000EFF09FAE85451305F00FEFF05FEC930554
:104D900000084945EFF0BFEB13052003EFF05F9EDD
:104DA0007145EFF07FF2AA872316F4FE8357C4FE05
:104DB000A2072316F4FE7545EFF01FF1AA8713979B
:104DC000070141838357C4FED98F2316F4FE03578E
:104DD000C4FEA167938727FA630CF7008357C4FECC
:104DE000BE85B9671385C7C1EF604051854771A87B
:104DF0002945EFF07FEDAA872316F4FE8357C4FE02
:104E0000A2072316F4FE2D45EFF01FECAA87139797
:104E1000070141838357C4FED98F2316F4FE03573D
:104E2000C4FE896793872764630CF7008357C4FE29
:104E3000BE85B967138587C2EF60404C8947B1A032
:104E4000231704FE25A80357E4FEB96706079387D6
:104E5000072DBA9783C607000357E4FEB967060714
:104E60009387072DBA9783C71700BE853685EFF065
:104E70001FDE8357E4FE85072317F4FE0357E4FE85
:104E80009307A00AE3F1E7FC81473E85F2406244C4
:104E900005618280411106C622C4000865203120C8
:104EA0000100B240224441018280011106CE22CC91
:104EB0000010231704FE231704FE15A80357E4FE71
:104EC000060793874183BA9783C607000357E4FE1A
:104ED000060793874183BA9783C71700BE85368537
:104EE000EFF0FFD68357E4FE85072317F4FE035740
:104EF000E4FE8547E3F4E7FC231704FE15A80357F7
:104F0000E4FE060793878183BA9783C60700035799
:104F1000E4FE060793878183BA9783C71700BE858F
:104F20003685EFF0DFD28357E4FE85072317F4FEC2
:104F30000357E4FE8D47E3F4E7FC0100F2406244CE
:104F400005618280011106CE22CC0010231704FED9
:104F5000231704FE25A80357E4FEB96706079387C5
:104F60008742BA9783C607000357E4FEB96706076E
:104F700093878742BA9783C71700BE853685EFF0BF
:104F80001FCD8357E4FE85072317F4FE0357E4FE85
:104F9000AD47E3F2E7FC231704FE25A80357E4FE20
:104FA000B967060793870744BA9783C60700035774
:104FB000E4FEB967060793870744BA9783C71700CB
:104FC000BE853685EFF0BFC88357E4FE85072317FB
:104FD000F4FE0357E4FE9547E3F2E7FC81473E8584
:104FE000F240624405618280011106CE22CC00109D
:104FF00085451305C003EF10D0279307000823123F
:10500000F4FEC1472326F4FE8D472324F4FE9307C4
:1050100044FEBE8537150140EF10E00C93070008F1
:105020002312F4FEC1472326F4FE8D472324F4FE09
:10503000930744FEBE85B7170140138507C0EF10E4
:10504000800A930700672312F4FE93078004232647
:10505000F4FE930744FEBE85B71701401385078011
:10506000EF1060088567938707F42312F4FE930717
:1050700080042326F4FE930744FEBE85B717014043
:10508000138507C0EF1020068967938707F0231266
:10509000F4FE930780042326F4FE930744FEBE85A6
:1050A00037150140EF1020040100F2406244056111
:1050B000828001A001A001A001A001A001A001A087
:1050C00001A001A001A001A001A001A001A001A0D8
:1050D00001A001A001A001A001A001A001A001A0C8
:1050E00001A001A001A001A001A001A001A001A0B8
:1050F00001A001A001A001A001A001A001A001A0A8
:1051000001A001A001A001A001A001A001A001A097
:1051100001A001A001A001A001A001A001A001A087
:1051200001A001A001A001A001A001A001A001A077
:1051300001A001A001A001A001A001A001A001A067
:1051400001A001A001A001A001A001A001A001A057
:1051500001A001A001A001A001A001A001A001A047
:1051600001A001A001A001A001A001A001A001A037
:105170007390123497C1FF1F9381C18A17B1002029
:10518000130141E817A500001305858D97B5FF1F92
:10519000938545E71386818463FAC5008322050061
:1051A00023A0550011059105E3EAC5FE138581840E
:1051B00097A500209385C51F6377B50023200500C0
:1051C0001105E36DB5FEFD42739002BCFD42739084
:1051D0004280B78200009382828873A0023097B227
:1051E000FFFF9382A2E593E2320073905230EF000A
:1051F000400197F2FFFF938262397390123473007B
:105200002030411106C622C40008B7170240984357
:10521000B71702401367170098C3B7170240D4436B
:10522000B71702403707FFF8758FD8C3B71702408A
:105230009443B71702403707F7FE7D17758F98C361
:10524000B71702409443B71702403707FCFF7D179A
:10525000758F98C3B7170240D443B717024037077A
:1052600081FF7D17758FD8C3B717024037079F009E
:1052700098C731200100B24022444101828041118F
:1052800006C622C4000831200100B2402244410178
:105290008280011122CE0010232604FE232404FE66
:1052A000B71702409443B71702404167558F98C320
:1052B000B71702409843B7070200F98F2324F4FE82
:1052C0008327C4FE85072326F4FE832784FE99E7FF
:1052D0000327C4FE93070050E31CF7FCB7170240F6
:1052E0009843B7070200F98F89C785472324F4FE46
:1052F00019A0232404FE032784FE85476318F70EB4
:10530000B72702409843B72702401367070198C3A5
:10531000B72702409843B7270240719B98C3B7272D
:1053200002409843B72702401367270098C33717F6
:105330000240B71702405843D8C337170240B71787
:1053400002405843D8C337170240B71702405843AA
:10535000D8C3B7170240D443B71702403707C1FF7D
:105360007D17758FD8C3B7F7FF1F9387C770984312
:105370009167F98F99EBB7170240D443B7170240F2
:1053800037073D00558FD8C309A8B7170240D4434B
:10539000B71702404167558FD8C3B71702409443EF
:1053A000B717024037070001558F98C30100B717A0
:1053B00002409843B7070002F98FF5DBB7170240A8
:1053C000D843B7170240719BD8C3B7170240D843E0
:1053D000B717024013672700D8C30100B717024070
:1053E000DC4313F7C700A147E31AF7FE010072443C
:1053F00005618280797122D60018232EA4FC232C0B
:10540000B4FCA30704FE232404FE8327C4FD9C43AD
:1054100013F7D7FF8327C4FD98C38327C4FD9C439C
:1054200013E717008327C4FD98C331A0832784FEA8
:1054300085072324F4FE8327C4FDDC4313F71700FC
:1054400085476308F700032784FEC167FD17E31F44
:10545000F7FC8327C4FDDC4313F71700854763057A
:10546000F700A30704FE45AA832784FD98478547D4
:10547000631BF7008327C4FD9C4313E707088327BA
:10548000C4FD98C309A88327C4FD9C4313F7F7F70D
:105490008327C4FD98C3832784FDD8478547631BB2
:1054A000F7008327C4FD9C4313E707048327C4FD4B
:1054B00098C309A88327C4FD9C4313F7F7FB8327F0
:1054C000C4FD98C3832784FD984B8547631BF70071
:1054D0008327C4FD9C4313E707028327C4FD98C3B9
:1054E00009A88327C4FD9C4313F7F7FD8327C4FD58
:1054F00098C3832784FDD84B8547631BF700832718
:10550000C4FD9C4313E707018327C4FD98C309A882
:105510008327C4FD9C4313F7F7FE8327C4FD98C37C
:10552000832784FD984F8547631BF7008327C4FDBD
:105530009C4313E787008327C4FD98C309A88327EA
:10554000C4FD9C4313F777FF8327C4FD98C38327CB
:1055500084FDD84F8547631BF7008327C4FD9C4318
:1055600013E747008327C4FD98C309A88327C4FD18
:105570009C4313F7B7FF8327C4FD98C3832784FD9B
:1055800083C727001397E701832784FD83C737006C
:10559000E2075D8F832784FD83C74700C2075D8FC5
:1055A000832784FD83C75700D2075D8F832784FD3F
:1055B00083D70700FD175D8F8327C4FDD8CF8327CE
:1055C000C4FD9C4313F7E7FF8327C4FD98C323243E
:1055D00004FE31A0832784FE85072324F4FE83275D
:1055E000C4FDDC4313F7170085476318F700032752
:1055F00084FEC167FD17E31FF7FC8327C4FDDC436E
:1056000013F7170085476315F700A30704FE21A0D1
:105610008547A307F4FE8347F4FE3E853254456177
:105620008280797122D60018232EA4FC232604FE42
:105630008327C4FD83C7A7003E878547B397E7004C
:105640002326F4FEB76700409387074003A707208F
:10565000B7670040938707401367170023A0E72030
:10566000B76700409387074083A6C7218327C4FEFE
:1056700013C7F7FFB767004093870740758F23AEC6
:10568000E7208327C4FD83C7C700D1E7B767004081
:105690009387074083A6C7208327C4FE13C7F7FF5D
:1056A000B767004093870740758F23A6E7208327BD
:1056B000C4FD83D76700C2070327C4FD0357270033
:1056C000BA8537670040930607400327C4FD0347A8
:1056D000A7003A8633E7B700930786048E07B6978C
:1056E00098C38327C4FD83D74700C2070327C4FD9F
:1056F00003570700BA853767004093060740032722
:10570000C4FD0347A7003A8633E7B7009307860432
:105710008E07B697D8C38327C4FD03C7C700854744
:105720006315F708B76700409387074083A6C72033
:10573000B7670040938707400327C4FE558F23A611
:10574000E7208327C4FD83D70700C2070327C4FDD2
:1057500003572700BA8537670040930607400327A1
:10576000C4FD0347A7003A8633E7B70093078604D2
:105770008E07B69798C38327C4FD83D74700C20717
:105780000327C4FD03576700BA85376700409306B7
:1057900007400327C4FD0347A7003A8633E7B70055
:1057A000930786048E07B697D8C38327C4FD83C7A3
:1057B000B7009DE3B76700409387074083A6472063
:1057C0008327C4FE13C7F7FFB767004093870740DE
:1057D000758F23A2E72005A0B76700409387074095
:1057E00083A64720B7670040938707400327C4FE7E
:1057F000558F23A2E7208327C4FD83D7870095E335
:10580000B76700409387074083A647218327C4FEDC
:1058100013C7F7FFB767004093870740758F23AA28
:10582000E7208327C4FD03D7870085476311F7026C
:10583000B76700409387074083A64721B7670040BA
:10584000938707400327C4FE558F23AAE7208327A9
:10585000C4FD984B85476311F702B76700409387F3
:10586000074083A6C721B7670040938707400327F7
:10587000C4FE558F23AEE720B767004093870740EB
:1058800003A70720B767004093870740799B23A0B1
:10589000E7200100325445618280011122CE0010C0
:1058A0002326A4FEAE872322C4FEA305F4FE83476D
:1058B000B4FE0327C4FEED079207BA979C4393F703
:1058C000F70F918B13F7F70F832744FE2384E7002C
:1058D000832744FE83C7870085E38347B4FE0327FD
:1058E000C4FEED079207BA979C43D58313F7F77F61
:1058F000832744FE98C315A08347B4FE0327C4FE44
:10590000ED079207BA979C4313D73700B7070020DB
:10591000FD177D8F832744FED8C38347B4FE03273A
:10592000C4FEED079207BA979C4393F7F70F898B54
:1059300013F7F70F832744FEA384E7008347B4FEE1
:105940000327C4FEED079207BA97DC4393F7F70FDE
:10595000BD8B13F7F70F832744FE2385E7008347AA
:10596000B4FE0327C4FEED079207BA97DC43A18378
:1059700013F7F70F832744FEA389E7008347B4FE9C
:105980000327C4FEED079207BA979C4713F7F70F5A
:10599000832744FEA385E7008347B4FE0327C4FEA4
:1059A000ED079207BA979C47A18313F7F70F832758
:1059B00044FE2386E7008347B4FE0327C4FEED07B9
:1059C0009207BA979C47C18313F7F70F832744FECA
:1059D000A386E7008347B4FE0327C4FEED079207C2
:1059E000BA979C47E18313F7F70F832744FE238779
:1059F000E7008347B4FE0327C4FEED079207BA977A
:105A0000DC4713F7F70F832744FEA387E70083479C
:105A1000B4FE0327C4FEED079207BA97DC47A183C3
:105A200013F7F70F832744FE2388E7008347B4FE6C
:105A30000327C4FEED079207BA97DC47C18313F72B
:105A4000F70F832744FEA388E7008347B4FE0327AC
:105A5000C4FEED079207BA97DC47E18313F7F70F0F
:105A6000832744FE2389E7008347B4FE91EB832715
:105A7000C4FEDC4713E707028327C4FED8C709A882
:105A80008327C4FE9C4B13E707028327C4FE98CBF1
:105A90000100724405618280797122D60018232E9C
:105AA000A4FCAE87A30DF4FCA30704FE8347B4FD5A
:105AB00091EB8327C4FDDC4793F7F70F8D8BA3078A
:105AC000F4FE0DA00347B4FD8547631BF700832751
:105AD000C4FD9C4B93F7F70F8D8BA307F4FE19A021
