:100000006F40E00E1300000013000000130000001A
:100010001300000013000000130000001300000094
:100020001300000013000000130000001300000084
:08003000130000007300100032
:1000380000000000000000008C3400009C34000028
:100048000000000034400000000000000000000034
:1000580036400000384000000000000000000000AA
:100068003A400000000000003C4000000000000092
:100078003E40000040400000424000004440000074
:100088004640000048400000A4300000C83000008E
:10009800EC30000010310000343100005440000002
:1000A80056400000584000005A4000005C400000E4
:1000B8005E400000604000006240000064400000B4
:1000C80034340000684000006A40000058310000E5
:1000D8006E4000007432000072400000744000005E
:1000E800A4320000C4320000F43200007C4000005A
:1000F8007E400000804000008240000084400000F4
:10010800864000008C2E0000C02E0000222F000028
:10011800E031000090400000924000009440000050
:10012800AC330000984000009A4000009C4000005A
:100138009E400000A040000024330000A4400000BE
:10014800562F00008A2F0000543300007C33000033
:10015800AE400000B0400000B2400000B4400000D3
:10016800B6400000782E0000BA400000BC400000F5
:10017800BE400000C0400000C240000028720000DD
:10018800C6400000C840000066300000BA2F0000DA
:10019800EE2F00003A300000D2400000DC330000AF
:1001A800D6400000D8400000DA4000000C340000BF
:1001B800DE400000E0400000E2400000E4400000B3
:1001C800E6400000E8400000EA400000EC40000083
:1001D8000000000000000000000000000000000017
:1001E8000000000000000000000000000000000007
:0801F8000000000000000000FF
:10020000737504308280B76200009382820873A005
:1002100002308280397101436EC619A03971415391
:100220006AC866CA62CC5ECE19A0397101535AD031
:1002300056D252D44ED64AD826DA22DC06DE330114
:100240006140828241114AC026C222C406C682820F
:10025000B24D4101024D924C224CB24B4101024B36
:10026000924A224AB2494101024992442244B24090
:10027000410182803D432A876373C3029377F7006D
:10028000BDEFADE5937606FF3D8ABA960CC34CC32D
:100290000CC74CC74107E36BD7FE11E28280B3065F
:1002A000C3408A069702000096966780A60023073F
:1002B000B700A306B7002306B700A305B7002305C0
:1002C000B700A304B7002304B700A303B7002303B8
:1002D000B700A302B7002302B700A301B7002301B0
:1002E000B700A300B7002300B700828093F5F50F95
:1002F00093968500D58D93960501D58D61B793961C
:1003000027009702000096968682E78086FA9680FC
:10031000C1171D8F3E96E374C3F8A5B73367B500C8
:10032000FD530D8B79E7B7877F7F9387F7F71041F0
:100330009441B372F6003363F600BE92B3E26200FA
:100340006397720C6318D6065041D441B372F6001D
:100350003363F600BE92B3E262006398720A631BD5
:10036000D60410459445B372F6003363F600BE928E
:10037000B3E262006391720A631ED6025045D4450F
:10038000B372F6003363F600BE92B3E26200639A82
:1003900072086311D60210499449B372F6003363B0
:1003A000F600BE92B3E26200639372085105D10574
:1003B000E30FD6F61317060193970601631CF700A7
:1003C0001357060193D706013305F7409375F50FD0
:1003D00091E982804183C1833305F7409375F50F1E
:1003E00091E182801377F70F93F7F70F3305F7400A
:1003F00082800346050083C6050005058505631355
:10040000D60065FA3305D640828011059105E312C6
:10041000D6FE014582802105A105E31CD6FC0145DD
:1004200082803105B105E316D6FC01458280410585
:10043000C105E310D6FC01458280011122CE0010D7
:100440002324A4FE2326B4FEB7F700E023A0070070
:10045000B7F700E08146014794C7D8C7B7F700E077
:10046000054798C30100B7F700E003A8C7009C4701
:100470000327C4FEC286636CD7000327C4FEC2866E
:10048000E313D7FE032784FE6363F700E9BF01008F
:10049000724405618280011122CE00102326A4FE41
:1004A0008327C4FE958313F77700D1670A079387E4
:1004B00087CBBA979C439C470327C4FE7D8B854618
:1004C0003397E600F98F99C3854711A081473E8590
:1004D000724405618280797122D60018232EA4FC13
:1004E0008327C4FD958393F7F70F9D8BA307F4FE35
:1004F0008327C4FD93F7F70FBD8B2307F4FE034753
:10050000F4FED1670A07938787CBBA979C43DC47F1
:100510000347E4FE85463397E600420741833A8667
:100520008346F4FE51678A06130787CB3697184334
:10053000B18F5CC70100325445618280797106D663
:1005400022D40018232EA4FC232CB4FC232AC4FCA0
:100550002328D4FC8327C4FD958393F7F70F9D8B45
:10056000A307F4FE8327C4FD93F7F70FBD8B230782
:10057000F4FE0327C4FD9307F00F6305F714032768
:10058000C4FD9307F00F6301F7148347F4FE91E76E
:1005900085451145EF50D06A41A00347F4FE8547D9
:1005A0006317F70085452145EF509069B5A00347D3
:1005B000F4FE89476317F70085454145EF505068C1
:1005C000A1A80347F4FE8D476318F700854513057E
:1005D0000002EF50F06689A00347F4FE91476318CC
:1005E000F700854513050004EF50906535A00347DB
:1005F000F4FE95476318F700854513050008EF5092
:10060000306419A80347F4FE99476317F70085453E
:1006100013050010EF50D0628347E4FE0547B3177F
:10062000F700C207C1832310F4FE032784FD85472A
:100630006317F702832704FDC207C183A183C207A2
:10064000C18389E78D472322F4FE11A8832704FD87
:10065000C207C183A183C207C1832322F4FE83277B
:1006600004FDC207C18393F7F70F2324F4FE034769
:10067000F4FED1670A07938787CBBA979C433E87DE
:10068000930704FEBE853A85EF502040032784FD82
:100690008547631CF7020347F4FED1670A07938777
:1006A00087CBBA979C43BE868347E4FE0547B317C2
:1006B000F700C207C183032644FDBE853685EF508F
:1006C000A06321A0010011A00100B2502254456195
:1006D0008280011106CE22CC00102326A4FE232402
:1006E000B4FE2322C4FE2320D4FE8327C4FE81EB64
:1006F00093068031054685451545893541A0032778
:10070000C4FEC147631AF70093068031054685454C
:100710001305300225359DA00327C4FE9307000270
:10072000631AF70093068031054685451305D0020C
:100730003135A9A00327C4FE93070003631AF7000D
:10074000930680310546854513053002C53B3DA023
:100750000327C4FE93070004631AF7009306803151
:10076000054685451305A004D13B09A81306900250
:10077000D1679385479B0145EF109036032784FE90
:1007800089476319F70093068031054685451D4565
:10079000753341A0032784FEC947631AF700930607
:1007A00080310546854513055002493B9DA003272E
:1007B00084FE93072002631AF700930680310546F2
:1007C00085451305F0029D3BA9A0032784FE9307EE
:1007D0002003631AF700930680310546854513050B
:1007E0005002A93B3DA0032784FE93072004631A0F
:1007F000F70093068031054685451305C0043D3B4F
:1008000009A813060003D1679385479B0145EF10A4
:10081000302D032744FE85476319F70093064030C7
:10082000054681451945193B59A8032744FEC5478C
:10083000631AF700930640300546814513054002D0
:10084000F539B5A8032744FE93071002631AF70091
:1008500093064030054681451305E002C53185A069
:10086000032744FE93071004631AF70093064030F1
:10087000054681451305B004D13191A0032744FEFC
:1008800093071003631AF70093064030054681452D
:1008900013054002653125A0032744FE9307F00F9E
:1008A0006317F7009307F00F2322F4FE09A813063D
:1008B0008003D1679385479B0145EF107022930613
:1008C000003101468545032504FE8D390100F240C3
:1008D0006244056182805D7186C6A2C480082326B9
:1008E000A4FC2324B4FC2322C4FC2320D4FC232E08
:1008F000E4FA232CF4FA232A04FB231704FED1671D
:100900000327C4FC0A079387C7CCBA979C433E854C
:10091000EF50906085450545EF509032032704FC69
:10092000C1476311F7020327C4FBC947631CF700E3
:10093000032784FBC5476317F70085450545EF503E
:10094000203F15A8032704FC930700046315F70252
:100950000327C4FB93072004631FF700032784FBCE
:10096000930710046319F7008545B7172000138516
:100970000710EF50E03B8327C4FC91E785450565F0
:10098000EF50102C25A00327C4FC85476317F70000
:1009900085451165EF50302F11A80327C4FC894706
:1009A0006316F70085452165EF50F02D832644FB43
:1009B000032684FB8325C4FB032504FC193B231E6B
:1009C00004FC93074010231FF4FC231004FE0327AC
:1009D00084FC85476305F702832784FC81CF0327C6
:1009E00084FC89476303F702032784FC8D47630473
:1009F000F7020DA8231104FE231204FE25A02311E3
:100A000004FE85472312F4FE31A889472311F4FE22
:100A1000231204FE01A889472311F4FE85472312FF
:100A2000F4FE010003A7C189832744FCB357F702F2
:100A30002317F4FE0357E4FE9307F00F63F7E70074
:100A4000930780032317F4FE61A80357E4FE93077E
:100A5000F00763F7E700930700032317F4FE49A0AC
:100A60000357E4FE9307F00363F7E7009307800260
:100A70002317F4FEB5A00357E4FEFD4763F7E70034
:100A8000930700022317F4FEA1A80357E4FEBD4715
:100A900063F6E700E1472317F4FE99A00357E4FE4D
:100AA0009D4763F6E700C1472317F4FE15A80357D7
:100AB000E4FE8D4763F6E700A1472317F4FE0DA07F
:100AC0000357E4FE854763F5E700231704FE09A8F2
:100AD0001306D008D1679385479B0145EF1050005E
:100AE0008357E4FE2314F4FE930700202313F4FE3F
:100AF000231504FE9D472316F4FED1670327C4FC8B
:100B00000A079387C7CCBA979C433E879307C4FDD7
:100B1000BE853A85EF50B047D1670327C4FC0A076A
:100B20009387C7CCBA979C4385453E85EF50B05517
:100B30000100B640264461618280011122CE00107E
:100B40002326A4FEAE87A305F4FED1670327C4FEC7
:100B50000A079387C7CCBA979C433E878347B4FE66
:100B6000C207C1832316F7000100D1670327C4FE23
:100B70000A079387C7CCBA979C4383D78700C207DD
:100B8000C18393F70708F5F3010072440561828081
:100B9000011122CE00102326A4FEAE872315F4FEF9
:100BA0008357A4FEA183C207C18393F6F70FD167D1
:100BB0000327C4FE0A079387C7CCBA979C433E8796
:100BC00093970601C1832316F7000100D16703271D
:100BD000C4FE0A079387C7CCBA979C4383D7870084
:100BE000C207C18393F70708F5F38357A4FE93F672
:100BF000F70FD1670327C4FE0A079387C7CCBA97BC
:100C00009C433E8793970601C1832316F70001009A
:100C1000D1670327C4FE0A079387C7CCBA979C43C2
:100C200083D78700C207C18393F70708F5F3010054
:100C3000724405618280011106CE22CC0010232669
:100C4000A4FE2324B4FE8327C4FE99E7E1460146AF
:100C500085452545E530C9AA0327C4FE8947631A9F
:100C6000F700E1460146854513056002EFF01F8D50
:100C700065AA0327C4FEC1476319F700E146014690
:100C800085450945EFF09F8B45A20327C4FEC94760
:100C9000631AF700E1460146854513055006EFF05B
:100CA000FF8959A20327C4FE93070002631AF700C5
:100CB000E146014685451305A002EFF03F88ADA24D
:100CC0000327C4FE93072002631AF700E14601469A
:100CD00085451305A004EFF07F86B9A20327C4FE63
:100CE00093074002631AF700E14601468545130564
:100CF0008006EFF0BF840DAA0327C4FE930700040B
:100D0000631AF700E146014685451305A004EFF09C
:100D1000FF8219AA0327C4FE93072004631AF70071
:100D2000E1460146854513050002EFF03F81EDA83D
:100D30000327C4FE93070005631AF700E146014646
:100D400085451305C004EFF06FFFF9A80327C4FE23
:100D500093072005631AF700E14601468545130510
:100D60008008EFF0AFFDC9A00327C4FE930700067B
:100D7000631AF700E1460146854513050004EFF0CC
:100D8000EFFB5DA00327C4FE93072006631AF7005C
:100D9000E1460146854513050004EFF02FFA69A0EE
:100DA0000327C4FE93070007631AF700E1460146D4
:100DB000854513052004EFF06FF8BDA00327C4FE9E
:100DC000930720076319F700E14601468545194559
:100DD000EFF0CFF691A80327C4FE93074007631AEC
:100DE000F700E146014685451305C008EFF00FF511
:100DF00025A80327C4FE93070008631AF700E146FD
:100E00000146854513054004EFF04FF331A8032751
:100E1000C4FE930720086319F700E14601468545A3
:100E20001305E008EFF08FF1032784FE8547631A6E
:100E3000F70093068004014681452945EFF00FF045
:100E4000D5AA032784FE8D47631BF7009306800411
:100E50000146814513057002EFF04FEEE1AA03272A
:100E600084FEC547631AF700930680040146814556
:100E70000D45EFF0AFEC7DAA032784FECD47631B41
:100E8000F700930680040146814513056006EFF0E4
:100E9000EFEA4DA2032784FE93071002631BF700BD
:100EA00093068004014681451305B002EFF00FE977
:100EB00051A2032784FE93073002631BF7009306B9
:100EC0008004014681451305B004EFF02FE79DA291
:100ED000032784FE93075002631BF70093068004E8
:100EE0000146814513059006EFF04FE5A1A20327C7
:100EF00084FE93071004631BF700930680040146E9
:100F000081451305B004EFF06FE32DA2032784FEA3
:100F100093073004631BF700930680040146814564
:100F200013051002EFF08FE131A2032784FE93072F
:100F30001005631BF70093068004014681451305E5
:100F40002006EFF0AFDFFDA0032784FE93073005F6
:100F5000631BF70093068004014681451305900842
:100F6000EFF0CFDDC1A8032784FE93071006631BB3
:100F7000F700930680040146814513051004EFF045
:100F8000EFDB4DA8032784FE93073006631BF700B1
:100F900093068004014681451305B008EFF00FDA8F
:100FA00051A8032784FE93071007631BF7009306DD
:100FB00080040146814513053004EFF02FD89DA829
:100FC000032784FE93073007631AF7009306800413
:100FD000014681451D45EFF06FD6A9A8032784FE81
:100FE00093075007631BF700930680040146814571
:100FF0001305D008EFF08FD435A8032784FE93079C
:101000001008631BF7009306800401468145130511
:101010005004EFF0AFD239A8032784FE93073008BD
:10102000631AF70093068004014681451305F00812
:10103000EFF0CFD00100F2406244056182800111DF
:1010400006CE22CC00102326A4FEAE87A305F4FE14
:10105000D1670327C4FE0A07938787CDBA979C43BD
:101060003E878347B4FE3E86930550523A85EF5043
:10107000B05EB7E700E0938681840327C4FE36970D
:1010800003470700BA97238007408347B4FE81CF08
:10109000138781848327C4FEBA9783C707003E85E0
:1010A000EF10204B19A8138781848327C4FEBA97B9
:1010B00083C707003E85EF10804B0100F240624479
:1010C00005618280011122CE00102326A4FE232474
:1010D000B4FED1670327C4FE0A07938787CDBA976A
:1010E0009C4383D70700C207C18393F707028DC7CC
:1010F000D1670327C4FE0A07938787CDBA979C431D
:1011000083D74700C207C18313F7F70F832784FEF5
:101110002380E700854711A081473E857244056121
:101120008280797106D622D40018232EA4FC232CA9
:10113000B4FC232AC4FC2328D4FC85450545EF5084
:101140002030832504FD032544FDF534032744FDA9
:101150008947631CF700032704FD8D476317F700D9
:1011600085451145EF40D03C95A2032744FDC94772
:10117000631CF700032704FDCD476317F70085457F
:101180002145EF40F03A99A2032744FD930720023E
:101190006310F702032704FD93073002631AF70078
:1011A0008545B707140013850701EF40703839AA49
:1011B000032744FD930740026310F702032704FD51
:1011C00093075002631AF7008545B707140013858B
:1011D0000703EF40F035DDA8032744FD9307200403
:1011E000631DF700032704FD930730046317F7001E
:1011F00085450565EF40D033D1A8032744FD93070B
:1012000020056310F702032704FD93073005631AD6
:10121000F7008545B707200013851700EF405031D0
:1012200075A0032744FD930720066310F7020327E8
:1012300004FD93073006631AF7008545B717008051
:1012400013850780EF40D02E51A0032744FD93075C
:1012500020076312F702032704FD93073007631C7E
:10126000F700B7070140D44FB707014037074000E8
:10127000558FD8CFA1A8032744FD930740076312D9
:10128000F702032704FD93075007631CF700B70715
:101290000140D44FB707014037078000558FD8CFA2
:1012A00035A0032744FD930720086311F7020327A5
:1012B00004FD93073008631BF700B7070140D44FC4
:1012C000B707014037070002558FD8CF8327C4FDE9
:1012D00091E785451165EF50A01669A80327C4FD65
:1012E00085476318F700854537050200EF50A019C0
:1012F00051A00327C4FD89476318F70085453705CA
:101300000400EF504018BDA00327C4FD8D476318AB
:10131000F700854537050800EF50E016A1A8032720
:10132000C4FD91476318F700854537051000EF505D
:10133000801589A00327C4FD95476318F7008545EC
:1013400013050004EF50201435A00327C4FD99476E
:101350006318F700854513050008EF50C01219A85F
:101360000327C4FD9D476317F7008545130500104B
:10137000EF506011832784FD2320F4FE231204FE26
:10138000231304FE231404FE231604FEB147231581
:10139000F4FED1670327C4FD0A07938787CDBA9768
:1013A0009C433E87930704FEBE853A85EF5090012B
:1013B000D1670327C4FD0A07938787CDBA979C435B
:1013C00085453E85EF5050230100B25022544561BF
:1013D0008280411106C622C4000893858187194581
:1013E000D5310546938581871385019BEF10200039
:1013F0000100B240224441018280411106C622C44C
:101400000008938591870545753905469385918731
:101410001385419CEF00B07D0100B24022444101A0
:101420008280411106C622C4000803A701898947AA
:10143000630FF70003A701898D476314F700992014
:1014400039A003A7018991476313F70045280100DC
:10145000B240224441018280411106C622C40008E4
:1014600003A7018991476314F700DD2839A003A77A
:1014700001898D476313F70085280100B24022449B
:1014800041018280411106C622C4000883C7F1874A
:101490003E879387C187BA97BE8511452531AA87B4
:1014A00081CB83C7F187850713F7F70FA38FE186F9
:1014B00003C7F1878547631AF70003C7C1879307FE
:1014C000500A6304F700A38F018603C7F1878D4795
:1014D0006317F700A38F018605472380E188010089
:1014E000B240224441018280411122C600080547D2
:1014F000238DE1860100324441018280411106C6FC
:1015000022C4000883C771883E8793874188BA97B1
:10151000BE851145453EAA8781CB83C77188850763
:1015200013F7F70FA383E18803C771888547631A10
:10153000F70003C741889307500A6304F700A383A9
:10154000018803C771888D476317F700A38301885B
:1015500005472384E1880100B24022444101828092
:10156000411122C600080547A384E18801003244E6
:1015700041018280011106CE22CC0010AA87A30768
:10158000F4FED167938787CBDC433E8785671CCB0E
:10159000D167938787CBDC433E8785675CCBD16778
:1015A000938787CBDC473E87930700105CCB83474C
:1015B000F4FEBE850545EFF04FD8D167938787CB02
:1015C000DC433E8785671CCBD167938787CBDC479D
:1015D0003E87930700101CCBD167938787CBDC43F2
:1015E0003E8785675CCB0100F240624405618280E2
:1015F000011106CE22CC0010AA8736872317F4FEED
:10160000AE872316F4FEB2872315F4FEBA8723149F
:10161000F4FEB707002083C74722C207C1830357E0
:10162000E4FEB337F70093F7F70F3E871306F00495
:10163000D167938507A13A85EF00904A83C751800F
:10164000C207C1830357C4FEB337F70093F7F70F00
:101650003E8713060005D167938507A13A85EF0001
:101660003048B707002083C74722C207C18303570A
:10167000A4FEB337F70093F7F70F3E871306100564
:10168000D167938507A13A85EF00904583C75180C4
:10169000C207C183035784FEB337F70093F7F70FF0
:1016A0003E8713062005D167938507A13A85EF0091
:1016B000304383A7C18891C703A7C18885476315B5
:1016C000F7081305A0027D3581450545EFF0EFC60B
:1016D0008357E4FE93F7F70F890793F7F70FBE855B
:1016E0000545EFF08FC581450545EFF00FC58357E0
:1016F000A4FE93F7F70F890793F7F70FBE8505450B
:10170000EFF0AFC31305B002B53581450545EFF0E5
:10171000CFC28357C4FE93F7F70F850793F7F70FF0
:10172000BE850545EFF06FC181450545EFF0EFC07F
:10173000835784FE93F7F70F850793F7F70FBE855E
:101740000545EFF08FBF59A01305A002253581454F
:101750000545EFF08FBE8357E4FE93F7F70F85073B
:1017600093F7F70FBE850545EFF02FBD8145054581
:10177000EFF0AFBC8357A4FE93F7F70F850793F7FD
:10178000F70FBE850545EFF04FBB1305B002DD3303
:1017900081450545EFF06FBA8357C4FE93F7F70F05
:1017A000890793F7F70FBE850545EFF00FB981451F
:1017B0000545EFF08FB8835784FE93F7F70F89073D
:1017C00093F7F70FBE850545EFF02FB71305C0025D
:1017D00055330100F240624405618280797106D67A
:1017E00022D40018AA87231FF4FCB707002083C760
:1017F00047223E8783C75180B307F7022326F4FEB2
:10180000B707002083C74722C207C183FD1713977C
:101810000701418383C75180C207C183FD17C207F7
:10182000C183BE863A8681450145D93321A88357B5
:10183000E4FDBE850545EFF0AFB58327C4FEFD1777
:101840002326F4FE8327C4FEFDF30100B250225488
:1018500045618280011122CE00102326A4FE0327B9
:10186000C4FE23A6E1880327C4FE854763EDE70095
:10187000B7070020130700F82382E722130700FAB6
:10188000A382E18019A8B7070020130700FA23827A
:10189000E722130700F8A382E1800100724405618A
:1018A0008280011122CE0010AA872E872317F4FE12
:1018B000BA872316F4FEB70700200357E4FE2390EF
:1018C000E722B70700200357C4FE2391E722010057
:1018D000724405618280797106D622D40018AA87E5
:1018E000AE863287231FF4FCB687231EF4FCBA872A
:1018F000A30DF4FCB707002083C74722C207C183AA
:101900000357E4FDB337F70093F7F70F3E8713064D
:10191000800FD167938507A13A85EF00701C83C7BC
:101920005180C207C1830357C4FDB337F70093F753
:10193000F70F3E871306900FD167938507A13A856D
:10194000EF00101AA30704FE75A88347F4FE13974F
:10195000070141838357C4FDBA9793950701C1815D
:101960008357E4FD9D071396070141828347F4FEE8
:101970001397070141838357C4FDBA971397070153
:1019800041838357E4FDBA863E859D318307B4FDCC
:10199000938607FE8347F4FE51679206130787CFAD
:1019A0003697BA9783C70700A306F4FE230704FE01
:1019B00081A08347D4FE858B91CBB707002083D7C6
:1019C0000722BE850545EFF0AF9C09A8B7070020A8
:1019D00083D72722BE850545EFF08F9B8347D4FE32
:1019E0008583A306F4FE8347E4FE85072307F4FE00
:1019F0000347E4FE9D47E3FEE7FA8347F4FE8507CD
:101A0000A307F4FE0347F4FEBD47E3F0E7F401004B
:101A1000B250225445618280797106D622D40018D2
:101A2000AA872E87232CC4FC231FF4FCBA87231E0D
:101A3000F4FCB707002083C74722C207C1830357BE
:101A4000E4FDB337F70093F7F70F3E8713067011E5
:101A5000D167938507A13A85EF00900883C751802D
:101A6000C207C1830357C4FDB337F70093F7F70FDD
:101A70003E8713068011D167938507A13A85EF0051
:101A80003006231704FE3DA88357E4FE8E07139704
:101A9000070141838357E4FDBA9793960701C182FA
:101AA0008357E4FE032784FDBA9703870700835713
:101AB000C4FD3A86BE853685393D8357E4FE8507E9
:101AC0002317F4FE8357E4FE032784FDBA97838728
:101AD0000700DDFB0100B2502254456182800111F4
:101AE00006CE22CC4ACA4EC852C656C45AC25EC09E
:101AF000001083A7C18913D627001308F00F93079E
:101B0000F00F130720029306000281450545EFE020
:101B10009FDCC1460146854513058006EFE01FA204
:101B2000C146014685451305A006EFE03FA1C14629
:101B3000014685451305C002EFE05FA0C14605469A
:101B400085451305C006EFE07F9F83A7C1883E85CA
:101B50001133B707002003D70722B707002083D728
:101B60002722BE853A85353BD167938787CBDC47F3
:101B70003E87930700405CCB03A7C18989679387A1
:101B800007F43357F702BA878A07BA9786073E8B5E
:101B9000814B5A85DE85EFE05F8AD167938787CBDB
:101BA000DC473E87930700401CCB03A7C1898967A8
:101BB000938707F43357F702BA879207998F8E07F6
:101BC0003E8A814A5285D685EFE03F874545EFF052
:101BD0007F9A03A7C1898967938707F43357F70270
:101BE000BA879207998F8E073E8981494A85CE85AB
:101BF000EFE0BF841305100BEFF0DF978545054537
:101C0000EFE0BFF39305C0020545EFE01FF3930536
:101C1000D0020545EFE07FF21305200BEFF09F9512
:101C200085450545EFE07FF19305C0020545EFE0EE
:101C3000DFF09305D0020545EFE03FF01305300BD0
:101C4000EFF05F9385450545EFE03FEF9305C00258
:101C50000545EFE09FEE9305D0020545EFE0FFED6F
:101C600085450545EFE07FED9305C0020545EFE0B2
:101C7000DFEC9305D0020545EFE03FEC1305400B88
:101C8000EFF05F8F9D450545EFE03FEB1305000C3E
:101C9000EFF05F8E9305200A0545EFE01FEA8945C6
:101CA0000545EFE09FE9930540080545EFE0FFE8B3
:101CB0001305100CEFF01F8C9305500C0545EFE059
:101CC000DFE71305200CEFF0FF8AA9450545EFE09B
:101CD000DFE681450545EFE05FE61305300CEFF0E8
:101CE0007F899305A0080545EFE03FE59305A00235
:101CF0000545EFE09FE41305400CEFF0BF87930527
:101D0000A0080545EFE07FE39305E00E0545EFE011
:101D1000DFE21305500CEFF0FF85B9450545EFE014
:101D2000DFE113056003EFF0FF8483A7C188054757
:101D30006380E70281CB09476381E7020D47638433
:101D4000E70205A89305000C0545EFE01FDF15A08D
:101D500081450545EFE07FDE29A89305000A05458A
:101D6000EFE0BFDD39A0930500060545EFE0FFDC9D
:101D700001001305000EEFF0EFFFBD450545EFE054
:101D8000DFDBE9450545EFE05FDBBD450545EFE0FD
:101D9000DFDAE1450545EFE05FDA9305F00205453E
:101DA000EFE0BFD9930580020545EFE01FD9930509
:101DB00000020545EFE07FD8930520020545EFE0DE
:101DC000DFD7FD450545EFE05FD7ED450545EFE081
:101DD000DFD6930530020545EFE03FD6930570034B
:101DE0000545EFE09FD581450545EFE01FD59D45B1
:101DF0000545EFE09FD489450545EFE01FD4C14577
:101E00000545EFE09FD31305100EEFF0AFF6BD458B
:101E10000545EFE09FD2ED450545EFE01FD2BD45FA
:101E20000545EFE09FD1DD450545EFE01FD1930566
:101E300030030545EFE07FD09305C0020545EFE094
:101E4000DFCF930590020545EFE03FCF9305E00219
:101E50000545EFE09FCE930500030545EFE0FFCD7C
:101E6000930500030545EFE05FCD9305900305451D
:101E7000EFE0BFCC9305F0030545EFE01FCC8145B3
:101E80000545EFE09FCB9D450545EFE01FCB8D4518
:101E90000545EFE09FCAC1450545EFE01FCA1305A0
:101EA000A002EFF02FED81450545EFE01FC9894500
:101EB0000545EFE09FC881450545EFE01FC8930544
:101EC00020080545EFE07FC71305B002EFF08FEA69
:101ED00081450545EFE07FC68D450545EFE0FFC52F
:101EE00081450545EFE07FC5930530080545EFE0E6
:101EF000DFC41305000FEFF0EFE785450545EFE080
:101F0000DFC31305600FEFF0EFE681450545EFE015
:101F1000DFC21305A003EFF0EFE595450545EFE0BF
:101F2000DFC113059002EFF0EFE4B707002083D77D
:101F300027223E85EFF09F8A0100F2406244524919
:101F4000C249324AA24A124B824B0561828041113A
:101F500006C622C40008938581890545EFF08F9657
:101F60000546938581891385819D51210100B240E9
:101F7000224441018280411106C622C40008938593
:101F800091890545EFF00F94054693859189138556
:101F9000C19EB1290100B240224441018280011159
:101FA00006CE22CC00102326A4FE0327C4FE23AEB7
:101FB000E18811280325C4FE5120C12B0100F24005
:101FC000624405618280411122C60008B7170240B1
:101FD0009843B71702401367170098C3B71702401A
:101FE000D443B71702403707FFF8758FD8C3B71728
:101FF00002409443B71702403707F7FE7D17758FED
:1020000098C3B71702409443B71702403707FCFF45
:102010007D17758F98C3B7170240D443B717024096
:10202000370781FF7D17758FD8C3B7170240370771
:102030009F0098C70100324441018280797122D605
:102040000018232EA4FC232604FE232404FEB71725
:1020500002409443B71702404167558F98C3B717A2
:1020600002409843B7070200F98F2324F4FE832728
:10207000C4FE85072326F4FE832784FE99E7032701
:10208000C4FE93070050E31CF7FCB71702409843C7
:10209000B7070200F98F89C785472324F4FE19A0EA
:1020A000232404FE032784FE85476315F71EB72704
:1020B00002409843B72702401367070198C3B72728
:1020C00002409843B7270240719B98C3B72702404C
:1020D00094438327C4FD1387F7FFB7376E019387B7
:1020E0000760B357F70213F77700B7270240558F01
:1020F00098C337170240B71702405843D8C3371761
:102100000240B71702405843D8C337170240B717E9
:1021100002405843D8C30327C4FDB7177A009387FA
:102120000720631BF702B7170240D843B7170240D6
:10213000719BD8C3B7170240D843B7170240136743
:102140001700D8C30100B7170240DC4313F7C700DC
:102150009147E31AF7FE81A2B7170240D443B7179D
:1021600002403707C1FF7D17758FD8C30327C4FD11
:10217000B747950893870740631BF700B7170240DE
:10218000D443B71702404167558FD8C355A80327DA
:10219000C4FDB7172707938707E0631CF700B7173D
:1021A0000240D443B717024037073900558FD8C3D0
:1021B00041A80327C4FDB7E7B80593870780631CD0
:1021C000F700B7170240D443B7170240370729007A
:1021D000558FD8C3B5A00327C4FDB7A74A0493877A
:1021E0000720631CF700B7170240D443B71702401B
:1021F00037071D00558FD8C3A1A00327C4FDB777AB
:10220000DC02938707C0631CF700B7170240D44372
:10221000B717024037071100558FD8C315A0032701
:10222000C4FDB7376E0193870760631BF700B717CC
:102230000240D443B717024037070500558FD8C373
:10224000B71702409443B717024037070001558F74
:1022500098C30100B71702409843B7070002F98FEF
:10226000F5DBB7170240D843B7170240719BD8C3BC
:10227000B7170240D843B717024013672700D8C3E7
:102280000100B7170240DC4313F7C700A147E31A68
:10229000F7FE11A001A0325445618280411122C68F
:1022A000000801000100324441018280411106C64C
:1022B00022C400089306100213060002F1679385FA
:1022C00007200945EFE0FFE585450945EFE03FD7E9
:1022D00005472380E18A0100B24022444101828007
:1022E000011106CE22CC0010AA872324B4FE23229B
:1022F000C4FEA307F4FE8347F4FE85E383C7018A87
:1023000091CB032644FE832584FED167138547A71E
:10231000EFE0D06F4D2C5937FDBF0100F240624411
:1023200005618280797106D622D40018232EA4FC80
:10233000232CB4FC232AC4FC232604FEA9A00100FC
:10234000D167938787CD9C47930500043E85EF4076
:10235000D03FAA87F5D7D167938787CD9C47BE86A4
:10236000832784FD13871700232CE4FC8387070051
:10237000C207C183BE853685EF40503A8327C4FE2D
:1023800085072326F4FE0327C4FE832744FDE34884
:10239000F7FA832744FD3E85B2502254456182807E
:1023A000011122CE00102326A4FE2324B4FE83278D
:1023B000C4FED843832784FE3E978327C4FED8C338
:1023C00019A88327C4FED8438327C4FE9C4B1D8FC6
:1023D0008327C4FED8C38327C4FE984B8327C4FE3B
:1023E000DC43E3F0E7FE010072440561828079710D
:1023F00006D622D40018232EA4FC232CB4FC232AB6
:10240000C4FC8327C4FDDC47032744FD637BF70C32
:102410005D2A8327C4FD984B8327C4FDDC43B307A3
:10242000F7402326F4FE032744FD8327C4FE63FB05
:10243000E7068327C4FD98438327C4FDDC43BA978E
:102440000326C4FE832584FD3E85EFE060318325AD
:10245000C4FE0325C4FDA937032784FD8327C4FEDA
:10246000BA97232CF4FC8327C4FD98438327C4FD2B
:10247000DC43B306F700032744FD8327C4FEB307FC
:10248000F7403E86832584FD3685EFE0602D0327E7
:1024900044FD8327C4FEB307F740BE850325C4FD72
:1024A000013725A08327C4FD98438327C4FDDC435F
:1024B000BA97032644FD832584FD3E85EFE0402A3C
:1024C000832544FD0325C4FDE13D8327C4FDD84792
:1024D000832744FD1D8F8327C4FDD8C775288147F6
:1024E00011A089473E85B250225445618280011176
:1024F00022CE00102326A4FE8327C4FEFD8B0547B1
:10250000B316F70037E700E08327C4FE958393876F
:1025100007048A07BA9794C3010072440561828058
:10252000011122CE00102326A4FE8327C4FEFD8BBA
:102530000547B316F70037E700E08327C4FE95830D
:10254000938707068A07BA9794C30100724405610E
:102550008280011106CE22CC00102326A4FE032582
:10256000C4FE71370100F2406244056182800111AE
:1025700006CE22CC00102326A4FE0325C4FE4D3730
:102580000100F240624405618280411122C60008C8
:102590000100324441018280411106C622C4000874
:1025A00083A7418A99C783A7418A1387F7FF23A28C
:1025B000E18A83A7418A99E3EFD0FFC40100B240CA
:1025C000224441018280411106C622C4000883A72B
:1025D000418A99E3EFD0DFC283A7418A13871700AE
:1025E00023A2E18A0100B24022444101828001110C
:1025F00022CE00102326A4FE8327C4FEFD8B0547B0
:10260000B316F70037E700E08327C4FE958393876E
:1026100007048A07BA9794C3010072440561828057
:10262000011122CE00102326A4FEAE87A305F4FEDE
:1026300037E700E08327C4FEBA970347B4FE238040
:10264000E7400100724405618280011106CE22CC70
:102650000010232204FE232404FE232604FE8545C5
:1026600013050004EF30D05D89679387078023123C
:10267000F4FEC1472326F4FE8D472324F4FE93077E
:1026800044FEBE85B727014013850780EF30E03F49
:1026900005450128054581280100F2406244056195
:1026A0008280011106CE22CC0010AA87A307F4FE77
:1026B0008347F4FE99CB856793850780B727014050
:1026C00013850780EF30005F11A885679385078029
:1026D000B727014013850780EF30E05F0100F2402B
:1026E000624405618280011106CE22CC0010AA87C7
:1026F000A307F4FE8347F4FE89CB8565B727014025
:1027000013850780EF30005B01A88565B72701407E
:1027100013850780EF30205C0100F24062440561C0
:102720008280011106CE22CC0010AA87A307F4FEF6
:102730008347F4FE91CB8347F4FEBE85D1671385B2
:10274000C7ABEFE0B02C11A00100F240624405617C
:102750008280397106DE22DC80002326A4FC23243B
:10276000B4FC2322C4FC2320D4FC9307005F232C59
:10277000F4FC93070032232EF4FC85679387871FB0
:102780002320F4FEA9472322F4FE9307B00223245A
:10279000F4FE930784FD3E85EF501078832604FCF9
:1027A000032644FC832584FC0325C4FCEF5090677A
:1027B000AA87A307F4FE8347F4FE3E85F2506254D5
:1027C00021618280011106CE22CC4ACA4EC852C66F
:1027D00056C400100145EF30D06B4145EF30D06258
:1027E0003565EF30B0662D45EF3010570545EF30B9
:1027F000506A03A7C1898967938707F43357F702A3
:1028000093074006B307F7023E8A814A5285D68570
:10281000EFD0BFC215A003A7C1898967938707F4CA
:102820003357F7029307401FB307F7023E898149E8
:102830004A85CE85EFD07FC01305D003EF30F0532B
:10284000AA87F1DB85450545EF30303B0100F240BA
:1028500062445249C249324AA24A0561828001114A
:1028600006CE22CC0010232204FE232404FE2316CD
:1028700004FE85450545EF3010419307700C231485
:10288000F4FE89679387F7C12312F4FE231504FE33
:10289000231304FE930744FEBE8537050040EF4036
:1028A00020040546854537050040EF40C02085459A
:1028B00037050040EF40A01A854537050040EF403E
:1028C000802D930500081305C002EFF07FD5130596
:1028D000C002EFF0DFD10100F24062440561828066
:1028E0005D7186C6A2C48008930704FB1306C0036B
:1028F00081453E85EFD01F9883A74181232EF4FCAC
:1029000083D78181232AF4FC83D7A1811387170001
:1029100093160701C182239DD180232CF4FC8D479F
:102920002326F4FC83C7E18A3E87930700643307BC
:10293000F702B7970020938787CABA97232CF4FA37
:1029400093070064232EF4FA930704FBBE851385D6
:10295000E18AEF50F073AA87A307F4FE83C7E18AE8
:10296000BE85D1671385C7ACEFE0500A8347F4FEFC
:102970003E85EFF01FDB83C7E18A3E85EF60900064
:10298000AA87A307F4FE8347F4FE3E85EFF07FD9C4
:102990000100B640264461618280797106D622D456
:1029A0004AD24ED00018AA872E87A30FF4FCBA870C
:1029B000230FF4FC8347E4FD918B85CF8347F4FD1F
:1029C00081453E85EF606029AA872326F4FE9307A0
:1029D000C4FE0347F4FD3E86B7C70020938587EA0F
:1029E0003A85EF60400AB7C70020138587EAEF10E9
:1029F00080018347E4FDA18B91C7D167138547AE62
:102A0000EFE0D0128347E4FDC18B91C7D1671385F6
:102A1000C7AFEFE0B0118347E4FD93F707048DCB18
:102A2000D1671385C7B0EFE0701003A7C18989672C
:102A3000938707F43357F7029307800CB307F70225
:102A40003E8981494A85CE85EFD03F9FEFF05FE90F
:102A50000100B250225412598259456182800111FD
:102A600006CE22CC0010EF600051AA87A306F4FE28
:102A70008347D4FE858B91C7D167138587B1EFE07B
:102A8000F00A8347D4FE898B91C7D1671385C7B2FB
:102A9000EFE0D0098347D4FE918B99CFEF60E06DD2
:102AA000AA872317F4FE8357E4FE918B91C7D16761
:102AB000138547B4EFE090078347D4FEC18BA9C7C5
:102AC000231704FE2DA88357E4FE93F7F70F3E85E6
:102AD000EF60A04BAA872306F4FE8347C4FE99CB80
:102AE0008357E4FE93F7F70F0347C4FEBA853E858C
:102AF000EFF0BFEA8357E4FE85072317F4FE035780
:102B0000E4FE9D47E3F1E7FC0100F2406244056109
:102B10008280011106CE22CC4ACA4EC80010EFF0C6
:102B20007FCAEFF0DFD31385818AEF502037938679
:102B3000818A138601819385C18013858180EFF09E
:102B40005FC1AA87A307F4FE15A003A7C1898967FF
:102B5000938707F43357F70293074006B307F7024A
:102B60003E8981494A85CE85EFD03F8DEF60E06098
:102B7000AA87918BF9DBEFF0BFD60100F2406244E7
:102B80005249C24905618280597186D6A2D4801803
:102B9000AA87A30FF4F8AE87230FF4F8B287A30E29
:102BA000F4F8B687231DF4F8BA87230EF4F823222D
:102BB00004FE232404FE232604FE232204FC2324F3
:102BC00004FC232604FC232804FC232A04FC232CD5
:102BD00004FC232E04FC232004FE232804FA232AC9
:102BE00004FA232C04FA232E04FA232004FC85453E
:102BF0001545EF30F004854537050002EF30B00889
:102C000085672312F4FEE1472326F4FE8D47232433
:102C1000F4FE930744FEBE85B71701401385078075
:102C2000EF20B0668567938707802312F4FE930731
:102C300080042326F4FE930744FEBE85B7170140A7
:102C400013850780EF207064232604FC232804FCEE
:102C5000232A04FC8547232CF4FC232E04FC232088
:102C600004FE8347C4F92303F4FC8347F4F9A30368
:102C7000F4FC8347D4F92304F4FC8347E4F9A30468
:102C8000F4FC8357A4F92312F4FC930744FCBE859B
:102C9000B767004013850740EF10A06D230D04FABD
:102CA0008547A30DF4FA230E04FA930700062318B0
:102CB000F4FA930700042319F4FA93070002231A85
:102CC000F4FA231B04FA231C04FA85472320F4FC9E
:102CD000930704FB3E85EF10B00C8945B7670040B1
:102CE00013850740EF200032930740022304F4FAD3
:102CF0008547A304F4FA230504FA85472326F4FA4A
:102D0000930784FA3E85EF30401F05468945B76733
:102D1000004013850740EF20E0090100B65026541B
:102D200065618280397106DE22DC80002326A4FCE6
:102D3000AE872322C4FCA305F4FC231704FE8327DB
:102D400044FC232CF4FC230004FEA30004FE834770
:102D5000B4FC2301F4FE231704FE25A08357E4FEF0
:102D60000327C4FC3E978357E4FE034707009306FE
:102D700004FFB697A389E7FE8357E4FE8507231770
:102D8000F4FE8347B4FCC207C1830357E4FEE36744
:102D9000F7FC930784FDBE85B767004013850740A5
:102DA000EF109027AA87A306F4FE231704FE31A094
:102DB0008357E4FE85072317F4FE8347D4FEBE85C0
:102DC000B767004013850740EF109047AA873E87FA
:102DD00085476308F7000357E4FE8567F917E3F9B1
:102DE000E7FC0357E4FE8567FD176314F70085478A
:102DF00011A081473E85F250625421618280397171
:102E000006DE22DC80002326A4FC8145B767004053
:102E100013850740EF109074AA8799E3814781A832
:102E2000930784FD3E868145B767004013850740C0
:102E3000EF10F052A30704FE25A00347F4FE8347DA
:102E4000F4FE8326C4FCB697930604FF3697034727
:102E500037FF2380E7008347F4FE8507A307F4FECE
:102E60000347F4FE9D47E3FAE7FC834724FE3E85D3
:102E7000F250625421618280411122C60008EF5055
:102E8000B00F01003244410173002030411122C6CD
:102E9000000893055052B747014013850780EF4063
:102EA000200FAA8789CB93055052B747014013855D
:102EB0000780EF40001E01003244410173002030C2
:102EC000411122C6000893055052B74700401385B0
:102ED0000740EF40E00BAA87A1C303A741898547BC
:102EE0006315F700EFF02F8905A003A741898947F3
:102EF0006315F700EFE06FD001A803A741898D4764
:102F00006314F700EFF0AF8493055052B7470040C9
:102F100013850740EF40E017010032444101730080
:102F20002030411122C6000893055052B757004087
:102F300013850780EF40C005AA8789CB93055052BF
:102F4000B757004013850780EF40A01401003244BA
:102F5000410173002030411122C6000893055052F0
:102F6000B7570040138507C0EF408002AA8789CB7E
:102F700093055052B7570040138507C0EF406011CA
:102F800001003244410173002030411122C6000883
:102F90009305505237550040EF30907FAA8789CB78
:102FA000EFE02FC89305505237550040EF40600EB8
:102FB00001003244410173002030411122C6000853
:102FC00093055052B727004013850780EF30507C9F
:102FD000AA8789CB93055052B727004013850780F5
:102FE000EF40200B010032444101730020304111B9
:102FF00022C6000893055052B7270040138507C02A
:10300000EF301079AA878DC703A7418985476309E7
:10301000F70003A7418989476314F700EFE06FBB0E
:1030200093055052B7270040138507C0EF40600654
:1030300001003244410173002030411122C60008D2
:103040009305505237250040EF309074AA8799C7F6
:103050009305505237250040EF40A0030100324451
:10306000410173002030411122C60008B707055006
:1030700083C7070193F7F70F918B85C3EFE0CFBDAF
:10308000B707055083C7070113F7F70FB7070550B8
:103090006D9B1377F70F2388E7000100324441014D
:1030A00073002030411122C600080545EF20007C46
:1030B0002A8785476315F7000545EF20900001003A
:1030C0003244410173002030411122C600080945F5
:1030D000EF20C0792A8785476315F7000945EF205F
:1030E000407E01003244410173002030411122C66C
:1030F00000081145EF2080772A8785476315F70080
:103100001145EF20007C0100324441017300203062
:10311000411122C600082145EF2040752A878547C6
:103120006315F7002145EF20C079010032444101C9
:1031300073002030411122C600084145EF20007382
:103140002A8785476315F7004145EF208077010006
:103150003244410173002030411122C6000813059A
:103160000002EF20A0702A8785476316F700130539
:103170000002EF20007513050004EF20206F2A875E
:1031800085476316F70013050004EF2080731305CD
:103190000008EF20A06D2A8785476316F700130506
:1031A0000008EF20007213050010EF20206C2A8722
:1031B00085476316F70013050010EF208070130594
:1031C0000020EF20A06A2A8785476316F7001305C1
:1031D0000020EF20006F01003244410173002030D5
:1031E000411122C6000813050040EF2020682A87FD
:1031F00085476316F70013050040EF20806C856754
:1032000013850780EF2080662A8785476317F700BC
:10321000856713850780EF20C06A0565EF2000658C
:103220002A8785476315F7000565EF2080690965E2
:10323000EF20C0632A8785476315F7000965EF20F3
:1032400040681165EF2080622A8785476315F70083
:103250001165EF2000672165EF2040612A878547CF
:103260006315F7002165EF20C0650100324441017C
:1032700073002030411122C600088545B737014050
:10328000138507C0EF30300AAA8781CB8545B73751
:103290000140138507C0EF30101001003244410196
:1032A00073002030411122C600082945EF50C05755
:1032B000854537050040EF30100E010032444101D2
:1032C00073002030411122C600088545B707004031
:1032D00013850740EF303005AA8781CB8545B707B6
:1032E000004013850740EF30100B010032444101CC
:1032F00073002030411122C600088545B7170040F1
:1033000013850780EF303002AA8781CB8545B71738
:10331000004013850780EF3010080100324441015E
:1033200073002030411122C600088545B7170040C0
:10333000138507C0EF30207FAA8781CB8545B7175B
:103340000040138507C0EF301005010032444101F1
:1033500073002030411122C6000885453715004012
:10336000EF30607CAA8791C7854537150040EF3064
:10337000900201003244410173002030411122C605
:1033800000088545B717004013850740EF30A07946
:10339000AA8781CB8545B717004013850740EF30DA
:1033A000807F01003244410173002030411122C668
:1033B00000088545B737014013850740EF30A076F8
:1033C000AA8781CB8545B737014013850740EF3089
:1033D000807C01003244410173002030411122C63B
:1033E00000088545B7570140138507C0EF30A0732B
:1033F000AA8781CB8545B7570140138507C0EF30B9
:10340000807901003244410173002030411122C60D
:103410000008854537550140EF30E070AA8791C715
:10342000854537550140EF300077010032444101B6
:1034300073002030011122CE00108945B76700408B
:1034400013850740EF10B01B2A878547631BF702DF
:10345000B7C700201385874EEFF07F9AAA87A3078E
:10346000F4FE8347F4FE99C7B7C700201385874E43
:10347000EF0030058945B767004013850740EF101E
:10348000703801007244056173002030411122C67A
:10349000000801003244410173002030411122C66E
:1034A000000801A0797122D60018232EA4FC37F75A
:1034B00000E0544337F700E0F99A54C303D7018B77
:1034C000BA860327C4FD3307D7022326E4FE37F765
:1034D00000E08326C4FEB68701481CCB232A0701DF
:1034E000B7F700E09843B7F700E01367170398C3F6
:1034F0000100B7F700E0DC4313F717008547E31A34
:10350000F7FEB7F700E09843B7F700E0799B98C360
:103510000100325445618280011106CE22CC001098
:10352000AA872317F4FE0357E4FE83A7418B63C7E2
:10353000E7002945EFC03FFA23AA018A83A7418B00
:103540001387170023AAE18A0100F2406244056153
:103550008280411106C622C40008930680020146FB
:10356000814513051008EFC07FFD930680020146D8
:10357000814513052008EFC07FFC930680020146B9
:1035800081451305D006EFC07FFB930680020146FC
:10359000814513056006EFC07FFA9306800201465D
:1035A000814513053008EFC07FF993068004054676
:1035B00081450945EFC09FF8930680040546814583
:1035C0000D45EFC0BFF70100B240224441018280A7
:1035D000011106CE22CC00100D45EFC0DFEBAA870B
:1035E000BDEB13051008EFC01FEBAA873E87854788
:1035F000631DF70061469D45D167138587B5EFF0E0
:103600006FF2AA87A307F4FE25A013052008EFC0D8
:103610009FE8AA873E878547631CF70061469D4562
:10362000D167138507B6EFF0EFEFAA87A307F4FE83
:103630008347F4FE89CBD167138687B6A945294510
:10364000EFE08FBD89A4D167138687B7A9452945C7
:10365000EFE08FBC0DAC13051008EFC0DFE3AA87C5
:103660003E8785476311F7060945EFC0DFE2AA8769
:103670003E878547631DF70011469D45D167138539
:1036800087B5EFF02FEAAA87A307F4FE19A8114621
:103690009D45D167138507B6EFF0CFE8AA87A3074A
:1036A000F4FE8347F4FE89CBD167138687B8A9451A
:1036B0002945EFE06FB601A8D167138687B9A94500
:1036C0002945EFE06FB513052008EFC0DFDCAA87BE
:1036D0003E8785476311F7060945EFC0DFDBAA8700
:1036E0003E878547631DF70021469D45D1671385B9
:1036F00087B5EFF02FE3AA87A307F4FE19A82146A8
:103700009D45D167138507B6EFF0CFE1AA87A307E0
:10371000F4FE8347F4FE89CBD167138687BAA945A7
:103720002945EFE06FAF01A8D167138687BBA94594
:103730002945EFE06FAE1305D006EFC0DFD5AA87AD
:103740003E8785476311F7060945EFC0DFD4AA8796
:103750003E878547631DF70031469D45D167138538
:1037600087B5EFF02FDCAA87A307F4FE19A831462E
:103770009D45D167138507B6EFF0CFDAAA87A30777
:10378000F4FE8347F4FE89CBD167138687BCA94535
:103790002945EFE06FA801A8D167138687BDA94529
:1037A0002945EFE06FA713056006EFC0DFCEAA87BB
:1037B0003E8785476311F7060945EFC0DFCDAA872D
:1037C0003E878547631DF70041469D45D1671385B8
:1037D00087B5EFF02FD5AA87A307F4FE19A84146B5
:1037E0009D45D167138507B6EFF0CFD3AA87A3070E
:1037F000F4FE8347F4FE89CBD167138687BEA945C3
:103800002945EFE06FA101A8D167138687BFA945BD
:103810002945EFE06FA013053008EFC0DFC7AA8786
:103820003E8785476311F7060945EFC0DFC6AA87C3
:103830003E878547631DF70051469D45D167138537
:1038400087B5EFF02FCEAA87A307F4FE19A851463B
:103850009D45D167138507B6EFF0CFCCAA87A307A4
:10386000F4FE8347F4FE89CBD167138687C0A94550
:103870002945EFE06F9A01A8D167138687C1A94552
:103880002945EFE06F99F240624405618280411161
:1038900006C622C40008EFE08FA4C1460146854554
:1038A0002945EFC0BFC9C146054685451305F00847
:1038B000EFC0DFC8C146014685451305B008EFC01B
:1038C000FFC7C146014685451305C008EFC01FC7A5
:1038D000EFF03FC80147B146154691450145EFF06D
:1038E000AFAA65230100B240224441018280797170
:1038F00006D622D40018232EA4FCEF20800CAA8721
:10390000A307F4FE0327C4FD85476307F702832757
:10391000C4FD81CF0327C4FD8947630CF702032749
:10392000C4FD8D476304F704B1A08347F4FE93F709
:10393000F703A307F4FE3DA88347F4FE93F7F703CC
:10394000A307F4FE8347F4FE93E7F707A307F4FE0B
:1039500015A08347F4FE93F7F703A307F4FE83470C
:10396000F4FE93E7F7FBA307F4FE29A0FD57A30796
:10397000F4FE0100EF10F0768347F4FEBE85B70732
:10398000002013852780EF10507AEF103078010067
:10399000B250225445618280011106CE22CC001023
:1039A000EFE07FC2B747950813850740EFE02FDFB0
:1039B000EFE0DF8F0145EFF09FF3EFF05FEDEFE019
:1039C000BFBDEFF00F95D523AA872317F4FED1676B
:1039D000138687C2A9452945EFE00F84232204FE00
:1039E000232404FE231604FEEF50005FEF506055C1
:1039F000AA8799C3EFF0AF86EFF09FBD1305803E15
:103A0000EFF09FB1D5B71D7186CEA2CC80102326D2
:103A1000A4FA0326C4FA81451545EFD0FFFFD1670C
:103A2000938547C30325C4FAEFD030122324A4FEA4
:103A3000D167938587C3032584FEEFD0101123221D
:103A4000A4FE832744FE63890726D1679385C7C3F5
:103A5000032544FEEFC09F8CAA87ADEBD167938509
:103A600087C30145EFD0700E2320A4FE832704FEF8
:103A7000038707009307A0046310F724832704FE3D
:103A80008507038707009307000363D7E72283278F
:103A900004FE8507038707009307600363CEE720D2
:103AA000832704FE85070387070093071003B36786
:103AB000F702E207E18785079E0795873E869D45C9
:103AC000D167138547C4EFF0EFA5FDA2D1679385B9
:103AD000C7C4032544FEEFC07F84AA87639E071CEA
:103AE000D167938587C30145EFD03006232EA4FC10
:103AF0008327C4FD038707009307A004631EF71AFA
:103B00008327C4FD8507038707009307000363D558
:103B1000E71A8327C4FD850703870700930760031F
:103B200063CCE7188327C4FD850703870700930745
:103B30001003B367F702E207E187A30DF4FCD16736
:103B4000938587C30145EFD05000232AA4FCD16799
:103B5000938507C5032544FDEFC04FFCAA87DDE729
:103B6000D167938587C30145EFD0207E2328A4FC2D
:103B7000232204FC232404FC130744FC1146D167D0
:103B8000938547C53A85EFC0B03DA30704FEA30760
:103B900004FE2DA08347F4FE032704FD3E978347D0
:103BA000F4FE910703070700930604FFB697238AE4
:103BB000E7FC8347F4FE8507A307F4FE0347F4FE02
:103BC000854763EAE7008347F4FE032704FDBA97BD
:103BD00083870700E1F3930744FC3E8693052003A7
:103BE0000145EFD07FE38347F4FE910713F7F70F0A
:103BF0008347B4FD85079E079587BE86930744FCDF
:103C00003686BA853E85EFF0EF917DA0D16793852A
:103C1000C7C5032544FDEFC06FF0AA87D1EFD16778
:103C2000938587C30145EFD040722326A4FC232E41
:103C300004FA232004FC1307C4FB1146D1679385C3
:103C400007C63A85EFC0D031230704FE230704FEE0
:103C50002DA08347E4FE0327C4FC3E978347E4FE80
:103C6000910703070700930604FFB6972386E7FC36
:103C70008347E4FE85072307F4FE0347E4FE8547F8
:103C800063EAE7008347E4FE0327C4FCBA9783870F
:103C90000700E1F38347E4FE910713F7F70F83472B
:103CA000B4FD85079E079587BE869307C4FB3686BD
:103CB000BA853E85EFF00F870100F6406644256126
:103CC00082805D7186C6A2C48008232EA4FA0326D2
:103CD000C4FB81450145EFD03FD4D167938547C3ED
:103CE0000325C4FBEFD060662326A4FED16793852D
:103CF00087C30325C4FEEFD040652324A4FE832799
:103D000084FE638F070ED167938587C6032584FEE3
:103D1000EFC0CFE0AA876395070ED167938587C36D
:103D20000145EFD080622322A4FE832744FE03874F
:103D300007009307000363D5E70C832744FE03873E
:103D400007009307700363CDE70A832744FE83C708
:103D50000700A301F4FED167938547C30145EFD067
:103D6000C05E232EA4FC8327C4FDD9CB232604FCEC
:103D7000232804FC232A04FC232C04FC1307C4FC82
:103D80001546D1679385C7C63A85EFC0701D834736
:103D900034FEA308F4FC930700022309F4FC032576
:103DA000C4FDEFD060592A879307C4FC9D073A866B
:103DB0008325C4FD3E85EFC0B01A9307C4FC3E8541
:103DC000EFD08057AA87130704FFBA97238E07FC0A
:103DD0009307C4FC3E85EFD02056AA872324F4FC29
:103DE000130784FC9307C4FC3A86BE850145EF5057
:103DF00060339307C4FC3E86E5450145EFD0DFC143
:103E00000100B640264461618280797122D6001893
:103E1000AA87A30FF4FCB717014093870780414797
:103E2000D8CBB73701400347F4FD420741832396BF
:103E3000E7000100B737014083D78700C207C1837D
:103E400093F70708E5FBB737014023960700010009
:103E5000B737014083D78700C207C18393F70708AC
:103E6000E5FBB737014083D7C700C207C183A3076B
:103E7000F4FEB717014093870780414798CB8347EB
:103E8000F4FE3E85325445618280797106D622D493
:103E9000001837350140EF20300885450545EF20F3
:103EA000205A85450565EF20A05985451145EF202D
:103EB0002059231E04FC93074010231FF4FC2310F9
:103EC00004FE89472311F4FE85472312F4FEC147FF
:103ED0002314F4FE930700202313F4FE231504FE9D
:103EE0009D472316F4FE9307C4FDBE853735014078
:103EF000EF20F009C1472318F4FCC147232CF4FC40
:103F00008D47232AF4FC930704FDBE85B7170140B3
:103F100013850780EF107037930700022318F4FC15
:103F2000E147232CF4FC8D47232AF4FC930704FD7E
:103F3000BE85B717014013850780EF101035930732
:103F400000082318F4FCE147232CF4FC8D47232AB6
:103F5000F4FC930704FDBE85B71701401385078065
:103F6000EF10B032930700042318F4FC9147232C80
:103F7000F4FC8D47232AF4FC930704FDBE85B71794
:103F8000014013850780EF105030854537350140DB
:103F9000EF20700FB717014093870780414798CBF8
:103FA0000100B250225445618280011106CE22CC1C
:103FB0000010231704FEB71701409387078041477D
:103FC000D8CB13050009EFF05FE40145EFF0FFE304
:103FD0000145EFF09FE30145EFF03FE31305F00FDC
:103FE000EFF0BFE2AA87A207139707014187831763
:103FF000E4FED98FC207C1872317F4FE1305F00F23
:10400000EFF0BFE0AA871397070141838357E4FECF
:10401000D98F2317F4FEB7170140938707804147D4
:1040200098CB8357E4FE3E85F2406244056182806E
:1040300001A001A001A001A001A001A001A001A078
:1040400001A001A001A001A001A001A001A001A068
:1040500001A001A001A001A001A001A001A001A058
:1040600001A001A001A001A001A001A001A001A048
:1040700001A001A001A001A001A001A001A001A038
:1040800001A001A001A001A001A001A001A001A028
:1040900001A001A001A001A001A001A001A001A018
:1040A00001A001A001A001A001A001A001A001A008
:1040B00001A001A001A001A001A001A001A001A0F8
:1040C00001A001A001A001A001A001A001A001A0E8
:1040D00001A001A001A001A001A001A001A001A0D8
:1040E00001A001A001A001A001A001A001A0739066
:1040F000123497D1FF1F9381E19217C10120130160
:1041000061F0171501001305258A97C5FF1F9385D8
:1041100065EF1386818763FAC5008322050023A01B
:10412000550011059105E3EAC5FE13858187978542
:1041300000209385E55F6377B50023200500110516
:10414000E36DB5FEFD42739002BCFD427390428068
:10415000B78200009382828873A0023097C2FFFF6B
:104160009382C2ED93E2320073905230EF0040012F
:104170009702000093828282739012347300203081
:10418000411106C622C40008B71702409843B7176A
:1041900002401367170098C3B7170240D443B717FC
:1041A00002403707FFF8758FD8C3B7170240944312
:1041B000B71702403707F7FE7D17758F98C3B717FB
:1041C00002409443B71702403707FCFF7D17758FF5
:1041D00098C3B7170240D443B7170240370781FF8F
:1041E0007D17758FD8C3B717024037079F0098C750
:1041F00031200100B240224441018280411106C6B3
:1042000022C4000831200100B240224441018280D2
:10421000011122CE0010232604FE232404FEB7172A
:1042200002409443B71702404167558F98C3B717B0
:1042300002409843B7070200F98F2324F4FE832736
:10424000C4FE85072326F4FE832784FE99E703270F
:10425000C4FE93070050E31CF7FCB71702409843D5
:10426000B7070200F98F89C785472324F4FE19A0F8
:10427000232404FE032784FE85476318F70EB7271F
:1042800002409843B72702401367070198C3B72736
:1042900002409843B7270240719B98C3B72702405A
:1042A0009843B72702401367270098C33717024087
:1042B000B71702405843D8C337170240B717024018
:1042C0005843D8C337170240B71702405843D8C3E2
:1042D000B7170240D443B71702403707C1FF7D1715
:1042E000758FD8C3B7F7FF1F9387C770984391673F
:1042F000F98F99EBB7170240D443B717024037073D
:104300003D00558FD8C309A8B7170240D443B7174B
:1043100002404167558FD8C3B71702409443B7177F
:10432000024037070001558F98C30100B7170240BC
:104330009843B7070002F98FF5DBB7170240D8435F
:10434000B7170240719BD8C3B7170240D843B717BD
:10435000024013672700D8C30100B7170240DC43AF
:1043600013F7C700A147E31AF7FE01007244056185
:104370008280797122D60018232EA4FC232CB4FC51
:10438000A30704FE232404FE8327C4FD9C4313F7E4
:10439000D7FF8327C4FD98C38327C4FD9C4313E73D
:1043A00017008327C4FD98C331A0832784FE8507A7
:1043B0002324F4FE8327C4FDDC4313F7170085474D
:1043C0006308F700032784FEC167FD17E31FF7FCAE
:1043D0008327C4FDDC4313F7170085476305F70007
:1043E000A30704FE45AA832784FD98478547631BDE
:1043F000F7008327C4FD9C4313E707088327C4FD08
:1044000098C309A88327C4FD9C4313F7F7F78327B4
:10441000C4FD98C3832784FDD8478547631BF700F5
:104420008327C4FD9C4313E707048327C4FD98C377
:1044300009A88327C4FD9C4313F7F7FB8327C4FD1A
:1044400098C3832784FD984B8547631BF700832718
:10445000C4FD9C4313E707028327C4FD98C309A842
:104460008327C4FD9C4313F7F7FD8327C4FD98C33E
:10447000832784FDD84B8547631BF7008327C4FD42
:104480009C4313E707018327C4FD98C309A883272A
:10449000C4FD9C4313F7F7FE8327C4FD98C383270D
:1044A00084FD984F8547631BF7008327C4FD9C4319
:1044B00013E787008327C4FD98C309A88327C4FD99
:1044C0009C4313F777FF8327C4FD98C3832784FD9C
:1044D000D84F8547631BF7008327C4FD9C4313E730
:1044E00047008327C4FD98C309A88327C4FD9C43C4
:1044F00013F7B7FF8327C4FD98C3832784FD83C7C1
:1045000027001397E701832784FD83C73700E2075D
:104510005D8F832784FD83C74700C2075D8F832794
:1045200084FD83C75700D2075D8F832784FD83D71F
:104530000700FD175D8F8327C4FDD8CF8327C4FDF7
:104540009C4313F7E7FF8327C4FD98C3232404FE8D
:1045500031A0832784FE85072324F4FE8327C4FD2E
:10456000DC4313F7170085476318F700032784FE21
:10457000C167FD17E31FF7FC8327C4FDDC4313F776
:10458000170085476315F700A30704FE21A08547A0
:10459000A307F4FE8347F4FE3E85325445618280D2
:1045A000797122D60018232EA4FC232604FE83272B
:1045B000C4FD83C7A7003E878547B397E70023263E
:1045C000F4FEB76700409387074003A70720B7674B
:1045D0000040938707401367170023A0E720B767C1
:1045E00000409387074083A6C7218327C4FE13C7D3
:1045F000F7FFB767004093870740758F23AEE7202A
:104600008327C4FD83C7C700D1E7B76700409387FE
:10461000074083A6C7208327C4FE13C7F7FFB767E9
:10462000004093870740758F23A6E7208327C4FDAA
:1046300083D76700C2070327C4FD03572700BA8545
:1046400037670040930607400327C4FD0347A700D0
:104650003A8633E7B700930786048E07B69798C368
:104660008327C4FD83D74700C2070327C4FD035730
:104670000700BA8537670040930607400327C4FD4B
:104680000347A7003A8633E7B700930786048E07EF
:10469000B697D8C38327C4FD03C7C70085476315F2
:1046A000F708B76700409387074083A6C720B7671E
:1046B0000040938707400327C4FE558F23A6E720B9
:1046C0008327C4FD83D70700C2070327C4FD035710
:1046D0002700BA8537670040930607400327C4FDCB
:1046E0000347A7003A8633E7B700930786048E078F
:1046F000B69798C38327C4FD83D74700C207032713
:10470000C4FD03576700BA8537670040930607402A
:104710000327C4FD0347A7003A8633E7B700930792
:1047200086048E07B697D8C38327C4FD83C7B70016
:104730009DE3B76700409387074083A64720832700
:10474000C4FE13C7F7FFB767004093870740758F14
:1047500023A2E72005A0B76700409387074083A600
:104760004720B7670040938707400327C4FE558F53
:1047700023A2E7208327C4FD83D7870095E3B7678B
:1047800000409387074083A647218327C4FE13C7B1
:10479000F7FFB767004093870740758F23AAE7208C
:1047A0008327C4FD03D7870085476311F702B767E6
:1047B00000409387074083A64721B767004093874F
:1047C00007400327C4FE558F23AAE7208327C4FD93
:1047D000984B85476311F702B767004093870740FE
:1047E00083A6C721B7670040938707400327C4FE0D
:1047F000558F23AEE720B76700409387074003A794
:104800000720B767004093870740799B23A0E720E4
:104810000100325445618280797122D60018232E1E
:10482000A4FC232CB4FCA30704FE8327C4FD9847F3
:10483000B70700047D8FB70700046315F700A307CF
:1048400004FE81A08327C4FD9847B70700087D8F29
:10485000B70700086316F7008547A307F4FE15A005
:104860008327C4FD9847B70700107D8FB707001056
:104870006316F7008947A307F4FE21A09147A30719
:10488000F4FE0347F4FE91476306F71A8347F4FEEC
:104890000327C4FDE1079207BA9798438347F4FEC4
:1048A000058B8326C4FDE1079207B69798C383273B
:1048B00084FD83C7870085EF8347F4FE0327C4FD8B
:1048C000E1079207BA979443832784FD9C43D60758
:1048D000032784FD034797005D8F8347F4FE558FC0
:1048E0008326C4FDE1079207B69798C381A083474A
:1048F000F4FE0327C4FDE1079207BA979443832788
:1049000084FDDC438E07032784FD03478700D98F8E
:10491000032784FD034797005D8F8347F4FE558F7F
:104920008326C4FDE1079207B69798C3832784FDC9
:1049300083C7A700BD8B13F7F70F832784FD23855B
:10494000E7008347F4FE0327C4FDE1079207BA9707
:10495000D8438347F4FE419B8326C4FDE1079207B9
:10496000B697D8C38347F4FE0327C4FDE107920737
:10497000BA97D843832784FD83C7A700BE868347A1
:10498000F4FE558F8326C4FDE1079207B697D8C37E
:10499000832784FD83C7E70013978701832784FD5E
:1049A00083C7D700C2075D8F832784FD83C7C700F5
:1049B000A2075D8F832784FD83C7B700BE86834728
:1049C000F4FE558F8326C4FDE1079207B69798C77A
:1049D000832784FD83C7270113978701832784FDDD
:1049E00083C71701C2075D8F832784FD83C7070133
:1049F000A2075D8F832784FD83C7F700BE868347A8
:104A0000F4FE558F8326C4FDE1079207B697D8C7F9
:104A10008347F4FE0327C4FDE1079207BA97984342
:104A20008347F4FE136717008326C4FDE10792074E
:104A3000B69798C38347F4FE3E8532544561828021
:104A4000797122D60018232EA4FCAE87A30DF4FCA6
:104A5000232604FE8347B4FD05476380E702094728
:104A60006388E7029DEF8327C4FD9847B7070004DA
:104A70008D07F98F2326F4FE05A88327C4FD9847E8
:104A8000B707000893870730F98F2326F4FE29A87B
:104A90008327C4FD9847B7070310F98F2326F4FE38
:104AA00021A0232604FE01000327C4FEB707000847
:104AB000938707106308F7060327C4FEB7070008AB
:104AC0009387071063E4E7020327C4FEB7070004D7
:104AD00085076306F7040327C4FEB70700048D07A4
:104AE0006308F7048327C4FE9DC7B9A80327C4FE43
:104AF000B7070110630BF7020327C4FEB7070310C3
:104B00006300F7040327C4FEB70700089387073044
:104B10006304F70215A889472326F4FE0DA823266F
:104B200004FE35A0232604FE1DA0232604FE05A0B6
:104B300085472326F4FE21A885472326F4FE01A8F5
:104B400085472326F4FE21A0232604FE01008327A7
:104B5000C4FE93F7F70F3E85325445618280011100
:104B600022CE00102326A4FEAE872322C4FEA30576
:104B7000F4FE8347B4FE0327C4FEED079207BA97FD
:104B80009C4393F7F70F918B13F7F70F832744FE9E
:104B90002384E700832744FE83C7870085E3834798
:104BA000B4FE0327C4FEED079207BA979C43D58352
:104BB00013F7F77F832744FE98C315A08347B4FEFD
:104BC0000327C4FEED079207BA979C4313D737001B
:104BD000B7070020FD177D8F832744FED8C3834786
:104BE000B4FE0327C4FEED079207BA979C4393F7E0
:104BF000F70F898B13F7F70F832744FEA384E70091
:104C00008347B4FE0327C4FEED079207BA97DC433F
:104C100093F7F70FBD8B13F7F70F832744FE238518
:104C2000E7008347B4FE0327C4FEED079207BA9757
:104C3000DC43A18313F7F70F832744FEA389E70022
:104C40008347B4FE0327C4FEED079207BA979C473B
:104C500013F7F70F832744FEA385E7008347B4FECD
:104C60000327C4FEED079207BA979C47A18313F769
:104C7000F70F832744FE2386E7008347B4FE03270C
:104C8000C4FEED079207BA979C47C18313F7F70F4D
:104C9000832744FEA386E7008347B4FE0327C4FEB0
:104CA000ED079207BA979C47E18313F7F70F832725
:104CB00044FE2387E7008347B4FE0327C4FEED07C5
:104CC0009207BA97DC4713F7F70F832744FEA387B1
:104CD000E7008347B4FE0327C4FEED079207BA97A7
:104CE000DC47A18313F7F70F832744FE2388E700EF
:104CF0008347B4FE0327C4FEED079207BA97DC474B
:104D0000C18313F7F70F832744FEA388E700834787
:104D1000B4FE0327C4FEED079207BA97DC47E18390
:104D200013F7F70F832744FE2389E7008347B4FE78
:104D300091EB8327C4FEDC4713E707028327C4FEF9
:104D4000D8C709A88327C4FE9C4B13E70702832713
:104D5000C4FE98CB0100724405618280797122D62D
:104D60000018232EA4FCAE87A30DF4FCA30704FEB9
:104D70008347B4FD91EB8327C4FDDC4793F7F70F1E
:104D80008D8BA307F4FE0DA00347B4FD8547631B7D
:104D9000F7008327C4FD9C4B93F7F70F8D8BA30778
:104DA000F4FE19A0A30704FE8347F4FE3E853254A7
:104DB00045618280011122CE00102326A4FE232407
:104DC000B4FE2322C4FE832744FE99CB8327C4FE6E
:104DD000D84B832784FE5D8F8327C4FED8CB21A8C0
:104DE0008327C4FED84B832784FE93C7F7FF7D8FAC
:104DF0008327C4FED8CB010072440561828079719B
:104E000006D622D40018232EA4FC232CB4FC23267F
:104E100004FE8327C4FDD84B832784FDF98F638A62
:104E2000071C032784FD930700046307F712032779
:104E300084FD9307000463E8E704032784FD91479A
:104E40006308F70C032784FD914763EDE700032710
:104E500084FD8547630AF708032784FD89476300BB
:104E6000F70A61A2032784FDC1476305F70C0327F6
:104E700084FD930700026308F70C032784FDA14714
:104E80006301F70A9DA2832784FD93870780638BC4
:104E90000712032784FD85679387078063E5E70290
:104EA000032784FD93070020630CF70E032784FD7E
:104EB00093070040630FF70E032784FD930700104C
:104EC0006307F70C1DA2032784FDC167630FF70872
:104ED000032784FDB70702006302F70A032784FD56
:104EE000A167630BF70E11A28327C4FD9847C16722
:104EF000938517103A8585242326A4FEEDA88327E1
:104F0000C4FDDC478D453E85B9242326A4FEE5A0DB
:104F10008327C4FDDC47A1453E85352C2326A4FE0E
:104F2000D9A88327C4FDDC47C1453E852D2423260F
:104F3000A4FED1A08327C4FD9C4B8D453E85212C2A
:104F40002326A4FE4DA88327C4FD9C4BA1453E8586
:104F500019242326A4FE45A08327C4FD9C4BC145EC
:104F60003E85D52A2326A4FE79A08327C4FDDC43F1
:104F7000A1453E85CD222326A4FEB5A88327C4FDE6
:104F8000DC43C1453E85C12A2326A4FEADA083276C
:104F9000C4FD9C4F85453E857D2A2326A4FEA1A8FD
:104FA0008327C4FD9C4F89453E8575222326A4FE98
:104FB00099A08327C4FD9C4F91453E85692A2326ED
:104FC000A4FE15A88327C4FD9C4F930500073E85CA
:104FD00059222326A4FE05A08327C4FDDC43914566
:104FE0003E85952A2326A4FE39A0232604FE01002F
:104FF00019A0232604FE8327C4FE3E85B250225406
:1050000045618280011122CE00102326A4FE2324B4
:10501000B4FE032784FE930700106309F70E0327ED
:1050200084FE9307001063E4E704032784FEA1478E
:105030006305F70A032784FEA14763EDE700032712
:1050400084FE8547630FF706032784FE91476301BB
:10505000F708F5A8032784FE930700026304F70806
:10506000032784FE930700046303F708CDA083277A
:1050700084FE93870780D5CB032784FE85679387BB
:10508000078063EFE700032784FE93070020630493
:10509000F708032784FE930700406303F70845A839
:1050A000032784FEC1676309F704032784FEB7075B
:1050B00002006308F704032784FEA1676300F70872
:1050C00079A08327C4FE41671307171098C741A032
:1050D0008327C4FE2147D8C79DA88327C4FE414724
:1050E000D8C7B5A08327C4FE214798CB8DA08327BE
:1050F000C4FE414798CBA1A88327C4FE2147D8C34B
:10510000B9A08327C4FE4147D8C391A08327C4FE1A
:105110001147D8C32DA88327C4FE1147D8C305A8BB
:105120008327C4FE1147D8C31DA08327C4FE23AC28
:1051300007008327C4FE1147D8C311A88327C4FEE4
:1051400023AC07008327C4FE1147D8C30100010028
:10515000724405618280797122D60018232EA4FC46
:10516000232CB4FC232604FE0327C4FD832784FDDF
:10517000F98F89C785472326F4FE19A0232604FE4C
:105180008327C4FE3E85325445618280411106C6A4
:1051900022C4000885451165EF10A05381451165B3
:1051A000EF1020530100B2402244410182800111DE
:1051B00022CE00102326A4FE8327C4FE23A00700CE
:1051C0008327C4FE23A207008327C4FE23A407006D
:1051D0008327C4FE23A607008327C4FE23A8070055
:1051E0008327C4FE23AA07008327C4FE23AC07003D
:1051F0008327C4FE23AE07008327C4FE23A0070233
:105200008327C4FE23A207028327C4FE23A4070228
:105210008327C4FE23A607028327C4FE23A8070210
:105220008327C4FE23AA07028327C4FE23AC0702F8
:105230008327C4FE23AE07028327C4FE130700049E
:10524000B8C38327C4FE13070002F8C38327C4FE34
:1052500023A407048327C4FE23A607048327C4FED0
:1052600023A807048327C4FE23AA07048327C4FEB8
:1052700023AC07048327C4FE23AE07048327C4FEA0
:1052800023A007068327C4FE13070008F8D383274B
:10529000C4FE23A407068327C4FE23A6070683278C
:1052A000C4FE23A807068327C4FE23AA0706832774
:1052B000C4FE23AC07068327C4FE23AE070683275C
:1052C000C4FE3707000423A0E7088327C4FE37077E
:1052D000000223A2E7088327C4FE23A4070883272C
:1052E000C4FE3707200023A6E7088327C4FE23A8AF
:1052F00007088327C4FE23AA07088327C4FE23AC1C
:1053000007088327C4FE23AE07088327C4FE23A013
:10531000070A8327C4FE3707000223A2E70A832770
:10532000C4FE23A4070A8327C4FE3707020023A66E
:10533000E70A8327C4FE1307001023A8E70A832780
:10534000C4FE23AA070A8327C4FE23AC070A010070
:10535000724405618280411106C622C400080545D9
:105360006D2ACD260545F522054509210545A921CA
:105370000100B240224441018280797122D6001896
:10538000AA872E87231FF4FCBA87231EF4FC23264A
:1053900004FE232404FEB78702409C4B2326F4FE20
:1053A0008327C4FEF18B2326F4FE8357E4FD139775
:1053B000B700C167FD17F98F0327C4FED98F2326D5
:1053C000F4FE8357C4FD9A0793F7077C0327C4FEB6
:1053D000D98F2326F4FE8327C4FEF59B2326F4FEF3
:1053E0008327C4FE93E717002326F4FEB787024005
:1053F0000327C4FE98CB832784FE85072324F4FE6D
:10540000B78702409C4B2326F4FE8327C4FE858B7E
:1054100081CB032784FEB7075000F917E3FDE7FCB3
:10542000032784FEB7075000FD176314F700814778
:1054300031A0B7870240DC4BC207C1833E8532549E
:1054400045618280797122D60018AA87AE8632879C
:10545000231FF4FCB687231EF4FCBA87231DF4FC3B
:10546000232604FE232404FEB78702409C4B2326F8
:10547000F4FE8327C4FEF18B2326F4FE8357E4FD5C
:105480001397B700C167FD17F98F0327C4FED98FA3
:105490002326F4FE8357C4FD9A0793F7077C03275E
:1054A000C4FED98F2326F4FE8327C4FE93E727008A
:1054B0002326F4FE8327C4FE93E717002326F4FE79
:1054C000B78702400357A4FDD8CBB7870240032714
:1054D000C4FE98CB832784FE85072324F4FEB78778
:1054E00002409C4B2326F4FE8327C4FE858B81CB90
:1054F000032784FEB7070500F917E3FDE7FC032740
:1055000084FEB7070500F91763F4E700814711A08F
:1055100085473E85325445618280011122CE0010BC
:105520002326A4FE8327C4FE91CBB787024098436D
:10553000B78702401367870098C301A8B787024066
:105540009843B78702405D9B98C301007244056190
:105550008280011122CE00102326A4FE8327C4FEE0
:1055600091CBB78702409843B78702401367470043
:1055700098C301A8B78702409843B78702406D9B44
:1055800098C30100724405618280797122D60018A7
:10559000232EA4FC232CB4FC232AC4FC232604FEC3
:1055A0000327C4FD23ACE18A232604FE85A88327B4
:1055B000C4FE92070327C4FDBA972324F4FE832771
:1055C00084FE3707100098C30327C4FE9307005FCB
:1055D000B307F702032784FDBA973E87832784FE2B
:1055E00098C7832744FDFD170327C4FE637EF70099
:1055F0008327C4FE850792070327C4FDBA973E8719
:10560000832784FED8C731A00327C4FD832784FEE7
:10561000D8C78327C4FE85072326F4FE0327C4FECC
:10562000832744FDE365F7F8B78602400327C4FDEE
:105630008567B69798CB01003254456182807971B5
:1056400022D60018232EA4FC232CB4FC232AC4FC4D
:10565000232604FE0327C4FD23AEE18A232604FE8D
:10566000B5A88327C4FE92070327C4FDBA97232455
:10567000F4FE832784FE3707008098C3832784FEC7
:1056800011671307075FD8C30327C4FE9307005FA2
:10569000B307F702032784FDBA973E87832784FE6A
:1056A00098C7832744FDFD170327C4FE637EF700D8
:1056B0008327C4FE850792070327C4FDBA973E8758
:1056C000832784FED8C731A00327C4FD832784FE27
:1056D000D8C78327C4FE85072326F4FE0327C4FE0C
:1056E000832744FDE36FF7F6B78602400327C4FD26
:1056F0008567B697D8C70100325445618280411151
:1057000022C60008378702408567BA979C43B78650
:10571000024013E717008567B69798C3010032442B
:1057200041018280011122CE00102326A4FE37877A
:1057300002408567BA970327C4FED8CB01007244A4
:1057400005618280411122C60008378702408567C3
:10575000BA97984FB7860240B70710005D8F8567EC
:10576000B69798CF0100324441018280011122CEC8
:1057700000102326A4FE8327C4FE91CF3787024062
:105780008567BA97984FB786024089675D8F8567AE
:10579000B69798CF31A8378702408567BA97984F58
:1057A000B7860240F977FD177D8F8567B69798CF4A
:1057B0000100724405618280011122CE001023266F
:1057C000A4FE8327C4FE91CF378702408567BA972E
:1057D0009C4FB786024013E727008567B69798CF9E
:1057E00029A8378702408567BA979C4FB786024041
:1057F00013F7D7FF8567B69798CF0100724405610C
:105800008280011122CE00102326A4FE2324B4FEA0
:10581000832784FE99CF378702408567BA97D84F90
:10582000B78602408327C4FE5D8F8567B697D8CFC1
:1058300005A0378702408567BA97D84F8327C4FEF3
:1058400093C7F7FFB78602407D8F8567B697D8CF9D
:105850000100724405618280411122C6000883A7BD
:10586000818B9C473E85324441018280797122D6EA
:105870000018232EA4FC232604FE232404FEB707CD
:105880000140938707409C430327C4FDF98F2324DD
:10589000F4FEB707014093870740D84B8327C4FD28
:1058A000F98F81CB832784FE89C785472326F4FEA1
:1058B00019A0232604FE8327C4FE3E853254456189
:1058C0008280011122CE00102326A4FEB7070140DA
:1058D000938707400327C4FED8CB010072440561BB
:1058E0008280411122C60008B7270240370767456A
:1058F00013073712D8C3B72702403797EFCD1307E6
:10590000B79AD8C30100324441018280411122C6B6
:105910000008B7270240984BB727024013670708D3
:1059200098CB0100324441018280797106D622D49D
:105930000018232EA4FCAE87A30DF4FC9147232668
:10594000F4FE1565FD202326A4FE0327C4FE91471F
:105950006312F706B7270240370767451307371268
:1059600098C7B72702403797EFCD1307B79A98C764
:10597000B7270240984BB72702401367070198CB1F
:105980008327C4FD0347B4FD420741832390E7000A
:10599000156545202326A4FE0327C4FE9547630B07
:1059A000F700B7270240944BB727024009673D171D
:1059B000758F98CB8327C4FE3E85B2502254456133
:1059C0008280411122C60008B7270240DC4F89833C
:1059D0003E85324441018280011122CE0010914760
:1059E0002326F4FEB7270240DC4713F7170085474C
:1059F0006316F70085472326F4FE35A0B72702403B
:105A0000DC47918B89C789472326F4FE29A8B7274D
:105A10000240DC47C18B89C78D472326F4FE21A0B5
:105A200091472326F4FE8327C4FE3E857244056118
:105A30008280797106D622D40018232EA4FC9147C7
:105A40002326F4FEEFF05FF92326A4FE11A8EFF061
:105A5000BFF82326A4FE8327C4FDFD17232EF4FCE4
:105A60000327C4FE85476315F7008327C4FDE5F3CC
:105A70008327C4FD81E795472326F4FE8327C4FED0
:105A80003E85B250225445618280397122DE800009
:105A90002326A4FC2324B4FC232604FE232004FE96
:105AA000232404FE232E04FC232204FE232C04FCC6
:105AB000832784FC9C47BD8B2326F4FE832784FC2C
:105AC0009C47C18B89CB832784FCDC430327C4FE1E
:105AD000D98F2326F4FE832784FC83D7070093F70E
