:100000006F203031130000001300000013000000C7
:100010001300000013000000130000001300000094
:100020001300000013000000130000001300000084
:08003000130000007300100032
:1000380000000000000000000E2900001E2900003A
:1000480000000000582A0000000000000000000026
:100058005A2A00005C2A000000000000000000008E
:100068005E2A000000000000602A00000000000076
:10007800622A0000642A0000662A0000682A00003C
:100088006A2A00006C2A000082250000A6250000CC
:10009800CA250000EE25000012260000782A00007C
:1000A8007A2A00007C2A00007E2A0000802A0000AC
:1000B800822A0000842A0000862A0000882A00007C
:1000C8008A2A00008C2A00008E2A000036260000AA
:1000D800922A00003E270000962A0000982A000075
:1000E8006E2700009E270000CE270000A02A0000EF
:1000F800A22A0000A42A0000A62A0000A82A0000BC
:10010800AA2A00006A2300009E23000000240000A1
:10011800BE260000B42A0000B62A0000B82A000053
:1001280086280000BC2A0000BE2A0000C02A000061
:10013800C22A0000C42A0000FE270000C82A0000C6
:1001480034240000682400002E28000056280000EF
:10015800D22A0000D42A0000D62A0000D82A00009B
:10016800DA2A0000DC2A0000DE2A0000E02A00006B
:10017800E22A0000E42A0000E62A00004E3E0000C1
:10018800EA2A0000EC2A0000442500009824000018
:10019800CC24000018250000F62A0000B62800002C
:1001A800FA2A0000FC2A0000FE2A0000E6280000C7
:1001B800022B0000042B0000062B0000082B000077
:1001C8000A2B00000C2B00000E2B0000102B000047
:1001D8000000000000000000000000000000000017
:1001E8000000000000000000000000000000000007
:0801F8000000000000000000FF
:10020000737504308280B76200009382820873A005
:10021000023082803D432A876373C3029377F700DD
:10022000BDEFADE5937606FF3D8ABA960CC34CC38D
:100230000CC74CC74107E36BD7FE11E28280B306BF
:10024000C3408A069702000096966780A60023079F
:10025000B700A306B7002306B700A305B700230520
:10026000B700A304B7002304B700A303B700230318
:10027000B700A302B7002302B700A301B700230110
:10028000B700A300B7002300B700828093F5F50FF5
:1002900093968500D58D93960501D58D61B793967C
:1002A00027009702000096968682E78086FA96805D
:1002B000C1171D8F3E96E374C3F8A5B7011122CE76
:1002C00000102324A4FE2326B4FEB7F700E023A0E9
:1002D0000700B7F700E08146014794C7D8C7B7F7D2
:1002E00000E0054798C30100B7F700E003A8C70086
:1002F0009C470327C4FEC286636CD7000327C4FE55
:10030000C286E313D7FE032784FE6363F700E9BFC9
:100310000100724405618280797122D60018232E73
:10032000A4FC8327C4FD958393F7F70F9D8BA30748
:10033000F4FE8327C4FD93F7F70FBD8B2307F4FE6C
:100340000347F4FEA9670A0793870784BA979C437B
:10035000DC470347E4FE85463397E60042074183C6
:100360003A868346F4FE29678A0613070784369780
:100370001843B18F5CC701003254456182807971A6
:1003800006D622D40018232EA4FC232CB4FC232A46
:10039000C4FC2328D4FC8327C4FD958393F7F70F6F
:1003A0009D8BA307F4FE8327C4FD93F7F70FBD8B46
:1003B0002307F4FE0327C4FD9307F00F6305F7142A
:1003C0000327C4FD9307F00F6301F7148347F4FE7E
:1003D00091E785451145EF30600941A00347F4FEE0
:1003E00085476317F70085452145EF302008B5A004
:1003F0000347F4FE89476317F70085454145EF3011
:10040000E006A1A80347F4FE8D476318F700854571
:1004100013050002EF30800589A00347F4FE9147E1
:100420006318F700854513050004EF30200435A05C
:100430000347F4FE95476318F70085451305000848
:10044000EF30C00219A80347F4FE99476317F7007D
:10045000854513050010EF3060018347E4FE054732
:10046000B317F700C207C1832310F4FE032784FDEE
:1004700085476317F702832704FDC207C183A18361
:10048000C207C18389E78D472322F4FE11A8832781
:1004900004FDC207C183A183C207C1832322F4FEE6
:1004A000832704FDC207C18393F7F70F2324F4FECB
:1004B0000347F4FEA9670A0793870784BA979C430A
:1004C0003E87930704FEBE853A85EF20F01303278D
:1004D00084FD8547631CF7020347F4FEA9670A07FA
:1004E00093870784BA979C43BE868347E4FE0547FB
:1004F000B317F700C207C183032644FDBE853685C6
:10050000EF20303321A0010011A00100B25022548D
:1005100045618280011106CE22CC00102326A4FE64
:100520002324B4FE2322C4FE2320D4FE8327C4FE4A
:1005300081EB93068031054685451545893541A0F7
:100540000327C4FEC147631AF700930680310546AE
:1005500085451305300225359DA00327C4FE93076A
:100560000002631AF700930680310546854513059E
:10057000D0023135A9A00327C4FE93070003631AF4
:10058000F700930680310546854513053002C53BCB
:100590003DA00327C4FE93070004631AF7009306E7
:1005A0008031054685451305A004D13B09A81306F3
:1005B0009002A5679385476F0145EF10302A032706
:1005C00084FE89476319F700930680310546854507
:1005D0001D45753341A0032784FEC947631AF70000
:1005E000930680310546854513055002493B9DA081
:1005F000032784FE93072002631AF70093068031D5
:10060000054685451305F0029D3BA9A0032784FEFE
:1006100093072003631AF70093068031054685454A
:1006200013055002A93B3DA0032784FE9307200435
:10063000631AF70093068031054685451305C0040B
:100640003D3B09A813060003A5679385476F014545
:10065000EF10D020032744FE85476319F700930667
:100660004030054681451945193B59A8032744FEEA
:10067000C547631AF70093064030054681451305C8
:100680004002F539B5A8032744FE93071002631A08
:10069000F70093064030054681451305E002C53159
:1006A00085A0032744FE93071004631AF7009306FE
:1006B0004030054681451305B004D13191A0032790
:1006C00044FE93071003631AF70093064030054673
:1006D000814513054002653125A0032744FE930799
:1006E000F00F6317F7009307F00F2322F4FE09A819
:1006F00013068003A5679385476F0145EF10101619
:100700009306003101468545032504FE8D3901001D
:10071000F2406244056182805D7186C6A2C4800891
:100720002326A4FC2324B4FC2322C4FC2320D4FCD1
:10073000232EE4FA232CF4FA232A04FB231704FEC5
:10074000A9670327C4FC0A0793874785BA979C4388
:100750003E85EF20306385450545EF203051032766
:1007600004FCC1476311F7020327C4FBC947631C9C
:10077000F700032784FBC5476317F7008545054548
:10078000EF20B00E15A8032704FC9307000463159F
:10079000F7020327C4FB93072004631FF700032716
:1007A00084FB930710046319F7008545B7172000F1
:1007B00013850710EF20700B8327C4FC91E7854554
:1007C0000565EF20B04A25A00327C4FC85476317C1
:1007D000F70085451165EF20D04D11A80327C4FC13
:1007E00089476316F70085452165EF20904C8326E5
:1007F00044FB032684FB8325C4FB032504FC193B2F
:10080000231E04FC93074010231FF4FC231004FE56
:10081000032784FC85476305F702832784FC81CF87
:10082000032784FC89476303F702032784FC8D4771
:100830006304F7020DA8231104FE231204FE25A071
:10084000231104FE85472312F4FE31A889472311A2
:10085000F4FE231204FE01A889472311F4FE854704
:100860002312F4FE010003A74185832744FCB357FC
:10087000F7022317F4FE0357E4FE9307F00F63F724
:10088000E700930780032317F4FE61A80357E4FEF3
:100890009307F00763F7E700930700032317F4FEBD
:1008A00049A00357E4FE9307F00363F7E7009307BB
:1008B00080022317F4FEB5A00357E4FEFD4763F75B
:1008C000E700930700022317F4FEA1A80357E4FEF4
:1008D000BD4763F6E700E1472317F4FE99A00357ED
:1008E000E4FE9D4763F6E700C1472317F4FE15A811
:1008F0000357E4FE8D4763F6E700A1472317F4FE94
:100900000DA00357E4FE854763F5E700231704FEB7
:1009100009A81306D008A5679385476F0145EF1016
:10092000E0738357E4FE2314F4FE9307002023139F
:10093000F4FE231504FE9D472316F4FEA967032742
:10094000C4FC0A0793874785BA979C433E87930761
:10095000C4FDBE853A85EF20504AA9670327C4FC31
:100960000A0793874785BA979C4385453E85EF20C4
:1009700050580100B640264461618280011122CEA8
:1009800000102326A4FEAE87A305F4FEA967032763
:10099000C4FE0A0793874785BA979C433E878347DF
:1009A000B4FEC207C1832316F7000100A96703271D
:1009B000C4FE0A0793874785BA979C4383D787006D
:1009C000C207C18393F70708F5F30100724405617C
:1009D0008280011122CE00102326A4FEAE872315AB
:1009E000F4FE8357A4FEA183C207C18393F6F70FD9
:1009F000A9670327C4FE0A0793874785BA979C43D4
:100A00003E8793970601C1832316F7000100A9676B
:100A10000327C4FE0A0793874785BA979C4383D769
:100A20008700C207C18393F70708F5F38357A4FE35
:100A300093F6F70FA9670327C4FE0A079387478534
:100A4000BA979C433E8793970601C1832316F7000C
:100A50000100A9670327C4FE0A0793874785BA9751
:100A60009C4383D78700C207C18393F70708F5F338
:100A70000100724405618280011106CE22CC001073
:100A80002326A4FE2324B4FE8327C4FE99E7E1466F
:100A9000014685452545E530C9AA0327C4FE894797
:100AA000631AF700E1460146854513056002EFF041
:100AB0001F8D65AA0327C4FEC1476319F700E146ED
:100AC000014685450945EFF09F8B45A20327C4FEEB
:100AD000C947631AF700E1460146854513055006EC
:100AE000EFF0FF8959A20327C4FE93070002631A9F
:100AF000F700E146014685451305A002EFF03F8867
:100B0000ADA20327C4FE93072002631AF700E14653
:100B1000014685451305A004EFF07F86B9A203279F
:100B2000C4FE93074002631AF700E146014685457B
:100B300013058006EFF0BF840DAA0327C4FE9307B8
:100B40000004631AF700E146014685451305A00439
:100B5000EFF0FF8219AA0327C4FE93072004631A4B
:100B6000F700E1460146854513050002EFF03F819D
:100B7000EDA80327C4FE93070005631AF700E146BA
:100B8000014685451305C004EFF06FFFF9A8032760
:100B9000C4FE93072005631AF700E1460146854528
:100BA00013058008EFF0AFFDC9A00327C4FE93072B
:100BB0000006631AF700E146014685451305000467
:100BC000EFF0EFFB5DA00327C4FE93072006631A36
:100BD000F700E1460146854513050004EFF02FFAC2
:100BE00069A00327C4FE93070007631AF700E146D4
:100BF0000146854513052004EFF06FF8BDA00327DB
:100C0000C4FE930720076319F700E14601468545B6
:100C10001945EFF0CFF691A80327C4FE93074007CC
:100C2000631AF700E146014685451305C008EFF059
:100C30000FF525A80327C4FE93070008631AF700E1
:100C4000E1460146854513054004EFF04FF331A816
:100C50000327C4FE930720086319F700E146014605
:100C600085451305E008EFF08FF1032784FE8547E3
:100C7000631AF70093068004014681452945EFF089
:100C80000FF0D5AA032784FE8D47631BF700930658
:100C900080040146814513057002EFF04FEEE1AA92
:100CA000032784FEC547631AF700930680040146B4
:100CB00081450D45EFF0AFEC7DAA032784FECD47BB
:100CC000631BF70093068004014681451305600607
:100CD000EFF0EFEA4DA2032784FE93071002631B97
:100CE000F70093068004014681451305B002EFF03A
:100CF0000FE951A2032784FE93073002631BF7001C
:100D000093068004014681451305B004EFF02FE7F8
:100D10009DA2032784FE93075002631BF7009306EE
:100D200080040146814513059006EFF04FE5A1A22E
:100D3000032784FE93071004631BF70093068004C7
:100D4000014681451305B004EFF06FE32DA20327A0
:100D500084FE93073004631BF7009306800401466A
:100D6000814513051002EFF08FE131A2032784FEC5
:100D700093071005631BF700930680040146814525
:100D800013052006EFF0AFDFFDA0032784FE9307D5
:100D90003005631BF7009306800401468145130567
:100DA0009008EFF0CFDDC1A8032784FE930710065B
:100DB000631BF70093068004014681451305100468
:100DC000EFF0EFDB4DA8032784FE93073006631B8B
:100DD000F70093068004014681451305B008EFF043
:100DE0000FDA51A8032784FE93071007631BF7004F
:100DF000930680040146814513053004EFF02FD897
:100E00009DA8032784FE93073007631AF700930613
:100E10008004014681451D45EFF06FD6A9A8032740
:100E200084FE93075007631BF70093068004014676
:100E300081451305D008EFF08FD435A8032784FE31
:100E400093071008631BF700930680040146814551
:100E500013055004EFF0AFD239A8032784FE93079F
:100E60003008631AF7009306800401468145130594
:100E7000F008EFF0CFD00100F240624405618280BB
:100E8000011106CE22CC00102326A4FEAE87A305B6
:100E9000F4FEA9670327C4FE0A0793870786BA975B
:100EA0009C433E878347B4FE3E86930550523A8565
:100EB000EF20F03CB7E700E09386C1810327C4FE32
:100EC000369703470700BA97238007408347B4FE4D
:100ED00081CF1387C1818327C4FEBA9783C70700D8
:100EE0003E85EF10C03E19A81387C1818327C4FE39
:100EF000BA9783C707003E85EF10203F0100F240FC
:100F0000624405618280011122CE00102326A4FED6
:100F10002324B4FEA9670327C4FE0A079387078624
:100F2000BA979C4383D70700C207C18393F7070290
:100F30008DC7A9670327C4FE0A0793870786BA9758
:100F40009C4383D74700C207C18313F7F70F83275A
:100F500084FE2380E700854711A081473E857244C7
:100F600005618280797106D622D40018232EA4FC54
:100F7000232CB4FC232AC4FC2328D4FC8545054536
:100F8000EF20C04E832504FD032544FDF5340327DF
:100F900044FD8947631CF700032704FD8D47631751
:100FA000F70085451145EF20400C95A2032744FD2D
:100FB000C947631CF700032704FDCD476317F700FB
:100FC00085452145EF20600A99A2032744FD930738
:100FD00020026310F702032704FD93073002631A0F
:100FE000F7008545B707140013850701EF20E007D8
:100FF00039AA032744FD930740026310F702032731
:1010000004FD93075002631AF7008545B7071400E3
:1010100013850703EF206005DDA8032744FD930730
:101020002004631DF700032704FD930730046317B2
:10103000F70085450565EF204003D1A8032744FD4F
:10104000930720056310F702032704FD930730057B
:10105000631AF7008545B707200013851700EF20B6
:10106000C00075A0032744FD930720066310F70214
:10107000032704FD93073006631AF7008545B71769
:10108000008013850780EF10507E51A0032744FD98
:10109000930720076312F702032704FD9307300725
:1010A000631CF700B7070140D44FB707014037076B
:1010B0004000558FD8CFA1A8032744FD93074007D0
:1010C0006312F702032704FD93075007631CF70020
:1010D000B7070140D44FB707014037078000558F4D
:1010E000D8CF35A0032744FD930720086311F702EA
:1010F000032704FD93073008631BF700B70701407F
:10110000D44FB707014037070002558FD8CF832748
:10111000C4FD91E785451165EF20403569A8032797
:10112000C4FD85476318F700854537050200EF20A9
:10113000403851A00327C4FD89476318F70085454F
:1011400037050400EF20E036BDA00327C4FD8D471E
:101150006318F700854537050800EF208035A1A802
:101160000327C4FD91476318F70085453705100034
:10117000EF20203489A00327C4FD95476318F700AA
:10118000854513050004EF20C03235A00327C4FDB8
:1011900099476318F700854513050008EF20603173
:1011A00019A80327C4FD9D476317F700854513055C
:1011B0000010EF200030832784FD2320F4FE23124B
:1011C00004FE231304FE231404FE231604FEB14779
:1011D0002315F4FEA9670327C4FD0A079387078632
:1011E000BA979C433E87930704FEBE853A85EF205D
:1011F000C05FA9670327C4FD0A0793870786BA97CC
:101200009C4385453E85EF2090010100B250225459
:1012100045618280411106C622C40008938501837E
:101220001945D53105469385018313850189EF0062
:10123000D0730100B240224441018280411106C6B0
:1012400022C40008938511830545753905469385A9
:1012500011831385418AEF0050710100B24022448E
:1012600041018280411106C622C4000803A781847F
:101270008947630FF70003A781848D476314F70044
:10128000992039A003A7818491476313F70045286B
:101290000100B240224441018280411106C622C4AD
:1012A000000803A7818491476314F700DD2839A063
:1012B00003A781848D476313F70085280100B2409E
:1012C000224441018280411106C622C4000883C71E
:1012D00071833E8793874183BA97BE851145253137
:1012E000AA8781CB83C77183850713F7F70FA38B79
:1012F000E18203C771838547631AF70003C74183FF
:101300009307500A6304F700A38B018203C771831C
:101310008D476317F700A38B01820547238CE18279
:101320000100B240224441018280411122C60008DE
:1013300005472389E1820100324441018280411145
:1013400006C622C4000883C7F1833E879387C18302
:10135000BA97BE851145453EAA8781CB83C7F183E5
:10136000850713F7F70FA38FE18203C7F183854742
:10137000631AF70003C7C1839307500A6304F70099
:10138000A38F018203C7F1838D476317F700A38FF3
:10139000018205472380E1840100B24022444101DB
:1013A0008280411122C600080547A380E184010024
:1013B000324441018280011106CE22CC0010AA875E
:1013C000A307F4FEA96793870784DC433E878567FC
:1013D0001CCBA96793870784DC433E8785675CCB7A
:1013E000A96793870784DC473E87930700105CCB8F
:1013F0008347F4FEBE850545EFF04FD8A967938774
:101400000784DC433E8785671CCBA96793870784E5
:10141000DC473E87930700101CCBA967938707849E
:10142000DC433E8785675CCB0100F2406244056186
:101430008280011106CE22CC0010AA87368723179E
:10144000F4FEAE872316F4FEB2872315F4FEBA87A6
:101450002314F4FEB707002083C74722C207C183C5
:101460000357E4FEB337F70093F7F70F3E871306F1
:10147000F004A567938507753A85EF00303E83C772
:101480005180C207C1830357C4FEB337F70093F7F7
:10149000F70F3E8713060005A567938507753A8504
:1014A000EF00D03BB707002083C74722C207C183A4
:1014B0000357A4FEB337F70093F7F70F3E871306E1
:1014C0001005A567938507753A85EF00303983C706
:1014D0005180C207C183035784FEB337F70093F7E7
:1014E000F70F3E8713062005A567938507753A8594
:1014F000EF00D03683A7418491C703A74184854775
:101500006315F7081305A0027D3581450545EFF009
:10151000EFC68357E4FE93F7F70F890793F7F70FAA
:10152000BE850545EFF08FC581450545EFF00FC538
:101530008357A4FE93F7F70F890793F7F70FBE853C
:101540000545EFF0AFC31305B002B535814505453C
:10155000EFF0CFC28357C4FE93F7F70F850793F7D9
:10156000F70FBE850545EFF06FC181450545EFF0EA
:10157000EFC0835784FE93F7F70F850793F7F70FB4
:10158000BE850545EFF08FBF59A01305A002253594
:1015900081450545EFF08FBE8357E4FE93F7F70FC3
:1015A000850793F7F70FBE850545EFF02FBD814501
:1015B0000545EFF0AFBC8357A4FE93F7F70F8507FF
:1015C00093F7F70FBE850545EFF04FBB1305B0024B
:1015D000DD3381450545EFF06FBA8357C4FE93F7BD
:1015E000F70F890793F7F70FBE850545EFF00FB9A1
:1015F00081450545EFF08FB8835784FE93F7F70FC9
:10160000890793F7F70FBE850545EFF02FB7130550
:10161000C00255330100F240624405618280797155
:1016200006D622D40018AA87231FF4FCB70700208F
:1016300083C747223E8783C75180B307F70223261B
:10164000F4FEB707002083C74722C207C183FD17F6
:1016500013970701418383C75180C207C183FD17D8
:10166000C207C183BE863A8681450145D93321A888
:101670008357E4FDBE850545EFF0AFB58327C4FE73
:10168000FD172326F4FE8327C4FEFDF30100B250AC
:10169000225445618280011122CE00102326A4FE2F
:1016A0000327C4FE23A2E1840327C4FE854763ED1C
:1016B000E700B7070020130700F82382E72213078B
:1016C00000FAA382E18019A8B7070020130700FAE7
:1016D0002382E722130700F8A382E180010072440D
:1016E00005618280011122CE0010AA872E87231760
:1016F000F4FEBA872316F4FEB70700200357E4FE72
:101700002390E722B70700200357C4FE2391E72266
:101710000100724405618280797106D622D40018D6
:10172000AA87AE863287231FF4FCB687231EF4FCFB
:10173000BA87A30DF4FCB707002083C74722C2076E
:10174000C1830357E4FDB337F70093F7F70F3E87E4
:101750001306800FA567938507753A85EF00101073
:1017600083C75180C207C1830357C4FDB337F70055
:1017700093F7F70F3E871306900FA56793850775BC
:101780003A85EF00B00DA30704FE75A88347F4FE69
:101790001397070141838357C4FDBA9793950701B7
:1017A000C1818357E4FD9D0713960701418283475A
:1017B000F4FE1397070141838357C4FDBA9713972B
:1017C000070141838357E4FDBA863E859D31830737
:1017D000B4FD938607FE8347F4FE2967920613073C
:1017E00007883697BA9783C70700A306F4FE230736
:1017F00004FE81A08347D4FE858B91CBB7070020E0
:1018000083D70722BE850545EFF0AF9C09A8B7072F
:10181000002083D72722BE850545EFF08F9B8347A5
:10182000D4FE8583A306F4FE8347E4FE85072307E1
:10183000F4FE0347E4FE9D47E3FEE7FA8347F4FE28
:101840008507A307F4FE0347F4FEBD47E3F0E7F482
:101850000100B250225445618280011106CE22CC93
:101860004ACA4EC852C656C45AC25EC0001083A7A8
:10187000418513D627001308F00F9307F00F1307C5
:1018800020029306000281450545EFE0FFE8C146CE
:101890000146854513058006EFE07FAEC14601464F
:1018A00085451305A006EFE09FADC146014685457D
:1018B0001305C002EFE0BFACC146054685451305E0
:1018C000C006EFE0DFAB83A741843E85E933B7076D
:1018D000002003D70722B707002083D72722BE8521
:1018E0003A850935A96793870784DC473E879307C4
:1018F00000405CCB03A741858967938707F4335782
:10190000F702BA878A07BA9786073E8B814B5A85BA
:10191000DE85EFE0BF9AA96793870784DC473E879F
:10192000930700401CCB03A741858967938707F481
:101930003357F702BA879207998F8E073E8A814AFA
:101940005285D685EFE09F974545EFF0DFA603A7C8
:1019500041858967938707F43357F702BA8792075F
:10196000998F8E073E8981494A85CE85EFE01F9584
:101970001305100BEFF03FA485450545EFF00F80F0
:101980009305C0020545EFE07FFF9305D0020545B2
:10199000EFE0DFFE1305200BEFF0FFA185450545C5
:1019A000EFE0DFFD9305C0020545EFE03FFD930545
:1019B000D0020545EFE09FFC1305300BEFF0BF9F11
:1019C00085450545EFE09FFB9305C0020545EFE027
:1019D000FFFA9305D0020545EFE05FFA854505451E
:1019E000EFE0DFF99305C0020545EFE03FF993050D
:1019F000D0020545EFE09FF81305400BEFF0BF9BC9
:101A00009D450545EFE09FF71305000CEFF0BF9AE9
:101A10009305200A0545EFE07FF689450545EFE08F
:101A2000FFF5930540080545EFE05FF51305100C41
:101A3000EFF07F989305500C0545EFE03FF4130558
:101A4000200CEFF05F97A9450545EFE03FF3814596
:101A50000545EFE0BFF21305300CEFF0DF9593057D
:101A6000A0080545EFE09FF19305A0020545EFE0D2
:101A7000FFF01305400CEFF01F949305A0080545F7
:101A8000EFE0DFEF9305E00E0545EFE03FEF1305D4
:101A9000500CEFF05F92B9450545EFE03FEE1305BE
:101AA0006003EFF05F9183A7418405476380E702FD
:101AB00081CB09476381E7020D476384E70205A8EC
:101AC0009305000C0545EFE07FEB15A0814505452A
:101AD000EFE0DFEA29A89305000A0545EFE01FEAD9
:101AE00039A0930500060545EFE05FE90100130505
:101AF000000EEFF05F8CBD450545EFE03FE8E9459E
:101B00000545EFE0BFE7BD450545EFE03FE7E145AF
:101B10000545EFE0BFE69305F0020545EFE01FE65F
:101B2000930580020545EFE07FE59305000205453A
:101B3000EFE0DFE4930520020545EFE03FE4FD45DB
:101B40000545EFE0BFE3ED450545EFE03FE39305D5
:101B500030020545EFE09FE2930570030545EFE095
:101B6000FFE181450545EFE07FE19D450545EFE05B
:101B7000FFE089450545EFE07FE0C1450545EFE021
:101B8000FFDF1305100EEFF01F83BD450545EFE0A5
:101B9000FFDEED450545EFE07FDEBD450545EFE0A5
:101BA000FFDDDD450545EFE07FDD930530030545AD
:101BB000EFE0DFDC9305C0020545EFE03FDC930575
:101BC00090020545EFE09FDB9305E0020545EFE05D
:101BD000FFDA930500030545EFE05FDA93050003A4
:101BE0000545EFE0BFD9930590030545EFE01FD908
:101BF0009305F0030545EFE07FD881450545EFE00B
:101C0000FFD79D450545EFE07FD78D450545EFE0C2
:101C1000FFD6C1450545EFE07FD61305A002EFF0E2
:101C20008FF981450545EFE07FD589450545EFE012
:101C3000FFD481450545EFE07FD493052008054595
:101C4000EFE0DFD31305B002EFF0EFF68145054575
:101C5000EFE0DFD28D450545EFE05FD281450545D8
:101C6000EFE0DFD1930530080545EFE03FD11305E4
:101C7000000FEFF04FF485450545EFE03FD0130529
:101C8000600FEFF04FF381450545EFE03FCF1305BF
:101C9000A003EFF04FF295450545EFE03FCE130569
:101CA0009002EFF04FF1B707002083D727223E853F
:101CB000EFF0FF960100F24062445249C249324AB5
:101CC000A24A124B824B05618280411106C622C492
:101CD0000008938501850545EFF0EFA20546938541
:101CE00001851385818B51210100B24022444101BD
:101CF0008280411106C622C40008938511850545DE
:101D0000EFF06FA00546938511851385C18CB1292D
:101D10000100B240224441018280011106CE22CC52
:101D200000102326A4FE0327C4FE23AAE184112861
:101D30000325C4FE5120C12B0100F240624405611D
:101D40008280411122C60008B71702409843B71796
:101D500002401367170098C3B7170240D443B71760
:101D600002403707FFF8758FD8C3B7170240944376
:101D7000B71702403707F7FE7D17758F98C3B7175F
:101D800002409443B71702403707FCFF7D17758F59
:101D900098C3B7170240D443B7170240370781FFF3
:101DA0007D17758FD8C3B717024037079F0098C7B4
:101DB0000100324441018280797122D60018232E1D
:101DC000A4FC232604FE232404FEB71702409443F8
:101DD000B71702404167558F98C3B7170240984321
:101DE000B7070200F98F2324F4FE8327C4FE85077A
:101DF0002326F4FE832784FE99E70327C4FE930776
:101E00000050E31CF7FCB71702409843B7070200E5
:101E1000F98F89C785472324F4FE19A0232404FEE3
:101E2000032784FE85476315F71EB72702409843B2
:101E3000B72702401367070198C3B72702409843AA
:101E4000B7270240719B98C3B7270240944383276A
:101E5000C4FD1387F7FFB7376E0193870760B35749
:101E6000F70213F77700B7270240558F98C337174B
:101E70000240B71702405843D8C337170240B7177C
:101E800002405843D8C337170240B717024058439F
:101E9000D8C30327C4FDB7177A0093870720631BB5
:101EA000F702B7170240D843B7170240719BD8C357
:101EB000B7170240D843B717024013671700D8C3BB
:101EC0000100B7170240DC4313F7C7009147E31A3C
:101ED000F7FE81A2B7170240D443B7170240370775
:101EE000C1FF7D17758FD8C30327C4FDB747950879
:101EF00093870740631BF700B7170240D443B71717
:101F000002404167558FD8C355A80327C4FDB717B2
:101F10002707938707E0631CF700B7170240D443F5
:101F2000B717024037073900558FD8C341A8032798
:101F3000C4FDB7E7B80593870780631CF700B717A0
:101F40000240D443B717024037072900558FD8C342
:101F5000B5A00327C4FDB7A74A0493870720631CD5
:101F6000F700B7170240D443B717024037071D00E8
:101F7000558FD8C3A1A00327C4FDB777DC02938790
:101F800007C0631CF700B7170240D443B7170240DD
:101F900037071100558FD8C315A00327C4FDB737E5
:101FA0006E0193870760631BF700B7170240D443A5
:101FB000B717024037070500558FD8C3B71702403F
:101FC0009443B717024037070001558F98C30100AB
:101FD000B71702409843B7070002F98FF5DBB71730
:101FE0000240D843B7170240719BD8C3B7170240CD
:101FF000D843B717024013672700D8C30100B717AB
:102000000240DC4313F7C700A147E31AF7FE11A013
:1020100001A0325445618280411122C600080100AE
:102020000100324441018280411106C622C40008E9
:102030009306100213060002F167938507200945F5
:10204000EFE05FF285450945EFE09FE30547238C0C
:10205000E1840100B240224441018280011106CE98
:1020600022CC0010AA872324B4FE2322C4FEA30797
:10207000F4FE8347F4FE85E383C7818591CB032675
:1020800044FE832584FEA5671385477BEF506002DD
:102090004D2C5937FDBF0100F2406244056182803A
:1020A000797106D622D40018232EA4FC232CB4FC6C
:1020B000232AC4FC232604FEA9A00100A967938754
:1020C00007869C47930500043E85EF10702AAA8777
:1020D000F5D7A967938707869C47BE86832784FD2B
:1020E00013871700232CE4FC83870700C207C183F2
:1020F000BE853685EF10F0248327C4FE850723268E
:10210000F4FE0327C4FE832744FDE348F7FA832740
:1021100044FD3E85B250225445618280011122CE99
:1021200000102326A4FE2324B4FE8327C4FED84334
:10213000832784FE3E978327C4FED8C319A883272C
:10214000C4FED8438327C4FE9C4B1D8F8327C4FE47
:10215000D8C38327C4FE984B8327C4FEDC43E3F037
:10216000E7FE0100724405618280797106D622D4AF
:102170000018232EA4FC232CB4FC232AC4FC8327A0
:10218000C4FDDC47032744FD637BF70C5D2A8327EE
:10219000C4FD984B8327C4FDDC43B307F7402326D7
:1021A000F4FE032744FD8327C4FE63FBE706832771
:1021B000C4FD98438327C4FDDC43BA970326C4FEBD
:1021C000832584FD3E85EF4000448325C4FE03251E
:1021D000C4FDA937032784FD8327C4FEBA97232CA7
:1021E000F4FC8327C4FD98438327C4FDDC43B30676
:1021F000F700032744FD8327C4FEB307F7403E865C
:10220000832584FD3685EF400040032744FD832766
:10221000C4FEB307F740BE850325C4FD013725A0E2
:102220008327C4FD98438327C4FDDC43BA97032664
:1022300044FD832584FD3E85EF40E03C832544FD3D
:102240000325C4FDE13D8327C4FDD847832744FD12
:102250001D8F8327C4FDD8C77528814711A08947E2
:102260003E85B250225445618280011122CE001079
:102270002326A4FE8327C4FEFD8B0547B316F70073
:1022800037E700E08327C4FE9583938707048A0716
:10229000BA9794C30100724405618280011122CE75
:1022A00000102326A4FE8327C4FEFD8B0547B3162A
:1022B000F70037E700E08327C4FE9583938707067E
:1022C0008A07BA9794C301007244056182800111A4
:1022D00006CE22CC00102326A4FE0325C4FE7137AF
:1022E0000100F240624405618280011106CE22CCD9
:1022F00000102326A4FE0325C4FE4D370100F24042
:10230000624405618280411122C600080100324406
:1023100041018280411106C622C4000883A7C185FD
:1023200099C783A7C1851387F7FF23AEE18483A7ED
:10233000C18599E3EFD03FED0100B2402244410155
:102340008280411106C622C4000883A7C18599E393
:10235000EFD01FEB83A7C1851387170023AEE1845D
:102360000100B240224441018280411122C600088E
:1023700093055052B747014013850780EF10B00313
:10238000AA8789CB93055052B74701401385078030
:10239000EF109012010032444101730020304111CE
:1023A00022C6000893055052B747004013850740E6
:1023B000EF107000AA87A1C303A7C18485476315E6
:1023C000F700EFF01F9305A003A7C18489476315A9
:1023D000F700EFE0BFE601A803A7C1848D476314AF
:1023E000F700EFF09F8E93055052B74700401385DA
:1023F0000740EF10700C010032444101730020309F
:10240000411122C6000893055052B757004013856A
:102410000780EF10407AAA8789CB93055052B757AF
:10242000004013850780EF1030090100324441015C
:1024300073002030411122C6000893055052B7574F
:102440000040138507C0EF100077AA8789CB93055A
:102450005052B7570040138507C0EF10F005010038
:102460003244410173002030411122C60008930517
:10247000505237550040EF100074AA8789CBEFE027
:102480007FDE9305505237550040EF10F0020100F7
:102490003244410173002030411122C600089305E7
:1024A0005052B727004013850780EF10C070AA87ED
:1024B00089CB93055052B727004013850780EF1052
:1024C000A07F01003244410173002030411122C637
:1024D000000893055052B7270040138507C0EF103E
:1024E000806DAA878DC703A7C18485476309F7005C
:1024F00003A7C18489476314F700EFE0BFD19305B8
:102500005052B7270040138507C0EF10E07A010052
:102510003244410173002030411122C60008930566
:10252000505237250040EF100069AA8799C79305DC
:10253000505237250040EF1020780100324441010D
:1025400073002030411122C60008B707055083C729
:10255000070193F7F70F918B85C3EFE01FD4B707FF
:10256000055083C7070113F7F70FB70705506D9B99
:102570001377F70F2388E70001003244410173000D
:102580002030411122C600080545EF0090002A873F
:1025900085476315F7000545EF001005010032443B
:1025A000410173002030411122C600080945EF00A7
:1025B000407E2A8785476315F7000945EF00D00262
:1025C00001003244410173002030411122C600084D
:1025D0001145EF00007C2A8785476315F7001145F8
:1025E000EF0090000100324441017300203041119E
:1025F00022C600082145EF00C0792A878547631568
:10260000F7002145EF00407E010032444101730094
:102610002030411122C600084145EF0080772A870B
:1026200085476315F7004145EF00007C0100324407
:10263000410173002030411122C600081305000239
:10264000EF0020752A8785476316F70013050002FF
:10265000EF00807913050004EF00A0732A878547F7
:102660006316F70013050004EF0000781305000857
:10267000EF0020722A8785476316F70013050008CC
:10268000EF00807613050010EF00A0702A878547C1
:102690006316F70013050010EF0000751305002006
:1026A000EF00206F2A8785476316F7001305002087
:1026B000EF0080730100324441017300203041116A
:1026C00022C6000813050040E9252A8785476316BE
:1026D000F70013050040EF00207185671385078020
:1026E0004D2D2A8785476317F70085671385078077
:1026F000EF00806F0565712D2A8785476314F70009
:102700000565DD25096571252A8785476314F7006E
:102710000965D92D1165B52D2A8785476314F70002
:102720001165D9252165B5252A8785476314F700EA
:1027300021655D2D010032444101730020304111BB
:1027400022C600088545B7370140138507C0EF0052
:10275000F07FAA8781CB8545B7370140138507C035
:10276000EF10C005010032444101730020304111D7
:1027700022C60008854537050040EF00307DAA8756
:1027800091CB854537050040EF1040031305200825
:10279000EFD09FB801003244410173002030411155
:1027A00022C600088545B707004013850740EF00A3
:1027B000F079AA8781CB8545B7070040138507408C
:1027C000EF00D07F010032444101730020304111FD
:1027D00022C600088545B717004013850780EF0023
:1027E000F076AA8781CB8545B7170040138507800F
:1027F000EF00D07C010032444101730020304111D0
:1028000022C600088545B7170040138507C0EF00B2
:10281000F073AA8781CB8545B7170040138507C0A1
:10282000EF00D079010032444101730020304111A2
:1028300022C60008854537150040EF003071AA8791
:1028400091C7854537150040EF00507701003244AD
:10285000410173002030411122C600088545B71799
:10286000004013850740EF00706EAA8781CB854535
:10287000B717004013850740EF0050740100324441
:10288000410173002030411122C600088545B73749
:10289000014013850740EF00706BAA8781CB854507
:1028A000B737014013850740EF00507101003244F3
:1028B000410173002030411122C600088545B757F9
:1028C0000140138507C0EF007068AA8781CB85455A
:1028D000B7570140138507C0EF00506E0100324426
:1028E000410173002030411122C60008854537554B
:1028F0000140EF00B065AA8791C785453755014073
:10290000EF00D06B010032444101730020304111CF
:1029100022C60008010032444101730020304111F9
:1029200022C6000801A0411106C622C4000803A760
:1029300001869307300663D7E7002945EFD0DF9D76
:1029400023A0018683A701861387170023A0E186B1
:102950000100B240224441018280411106C622C4D6
:102960000008930680020146814513051008EFD048
:102970001FA1930680020146814513052008EFD070
:102980001FA093068002014681451305D006EFD0B3
:102990001F9F930680020146814513056006EFD014
:1029A0001F9E930680020146814513053008EFD033
:1029B0001F9D0100B240224441018280411106C6A0
:1029C00022C40008EFE07FE9C1460146854529455C
:1029D000EFD0FF9AC146014685451305F008EFD0B8
:1029E0001F9AA53F0100B24022444101828041115B
:1029F00006C622C44AC24EC00008EFF09F94B747F3
:102A0000950813850740EFF04FB1EFF0EFE17D3708
:102A1000EFF05F9013061004A9452945EFE0DFCFE2
:102A200013062004A9455145EFE01FCF03A74185B8
:102A30008967938707F43357F702BA878A07BA97EB
:102A400086073E8981494A85CE85EFD03F87EFF0E2
:102A50009FEDC9B701A001A001A001A001A001A0A4
:102A600001A001A001A001A001A001A001A001A05E
:102A700001A001A001A001A001A001A001A001A04E
:102A800001A001A001A001A001A001A001A001A03E
:102A900001A001A001A001A001A001A001A001A02E
:102AA00001A001A001A001A001A001A001A001A01E
:102AB00001A001A001A001A001A001A001A001A00E
:102AC00001A001A001A001A001A001A001A001A0FE
:102AD00001A001A001A001A001A001A001A001A0EE
:102AE00001A001A001A001A001A001A001A001A0DE
:102AF00001A001A001A001A001A001A001A001A0CE
:102B000001A001A001A001A001A001A001A001A0BD
:102B100001A07390123497E1FF1F9381A1F017D1A8
:102B200000201301214E178500001305659597D5E8
:102B3000FF1F9385254D1386018363FAC500832209
:102B4000050023A0550011059105E3EAC5FE138594
:102B500001839385418E6377B5002320050011051D
:102B6000E36DB5FEFD42739002BCFD42739042805E
:102B7000B78200009382828873A0023097D2FFFF51
:102B80009382C24B93E2320073905230EF004001C7
:102B9000970200009382E2E57390123473002030B4
:102BA000411106C622C40008B71702409843B71760
:102BB00002401367170098C3B7170240D443B717F2
:102BC00002403707FFF8758FD8C3B7170240944308
:102BD000B71702403707F7FE7D17758F98C3B717F1
:102BE00002409443B71702403707FCFF7D17758FEB
:102BF00098C3B7170240D443B7170240370781FF85
:102C00007D17758FD8C3B717024037079F0098C745
:102C100031200100B240224441018280411106C6A8
:102C200022C4000831200100B240224441018280C8
:102C3000011122CE0010232604FE232404FEB71720
:102C400002409443B71702404167558F98C3B717A6
:102C500002409843B7070200F98F2324F4FE83272C
:102C6000C4FE85072326F4FE832784FE99E7032705
:102C7000C4FE93070050E31CF7FCB71702409843CB
:102C8000B7070200F98F89C785472324F4FE19A0EE
:102C9000232404FE032784FE85476318F70EB72715
:102CA00002409843B72702401367070198C3B7272C
:102CB00002409843B7270240719B98C3B727024050
:102CC0009843B72702401367270098C3371702407D
:102CD000B71702405843D8C337170240B71702400E
:102CE0005843D8C337170240B71702405843D8C3D8
:102CF000B7170240D443B71702403707C1FF7D170B
:102D0000758FD8C3B7F7FF1F9387C7709843916734
:102D1000F98F99EBB7170240D443B7170240370732
:102D20003D00558FD8C309A8B7170240D443B71741
:102D300002404167558FD8C3B71702409443B71775
:102D4000024037070001558F98C30100B7170240B2
:102D50009843B7070002F98FF5DBB7170240D84355
:102D6000B7170240719BD8C3B7170240D843B717B3
:102D7000024013672700D8C30100B7170240DC43A5
:102D800013F7C700A147E31AF7FE0100724405617B
:102D90008280797122D60018232EA4FC232604FEFB
:102DA000232404FEB7070140938707409C43032771
:102DB000C4FDF98F2324F4FEB70701409387074031
:102DC000D84B8327C4FDF98F81CB832784FE89C725
:102DD00085472326F4FE19A0232604FE8327C4FE7C
:102DE0003E85325445618280011122CE0010232697
:102DF000A4FEB7070140938707400327C4FED8CB42
:102E00000100724405618280397122DE8000232630
:102E1000A4FC2324B4FC232604FE232004FE232444
:102E200004FE232E04FC232204FE232C04FC83270F
:102E300084FC9C47BD8B2326F4FE832784FC9C479F
:102E4000C18B89CB832784FCDC430327C4FED98F45
:102E50002326F4FE832784FC83D7070093F7F70F1C
:102E6000F1CF8327C4FC9C432322F4FE232404FED9
:102E700065A8832784FE0547B317F700232EF4FCCB
:102E8000832784FC83D707003E878327C4FDF98FFF
:102E90002320F4FE032704FE8327C4FD6311F708F3
:102EA000832784FE8A07232EF4FC8327C4FD3D4735
:102EB000B317F700232CF4FC832784FD93C7F7FF97
:102EC000032744FEF98F2322F4FE8327C4FD032742
:102ED000C4FEB317F700032744FED98F2322F4FE64
:102EE000832784FC984793078002631BF70083279E
:102EF00084FE05473317F7008327C4FCD8CB05A011
:102F0000832784FC984793078004631AF70083277C
:102F100084FE05473317F7008327C4FC98CB83272B
:102F200084FE85072324F4FE032784FE9D47E3F2F5
:102F3000E7F48327C4FC032744FE98C3832784FC5B
:102F400003D707009307F00F63F1E70E8327C4FC54
:102F5000DC432322F4FE232404FE75A8832784FE89
:102F6000A1070547B317F700232EF4FC832784FC41
:102F700083D707003E878327C4FDF98F2320F4FE03
:102F8000032704FE8327C4FD6312F708832784FE0A
:102F90008A07232EF4FC8327C4FD3D47B317F700AF
:102FA000232CF4FC832784FD93C7F7FF032744FEFB
:102FB000F98F2322F4FE8327C4FD0327C4FEB31731
:102FC000F700032744FED98F2322F4FE832784FCD5
:102FD000984793078002631BF700832784FEA107AD
:102FE00005473317F7008327C4FCD8CB832784FC1D
:102FF000984793078004631BF700832784FEA1078B
:1030000005473317F7008327C4FC98CB832784FE3A
:1030100085072324F4FE032784FE9D47E3F0E7F4AD
:103020008327C4FC032744FED8C3010072542161E6
:103030008280011122CE00102326A4FEAE87232217
:10304000C4FE2315F4FE832744FE99C70357A4FE4C
:103050008327C4FE98CB31A00357A4FE8327C4FE68
:10306000D8CB0100724405618280797122D60018A4
:10307000232EA4FC232CB4FC232404FE232204FED0
:10308000232604FE232004FE8327C4FD63D8070003
:10309000B7070140DC4F2326F4FE31A0B7070140FB
:1030A000DC432326F4FE8327C4FDC183BD8B23208C
:1030B000F4FE0327C4FDC167FD17F98F2324F4FE36
:1030C0000327C4FDB70730007D8FB70730006315B5
:1030D000F7020327C4FEB70700F1FD17F98F232677
:1030E000F4FEB7070140D443B7070140370700F1AA
:1030F0007D17758FD8C3ADA00327C4FDB707100097
:10310000F98F8DCB832704FE0D47B317F7002322D9
:10311000F4FE832744FE93C7F7FF0327C4FEF98F0D
:103120002326F4FE0327C4FEB707000FD98F2326FA
:10313000F4FE3DA08327C4FDD5839207032784FEB8
:10314000B317F70093C7F7FF0327C4FEF98F2326B1
:10315000F4FE0327C4FEB707000FD98F2326F4FE21
:10316000832784FD91CF8327C4FDD583920703274E
:1031700084FEB317F7000327C4FED98F2326F4FE7D
:103180008327C4FD63D80700B70701400327C4FEA7
:10319000D8CF31A0B70701400327C4FED8C3010030
:1031A000325445618280397122DE80002326A4FCDE
:1031B000232204FE232604FE232004FE232E04FCE7
:1031C000232404FEB7170240DC43B18B2322F4FE14
:1031D000032744FE91476303F702032744FEA147F8
:1031E0006306F702832744FE639907148327C4FC10
:1031F00037177A001307072098C389AA8327C4FCCE
:1032000037177A001307072098C389A2B71702401F
:10321000D843B7073C00F98F2326F4FEB7170240C6
:10322000D843C167F98F2320F4FE8327C4FEC983E6
:1032300089072326F4FEB7F7FF1F9387C7709843CB
:103240009167F98F91EB0327C4FEC5476319F70413
:10325000C9472326F4FEA1A00327C4FE89476315AE
:10326000F700C9472326F4FE0327C4FEBD476318B1
:10327000F700B5472326F4FE85472324F4FE0327F1
:10328000C4FEC1476315F700BD472326F4FE03279C
:10329000C4FEC5476315F700C1472326F4FE832704
:1032A00004FEA1E3B7470240938707809C43C18B8C
:1032B00089CF0327C4FEB7177A0093870720330707
:1032C000F7028327C4FC98C399A80327C4FEB71745
:1032D0003D00938707903307F7028327C4FC98C308
:1032E0003DA8B7170240D843B7070200F98F89CF2E
:1032F0000327C4FEB7173D00938707903307F702F3
:103300008327C4FC98C321A80327C4FEB7177A00FB
:10331000938707203307F7028327C4FC98C303274A
:1033200084FE85476313F7028327C4FC9C4313D7AD
:1033300017008327C4FC98C309A88327C4FC371748
:103340007A001307072098C311A00100B7170240A5
:10335000DC4393F7070F2322F4FE832744FE918377
:103360002322F4FEB707002013870700832744FEBB
:10337000BA9783C7070093F7F70F232EF4FC832730
:10338000C4FC98438327C4FD3357F7008327C4FC4C
:10339000D8C3B7170240DC4393F707702322F4FE2B
:1033A000832744FEA1832322F4FEB707002013875E
:1033B0000700832744FEBA9783C7070093F7F70FE8
:1033C000232EF4FC8327C4FCD8438327C4FD335742
:1033D000F7008327C4FC98C7B7170240D84391670A
:1033E00093870780F98F2322F4FE832744FEAD8361
:1033F0002322F4FEB707002013870700832744FE2B
:10340000BA9783C7070093F7F70F232EF4FC83279F
:10341000C4FCD8438327C4FD3357F7008327C4FC7B
:10342000D8C7B7170240D843B167F98F2322F4FEFB
:10343000832744FEB9832322F4FE138781808327E8
:1034400044FEBA9783C7070093F7F70F232EF4FCC7
:103450008327C4FCD8478327C4FD3357F70283274B
:10346000C4FC98CB0100725421618280011122CEEC
:1034700000102326A4FE2324B4FE832784FE99CBC8
:10348000B7170240944FB71702400327C4FE558F69
:1034900098CF21A8B7170240944F8327C4FE13C7C3
:1034A000F7FFB7170240758F98CF0100724405618E
:1034B0008280011122CE00102326A4FE2324B4FE14
:1034C000832784FE99CBB7170240D44FB717024029
:1034D0000327C4FE558FD8CF21A8B7170240D44F79
:1034E0008327C4FE13C7F7FFB7170240758FD8CFE5
:1034F0000100724405618280011122CE0010232652
:10350000A4FE2324B4FE832784FE99CBB717024080
:10351000D447B71702400327C4FE558FD8C721A848
:10352000B7170240D4478327C4FE13C7F7FFB71766
:103530000240758FD8C70100724405618280011175
:1035400022CE00102326A4FE2324B4FE832784FE6B
:1035500099CBB7170240944BB71702400327C4FE1C
:10356000558F98CB21A8B7170240944B8327C4FEF0
:1035700013C7F7FFB7170240758F98CB010072444D
:1035800005618280011106CE22CC00102326A4FE04
:103590000327C4FEB7370140631BF7008545056567
:1035A000EFF09FF581450565EFF01FF591A003272A
:1035B000C4FEB747004093870780631BF70085452B
:1035C0001165EFF0DFF781451165EFF05FF70DA0B2
:1035D0000327C4FEB7470040938707C0631AF7006C
:1035E00085452165EFF0BFF581452165EFF03FF599
:1035F0000100F240624405618280797122D6001890
:10360000232EA4FC232CB4FC231704FE8327C4FD23
:1036100083D707002317F4FE0357E4FE8D679387D3
:103620000704F98F2317F4FE832784FD03D70700CF
:10363000832784FD83D72700D98F13970701418300
:10364000832784FD83D74700D98F139707014183D0
:10365000832784FD83D76700D98F139707014183A0
:10366000832784FD83D78700D98F13970701418370
:10367000832784FD83D7A700D98F13970701418340
:10368000832784FD83D7C700D98F13970701418310
:10369000832784FD83D7E700D98F139707014183E0
:1036A0008357E4FED98F2317F4FE8327C4FD035705
:1036B000E4FE2390E7008327C4FD83D7C701139757
:1036C00007014183FD779387F77FF98F13970701F0
:1036D00041838327C4FD239EE700832784FD03D70E
:1036E00007018327C4FD2398E70001003254456198
:1036F0008280011122CE00102326A4FE2324B4FED2
:10370000832784FE8DC38327C4FE83D70700C207A7
:10371000C18393E707041397070141838327C4FEFE
:103720002390E70005A08327C4FE83D70700C207C4
:10373000C18393F7F7FB1397070141838327C4FEE7
:103740002390E7000100724405618280797122D6DE
:103750000018232EA4FCAE87231DF4FC232604FEB0
:10376000231504FE231404FE8327C4FD83D7070119
:103770001397070141838357A4FDF98F2315F4FEA6
:103780008327C4FD83D7C70013970701418383575D
:10379000A4FDF98F2314F4FE8357A4FE81CB835735
:1037A00084FE89C785472326F4FE19A0232604FE3C
:1037B0008327C4FE3E85325445618280011122CEAA
:1037C00000102326A4FEAE872315F4FE8357A4FE23
:1037D00093C7F7FF1397070141838327C4FE2398FC
:1037E000E70001007244056182805D7186C6A2C453
:1037F0008008232EA4FA232CB4FA232604FE2324C3
:1038000004FE232204FE232004FE232E04FC83272F
:10381000C4FB232EF4FC8327C4FB83D70701C20714
:10382000C1832326F4FE0327C4FEB567FD17F98F75
:103830002326F4FE832784FB83D767003E878327F4
:10384000C4FED98F2326F4FE8327C4FE13970701F5
:1038500041838327C4FB2398E7008327C4FB83D7D6
:10386000C700C207C1832326F4FE0327C4FEBD6739
:103870009387379FF98F2326F4FE832784FB03D792
:103880004700832784FB83D78700D98F13970701CD
:103890004183832784FB83D7A700D98FC207C183C5
:1038A0003E878327C4FED98F2326F4FE8327C4FED8
:1038B0001397070141838327C4FB2396E7008327DF
:1038C000C4FB83D74701C207C1832326F4FE032725
:1038D000C4FEC1679387F7CFF98F2326F4FE8327B1
:1038E00084FB83D7C7003E878327C4FED98F232656
:1038F000F4FE8327C4FE1397070141838327C4FB8B
:10390000239AE700930784FC3E85EFF0DF890327C5
:10391000C4FDB7470140938707806317F7008327EB
:1039200044FD2324F4FE29A0832704FD2324F4FE70
:103930008327C4FB83D7C700C207C183C207C187DF
:1039400063D20702032784FEBA878607BA978E07D9
:103950003E97832784FB9C438607B357F7022322B5
:10396000F4FE05A0032784FEBA878607BA978E0760
:103970003E97832784FB9C438A07B357F702232291
:10398000F4FE032744FE93074006B357F70292075D
:103990002326F4FE8327C4FE13D74700930740066F
:1039A000B307F702032744FEB307F7402320F4FED2
:1039B0008327C4FB83D7C700C207C183C207C1875F
:1039C00063D20702832704FE8E071387270393071A
:1039D0004006B357F7029D8B0327C4FED98F2326D9
:1039E000F4FE05A0832704FE92071387270393079D
:1039F0004006B357F702BD8B0327C4FED98F232699
:103A0000F4FE8327C4FE1397070141838327C4FB79
:103A10002394E7000100B6402644616182800111D1
:103A200022CE00102326A4FE2324B4FE832784FE86
:103A300095C38327C4FE83D7C7001397070141832B
:103A40008967D98F1397070141838327C4FE239683
:103A5000E70015A08327C4FE83D7C700139707018B
:103A60004183F977FD17F98F139707014183832766
:103A7000C4FE2396E70001007244056182807971DB
:103A800022D60018232EA4FCAE87232AC4FC231DB3
:103A9000F4FC232404FE232204FE232004FE232618
:103AA00004FE8327C4FD2326F4FE8357A4FD93F769
:103AB000F70F958393F7F70F2324F4FE8357A4FDA4
:103AC000FD8B2322F4FE832744FE0547B317F7003E
:103AD0002320F4FE032784FE85476318F70083271D
:103AE000C4FEB1072326F4FE0DA0032784FE8947F8
:103AF0006318F7008327C4FEC1072326F4FE31A014
:103B00008327C4FED1072326F4FE832744FD99CBE7
:103B10008327C4FE94438327C4FE032704FE558FE6
:103B200098C321A88327C4FE9443832704FE13C7A8
:103B3000F7FF8327C4FE758F98C301003254456197
:103B40008280011122CE00102326A4FEAE87231509
:103B5000F4FE8357A4FE93F7F71F139707014183E1
:103B60008327C4FE2392E70001007244056182802E
:103B7000797122D60018232EA4FCAE87231DF4FCF5
:103B8000232604FE8327C4FD83D70700139707016C
:103B900041838357A4FDF98FC207C18389C7854735
:103BA0002326F4FE19A0232604FE8327C4FE3E85A7
:103BB000325445618280797122D60018232EA4FCEC
:103BC000AE87231DF4FC232204FE232604FE2320BB
:103BD00004FE232404FE8357A4FD93F7F70F958377
:103BE00093F7F70F2320F4FE8357A4FDFD8B2326C4
:103BF000F4FE8327C4FE0547B317F7002326F4FE1F
:103C0000032704FE8547631FF7008327C4FD83D77E
:103C1000C700C207C1833E878327C4FEF98F2326CE
:103C2000F4FE3DA8032704FE8947631FF70083279E
:103C3000C4FD83D70701C207C1833E878327C4FE23
:103C4000F98F2326F4FE29A88327C4FD83D74701D3
:103C5000C207C1833E878327C4FEF98F2326F4FE63
:103C60008357A4FDA183C207C1832322F4FE8327C7
:103C700044FE0547B317F7002322F4FE8327C4FD53
:103C800083D70700C207C1833E87832744FEF98F8D
:103C90002322F4FE8327C4FE81CB832744FE89C7F9
:103CA00085472324F4FE19A0232404FE832784FEE1
:103CB0003E85325445618280797122D60018232EC8
:103CC000A4FCAE87231DF4FC231704FE231604FE78
:103CD0008357A4FDA1832317F4FE8357E4FE054711
:103CE000B317F7002316F4FE8357C4FE93C7F7FFFC
:103CF0001397070141838327C4FD2390E700010048
:103D0000325445618280011122CE0010AA87A30798
:103D1000F4FEB70700500347F4FE42074183239A9D
:103D2000E702B707005083C7670313F7F70FB7071A
:103D30000050719B1377F70F238BE7020100724449
:103D400005618280011122CE0010AA87A307F4FE2C
:103D5000B70700500347F4FE42074183239CE70264
:103D6000B707005083C7A70313F7F70FB707005033
:103D7000719B1377F70F238DE702010072440561F1
:103D80008280797106D622D40018AA87A30FF4FC8A
:103D9000A30704FE15A803A701878347F4FEBA977B
:103DA00003C7070083A601878347F4FE93870704B0
:103DB000B6971347F7FF1377F70F2380E700834782
:103DC000F4FE8507A307F4FE0347F4FE8347F4FDE2
:103DD000E363F7FC8347F4FD3E85EFF0DFF201007B
:103DE000B250225445618280797106D622D40018DF
:103DF000AA87A30FF4FCA30704FE15A803A7418715
:103E00008347F4FEBA9703C7070083A64187834719
:103E1000F4FE93870704B6971347F7FF1377F70F5E
:103E20002380E7008347F4FE8507A307F4FE0347DA
:103E3000F4FE8347F4FDE363F7FC8347F4FD3E851E
:103E4000EFF05FF00100B250225445618280011111
:103E500022CE0010230704FEB707005083C7670077
:103E6000A306F4FE8347D4FE898BE381073CB707A2
:103E7000005083C7770093F7F70F93F70703414785
:103E8000E38BE73841476346F700E38E07206F0076
:103E9000D03813070002E386E70413070003E39E0C
:103EA000E736B707005019472389E702B7070050E4
:103EB0001147A389E70283A7C18603C7670083C7A9
:103EC0007700A207D98F1397070141832391E188D7
:103ED00083A7C18603C717002380E18883A7C18613
:103EE00083C707002306F4FEA30704FE230704FE8E
:103EF00083A7C18683C7070093F70706638B071262
:103F000083C7018893F7F70F93F70702D5C383C7D9
:103F1000018893F7F70F13071002638BE70013076D
:103F200020026389E708130700026387E708ADA84A
:103F30001387018123ACE1869D47A307F4FE83D755
:103F400021881397070141839D4763E9E70083D7E1
:103F50002188C207C18393F7F70F11A0A147A307D8
:103F6000F4FE03A7C18683A781878346F4FE3686C5
:103F7000BE853A85EF20206983D7218813970701F2
:103F800041838347F4FEC207C183B307F740139709
:103F9000070141832391E18803A781878347F4FECA
:103FA0003E9723ACE18611A8FD572307F4FE31A00C
:103FB000010021A0010011A001000347E4FE9307C6
:103FC000F00F6303F7688347F4FE139707014183FB
:103FD00083D72188C207C1836379F7008347F4FE42
:103FE0001397070141832391E18883D7C1871397F2
:103FF000070141839D4763E9E70083D7C187C20773
:10400000C18393F7F70F11A0A147A307F4FE83A77D
:1040100081870347F4FE3A86BE8513854186EF20EB
:10402000805E03A781878347F4FE3E9723ACE18639
:1040300021AD83C7018893F7F70F2D47636BF75EB8
:1040400013972700A9679387C7F1BA979C43828784
:1040500083A7C18603C7270083C73700A207D98F6C
:10406000C207C183A183C207C1831307200263650E
:10407000F71213972700A9679387C7F4BA979C4351
:1040800082872967130707E723ACE186C947A3079F
:10409000F4FE39A22967130747E823ACE1869307AA
:1040A0003004A307F4FEEDA883A7C18603C7270049
:1040B00083C73700A207D98FC207C18393F7F70FD1
:1040C00005476386E70205476344F70089CB99A853
:1040D00009476387E7020D47638DE702A1A01387B5
:1040E000418223ACE1869147A307F4FE81A02967B2
:1040F0001307C7ED23ACE186B947A307F4FE3DA043
:1041000029671307C7EE23ACE186B147A307F4FE86
:1041100031A82967130787EF23ACE186D947A307A6
:10412000F4FE29A0FD572307F4FE010095A8296796
:10413000130787EC23ACE186D147A307F4FE8DA0DB
:104140002967130707F123ACE186A947A307F4FE0B
:1041500081A883C7C18093F7F70F9DE7130610046A
:10416000A967938567E8B707002013852701EF202B
:104170008049370700201307070123ACE186930726
:104180003004A307F4FE29A8FD572307F4FE09A86D
:10419000FD572307F4FE29A0FD572307F4FE010075
:1041A0008347F4FE13970701418383D72188C20711
:1041B000C1836379F7008347F4FE139707014183B6
:1041C0002391E18883D721881397070141839D4775
:1041D00063E9E70083D72188C207C18393F7F70F0C
:1041E00011A0A147A307F4FE03A7C18683A7818777
:1041F0008346F4FE3686BE853A85EF20C04003A78D
:1042000081878347F4FE3E9723ACE18635A983A7D7
:10421000C18603C7270083C73700A207D98FC2070B
:10422000C18393F7F70F1397070141832391E18827
:1042300021A983A7C18603C7F1871377F70F2380CE
:10424000E70083D72188139707014183854763F6E9
:10425000E73E05472391E188CDA683A7C18603C722
:10426000270083C73700A207D98FC207C18313F77E
:10427000F70FA38FE186C9AE83A7C18683C7070066
:1042800013F7F7018947631FF70C83A7C18603C79C
:10429000470083C75700A207D98FC207C18393F78E
:1042A000F70F09476388E70409476346F7000547A6
:1042B0006387E7085DA013071008638BE704130703
:1042C0002008639CE708B707005083C7A70393F74C
:1042D000F70FE207E187E19BE207E18793E7270019
:1042E000139787016187B70700501377F70F238D66
:1042F000E702ADA8B707005083C7B70313F7F70F5E
:10430000B7070050619B1377F70FA38DE702B9A899
:10431000B707005083C7670393F7F70FE207E187FA
:10432000E19BE207E18793E7270013978701618705
:10433000B70700501377F70F238BE70205A8B707DD
:10434000005083C7770313F7F70FB7070050619B3F
:104350001377F70FA38BE70211A8FD572307F4FE8D
:10436000010029A0FD572307F4FEF9ACF1AC9387B7
:10437000418683C70700FD8BA1E39387418603C76E
:10438000270083C73700A207D98F139707014183FE
:104390008547631FF7009307000A93F7070289C751
:1043A0000547238FE1864DA4FD572307F4FE69AC32
:1043B000FD572307F4FE49AC9387418683C7070066
:1043C00013F7F7018947631CF7109387418603C7EA
:1043D000270083C73700A207D98FC207C183E5EF43
:1043E0009387418603C7470083C75700A207D98F29
:1043F000C207C18393F7F70F09476387E7040947AB
:104400006346F7000547638DE708C9A01307100846
:104410006382E70613072008639AE70AB70700508C
:1044200083C7A70393F7F70F37070050F19B93F764
:10443000F70F230DF7023707005093E7370093F784
:10444000F70F230DF70245A0B707005083C7B70346
:1044500093F7F70F37070050F19B93F7F70FA30D72
:10446000F7023707005093E7370093F7F70FA30DD4
:10447000F70295A8B707005083C7670393F7F70FB4
:1044800037070050F19B93F7F70F230BF70237071D
:10449000005093E7370093F7F70F230BF702A1A023
:1044A000B707005083C7770393F7F70F370700501C
:1044B000F19B93F7F70FA30BF7023707005093E731
:1044C000370093F7F70FA30BF70231A8FD57230727
:1044D000F4FE010009A8FD572307F4FEB5A2FD571D
:1044E0002307F4FE95A28DA283A7C186238007002F
:1044F00083D72188139707014183854763F1E71428
:1045000005472391E18825AA2382018683D7C187A5
:10451000139707014183854763F5E7120547239EFB
:10452000E18605A22382018693874186A380070046
:104530009387418603C7470083C75700A207D98FD7
:10454000139707014183930710086311F702B70718
:10455000005083C7670393F7F70F13F737008D47B2
:10456000631DF70A05472382E18645A893874186A4
:1045700003C7470083C75700A207D98F13970701C6
:10458000418385476311F702B707005083C777035C
:1045900093F7F70F13F737008D476310F7080547B8
:1045A0002382E1869DA89387418603C7470083C77E
:1045B0005700A207D98F139707014183930720085B
:1045C0006311F702B707005083C7A70393F7F70FEC
:1045D00013F737008D476312F70405472382E186FE
:1045E0002DA89387418603C7470083C75700A207BA
:1045F000D98F13970701418389476310F702B707E3
:10460000005083C7B70393F7F70F13F737008D47B1
:104610006315F70005472382E18683D7C187139787
:1046200007014183894763F0E7020947239EE1863A
:1046300019A8FD572307F4FE01A8010031A00100CD
:1046400021A0010011A001000347E4FE9307F00F31
:10465000631DF700B70700501D472389E702B7071E
:1046600000501D47A389E70265AE8307C4FE63D5EA
:10467000070483D72188139707014183A14763E982
:10468000E70083D72188C207C18393F7F70F11A0F2
:10469000A147A307F4FE83D721881397070141831D
:1046A0008347F4FEC207C183B307F740139707019E
:1046B00041832391E18819A0A30704FEB7070050A6
:1046C0000347F4FE420741832398E702B7070050EF
:1046D00011472389E702B70700501147A389E70272
:1046E00081A6B707005083C7770093F7F70F93F7BA
:1046F000F703130710026385E71213072002638D87
:10470000E71413070002639EE71883C7018893F735
:10471000F70F15476380E70A19476394E70E83D7BD
:1047200021881397070141839D4763E9E70083D7F9
:104730002188C207C18393F7F70F11A0A147A307F0
:10474000F4FE03A7C18683A781878346F4FE3686DD
:10475000BE853A85EF10306B83D721881397070108
:1047600041838347F4FEC207C183B307F740139721
:10477000070141832391E18803A781878347F4FEE2
:104780003E9723ACE186B70700500347F4FE42078B
:1047900041832398E702B707005083C7270313F725
:1047A000F70FB7070050134747001377F70F238918
:1047B000E702B5A0B707005083C7370093F7F70F9C
:1047C000E207E18793F707F813978701618783D79B
:1047D0002188C207C183E207E187D98F1397870138
:1047E0006187B70700501377F70FA381E700B7077A
:1047F000005009472389E702B7070050A389070241
:1048000039A8B707005023980702B7070050094797
:104810002389E702B7070050A3890702010059A0C6
:10482000B707005083C7670313F7F70FB7070050A8
:10483000719B1377F70F238BE702B707005083C7ED
:10484000670313F7F70FB7070050134747001377B5
:10485000F70F238BE702B9A0B707005083C7A70360
:1048600013F7F70FB7070050134747001377F70FF9
:10487000238DE702B707005083C7A70393F7F70F0D
:10488000E207E187F19BE207E18793E727001397AF
:1048900087016187B70700501377F70F238DE70271
:1048A00011A00100B5AAB707005083C7770093F79E
:1048B000F70F93F7F70305476387E70C094763860C
:1048C000E710639E071483C7018893F7F70F3E87AD
:1048D000930700026313F70A83A7C18683C7070003
:1048E00085E383A7C18683C7170099EB83A7C18699
:1048F00083C7270091E783A7C18683C737009DCF71
:1049000083A7C18683C737001397870183A7C18612
:1049100083C72700C2075D8F83A7C18683C717009F
:10492000A207D98F03A7C18603470700D98FBE8589
:10493000A5671385C77FEF20C0773DA883A7C186F1
:1049400083C76700BE85A9671385C780EF2060769F
:1049500083A7C18683C74700BE85A9671385C78122
:10496000EF20207583A7C18683C75700BE85A9673E
:104970001385C782EF20E0730100B70700509C4702
:10498000A307F4FE41A8B707005083C7770093F749
:10499000F70F93F70704A5CFB707005083C7770336
:1049A00013F7F70FB7070050134747001377F70FB8
:1049B000A38BE702B70700509C47A307F4FE834789
:1049C000F4FE3E85EFF0EFBB99A0B707005083C718
:1049D000770093F7F70F93F7070485CFB7070050D9
:1049E00083C7B70313F7F70FB70700501347470004
:1049F0001377F70FA38DE702B70700509C47A30773
:104A0000F4FE8347F4FE3E85EFF00FBE19A00100CF
:104A100039A0010029A0010021A0010011A001007E
:104A2000B707005009472383E70079A08347D4FEE6
:104A3000858BB9CFB7070050A3810700B707005097
:104A4000A3890702B7070050A38B0702B7070050DE
:104A5000A38D0702B707005009472389E702B7076C
:104A600000500947238BE702B70700500947238D01
:104A7000E702B707005083C7670013F7F70FB707C0
:104A80000050136717001377F70F2383E7002DA05B
:104A90008347D4FE918B99CBB707005083C757004B
:104AA000B707005011472383E70039A0B70700502C
:104AB0000347D4FE2383E7000100724405617300BD
:104AC00020303708100001117D183377B80026CA4E
:104AD0003378D80093D4450113D34601131E370011
:104AE0004EC61357D5010E089357D60193F4F47FA1
:104AF0001373F37F06CE22CC4AC893D9F50193DE17
:104B0000F6013367C701131F350033E80701931F10
:104B10003600338E64406380D9196356C013630432
:104B2000031CB70680009307F07F3368D800638FBB
:104B3000F4369307800363C0C735FD4763CDC7478D
:104B4000130500023305C541B3D7CF01B316A80042
:104B50003399AF00DD8E33392001B357C80133E9F3
:104B600026011D8F33092F41B3372F013306F7403C
:104B70009317860063D40724370780007D173374AA
:104B8000E600630C042C2285EF109020130785FFAC
:104B900093070002998FB357F9003316E400D18FC1
:104BA0003319E9006341972A33059740130615002E
:104BB0007D47634DC73813070002118FB356C900F4
:104BC0003319E9003397E700558F333920013369F2
:104BD000270133D6C70081449377790081CF1377BB
:104BE000F90091476308F70013074900333927019B
:104BF0004A963A899317860063D6071C13851400DA
:104C00009307F07FCE856304F520B70780FFFD177B
:104C1000F18F9398D70113593900A607B3E82801FB
:104C2000B1831375F57F9396C7005205F240624435
:104C3000B182FE05C98ECD8ED2444249B249468525
:104C4000B68505618280631E0E0A138314001373F8
:104C5000E37F63170322B367E701B368F801639D3D
:104C6000041A63870740638608443309FF41B3078A
:104C7000074133362F013386C7409317860063D62A
:104C8000074C3389EF41B307E84033B62F01338631
:104C9000C740F68991B76350C00F6300030CB70695
:104CA00080009307F07F3368D800638AF43A930753
:104CB000800363CBC713FD4763DFC73513090EFEBF
:104CC00093070002B3562801630AFE00130900048B
:104CD0003309C94133192801B3EF2F013339F001EA
:104CE0003369D90031A2B367F801638A071C9307BF
:104CF000FEFF638C07389306F07F6309DE1A3E8E51
:104D00000DBDB305934063910422B367E701638748
:104D100007329387F5FF638107449306F07F638C26
:104D2000D520BE859307800363CCB72AFD4763CFA8
:104D3000B73C930700028D8F3319F700B356BF00BD
:104D4000B317FF003369D900B337F0003357B7000A
:104D50003369F9003308E84041ACB367F801638078
:104D600007349307FEFF638A07209306F07F6308EA
:104D7000DE2E3E8E2DBF631E0E149386140093F715
:104D8000E67F63910734B367E7016395042C638082
:104D9000073EB367F801638E07303309FF01B3079D
:104DA0000701333FE9013386E7019317860063D794
:104DB0000700B70780FFFD177D8E85449377790044
:104DC000E39F07E09317D60193583900B3E8F80042
:104DD000935736001307F07F638DE404B207B18365
:104DE00013F5F47FCE8581B53369F801333920019D
:104DF0007A99B337E9013386E70093178600E3DF3A
:104E000007FA85049307F07F6396F418CE8513059F
:104E1000F07F8147814801BDC1EB6384083A931656
:104E200036009317D8018D82B3E8D700F6899357DF
:104E30003800B3E7F800F9DB81451305F07FB707C9
:104E400008008148CDB3370680FF7D167D8E9377AD
:104E50007900998CE39507D8B5B74A85EF10407370
:104E600013078501FD47E3D5E7D2130685FFB31786
:104E7000C900014905BB3369F80133392001DDB1AF
:104E80003309FF413306074133342F013304864091
:104E90009317840063CD0724B3688900E39308CE99
:104EA0008147814981441DBFE39808F80E05931797
:104EB000D7010D81B3E8A700935737009DBF0E05BA
:104EC0009317D7010D81B3E8A700F28493573700F9
:104ED00011B73305934063820412B706800093072D
:104EE000F07F558F630DF32E9307800363CBA720CC
:104EF000FD4763C3A72A93070002898F3319F70080
:104F0000B356AF00B317FF003369D900B337F000D1
:104F10003357A7003369F9003A987E99B337F901FE
:104F2000338607019A84D1BDB70680009307F07FCE
:104F3000558FE319F3DE931736008D839318D8014C
:104F4000B3E81701F68993573800E5B5130715FE46
:104F50009306000233D7E700630AD60093060004E5
:104F60003386C6403396C7003369C9003339200100
:104F70003369E9000146814491B53309FF01B30764
:104F800007013336E9013E96931786008544E3D73F
:104F900007E28944B70780FFFD17F18F1357190007
:104FA00013791900336927019398F70133E9280130
:104FB00013D6170015B113090EFE93070002B3565E
:104FC0002801630AFE00130900043309C94133199B
:104FD0002801B3EF2F013339F0013369D90059B6F5
:104FE0003369E7013339200133892F41B3B72F01EA
:104FF0003306F8409A84F689A5BEB367E701638259
:1050000007189307F5FF6384071C9306F07F63047A
:10501000D5123E85D1BD93070002B387C741B316B1
:10502000F8003399FF0033D6CF01D18E33392001F8
:10503000B357C80133E926013E975DBB931736008D
:105040008D839318D801B3E81701AE8493573800C5
:10505000F68949B3EDC33369F801E31F09DC0E0596
:105060009317D7010D81B368F50093573700D1B37B
:105070006381080E931636009317D8018D82B3E82A
:10508000D700F6899357380091BB3309FF41B30726
:105090000741333F2F013386E7418544D1BC0E05DC
:1050A0009317D7010D81B368F500F2849357370049
:1050B00015B30E059317D7010D81B3E8A7009357D9
:1050C000370029BB9307F07FE382F6D43309FF0151
:1050D0003336E901B3070701B2979398F7011359E3
:1050E000190033E9280113D61700B684C1B93389F2
:1050F000EF413307E84033B62F013304C740F68948
:1051000049B43369E7013339200101BD938705FEB6
:1051100093060002B357F700638AD5009306000494
:10512000B385B6403317B700336FEF003339E00172
:105130003369F90055BD931736008D839318D80154
:10514000B3E8170193573800EDB1B368C900E3978E
:1051500008C68147814959B13389EF41B307E84017
:1051600033B62F013386C740F689854411B49316B0
:1051700036009317D8018D82B3E8D70093573800D3
:10518000B1B9931636009317D8018D82B3E8D700D2
:10519000AA84935738003DB9930705FE9306000291
:1051A000B357F700630AD500930600043385A64081
:1051B0003317A700336FEF003339E0013369F9008B
:1051C000A9BB81451305F07FB7070800A9BC3309C7
:1051D000FF01B30707013336F9013E9675B3931605
:1051E00036009317D8018D82B3E8D7009357380063
:1051F00089B1397193D7450122DC4AD856D22A8920
:105200001394C50006DE26DA4ED652D45AD05ECEAE
:1052100013F5F77F318093DAF501630B05109307DF
:10522000F07F630BF514135AD9010E0433648A001E
:10523000370A8000336A4401131B3900930415C0F8
:105240000144814B13D846011399C6001378F87FA7
:10525000B2881359C90093D9F601630E0808930761
:10526000F07F6300F8041357D6010E093369270154
:10527000130818C0B70780003367F9009318360089
:10528000B38404418145BD4733C83A0163E4871ABA
:1052900097570000938787D40A043E9410403E96A7
:1052A00002863367C9009384148063120710136465
:1052B000240081488945C1BF1306F07F814701471B
:1052C000B207F25062545206B1837E08D18FB3E721
:1052D0000701D2544259B259225A925A025BF24BF8
:1052E0003A85BE852161828001481306F07FB707A9
:1052F00008000147F1B73367C9004DC7630809309B
:105300004A8532C4EF10C0282246130755FFF547DF
:10531000930685FF998F3319D900B357F60033E709
:105320002701B318D60026959304353F8145A1BFC8
:10533000336A240163030A0636C632C46306042AAC
:105340002285EF10E0242246B246AA84130755FFB7
:10535000754A138B84FF330AEA4033146401335ACD
:105360004901336A8A00331B69011305D0C0B304B5
:1053700095400144814BF9B5336A240163180A0052
:105380002144014B9304F07F894B6DBD228A4A8BE7
:1053900031449304F07F8D4B75B51144014B81442A
:1053A000854B4DB51364140081488545E9BD1364F0
:1053B00034004A878D45C1BD630A052E8547898F14
:1053C0009306800363DDF632014681470147CDBD78
:1053D000CE868947638DF53A8D47E387F5F085479B
:1053E0003688E383F5FE1385F43FE357A0FC93F77B
:1053F00078006396072893D638009317770063D810
:105400000700B70700FFFD177D8F13850440930742
:10541000E07FE3C3A7EA1316D70193179700B18380
:105420003367D6001376F57F61BDD6865287DA885A
:10543000DE8545B763614723630DEA20DA86FD14F4
:105440005284014B9317870013D388013363F30011
:10545000935E0301B357D403131F0301135F0F01BE
:1054600093D50601139E88003374D4033307FF02DB
:105470004204C18D63FBE5009A951386F7FF63EE46
:10548000652663FCE526F9179A95998D33D7D503E0
:10549000C206C182B3F5D5033306EF02C205D58D2E
:1054A00063FBC5009A959306F7FF63E6652463F4F2
:1054B000C52479179A95C20741645D8F9307F4FF5D
:1054C0003375F70093580701935F0E01B377FE0021
:1054D000B302F502B386C540B383F80293D5020147
:1054E0003386AF021E962E963385F80363737600DB
:1054F0002295C168FD1893550601337616014206C0
:10550000B3F81201AA95469663E6B6126382B61204
:105510003306CB408D8E333BCB00338B66411385F6
:10552000F43F630C6317B358DB0393550601337BD9
:10553000DB03B3061F03420B33EB6501637BDB0028
:105540001A9B9385F8FF636D6B20637BDB20F91852
:105550001A9B330BDB40B356DB0342064182337B9D
:10556000DB03330FDF02420B33666601637BE60128
:105570001A969385F6FF6367661E6375E61FF91634
:105580001A96C208B3E8D8009395080193D208018F
:10559000C181B38EF5023306E641B385BF0293D6CF
:1055A0000E01B387F202BE95AE96B38F5F0263F42D
:1055B000F600C167BE9FC165FD1593D70601ED8E4C
:1055C000C206B3FEBE00BE9FF696637FF6091A962A
:1055D0009387F8FF6369661A6368F619630FF61B11
:1055E000BE8893E8180011B54A85EF00707A13075A
:1055F0005501F145930405022246B246E3DAE5D4AB
:10560000130485FF331A8900014B85B3328532C4F8
:10561000EF00107813075501F146AA8722461305BB
:105620000502E3D6E6CEE1173317F6008148E5B967
:10563000E370CBEE729B3335CB011A95AA96130516
:10564000F7FF6378D30263E6B6106382D5102A872A
:10565000C1B5E3651BDF93551B009316FA01135484
:105660001A00CD8E7E0BF9BBE31DF6F7E38F06D64D
:10567000B9BFE31ED3FCE378CBFD2A8751BD93F776
:10568000F8009146E389D7D693B7C8FF93864800C0
:1056900093C717008D823E978DB381468547E34CB3
:1056A000A0FEFD58E31C05D0930410C08547138568
:1056B000E441B316A70033D6F8003395A800D18E85
:1056C0003335A000C98E13F676003357F70001CEAC
:1056D00093F7F60011466388C70093874600B3B678
:1056E000D7003697BE869317870063D80704054610
:1056F00081470147F1B636877DBBB28779B3FD4656
:10570000E3D7F6FA0556098E930600023356C70012
:105710006388D7009387E443B317F700B3E8F80032
:10572000B3361001D18E13F67600814701CE93F780
:10573000F60011460147E392C7FA93179700131634
:10574000D701B18313D73600518F014695BEE37060
:10575000CBF0729B3335CB011A957917AA964DBBC6
:10576000AE88C5BBAE8631BD93171E0033BEC701E0
:1057700072931A96F9183E8EE315F6E7E307DEC634
:1057800093E818009DB1BE88E30AF6FF99BD3688FC
:105790001306F07F8147014725B6E367DEFCBE882C
:1057A000E310DEFE99B113D74501B7071000FD17CE
:1057B00013D846011377F77F9308F07F33FEB700C5
:1057C000AA8EF58FFD81328F1378F87FFD82630BEF
:1057D000170105436306180163140701630DFE00FA
:1057E0001A858280B368AE000543E39B08FEE31987
:1057F000E8FED18FF5F70543E394EEFF0143E38123
:10580000D5FE054371FF3365AE003333A000C9BF39
:1058100013D74501B7071000FD1713D846011377BA
:10582000F77F9308F07F33FEB700AA8EF58FFD81D6
:10583000328F1378F87FFD82630E1703630D180112
:1058400029E3B368AE00631F08005D8E01EE0143DB
:10585000638C080421A8B3E8C700094363960804D1
:105860006DD305A0638408046385D50205438DCDFF
:105870007D531DA8B368AE00094363970802630A0D
:10588000E802631408005D8E75D2E391D5FEE34F04
:10589000E8FC63490701E3EBC7FD630FFE0001432A
:1058A0006374FE00F1D505431A858280EDFE7D53B9
:1058B000E5BF5D8E79DACDBFE36ADFFB0143E3F537
:1058C000EEFFF5F175B739714AD813D945014ED6B7
:1058D00052D456D29399C50006DE22DC26DA5AD07D
:1058E0005ECE1379F97F2A8A93D9C90093DAF5013C
:1058F000630D090E9307F07F6306F9181354D50161
:105900008E09B36934013704800033E489009314AD
:105910003500130919C08149814B13D74601139AE9
:10592000C6001377F77FB285135ACA0013DBF6015E
:10593000630B07109307F07F6303F7049357D601B7
:105940000E0A33EA4701130717C0B7078000B36791
:10595000FA00931536003A99814833C76A01BD466B
:105960003A851308190063E8361717460000130636
:10597000E66A8A09B29983A60900B2968286B3675D
:10598000CA001309F97F6399071293E92900814539
:105990008948E1B701479307F07F37040800814445
:1059A0003204D20731807E075D8C598CA285F2507B
:1059B000625426854259D254B259225A925A025BF5
:1059C000F24B216182805A853E84AE84C68B894722
:1059D000638DFB0E8D47E38FFBFA85472A87639E15
:1059E000FB3881470144814465BF33E4A90061C0AD
:1059F00036C632C4638C092A4E85EF0070392246C0
:105A0000B246AA87130755FF7544938487FF198C04
:105A1000B399990033548A0033643401B3149A0063
:105A200013D746011309D0C0139AC6001377F77F26
:105A30003309F9408149814BB285135ACA0013DBFF
:105A4000F601E31907EEB367CA00B1C7630F0A2274
:105A5000528532C4EF00D03322462A87930655FF81
:105A6000F547930587FF958F331ABA00B357F600B1
:105A7000B3E74701B315B6003309E9401309D9C0AC
:105A80008148E1BD33E4A90001ECA1498144130937
:105A9000F07F894B59B593E919008145854875BD5B
:105AA0004E84AA84B1491309F07F8D4BBDB591494D
:105AB00081440149854B95B593E93900D2878D48DA
:105AC00069BD89475685E397FBF02A879307F07FE6
:105AD00001448144F1B5C16E1386FEFF93D60401E3
