:100000006F80001A130000001300000013000000AE
:100010001300000013000000130000001300000094
:100020001300000013000000130000001300000084
:08003000130000007300100032
:100038000000000000000000266600003666000090
:1000480000000000E6800000000000000000000042
:10005800E8800000EA8000000000000000000000C6
:10006800EC80000000000000EE80000000000000AE
:10007800F0800000F2800000F4800000F6800000AC
:10008800F8800000FA8000001E6200004262000052
:100098006A62000092620000C662000006810000E9
:1000A800088100000A8100000C8100000E81000018
:1000B80010810000128100001481000016810000E8
:1000C800CE6500001A8100001C810000EA62000071
:1000D800208100000A6400002481000026810000BD
:1000E8003A6400005A6400008A6400002E8100000F
:1000F8003081000032810000348100003681000028
:1001080038810000066000003A6000009C60000032
:1001180076630000428100004481000046810000AF
:10012800466500004A8100004C8100004E810000B5
:100138005081000052810000BA640000568100001E
:10014800D060000004610000EA6400001665000049
:100158006081000062810000648100006681000007
:1001680068810000F25F00006C8100006E81000071
:1001780070810000728100007481000006B50000E3
:10018800788100007A810000E0610000346100009D
:1001980068610000B4610000848100007665000099
:1001A800888100008A8100008C810000A66500001B
:1001B80090810000928100009481000096810000E7
:1001C800988100009A8100009C8100009E810000B7
:1001D8000000000000000000000000000000000017
:1001E8000000000000000000000000000000000007
:0801F8000000000000000000FF
:10020000737504308280B76200009382820873A005
:1002100002308280397101436EC619A03971415391
:100220006AC866CA62CC5ECE19A0397101535AD031
:1002300056D252D44ED64AD826DA22DC06DE330114
:100240006140828241114AC026C222C406C682820F
:10025000B24D4101024D924C224CB24B4101024B36
:10026000924A224AB2494101024992442244B24090
:10027000410182803D432A876373C3029377F7006D
:10028000BDEFADE5937606FF3D8ABA960CC34CC32D
:100290000CC74CC74107E36BD7FE11E28280B3065F
:1002A000C3408A069702000096966780A60023073F
:1002B000B700A306B7002306B700A305B7002305C0
:1002C000B700A304B7002304B700A303B7002303B8
:1002D000B700A302B7002302B700A301B7002301B0
:1002E000B700A300B7002300B700828093F5F50F95
:1002F00093968500D58D93960501D58D61B793961C
:1003000027009702000096968682E78086FA9680FC
:10031000C1171D8F3E96E374C3F8A5B73367B500C8
:10032000FD530D8B79E7B7877F7F9387F7F71041F0
:100330009441B372F6003363F600BE92B3E26200FA
:100340006397720C6318D6065041D441B372F6001D
:100350003363F600BE92B3E262006398720A631BD5
:10036000D60410459445B372F6003363F600BE928E
:10037000B3E262006391720A631ED6025045D4450F
:10038000B372F6003363F600BE92B3E26200639A82
:1003900072086311D60210499449B372F6003363B0
:1003A000F600BE92B3E26200639372085105D10574
:1003B000E30FD6F61317060193970601631CF700A7
:1003C0001357060193D706013305F7409375F50FD0
:1003D00091E982804183C1833305F7409375F50F1E
:1003E00091E182801377F70F93F7F70F3305F7400A
:1003F00082800346050083C6050005058505631355
:10040000D60065FA3305D640828011059105E312C6
:10041000D6FE014582802105A105E31CD6FC0145DD
:1004200082803105B105E316D6FC01458280410585
:10043000C105E310D6FC01458280011122CE0010D7
:100440002324A4FE2326B4FEB7F700E023A0070070
:10045000B7F700E08146014794C7D8C7B7F700E077
:10046000054798C30100B7F700E003A8C7009C4701
:100470000327C4FEC286636CD7000327C4FEC2866E
:10048000E313D7FE032784FE6363F700E9BF01008F
:10049000724405618280797122D60018232EA4FC53
:1004A0008327C4FD958393F7F70F9D8BA307F4FE75
:1004B0008327C4FD93F7F70FBD8B2307F4FE034793
:1004C000F4FEF5670A0793870753BA979C43DC4706
:1004D0000347E4FE85463397E600420741833A86A8
:1004E0008346F4FE75678A06130707533697184349
:1004F000B18F5CC70100325445618280797106D6A4
:1005000022D40018232EA4FC232CB4FC232AC4FCE0
:100510002328D4FC8327C4FD958393F7F70F9D8B85
:10052000A307F4FE8327C4FD93F7F70FBD8B2307C2
:10053000F4FE0327C4FD9307F00F6305F7140327A8
:10054000C4FD9307F00F6301F7148347F4FE91E7AE
:1005500085451145EFA0A01C41A00347F4FE854747
:100560006317F70085452145EFA0601BB5A0034741
:10057000F4FE89476317F70085454145EFA0201A2F
:10058000A1A80347F4FE8D476318F70085451305BE
:100590000002EFA0C01889A00347F4FE914763183A
:1005A000F700854513050004EFA0601735A0034749
:1005B000F4FE95476318F700854513050008EFA082
:1005C000001619A80347F4FE99476317F7008545FD
:1005D00013050010EFA0A0148347E4FE0547B317EE
:1005E000F700C207C1832310F4FE032784FD85476B
:1005F0006317F702832704FDC207C183A183C207E3
:10060000C18389E78D472322F4FE11A8832704FDC7
:10061000C207C183A183C207C1832322F4FE8327BB
:1006200004FDC207C18393F7F70F2324F4FE0347A9
:10063000F4FEF5670A0793870753BA979C433E87F2
:10064000930704FEBE853A85EF904066032784FD3C
:100650008547631CF7020347F4FEF5670A07938793
:100660000753BA979C43BE868347E4FE0547B317FA
:10067000F700C207C183032644FDBE853685EF908F
:10068000D00921A0010011A00100B25022544561FF
:1006900082801D7186CEA2CC80102326A4FA23244A
:1006A000B4FAF56703AE47051387470503234700F0
:1006B0001387470583288700138747050328C7004A
:1006C00013874705084B138747054C4B138747058E
:1006D000104F13874705544F1387470518539387C7
:1006E0004705DC532322C4FD232464FC232614FD88
:1006F000232804FD232AA4FC232CB4FC232EC4FCB1
:100700002320D4FE2322E4FE2324F4FE8545032582
:10071000C4FAB52DAA873E8713065002F567938564
:1007200087FF3A85EF202003832784FAB337F00050
:1007300093F7F70F3E8713066002F567938587FFEF
:100740003A85EF204001832784FABD832317F4FE06
:100750008357E4FE85073E87832784FAB3D7E702F1
:100760002316F4FE0325C4FABD2D8357C4FE231EB1
:10077000F4FA8357E4FE231CF4FA231F04FA231D22
:1007800004FA230004FCF5670327C4FA0A079387D9
:100790000755BA979C433E87930784FBBE853A85ED
:1007A000EFA0E041F5670327C4FA0A0793870755CE
:1007B000BA979C43054685453E85EFA0A05DF56749
:1007C0000327C4FA0A0793870755BA979C438545C0
:1007D0003E85EFA0206A8327C4FA93F7F70F8A07B4
:1007E000130704FFBA9783A747FD8D453E85EF2089
:1007F000E02E8327C4FA8A07130704FFBA9783A75A
:1008000047FD3E85EF20002AF5670327C4FA0A0753
:1008100093870755BA979C4385453E85EFA00052C4
:100820000100F640664425618280011106CE22CC8B
:1008300000102326A4FE2324B4FE2322C4FE23207A
:10084000D4FE8327C4FE81EB93068031054685459F
:1008500015456D3141A00327C4FEC147631AF70057
:1008600093068031054685451305300241399DA028
:100870000327C4FE93070002631AF7009306803132
:10088000054685451305D0029539A9A00327C4FE66
:1008900093070003631AF7009306803105468545E8
:1008A00013053002A1393DA00327C4FE93070004BD
:1008B000631AF70093068031054685451305A004A9
:1008C000353909A813069002F5679385C7070145D6
:1008D000EF107068032784FE89476319F7009306B9
:1008E0008031054685451D45113941A0032784FE09
:1008F000C947631AF70093068031054685451305FD
:100900005002ED3E9DA0032784FE93072002631A48
:10091000F70093068031054685451305F002F93E40
:10092000A9A0032784FE93072003631AF700930608
:1009300080310546854513055002C9363DA0032781
:1009400084FE93072004631AF7009306803105465E
:1009500085451305C0045D3609A813060003F56735
:100960009385C7070145EF10105F032744FE8547B5
:100970006319F70093064030054681451945BD3E91
:1009800059A8032744FEC547631AF7009306403071
:1009900005468145130540029536B5A8032744FE58
:1009A00093071002631AF70093064030054681450D
:1009B0001305E002A13685A0032744FE9307100427
:1009C000631AF70093064030054681451305B004CD
:1009D000353691A0032744FE93071003631AF700EE
:1009E000930640300546814513054002013E25A08F
:1009F000032744FE9307F00F6317F7009307F00FE8
:100A00002322F4FE09A813068003F5679385C70720
:100A10000145EF10505493060031014685450325EA
:100A200004FEE93C0100F2406244056182805D7190
:100A300086C6A2C480082326A4FC2324B4FC232257
:100A4000C4FC2320D4FC232EE4FA232CF4FA232A1A
:100A500004FB231704FEF5670327C4FC0A079387EA
:100A60004754BA979C433E85EF90F07885450545FD
:100A7000EF90F04A032704FCC1476311F7020327F4
:100A8000C4FBC947631CF700032784FBC5476317F2
:100A9000F70085450545EF90C04B15A8032704FCDA
:100AA000930700046315F7020327C4FB9307200490
:100AB000631FF700032784FB930710046319F700F3
:100AC0008545B717200013850710EF9080488327CE
:100AD000C4FC91E785450565EF90704425A0032788
:100AE000C4FC85476317F70085451165EF90904773
:100AF00011A80327C4FC89476316F70085452165C3
:100B0000EF905046832644FB032684FB8325C4FBD9
:100B1000032504FC193B231E04FC93074010231FEC
:100B2000F4FC231004FE032784FC85476305F702C9
:100B3000832784FC81CF032784FC89476303F70262
:100B4000032784FC8D476304F7020DA8231104FEDC
:100B5000231204FE25A0231104FE85472312F4FE70
:100B600031A889472311F4FE231204FE01A8894706
:100B70002311F4FE85472312F4FE010003A7C18B65
:100B8000832744FCB357F7022317F4FE0357E4FE10
:100B90009307F00F63F7E700930780032317F4FE32
:100BA00061A80357E4FE9307F00763F7E700930794
:100BB00000032317F4FE49A00357E4FE9307F00354
:100BC00063F7E700930780022317F4FEB5A00357ED
:100BD000E4FEFD4763F7E700930700022317F4FEE6
:100BE000A1A80357E4FEBD4763F6E700E1472317DA
:100BF000F4FE99A00357E4FE9D4763F6E700C14762
:100C00002317F4FE15A80357E4FE8D4763F6E700AB
:100C1000A1472317F4FE0DA00357E4FE854763F5B3
:100C2000E700231704FE09A81306D008F56793858B
:100C3000C7070145EF1030328357E4FE2314F4FE5A
:100C4000930700202313F4FE231504FE9D4723166B
:100C5000F4FEF5670327C4FC0A0793874754BA9745
:100C60009C433E879307C4FDBE853A85EF90106094
:100C7000F5670327C4FC0A0793874754BA979C4338
:100C800085453E85EF90106E0100B64026446161B7
:100C90008280011122CE00102326A4FEAE87A30578
:100CA000F4FEF5670327C4FE0A0793874754BA97F3
:100CB0009C433E878347B4FEC207C1832316F700D7
:100CC0000100F5670327C4FE0A0793874754BA97C4
:100CD0009C4383D78700C207C18393F70708F5F3C6
:100CE0000100724405618280011122CE001023268A
:100CF000A4FEAE872315F4FE8357A4FEA183C2078A
:100D0000C18393F6F70FF5670327C4FE0A0793879D
:100D10004754BA979C433E8793970601C183231695
:100D2000F7000100F5670327C4FE0A0793874754BD
:100D3000BA979C4383D78700C207C18393F70708FC
:100D4000F5F38357A4FE93F6F70FF5670327C4FE68
:100D50000A0793874754BA979C433E8793970601A7
:100D6000C1832316F7000100F5670327C4FE0A07B5
:100D700093874754BA979C4383D78700C207C183A0
:100D800093F70708F5F301007244056182800111B1
:100D900022CE00102326A4FE2324B4FE0327C4FE83
:100DA0000A079387419DBA979C4381EF0327C4FEAE
:100DB0000A079387419DBA97032784FE98C3854706
:100DC00039A80327C4FE0A079387419DBA979C431D
:100DD000032784FE6314F700854711A081473E85F1
:100DE000724405618280011106CE22CC00102326B8
:100DF000A4FE8327C4FE81EB8545856713850780A4
:100E0000EF90F0116DA80327C4FE85476317F70024
:100E100085450545EF9010155DA00327C4FE894761
:100E20006317F70085450945EF90D01349A80327BC
:100E3000C4FE8D476317F70085451145EF9090126A
:100E4000BDA80327C4FE91476317F70085452145D8
:100E5000EF905011ADA00327C4FE95476317F7002C
:100E600085454145EF90101099A80327C4FE994786
:100E70006318F700854513050002EF90B00E81A0BE
:100E80000327C4FE9D476317F70085450965EF906A
:100E9000100935A00327C4FEA1476318F700854554
:100EA00037050800EF90B00719A80327C4FEA5472F
:100EB0006317F700854537051000EF9050060100D5
:100EC000F240624405618280011106CE22CC0010FE
:100ED0002326A4FE2324B4FE8327C4FE81EBE1462F
:100EE000014685452545EFF06FE1C9AA0327C4FEF9
:100EF0008947631AF700E1460146854513056002FC
:100F0000EFF0CFDF65AA0327C4FEC1476319F700DE
:100F1000E146014685450945EFF04FDE45A203272E
:100F2000C4FEC947631AF700E1460146854513052B
:100F30005006EFF0AFDC59A20327C4FE930700026E
:100F4000631AF700E146014685451305A002EFF05C
:100F5000EFDAADA20327C4FE93072002631AF7005D
:100F6000E146014685451305A004EFF02FD9B9A24B
:100F70000327C4FE93074002631AF700E1460146C7
:100F8000854513058006EFF06FD70DAA0327C4FE31
:100F900093070004631AF700E146014685451305EF
:100FA000A004EFF0AFD519AA0327C4FE93072004CD
:100FB000631AF700E1460146854513050002EFF08C
:100FC000EFD3EDA80327C4FE93070005631AF700CB
:100FD000E146014685451305C004EFF02FD2F9A87C
:100FE0000327C4FE93072005631AF700E146014674
:100FF000854513058008EFF06FD0C9A00327C4FE14
:1010000093070006631AF700E1460146854513057C
:101010000004EFF0AFCE5DA00327C4FE93072006C7
:10102000631AF700E1460146854513050004EFF019
:10103000EFCC69A00327C4FE93070007631AF700EB
:10104000E1460146854513052004EFF02FCBBDA0F6
:101050000327C4FE930720076319F700E146014602
:1010600085451945EFF08FC991A80327C4FE930762
:101070004007631AF700E146014685451305C0089D
:10108000EFF0CFC725A80327C4FE93070008631A13
:10109000F700E1460146854513054004EFF00FC611
:1010A00031A80327C4FE930720086319F700E1461F
:1010B000014685451305E008EFF04FC4032784FE81
:1010C0008547631AF7009306800401468145294548
:1010D000EFF0CFC2D5AA032784FE8D47631BF7002C
:1010E000930680040146814513057002EFF00FC19D
:1010F000E1AA032784FEC547631AF700930680041C
:10110000014681450D45EFF06FBF7DAA032784FEA0
:10111000CD47631BF7009306800401468145130504
:101120006006EFF0AFBD4DA2032784FE93071002C7
:10113000631BF70093068004014681451305B00246
:10114000EFF0CFBB51A2032784FE93073002631B4D
:10115000F70093068004014681451305B004EFF0C3
:10116000EFB99DA2032784FE93075002631BF7008B
:10117000930680040146814513059006EFF00FB8F1
:10118000A1A2032784FE93071004631BF7009306B4
:101190008004014681451305B004EFF02FB62DA25F
:1011A000032784FE93073004631BF7009306800433
:1011B0000146814513051002EFF04FB431A2032719
:1011C00084FE93071005631BF70093068004014615
:1011D000814513052006EFF06FB2FDA0032784FEC2
:1011E00093073005631BF700930680040146814591
:1011F00013059008EFF08FB0C1A8032784FE930772
:101200001006631BF7009306800401468145130511
:101210001004EFF0AFAE4DA8032784FE930730060D
:10122000631BF70093068004014681451305B0084F
:10123000EFF0CFAC51A8032784FE93071007631B80
:10124000F700930680040146814513053004EFF052
:10125000EFAA9DA8032784FE93073007631AF700BF
:1012600093068004014681451D45EFF02FA9A9A8EA
:10127000032784FE93075007631BF700930680043F
:10128000014681451305D008EFF04FA735A8032785
:1012900084FE93071008631BF70093068004014641
:1012A000814513055004EFF06FA539A8032784FE8C
:1012B00093073008631AF7009306800401468145BE
:1012C0001305F008EFF08FA30100F24062440561BE
:1012D0008280011122CE00102326A4FEAE87A30532
:1012E000F4FE0100F5670327C4FE0A0793878757BA
:1012F000BA979C4383D70700C207C18393F70708B7
:10130000F5D3F5670327C4FE0A0793878757BA9773
:101310009C433E878347B4FEC207C1832312F70074
:101320000100724405618280011106CE22CC0010BA
:101330002326A4FE2324B4FE2322C4FE29A8832747
:1013400084FE138717002324E4FE83C70700BE85AD
:101350000325C4FEBD3F832744FE1387F7FF2322E6
:10136000E4FEF1FF0100F240624405618280011158
:1013700006CE22CC00102326A4FEAE87A305F4FEE1
:10138000F5670327C4FE0A0793878757BA979C43DC
:101390003E878347B4FE3E86930550523A85EF90D0
:1013A0009059B7E700E09386C1850327C4FE3697BE
:1013B00003470700BA97238007408347B4FE81CFD5
:1013C0001387C1858327C4FEBA9783C707003E856C
:1013D000EF10406D19A81387C1858327C4FEBA9703
:1013E00083C707003E85EF10A06D0100F240624404
:1013F00005618280011122CE00102326A4FE232441
:10140000B4FEF5670327C4FE0A0793878757BA9788
:101410009C4383D70700C207C18393F707028DC798
:10142000F5670327C4FE0A0793878757BA979C433B
:1014300083D74700C207C18313F7F70F832784FEC2
:101440002380E700854711A081473E8572440561EE
:101450008280797106D622D40018232EA4FC232C76
:10146000B4FC232AC4FC2328D4FC85450545EF9011
:10147000002B832504FD032544FDB934032744FDD7
:101480008947631CF700032704FD8D476317F700A6
:1014900085451145EF80F02B95A2032744FDC947F0
:1014A000631CF700032704FDCD476317F70085454C
:1014B0002145EF80102A99A2032744FD93072002BB
:1014C0006310F702032704FD93073002631AF70045
:1014D0008545B707140013850701EF80902739AAC7
:1014E000032744FD930740026310F702032704FD1E
:1014F00093075002631AF7008545B7071400138558
:101500000703EF801025DDA8032744FD930720047F
:10151000631DF700032704FD930730046317F700EA
:1015200085450565EF80F022D1A8032744FD930788
:1015300020056310F702032704FD93073005631AA3
:10154000F7008545B707200013851700EF8070204E
:1015500075A0032744FD930720066310F7020327B5
:1015600004FD93073006631AF7008545B71700801E
:1015700013850780EF80F01D51A0032744FD9307DA
:1015800020076312F702032704FD93073007631C4B
:10159000F700B7070140D44FB707014037074000B5
:1015A000558FD8CFA1A8032744FD930740076312A6
:1015B000F702032704FD93075007631CF700B707E2
:1015C0000140D44FB707014037078000558FD8CF6F
:1015D00035A0032744FD930720086311F702032772
:1015E00004FD93073008631BF700B7070140D44F91
:1015F000B707014037070002558FD8CF8327C4FDB6
:1016000091E785451165EF90801169A80327C4FD16
:1016100085476318F700854537050200EF90801471
:1016200051A00327C4FD89476318F7008545370596
:101630000400EF902013BDA00327C4FD8D4763185D
:10164000F700854537050800EF90C011A1A80327D2
:10165000C4FD91476318F700854537051000EF90EA
:10166000601089A00327C4FD95476318F7008545DE
:1016700013050004EF90000F35A00327C4FD994720
:101680006318F700854513050008EF90A00D19A811
:101690000327C4FD9D476317F70085451305001018
:1016A000EF90400C832784FD2320F4FE231204FED8
:1016B000231304FE231404FE231604FEB14723154E
:1016C000F4FEF5670327C4FD0A0793878757BA9787
:1016D0009C433E87930704FEBE853A85EF90607C6D
:1016E000F5670327C4FD0A0793878757BA979C437A
:1016F00085453E85EF90301E0100B2502254456171
:101700008280411106C622C400089385818919454B
:10171000D5310546938581891385C19FEF108014CB
:101720000100B240224441018280411106C622C418
:1017300000089385918905457539054693859189FA
:10174000138501A1EF1000120100B24022444101B3
:101750008280411106C622C4000803A7018B894775
:10176000630FF70003A7018B8D476314F7009920DF
:1017700039A003A7018B91476313F70045280100A7
:10178000B240224441018280411106C622C40008B1
:1017900003A7018B91476314F700DD2839A003A745
:1017A000018B8D476313F70085280100B240224466
:1017B00041018280411106C622C4000883C7F18915
:1017C0003E879387C189BA97BE8511452531AA877F
:1017D00081CB83C7F189850713F7F70FA38FE188C2
:1017E00003C7F1898547631AF70003C7C1899307C7
:1017F000500A6304F700A38F018803C7F1898D475E
:101800006317F700A38F018805472380E18A010051
:10181000B240224441018280411122C6000805479E
:10182000238DE1880100324441018280411106C6C6
:1018300022C4000883C7718A3E879387418ABA977A
:10184000BE851145453EAA8781CB83C7718A85072E
:1018500013F7F70FA383E18A03C7718A8547631AD9
:10186000F70003C7418A9307500A6304F700A38374
:10187000018A03C7718A8D476317F700A383018A22
:1018800005472384E18A0100B2402244410182805D
:10189000411122C600080547A384E18A01003244B1
:1018A00041018280011106CE22CC0010AA87A30735
:1018B000F4FEF56793870753DC433E8785671CCBAF
:1018C000F56793870753DC433E8785675CCBF567F5
:1018D00093870753DC473E87930700105CCB834711
:1018E000F4FEBE850545EFF0CFBAF5679387075341
:1018F000DC433E8785671CCBF56793870753DC473E
:101900003E87930700101CCBF56793870753DC4392
:101910003E8785675CCB0100F240624405618280AE
:10192000011106CE22CC0010AA8736872317F4FEB9
:10193000AE872316F4FEB2872315F4FEBA8723146C
:10194000F4FEB707002083C7472CC207C1830357A3
:10195000E4FEB337F70093F7F70F3E871306F00462
:10196000F5679385870D3A85EF00F05E83C7518058
:10197000C207C1830357C4FEB337F70093F7F70FCD
:101980003E8713060005F5679385870D3A85EF00BE
:10199000905CB707002083C7472CC207C183035759
:1019A000A4FEB337F70093F7F70F3E871306100531
:1019B000F5679385870D3A85EF00F05983C751800D
:1019C000C207C183035784FEB337F70093F7F70FBD
:1019D0003E8713062005F5679385870D3A85EF004E
:1019E000905783A7C18A91C703A7C18A854763150A
:1019F000F7081305A0027D3581450545EFF06FA975
:101A00008357E4FE93F7F70F890793F7F70FBE8527
:101A10000545EFF00FA881450545EFF08FA78357E7
:101A2000A4FE93F7F70F890793F7F70FBE850545D7
:101A3000EFF02FA61305B002B53581450545EFF04F
:101A40004FA58357C4FE93F7F70F850793F7F70F5A
:101A5000BE850545EFF0EFA381450545EFF06FA387
:101A6000835784FE93F7F70F850793F7F70FBE852B
:101A70000545EFF00FA259A01305A00225358145B9
:101A80000545EFF00FA18357E4FE93F7F70F8507A5
:101A900093F7F70FBE850545EFF0AF9F81450545EC
:101AA000EFF02F9F8357A4FE93F7F70F850793F767
:101AB000F70FBE850545EFF0CF9D1305B002DD336E
:101AC00081450545EFF0EF9C8357C4FE93F7F70F70
:101AD000890793F7F70FBE850545EFF08F9B81458A
:101AE0000545EFF00F9B835784FE93F7F70F8907A7
:101AF00093F7F70FBE850545EFF0AF991305C002C8
:101B000055330100F240624405618280797106D646
:101B100022D40018AA87231FF4FCB707002083C72C
:101B2000472C3E8783C75180B307F7022326F4FE74
:101B3000B707002083C7472CC207C183FD1713973F
:101B40000701418383C75180C207C183FD17C207C4
:101B5000C183BE863A8681450145D93321A8835782
:101B6000E4FDBE850545EFF02F988327C4FEFD17E1
:101B70002326F4FE8327C4FEFDF30100B250225455
:101B800045618280011122CE00102326A4FE032786
:101B9000C4FE23A6E18A0327C4FE854763EDE70060
:101BA000B7070020130700F82382E72C130700FA79
:101BB000A382E18019A8B7070020130700FA238247
:101BC000E72C130700F8A382E1800100724405614D
:101BD0008280011122CE0010AA872E872317F4FEDF
:101BE000BA872316F4FEB70700200357E4FE2390BC
:101BF000E72CB70700200357C4FE2391E72C010010
:101C0000724405618280797106D622D40018AA87B1
:101C1000AE863287231FF4FCB687231EF4FCBA87F6
:101C2000A30DF4FCB707002083C7472CC207C1836C
:101C30000357E4FDB337F70093F7F70F3E8713061A
:101C4000800FF5679385870D3A85EF00D03083C705
:101C50005180C207C1830357C4FDB337F70093F720
:101C6000F70F3E871306900FF5679385870D3A852A
:101C7000EF00702EA30704FE75A88347F4FE1397A8
:101C8000070141838357C4FDBA9793950701C1812A
:101C90008357E4FD9D071396070141828347F4FEB5
:101CA0001397070141838357C4FDBA971397070120
:101CB00041838357E4FDBA863E859D318307B4FD99
:101CC000938607FE8347F4FE7567920613078759CC
:101CD0003697BA9783C70700A306F4FE230704FECE
:101CE00081A08347D4FE858B91CBB707002083D793
:101CF000072CBE850545EFE03FFF09A8B707002088
:101D000083D7272CBE850545EFE01FFE8347D4FE11
:101D10008583A306F4FE8347E4FE85072307F4FECC
:101D20000347E4FE9D47E3FEE7FA8347F4FE850799
:101D3000A307F4FE0347F4FEBD47E3F0E7F4010018
:101D4000B250225445618280797106D622D400189F
:101D5000AA872E87232CC4FC231FF4FCBA87231EDA
:101D6000F4FCB707002083C7472CC207C183035781
:101D7000E4FDB337F70093F7F70F3E8713067011B2
:101D8000F5679385870D3A85EF00F01C83C7518076
:101D9000C207C1830357C4FDB337F70093F7F70FAA
:101DA0003E8713068011F5679385870D3A85EF000E
:101DB000901A231704FE3DA88357E4FE8E0713975D
:101DC000070141838357E4FDBA9793960701C182C7
:101DD0008357E4FE032784FDBA97038707008357E0
:101DE000C4FD3A86BE853685393D8357E4FE8507B6
:101DF0002317F4FE8357E4FE032784FDBA978387F5
:101E00000700DDFB0100B250225445618280397128
:101E100006DE22DC8000AA872324C4FC3687231731
:101E2000F4FCAE872316F4FCBA87A303F4FCB707CF
:101E3000002083C7472CC207C1830357E4FCB33794
:101E4000F70093F7F70F3E8713060015F5679385A4
:101E5000870D3A85EF00301083C75180C207C183D8
:101E60000357C4FCB337F70093F7F70F3E87130609
:101E70001015F5679385870D3A85EF00D00D8347E0
:101E800074FCB337F00093F7F70F3E871306201565
:101E9000F5679385870D3A85EF00F00B834774FC57
:101EA00093B7B70093F7F70F3E8713063015F56722
:101EB0009385870D3A85EF00100A832784FC23263B
:101EC000F4FE85472324F4FE9307C4FD3146814583
:101ED0003E85EFE02FBA034774FC9307C4FD3A86B2
:101EE000930500023E85EFE0EFB8034774FCA54779
:101EF00063EBE70231A8032784FEBA878A07BA9703
:101F000086072324F4FE834774FCFD17A303F4FC27
:101F1000834774FCEDF3832784FE0327C4FEB37765
:101F2000F7022326F4FE9307C4FD8325C4FE3E85F5
:101F3000EF0050239306C4FD0357C4FC8357E4FC11
:101F40003686BA853E8509350100F250625421611A
:101F50008280011106CE22CC4ACA4EC852C656C44F
:101F60005AC25EC0001083A7C18B13D62700130886
:101F7000F00F9307F00F130720029306000281452C
:101F80000545EFE0DFAAC1460146854513058006F9
:101F9000EFE0CFD6C146014685451305A006EFE028
:101FA000EFD5C146014685451305C002EFE00FD5C8
:101FB000C146054685451305C006EFE02FD483A72B
:101FC000C18A3E85EFF01FBCB707002003D7072C5E
:101FD000B707002083D7272CBE853A85DD3EF567FD
:101FE00093870753DC473E87930700405CCB03A7EA
:101FF000C18B8967938707F43357F702BA878A073B
:10200000BA9786073E8B814B5A85DE85EFE0EFC29B
:10201000F56793870753DC473E87930700401CCB47
:1020200003A7C18B8967938707F43357F702BA87F1
:102030009207998F8E073E8A814A5285D685EFE0B6
:10204000CFBF4545EFF01F8603A7C18B89679387F4
:1020500007F43357F702BA879207998F8E073E89A4
:1020600081494A85CE85EFE04FBD1305100BEFF097
:102070007F8385450545EFE0DFC19305C002054537
:10208000EFE03FC19305D0020545EFE09FC0130587
:10209000200BEFF03F8185450545EFE09FBF93059D
:1020A000C0020545EFE0FFBE9305D0020545EFE015
:1020B0005FBE1305300BEFF0EFFE85450545EFE001
:1020C0005FBD9305C0020545EFE0BFBC9305D0029C
:1020D0000545EFE01FBC85450545EFE09FBB930537
:1020E000C0020545EFE0FFBA9305D0020545EFE0D9
:1020F0005FBA1305400BEFF0EFFA9D450545EFE0A1
:102100005FB91305000CEFF0EFF99305200A0545C0
:10211000EFE03FB889450545EFE0BFB793054008BC
:102120000545EFE01FB71305100CEFF0AFF793056F
:10213000500C0545EFE0FFB51305200CEFF08FF6CE
:10214000A9450545EFE0FFB481450545EFE07FB4C3
:102150001305300CEFF00FF59305A0080545EFE0EF
:102160005FB39305A0020545EFE0BFB21305400C35
:10217000EFF04FF39305A0080545EFE09FB19305FD
:10218000E00E0545EFE0FFB01305500CEFF08FF1C6
:10219000B9450545EFE0FFAF13056003EFF08FF0A1
:1021A00083A7C18A05476380E70281CB0947638122
:1021B000E7020D476384E70205A89305000C054577
:1021C000EFE03FAD15A081450545EFE09FAC29A8A4
:1021D0009305000A0545EFE0DFAB39A09305000643
:1021E0000545EFE01FAB01001305000EEFF08FEB8C
:1021F000BD450545EFE0FFA9E9450545EFE07FA9AD
:10220000BD450545EFE0FFA8E1450545EFE07FA8A6
:102210009305F0020545EFE0DFA793058002054531
:10222000EFE03FA7930500020545EFE09FA6930569
:1022300020020545EFE0FFA5FD450545EFE07FA540
:10224000ED450545EFE0FFA4930530020545EFE0BD
:102250005FA4930570030545EFE0BFA381450545E5
:10226000EFE03FA39D450545EFE0BFA28945054549
:10227000EFE03FA2C1450545EFE0BFA11305100EF9
:10228000EFF04FE2BD450545EFE0BFA0ED45054548
:10229000EFE03FA0BD450545EFE0BF9FDD450545AB
:1022A000EFE03F9F930530030545EFE09F9E9305C8
:1022B000C0020545EFE0FF9D930590020545EFE064
:1022C0005F9D9305E0020545EFE0BF9C9305000389
:1022D0000545EFE01F9C930500030545EFE07F9B5C
:1022E000930590030545EFE0DF9A9305F00305455C
:1022F000EFE03F9A81450545EFE0BF999D450545D3
:10230000EFE03F998D450545EFE0BF98C145054594
:10231000EFE03F981305A002EFF0CFD881450545C7
:10232000EFE03F9789450545EFE0BF9681450545BC
:10233000EFE03F96930520080545EFE09F951305D4
:10234000B002EFF02FD681450545EFE09F948D4513
:102350000545EFE01F9481450545EFE09F93930508
:1023600030080545EFE0FF921305000FEFF08FD323
:1023700085450545EFE0FF911305600FEFF08FD223
:1023800081450545EFE0FF901305A003EFF08FD1E5
:1023900095450545EFE0FF8F13059002EFF08FD0D4
:1023A000B707002083D7272C3E85EFF02FF60100DA
:1023B000F24062445249C249324AA24A124B824B0D
:1023C00005618280411106C622C400089385818B75
:1023D0000545EFF02F8205469385818B138541A239
:1023E00051210100B240224441018280411106C6C0
:1023F00022C400089385918B0545EFE0BFFF054699
:102400009385918B138581A3B1290100B2402244A9
:1024100041018280011106CE22CC00102326A4FEA9
:102420000327C4FE23AEE18A11280325C4FE5120F0
:10243000D12D0100F240624405618280411122C623
:102440000008B71702409843B717024013671700F8
:1024500098C3B7170240D443B71702403707FFF8B5
:10246000758FD8C3B71702409443B7170240370798
:10247000F7FE7D17758F98C3B71702409443B717BF
:1024800002403707FCFF7D17758F98C3B7170240CE
:10249000D443B7170240370781FF7D17758FD8C324
:1024A000B717024037079F0098C701003244410127
:1024B0008280797122D60018232EA4FC232604FEE4
:1024C000232404FEB71702409443B7170240416724
:1024D000558F98C3B71702409843B7070200F98F8A
:1024E0002324F4FE8327C4FE85072326F4FE8327D6
:1024F00084FE99E70327C4FE93070050E31CF7FC12
:10250000B71702409843B7070200F98F89C785477C
:102510002324F4FE19A0232404FE032784FE854708
:102520006315F71EB72702409843B7270240136789
:10253000070198C3B72702409843B7270240719B11
:1025400098C3B727024094438327C4FD1387F7FF3E
:10255000B7376E0193870760B357F70213F7770019
:10256000B7270240558F98C337170240B71702406C
:102570005843D8C337170240B71702405843D8C34F
:1025800037170240B71702405843D8C30327C4FD8A
:10259000B7177A0093870720631BF702B71702402B
:1025A000D843B7170240719BD8C3B7170240D8432E
:1025B000B717024013671700D8C30100B7170240CE
:1025C000DC4313F7C7009147E31AF7FE81A2B71760
:1025D0000240D443B71702403707C1FF7D17758FFC
:1025E000D8C30327C4FDB747950893870740631BEB
:1025F000F700B7170240D443B71702404167558F21
:10260000D8C355A80327C4FDB7172707938707E04A
:10261000631CF700B7170240D443B71702403707CF
:102620003900558FD8C341A80327C4FDB7E7B805C3
:1026300093870780631CF700B7170240D443B7178E
:10264000024037072900558FD8C3B5A00327C4FD22
:10265000B7A74A0493870720631CF700B717024007
:10266000D443B717024037071D00558FD8C3A1A028
:102670000327C4FDB777DC02938707C0631CF7000C
:10268000B7170240D443B717024037071100558FE0
:10269000D8C315A00327C4FDB7376E019387076021
:1026A000631BF700B7170240D443B7170240370740
:1026B0000500558FD8C3B71702409443B71702409F
:1026C00037070001558F98C30100B71702409843A0
:1026D000B7070002F98FF5DBB7170240D843B717E9
:1026E0000240719BD8C3B7170240D843B7170240C6
:1026F00013672700D8C30100B7170240DC4313F764
:10270000C700A147E31AF7FE11A001A032544561AA
:102710008280411122C600080100010032444101BB
:102720008280411106C622C40008930610021306D7
:102730000002F167938507200945EFE09FD18545A9
:102740000945EFE0DFC205472380E18C0100B2407C
:10275000224441018280011106CE22CC0010AA87BA
:102760002324B4FE2322C4FEA307F4FE8347F4FE11
:1027700085E383C7018C91CB032644FE832584FE29
:10278000F5671385C713EF6021245D2E5937FDBF10
:102790000100F240624405618280797106D622D43C
:1027A0000018232EA4FC232CB4FC232AC4FC2326CB
:1027B00004FEA9A00100F567938787579C479305FE
:1027C00000043E85EF805026AA87F5D7F5679387EA
:1027D00087579C47BE86832784FD13871700232CC9
:1027E000E4FC83870700C207C183BE853685EF807E
:1027F000D0208327C4FE85072326F4FE0327C4FECA
:10280000832744FDE348F7FA832744FD3E85B25011
:10281000225445618280011122CE00102326A4FE9D
:102820002324B4FE8327C4FED843832784FE3E9727
:102830008327C4FED8C319A88327C4FED84383279F
:10284000C4FE9C4B1D8F8327C4FED8C38327C4FEC0
:10285000984B8327C4FEDC43E3F0E7FE010072449B
:1028600005618280797106D622D40018232EA4FC3B
:10287000232CB4FC232AC4FC8327C4FDDC47032794
:1028800044FD637BF70C6D2C8327C4FD984B832795
:10289000C4FDDC43B307F7402326F4FE032744FDC1
:1028A0008327C4FE63FBE7068327C4FD9843832781
:1028B000C4FDDC43BA970326C4FE832584FD3E8510
:1028C000EF50C1658325C4FE0325C4FDA937032746
:1028D00084FD8327C4FEBA97232CF4FC8327C4FD10
:1028E00098438327C4FDDC43B306F700032744FD68
:1028F0008327C4FEB307F7403E86832584FD3685D3
:10290000EF50C161032744FD8327C4FEB307F7409E
:10291000BE850325C4FD013725A08327C4FD984348
:102920008327C4FDDC43BA97032644FD832584FD39
:102930003E85EF50A15E832544FD0325C4FDE13DA6
:102940008327C4FDD847832744FD1D8F8327C4FDFB
:10295000D8C7C122814711A089473E85B250225471
:1029600045618280397122DE80002326A4FC232465
:10297000B4FCA30704FE832784FCB1E38327C4FCD3
:10298000130700032380E70061A0032784FCA94705
:10299000B376F7028347F4FE13871700A307E4FE1C
:1029A000139786016187930604FFB6972386E7FE97
:1029B000032784FCA947B357F7022324F4FC832799
:1029C00084FCE1F799A08347F4FEFD17130704FF89
:1029D000BA978387C7FE13D7F741B98F998F93F7BB
:1029E000F70F9387070393F6F70F8327C4FC13872A
:1029F00017002326E4FC1397860161872380E700F4
:102A00008347F4FEFD17A307F4FE8347F4FEC5FFDA
:102A1000725421618280011122CE00102326A4FE6F
:102A20008327C4FEFD8B0547B316F70037E700E0A8
:102A30008327C4FE9583938707048A07BA9794C3B4
:102A40000100724405618280011122CE001023260C
:102A5000A4FE8327C4FEFD8B0547B316F70037E7B6
:102A600000E08327C4FE9583938707068A07BA97F9
:102A700094C30100724405618280011122CE0010CE
:102A80002326A4FEAE87A305F4FE37E700E08327E4
:102A9000C4FEBA970347B4FE2380E74001007244A6
:102AA00005618280011106CE22CC00102326A4FEEF
:102AB0000325C4FE8D370100F24062440561828027
:102AC000011106CE22CC00102326A4FE0325C4FE4D
:102AD000A53F0100F240624405618280011106CEEB
:102AE00022CC00102326A4FEAE87A305F4FE834764
:102AF000B4FEBE850325C4FE49370100F24062449E
:102B000005618280411122C6000801003244410162
:102B10008280411106C622C4000883A7418C99C750
:102B200083A7418C1387F7FF23A2E18C83A7418CF5
:102B300099E3EFD04FED0100B24022444101828081
:102B4000411106C622C4000883A7418C99E3EFD047
:102B50002FEB83A7418C1387170023A2E18C010080
:102B6000B240224441018280011122CE001023266E
:102B7000A4FE8327C4FEFD8B0547B316F70037E795
:102B800000E08327C4FE9583938707048A07BA97DA
:102B900094C30100724405618280011122CE0010AD
:102BA0002326A4FEAE87A305F4FE37E700E08327C3
:102BB000C4FEBA970347B4FE2380E7400100724485
:102BC00005618280011106CE22CC0010232204FE72
:102BD000232404FE232604FE854513050004EF701C
:102BE00010348967938707802312F4FEC147232698
:102BF000F4FE8D472324F4FE930744FEBE85B727D9
:102C0000014013850780EF70600A054501280545DE
:102C100081280100F240624405618280011106CEE4
:102C200022CC0010AA87A307F4FE8347F4FE99CBB9
:102C3000856793850780B727014013850780EF706C
:102C4000802911A8856793850780B72701401385E0
:102C50000780EF70602A0100F240624405618280C3
:102C6000011106CE22CC0010AA87A307F4FE8347E9
:102C7000F4FE89CB8565B727014013850780EF7087
:102C8000802501A88565B727014013850780EF706F
:102C9000A0260100F240624405618280011106CE47
:102CA00022CC0010AA87A307F4FE8347F4FE91CB41
:102CB0008347F4FEBE85F56713854718EF50D15062
:102CC00011A00100F240624405618280397106DE84
:102CD00022DC80002326A4FC2324B4FC2322C4FC91
:102CE0002320D4FC9307005F232CF4FC93070032CD
:102CF000232EF4FC85679387871F2320F4FEA947C2
:102D00002322F4FE9307B0022324F4FE930784FDEC
:102D10003E85EF90504E832604FC032644FC832519
:102D200084FC0325C4FCEF90D03DAA87A307F4FEE2
:102D30008347F4FE3E85F250625421618280011186
:102D400006CE22CC4ACA4EC852C656C4001001450F
:102D5000EF7010424145EF7010393565EF70F03C6F
:102D60002D45EF70502D0545EF70904003A7C18BA6
:102D70008967938707F43357F70293074006B30731
:102D8000F7023E8A814A5285D685EFD00FEB15A017
:102D900003A7C18B8967938707F43357F70293071B
:102DA000401FB307F7023E8981494A85CE85EFD09F
:102DB000CFE81305D003EF70302AAA87F1DB8545F1
:102DC0000545EF7070110100F24062445249C2495A
:102DD000324AA24A05618280011106CE22CC00103F
:102DE000232204FE232404FE231604FE8545054504
:102DF000EF7050179307700C2314F4FE89679387C4
:102E0000F7C12312F4FE231504FE231304FE9307D7
:102E100044FEBE8537050040EF70705A0546854573
:102E200037050040EF701077854537050040EF709B
:102E3000F070854537050040EF80C003930500081A
:102E40001305C002EFF07FD51305C002EFF0DFD10C
:102E50000100F2406244056182805D7186C6A2C4B1
:102E60008008930704FB1306C00381453E85EFD01D
:102E70006FC083A74181232EF4FC83D78181232A4D
:102E8000F4FC83D7A1811387170093160701C18231
:102E9000239DD180232CF4FC8D472326F4FC83C78B
:102EA000E18C3E87930700643307F702B797002051
:102EB000938747D9BA97232CF4FA93070064232EFB
:102EC000F4FA930704FBBE851385E18CEF90304A3A
:102ED000AA87A307F4FE83C7E18CBE85F567138537
:102EE0004719EF50712E8347F4FE3E85EFF01FDB4C
:102EF00083C7E18C3E85EFA0C056AA87A307F4FEE6
:102F00008347F4FE3E85EFF07FD90100B6402644AA
:102F100061618280797106D622D44AD24ED00018DF
:102F2000AA872E87A30FF4FCBA87230FF4FC8347EC
:102F3000E4FD918B85CF8347F4FD81453E85EF907D
:102F4000B07FAA872326F4FE9307C4FE0347F4FD4F
:102F50003E86B7C70020938547F93A85EF90906089
:102F6000B7C70020138547F9EF40401C8347E4FDB5
:102F7000A18B91C7F5671385C71AEF505137834767
:102F8000E4FDC18B91C7F5671385471CEF503136BF
:102F90008347E4FD93F707048DCBF5671385471D41
:102FA000EF50F13403A7C18B8967938707F4335738
:102FB000F7029307800CB307F7023E8981494A85DF
:102FC000CE85EFD08FC7EFF05FE90100B2502254F9
:102FD0001259825945618280011106CE22CC00101F
:102FE000EFA04027AA87A306F4FE8347D4FE858B73
:102FF00091C7F5671385071EEF50712F8347D4FEE5
:10300000898B91C7F5671385471FEF50512E834772
:10301000D4FE918B99CFEFA02044AA872317F4FE0A
:103020008357E4FE918B91C7F5671385C720EF5056
:10303000112C8347D4FEC18BA9C7231704FE2DA8EA
:103040008357E4FE93F7F70F3E85EFA0E021AA87B0
:103050002306F4FE8347C4FE99CB8357E4FE93F71F
:10306000F70F0347C4FEBA853E85EFF0BFEA8357EA
:10307000E4FE85072317F4FE0357E4FE9D47E3F1C2
:10308000E7FC0100F240624405618280011106CE36
:1030900022CC4ACA4EC80010EFF07FCAEFF0DFD34F
:1030A0001385818CEF90600D9386818C138601814E
:1030B0009385C18013858180EFF05FC1AA87A30744
:1030C000F4FE15A003A7C18B8967938707F43357D4
:1030D000F70293074006B307F7023E8981494A8504
:1030E000CE85EFD08FB5EFA02037AA87918BF9DB83
:1030F000EFF0BFD60100F24062445249C249056177
:103100008280597186D6A2D48018AA87A30FF4F8BA
:10311000AE87230FF4F8B287A30EF4F8B687231D09
:10312000F4F8BA87230EF4F8232204FE232404FEC5
:10313000232604FE232204FC232404FC232604FC6F
:10314000232804FC232A04FC232C04FC232E04FC47
:10315000232004FE232804FA232A04FA232C04FA49
:10316000232E04FA232004FC85451545EF70205BCF
:10317000854537050002EF70E05E85672312F4FE97
:10318000E1472326F4FE8D472324F4FE930744FEF3
:10319000BE85B717014013850780EF603031856722
:1031A000938707802312F4FE930780042326F4FEFE
:1031B000930744FEBE85B717014013850780EF6073
:1031C000F02E232604FC232804FC232A04FC854734
:1031D000232CF4FC232E04FC232004FE8347C4F993
:1031E0002303F4FC8347F4F9A303F4FC8347D4F9E5
:1031F0002304F4FC8347E4F9A304F4FC8357A4F903
:103200002312F4FC930744FCBE85B7670040138586
:103210000740EF502021230D04FA8547A30DF4FA4F
:10322000230E04FA930700402318F4FA93070004CE
:103230002319F4FA93070002231AF4FA231B04FA61
:10324000231C04FA85472320F4FC930704FB3E85E6
:10325000EF5020408945B767004013850740EF5085
:103260009065930740022304F4FA8547A304F4FA17
:10327000230504FA85472326F4FA930784FA3E854A
:10328000EF60907505468945B76700401385074094
:10329000EF50703D0100B65026546561828039714F
:1032A00006DE22DC80002326A4FCAE872322C4FC99
:1032B000A305F4FC231704FE832744FC232CF4FC11
:1032C000230004FEA30004FE8347B4FC2301F4FEA4
:1032D000231704FE25A08357E4FE0327C4FC3E9772
:1032E0008357E4FE03470700930604FFB697A389BC
:1032F000E7FE8357E4FE85072317F4FE8347B4FCFB
:10330000C207C1830357E4FEE367F7FC930784FD1C
:10331000BE85B767004013850740EF50005BAA8762
:10332000A306F4FE231704FE31A08357E4FE8507AD
:103330002317F4FE8347D4FEBE85B767004013858C
:103340000740EF50007BAA873E8785476308F70058
:103350000357E4FE8567F917E3F9E7FC0357E4FE3A
:103360008567FD176314F700854711A081473E85E7
:10337000F250625421618280397106DE22DC8000C5
:103380002326A4FC8145B767004013850740EF5012
:103390001028AA8799E3814781A8930784FD3E8678
:1033A0008145B767004013850740EF507006A307BB
:1033B00004FE25A00347F4FE8347F4FE8326C4FCE5
:1033C000B697930604FF3697034737FF2380E7003D
:1033D0008347F4FE8507A307F4FE0347F4FE9D47E9
:1033E000E3FAE7FC834724FE3E85F25062542161F4
:1033F0008280011106CE22CC00102326A4FEF567A0
:1034000083A587230325C4FEEF30D148AA873E85D4
:10341000F240624405618280011106CE22CC001088
:103420002326A4FEF56783A587230325C4FEEF406A
:103430006108AA873E85F240624405618280397145
:1034400006DE22DC8000232EA4FC232CB4FC232ADD
:10345000C4FC2328D4FC2326E4FC2324F4FC2324EA
:1034600004FE7DA8232204FE4DA09307000023261E
:10347000F4FE232004FEB9A80327C4FC832784FE9E
:103480003307F702832704FEBA978A070327C4FD90
:10349000BA979443032784FC832704FE3307F7027B
:1034A000832744FEBA978A07032784FDBA979C4373
:1034B000BE853685EF400100AA87BE850325C4FE80
:1034C000EF30B106AA872326F4FE832704FE850782
:1034D0002320F4FE032704FE8327C4FCE34EF7F801
:1034E000032784FC832784FE3307F702832744FEE7
:1034F000BA978A07032744FDBA970327C4FE98C3E7
:10350000832744FE85072322F4FE032744FE8327F6
:1035100084FCE34CF7F4832784FE85072324F4FE20
:10352000032784FE832704FDE34EF7F20100F250E7
:10353000625421618280797106D622D426D24AD083
:103540000018232EA4FC232CB4FC8327C4FDA10760
:103550009843B707008093C7F7FFF98F3E85EF4088
:10356000616DF56703A6072483A64724EF20B118F1
:10357000AA87635DF0088327C4FDA1079C439305D8
:1035800000003E85EF30516AAA8763D30704832782
:1035900084FD910775670327C72498C3832784FD9B
:1035A000A1071307000098C38327C4FD9107984320
:1035B0008327C4FDC1079C43BE853A85EFF0B0194F
:1035C0002A87B70700803D8F832784FD98C325AAEB
:1035D000832784FD910775670327872498C3832772
:1035E00084FDA1071307000098C38327C4FD91073A
:1035F00098438327C4FDC1079C43BE853A85EFF0FD
:1036000090152A87832784FD98C3F5A88327C4FDD6
:10361000A10703A907008327C4FD98438327C4FD9E
:103620009C43BE853A85EF30F168AA87BE84832724
:10363000C4FD910798438327C4FD91079C43BE8531
:103640003A85EF303167AA87BE852685EF30E16D78
:10365000AA873E85EFF0F0432A87832784FD938471
:103660004700BA854A85EFF0100FAA879CC08327D0
:1036700084FD91079C433E85EFF0407D2326A4FE08
:103680008327C4FDD1079843B7070080B98F8325EE
:10369000C4FE3E85EF301120AA87BE848327C4FD77
:1036A000938707029C438325C4FE3E85EF30911E1D
:1036B000AA87BE852685EFF0100A2A87832784FD16
:1036C00098C38327C4FD91079843B7070080B98F3B
:1036D0008325C4FE3E85EF30F11BAA873E898327F0
:1036E000C4FD9C438325C4FE3E85EF30B11AAA87F2
:1036F0003E87832784FD93848700BA854A85EFF04F
:103700009005AA879CC0B250225492540259456138
:103710008280397106DE22DC26DA4AD88000232630
:10372000A4FC2324B4FC832784FCB1070327C4FC36
:10373000184398C3832784FCF1070327C4FC58432C
:1037400098C3832784FC9387C7020327C4FC1847C8
:1037500098C3832784FC938707031307000098C34B
:10376000832784FC9387470398C3832784FC93872C
:10377000870398C3832784FC9387C7037567032750
:10378000C72398C38327C4FCD1079C433E85EFF031
:10379000E06B2326A4FE8327C4FCD1079C433E850F
:1037A000EFF000732324A4FE8327C4FCC1079C43CD
:1037B0003E85EFF0A0692322A4FE8327C4FCC10745
:1037C0009C433E85EFF0C0702320A4FE8327C4FCF9
:1037D000B1079C433E85EFF06067232EA4FC83274E
:1037E000C4FCB1079C433E85EFF0806E232CA4FC03
:1037F000832544FE0325C4FEEF30D14BAA873E87C4
:10380000832784FC98C3032784FEB70700803D8F7D
:10381000832784FC93844700832544FE3A85EF3058
:103820007149AA879CC0832784FCA107032704FE53
:1038300098C3832504FE032584FDEF30B147AA8792
:10384000832584FE3E85EF30F146AA873E89832595
:1038500084FE0325C4FDEF30F145AA873E87832708
:1038600084FC93840701BA854A85EF30014CAA870E
:103870009CC0032784FEB7070080B98F832504FE10
:103880003E85EF303143AA87832584FD3E85EF30A6
:103890007142AA873E898325C4FD0325C4FEEF300B
:1038A0007141AA873E87832784FC93844701BA85A8
:1038B0004A85EF308147AA879CC0032784FDB7075C
:1038C00000803D8F832784FC93848701832544FEF9
:1038D0003A85EF30313EAA879CC00327C4FDB70765
:1038E0000080B98F832504FE3E85EF30B13CAA8766
:1038F0008325C4FE3E85EF30F13BAA873E898325B0
:1039000084FE032584FDEF30F13AAA873E878327A2
:1039100084FC93840702BA854A85EF300141AA8767
:103920009CC0832504FE0325C4FDEF30B138AA876F
:10393000832584FE3E85EF30F137AA873E898325B3
:10394000C4FE032584FDEF30F136AA873E87832726
:1039500084FC93844702BA854A85EF30013DAA87EB
:103960009CC0832784FC93848702832544FE03251F
:10397000C4FDEF303134AA879CC00100F25062547C
:10398000D2544259216182802D71232E1110232C93
:103990008110232A911000122326A4EE2324B4EED2
:1039A0008327C4EE9C433E85EFF0404A2322A4FEC9
:1039B0008327C4EE9C433E85EFF080512320A4FE74
:1039C0008327C4EEB1079C433E85EFF02048232EA9
:1039D000A4FC8327C4EEB1079C433E85EFF0404F23
:1039E000232CA4FC8327C4FD232CF4F8032784FD97
:1039F000B7070080B98F232EF4F89304000023202A
:103A000094FA8327C4EEDC432322F4FA832544FE90
:103A1000032584FDEF30112AAA872324F4FA832595
:103A200044FE0325C4FDEF30F128AA872326F4FACB
:103A3000032704FEB7070080B98F2328F4FA032771
:103A400004FEB70700803D8F8327C4EEA1079C4387
:103A5000BE853A85EF301126AA87232AF4FA8325FA
:103A600004FE032584FDEF30F124AA87232CF4FA09
:103A7000832504FE0325C4FDEF30D123AA87232E1E
:103A8000F4FA832744FE2320F4FC8327C4EEA10725
:103A90009C43832544FE3E85EF30D121AA87232213
:103AA000F4FC232494FC232694FC232894FCF5673F
:103AB00083A7C723232AF4FC85472326F4FE71A29B
:103AC0008327C4FE92070327C4EEBA979C433E8522
:103AD000EFF0C0372322A4FE8327C4FE92070327FA
:103AE000C4EEBA979C433E85EFF0803E2320A4FEAF
:103AF0008327C4FE9207B1070327C4EEBA979C43FD
:103B00003E85EFF0A034232EA4FC8327C4FE920749
:103B1000B1070327C4EEBA979C433E85EFF0403BC4
:103B2000232CA4FC8327C4FD232CF4F4032784FD59
:103B3000B7070080B98F232EF4F4930400002320EC
:103B400094F68327C4FE920791070327C4EEBA9721
:103B50009C432322F4F6832544FE032584FDEF30A5
:103B60007115AA872324F4F6832544FE0325C4FD9A
:103B7000EF305114AA872326F4F6032704FEB70773
:103B80000080B98F2328F4F6032704FEB7070080CE
:103B9000B346F7008327C4FE9207A1070327C4EEAC
:103BA000BA979C43BE853685EF30D110AA87232A69
:103BB000F4F6832504FE032584FDEF30B10FAA87B8
:103BC000232CF4F6832504FE0325C4FDEF30910E6B
:103BD000AA87232EF4F6832744FE2320F4F88327B4
:103BE000C4FE9207A1070327C4EEBA979C4383251E
:103BF00044FE3E85EF30110CAA872322F4F82324DB
:103C000094F8232694F8232894F8F56783A7C7230C
:103C1000232AF4F8130684F1930584F5130584F937
:103C2000914711479146EFF09F81930784F913075D
:103C300084F1930600043686BA853E85EF40012E56
:103C40008327C4FE85072326F4FE0327C4FE954779
:103C5000E3D8E7E6032744F2832784EE98C383275B
:103C600084EE9107032744F398C3832784EEA107CA
:103C7000032744F498C3232404FE55A0832784FE1D
:103C800013962700032784FEBA878607B386E700CA
:103C900093172600130704FFBA9703A787F2939799
:103CA0002600930604FFB69723A2E7F0832784FE3D
:103CB0008A0713861700032784FEBA878607BA97F8
:103CC0009386170093172600130704FFBA9703A7DC
:103CD00087F293972600930604FFB69723A2E7F096
:103CE000832784FE8A0713862700032784FEBA876A
:103CF0008607BA979386270093172600130704FFB9
:103D0000BA9703A787F293972600930604FFB69706
:103D100023A2E7F0832784FE85072324F4FE0327EC
:103D200084FE8947E3DCE7F4832784EE1387C7002A
:103D3000930744EFBA853E85EFF0EFFF0100832043
:103D4000C111032481118324411115618280717195
:103D500006D722D526D34AD14ECF52CD0019232ED5
:103D6000A4F4232CB4F4232AC4F4832784F5910704
:103D70002326F4FC832784F5938747022324F4FC4D
:103D8000832784F5938747042322F4FC832784F553
:103D9000938747062320F4FC832784F593874708FD
:103DA000232EF4FA832784F59387470A232CF4FA09
:103DB000232E04FC79A00327C4FD8D4763CCE700C4
:103DC0008327C4FD8A070327C4FCBA9775670327B6
:103DD000072598C38327C4FD8A07032784FCBA9765
:103DE00075670327072598C38327C4FD8A07032720
:103DF00044FCBA9775670327072598C38327C4FD3A
:103E00008A07032704FCBA9775670327072598C319
:103E10008327C4FD8A070327C4FBBA977567032766
:103E2000072598C38327C4FD8A07032784FBBA9715
:103E300075670327072598C38327C4FD8507232EAD
:103E4000F4FC0327C4FD9D47E3D7E7F68327C4F5B9
:103E5000DC47232AF4FA8327C4F5DC4F2328F4FA3D
:103E60008327C4F5DC572326F4FA832544FB032576
:103E700044FBEF302164AA87BE84832504FB03251D
:103E800004FBEF302163AA87BE852685EF20F16908
:103E9000AA87BE848325C4FA0325C4FAEF30816162
:103EA000AA87BE852685EF205168AA872324F4FAC5
:103EB000832544FB032504FBEFF0E0092A878327D1
:103EC00084FC98C3032704FBB7070080B346F700C0
:103ED000032744FBB70700803D8F832784FC93842E
:103EE0004700BA853685EFF00007AA879CC0232CCF
:103EF00004FC6F00B001832784FD8A07032784FC3C
:103F0000BA979C433E85EFE070742A87B70700801C
:103F100093C7F7FF7D8FF56783A5872A3A85EF3032
:103F20004148AA87635FF028832784FD8A07032717
:103F300084FCBA979C433E85EFE05071AA87BE850A
:103F4000032544FBEF300115AA873E87B707002001
:103F500093870700DC4BBE853A85EF30E17EAA8768
:103F60002322F4FAB7070020938707009C47BE85F9
:103F70000325C4FAEF30417DAA872320F4FAB7075E
:103F8000002093870700985FF56783A78725BE8584
:103F90003A85EFE0707CAA84B7070020938707007A
:103FA000D85BF56783A78725BE853A85EFE0D07A91
:103FB000AA87BE852685EF205157AA87BE84B707FA
:103FC000002093870700D853F56783A78725BE8510
:103FD0003A85EFE07078AA87BE852685EF30C176F6
:103FE000AA87BE84F56783A78725BE85032544FA83
:103FF000EFE09076AA87BE852685EF30E174AA8728
:10400000BE84F56783A78725BE85032504FAEFE004
:10401000B074AA87BE852685EF300173AA87BE8457
:10402000B707002093870700DC53BE853E85EF204D
:10403000D14FAA87BE852685EF30C105AA87232EDA
:10404000F4F88325C4F9032544FAEF30E16FAA8719
:104050003E87B707008093C7F7FF7D8FF56783A57D
:10406000C72A3A85EF30E133AA876358F012F56723
:1040700083A78725BE85032504FAEFE0F06DAA84A7
:10408000F56783A78725BE85032544FAEFE0D06C4A
:10409000AA87BE852685EF205149AA87BE84F56789
:1040A00083A78725BE850325C4F9EFE0F06AAA87B8
:1040B000BE852685EF304169AA873E85EFF0601DF9
:1040C000AA87832504FA3E85EF203146AA87BE845D
:1040D0008325C4F9032544FAEF300167AA87BE851A
:1040E0002685EFE05067AA86832784FD8E07032785
:1040F00044FCB304F700B6853685EF201143AA8748
:104100009CC0F56783A78725BE85032504FAEFE0E9
:10411000B064AA84F56783A78725BE85032544FA82
:10412000EFE09063AA87BE852685EF201140AA871D
:10413000BE84F56783A78725BE850325C4F9EFE014
:10414000B061AA87BE852685EF300160AA873E85CB
:10415000EFF02014AA87BE85032504FAEF30C15E74
:10416000AA87BE848325C4F9032544FAEF30C15DD4
:10417000AA87BE852685EFE0105EAA86832784FD88
:104180008E079107032744FCB304F700B6853685F4
:10419000EF20B139AA879CC0E9A4832784FD8E074C
:1041A0009107032744FCBA9775670327072B98C329
:1041B000032784FD0E07832644FC36979C431CC3CB
:1041C0004DA4832784FD8A07032784FCBA979C4368
:1041D0003E85EFE0F04FAA87BE85032504FBEF2064
:1041E000716BAA873E87B707002093870700DC4BD7
:1041F000BE853A85EF304155AA87232CF4F8B707DE
:104200000020938707009C47BE850325C4FAEF3042
:10421000A153AA87232AF4F8F56783A78725BE85CB
:10422000032584F9EFE05053AA84F56783A7872517
:10423000BE85032544F9EFE03052AA87BE85268566
:10424000EF20B12EAA87BE84B7070020938707000E
:10425000D853F56783A78725BE853A85EFE0D04F11
:10426000AA87BE852685EF20512CAA87BE84B70772
:10427000002093870700D85BF56783A78725BE8555
:104280003A85EFE0704DAA87BE852685EF30C14B99
:10429000AA87BE84B707002093870700985FF56759
:1042A00083A78725BE853A85EFE0104BAA87BE8598
:1042B0002685EF306149AA873E87B7070080B3445F
:1042C000F700B707002093870700DC53BE853E85C3
:1042D000EF20B125AA87BE852685EF20B15BAA878E
:1042E0002328F4F8832504F9032584F9EF30C14528
:1042F000AA873E87B707008093C7F7FF7D8FF567D2
:1043000083A5C72A3A85EF30C109AA876358F012FE
:10431000F56783A78725BE85032544F9EFE0D043E1
:10432000AA84F56783A78725BE85032584F9EFE076
:10433000B042AA87BE852685EF20311FAA87BE849A
:10434000F56783A78725BE85032504F9EFE0D040F4
:10435000AA87BE852685EF30213FAA873E85EFE0FC
:104360005073AA87832544F93E85EF20111CAA8744
:10437000BE84832504F9032584F9EF30E13CAA8744
:10438000BE852685EFE0303DAA86832784FD8E0713
:10439000032744FCB304F700B6853685EF20F118F7
:1043A000AA879CC0F56783A78725BE85032544F9A6
:1043B000EFE0903AAA84F56783A78725BE85032599
:1043C00084F9EFE07039AA87BE852685EF20F115C4
:1043D000AA87BE84F56783A78725BE85032504F9D0
:1043E000EFE09037AA87BE852685EF30E135AA87B2
:1043F0003E85EFE0106AAA87BE85032544F9EF30B9
:10440000A134AA87BE84832504F9032584F9EF30FB
:10441000A133AA87BE852685EFE0F033AA868327DD
:1044200084FD8E079107032744FCB304F700B6858B
:104430003685EF20910FAA879CC025A0832784FD95
:104440008E079107032744FCBA9775670327072B4C
:1044500098C3032784FD0E07832644FC36979C43AC
:104460001CC3832784FD8A07032784FCBA979C43D7
:104470003E85EFE0B01DAA87832544FB3E85EF30E3
:104480006103AA87BE84832784FD8A07032784FCEF
:10449000BA979C433E85EFE0B023AA87832504FBAF
:1044A0003E85EF302101AA87BE852685EF20F107E2
:1044B000AA873E87B707002093870700DC4BBE859D
:1044C0003A85EF306128AA872326F4F8B707002041
:1044D000938707009C47BE850325C4FAEF30C126A9
:1044E000AA872324F4F8F56783A78725BE850325CB
:1044F000C4F8EFE07026AA84F56783A78725BE85F8
:10450000032584F8EFE05025AA87BE852685EF2095
:10451000D101AA87BE84B707002093870700D8532C
:10452000F56783A78725BE853A85EFE0F022AA8745
:10453000BE852685EF304121AA87BE84B7070020BB
:1045400093870700D85BF56783A78725BE853A85E3
:10455000EFE09020AA87BE852685EF30E11EAA876E
:10456000BE84B707002093870700985FF56783A78D
:104570008725BE853A85EFE0301EAA87BE85268551
:10458000EF30811CAA87BE84B707002093870700FD
:10459000DC53BE853E85EF204179AA87BE852685FE
:1045A000EF20512FAA872322F4F8B7070020938722
:1045B0000700985FB707002093870700DC5BBE8584
:1045C0003A85EFE050192A89B70700209387070042
:1045D000D85BF56783A78725BE853A85EFE0D017BE
:1045E000AA84B707002093870700985FF56783A721
:1045F0008725BE853A85EFE03016AA87BE852685D9
:10460000EF20A172AA87BE84F56783A78725BE85A0
:10461000032544F8EFE05014AA87BE852685EF30C5
:10462000A112AA873E85EFE0D046AA87832544F8E9
:104630003E85EFE05012AA86832784FD8E0703276C
:10464000C4FCB304F700B6854A85EF30E10FAA87B2
:104650009CC0B707002093870700985FB70700202A
:1046600093870700DC5BBE853A85EFE0D00E2A8990
:10467000B707002093870700D85BF56783A78725D6
:10468000BE853A85EFE0500DAA84B70700209387D6
:104690000700985FF56783A78725BE853A85EFE019
:1046A000B00BAA87BE852685EF202168AA87BE8425
:1046B000F56783A78725BE85032544F8EFE0D00979
:1046C000AA87BE852685EF302108AA873E85EFE0C0
:1046D000503C2A87B7070080B98F832544F83E8570
:1046E000EFE07007AA86832784FD8E0791070327D2
:1046F000C4FCB304F700B6854A85EF30E104AA870D
:104700009CC0832784FD8507232CF4FC032784FDAC
:10471000854763D2E7FEA30B04FC6F00704283471A
:1047200074FD8A07032744FCBA979C433E85EF300B
:104730006150F56703A6072783A64727EF00D12618
:10474000AA872E883E85C285EF3081592A87B70710
:10475000008093C7F7FF7D8FF56783A587273A858C
:10476000EF203144AA87E358F03C832784FC9C4324
:104770003E85EF30214CF56703A6072783A6472720
:10478000EF009122AA872E883E85C285EF304155E1
:104790002A87B707008093C7F7FF7D8FF56783A54A
:1047A00087273A85EF20F13FAA87E356F038834701
:1047B00074FD8A070327C4FCBA979C433E85EF30FB
:1047C0006147F56703A6072783A64727EF00D11D9A
:1047D000AA872E883E85C285EF3081502A87B70789
:1047E000008093C7F7FF7D8FF56783A587273A85FC
:1047F000EF20313BAA87E350F034834774FD858373
:1048000093F7F70F8A07032784FCBA979C433E85EA
:10481000EFE0C063AA84834774FD8A07032744FC42
:10482000BA979443834774FD8A070327C4FCBA9759
:104830009C43BE853685EF20414FAA873E85EFE039
:104840002069AA87BE852685EF20D146AA87232026
:10485000F4F8834774FD858393F7F70F8A070327DE
:1048600084FCBA979C433E85EFE08066AA84834728
:1048700074FD8A07032744FCBA979443834774FD69
:104880008A070327C4FCBA979C43BE853685EF2070
:10489000C149AA873E85EFE0A063AA87BE85268529
:1048A000EF205141AA87232EF4F6834774FD8A072F
:1048B000032744FCBA979443834774FD8A07032770
:1048C000C4FCBA979C43BE853685EF200146AA8773
:1048D0003E85EFE0A0572A87B7070080B98F232CC9
:1048E000F4F68327C4F5A1079C43BE85032504F88D
:1048F000EF209165AA873E87B707008093C7F7FF2F
:10490000F98F3E85EF300133F56703A6072A83A6AA
:10491000472AEF102169AA8763D1070A8327C4F5C4
:10492000E1079C43BE850325C4F7EF20F161AA8708
:104930003E87B707008093C7F7FFF98F3E85EF30BA
:10494000612FF56703A6072A83A6472AEF10816522
:10495000AA8763D407068327C4F5938787029C43FD
:10496000BE85032584F7EF20315EAA873E87B7070F
:10497000008093C7F7FFF98F3E85EF30A12BF567D5
:1049800003A6072A83A6472AEF10C161AA8763D628
:104990000702834774FD8A070327C4FBBA971307EE
:1049A000000098C3834774FD8A07032704FCBA9765
:1049B000032744F5584798C31DA3834774FD858397
:1049C00093F7F70F8A07032784FCBA979C433E8529
:1049D000EFE000502A878327C4F5A1079C43BE85DA
:1049E0003A85EF20312DAA87BE84834774FD8583E5
:1049F00093F7F70F8A07032784FCBA979C433E85F9
:104A0000EFE0C0442A878327C4F5E1079C43BE85B5
:104A10003A85EF20312AAA87BE852685EF20D1521C
:104A2000AA87232AF4F6834774FD858393F7F70F4B
:104A30008A07032784FCBA979C433E85EFE0004138
:104A4000AA84834774FD8A07032744FCBA979443DA
:104A5000834774FD8A070327C4FCBA979C43BE852D
:104A60003685EF20812CAA873E85EFE0203EAA877D
:104A7000BE852685EF201124AA873E878327C4F5AB
:104A8000A1079C43BE853A85EF20D122AA87BE8428
:104A9000834774FD858393F7F70F8A07032784FC08
:104AA000BA979C433E85EFE0A0422A89834774FD74
:104AB0008A07032744FCBA979443834774FD8A0707
:104AC0000327C4FCBA979C43BE853685EF20E125B9
:104AD000AA873E85EFE08037AA87BE854A85EF200A
:104AE000711DAA873E878327C4F5E1079C43BE85D5
:104AF0003A85EF20311CAA87BE852685EF20E1226A
:104B0000AA87BE84834774FD8A07032744FCBA97AB
:104B10009443834774FD8A070327C4FCBA979C43D8
:104B2000BE853685EF206120AA873E85EFE0403ABA
:104B30002A878327C4F5938787029C43BE853A85DD
:104B4000EF205117AA87BE852685EF20011EAA8770
:104B50002328F4F6834774FD8A07032704FCB30473
:104B6000F700832504F7032544F7EFE0C03EAA874A
:104B70009CC08327C4F5A1078443834774FD8583C4
:104B800093F7F70F8A07032784FCBA979C433E8567
:104B9000EFE000342A89834774FD8A07032704FC69
:104BA000BA979C433E85EFE0A032AA87BE854A852E
:104BB000EF205110AA873E89834774FD858393F7C0
:104BC000F70F8A07032784FCBA979C433E85EFE0E2
:104BD000E027AA89834774FD8A07032704FCBA9754
:104BE0009C433E85EFE08026AA87BE854E85EF2058
:104BF000710CAA87BE89834774FD8A07032744FC8A
:104C0000BA979443834774FD8A070327C4FCBA9775
:104C10009C43BE853685EF204111AA873E85EFE093
:104C2000E022AA87BE854E85EF20D108AA87BE85DF
:104C30004A85EF20810FAA87BE852685EF20910740
:104C4000AA873E898327C4F5E1078443834774FD1F
:104C5000858393F7F70F8A07032784FCBA979C4351
:104C60003E85EFE0E026AA89834774FD8A07032783
:104C700004FCBA979C433E85EFE0401DAA87BE85A1
:104C80004E85EF203103AA87BE89834774FD8A07CA
:104C9000032744FCBA979443834774FD8A0703278C
:104CA000C4FCBA979C43BE853685EF200108AA87CD
:104CB0003E85EFE0A019AA87BE854E85EF20817F53
:104CC000AA87BE89834774FD858393F7F70F8A0708
:104CD000032784FCBA979C433E85EFE020172A8A7D
:104CE000834774FD8A07032704FCBA979C433E85DB
:104CF000EFE0001EAA87BE855285EF20A17BAA8720
:104D0000BE854E85EF205124AA87BE852685EF20DB
:104D1000617AAA87BE854A85EF202101AA873E894C
:104D20008327C4F5938787028443834774FD8A07EA
:104D3000032704FCBA979C433E85EFE02011AA8725
:104D4000BE852685EF200177AA87BE84834774FD40
:104D50008A07032744FCBA979443834774FD8A0764
:104D60000327C4FCBA979C43BE853685EF10F17BC0
:104D7000AA873E85EFE0C015AA87BE852685EF206D
:104D80006173AA87BE854A85EF10317AAA872326E8
:104D9000F4F68327C4F5A1078443834774FD858314
:104DA00093F7F70F8A07032784FCBA979C433E8545
:104DB000EFE0C009AA87BE852685EF20A16FAA87EC
:104DC000BE84834774FD8A07032744FCBA97944343
:104DD000834774FD8A070327C4FCBA979C43BE85AA
:104DE0003685EF109174AA873E85EFE0600EAA87A2
:104DF000BE852685EF20016CAA873E898327C4F5EE
:104E0000E1078443834774FD858393F7F70F8A078F
:104E1000032784FCBA979C433E85EFE0600BAA878A
:104E2000BE852685EF200169AA87BE84834774FD6D
:104E30008A07032744FCBA979443834774FD8A0783
:104E40000327C4FCBA979C43BE853685EF10F16DED
:104E5000AA873E85EFE0C007AA87BE852685EF209A
:104E60006165AA87BE854A85EF10316CAA873E89A5
:104E70008327C4F5938787028443834774FD8A0799
:104E8000032744FCBA979443834774FD8A0703279A
:104E9000C4FCBA979C43BE853685EF101169AA877A
:104EA0003E85EFD0B07AAA87BE852685EF20816047
:104EB000AA87BE854A85EF203109AA872324F4F604
:104EC000834774FD8A070327C4FBB304F7008325D7
:104ED00084F60325C4F6EFE00008AA879CC0832768
:104EE000C4F58443834774FD858393F7F70F8A07DE
:104EF000032784FCBA979C433E85EFD0707D2A89B6
:104F0000834774FD8A07032704FCBA979C433E85B8
:104F1000EFD0D073AA87BE854A85EF20A159AA8712
:104F20003E89834774FD858393F7F70F8A0703272C
:104F300084FCBA979C433E85EFD05071AA89834781
:104F400074FD8A07032744FCBA979443834774FD92
:104F50008A070327C4FCBA979C43BE853685EF10A9
:104F6000D15CAA873E85EFD0706EAA87BE854E853C
:104F7000EF204154AA87BE89834774FD8A0703271F
:104F800004FCBA979C433E85EFD09074AA87BE85F7
:104F90004E85EF202152AA87BE854A85EF20C17A2F
:104FA000AA87BE852685EF20E150AA873E89832700
:104FB000C4F5C1078443834774FD858393F7F70FD6
:104FC0008A07032784FCBA979C433E85EFD0507034
:104FD000AA89834774FD8A07032744FCBA97944340
:104FE000834774FD8A070327C4FCBA979C43BE8598
:104FF0003685EF109153AA873E85EFD03065AA879A
:10500000BE854E85EF20014BAA87BE89834774FD7C
:105010008A07032704FCBA979C433E85EFD0506B68
:10502000AA87BE854E85EF20E148AA87BE898347BF
:1050300074FD858393F7F70F8A07032784FCBA97DB
:105040009C433E85EFD090602A8A834774FD8A078F
:10505000032704FCBA979C433E85EFD0305FAA87B4
:10506000BE855285EF200145AA87BE854E85EF108B
:10507000D14BAA87BE852685EF20C143AA87BE856E
:105080004A85EF20616CAA873E898327C4F5938700
:1050900007028443834774FD8A07032744FCBA97B9
:1050A0009443834774FD8A070327C4FCBA979C4343
:1050B000BE853685EF107147AA873E85EFD05061D7
:1050C000AA89834774FD8A07032704FCBA979C4387
:1050D0003E85EFD0F05FAA87BE854E85EF20813DEB
:1050E000AA87BE852685EF20E13CAA87BE854A8532
:1050F000EF208165AA872322F4F68327C4F5910760
:105100008443834774FD858393F7F70F8A0703274A
:1051100084FCBA979C433E85EFD0905B2A898347F5
:1051200074FD8A07032704FCBA979C433E85EFD0A1
:10513000F051AA87BE854A85EF20C137AA873E89EC
:10514000834774FD858393F7F70F8A07032784FC51
:10515000BA979C433E85EFD0704FAA89834774FD70
:105160008A07032744FCBA979443834774FD8A0750
:105170000327C4FCBA979C43BE853685EF10F13AED
:10518000AA873E85EFD0904CAA87BE854E85EF203A
:105190006132AA87BE89834774FD8A07032704FC0E
:1051A000BA979C433E85EFD0B052AA87BE854E8504
:1051B000EF204130AA87BE854A85EF20E158AA87B3
:1051C000BE852685EF20012FAA873E898327C4F557
:1051D000D1078443834774FD858393F7F70F8A07CC
:1051E000032784FCBA979C433E85EFD0704EAA8972
:1051F000834774FD8A07032744FCBA979443834787
:1052000074FD8A070327C4FCBA979C43BE85368584
:10521000EF10B131AA873E85EFD05043AA87BE85F3
:105220004E85EF202129AA87BE89834774FD8A070E
:10523000032704FCBA979C433E85EFD07049AA87A8
:10524000BE854E85EF200127AA87BE89834774FD5E
:10525000858393F7F70F8A07032784FCBA979C434B
:105260003E85EFD0B03E2A8A834774FD8A07032724
:1052700004FCBA979C433E85EFD0503DAA87BE857B
:105280005285EF202123AA87BE854E85EF10F12994
:10529000AA87BE852685EF20E121AA87BE854A859B
:1052A000EF20814AAA873E898327C4F59387470266
:1052B0008443834774FD8A07032744FCBA979443C9
:1052C000834774FD8A070327C4FCBA979C43BE85B5
:1052D0003685EF109125AA873E85EFD0703FAA89C9
:1052E000834774FD8A07032704FCBA979C433E85D5
:1052F000EFD0103EAA87BE854E85EF20A11BAA875E
:10530000BE852685EF20011BAA87BE854A85EF2032
:10531000A143AA872320F4F6834774FD8A07032755
:1053200084FBB304F700832504F6032544F6EFD08D
:105330009042AA879CC0834774FD8507A30BF4FCA9
:10534000034774FD8D4763FCE7BC832784FCB107EA
:10535000032784FC584398C3032784FC21079C43FC
:105360001CC3832784FC9107032784FC184398C33C
:10537000232804FCDDA0832704FD8A07032784FC7F
:105380003E97832704FD91078A07832684FCB697FE
:10539000184398C3832704FD8A07032744FC3E97DC
:1053A000832704FD91078A07832644FCB697184398
:1053B00098C3832704FD8A070327C4FC3E978327ED
:1053C00004FD91078A078326C4FCB697184398C347
:1053D000832704FD8A07032704FCBA979443832795
:1053E00004FD91078A07032704FCB304F700F5675F
:1053F00083A5072B3685EF105113AA879CC08327FE
:1054000004FD8A070327C4FBBA979443832704FD4E
:1054100091078A070327C4FBBA9737070080358FA7
:1054200098C3832704FD8A07032784FBBA97944314
:10543000832704FD91078A07032784FBB304F70041
:10544000F56783A5072B3685EF10310EAA879CC020
:10545000832704FD85072328F4FC032704FD8D47DB
:10546000E3DBE7F001003E85BA502A549A540A590A
:10547000FA496A4A4D618280397106DE22DC800079
:105480002326A4FCAE872322C4FCA305F4FC8327B7
:10549000C4FC9C433E85EFD03FF82326A4FE0325A1
:1054A00044FCEFD07FF7232CA4FC19A8F56783A553
:1054B000472B0325C4FEEF105107AA872326F4FECD
:1054C000F56783A5872B0325C4FEEF10F175AA8726
:1054D000E3CE07FC19A8F56783A5472B0325C4FE77
:1054E000EF208126AA872326F4FEF56783A5C72B24
:1054F0000325C4FEEF10F16AAA87E34EF0FC0325F2
:10550000C4FEEFD01FEF2A878327C4FC98C38347CC
:10551000B4FC1547636CF72613972700F967938748
:1055200087BABA979C438287854795A4F56783A578
:10553000072C032584FDEF10417FAA87232AF4FC62
:10554000F56783A5C72B032544FDEF10B176AA8725
:105550003E85EF20216EF56703A6872C83A6C72C16
:10556000EF008137AA872E883E85C285EF10416EF5
:10557000AA872324F4FEF56783A5872B032544FD22
:10558000EF105173AA873E85EF20C16AF56703A625
:10559000872C83A6C72CEF002134AA872E883E854E
:1055A000C285EF10E16AAA872322F4FE032784FE56
:1055B0009307400B63D7E7009307400B2324F4FEC7
:1055C00039A0832784FE63D40700232404FE8327A5
:1055D00044FE6355F000232204FE19A8032744FE6D
:1055E0009307C0F46356F7009307C0F42322F4FE38
:1055F000032544FEEF20A157AA87BE850325C4FEDC
:10560000EF10315AAA8763D3070049A2032584FE0D
:10561000EF20E155AA87BE850325C4FEEF10D160B7
:10562000AA876353F0009DA2854795A2854785A26E
:10563000F56783A5072D0325C4FEEF109156AA87B1
:1056400063D30700A1A2F56783A5472D0325C4FEF8
:10565000EF10915DAA876353F0000DAA854705AA54
:10566000032784FDB707008093C7F7FFF98F232036
:10567000F4FEF56783A5872D032504FEEF10715214
:10568000AA876357F000F56783A7872D2320F4FED0
:10569000F56783A5872D032504FEEF10B11FAA87A8
:1056A0003E85EF202159F56703A6872C83A6C72CDA
:1056B000EF00B11AAA872E883E85C285F56703A63A
:1056C000072E83A6472EEF00D164AA872E883E8539
:1056D000C285EF10E157AA87232EF4FC0325C4FDF1
:1056E000EF20E1482A87F56783A5872D3A85EF10DB
:1056F000514BAA876357F0009307A005232EF4FCB3
:105700001DA00325C4FDEF2081462A87F56783A5E8
:10571000872E3A85EF105151AA8763D60700930769
:10572000C0F9232EF4FC0325C4FDEF204144AA87D1
:10573000BE850325C4FEEF10D146AA8763D30700B8
:10574000B1A0F56783A5872D0325C4FEEF10D14DC9
:10575000AA876353F0001DA8854715A8F56783A5A0
:10576000C72E0325C4FEEF10D143AA8763D30700D9
:1057700031A8F56783A5072C0325C4FEEF10D14A95
:10578000AA876353F00019A0854711A081473E8581
:10579000F250625421618280797106D622D426D2D9
:1057A0000018232EA4FC232CB4FCA30704FE0DA890
:1057B0008347F4FE8A070327C4FDBA9794438347BF
:1057C000F4FE8A07032784FDB304F7003685EFD083
:1057D0005FC2AA879CC08347F4FE8507A307F4FE37
:1057E0000347F4FE9547E3F5E7FC0100B25022546D
:1057F000925445618280797106D622D426D200184F
:10580000232EA4FC232CB4FCA30704FE0DA883477D
:10581000F4FE8A070327C4FDBA9794438347F4FE36
:105820008A07032784FDB304F7003685EFD0DFBE77
:10583000AA879CC08347F4FE8507A307F4FE0347AD
:10584000F4FE9547E3F5E7FC0100B2502254925470
:10585000456182802D71232E1110232C811000129E
:105860002326A4EE2324B4EE930744F52146814574
:105870003E85EFA03FA09307C4F9BE850325C4EE83
:10588000EFD03FE91306C4F51305C4F9914711475A
:105890009146B705002093850506EFD05FBA9307C0
:1058A000C4F3BE85B7C700201385876CEFF0DFEE29
:1058B0009307C4F31307C4F53E86B7C7002093854A
:1058C000475D3A85EFE0AFC8AA87A303F4FE83479C
:1058D00074FE6380076CA1472303F4FEA30704FE54
:1058E000230704FEADAE8347E4FE37C7002093874D
:1058F00087021307475D8A07BA97DC433E85EF208E
:105900006133F56703A6072783A64727EFF0D00981
:10591000AA872E883E85C285EF20813C2A87B7075B
:10592000008093C7F7FF7D8FF56783A587273A85AA
:10593000EF103127AA87635FF0308347F4FE8507B5
:10594000A307F4FE8347E4FE130704FFBA97054755
:105950002382E7F68347E4FE9387870213972700A5
:10596000B7C700209387475DBA97910713060000D9
:1059700095453E85EFF05FB0AA8791EF8347E4FE3F
:10598000130704FFBA97238207F68347F4FEFD1737
:10599000A307F4FEC1A48347E4FE9387070213978D
:1059A0002700B7C700209387475DBA979107130672
:1059B000000091453E85EFF03FACAA8791EF834709
:1059C000E4FE130704FFBA97238207F68347F4FE29
:1059D000FD17A307F4FEBDAC8347E4FEE107139770
:1059E0002700B7C700209387475DBA979386470083
:1059F0008347E4FE37C700201307475D8A07BA973D
:105A0000DC433E868D453685EFF01FA7AA8791EFD0
:105A10008347E4FE130704FFBA97238207F6834700
:105A2000F4FEFD17A307F4FE35A48347E4FEA107A7
:105A300013972700B7C700209387475DBA97910750
:105A40001306000081453E85EFF01FA3AA8791EF62
:105A50008347E4FE130704FFBA97238207F68347C0
:105A6000F4FEFD17A307F4FEF5A28347E4FEC10789
:105A700013972700B7C700209387475DBA97910710
:105A80001306000085453E85EFF01F9FAA8791EF22
:105A90008347E4FE130704FFBA97238207F6834780
:105AA000F4FEFD17A307F4FE75A28347E4FE1397E7
:105AB0002700B7C700209387475DBA9793864700B2
:105AC0008347E4FE37C70020E1071307475D8A07D5
:105AD000BA97DC433E8689453685EFF0FF99AA8761
