:100000006F70800413000000130000001300000054
:100010001300000013000000130000001300000094
:100020001300000013000000130000001300000084
:08003000130000007300100032
:100038000000000000000000245F0000345F0000A2
:10004800000000008E6F00000000000000000000AB
:10005800906F0000926F0000000000000000000098
:10006800946F000000000000966F00000000000080
:10007800986F00009A6F00009C6F00009E6F000050
:10008800A06F0000A26F00002C5B0000505B000016
:10009800745B0000985B0000CC5B0000AE6F000052
:1000A800B06F0000B26F0000B46F0000B66F0000C0
:1000B800B86F0000BA6F0000BC6F0000BE6F000090
:1000C800CC5E0000C26F0000C46F0000F05B00004F
:1000D800C86F00000C5D0000CC6F0000CE6F000000
:1000E8003C5D00005C5D00008C5D0000D66F000088
:1000F800D86F0000DA6F0000DC6F0000DE6F0000D0
:10010800E06F00001459000048590000AA59000087
:10011800785C0000EA6F0000EC6F0000EE6F0000F2
:10012800445E0000F26F0000F46F0000F66F0000FC
:10013800F86F0000FA6F0000BC5D0000FE6F000061
:10014800DE590000125A0000EC5D0000145E000049
:10015800087000000A7000000C7000000E700000AB
:1001680010700000005900001470000016700000A4
:10017800187000001A7000001C700000AEA3000088
:100188002070000022700000EE5A0000425A000061
:10019800765A0000C25A00002C700000745E0000FD
:1001A800307000003270000034700000A45E00005F
:1001B800387000003A7000003C7000003E7000008B
:1001C800407000004270000044700000467000005B
:1001D8000000000000000000000000000000000017
:1001E8000000000000000000000000000000000007
:0801F8000000000000000000FF
:10020000737504308280B76200009382820873A005
:1002100002308280397101436EC619A03971415391
:100220006AC866CA62CC5ECE19A0397101535AD031
:1002300056D252D44ED64AD826DA22DC06DE330114
:100240006140828241114AC026C222C406C682820F
:10025000B24D4101024D924C224CB24B4101024B36
:10026000924A224AB2494101024992442244B24090
:10027000410182803D432A876373C3029377F7006D
:10028000BDEFADE5937606FF3D8ABA960CC34CC32D
:100290000CC74CC74107E36BD7FE11E28280B3065F
:1002A000C3408A069702000096966780A60023073F
:1002B000B700A306B7002306B700A305B7002305C0
:1002C000B700A304B7002304B700A303B7002303B8
:1002D000B700A302B7002302B700A301B7002301B0
:1002E000B700A300B7002300B700828093F5F50F95
:1002F00093968500D58D93960501D58D61B793961C
:1003000027009702000096968682E78086FA9680FC
:10031000C1171D8F3E96E374C3F8A5B73367B500C8
:10032000FD530D8B79E7B7877F7F9387F7F71041F0
:100330009441B372F6003363F600BE92B3E26200FA
:100340006397720C6318D6065041D441B372F6001D
:100350003363F600BE92B3E262006398720A631BD5
:10036000D60410459445B372F6003363F600BE928E
:10037000B3E262006391720A631ED6025045D4450F
:10038000B372F6003363F600BE92B3E26200639A82
:1003900072086311D60210499449B372F6003363B0
:1003A000F600BE92B3E26200639372085105D10574
:1003B000E30FD6F61317060193970601631CF700A7
:1003C0001357060193D706013305F7409375F50FD0
:1003D00091E982804183C1833305F7409375F50F1E
:1003E00091E182801377F70F93F7F70F3305F7400A
:1003F00082800346050083C6050005058505631355
:10040000D60065FA3305D640828011059105E312C6
:10041000D6FE014582802105A105E31CD6FC0145DD
:1004200082803105B105E316D6FC01458280410585
:10043000C105E310D6FC01458280011122CE0010D7
:100440002324A4FE2326B4FEB7F700E023A0070070
:10045000B7F700E08146014794C7D8C7B7F700E077
:10046000054798C30100B7F700E003A8C7009C4701
:100470000327C4FEC286636CD7000327C4FEC2866E
:10048000E313D7FE032784FE6363F700E9BF01008F
:10049000724405618280011122CE00102326A4FE41
:1004A0008327C4FE958313F77700F1670A079387C4
:1004B000C75CBA979C439C470327C4FE7D8B854647
:1004C0003397E600F98F99C3854711A081473E8590
:1004D000724405618280797122D60018232EA4FC13
:1004E0008327C4FD958393F7F70F9D8BA307F4FE35
:1004F0008327C4FD93F7F70FBD8B2307F4FE034753
:10050000F4FEF1670A079387C75CBA979C43DC4700
:100510000347E4FE85463397E600420741833A8667
:100520008346F4FE71678A061307C75C3697184343
:10053000B18F5CC70100325445618280797106D663
:1005400022D40018232EA4FC232CB4FC232AC4FCA0
:100550002328D4FC8327C4FD958393F7F70F9D8B45
:10056000A307F4FE8327C4FD93F7F70FBD8B230782
:10057000F4FE0327C4FD9307F00F6305F714032768
:10058000C4FD9307F00F6301F7148347F4FE91E76E
:1005900085451145EF90200341A00347F4FE8547B0
:1005A0006317F70085452145EF90E001B5A00347AB
:1005B000F4FE89476317F70085454145EF90A00099
:1005C000A1A80347F4FE8D476318F700854513057E
:1005D0000002EF80507F89A00347F4FE9147631823
:1005E000F700854513050004EF80F07D35A0034733
:1005F000F4FE95476318F700854513050008EF8062
:10060000907C19A80347F4FE99476317F7008545C6
:1006100013050010EF80307B8347E4FE0547B317D6
:10062000F700C207C1832310F4FE032784FD85472A
:100630006317F702832704FDC207C183A183C207A2
:10064000C18389E78D472322F4FE11A8832704FD87
:10065000C207C183A183C207C1832322F4FE83277B
:1006600004FDC207C18393F7F70F2324F4FE034769
:10067000F4FEF1670A079387C75CBA979C433E87ED
:10068000930704FEBE853A85EF80C04C032784FDA6
:100690008547631CF7020347F4FEF1670A07938757
:1006A000C75CBA979C43BE868347E4FE0547B317F1
:1006B000F700C207C183032644FDBE853685EF805F
:1006C000407021A0010011A00100B25022544561E8
:1006D0008280011106CE22CC00102326A4FE232402
:1006E000B4FE2322C4FE2320D4FE8327C4FE81EB64
:1006F00093068031054685451545893541A0032778
:10070000C4FEC147631AF70093068031054685454C
:100710001305300225359DA00327C4FE9307000270
:10072000631AF70093068031054685451305D0020C
:100730003135A9A00327C4FE93070003631AF7000D
:10074000930680310546854513053002C53B3DA023
:100750000327C4FE93070004631AF7009306803151
:10076000054685451305A004D13B09A81306900250
:10077000F1679385071B0145EF10B053032784FEF3
:1007800089476319F70093068031054685451D4565
:10079000753341A0032784FEC947631AF700930607
:1007A00080310546854513055002493B9DA003272E
:1007B00084FE93072002631AF700930680310546F2
:1007C00085451305F0029D3BA9A0032784FE9307EE
:1007D0002003631AF700930680310546854513050B
:1007E0005002A93B3DA0032784FE93072004631A0F
:1007F000F70093068031054685451305C0043D3B4F
:1008000009A813060003F1679385071B0145EF1044
:10081000504A032744FE85476319F700930640308A
:10082000054681451945193B59A8032744FEC5478C
:10083000631AF700930640300546814513054002D0
:10084000F539B5A8032744FE93071002631AF70091
:1008500093064030054681451305E002C53185A069
:10086000032744FE93071004631AF70093064030F1
:10087000054681451305B004D13191A0032744FEFC
:1008800093071003631AF70093064030054681452D
:1008900013054002653125A0032744FE9307F00F9E
:1008A0006317F7009307F00F2322F4FE09A813063D
:1008B0008003F1679385071B0145EF10903F930676
:1008C000003101468545032504FE8D390100F240C3
:1008D0006244056182805D7186C6A2C480082326B9
:1008E000A4FC2324B4FC2322C4FC2320D4FC232E08
:1008F000E4FA232CF4FA232A04FB231704FEF167FD
:100900000327C4FC0A079387075EBA979C433E857A
:10091000EF80F07885450545EF80F04A032704FC19
:10092000C1476311F7020327C4FBC947631CF700E3
:10093000032784FBC5476317F70085450545EF800E
:10094000C04B15A8032704FC930700046315F702A6
:100950000327C4FB93072004631FF700032784FBCE
:10096000930710046319F7008545B7172000138516
:100970000710EF8080488327C4FC91E78545056513
:10098000EF80704425A00327C4FC85476317F70058
:1009900085451165EF80904711A80327C4FC89475E
:1009A0006316F70085452165EF805046832644FB9A
:1009B000032684FB8325C4FB032504FC193B231E6B
:1009C00004FC93074010231FF4FC231004FE0327AC
:1009D00084FC85476305F702832784FC81CF0327C6
:1009E00084FC89476303F702032784FC8D47630473
:1009F000F7020DA8231104FE231204FE25A02311E3
:100A000004FE85472312F4FE31A889472311F4FE22
:100A1000231204FE01A889472311F4FE85472312FF
:100A2000F4FE010003A7C18A832744FCB357F702F1
:100A30002317F4FE0357E4FE9307F00F63F7E70074
:100A4000930780032317F4FE61A80357E4FE93077E
:100A5000F00763F7E700930700032317F4FE49A0AC
:100A60000357E4FE9307F00363F7E7009307800260
:100A70002317F4FEB5A00357E4FEFD4763F7E70034
:100A8000930700022317F4FEA1A80357E4FEBD4715
:100A900063F6E700E1472317F4FE99A00357E4FE4D
:100AA0009D4763F6E700C1472317F4FE15A80357D7
:100AB000E4FE8D4763F6E700A1472317F4FE0DA07F
:100AC0000357E4FE854763F5E700231704FE09A8F2
:100AD0001306D008F1679385071B0145EF10701DC1
:100AE0008357E4FE2314F4FE930700202313F4FE3F
:100AF000231504FE9D472316F4FEF1670327C4FC6B
:100B00000A079387075EBA979C433E879307C4FD05
:100B1000BE853A85EF801060F1670327C4FC0A07A1
:100B20009387075EBA979C4385453E85EF80106E9C
:100B30000100B640264461618280011122CE00107E
:100B40002326A4FEAE87A305F4FEF1670327C4FEA7
:100B50000A079387075EBA979C433E878347B4FE94
:100B6000C207C1832316F7000100F1670327C4FE03
:100B70000A079387075EBA979C4383D78700C2070B
:100B8000C18393F70708F5F3010072440561828081
:100B9000011122CE00102326A4FEAE872315F4FEF9
:100BA0008357A4FEA183C207C18393F6F70FF167B1
:100BB0000327C4FE0A079387075EBA979C433E87C4
:100BC00093970601C1832316F7000100F1670327FD
:100BD000C4FE0A079387075EBA979C4383D78700B2
:100BE000C207C18393F70708F5F38357A4FE93F672
:100BF000F70FF1670327C4FE0A079387075EBA97CA
:100C00009C433E8793970601C1832316F70001009A
:100C1000F1670327C4FE0A079387075EBA979C43D0
:100C200083D78700C207C18393F70708F5F3010054
:100C3000724405618280011106CE22CC0010232669
:100C4000A4FE2324B4FE8327C4FE99E7E1460146AF
:100C500085452545E530C9AA0327C4FE8947631A9F
:100C6000F700E1460146854513056002EFF01F8D50
:100C700065AA0327C4FEC1476319F700E146014690
:100C800085450945EFF09F8B45A20327C4FEC94760
:100C9000631AF700E1460146854513055006EFF05B
:100CA000FF8959A20327C4FE93070002631AF700C5
:100CB000E146014685451305A002EFF03F88ADA24D
:100CC0000327C4FE93072002631AF700E14601469A
:100CD00085451305A004EFF07F86B9A20327C4FE63
:100CE00093074002631AF700E14601468545130564
:100CF0008006EFF0BF840DAA0327C4FE930700040B
:100D0000631AF700E146014685451305A004EFF09C
:100D1000FF8219AA0327C4FE93072004631AF70071
:100D2000E1460146854513050002EFF03F81EDA83D
:100D30000327C4FE93070005631AF700E146014646
:100D400085451305C004EFF06FFFF9A80327C4FE23
:100D500093072005631AF700E14601468545130510
:100D60008008EFF0AFFDC9A00327C4FE930700067B
:100D7000631AF700E1460146854513050004EFF0CC
:100D8000EFFB5DA00327C4FE93072006631AF7005C
:100D9000E1460146854513050004EFF02FFA69A0EE
:100DA0000327C4FE93070007631AF700E1460146D4
:100DB000854513052004EFF06FF8BDA00327C4FE9E
:100DC000930720076319F700E14601468545194559
:100DD000EFF0CFF691A80327C4FE93074007631AEC
:100DE000F700E146014685451305C008EFF00FF511
:100DF00025A80327C4FE93070008631AF700E146FD
:100E00000146854513054004EFF04FF331A8032751
:100E1000C4FE930720086319F700E14601468545A3
:100E20001305E008EFF08FF1032784FE8547631A6E
:100E3000F70093068004014681452945EFF00FF045
:100E4000D5AA032784FE8D47631BF7009306800411
:100E50000146814513057002EFF04FEEE1AA03272A
:100E600084FEC547631AF700930680040146814556
:100E70000D45EFF0AFEC7DAA032784FECD47631B41
:100E8000F700930680040146814513056006EFF0E4
:100E9000EFEA4DA2032784FE93071002631BF700BD
:100EA00093068004014681451305B002EFF00FE977
:100EB00051A2032784FE93073002631BF7009306B9
:100EC0008004014681451305B004EFF02FE79DA291
:100ED000032784FE93075002631BF70093068004E8
:100EE0000146814513059006EFF04FE5A1A20327C7
:100EF00084FE93071004631BF700930680040146E9
:100F000081451305B004EFF06FE32DA2032784FEA3
:100F100093073004631BF700930680040146814564
:100F200013051002EFF08FE131A2032784FE93072F
:100F30001005631BF70093068004014681451305E5
:100F40002006EFF0AFDFFDA0032784FE93073005F6
:100F5000631BF70093068004014681451305900842
:100F6000EFF0CFDDC1A8032784FE93071006631BB3
:100F7000F700930680040146814513051004EFF045
:100F8000EFDB4DA8032784FE93073006631BF700B1
:100F900093068004014681451305B008EFF00FDA8F
:100FA00051A8032784FE93071007631BF7009306DD
:100FB00080040146814513053004EFF02FD89DA829
:100FC000032784FE93073007631AF7009306800413
:100FD000014681451D45EFF06FD6A9A8032784FE81
:100FE00093075007631BF700930680040146814571
:100FF0001305D008EFF08FD435A8032784FE93079C
:101000001008631BF7009306800401468145130511
:101010005004EFF0AFD239A8032784FE93073008BD
:10102000631AF70093068004014681451305F00812
:10103000EFF0CFD00100F2406244056182800111DF
:1010400006CE22CC00102326A4FEAE87A305F4FE14
:10105000F1670327C4FE0A079387C75EBA979C43CC
:101060003E878347B4FE3E86930550523A85EF8013
:101070001077B7E700E09386C1840327C4FE369754
:1010800003470700BA97238007408347B4FE81CF08
:101090001387C1848327C4FEBA9783C707003E85A0
:1010A000EF10100B19A81387C1848327C4FEBA97C9
:1010B00083C707003E85EF10700B0100F2406244C9
:1010C00005618280011122CE00102326A4FE232474
:1010D000B4FEF1670327C4FE0A079387C75EBA9779
:1010E0009C4383D70700C207C18393F707028DC7CC
:1010F000F1670327C4FE0A079387C75EBA979C432C
:1011000083D74700C207C18313F7F70F832784FEF5
:101110002380E700854711A081473E857244056121
:101120008280797106D622D40018232EA4FC232CA9
:10113000B4FC232AC4FC2328D4FC85450545EF8054
:101140008048832504FD032544FDF534032744FD31
:101150008947631CF700032704FD8D476317F700D9
:1011600085451145EF70704995A2032744FDC94795
:10117000631CF700032704FDCD476317F70085457F
:101180002145EF70904799A2032744FD9307200261
:101190006310F702032704FD93073002631AF70078
:1011A0008545B707140013850701EF70104539AA6C
:1011B000032744FD930740026310F702032704FD51
:1011C00093075002631AF7008545B707140013858B
:1011D0000703EF709042DDA8032744FD9307200426
:1011E000631DF700032704FD930730046317F7001E
:1011F00085450565EF707040D1A8032744FD93072E
:1012000020056310F702032704FD93073005631AD6
:10121000F7008545B707200013851700EF70F03DF4
:1012200075A0032744FD930720066310F7020327E8
:1012300004FD93073006631AF7008545B717008051
:1012400013850780EF70703B51A0032744FD93077F
:1012500020076312F702032704FD93073007631C7E
:10126000F700B7070140D44FB707014037074000E8
:10127000558FD8CFA1A8032744FD930740076312D9
:10128000F702032704FD93075007631CF700B70715
:101290000140D44FB707014037078000558FD8CFA2
:1012A00035A0032744FD930720086311F7020327A5
:1012B00004FD93073008631BF700B7070140D44FC4
:1012C000B707014037070002558FD8CF8327C4FDE9
:1012D00091E785451165EF80002F69A80327C4FDBC
:1012E00085476318F700854537050200EF80003217
:1012F00051A00327C4FD89476318F70085453705CA
:101300000400EF80A030BDA00327C4FD8D47631803
:10131000F700854537050800EF80402FA1A8032777
:10132000C4FD91476318F700854537051000EF802D
:10133000E02D89A00327C4FD95476318F700854574
:1013400013050004EF80802C35A00327C4FD9947C6
:101350006318F700854513050008EF80202B19A8B6
:101360000327C4FD9D476317F7008545130500104B
:10137000EF80C029832784FD2320F4FE231204FE7E
:10138000231304FE231404FE231604FEB147231581
:10139000F4FEF1670327C4FD0A079387C75EBA9777
:1013A0009C433E87930704FEBE853A85EF80F01983
:1013B000F1670327C4FD0A079387C75EBA979C436A
:1013C00085453E85EF80B03B0100B2502254456117
:1013D0008280411106C622C4000893858188194580
:1013E000D5310546938581881385019CEF10401DFA
:1013F0000100B240224441018280411106C622C44C
:10140000000893859188054575390546938591882F
:101410001385419DEF10C01A0100B24022444101E2
:101420008280411106C622C4000803A7018A8947A9
:10143000630FF70003A7018A8D476314F700992013
:1014400039A003A7018A91476313F70045280100DB
:10145000B240224441018280411106C622C40008E4
:1014600003A7018A91476314F700DD2839A003A779
:10147000018A8D476313F70085280100B24022449A
:1014800041018280411106C622C4000883C7F18849
:101490003E879387C188BA97BE8511452531AA87B3
:1014A00081CB83C7F188850713F7F70FA387E188FE
:1014B00003C7F1888547631AF70003C7C1889307FC
:1014C000500A6304F700A387018803C7F1888D479A
:1014D0006317F700A387018805472388E188010087
:1014E000B240224441018280411122C600080547D2
:1014F0002385E1880100324441018280411106C602
:1015000022C4000883C771893E8793874189BA97AF
:10151000BE851145453EAA8781CB83C77189850762
:1015200013F7F70FA38BE18803C771898547631A07
:10153000F70003C741899307500A6304F700A38BA0
:10154000018803C771898D476317F700A38B018852
:101550000547238CE1880100B2402244410182808A
:10156000411122C600080547A38CE18801003244DE
:1015700041018280011106CE22CC0010AA87A30768
:10158000F4FEF1679387C75CDC433E8785671CCB1D
:10159000F1679387C75CDC433E8785675CCBF16767
:1015A0009387C75CDC473E87930700105CCB83477B
:1015B000F4FEBE850545EFF04FD8F1679387C75C11
:1015C000DC433E8785671CCBF1679387C75CDC47AC
:1015D0003E87930700101CCBF1679387C75CDC4301
:1015E0003E8785675CCB0100F240624405618280E2
:1015F000011106CE22CC0010AA8736872317F4FEED
:10160000AE872316F4FEB2872315F4FEBA8723149F
:10161000F4FEB707002083C74726C207C1830357DC
:10162000E4FEB337F70093F7F70F3E871306F00495
:10163000F1679385C7203A85EF00B06783C7518073
:10164000C207C1830357C4FEB337F70093F7F70F00
:101650003E8713060005F1679385C7203A85EF00A2
:101660005065B707002083C74726C207C1830357C9
:10167000A4FEB337F70093F7F70F3E871306100564
:10168000F1679385C7203A85EF00B06283C7518028
:10169000C207C183035784FEB337F70093F7F70FF0
:1016A0003E8713062005F1679385C7203A85EF0032
:1016B000506083A7C18991C703A7C1898547631576
:1016C000F7081305A0027D3581450545EFF0EFC60B
:1016D0008357E4FE93F7F70F890793F7F70FBE855B
:1016E0000545EFF08FC581450545EFF00FC58357E0
:1016F000A4FE93F7F70F890793F7F70FBE8505450B
:10170000EFF0AFC31305B002B53581450545EFF0E5
:10171000CFC28357C4FE93F7F70F850793F7F70FF0
:10172000BE850545EFF06FC181450545EFF0EFC07F
:10173000835784FE93F7F70F850793F7F70FBE855E
:101740000545EFF08FBF59A01305A002253581454F
:101750000545EFF08FBE8357E4FE93F7F70F85073B
:1017600093F7F70FBE850545EFF02FBD8145054581
:10177000EFF0AFBC8357A4FE93F7F70F850793F7FD
:10178000F70FBE850545EFF04FBB1305B002DD3303
:1017900081450545EFF06FBA8357C4FE93F7F70F05
:1017A000890793F7F70FBE850545EFF00FB981451F
:1017B0000545EFF08FB8835784FE93F7F70F89073D
:1017C00093F7F70FBE850545EFF02FB71305C0025D
:1017D00055330100F240624405618280797106D67A
:1017E00022D40018AA87231FF4FCB707002083C760
:1017F00047263E8783C75180B307F7022326F4FEAE
:10180000B707002083C74726C207C183FD17139778
:101810000701418383C75180C207C183FD17C207F7
:10182000C183BE863A8681450145D93321A88357B5
:10183000E4FDBE850545EFF0AFB58327C4FEFD1777
:101840002326F4FE8327C4FEFDF30100B250225488
:1018500045618280011122CE00102326A4FE0327B9
:10186000C4FE23AEE1880327C4FE854763EDE7008D
:10187000B7070020130700F82382E726130700FAB2
:10188000A382E18019A8B7070020130700FA23827A
:10189000E726130700F8A382E18001007244056186
:1018A0008280011122CE0010AA872E872317F4FE12
:1018B000BA872316F4FEB70700200357E4FE2390EF
:1018C000E726B70700200357C4FE2391E72601004F
:1018D000724405618280797106D622D40018AA87E5
:1018E000AE863287231FF4FCB687231EF4FCBA872A
:1018F000A30DF4FCB707002083C74726C207C183A6
:101900000357E4FDB337F70093F7F70F3E8713064D
:10191000800FF1679385C7203A85EF00903983C720
:101920005180C207C1830357C4FDB337F70093F753
:10193000F70F3E871306900FF1679385C7203A850E
:10194000EF003037A30704FE75A88347F4FE139712
:10195000070141838357C4FDBA9793950701C1815D
:101960008357E4FD9D071396070141828347F4FEE8
:101970001397070141838357C4FDBA971397070153
:1019800041838357E4FDBA863E859D318307B4FDCC
:10199000938607FE8347F4FE716792061307C760BC
:1019A0003697BA9783C70700A306F4FE230704FE01
:1019B00081A08347D4FE858B91CBB707002083D7C6
:1019C0000726BE850545EFF0AF9C09A8B7070020A4
:1019D00083D72726BE850545EFF08F9B8347D4FE2E
:1019E0008583A306F4FE8347E4FE85072307F4FE00
:1019F0000347E4FE9D47E3FEE7FA8347F4FE8507CD
:101A0000A307F4FE0347F4FEBD47E3F0E7F401004B
:101A1000B250225445618280797106D622D40018D2
:101A2000AA872E87232CC4FC231FF4FCBA87231E0D
:101A3000F4FCB707002083C74726C207C1830357BA
:101A4000E4FDB337F70093F7F70F3E8713067011E5
:101A5000F1679385C7203A85EF00B02583C7518091
:101A6000C207C1830357C4FDB337F70093F7F70FDD
:101A70003E8713068011F1679385C7203A85EF00F2
:101A80005023231704FE3DA88357E4FE8E071397C7
:101A9000070141838357E4FDBA9793960701C182FA
:101AA0008357E4FE032784FDBA9703870700835713
:101AB000C4FD3A86BE853685393D8357E4FE8507E9
:101AC0002317F4FE8357E4FE032784FDBA97838728
:101AD0000700DDFB0100B25022544561828039715C
:101AE00006DE22DC26DA8000AA872324C4FC231722
:101AF000F4FCAE872316F4FCB687A303F4FCBA8784
:101B00002303F4FCB707002083C74726C207C1831D
:101B10000357E4FCB337F70093F7F70F3E8713063C
:101B20005017F1679385C7203A85EF00901883C757
:101B30005180C207C1830357C4FCB337F70093F742
:101B4000F70F3E8713066017F1679385C7203A8524
:101B5000EF003016834774FCB337F00093F7F70FAC
:101B60003E8713067017F1679385C7203A85EF000B
:101B70005014834774FC93B7970093F7F70F3E8791
:101B800013068017F1679385C7203A85EF0070121E
:101B9000834764FCB337F00093F7F70F3E871306D3
:101BA0009017F1679385C7203A85EF00901083471F
:101BB00064FC93B7770093F7F70F3E871306A017DF
:101BC000F1679385C7203A85EF00B00E832784FC28
:101BD0002326F4FEF16783A787262324F4FE9307C8
:101BE00044FD454681453E85EFE0CFE8034774FC60
:101BF000834764FCBA9789073E87930744FD3A867A
:101C0000930500023E85EFE0EFE6034774FCA5472D
:101C100063E3E70605A0F16783A5C726032584FED5
:101C2000EF40116CAA872324F4FE834774FCFD1750
:101C3000A303F4FC834774FCF9FF0325C4FEEF50B3
:101C4000A14FAA84032584FEEF50014FAA87B3C792
:101C5000F4023E85EF506154AA87832584FE3E85B9
:101C6000EF401168AA87BE850325C4FEEF5081109E
:101C7000AA872326F4FE034764FC930744FD3A86B3
:101C80008325C4FE3E85EF00B023930644FD035731
:101C9000C4FC8357E4FC3686BA853E85B53B01001B
:101CA000F2506254D25421618280011106CE22CCBE
:101CB0004ACA4EC852C656C45AC25EC0001083A754
:101CC000C18A13D627001308F00F9307F00F1307EC
:101CD00020029306000281450545EFE0DFBFC146C3
:101CE0000146854513058006EFE05F85C146014644
:101CF00085451305A006EFE07F84C1460146854572
:101D00001305C002EFE09F83C146054685451305D4
:101D1000C006EFE0BF8283A7C1893E85EFF09FB385
:101D2000B707002003D70726B707002083D7272649
:101D3000BE853A85EFF0FFB6F1679387C75CDC4755
:101D40003E87930700405CCB03A7C18A89679387CE
:101D500007F43357F702BA878A07BA9786073E8B8C
:101D6000814B5A85DE85EFE04FEDF1679387C75CC5
:101D7000DC473E87930700401CCB03A7C18A8967D5
:101D8000938707F43357F702BA879207998F8E0724
:101D90003E8A814A5285D685EFE02FEA4545EFF02D
:101DA0006FFD03A7C18A8967938707F43357F7024A
:101DB000BA879207998F8E073E8981494A85CE85D9
:101DC000EFE0AFE71305100BEFF0CFFA85450545BF
:101DD000EFE0BFD69305C0020545EFE01FD693059F
:101DE000D0020545EFE07FD51305200BEFF08FF80B
:101DF00085450545EFE07FD49305C0020545EFE03A
:101E0000DFD39305D0020545EFE03FD31305300B38
:101E1000EFF04FF685450545EFE03FD29305C00250
:101E20000545EFE09FD19305D0020545EFE0FFD0D7
:101E300085450545EFE07FD09305C0020545EFE0FD
:101E4000DFCF9305D0020545EFE03FCF1305400BF0
:101E5000EFF04FF29D450545EFE03FCE1305000C36
:101E6000EFF04FF19305200A0545EFE01FCD8945BE
:101E70000545EFE09FCC930540080545EFE0FFCB1B
:101E80001305100CEFF00FEF9305500C0545EFE034
:101E9000DFCA1305200CEFF0EFEDA9450545EFE093
:101EA000DFC981450545EFE05FC91305300CEFF050
:101EB0006FEC9305A0080545EFE03FC89305A0022D
:101EC0000545EFE09FC71305400CEFF0AFEA93051F
:101ED000A0080545EFE07FC69305E00E0545EFE05D
:101EE000DFC51305500CEFF0EFE8B9450545EFE00D
:101EF000DFC413056003EFF0EFE783A7C18905474F
:101F00006380E70281CB09476381E7020D47638461
:101F1000E70205A89305000C0545EFE01FC215A0D8
:101F200081450545EFE07FC129A89305000A0545D5
:101F3000EFE0BFC039A0930500060545EFE0FFBF05
:101F400001001305000EEFF0EFE2BD450545EFE09F
:101F5000DFBEE9450545EFE05FBEBD450545EFE065
:101F6000DFBDE1450545EFE05FBD9305F0020545A6
:101F7000EFE0BFBC930580020545EFE01FBC930571
:101F800000020545EFE07FBB930520020545EFE029
:101F9000DFBAFD450545EFE05FBAED450545EFE0E9
:101FA000DFB9930530020545EFE03FB993057003B3
:101FB0000545EFE09FB881450545EFE01FB89D4519
:101FC0000545EFE09FB789450545EFE01FB7C145DF
:101FD0000545EFE09FB61305100EEFF0AFD9BD45F4
:101FE0000545EFE09FB5ED450545EFE01FB5BD4563
:101FF0000545EFE09FB4DD450545EFE01FB49305CF
:1020000030030545EFE07FB39305C0020545EFE0DF
:10201000DFB2930590020545EFE03FB29305E00281
:102020000545EFE09FB1930500030545EFE0FFB0E4
:10203000930500030545EFE05FB093059003054568
:10204000EFE0BFAF9305F0030545EFE01FAF81451B
:102050000545EFE09FAE9D450545EFE01FAE8D4580
:102060000545EFE09FADC1450545EFE01FAD130508
:10207000A002EFF02FD081450545EFE01FAC894568
:102080000545EFE09FAB81450545EFE01FAB9305AC
:1020900020080545EFE07FAA1305B002EFF08FCDD1
:1020A00081450545EFE07FA98D450545EFE0FFA897
:1020B00081450545EFE07FA8930530080545EFE031
:1020C000DFA71305000FEFF0EFCA85450545EFE0E8
:1020D000DFA61305600FEFF0EFC981450545EFE07E
:1020E000DFA51305A003EFF0EFC895450545EFE028
:1020F000DFA413059002EFF0EFC7B707002083D7E6
:1021000027263E85EFF08FED0100F24062445249F0
:10211000C249324AA24A124B824B05618280411168
:1021200006C622C400089385818A0545EFE09FF921
:1021300005469385818A1385819E59210100B2400D
:10214000224441018280411106C622C400089385C1
:10215000918A0545EFE01FF705469385918A13851F
:10216000C19FB9290100B24022444101828001117E
:1021700006CE22CC00102326A4FE0327C4FE23A6ED
:10218000E18A19280325C4FE5920EF00E07F0100F1
:10219000F240624405618280411122C60008B717EF
:1021A00002409843B71702401367170098C3B71748
:1021B0000240D443B71702403707FFF8758FD8C3E2
:1021C000B71702409443B71702403707F7FE7D1751
:1021D000758F98C3B71702409443B717024037076B
:1021E000FCFF7D17758F98C3B7170240D443B7170C
:1021F0000240370781FF7D17758FD8C3B71702409C
:1022000037079F0098C701003244410182807971ED
:1022100022D60018232EA4FC232604FE232404FE29
:10222000B71702409443B71702404167558F98C3D0
:10223000B71702409843B7070200F98F2324F4FE32
:102240008327C4FE85072326F4FE832784FE99E7AF
:102250000327C4FE93070050E31CF7FCB7170240A6
:102260009843B7070200F98F89C785472324F4FEF6
:1022700019A0232404FE032784FE85476315F71E57
:10228000B72702409843B72702401367070198C356
:10229000B72702409843B7270240719B98C3B727DE
:1022A000024094438327C4FD1387F7FFB7376E01BD
:1022B00093870760B357F70213F77700B7270240F9
:1022C000558F98C337170240B71702405843D8C3F9
:1022D00037170240B71702405843D8C33717024098
:1022E000B71702405843D8C30327C4FDB7177A0075
:1022F00093870720631BF702B7170240D843B7172D
:102300000240719BD8C3B7170240D843B7170240A9
:1023100013671700D8C30100B7170240DC4313F757
:10232000C7009147E31AF7FE81A2B7170240D443D2
:10233000B71702403707C1FF7D17758FD8C3032732
:10234000C4FDB747950893870740631BF700B7178D
:102350000240D443B71702404167558FD8C355A8F0
:102360000327C4FDB7172707938707E0631CF7000F
:10237000B7170240D443B717024037073900558FCB
:10238000D8C341A80327C4FDB7E7B80593870780E2
:10239000631CF700B7170240D443B7170240370752
:1023A0002900558FD8C3B5A00327C4FDB7A74A0499
:1023B00093870720631CF700B7170240D443B71771
:1023C000024037071D00558FD8C3A1A00327C4FDC5
:1023D000B777DC02938707C0631CF700B71702408A
:1023E000D443B717024037071100558FD8C315A043
:1023F0000327C4FDB7376E0193870760631BF7009F
:10240000B7170240D443B717024037070500558F6E
:10241000D8C3B71702409443B717024037070001EB
:10242000558F98C30100B71702409843B7070002C1
:10243000F98FF5DBB7170240D843B7170240719BFD
:10244000D8C3B7170240D843B71702401367270015
:10245000D8C30100B7170240DC4313F7C700A147F8
:10246000E31AF7FE11A001A03254456182804111A8
:1024700022C600080100010032444101828041115E
:1024800006C622C400089306100213060002F16774
:10249000938507200945EFE0DFC885450945EFE052
:1024A0001FBA05472388E18A0100B2402244410156
:1024B0008280011106CE22CC0010AA872324B4FE0C
:1024C0002322C4FEA307F4FE8347F4FE85E383C7FB
:1024D000018B91CB032644FE832584FEF16713858F
:1024E0000727EF503131F9295937FDBF0100F2407C
:1024F000624405618280797106D622D40018232EA9
:10250000A4FC232CB4FC232AC4FC232604FEA9A08B
:102510000100F1679387C75E9C47930500043E85E1
:10252000EF70103BAA87F5D7F1679387C75E9C478A
:10253000BE86832784FD13871700232CE4FC838742
:102540000700C207C183BE853685EF7090358327AB
:10255000C4FE85072326F4FE0327C4FE832744FD1B
:10256000E348F7FA832744FD3E85B2502254456183
:102570008280011122CE00102326A4FE2324B4FE63
:102580008327C4FED843832784FE3E978327C4FE57
:10259000D8C319A88327C4FED8438327C4FE9C4B05
:1025A0001D8F8327C4FED8C38327C4FE984B83277F
:1025B000C4FEDC43E3F0E7FE010072440561828063
:1025C000797106D622D40018232EA4FC232CB4FC47
:1025D000232AC4FC8327C4FDDC47032744FD637B17
:1025E000F70CCD268327C4FD984B8327C4FDDC431D
:1025F000B307F7402326F4FE032744FD8327C4FED8
:1026000063FBE7068327C4FD98438327C4FDDC43AF
:10261000BA970326C4FE832584FD3E85EF40D17220
:102620008325C4FE0325C4FDA937032784FD832722
:10263000C4FEBA97232CF4FC8327C4FD9843832758
:10264000C4FDDC43B306F700032744FD8327C4FE23
:10265000B307F7403E86832584FD3685EF40D16E73
:10266000032744FD8327C4FEB307F740BE85032537
:10267000C4FD013725A08327C4FD98438327C4FDEB
:10268000DC43BA97032644FD832584FD3E85EF4055
:10269000B16B832544FD0325C4FDE13D8327C4FDC3
:1026A000D847832744FD1D8F8327C4FDD8C7E52461
:1026B000814711A089473E85B250225445618280EE
:1026C0001D7186CEA2CC80102326A4FA2324B4FA4E
:1026D000B287A303F4FA232604FE232404FEA303F3
:1026E00004FE032584FAEF403125AA872326F4FE51
:1026F00093050000032584FAEF40C135AA8763DD06
:1027000007008327C4FA138717002326E4FA130768
:10271000D0022380E700A1A093050000032584FADE
:10272000EF402125AA8785EF8327C4FA1387170076
:102730002326E4FA130700032380E7008327C4FA63
:10274000138717002326E4FA1307E0022380E7002B
:102750008327C4FA130700032380E70061A203253F
:10276000C4FEEF409123AA87BE85032584FAEF407B
:102770006160AA872324F4FA19A8F16783A5872B3F
:10278000032584FAEF40C135AA872324F4FA83474E
:1027900074FA1387F7FFA303E4FAE5F3032584FA39
:1027A000EF409119AA872324F4FE1DA8834774FEE5
:1027B00013871700A303E4FEBE860327C4FEA947C0
:1027C0003367F70293972600930604FFB69723A07A
:1027D000E7FE0327C4FEA947B347F7022326F4FE0A
:1027E0008327C4FEE1F7A1A0834774FEFD178A0783
:1027F000130704FFBA9783A707FE13D7F741B98FD2
:10280000998F93F7F70F9387070393F6F70F8327B3
:10281000C4FA138717002326E4FA13978601618709
:102820002380E700834774FEFD17A303F4FE83476C
:1028300074FEDDFB8327C4FA138717002326E4FA0E
:102840001307E0022380E700832784FEB1E3832798
:10285000C4FA130700032380E70069A0834774FECE
:1028600013871700A303E4FEBE86032784FEA9474F
:102870003367F70293972600930604FFB69723A6C3
:10288000E7FC032784FEA947B347F7022324F4FE9D
:10289000832784FEE1F7A1A0834774FEFD178A0712
:1028A000130704FFBA9783A7C7FC13D7F741B98F63
:1028B000998F93F7F70F9387070393F6F70F832703
:1028C000C4FA138717002326E4FA13978601618759
:1028D0002380E700834774FEFD17A303F4FE8347BC
:1028E00074FEDDFBF640664425618280011122CE34
:1028F00000102326A4FE8327C4FEFD8B0547B316D4
:10290000F70037E700E08327C4FE95839387070429
:102910008A07BA9794C3010072440561828001114D
:1029200022CE00102326A4FE8327C4FEFD8B05477C
:10293000B316F70037E700E08327C4FE958393873B
:1029400007068A07BA9794C3010072440561828022
:10295000011106CE22CC00102326A4FE0325C4FEBE
:1029600071370100F240624405618280011106CE98
:1029700022CC00102326A4FE0325C4FE4D370100FF
:10298000F240624405618280411122C600080100C4
:10299000324441018280411106C622C4000883A747
:1029A000418B99C783A7418B1387F7FF23AAE18A3D
:1029B00083A7418B99E3EFD01F850100B2402244E9
:1029C00041018280411106C622C4000883A7418BC1
:1029D00099E3EFD0FF8283A7418B1387170023AAC7
:1029E000E18A0100B240224441018280011122CEDD
:1029F00000102326A4FE8327C4FEFD8B0547B316D3
:102A0000F70037E700E08327C4FE95839387070428
:102A10008A07BA9794C3010072440561828001114C
:102A200022CE00102326A4FEAE87A305F4FE37E7CE
:102A300000E08327C4FEBA970347B4FE2380E74033
:102A40000100724405618280011106CE22CC001083
:102A5000232204FE232404FE232604FE85451305B9
:102A60000004EF6050368967938707802312F4FED5
:102A7000C1472326F4FE8D472324F4FE930744FE2A
:102A8000BE85B727014013850780EF60A00C054580
:102A90000128054581280100F240624405618280D9
:102AA000011106CE22CC0010AA87A307F4FE8347AB
:102AB000F4FE99CB856793850780B727014013857E
:102AC0000780EF60C02B11A8856793850780B72723
:102AD000014013850780EF60A02C0100F2406244A2
:102AE00005618280011106CE22CC0010AA87A307BF
:102AF000F4FE8347F4FE89CB8565B7270140138533
:102B00000780EF60C02701A88565B72701401385BE
:102B10000780EF60E0280100F24062440561828096
:102B2000011106CE22CC0010AA87A307F4FE83472A
:102B3000F4FE91CB8347F4FEBE85F1671385072D24
:102B4000EF50414B11A00100F240624405618280C8
:102B5000397106DE22DC80002326A4FC2324B4FC89
:102B60002322C4FC2320D4FC9307005F232CF4FC15
:102B700093070032232EF4FC85679387871F232059
:102B8000F4FEA9472322F4FE9307B0022324F4FEA7
:102B9000930784FD3E85EF809050832604FC032636
:102BA00044FC832584FC0325C4FCEF801040AA87E5
:102BB000A307F4FE8347F4FE3E85F2506254216180
:102BC0008280011106CE22CC4ACA4EC852C656C4D3
:102BD00000100145EF6050444145EF60503B3565C2
:102BE000EF60303F2D45EF60902F0545EF60D042FC
:102BF00003A7C18A8967938707F43357F7029307BE
:102C00004006B307F7023E8A814A5285D685EFD047
:102C1000DF8215A003A7C18A8967938707F433571A
:102C2000F7029307401FB307F7023E8981494A859F
:102C3000CE85EFD09F801305D003EF60702CAA875C
:102C4000F1DB85450545EF60B0130100F2406244B9
:102C50005249C249324AA24A05618280011106CE18
:102C600022CC0010232204FE232404FE231604FE9B
:102C700085450545EF6090199307700C2314F4FE09
:102C800089679387F7C12312F4FE231504FE2313EB
:102C900004FE930744FEBE8537050040EF60B05C3C
:102CA0000546854537050040EF6050798545370575
:102CB0000040EF603073854537050040EF70000637
:102CC000930500081305C002EFF07FD51305C0027D
:102CD000EFF0DFD10100F2406244056182805D7156
:102CE00086C6A2C48008930704FB1306C00381456F
:102CF0003E85EFD02FD883A74181232EF4FC83D7C4
:102D00008181232AF4FC83D7A181138717009316AE
:102D10000701C182239DD180232CF4FC8D472326FB
:102D2000F4FC83C7E18B3E87930700643307F70207
:102D3000B7970020938787CFBA97232CF4FA93078D
:102D40000064232EF4FA930704FBBE851385E18B00
:102D5000EF80704CAA87A307F4FE83C7E18BBE8582
:102D6000F1671385072EEF50E1288347F4FE3E8577
:102D7000EFF01FDB83C7E18B3E85EF900059AA87F8
:102D8000A307F4FE8347F4FE3E85EFF07FD90100F0
:102D9000B640264461618280797106D622D44AD237
:102DA0004ED00018AA872E87A30FF4FCBA87230FF2
:102DB000F4FC8347E4FD918B85CF8347F4FD814587
:102DC0003E85EF90E001AA872326F4FE9307C4FE18
:102DD0000347F4FD3E86B7C70020938587EF3A8509
:102DE000EF80D062B7C70020138587EFEF306070A7
:102DF0008347E4FDA18B91C7F1671385872FEF50BF
:102E0000C1318347E4FDC18B91C7F1671385073159
:102E1000EF50A1308347E4FD93F707048DCBF167B2
:102E200013850732EF50612F03A7C18A8967938703
:102E300007F43357F7029307800CB307F7023E8974
:102E400081494A85CE85EFD04FDFEFF05FE9010081
:102E5000B25022541259825945618280011106CE26
:102E600022CC0010EF908029AA87A306F4FE8347A6
:102E7000D4FE858B91C7F1671385C732EF50E129E6
:102E80008347D4FE898B91C7F16713850734EF50D0
:102E9000C1288347D4FE918B99CFEF906046AA87D3
:102EA0002317F4FE8357E4FE918B91C7F1671385D6
:102EB0008735EF5081268347D4FEC18BA9C72317DE
:102EC00004FE2DA88357E4FE93F7F70F3E85EF909D
:102ED0002024AA872306F4FE8347C4FE99CB835798
:102EE000E4FE93F7F70F0347C4FEBA853E85EFF083
:102EF000BFEA8357E4FE85072317F4FE0357E4FE79
:102F00009D47E3F1E7FC0100F240624405618280E5
:102F1000011106CE22CC4ACA4EC80010EFF07FCA7B
:102F2000EFF0DFD31385818BEF80A00F9386818B29
:102F3000138601819385C18013858180EFF05FC185
:102F4000AA87A307F4FE15A003A7C18A8967938700
:102F500007F43357F70293074006B307F7023E8999
:102F600081494A85CE85EFD04FCDEF906039AA8751
:102F7000918BF9DBEFF0BFD60100F2406244524979
:102F8000C24905618280597186D6A2D48018AA8769
:102F9000A30FF4F8AE87230FF4F8B287A30EF4F86A
:102FA000B687231DF4F8BA87230EF4F8232204FE13
:102FB000232404FE232604FE232204FC232404FCF1
:102FC000232604FC232804FC232A04FC232C04FCD1
:102FD000232E04FC232004FE232804FA232A04FAC7
:102FE000232C04FA232E04FA232004FC85451545DE
:102FF000EF60605D854537050002EF602061856701
:103000002312F4FEE1472326F4FE8D472324F4FE29
:10301000930744FEBE85B717014013850780EF5024
:1030200070338567938707802312F4FE930780042B
:103030002326F4FE930744FEBE85B717014013858F
:103040000780EF503031232604FC232804FC232A78
:1030500004FC8547232CF4FC232E04FC232004FECF
:103060008347C4F92303F4FC8347F4F9A303F4FC76
:103070008347D4F92304F4FC8347E4F9A304F4FC64
:103080008357A4F92312F4FC930744FCBE85B76769
:10309000004013850740EF406023230D04FA854765
:1030A000A30DF4FA230E04FA930700062318F4FA8A
:1030B000930700042319F4FA93070002231AF4FA81
:1030C000231B04FA231C04FA85472320F4FC9307EE
:1030D00004FB3E85EF4060428945B7670040138599
:1030E0000740EF40D067930740022304F4FA854776
:1030F000A304F4FA230504FA85472326F4FA930778
:1031000084FA3E85EF50D07705468945B767004081
:1031100013850740EF40B03F0100B650265465616B
:103120008280397106DE22DC80002326A4FCAE8773
:103130002322C4FCA305F4FC231704FE832744FCCC
:10314000232CF4FC230004FEA30004FE8347B4FCFC
:103150002301F4FE231704FE25A08357E4FE032772
:10316000C4FC3E978357E4FE03470700930604FF21
:10317000B697A389E7FE8357E4FE85072317F4FE7D
:103180008347B4FCC207C1830357E4FEE367F7FC3F
:10319000930784FDBE85B767004013850740EF4065
:1031A000405DAA87A306F4FE231704FE31A08357CF
:1031B000E4FE85072317F4FE8347D4FEBE85B76778
:1031C000004013850740EF40407DAA873E87854732
:1031D0006308F7000357E4FE8567F917E3F9E7FC96
:1031E0000357E4FE8567FD176314F700854711A0B8
:1031F00081473E85F250625421618280397106DE3A
:1032000022DC80002326A4FC8145B767004013859B
:103210000740EF40502AAA8799E3814781A8930786
:1032200084FD3E868145B767004013850740EF4027
:10323000B008A30704FE25A00347F4FE8347F4FE6D
:103240008326C4FCB697930604FF3697034737FFDF
:103250002380E7008347F4FE8507A307F4FE0347B6
:10326000F4FE9D47E3FAE7FC834724FE3E85F250D7
:10327000625421618280011106CE22CC00102326E7
:10328000A4FEF16783A507380325C4FEEF30414350
:10329000AA873E85F240624405618280011106CE14
:1032A00022CC00102326A4FEF16783A5073803254E
:1032B000C4FEEF30F102AA873E85F2406244056108
:1032C0008280397106DE22DC8000232EA4FC232CB0
:1032D000B4FC232AC4FC2328D4FC2326E4FC2324A6
:1032E000F4FC232404FE7DA8232204FE4DA09307B2
:1032F00000002326F4FE232004FEB9A80327C4FC03
:10330000832784FE3307F702832704FEBA978A07D0
:103310000327C4FDBA979443032784FC832704FE44
:103320003307F702832744FEBA978A07032784FDF1
:10333000BA979C43BE853685EF30817AAA87BE85D1
:103340000325C4FEEF302101AA872326F4FE83273C
:1033500004FE85072320F4FE032704FE8327C4FC14
:10336000E34EF7F8032784FC832784FE3307F70234
:10337000832744FEBA978A07032744FDBA97032799
:10338000C4FE98C3832744FE85072322F4FE032747
:1033900044FE832784FCE34CF7F4832784FE8507EF
:1033A0002324F4FE032784FE832704FDE34EF7F273
:1033B0000100F250625421618280397106DE22DC04
:1033C00026DA4AD880002326A4FC2324B4FC8327D1
:1033D00084FCB1070327C4FC184398C3832784FCEB
:1033E000F1070327C4FC584398C3832784FC9387C1
:1033F000C7020327C4FC184798C3832784FC93871C
:1034000007031307000098C3832784FC93874703AF
:1034100098C3832784FC9387870398C3832784FCFE
:103420009387C70371670327473898C38327C4FC72
:10343000B1079C433E85EFE070342326A4FE83272A
:10344000C4FCB1079C433E85EFE0F03B2324A4FE7F
:103450008327C4FCC1079C433E85EFE03032232222
:10346000A4FE8327C4FCC1079C433E85EFE0B0392E
:103470002320A4FE8327C4FCD1079C433E85EFE0B4
:10348000F02F232EA4FC8327C4FCD1079C433E8548
:10349000EFE07037232CA4FC832544FE0325C4FEF3
:1034A000EF300164AA873E87832784FC98C3832575
:1034B00004FE0325C4FEEF30A162AA87832584FDA4
:1034C0003E85EF30E161AA873E898325C4FD03254F
:1034D00084FEEF30E160AA873E87832784FC9384D3
:1034E0004700BA854A85EF30F108AA879CC083253A
:1034F00004FE0325C4FEEF30A15EAA878325C4FD28
:103500003E85EF30E15DAA873E89832584FD032552
:1035100084FEEF30E15CAA873E87832784FC938496
:103520008700BA854A85EF201163AA879CC083274C
:1035300084FC93840701832544FE032584FEEF3039
:10354000215AAA879CC0832504FE032584FEEF3000
:103550002159AA87832584FD3E85EF306158AA87CB
:103560003E898325C4FD0325C4FEEF306157AA8739
:103570003E87832784FC93844701BA854A85EF20E0
:10358000915DAA879CC0832504FE032584FEEF304D
:103590002155AA878325C4FD3E85EF306154AA8753
:1035A0003E89832584FD0325C4FEEF306153AA873D
:1035B0003E87832784FC93848701BA854A85EF3050
:1035C000617BAA879CC0832784FC9387070283269C
:1035D00004FE37070080358F98C3832784FC9384CB
:1035E0004702832584FD032544FEEF30614FAA87FF
:1035F0009CC0832784FC938487028325C4FD032514
:1036000044FEEF30E14DAA879CC00100F2506254A5
:10361000D2544259216182802D71232E1110232C06
:103620008110232A911023282111232631112324CC
:1036300041112322511100122326A4EE2324B4EEBB
:103640002322C4EE832784EE9107232AF4FCA30FE0
:1036500004FC832784EED1072328F4FC832784EE1F
:10366000938747032326F4FC832784EE938747053B
:103670002324F4FC832784EE938747072322F4FC5A
:10368000832784EE938747092320F4FC230F04FC4F
:1036900079A00347E4FD8D4763ECE7008347E4FD31
:1036A0008A07032744FDBA9771670327873998C3B0
:1036B0008347E4FD8A07032704FDBA977167032750
:1036C000873998C38347E4FD8A070327C4FCBA9768
:1036D00071670327873998C38347E4FD8A07032767
:1036E00084FCBA9771670327873998C38347E4FD41
:1036F0008A07032744FCBA9771670327873998C361
:103700008347E4FD8A07032704FCBA977167032700
:10371000873998C38347E4FD8507230FF4FC0347EB
:10372000E4FD9D47E3F7E7F68327C4EEDC47232E4D
:10373000F4FA8327C4EEDC4F232CF4FA8327C4EE7B
:10374000DC57232AF4FA8325C4FB0325C4FBEF309E
:103750002139AA87BE84832584FB032584FBEF30AF
:103760002138AA87BE852685EF20F13EAA87BE8430
:10377000832544FB032544FBEF308136AA87BE85B1
:103780002685EF20513DAA872328F4FAF16783A705
:1037900047382326F4FA832704FBBE853E85EF20B5
:1037A000913BAA87BE84F16703A7C739F16783A558
:1037B000073A3A85EF30C132AA873E87F16783A77F
:1037C000C739BE853A85EF30A131AA87BE852685E7
:1037D000EF207138AA873E87B7070080B98F23246E
:1037E000F4FA832504FB032504FBEF30612FAA873D
:1037F000BE84F16703A7C739F16783A5073A3A8505
:10380000EF30012EAA873E87F16783A7C739BE85AF
:103810003A85EF30E12CAA873E89F16783A7473AC2
:10382000BE85032544FBEF30E154AA873E87F1674C
:1038300083A7873ABE853A85EFE0B01DAA89F16774
:1038400003A7C739F16783A7C739BE853A85EF302B
:103850002129AA87BE854E85EF20F12FAA87BE8930
:10386000F16783A7473ABE853E85EF20D12EAA8710
:10387000832544FB3E85EF30A126AA87BE854E8571
:10388000EF20712DAA87BE89F16703A7473AF16738
:1038900083A7473ABE853A85EF308124AA87BE8543
:1038A0004E85EF30214DAA87BE854A85EF304123F2
:1038B000AA87BE852685EF20112AAA872322F4FA3B
:1038C000F16783A7873ABE85032584FAEFE0701479
:1038D000AA873E85EF30D1182A89AE890325C4FA1C
:1038E000EF301118F16703A6073B83A6473BEF10A3
:1038F0009159AA872E883E8AC28A032544FAEF305E
:103900003116AA872E883E86C2865285D685EF104C
:103910009157AA872E883E86C2864A85CE85EF209B
:103920000122AA872E883E85C285EF30311EAA87E4
:103930002320F4FAF16783A5873B032504FAEF30CF
:103940000109AA876344F0006F10D003032704FA2B
:10395000B707008093C7F7FFF98F2320F4FA0327F6
:1039600084FAB7070080B344F700032504FAEFE0B8
:10397000103EAA87BE852685EF30C13FAA87BE8448
:103980008327C4FABE853E85EF20F11CAA87BE8539
:103990002685EF20F152AA87232EF4F8032504FA96
:1039A000EFE0F03AAA87832584FA3E85EF30813C28
:1039B000AA87BE848327C4FABE853E85EF20B1194D
:1039C000AA87BE852685EF20B14FAA87232CF4F85D
:1039D000F16703A7C73BF16783A7C73BBE853A855D
:1039E000EF300110AA87BE84F16703A7073CF16797
:1039F00083A7073CBE853A85EF30810EAA87BE8536
:103A00002685EF205115AA87BE84F16703A7473C9E
:103A1000F16783A7473CBE853A85EF30610CAA87E2
:103A2000BE852685EF203113AA87BE84F16703A7E0
:103A3000C739F16783A7C739BE853A85EF30410A98
:103A4000AA87BE852685EF201111AA87BE84F1675B
:103A500083A7473ABE853E85EF20F10FAA878325CD
:103A600044FB3E85EF30C107AA87BE852685EF203F
:103A7000910EAA87BE84F16703A7473AF16783A72F
:103A8000473ABE853A85EF30A105AA87BE852685CF
:103A9000EF30412EAA87232AF4F88325C4F90325A1
:103AA00044F9EF30212DAA87BE84F16783A7473CF4
:103AB000BE853E85EF20310AAA873E87F16783A73E
:103AC000C73BBE853A85EF30A101AA87BE85268512
:103AD000EF30412AAA872328F4F8F16703A7473C6F
:103AE000F16783A5073A3A85EF20917FAA873E8741
:103AF000F16783A7073CBE853A85EF20717EAA87D0
:103B00002326F4F8F16783A7473CBE853E85EF2066
:103B10009104AA873E87F16783A7C73BBE853A8594
:103B2000EF20117CAA87832544F93E85EF20B1025E
:103B3000AA878325C4F93E85EF30C123AA872324B1
:103B4000F4F8F16783A7873ABE850325C4F8EFE050
:103B5000406CAA84F16783A5073A032504F9EF2096
:103B60003178AA87832584F83E85EF207177AA876C
:103B7000BE852685EF300120AA872322F4F883250D
:103B800084F9032544F9EF30E11EAA87BE84F1676A
:103B900083A7473CBE853E85EF20E17BAA873E8711
:103BA000F16783A7C73BBE853A85EF207173AA876B
:103BB000BE852685EF30011CAA872320F4F88327D1
:103BC000C4F8232EF4F6F16783A7473CBE853E85F3
:103BD000EF206178AA873E87F16783A7C73BBE8540
:103BE0003A85EF20F16FAA87832544F93E85EF20BF
:103BF0008176AA87832584F93E85EF30A117AA87AD
:103C0000232CF4F6F16783A7873ABE850325C4F712
:103C1000EFE02060AA84F16783A5073A032504F842
:103C2000EF20116CAA87832584F73E85EF20516B26
:103C3000AA87BE852685EF30E113AA87232AF4F6EA
:103C4000A30E04FCF16783A5873B032544F8EF200E
:103C50001158AA876356F00E032744F8B70700806F
:103C600093C7F7FFF98F2322F4F80327C4F8B707A7
:103C70000080B344F700032544F8EFE0500DAA8715
:103C8000BE852685EF30010FAA87BE84832704F9FD
:103C9000BE853E85EF20216CAA87BE852685EF2054
:103CA0003122AA872328F4F6032544F8EFE0300AEE
:103CB000AA878325C4F83E85EF30C10BAA87BE844E
:103CC000832704F9BE853E85EF20E168AA87BE857B
:103CD0002685EF20F11EAA872326F4F6032504F794
:103CE000EFE04001AA87BE853E85EF20C166AA8726
:103CF0002324F4F60325C4F6EFD0D07FAA87BE852F
:103D00003E85EF204165AA872322F4F68347D4FD40
:103D10008A07130704FEBA97032784F623AAE7F05D
:103D20008347D4FD85078A07130704FEBA97032744
:103D300044F623AAE7F08347D4FD8907A30EF4FCD9
:103D4000F16783A5873B032544F7EF205148AA87F5
:103D50006356F00E032744F7B707008093C7F7FFB9
:103D6000F98F232AF4F60327C4F7B7070080B3447A
:103D7000F700032544F7EFE0807DAA87BE852685FE
:103D8000EF20517FAA87BE84832704F8BE853E8535
:103D9000EF20615CAA87BE852685EF207112AA8775
:103DA0002320F4F6032544F7EFE0607AAA87832501
:103DB000C4F73E85EF20117CAA87BE84832704F8D0
:103DC000BE853E85EF202159AA87BE852685EF2036
:103DD000310FAA87232EF4F4032504F6EFD0907157
:103DE000AA87BE853E85EF200157AA87232CF4F4CD
:103DF0000325C4F5EFD01070AA87BE853E85EF205D
:103E00008155AA87232AF4F48347D4FD8A07130730
:103E100004FEBA97032784F523AAE7F08347D4FD6D
:103E200085078A07130704FEBA97032744F523AAD8
:103E3000E7F08347D4FD8907A30EF4FC8347D4FD44
:103E400099E36F10E033230E04FCA5A28347C4FD61
:103E5000A30DF4FCA1A28347B4FD8A07130704FE57
:103E6000BA9783A747F13E85EF30813FF16703A6FC
:103E7000873C83A6C73CEF00F115AA872E883E85B4
:103E8000C285EF30A1482A87B707008093C7F7FFA4
:103E90007D8FF16783A5073D3A85EF205133AA87CF
:103EA0006350F0088347C4FD8A07032744FDBA978F
:103EB0009C433E85EF30C13AF16703A6873C83A659
:103EC000C73CEF003111AA872E883E85C285EF30AE
:103ED000E1432A87B707008093C7F7FFF98F3E8534
:103EE000EF300138F16703A6873D83A6C73DEF1089
:103EF000216EAA8763D607028347B4FD0347C4FD3A
:103F00000A07832644FD36978A07930604FEB69770
:103F100083A747F11CC38347F4FD8507A30FF4FC77
:103F20000347C4FD8347B4FD6305F7068347C4FD1B
:103F30008A07130704FEBA9703A747F18347B4FD26
:103F40008A07930604FEB69783A747F1BE853A8594
:103F5000EF205162AA873E87B707008093C7F7FF1B
:103F6000F98F3E85EF30C12FF16703A6073E83A688
:103F7000473EEF10E165AA8763DD07008347B4FD84
:103F80008A07130704FEBA9771670327873923AAA4
:103F9000E7F08347B4FD8507A30DF4FC0347B4FDA8
:103FA0008347D4FDE369F7EA8347C4FD8507230E01
:103FB000F4FC0347C4FD8347D4FDE369F7E8832796
:103FC00084EE0347F4FD2380E700230D04FC99A44D
:103FD000F16783A4C73B8347A4FD8A07032744FDF9
:103FE000BA979C433E85EFD07079AA87BE85268517
:103FF000EF20112FAA873E89F16783A4073C8347EE
:10400000A4FD8A07032744FDBA979C433E85EFD061
:10401000907FAA87BE852685EF20912CAA87BE8532
:104020004A85EF204133AA873E87F16783A7473C43
:10403000BE853A85EF202132AA872328F4F4F16760
:1040400083A4C73B8347A4FD8A07032744FDBA978F
:104050009C433E85EFD0307BAA87BE852685EF2026
:104060003128AA873E89F16783A4073C8347A4FDD2
:104070008A07032744FDBA979C433E85EFD0107012
:10408000AA87BE852685EF20B125AA87BE854A85E9
:10409000EF20514EAA872326F4F4F16783A7473A0D
:1040A000BE85032544FBEF20F14CAA87BE8503257E
:1040B000C4F4EF20412AAA872324F4F4F16783A5EE
:1040C000873E032504F5EF20B121AA872322F4F4CB
:1040D000F16783A7473ABE85032544FBEF2091494A
:1040E000AA878325C4F43E85EF20D148AA872320E0
:1040F000F4F4F16783A7873ABE85032544F4EFE023
:104100004011AA84F16783A5073A032584F4EF20C0
:10411000311DAA87832504F43E85EF20711CAA87F0
:10412000BE852685EF201145AA87232EF4F2F1677C
:1041300083A5873B0325C4F3EF207109AA87635643
:10414000F00C032744F4B7070080B344F7000325BD
:10415000C4F3EFE0C03FAA87BE852685EF209141DA
:10416000AA87BE84832784F4BE853E85EF20A11EE6
:10417000AA87BE852685EF20A154AA87232CF4F2B6
:104180000325C4F3EFE0A03CAA87832544F43E85D1
:10419000EF20513EAA87BE84832784F4BE853E85E6
:1041A000EF20611BAA87BE852685EF206151AA8773
:1041B000232AF4F2032584F3EFD0D033AA87BE85F7
:1041C0003E85EF204119AA872328F4F2032544F302
:1041D000EFD05032AA87BE853E85EF20C117AA874F
:1041E0002326F4F28347A4FD8E070327C4FCBA9765
:1041F000032704F398C38347A4FD8E079107032781
:10420000C4FCBA970327C4F298C38347A4FD85076B
:10421000230DF4FC0347A4FD8347F4FDE36AF7DABA
:10422000A30C04FC95A4834794FD8A070327C4FCD0
:10423000BA979C433E85EF30A102F16703A6873C05
:1042400083A6C73CEF000159AA872E883E85C28508
:10425000EF30C10B2A87B707008093C7F7FF7D8F28
:10426000F16783A5073D3A85EF206176AA876358F9
:10427000F020834794FD8A070327C4FCBA979C4328
:104280003E85EFD0B04F2A89F16783A4C73B8347AF
:1042900094FD858393F7F70F8A07032744FDBA97A8
:1042A0009C433E85EFD0904DAA87BE852685EF20A2
:1042B0003103AA87BE89F16783A4073C834794FD35
:1042C000858393F7F70F8A07032744FDBA979C432A
:1042D0003E85EFD05053AA87BE852685EF2051003A
:1042E000AA87BE854E85EF200107AA873E87F16722
:1042F00083A7473CBE853A85EF20E105AA87BE85A6
:104300004A85EF20E17DAA873E89834794FD8A078D
:104310000327C4FCBA979C433E85EFD0D04EAA89B0
:10432000F16783A4C73B834794FD858393F7F70F19
:104330008A07032744FDBA979C433E85EFD0B04CD3
:10434000AA87BE852685EF20A179AA873E8AF167D4
:1043500083A4073C834794FD858393F7F70F8A076F
:10436000032744FDBA979C433E85EFD03041AA878E
:10437000BE852685EF20C176AA87BE855285EF20AF
:10438000711FAA87BE854E85EF208175AA87BE85DD
:104390004A85EF20311EAA873E87F16783A7C73978
:1043A000BE853A85EF10317BAA872324F4F293056A
:1043B0000000032584F2EF20C15BAA87E9C38325AF
:1043C00084F20325C4FBEF20A12FAA873E87B707FD
:1043D000008093C7F7FF7D8FF16783A547383A8543
:1043E000EF204167AA876347F002832584F2032503
:1043F000C4FBEF20E12CAA87BE86834794FD8A0781
:10440000032704FDB304F7003685EFD03048AA87B0
:104410009CC0B5A0832584F20325C4FBEF20412A6C
:10442000AA873E87B707008093C7F7FFF98F3E85BD
:10443000EF201163F16703A6073F83A6473FEF1004
:104440002119AA8763DD0702832584F20325C4FBB3
:10445000EF200127AA873E85EF20114EAA873E85CF
:10446000EF20B153AA86834794FD8A07032704FDF2
:10447000B304F7003685EFD07041AA879CC083470C
:1044800094FD8507A30CF4FC034794FD8347F4FDDA
:104490008607E34AF7D8230C04FC6F00704D83476E
:1044A00084FD8A070327C4FCBA979C433E85EF200E
:1044B000315BF16703A6873C83A6C73CEF008131DF
:1044C000AA872E883E85C285EF2051642A87B707C8
:1044D000008093C7F7FF7D8FF16783A5073D3A857D
:1044E000EF20E14EAA87E350F048834784FD8A0716
:1044F000032704FDBA979C433E85EF207156F16770
:1045000003A6873C83A6C73CEF00C12CAA872E8850
:104510003E85C285EF20915F2A87B707008093C749
:10452000F7FF7D8FF16783A5073D3A85EF20214A8C
:10453000AA87E35AF042834784FD8A07032744FD94
:10454000BA979C433E85EF20B151F16703A6873CA3
:1045500083A6C73CEF000128AA872E883E85C28526
:10456000EF20D15A2A87B707008093C7F7FF7D8FC6
:10457000F16783A5073D3A85EF206145AA87E3549B
:10458000F03E834784FD8A07032704FDBA979C43C6
:104590003E85EFD0B01EAA84834784FD8A07032797
:1045A000C4FCBA979443834784FD858393F7F70F40
:1045B0008A07032744FDBA979C43BE853685EF10D2
:1045C0009159AA873E85EFD01024AA87BE852685FB
:1045D000EF200151AA872322F4F2834784FD8A0742
:1045E000032704FDBA979C433E85EFD0D021AA84CF
:1045F000834784FD8A070327C4FCBA979443834703
:1046000084FD858393F7F70F8A07032744FDBA9744
:104610009C43BE853685EF101154AA873E85EFD0A6
:10462000901EAA87BE852685EF20814BAA8723206E
:10463000F4F2834784FD8A070327C4FCBA979443A6
:10464000834784FD858393F7F70F8A07032744FD8B
:10465000BA979C43BE853685EF10F14FAA873E85F9
:10466000EFD0D011232EA4F08327C4EEA1079C43E2
:10467000BE85032544F2EF20E16FAA873E87B70786
:10468000008093C7F7FFF98F3E85EF20713DF167FA
:1046900003A6873F83A6C73FEF009173AA8763DA1B
:1046A000074A8327C4EEE1079C43BE85032504F235
:1046B000EF20416CAA873E87B707008093C7F7FFBA
:1046C000F98F3E85EF20D139F16703A6873F83A696
:1046D000C73FEF00F16FAA8763DD07468327C4EE6B
:1046E000938787029C43BE850325C4F1EF20816830
:1046F000AA873E87B707008093C7F7FFF98F3E85EB
:10470000EF201136F16703A6873F83A6C73FEF006E
:10471000316CAA8763DF0742834784FD8A0703273A
:1047200044FCBA971307000098C3834784FD8A07A7
:10473000032784FCBA97032744EE584798C383277E
:10474000C4EE8443834784FD8A07032704FDBA9798
:104750009C433E85EFD0300B2A89834784FD8A072E
:10476000032784FCBA979C433E85EFD03001AA878B
:10477000BE854A85EF20C136AA873E89834784FDDE
:104780008A07032704FDBA979C433E85EFD0007F3C
:10479000AA89834784FD8A070327C4FCBA979443F8
:1047A000834784FD858393F7F70F8A07032744FD2A
:1047B000BA979C43BE853685EF10F139AA873E85AE
:1047C000EFD0C07BAA87BE854E85EF206131AA87D6
:1047D000BE854A85EF20015AAA87BE852685EF202F
:1047E0002130AA873E898327C4EEC10784438347CB
:1047F00084FD8A07032704FDBA979C433E85EFD0CA
:104800009000AA89834784FD8A070327C4FCBA97CE
:104810009443834784FD858393F7F70F8A07032723
:1048200044FDBA979C43BE853685EF10D132AA87E6
:104830003E85EFD0A074AA87BE854E85EF20412A21
:10484000AA87BE89834784FD8A07032784FCBA9719
:104850009C433E85EFD0207BAA87BE854E85EF2006
:104860002128AA87BE89834784FD8A07032704FD80
:10487000BA979C433E85EFD060702A8A834784FDB7
:104880008A07032784FCBA979C433E85EFD0006FCC
:10489000AA87BE855285EF20A124AA87BE854E85B2
:1048A000EF10712BAA87BE852685EF206123AA878A
:1048B000BE854A85EF20014CAA873E898327C4EE36
:1048C000938707028443834784FD8A070327C4FC38
:1048D000BA979443834784FD858393F7F70F8A073C
:1048E000032744FDBA979C43BE853685EF10B12659
:1048F000AA873E85EFD02071AA89834784FD8A0765
:10490000032784FCBA979C433E85EFD0C06FAA87EB
:10491000BE854E85EF20C11CAA87BE852685EF2067
:10492000211CAA87BE854A85EF20C144AA87232C73
:10493000F4F08327C4EE91078443834784FD8A07FC
:10494000032704FDBA979C433E85EFD0C06B2A89AC
:10495000834784FD8A07032784FCBA979C433E85DE
:10496000EFD0C061AA87BE854A85EF206117AA876C
:104970003E89834784FD8A07032704FDBA979C4339
:104980003E85EFD0A05FAA89834784FD8A0703276D
:10499000C4FCBA979443834784FD858393F7F70F4C
:1049A0008A07032744FDBA979C43BE853685EF10DE
:1049B000911AAA873E85EFD0605CAA87BE854E8596
:1049C000EF200112AA87BE854A85EF20A13AAA8767
:1049D000BE852685EF20C110AA873E898327C4EEB5
:1049E000D1078443834784FD8A07032704FDBA97D0
:1049F0009C433E85EFD02061AA89834784FD8A07C6
:104A00000327C4FCBA979443834784FD858393F7B7
:104A1000F70F8A07032744FDBA979C43BE85368566
:104A2000EF107113AA873E85EFD04055AA87BE8547
:104A30004E85EF20E10AAA87BE89834784FD8A0755
:104A4000032784FCBA979C433E85EFD0C05BAA87BE
:104A5000BE854E85EF20C108AA87BE89834784FDA5
:104A60008A07032704FDBA979C433E85EFD0005187
:104A70002A8A834784FD8A07032784FCBA979C43CC
:104A80003E85EFD0A04FAA87BE855285EF20410515
:104A9000AA87BE854E85EF10110CAA87BE85268594
:104AA000EF200104AA87BE854A85EF20A12CAA87A2
:104AB0003E898327C4EE938747028443834784FD5E
:104AC0008A070327C4FCBA979443834784FD8583F0
:104AD00093F7F70F8A07032744FDBA979C43BE85D7
:104AE0003685EF105107AA873E85EFD0C051AA89BD
:104AF000834784FD8A07032784FCBA979C433E853D
:104B0000EFD06050AA87BE854E85EF10717DAA87D1
:104B1000BE852685EF10D17CAA87BE854A85EF2009
:104B20006125AA87232AF4F0832544F1032584F123
:104B3000EF101139AA87BE86834784FD8A070327B1
:104B400004FCB304F7003685EFD0C01AAA879CC0D6
:104B500019AD834784FD8A07032704FDBA979C4358
:104B60003E85EFD0404A2A878327C4EEA1079C43A5
:104B7000BE853A85EF10D176AA87BE84834784FD2F
:104B80008A07032704FDBA979C433E85EFD0003F78
:104B90002A878327C4EEE1079C43BE853A85EF1040
:104BA0003174AA87BE852685EF20C11CAA872328D9
:104BB000F4F0834784FD8A07032704FDBA979C43DA
:104BC0003E85EFD0A03BAA84834784FD8A07032754
:104BD000C4FCBA979443834784FD858393F7F70F0A
:104BE0008A07032744FDBA979C43BE853685EF109C
:104BF0008176AA873E85EFD06038AA87BE85268554
:104C0000EF10116EAA873E878327C4EEA1079C434D
:104C1000BE853A85EF10D16CAA87BE84834784FD98
:104C20008A07032704FDBA979C433E85EFD0A03D39
:104C30002A89834784FD8A070327C4FCBA979443D3
:104C4000834784FD858393F7F70F8A07032744FD85
:104C5000BA979C43BE853685EF10E16FAA873E85E3
:104C6000EFD0C031AA87BE854A85EF107167AA8749
:104C70003E878327C4EEE1079C43BE853A85EF104B
:104C80003166AA87BE852685EF10E16CAA87BE84AF
:104C9000834784FD8A070327C4FCBA97944383475C
:104CA00084FD858393F7F70F8A07032744FDBA979E
:104CB0009C43BE853685EF10016AAA873E85EFD0FA
:104CC00080342A878327C4EE938787029C43BE855E
:104CD0003A85EF10F160AA87BE852685EF10A1679F
:104CE000AA872326F4F08325C4F0032504F1EF10EE
:104CF000311DAA87BE86834784FD8A07032784FC6B
:104D0000B304F7003685EFC0F07EAA879CC0032766
:104D1000C4F0B7070080B344F700834784FD8A07D7
:104D2000032784FCBA979C433E85EFD02025AA87B1
:104D3000BE852685EF10D118AA87BE86834784FDDD
:104D40008A07032744FCB304F7003685EFD02040E0
:104D5000AA879CC08327C4EE8443834784FD8A07C7
:104D6000032704FDBA979C433E85EFD0C0292A89CA
:104D7000834784FD8A07032784FCBA979C433E85BA
:104D8000EFD0C01FAA87BE854A85EF107155AA874C
:104D90003E89834784FD8A07032704FDBA979C4315
:104DA0003E85EFD0A01DAA89834784FD8A0703278B
:104DB000C4FCBA979443834784FD858393F7F70F28
:104DC0008A07032744FDBA979C43BE853685EF10BA
:104DD0008158AA873E85EFD0601AAA87BE854E8586
:104DE000EF101150AA87BE854A85EF10B178AA87C7
:104DF000BE852685EF10D14EAA873E898327C4EE53
:104E0000C1078443834784FD8A07032704FDBA97BB
:104E10009C433E85EFD0201FAA89834784FD8A07E3
:104E20000327C4FCBA979443834784FD858393F793
:104E3000F70F8A07032744FDBA979C43BE85368542
:104E4000EF106151AA873E85EFD04013AA87BE8537
:104E50004E85EF10F148AA87BE89834784FD8A07F3
:104E6000032784FCBA979C433E85EFD0C019AA87DC
:104E7000BE854E85EF10D146AA87BE89834784FD43
:104E80008A07032704FDBA979C433E85EFD0000FA5
:104E90002A8A834784FD8A07032784FCBA979C43A8
:104EA0003E85EFD0A00DAA87BE855285EF105143F5
:104EB000AA87BE854E85EF10014AAA87BE85268542
:104EC000EF101142AA87BE854A85EF10B16AAA8702
:104ED0003E898327C4EE938707028443834784FD7A
:104EE0008A070327C4FCBA979443834784FD8583CC
:104EF00093F7F70F8A07032744FDBA979C43BE85B3
:104F00003685EF104145AA873E85EFD0C00FAA89AC
:104F1000834784FD8A07032784FCBA979C433E8518
:104F2000EFD0600EAA87BE854E85EF10713BAA8731
:104F3000BE852685EF10D13AAA87BE854A85EF1037
:104F40007163AA872324F4F08327C4EE9107844376
:104F5000834784FD8A07032704FDBA979C433E8557
:104F6000EFD0600A2A89834784FD8A07032784FCDF
:104F7000BA979C433E85EFD06000AA87BE854A85DC
:104F8000EF101136AA873E89834784FD8A070327DD
:104F900004FDBA979C433E85EFC0507EAA898347A3
:104FA00084FD8A070327C4FCBA979443834784FD92
:104FB000858393F7F70F8A07032744FDBA979C432D
:104FC000BE853685EF102139AA873E85EFC0107B5C
:104FD000AA87BE854E85EF10B130AA87BE854A8567
:104FE000EF105159AA87BE852685EF10712FAA8729
:104FF0003E898327C4EED1078443834784FD8A0713
:10500000032704FDBA979C433E85EFC0D07FAA8951
:10501000834784FD8A070327C4FCBA9794438347D8
:1050200084FD858393F7F70F8A07032744FDBA971A
:105030009C43BE853685EF100132AA873E85EFC0BE
:10504000F073AA87BE854E85EF109129AA87BE8985
:10505000834784FD8A07032784FCBA979C433E85D7
:10506000EFC0707AAA87BE854E85EF107127AA8798
:10507000BE89834784FD8A07032704FDBA979C43B2
:105080003E85EFC0B06F2A8A834784FD8A070327D5
:1050900084FCBA979C433E85EFC0506EAA87BE85BC
:1050A0005285EF10F123AA87BE854E85EF10A12A05
:1050B000AA87BE852685EF10B122AA87BE854A85BC
:1050C000EF10514BAA873E898327C4EE938747028E
:1050D0008443834784FD8A070327C4FCBA9794431B
:1050E000834784FD858393F7F70F8A07032744FDE1
:1050F000BA979C43BE853685EF10E125AA873E8589
:10510000EFC07070AA89834784FD8A07032784FC57
:10511000BA979C433E85EFC0106FAA87BE854E8527
:10512000EF10111CAA87BE852685EF10711BAA8778
:10513000BE854A85EF101144AA872322F4F0832507
:1051400044F0032584F0EF10A157AA87BE86834759
:1051500084FD8A07032704FCB304F7003685EFC0FB
:105160007039AA879CC0834784FD8507230CF4FC13
:10517000034784FD8347F4FD86076342F7B229A005
:10518000814721A0814711A085473E858320C11119
:105190000324811183244111032901118329C110A2
:1051A000032A8110832A411015618280797106D605
:1051B00022D40018232EA4FCAE87A30DF4FC0325F3
:1051C000C4FDEFE0AF8D2326A4FE8347B4FD154751
:1051D0006364F70A13972700F5679387C7C1BA97E7
:1051E0009C438287854751A8F16783A50740032523
:1051F000C4FEEF10C17DAA8763D30700B5A8F1678D
:1052000083A547400325C4FEEF10D104AA8763534A
:10521000F0009DA0854795A0F16783A587400325F1
:10522000C4FEEF10C17AAA8763D30700B1A0F1676B
:1052300083A5C7400325C4FEEF10D101AA8763539D
:10524000F0001DA8854715A8F16783A50741032530
:10525000C4FEEF10C177AA8763D3070031A8F167B6
:1052600083A547410325C4FEEF10C17EAA8763537F
:10527000F00019A0854711A081473E85B250225405
:1052800045618280797106D622D426D20018232E59
:10529000A4FC232CB4FCA30704FE0DA88347F4FE52
:1052A0008A070327C4FDBA9794438347F4FE8A070D
:1052B000032784FDB304F7003685EFD0DFFBAA8710
:1052C0009CC08347F4FE8507A307F4FE0347F4FE62
:1052D0009547E3F5E7FC0100B25022549254456132
:1052E0008280797106D622D426D20018232EA4FCFF
:1052F000232CB4FCA30704FE0DA88347F4FE8A0701
:105300000327C4FDBA9794438347F4FE8A07032713
:1053100084FDB304F7003685EFD05FF8AA879CC000
:105320008347F4FE8507A307F4FE0347F4FE954781
:10533000E3F5E7FC0100B2502254925445618280AB
:10534000517186D7A2D58019232EA4F0232CB4F056
:10535000930704F5214681453E85EFA0BFF19307F1
:1053600084F9BE850325C4F1EFE02F85130684F58B
:10537000130584F9914711479146B705002093859D
:105380000500EFD01FF4930784F3BE85B7C7002054
:1053900013854760EFF01FEF930784F3130784F53D
:1053A0003E86B7C70020938587533A85EFE0CFA6A6
:1053B000AA87A304F4FE834794FE638B0750B7C704
:1053C000002083C7875386072304F4FEA30704FE47
:1053D000230704FEC5A28347E4FE37C70020938756
:1053E0004702130787538A07BA97DC433E85EF10BD
:1053F0003167F16703A6873C83A6C73CEFF0803D89
:10540000AA872E883E85C285EF1051702A87B7077C
:10541000008093C7F7FF7D8FF16783A5073D3A852D
:10542000EF10E15AAA876352F0188347F4FE85070C
:10543000A307F4FE8347E4FE130704FFBA9705476A
:105440002380E7F68347E4FE37C7002093874702AF
:10545000130787538A07BA97DC4395453E85EFF0DB
:10546000FFD4AA8791EF8347E4FE130704FFBA979E
:10547000238007F68347F4FEFD17A307F4FE35A249
:105480008347E4FE37C70020F107130787538A07D5
:10549000BA97DC4391453E85EFF05FD1AA8791EF43
:1054A0008347E4FE130704FFBA97238007F6834778
:1054B000F4FEFD17A307F4FECDA88347E4FE37C72B
:1054C0000020D107130787538A07BA97DC438D451D
:1054D0003E85EFF0BFCDAA8791EF8347E4FE130727
:1054E00004FFBA97238007F68347F4FEFD17A3074E
:1054F000F4FE65A88347E4FE37C700209107130731
:1055000087538A07BA97DC4381453E85EFF01FCA6F
:10551000AA8791EF8347E4FE130704FFBA9723801D
:1055200007F68347F4FEFD17A307F4FEBDA88347E3
:10553000E4FE37C70020B107130787538A07BA97DD
:10554000DC4385453E85EFF07FC6AA8791EF834710
:10555000E4FE130704FFBA97238007F68347F4FE9F
:10556000FD17A307F4FE91A08347E4FE858393F71C
:10557000F70FBE86B7C7002013878753939726007F
:10558000BA97DC4389453E85EFF05FC2AA8791EF69
:105590008347E4FE130704FFBA97238007F6834787
:1055A000F4FEFD17A307F4FE01008347E4FE850720
:1055B0002307F4FE0347E4FE834784FEE36DF7E030
:1055C0008347F4FE9DE3B147A307F4F2F1679387A5
:1055D00007372322F4FE9307F4F23E86832544FE28
:1055E0000145EF60904C814739A6A30604FE93075E
:1055F00004F3214681453E85EFA0DFC7230604FE64
:10560000D9A88347C4FE130704FFBA9703C707F658
:105610008547631DF70AB7C7002093874760D843C3
:10562000F16783A587413A85EF10C142AA87634994
:10563000F0048347C4FE37C70020B1071307875320
:105640008A07BA97DC433E85EFD05FC52320A4FECE
:10565000F16783A58741032504FEEF10A13FAA87C8
:105660006346F0068347C4FE130704FFBA97054755
:105670002380E7F48347D4FE8507A306F4FEB9A090
:105680008347C4FE37C70020B107130787538A0733
:10569000BA97DC433E85EFD07FC0232EA4FCF16790
:1056A00083A587410325C4FDEF106132AA87635F9C
:1056B000F0008347C4FE130704FFBA970547238011
:1056C000E7F48347D4FE8507A306F4FE8347C4FEB0
:1056D00085072306F4FE0347C4FE834784FEE36286
:1056E000F7F28347D4FEFDEBA30504FECDA083476C
:1056F000B4FE130704FFBA9703C707F68547631381
:10570000F70C8347B4FE37C7002091071307875370
:105710008A07BA97D843832784F198C38347B4FE96
:10572000032784F11107B7C60020B107938686537B
:105730008A07B697DC431CC38347B4FE858393F77F
:10574000F70F3E86832784F113878700B7C70020B1
:105750009386875393172600B697DC431CC3834771
:10576000B4FE032784F13107B7C60020D107938622
:1057700086538A07B697DC431CC38347B4FE0327CE
:1057800084F14107B7C60020F107938686538A0744
:10579000B697DC431CC38347B4FE032784F151074B
:1057A000B7C6002093874702938686538A07B69729
:1057B000DC431CC3832584F1032584F1EFF07FB221
:1057C000854715AA8347B4FE8507A305F4FE034762
:1057D000B4FE834784FEE36CF7F029AA230504FE98
:1057E000CDA08347A4FE130704FFBA9703C707F4AD
:1057F00085476313F70C8347A4FE37C70020910742
:10580000130787538A07BA97D843832784F198C32D
:105810008347A4FE032784F11107B7C60020B10710
:10582000938686538A07B697DC431CC38347A4FE3E
:10583000858393F7F70F3E86832784F113878700CC
:10584000B7C700209386875393172600B697DC438B
:105850001CC38347A4FE032784F13107B7C6002089
:10586000D107938686538A07B697DC431CC38347C8
:10587000A4FE032784F14107B7C60020F1079386F1
:1058800086538A07B697DC431CC38347A4FE0327CD
:1058900084F15107B7C60020938747029386865349
:1058A0008A07B697DC431CC3832584F1032584F162
:1058B000EFF03FA3854781A08347A4FE850723051A
:1058C000F4FE0347A4FE834784FEE36CF7F01DA0BB
:1058D000B1472307F4F2F16793870737232CF4FCD1
:1058E0009307E4F23E86832584FD0145EF60F01BBB
:1058F000814711A081473E85BE502E546D61828044
:10590000411122C60008EF50907F0100324441014E
:1059100073002030411122C6000893055052B7474A
:10592000014013850780EF40007FAA8789CB93054C
:105930005052B747014013850780EF40F00D01003A
:105940003244410173002030411122C60008930502
:105950005052B747004013850740EF40C07BAA87ED
:10596000A1C303A7418A85476315F700EFC0AFFDC8
:1059700005A003A7418A89476315F700EFB0FFA789
:1059800001A803A7418A8D476314F700EFC02FF9E0
:1059900093055052B747004013850740EF40D007AA
:1059A00001003244410173002030411122C6000839
:1059B00093055052B757004013850780EF40A075FC
:1059C000AA8789CB93055052B757004013850780AB
:1059D000EF40900401003244410173002030411136
:1059E00022C6000893055052B7570040138507C0E0
:1059F000EF406072AA8789CB93055052B757004099
:105A0000138507C0EF40500101003244410173008B
:105A10002030411122C600089305505237550040EE
:105A2000EF40606FAA8789CBEFB0BF9F93055052BC
:105A300037550040EF40407E010032444101730081
:105A40002030411122C6000893055052B72700406C
:105A500013850780EF40206CAA8789CB93055052AD
:105A6000B727004013850780EF40007B01003244D8
:105A7000410173002030411122C6000893055052A5
:105A8000B7270040138507C0EF40E068AA878DC79D
:105A900003A7418A85476309F70003A7418A89471D
:105AA0006314F700EFB0FF9293055052B727004000
:105AB000138507C0EF404076010032444101730076
:105AC0002030411122C6000893055052372500406E
:105AD000EF406064AA8799C793055052372500406C
