:100000006F708073130000001300000013000000E5
:100010001300000013000000130000001300000094
:100020001300000013000000130000001300000084
:08003000130000007300100032
:100038000000000000000000366500004665000072
:10004800000000007E7600000000000000000000B4
:1000580080760000827600000000000000000000AA
:100068008476000000000000867600000000000092
:10007800887600008A7600008C7600008E76000074
:1000880090760000927600003E61000062610000F8
:1000980086610000AA610000DE6100009E76000013
:1000A800A0760000A2760000A4760000A6760000E4
:1000B800A8760000AA760000AC760000AE760000B4
:1000C800DE640000B2760000B47600000262000030
:1000D800B87600001E630000BC760000BE76000003
:1000E8004E6300006E6300009E630000C676000049
:1000F800C8760000CA760000CC760000CE760000F4
:10010800D0760000265F00005A5F0000BC5F000048
:100118008A620000DA760000DC760000DE760000F5
:1001280056640000E2760000E4760000E6760000FF
:10013800E8760000EA760000CE630000EE76000064
:10014800F05F000024600000FE63000026640000E9
:10015800F8760000FA760000FC760000FE760000D3
:1001680000770000125F00000477000006770000A7
:10017800087700000A7700000C7700009EAA0000AC
:100188001077000012770000006100005460000042
:1001980088600000D46000001C77000086640000BE
:1001A800207700002277000024770000B664000062
:1001B800287700002A7700002C7700002E770000AF
:1001C800307700003277000034770000367700007F
:1001D8000000000000000000000000000000000017
:1001E8000000000000000000000000000000000007
:0801F8000000000000000000FF
:10020000737504308280B76200009382820873A005
:1002100002308280397101436EC619A03971415391
:100220006AC866CA62CC5ECE19A0397101535AD031
:1002300056D252D44ED64AD826DA22DC06DE330114
:100240006140828241114AC026C222C406C682820F
:10025000B24D4101024D924C224CB24B4101024B36
:10026000924A224AB2494101024992442244B24090
:10027000410182803D432A876373C3029377F7006D
:10028000BDEFADE5937606FF3D8ABA960CC34CC32D
:100290000CC74CC74107E36BD7FE11E28280B3065F
:1002A000C3408A069702000096966780A60023073F
:1002B000B700A306B7002306B700A305B7002305C0
:1002C000B700A304B7002304B700A303B7002303B8
:1002D000B700A302B7002302B700A301B7002301B0
:1002E000B700A300B7002300B700828093F5F50F95
:1002F00093968500D58D93960501D58D61B793961C
:1003000027009702000096968682E78086FA9680FC
:10031000C1171D8F3E96E374C3F8A5B73367B500C8
:10032000FD530D8B79E7B7877F7F9387F7F71041F0
:100330009441B372F6003363F600BE92B3E26200FA
:100340006397720C6318D6065041D441B372F6001D
:100350003363F600BE92B3E262006398720A631BD5
:10036000D60410459445B372F6003363F600BE928E
:10037000B3E262006391720A631ED6025045D4450F
:10038000B372F6003363F600BE92B3E26200639A82
:1003900072086311D60210499449B372F6003363B0
:1003A000F600BE92B3E26200639372085105D10574
:1003B000E30FD6F61317060193970601631CF700A7
:1003C0001357060193D706013305F7409375F50FD0
:1003D00091E982804183C1833305F7409375F50F1E
:1003E00091E182801377F70F93F7F70F3305F7400A
:1003F00082800346050083C6050005058505631355
:10040000D60065FA3305D640828011059105E312C6
:10041000D6FE014582802105A105E31CD6FC0145DD
:1004200082803105B105E316D6FC01458280410585
:10043000C105E310D6FC01458280011122CE0010D7
:100440002324A4FE2326B4FEB7F700E023A0070070
:10045000B7F700E08146014794C7D8C7B7F700E077
:10046000054798C30100B7F700E003A8C7009C4701
:100470000327C4FEC286636CD7000327C4FEC2866E
:10048000E313D7FE032784FE6363F700E9BF01008F
:10049000724405618280011122CE00102326A4FE41
:1004A0008327C4FE958313F77700F1670A079387C4
:1004B000C758BA979C439C470327C4FE7D8B85464B
:1004C0003397E600F98F99C3854711A081473E8590
:1004D000724405618280797122D60018232EA4FC13
:1004E0008327C4FD958393F7F70F9D8BA307F4FE35
:1004F0008327C4FD93F7F70FBD8B2307F4FE034753
:10050000F4FEF1670A079387C758BA979C43DC4704
:100510000347E4FE85463397E600420741833A8667
:100520008346F4FE71678A061307C7583697184347
:10053000B18F5CC70100325445618280797106D663
:1005400022D40018232EA4FC232CB4FC232AC4FCA0
:100550002328D4FC8327C4FD958393F7F70F9D8B45
:10056000A307F4FE8327C4FD93F7F70FBD8B230782
:10057000F4FE0327C4FD9307F00F6305F714032768
:10058000C4FD9307F00F6301F7148347F4FE91E76E
:1005900085451145EF90207241A00347F4FE854741
:1005A0006317F70085452145EF90E070B5A003473C
:1005B000F4FE89476317F70085454145EF90A06F2A
:1005C000A1A80347F4FE8D476318F700854513057E
:1005D0000002EF90406E89A00347F4FE9147631834
:1005E000F700854513050004EF90E06C35A0034744
:1005F000F4FE95476318F700854513050008EF9052
:10060000806B19A80347F4FE99476317F7008545E7
:1006100013050010EF90206A8347E4FE0547B317E7
:10062000F700C207C1832310F4FE032784FD85472A
:100630006317F702832704FDC207C183A183C207A2
:10064000C18389E78D472322F4FE11A8832704FD87
:10065000C207C183A183C207C1832322F4FE83277B
:1006600004FDC207C18393F7F70F2324F4FE034769
:10067000F4FEF1670A079387C758BA979C433E87F1
:10068000930704FEBE853A85EF80D03B032784FDA7
:100690008547631CF7020347F4FEF1670A07938757
:1006A000C758BA979C43BE868347E4FE0547B317F5
:1006B000F700C207C183032644FDBE853685EF805F
:1006C000505F21A0010011A00100B25022544561E9
:1006D0008280011106CE22CC00102326A4FE232402
:1006E000B4FE2322C4FE2320D4FE8327C4FE81EB64
:1006F00093068031054685451545893541A0032778
:10070000C4FEC147631AF70093068031054685454C
:100710001305300225359DA00327C4FE9307000270
:10072000631AF70093068031054685451305D0020C
:100730003135A9A00327C4FE93070003631AF7000D
:10074000930680310546854513053002C53B3DA023
:100750000327C4FE93070004631AF7009306803151
:10076000054685451305A004D13B09A81306900250
:10077000F1679385C7110145EF10705D032784FE73
:1007800089476319F70093068031054685451D4565
:10079000753341A0032784FEC947631AF700930607
:1007A00080310546854513055002493B9DA003272E
:1007B00084FE93072002631AF700930680310546F2
:1007C00085451305F0029D3BA9A0032784FE9307EE
:1007D0002003631AF700930680310546854513050B
:1007E0005002A93B3DA0032784FE93072004631A0F
:1007F000F70093068031054685451305C0043D3B4F
:1008000009A813060003F1679385C7110145EF108E
:100810001054032744FE85476319F70093064030C0
:10082000054681451945193B59A8032744FEC5478C
:10083000631AF700930640300546814513054002D0
:10084000F539B5A8032744FE93071002631AF70091
:1008500093064030054681451305E002C53185A069
:10086000032744FE93071004631AF70093064030F1
:10087000054681451305B004D13191A0032744FEFC
:1008800093071003631AF70093064030054681452D
:1008900013054002653125A0032744FE9307F00F9E
:1008A0006317F7009307F00F2322F4FE09A813063D
:1008B0008003F1679385C7110145EF1050499306F6
:1008C000003101468545032504FE8D390100F240C3
:1008D0006244056182805D7186C6A2C480082326B9
:1008E000A4FC2324B4FC2322C4FC2320D4FC232E08
:1008F000E4FA232CF4FA232A04FB231704FEF167FD
:100900000327C4FC0A079387075ABA979C433E857E
:10091000EF90E06785450545EF90E039032704FC3B
:10092000C1476311F7020327C4FBC947631CF700E3
:10093000032784FBC5476317F70085450545EF800E
:10094000D03A15A8032704FC930700046315F702A7
:100950000327C4FB93072004631FF700032784FBCE
:10096000930710046319F7008545B7172000138516
:100970000710EF8090378327C4FC91E78545056514
:10098000EF90603325A00327C4FC85476317F70069
:1009900085451165EF90803611A80327C4FC89476F
:1009A0006316F70085452165EF904035832644FBAB
:1009B000032684FB8325C4FB032504FC193B231E6B
:1009C00004FC93074010231FF4FC231004FE0327AC
:1009D00084FC85476305F702832784FC81CF0327C6
:1009E00084FC89476303F702032784FC8D47630473
:1009F000F7020DA8231104FE231204FE25A02311E3
:100A000004FE85472312F4FE31A889472311F4FE22
:100A1000231204FE01A889472311F4FE85472312FF
:100A2000F4FE010003A7418B832744FCB357F70270
:100A30002317F4FE0357E4FE9307F00F63F7E70074
:100A4000930780032317F4FE61A80357E4FE93077E
:100A5000F00763F7E700930700032317F4FE49A0AC
:100A60000357E4FE9307F00363F7E7009307800260
:100A70002317F4FEB5A00357E4FEFD4763F7E70034
:100A8000930700022317F4FEA1A80357E4FEBD4715
:100A900063F6E700E1472317F4FE99A00357E4FE4D
:100AA0009D4763F6E700C1472317F4FE15A80357D7
:100AB000E4FE8D4763F6E700A1472317F4FE0DA07F
:100AC0000357E4FE854763F5E700231704FE09A8F2
:100AD0001306D008F1679385C7110145EF10302741
:100AE0008357E4FE2314F4FE930700202313F4FE3F
:100AF000231504FE9D472316F4FEF1670327C4FC6B
:100B00000A079387075ABA979C433E879307C4FD09
:100B1000BE853A85EF90004FF1670327C4FC0A07B2
:100B20009387075ABA979C4385453E85EF90005DB1
:100B30000100B640264461618280011122CE00107E
:100B40002326A4FEAE87A305F4FEF1670327C4FEA7
:100B50000A079387075ABA979C433E878347B4FE98
:100B6000C207C1832316F7000100F1670327C4FE03
:100B70000A079387075ABA979C4383D78700C2070F
:100B8000C18393F70708F5F3010072440561828081
:100B9000011122CE00102326A4FEAE872315F4FEF9
:100BA0008357A4FEA183C207C18393F6F70FF167B1
:100BB0000327C4FE0A079387075ABA979C433E87C8
:100BC00093970601C1832316F7000100F1670327FD
:100BD000C4FE0A079387075ABA979C4383D78700B6
:100BE000C207C18393F70708F5F38357A4FE93F672
:100BF000F70FF1670327C4FE0A079387075ABA97CE
:100C00009C433E8793970601C1832316F70001009A
:100C1000F1670327C4FE0A079387075ABA979C43D4
:100C200083D78700C207C18393F70708F5F3010054
:100C3000724405618280011106CE22CC0010232669
:100C4000A4FE2324B4FE8327C4FE99E7E1460146AF
:100C500085452545E530C9AA0327C4FE8947631A9F
:100C6000F700E1460146854513056002EFF01F8D50
:100C700065AA0327C4FEC1476319F700E146014690
:100C800085450945EFF09F8B45A20327C4FEC94760
:100C9000631AF700E1460146854513055006EFF05B
:100CA000FF8959A20327C4FE93070002631AF700C5
:100CB000E146014685451305A002EFF03F88ADA24D
:100CC0000327C4FE93072002631AF700E14601469A
:100CD00085451305A004EFF07F86B9A20327C4FE63
:100CE00093074002631AF700E14601468545130564
:100CF0008006EFF0BF840DAA0327C4FE930700040B
:100D0000631AF700E146014685451305A004EFF09C
:100D1000FF8219AA0327C4FE93072004631AF70071
:100D2000E1460146854513050002EFF03F81EDA83D
:100D30000327C4FE93070005631AF700E146014646
:100D400085451305C004EFF06FFFF9A80327C4FE23
:100D500093072005631AF700E14601468545130510
:100D60008008EFF0AFFDC9A00327C4FE930700067B
:100D7000631AF700E1460146854513050004EFF0CC
:100D8000EFFB5DA00327C4FE93072006631AF7005C
:100D9000E1460146854513050004EFF02FFA69A0EE
:100DA0000327C4FE93070007631AF700E1460146D4
:100DB000854513052004EFF06FF8BDA00327C4FE9E
:100DC000930720076319F700E14601468545194559
:100DD000EFF0CFF691A80327C4FE93074007631AEC
:100DE000F700E146014685451305C008EFF00FF511
:100DF00025A80327C4FE93070008631AF700E146FD
:100E00000146854513054004EFF04FF331A8032751
:100E1000C4FE930720086319F700E14601468545A3
:100E20001305E008EFF08FF1032784FE8547631A6E
:100E3000F70093068004014681452945EFF00FF045
:100E4000D5AA032784FE8D47631BF7009306800411
:100E50000146814513057002EFF04FEEE1AA03272A
:100E600084FEC547631AF700930680040146814556
:100E70000D45EFF0AFEC7DAA032784FECD47631B41
:100E8000F700930680040146814513056006EFF0E4
:100E9000EFEA4DA2032784FE93071002631BF700BD
:100EA00093068004014681451305B002EFF00FE977
:100EB00051A2032784FE93073002631BF7009306B9
:100EC0008004014681451305B004EFF02FE79DA291
:100ED000032784FE93075002631BF70093068004E8
:100EE0000146814513059006EFF04FE5A1A20327C7
:100EF00084FE93071004631BF700930680040146E9
:100F000081451305B004EFF06FE32DA2032784FEA3
:100F100093073004631BF700930680040146814564
:100F200013051002EFF08FE131A2032784FE93072F
:100F30001005631BF70093068004014681451305E5
:100F40002006EFF0AFDFFDA0032784FE93073005F6
:100F5000631BF70093068004014681451305900842
:100F6000EFF0CFDDC1A8032784FE93071006631BB3
:100F7000F700930680040146814513051004EFF045
:100F8000EFDB4DA8032784FE93073006631BF700B1
:100F900093068004014681451305B008EFF00FDA8F
:100FA00051A8032784FE93071007631BF7009306DD
:100FB00080040146814513053004EFF02FD89DA829
:100FC000032784FE93073007631AF7009306800413
:100FD000014681451D45EFF06FD6A9A8032784FE81
:100FE00093075007631BF700930680040146814571
:100FF0001305D008EFF08FD435A8032784FE93079C
:101000001008631BF7009306800401468145130511
:101010005004EFF0AFD239A8032784FE93073008BD
:10102000631AF70093068004014681451305F00812
:10103000EFF0CFD00100F2406244056182800111DF
:1010400022CE00102326A4FEAE87A305F4FE0100E5
:10105000F1670327C4FE0A079387C75ABA979C43D0
:1010600083D70700C207C18393F70708F5D3F16759
:101070000327C4FE0A079387C75ABA979C433E8743
:101080008347B4FEC207C1832312F70001007244F4
:1010900005618280011106CE22CC00102326A4FE19
:1010A0002324B4FE2322C4FE29A8832784FE1387A9
:1010B00017002324E4FE83C70700BE850325C4FE72
:1010C000BD3F832744FE1387F7FF2322E4FEF1FF91
:1010D0000100F240624405618280011106CE22CCFB
:1010E00000102326A4FEAE87A305F4FEF1670327B4
:1010F000C4FE0A079387C75ABA979C433E87834723
:10110000B4FE3E86930550523A85EF90405CB7E7B7
:1011100000E0938641850327C4FE36970347070006
:10112000BA97238007408347B4FE81CF1387418558
:101130008327C4FEBA9783C707003E85EF10100BC4
:1011400019A8138741858327C4FEBA9783C7070070
:101150003E85EF10700B0100F24062440561828011
:10116000011122CE00102326A4FE2324B4FEF16731
:101170000327C4FE0A079387C75ABA979C4383D7AD
:101180000700C207C18393F707028DC7F1670327E2
:10119000C4FE0A079387C75ABA979C4383D7470070
:1011A000C207C18313F7F70F832784FE2380E7006C
:1011B000854711A081473E8572440561828079711F
:1011C00006D622D40018232EA4FC232CB4FC232AF8
:1011D000C4FC2328D4FC85450545EF80D02D83250C
:1011E00004FD032544FD813C032744FD8947631C1E
:1011F000F700032704FD8D476317F7008545114568
:10120000EF80A02E95A2032744FDC947631CF70079
:10121000032704FDCD476317F70085452145EF807F
:10122000C02C99A2032744FD930720026310F70204
:10123000032704FD93073002631AF7008545B707BB
:10124000140013850701EF80402A39AA032744FDC3
:10125000930740026310F702032704FD930750022F
:10126000631AF7008545B707140013850703EF805D
:10127000C027DDA8032744FD93072004631DF70062
:10128000032704FD930730046317F70085450565C0
:10129000EF80A025D1A8032744FD93072005631004
:1012A000F702032704FD93073005631AF70085450D
:1012B000B707200013851700EF80202375A00327B0
:1012C00044FD930720066310F702032704FD9307EC
:1012D0003006631AF7008545B7170080138507802D
:1012E000EF80A02051A0032744FD9307200763123D
:1012F000F702032704FD93073007631CF700B707C5
:101300000140D44FB707014037074000558FD8CF71
:10131000A1A8032744FD930740076312F7020327A0
:1013200004FD93075007631CF700B7070140D44F33
:10133000B707014037078000558FD8CF35A0032766
:1013400044FD930720086311F702032704FD930768
:101350003008631BF700B7070140D44FB7070140BF
:1013600037070002558FD8CF8327C4FD91E7854505
:101370001165EF80501469A80327C4FD85476318E1
:10138000F700854537050200EF80501751A003276D
:10139000C4FD89476318F700854537050400EF80D1
:1013A000F015BDA00327C4FD8D476318F7008545E0
:1013B00037050800EF809014A1A80327C4FD9147CA
:1013C0006318F700854537051000EF80301389A0BA
:1013D0000327C4FD95476318F700854513050004EE
:1013E000EF80D01135A00327C4FD99476318F7009B
:1013F000854513050008EF80701019A80327C4FD68
:101400009D476317F700854513050010EF80100F07
:10141000832784FD2320F4FE231204FE231304FEFD
:10142000231404FE231604FEB1472315F4FEF167CE
:101430000327C4FD0A079387C75ABA979C433E8780
:10144000930704FEBE853A85EF80307FF16703275E
:10145000C4FD0A079387C75ABA979C4385453E85C2
:10146000EF90E0200100B25022544561828041118A
:1014700006C622C40008938501891945D531054661
:10148000938501891385819CEF10401D0100B240B6
:10149000224441018280411106C622C4000893857E
:1014A0001189054575390546938511891385C19DB7
:1014B000EF10C01A0100B240224441018280411164
:1014C00006C622C4000803A7818A8947630FF70074
:1014D00003A7818A8D476314F700992039A003A7D9
:1014E000818A91476313F70045280100B2402244E6
:1014F00041018280411106C622C4000803A7818AE7
:1015000091476314F700DD2839A003A7818A8D472E
:101510006313F70085280100B24022444101828014
:10152000411106C622C4000883C771893E8793878C
:101530004189BA97BE8511452531AA8781CB83C7DA
:101540007189850713F7F70FA38BE18803C77189AA
:101550008547631AF70003C741899307500A63045C
:10156000F700A38B018803C771898D476317F700C4
:10157000A38B01880547238CE1880100B2402244F7
:1015800041018280411122C6000805472389E18874
:101590000100324441018280411106C622C4000884
:1015A00083C7F1893E879387C189BA97BE85114564
:1015B000453EAA8781CB83C7F189850713F7F70FCB
:1015C000A38FE18803C7F1898547631AF70003C732
:1015D000C1899307500A6304F700A38F018803C7EA
:1015E000F1898D476317F700A38F01880547238092
:1015F000E18A0100B240224441018280411122C6A9
:1016000000080547A380E18A01003244410182803D
:10161000011106CE22CC0010AA87A307F4FEF167C1
:101620009387C758DC433E8785671CCBF167938758
:10163000C758DC433E8785675CCBF1679387C75803
:10164000DC473E87930700105CCB8347F4FEBE85E2
:101650000545EFF08FCEF1679387C758DC433E878F
:1016600085671CCBF1679387C758DC473E87930794
:1016700000101CCBF1679387C758DC433E87856712
:101680005CCB0100F240624405618280011106CE0C
:1016900022CC0010AA8736872317F4FEAE872316C4
:1016A000F4FEB2872315F4FEBA872314F4FEB707BD
:1016B000002083C7472CC207C1830357E4FEB3371A
:1016C000F70093F7F70F3E871306F004F167938551
:1016D00087173A85EF00B06783C75180C207C1837F
:1016E0000357C4FEB337F70093F7F70F3E8713068F
:1016F0000005F167938587173A85EF005065B707B6
:10170000002083C7472CC207C1830357A4FEB33709
:10171000F70093F7F70F3E8713061005F1679385DF
:1017200087173A85EF00B06283C75180C207C18333
:10173000035784FEB337F70093F7F70F3E8713067E
:101740002005F167938587173A85EF00506083A7DE
:10175000418A91C703A7418A85476315F708130596
:10176000A0027D3581450545EFF02FBD8357E4FE8E
:1017700093F7F70F890793F7F70FBE850545EFF04D
:10178000CFBB81450545EFF04FBB8357A4FE93F7D0
:10179000F70F890793F7F70FBE850545EFF0EFB90F
:1017A0001305B002B53581450545EFF00FB98357F4
:1017B000C4FE93F7F70F850793F7F70FBE8505452E
:1017C000EFF0AFB781450545EFF02FB7835784FEA3
:1017D00093F7F70F850793F7F70FBE850545EFF0F1
:1017E000CFB559A01305A002253581450545EFF079
:1017F000CFB48357E4FE93F7F70F850793F7F70FFE
:10180000BE850545EFF06FB381450545EFF0EFB2BA
:101810008357A4FE93F7F70F850793F7F70FBE855D
:101820000545EFF08FB11305B002DD338145054565
:10183000EFF0AFB08357C4FE93F7F70F890793F724
:10184000F70FBE850545EFF04FAF81450545EFF039
:10185000CFAE835784FE93F7F70F890793F7F70FFF
:10186000BE850545EFF06FAD1305C002553301008D
:10187000F240624405618280797106D622D4001854
:10188000AA87231FF4FCB707002083C7472C3E8795
:1018900083C75180B307F7022326F4FEB707002061
:1018A00083C7472CC207C183FD17139707014183E4
:1018B00083C75180C207C183FD17C207C183BE869B
:1018C0003A8681450145D93321A88357E4FDBE8579
:1018D0000545EFF0EFAB8327C4FEFD172326F4FE8A
:1018E0008327C4FEFDF30100B2502254456182807B
:1018F000011122CE00102326A4FE0327C4FE23A23A
:10190000E18A0327C4FE854763EDE700B70700209F
:10191000130700F82382E72C130700FAA382E18063
:1019200019A8B7070020130700FA2382E72C130732
:1019300000F8A382E18001007244056182800111F8
:1019400022CE0010AA872E872317F4FEBA8723160B
:10195000F4FEB70700200357E4FE2390E72CB707F7
:1019600000200357C4FE2391E72C01007244056157
:101970008280797106D622D40018AA87AE86328773
:10198000231FF4FCB687231EF4FCBA87A30DF4FCD6
:10199000B707002083C7472CC207C1830357E4FD64
:1019A000B337F70093F7F70F3E871306800FF16701
:1019B000938587173A85EF00903983C75180C20716
:1019C000C1830357C4FDB337F70093F7F70F3E8782
:1019D0001306900FF167938587173A85EF0030372C
:1019E000A30704FE75A88347F4FE139707014183FC
:1019F0008357C4FDBA9793950701C1818357E4FDCE
:101A00009D071396070141828347F4FE1397070150
:101A100041838357C4FDBA971397070141838357C6
:101A2000E4FDBA863E859D318307B4FD938607FEAB
:101A30008347F4FE716792061307C75C3697BA971F
:101A400083C70700A306F4FE230704FE81A0834793
:101A5000D4FE858B91CBB707002083D7072CBE859A
:101A60000545EFF0EF9209A8B707002083D7272C90
:101A7000BE850545EFF0CF918347D4FE8583A3064D
:101A8000F4FE8347E4FE85072307F4FE0347E4FEE4
:101A90009D47E3FEE7FA8347F4FE8507A307F4FEBC
:101AA0000347F4FEBD47E3F0E7F40100B2502254CF
:101AB00045618280797106D622D40018AA872E87C4
:101AC000232CC4FC231FF4FCBA87231EF4FCB707A5
:101AD000002083C7472CC207C1830357E4FDB337F7
:101AE000F70093F7F70F3E8713067011F1679385A0
:101AF00087173A85EF00B02583C75180C207C1839D
:101B00000357C4FDB337F70093F7F70F3E8713066B
:101B10008011F167938587173A85EF0050232317CB
:101B200004FE3DA88357E4FE8E0713970701418307
:101B30008357E4FDBA9793960701C1828357E4FE69
:101B4000032784FDBA97038707008357C4FD3A86AD
:101B5000BE853685393D8357E4FE85072317F4FE9D
:101B60008357E4FE032784FDBA9783870700DDFBD4
:101B70000100B250225445618280397106DE22DCB8
:101B800026DA8000AA872324C4FC2317F4FCAE873E
:101B90002316F4FCB687A303F4FCBA872303F4FCF2
:101BA000B707002083C7472CC207C1830357E4FC53
:101BB000B337F70093F7F70F3E8713065017F16717
:101BC000938587173A85EF00901883C75180C20725
:101BD000C1830357C4FCB337F70093F7F70F3E8771
:101BE00013066017F167938587173A85EF00301663
:101BF000834774FCB337F00093F7F70F3E87130663
:101C00007017F167938587173A85EF005014834763
:101C100074FC93B7970093F7F70F3E87130680176E
:101C2000F167938587173A85EF007012834764FC4C
:101C3000B337F00093F7F70F3E8713069017F1675D
:101C4000938587173A85EF009010834764FC93B71C
:101C5000770093F7F70F3E871306A017F167938578
:101C600087173A85EF00B00E832784FC2326F4FE05
:101C7000F16783A7471D2324F4FE930744FD4546DF
:101C800081453E85EFE00FDF034774FC834764FC2A
:101C9000BA9789073E87930744FD3A869305000269
:101CA0003E85EFE02FDD034774FCA54763E3E706BD
:101CB00005A0F16783A5871D032584FEEF40115918
:101CC000AA872324F4FE834774FCFD17A303F4FCC6
:101CD000834774FCF9FF0325C4FEEF50A13CAA849E
:101CE000032584FEEF50013CAA87B3C7F4023E856A
:101CF000EF506141AA87832584FE3E85EF40115550
:101D0000AA87BE850325C4FEEF40917DAA872326BE
:101D1000F4FE034764FC930744FD3A868325C4FE22
:101D20003E85EF00B023930644FD0357C4FC835760
:101D3000E4FC3686BA853E85B53B0100F25062541C
:101D4000D25421618280011106CE22CC4ACA4EC8EB
:101D500052C656C45AC25EC0001083A7418B13D628
:101D600027001308F00F9307F00F130720029306C4
:101D7000000281450545EFE01FB6C1460146854595
:101D800013058006EFE08FFBC1460146854513052C
:101D9000A006EFE0AFFAC146014685451305C00233
:101DA000EFE0CFF9C146054685451305C006EFE0D3
:101DB000EFF883A7418A3E85EFF09FB3B707002075
:101DC00003D7072CB707002083D7272CBE853A8579
:101DD000EFF0FFB6F1679387C758DC473E8793075C
:101DE00000405CCB03A7418B8967938707F4335787
:101DF000F702BA878A07BA9786073E8B814B5A85C6
:101E0000DE85EFE08FE3F1679387C758DC473E87B5
:101E1000930700401CCB03A7418B8967938707F486
:101E20003357F702BA879207998F8E073E8A814A05
:101E30005285D685EFE06FE04545EFF06FFD03A7D3
:101E4000418B8967938707F43357F702BA87920764
:101E5000998F8E073E8981494A85CE85EFE0EFDD77
:101E60001305100BEFF0CFFA85450545EFE0FFCCE9
:101E70009305C0020545EFE05FCC9305D002054510
:101E8000EFE0BFCB1305200BEFF08FF8854505453C
:101E9000EFE0BFCA9305C0020545EFE01FCA9305F6
:101EA000D0020545EFE07FC91305300BEFF04FF688
:101EB00085450545EFE07FC89305C0020545EFE085
:101EC000DFC79305D0020545EFE03FC785450545CF
:101ED000EFE0BFC69305C0020545EFE01FC69305BE
:101EE000D0020545EFE07FC51305400BEFF04FF240
:101EF0009D450545EFE07FC41305000CEFF04FF161
:101F00009305200A0545EFE05FC389450545EFE0ED
:101F1000DFC2930540080545EFE03FC21305100CF2
:101F2000EFF00FEF9305500C0545EFE01FC11305CF
:101F3000200CEFF0EFEDA9450545EFE01FC081450E
:101F40000545EFE09FBF1305300CEFF06FEC9305F4
:101F5000A0080545EFE07FBE9305A0020545EFE030
:101F6000DFBD1305400CEFF0AFEA9305A00805456F
:101F7000EFE0BFBC9305E00E0545EFE01FBC130585
:101F8000500CEFF0EFE8B9450545EFE01FBB130536
:101F90006003EFF0EFE783A7418A05476380E7021C
:101FA00081CB09476381E7020D476384E70205A8F7
:101FB0009305000C0545EFE05FB815A08145054588
:101FC000EFE0BFB729A89305000A0545EFE0FFB68B
:101FD00039A0930500060545EFE03FB60100130563
:101FE000000EEFF0EFE2BD450545EFE01FB5E94516
:101FF0000545EFE09FB4BD450545EFE01FB4E14561
:102000000545EFE09FB39305F0020545EFE0FFB211
:10201000930580020545EFE05FB293050002054598
:10202000EFE0BFB1930520020545EFE01FB1FD458C
:102030000545EFE09FB0ED450545EFE01FB0930586
:1020400030020545EFE07FAF930570030545EFE0F3
:10205000DFAE81450545EFE05FAE9D450545EFE00C
:10206000DFAD89450545EFE05FADC1450545EFE0D2
:10207000DFAC1305100EEFF0AFD9BD450545EFE01D
:10208000DFABED450545EFE05FABBD450545EFE056
:10209000DFAADD450545EFE05FAA9305300305455E
:1020A000EFE0BFA99305C0020545EFE01FA9930526
:1020B00090020545EFE07FA89305E0020545EFE0BB
:1020C000DFA7930500030545EFE03FA79305000355
:1020D0000545EFE09FA6930590030545EFE0FFA5BA
:1020E0009305F0030545EFE05FA581450545EFE069
:1020F000DFA49D450545EFE05FA48D450545EFE074
:10210000DFA3C1450545EFE05FA31305A002EFF093
:102110002FD081450545EFE05FA289450545EFE0F9
:10212000DFA181450545EFE05FA193052008054546
:10213000EFE0BFA01305B002EFF08FCD814505455C
:10214000EFE0BF9F8D450545EFE03F9F8145054589
:10215000EFE0BF9E930530080545EFE01F9E130595
:10216000000FEFF0EFCA85450545EFE01F9D130511
:10217000600FEFF0EFC981450545EFE01F9C1305A7
:10218000A003EFF0EFC895450545EFE01F9B130551
:102190009002EFF0EFC7B707002083D7272C3E85CA
:1021A000EFF08FED0100F24062445249C249324AD9
:1021B000A24A124B824B05618280411106C622C49D
:1021C00000089385018B0545EFE09FF9054693854F
:1021D000018B1385019F59210100B2402244410126
:1021E0008280411106C622C400089385118B0545E3
:1021F000EFE01FF705469385118B138541A0B929A0
:102200000100B240224441018280011106CE22CC5D
:1022100000102326A4FE0327C4FE23AAE18A19285E
:102220000325C4FE5920EF00E07F0100F240624424
:1022300005618280411122C60008B7170240984309
:10224000B71702401367170098C3B7170240D4436B
:10225000B71702403707FFF8758FD8C3B71702408A
:102260009443B71702403707F7FE7D17758F98C361
:10227000B71702409443B71702403707FCFF7D179A
:10228000758F98C3B7170240D443B717024037077A
:1022900081FF7D17758FD8C3B717024037079F009E
:1022A00098C70100324441018280797122D600181A
:1022B000232EA4FC232604FE232404FEB717024089
:1022C0009443B71702404167558F98C3B717024030
:1022D0009843B7070200F98F2324F4FE8327C4FE36
:1022E00085072326F4FE832784FE99E70327C4FE8F
:1022F00093070050E31CF7FCB71702409843B70759
:102300000200F98F89C785472324F4FE19A02324EE
:1023100004FE032784FE85476315F71EB727024096
:102320009843B72702401367070198C3B7270240B5
:102330009843B7270240719B98C3B7270240944344
:102340008327C4FD1387F7FFB7376E0193870760B4
:10235000B357F70213F77700B7270240558F98C39A
:1023600037170240B71702405843D8C33717024007
:10237000B71702405843D8C337170240B717024077
:102380005843D8C30327C4FDB7177A0093870720A3
:10239000631BF702B7170240D843B7170240719B7F
:1023A000D8C3B7170240D843B717024013671700C6
:1023B000D8C30100B7170240DC4313F7C7009147A9
:1023C000E31AF7FE81A2B7170240D443B7170240C1
:1023D0003707C1FF7D17758FD8C30327C4FDB747E3
:1023E000950893870740631BF700B7170240D44353
:1023F000B71702404167558FD8C355A80327C4FDBE
:10240000B7172707938707E0631CF700B717024049
:10241000D443B717024037073900558FD8C341A8B6
:102420000327C4FDB7E7B80593870780631CF7004F
:10243000B7170240D443B717024037072900558F1A
:10244000D8C3B5A00327C4FDB7A74A0493870720C4
:10245000631CF700B7170240D443B7170240370791
:102460001D00558FD8C3A1A00327C4FDB777DC0298
:10247000938707C0631CF700B7170240D443B71710
:10248000024037071100558FD8C315A00327C4FD9C
:10249000B7376E0193870760631BF700B7170240D9
:1024A000D443B717024037070500558FD8C3B71775
:1024B00002409443B717024037070001558F98C375
:1024C0000100B71702409843B7070002F98FF5DB08
:1024D000B7170240D843B7170240719BD8C3B7174C
:1024E0000240D843B717024013672700D8C3010042
:1024F000B7170240DC4313F7C700A147E31AF7FE02
:1025000011A001A0325445618280411122C6000809
:1025100001000100324441018280411106C622C4FB
:1025200000089306100213060002F1679385072046
:102530000945EFE0DFC885450945EFE01FBA0547CB
:10254000238CE18A0100B2402244410182800111C2
:1025500006CE22CC0010AA872324B4FE2322C4FE78
:10256000A307F4FE8347F4FE85E383C7818B91CBF9
:10257000032644FE832584FEF1671385C71DEF50B3
:10258000311EF9295937FDBF0100F240624405614F
:102590008280797106D622D40018232EA4FC232C25
:1025A000B4FC232AC4FC232604FEA9A00100F16781
:1025B0009387C75A9C47930500043E85EF804020CF
:1025C000AA87F5D7F1679387C75A9C47BE868327AA
:1025D00084FD13871700232CE4FC83870700C207C0
:1025E000C183BE853685EF80C01A8327C4FE850768
:1025F0002326F4FE0327C4FE832744FDE348F7FAAD
:10260000832744FD3E85B2502254456182800111EA
:1026100022CE00102326A4FE2324B4FE8327C4FE6A
:10262000D843832784FE3E978327C4FED8C319A8C6
:102630008327C4FED8438327C4FE9C4B1D8F83276A
:10264000C4FED8C38327C4FE984B8327C4FEDC4353
:10265000E3F0E7FE0100724405618280797106D6DD
:1026600022D40018232EA4FC232CB4FC232AC4FC5F
:102670008327C4FDDC47032744FD637BF70CCD268D
:102680008327C4FD984B8327C4FDDC43B307F74081
:102690002326F4FE032744FD8327C4FE63FBE706DD
:1026A0008327C4FD98438327C4FDDC43BA970326E0
:1026B000C4FE832584FD3E85EF40D15F8325C4FEA3
:1026C0000325C4FDA937032784FD8327C4FEBA97D9
:1026D000232CF4FC8327C4FD98438327C4FDDC43EB
:1026E000B306F700032744FD8327C4FEB307F74072
:1026F0003E86832584FD3685EF40D15B032744FD6C
:102700008327C4FEB307F740BE850325C4FD013708
:1027100025A08327C4FD98438327C4FDDC43BA97D3
:10272000032644FD832584FD3E85EF40B158832573
:1027300044FD0325C4FDE13D8327C4FDD84783271D
:1027400044FD1D8F8327C4FDD8C7E524814711A010
:1027500089473E85B2502254456182801D7186CEE4
:10276000A2CC80102326A4FA2324B4FAB287A303B0
:10277000F4FA232604FE232404FEA30304FE032507
:1027800084FAEF403112AA872326F4FE9305000055
:10279000032584FAEF40C122AA8763DD070083275F
:1027A000C4FA138717002326E4FA1307D002238004
:1027B000E700A1A093050000032584FAEF40211251
:1027C000AA8785EF8327C4FA138717002326E4FA24
:1027D000130700032380E7008327C4FA1387170039
:1027E0002326E4FA1307E0022380E7008327C4FAD4
:1027F000130700032380E70061A20325C4FEEF4016
:102800009110AA87BE85032584FAEF40614DAA87FF
:102810002324F4FA19A8F16783A58722032584FAF3
:10282000EF40C122AA872324F4FA834774FA13875E
:10283000F7FFA303E4FAE5F3032584FAEF409106DA
:10284000AA872324F4FE1DA8834774FE138717006C
:10285000A303E4FEBE860327C4FEA9473367F7023D
:1028600093972600930604FFB69723A0E7FE03275D
:10287000C4FEA947B347F7022326F4FE8327C4FE0C
:10288000E1F7A1A0834774FEFD178A07130704FF31
:10289000BA9783A707FE13D7F741B98F998F93F79C
:1028A000F70F9387070393F6F70F8327C4FA13876D
:1028B00017002326E4FA1397860161872380E70037
:1028C000834774FEFD17A303F4FE834774FEDDFB0C
:1028D0008327C4FA138717002326E4FA1307E002BC
:1028E0002380E700832784FEB1E38327C4FA13071C
:1028F00000032380E70069A0834774FE1387170055
:10290000A303E4FEBE86032784FEA9473367F702CC
:1029100093972600930604FFB69723A6E7FC0327A8
:1029200084FEA947B347F7022324F4FE832784FEDD
:10293000E1F7A1A0834774FEFD178A07130704FF80
:10294000BA9783A7C7FC13D7F741B98F998F93F72D
:10295000F70F9387070393F6F70F8327C4FA1387BC
:1029600017002326E4FA1397860161872380E70086
:10297000834774FEFD17A303F4FE834774FEDDFB5B
:10298000F640664425618280011122CE0010232684
:10299000A4FE8327C4FEFD8B0547B316F70037E777
:1029A00000E08327C4FE9583938707048A07BA97BC
:1029B00094C30100724405618280011122CE00108F
:1029C0002326A4FE8327C4FEFD8B0547B316F7001C
:1029D00037E700E08327C4FE9583938707068A07BD
:1029E000BA9794C30100724405618280011106CE3A
:1029F00022CC00102326A4FE0325C4FE713701005B
:102A0000F240624405618280011106CE22CC0010A2
:102A10002326A4FE0325C4FE4D370100F240624484
:102A200005618280411122C6000801003244410143
:102A30008280411106C622C4000883A7C18B99C7B2
:102A400083A7C18B1387F7FF23AEE18A83A7C18BCE
:102A500099E3EFD04FFB0100B24022444101828054
:102A6000411106C622C4000883A7C18B99E3EFD0A9
:102A70002FF983A7C18B1387170023AEE18A0100CA
:102A8000B240224441018280011122CE001023264F
:102A9000A4FE8327C4FEFD8B0547B316F70037E776
:102AA00000E08327C4FE9583938707048A07BA97BB
:102AB00094C30100724405618280011122CE00108E
:102AC0002326A4FEAE87A305F4FE37E700E08327A4
:102AD000C4FEBA970347B4FE2380E7400100724466
:102AE00005618280011106CE22CC0010232204FE53
:102AF000232404FE232604FE854513050004EF70FD
:102B0000801B8967938707802312F4FEC147232621
:102B1000F4FE8D472324F4FE930744FEBE85B727B9
:102B2000014013850780EF60E071054501280545E8
:102B300081280100F240624405618280011106CEC5
:102B400022CC0010AA87A307F4FE8347F4FE99CB9A
:102B5000856793850780B727014013850780EF605D
:102B6000101111A8856793850780B7270140138549
:102B70000780EF60F0110100F2406244056182803D
:102B8000011106CE22CC0010AA87A307F4FE8347CA
:102B9000F4FE89CB8565B727014013850780EF6078
:102BA000100D01A88565B727014013850780EF60E8
:102BB000300E0100F240624405618280011106CEB0
:102BC00022CC0010AA87A307F4FE8347F4FE91CB22
:102BD0008347F4FEBE85F16713850724EF50413823
:102BE00011A00100F240624405618280397106DE65
:102BF00022DC80002326A4FC2324B4FC2322C4FC72
:102C00002320D4FC9307005F232CF4FC93070032AD
:102C1000232EF4FC85679387871F2320F4FEA947A2
:102C20002322F4FE9307B0022324F4FE930784FDCD
:102C30003E85EF90C035832604FC032644FC8325A3
:102C400084FC0325C4FCEF904025AA87A307F4FE6B
:102C50008347F4FE3E85F250625421618280011167
:102C600006CE22CC4ACA4EC852C656C400100145F0
:102C7000EF7080294145EF7080203565EF7060244A
:102C80002D45EF70C0140545EF70002803A7418B58
:102C90008967938707F43357F70293074006B30712
:102CA000F7023E8A814A5285D685EFD00FF915A0EA
:102CB00003A7418B8967938707F43357F70293077C
:102CC000401FB307F7023E8981494A85CE85EFD080
:102CD000CFF61305D003EF70A011AA87F1DB85456D
:102CE0000545EF60F0780100F24062445249C24964
:102CF000324AA24A05618280011106CE22CC001020
:102D0000232204FE232404FE231604FE85450545E4
:102D1000EF60D07E9307700C2314F4FE89679387CD
:102D2000F7C12312F4FE231504FE231304FE9307B8
:102D300044FEBE8537050040EF70E04105468545FD
:102D400037050040EF70805E854537050040EF7025
:102D50006058854537050040EF70406B93050008CB
:102D60001305C002EFF07FD51305C002EFF0DFD1ED
:102D70000100F2406244056182805D7186C6A2C492
:102D80008008930704FB1306C00381453E85EFD0FE
:102D90006FCE83A74181232EF4FC83D78181232A20
:102DA000F4FC83D7A1811387170093160701C18212
:102DB000239DD180232CF4FC8D472326F4FC83C76C
:102DC000618C3E87930700643307F702B7970020B2
:102DD000938707D6BA97232CF4FA93070064232E1F
:102DE000F4FA930704FBBE851385618CEF90A03144
:102DF000AA87A307F4FE83C7618CBE85F16713859C
:102E00000725EF50E1158347F4FE3E85EFF01FDB09
:102E100083C7618C3E85EF90503EAA87A307F4FEDE
:102E20008347F4FE3E85EFF07FD90100B64026448B
:102E300061618280797106D622D44AD24ED00018C0
:102E4000AA872E87A30FF4FCBA87230FF4FC8347CD
:102E5000E4FD918B85CF8347F4FD81453E85EF905E
:102E60002067AA872326F4FE9307C4FE0347F4FDD8
:102E70003E86B7C70020938507F63A85EF90004855
:102E8000B7C70020138507F6EF30D04B8347E4FD2A
:102E9000A18B91C7F16713858726EF50C11E834729
:102EA000E4FDC18B91C7F16713850728EF50A11D81
:102EB0008347E4FD93F707048DCBF167138507295A
:102EC000EF50611C03A7418B8967938707F4335741
:102ED000F7029307800CB307F7023E8981494A85C0
:102EE000CE85EFD08FD5EFF05FE90100B2502254CC
:102EF0001259825945618280011106CE22CC001000
:102F0000EF90D00EAA87A306F4FE8347D4FE858BEC
:102F100091C7F1671385C729EF50E1168347D4FEA7
:102F2000898B91C7F1671385072BEF50C115834734
:102F3000D4FE918B99CFEF90B02BAA872317F4FE84
:102F40008357E4FE918B91C7F1671385872CEF506F
:102F500081138347D4FEC18BA9C7231704FE2DA874
:102F60008357E4FE93F7F70F3E85EF907009AA8729
:102F70002306F4FE8347C4FE99CB8357E4FE93F700
:102F8000F70F0347C4FEBA853E85EFF0BFEA8357CB
:102F9000E4FE85072317F4FE0357E4FE9D47E3F1A3
:102FA000E7FC0100F240624405618280011106CE17
:102FB00022CC4ACA4EC80010EFF07FCAEFF0DFD330
:102FC0001385018CEF80E0749386018C1386018158
:102FD0009385C18013858180EFF05FC1AA87A30725
:102FE000F4FE15A003A7418B8967938707F4335735
:102FF000F70293074006B307F7023E8981494A85E5
:10300000CE85EFD08FC3EF90B01EAA87918BF9DBEE
:10301000EFF0BFD60100F24062445249C249056157
:103020008280597186D6A2D48018AA87A30FF4F89B
:10303000AE87230FF4F8B287A30EF4F8B687231DEA
:10304000F4F8BA87230EF4F8232204FE232404FEA6
:10305000232604FE232204FC232404FC232604FC50
:10306000232804FC232A04FC232C04FC232E04FC28
:10307000232004FE232804FA232A04FA232C04FA2A
:10308000232E04FA232004FC85451545EF60B04249
:10309000854537050002EF60704685672312F4FE10
:1030A000E1472326F4FE8D472324F4FE930744FED4
:1030B000BE85B717014013850780EF60A0188567AC
:1030C000938707802312F4FE930780042326F4FEDF
:1030D000930744FEBE85B717014013850780EF6054
:1030E0006016232604FC232804FC232A04FC8547BD
:1030F000232CF4FC232E04FC232004FE8347C4F974
:103100002303F4FC8347F4F9A303F4FC8347D4F9C5
:103110002304F4FC8347E4F9A304F4FC8357A4F9E3
:103120002312F4FC930744FCBE85B7670040138567
:103130000740EF40B008230D04FA8547A30DF4FAC9
:10314000230E04FA930700402318F4FA93070004AF
:103150002319F4FA93070002231AF4FA231B04FA42
:10316000231C04FA85472320F4FC930704FB3E85C7
:10317000EF40B0278945B767004013850740EF50FF
:10318000004D930740022304F4FA8547A304F4FAA0
:10319000230504FA85472326F4FA930784FA3E852B
:1031A000EF60005D05468945B7670040138507401D
:1031B000EF50E0240100B6502654656182803971D9
:1031C00006DE22DC80002326A4FCAE872322C4FC7A
:1031D000A305F4FC231704FE832744FC232CF4FCF2
:1031E000230004FEA30004FE8347B4FC2301F4FE85
:1031F000231704FE25A08357E4FE0327C4FC3E9753
:103200008357E4FE03470700930604FFB697A3899C
:10321000E7FE8357E4FE85072317F4FE8347B4FCDB
:10322000C207C1830357E4FEE367F7FC930784FDFD
:10323000BE85B767004013850740EF409042AA87DC
:10324000A306F4FE231704FE31A08357E4FE85078E
:103250002317F4FE8347D4FEBE85B767004013856D
:103260000740EF409062AA873E8785476308F700D2
:103270000357E4FE8567F917E3F9E7FC0357E4FE1B
:103280008567FD176314F700854711A081473E85C8
:10329000F250625421618280397106DE22DC8000A6
:1032A0002326A4FC8145B767004013850740EF50F3
:1032B000800FAA8799E3814781A8930784FD3E8602
:1032C0008145B767004013850740EF40F06DA307C5
:1032D00004FE25A00347F4FE8347F4FE8326C4FCC6
:1032E000B697930604FF3697034737FF2380E7001E
:1032F0008347F4FE8507A307F4FE0347F4FE9D47CA
:10330000E3FAE7FC834724FE3E85F25062542161D4
:103310008280011106CE22CC00102326A4FEF16784
:1033200083A5072F0325C4FEEF304130AA873E85D1
:10333000F240624405618280011106CE22CC001069
:103340002326A4FEF16783A5072F0325C4FEEF30D3
:10335000E16FAA873E85F24062440561828039713F
:1033600006DE22DC8000232EA4FC232CB4FC232ABE
:10337000C4FC2328D4FC2326E4FC2324F4FC2324CB
:1033800004FE7DA8232204FE4DA0930700002326FF
:10339000F4FE232004FEB9A80327C4FC832784FE7F
:1033A0003307F702832704FEBA978A070327C4FD71
:1033B000BA979443032784FC832704FE3307F7025C
:1033C000832744FEBA978A07032784FDBA979C4354
:1033D000BE853685EF308167AA87BE850325C4FE8A
:1033E000EF20316EAA872326F4FE832704FE85078B
:1033F0002320F4FE032704FE8327C4FCE34EF7F8E2
:10340000032784FC832784FE3307F702832744FEC7
:10341000BA978A07032744FDBA970327C4FE98C3C7
:10342000832744FE85072322F4FE032744FE8327D7
:1034300084FCE34CF7F4832784FE85072324F4FE01
:10344000032784FE832704FDE34EF7F20100F250C8
:10345000625421618280797106D622D426D24AD064
:103460000018232EA4FC232CB4FC8327C4FDA10741
:103470009843B707008093C7F7FFF98F3E85EF3079
:10348000F154F16703A6872F83A6C72FEF202100F1
:10349000AA87635DF0088327C4FDA1079C439305B9
:1034A00000003E85EF30C151AA8763D3070483270C
:1034B00084FD910771670327473098C3832784FDF4
:1034C000A1071307000098C38327C4FD9107984301
:1034D0008327C4FDC1079C43BE853A85EFF02001D8
:1034E0002A87B70700803D8F832784FD98C325AACC
:1034F000832784FD910771670327073098C38327CB
:1035000084FDA1071307000098C38327C4FD91071A
:1035100098438327C4FDC1079C43BE853A85EFE0ED
:10352000107D2A87832784FD98C3F5A88327C4FDCF
:10353000A10703A907008327C4FD98438327C4FD7F
:103540009C43BE853A85EF306150AA87BE848327AD
:10355000C4FD910798438327C4FD91079C43BE8512
:103560003A85EF30A14EAA87BE852685EF2071559A
:10357000AA873E85EFF0602B2A87832784FD9384FA
:103580004700BA854A85EFE09076AA879CC08327DA
:1035900084FD91079C433E85EFE0D0642326A4FE82
:1035A0008327C4FDD1079843B7070080B98F8325CF
:1035B000C4FE3E85EF308107AA87BE848327C4FD01
:1035C000938707029C438325C4FE3E85EF300106A6
:1035D000AA87BE852685EFE090712A87832784FD20
:1035E00098C38327C4FD91079843B7070080B98F1C
:1035F0008325C4FE3E85EF306103AA873E89832779
:10360000C4FD9C438325C4FE3E85EF302102AA877A
:103610003E87832784FD93848700BA854A85EFE03F
:10362000106DAA879CC0B250225492540259456131
:103630008280397106DE22DC26DA4AD88000232611
:10364000A4FC2324B4FC832784FCB1070327C4FC17
:10365000184398C3832784FCF1070327C4FC58430D
:1036600098C3832784FC9387C7020327C4FC1847A9
:1036700098C3832784FC938707031307000098C32C
:10368000832784FC9387470398C3832784FC93870D
:10369000870398C3832784FC9387C7037167032735
:1036A000472F98C38327C4FCD1079C433E85EFE096
:1036B00070532326A4FE8327C4FCD1079C433E8578
:1036C000EFE0905A2324A4FE8327C4FCC1079C4347
:1036D0003E85EFE030512322A4FE8327C4FCC107BE
:1036E0009C433E85EFE050582320A4FE8327C4FC72
:1036F000B1079C433E85EFE0F04E232EA4FC8327C8
:10370000C4FCB1079C433E85EFE01056232CA4FC7B
:10371000832544FE0325C4FEEF304133AA873E874C
:10372000832784FC98C3032784FEB70700803D8F5E
:10373000832784FC93844700832544FE3A85EF3039
:10374000E130AA879CC0832784FCA107032704FEDD
:1037500098C3832504FE032584FDEF30212FAA871B
:10376000832584FE3E85EF30612EAA873E8983251E
:1037700084FE0325C4FDEF30612DAA873E87832791
:1037800084FC93840701BA854A85EF209133AA8788
:103790009CC0032784FEB7070080B98F832504FEF1
:1037A0003E85EF30A12AAA87832584FD3E85EF3030
:1037B000E129AA873E898325C4FD0325C4FEEF3095
:1037C000E128AA873E87832784FC93844701BA8532
:1037D0004A85EF20112FAA879CC0032784FDB707D5
:1037E00000803D8F832784FC93848701832544FEDA
:1037F0003A85EF30A125AA879CC00327C4FDB707EF
:103800000080B98F832504FE3E85EF302124AA87EE
:103810008325C4FE3E85EF306123AA873E89832538
:1038200084FE032584FDEF306122AA873E8783272B
:1038300084FC93840702BA854A85EF209128AA87E1
:103840009CC0832504FE0325C4FDEF302120AA87F8
:10385000832584FE3E85EF30611FAA873E8983253C
:10386000C4FE032584FDEF30611EAA873E878327AF
:1038700084FC93844702BA854A85EF209124AA8765
:103880009CC0832784FC93848702832544FE032500
:10389000C4FDEF30A11BAA879CC00100F250625406
:1038A000D2544259216182802D71232E1110232C74
:1038B0008110232A911000122326A4EE2324B4EEB3
:1038C0008327C4EE9C433E85EFE0D0312322A4FE43
:1038D0008327C4EE9C433E85EFE010392320A4FEED
:1038E0008327C4EEB1079C433E85EFE0B02F232E23
:1038F000A4FC8327C4EEB1079C433E85EFE0D0369D
:10390000232CA4FC8327C4FD232CF4F8032784FD77
:10391000B7070080B98F232EF4F89304000023200A
:1039200094FA8327C4EEDC432322F4FA832544FE71
:10393000032584FDEF308111AA872324F4FA83251F
:1039400044FE0325C4FDEF306110AA872326F4FA54
:10395000032704FEB7070080B98F2328F4FA032752
:1039600004FEB70700803D8F8327C4EEA1079C4368
:10397000BE853A85EF30810DAA87232AF4FA832584
:1039800004FE032584FDEF30610CAA87232CF4FA92
:10399000832504FE0325C4FDEF30410BAA87232EA7
:1039A000F4FA832744FE2320F4FC8327C4EEA10706
:1039B0009C43832544FE3E85EF304109AA8723229C
:1039C000F4FC232494FC232694FC232894FCF16724
:1039D00083A7472F232AF4FC85472326F4FE71A2F0
:1039E0008327C4FE92070327C4EEBA979C433E8503
:1039F000EFE0501F2322A4FE8327C4FE9207032773
:103A0000C4EEBA979C433E85EFE010262320A4FE27
:103A10008327C4FE9207B1070327C4EEBA979C43DD
:103A20003E85EFE0301C232EA4FC8327C4FE9207C2
:103A3000B1070327C4EEBA979C433E85EFE0D0223E
:103A4000232CA4FC8327C4FD232CF4F4032784FD3A
:103A5000B7070080B98F232EF4F4930400002320CD
:103A600094F68327C4FE920791070327C4EEBA9702
:103A70009C432322F4F6832544FE032584FDEF2096
:103A8000F17CAA872324F4F6832544FE0325C4FD94
:103A9000EF20D17BAA872326F4F6032704FEB7077D
:103AA0000080B98F2328F4F6032704FEB7070080AF
:103AB000B346F7008327C4FE9207A1070327C4EE8D
:103AC000BA979C43BE853685EF205178AA87232A72
:103AD000F4F6832504FE032584FDEF203177AA87C1
:103AE000232CF4F6832504FE0325C4FDEF20117674
:103AF000AA87232EF4F6832744FE2320F4F8832795
:103B0000C4FE9207A1070327C4EEBA979C438325FE
:103B100044FE3E85EF209173AA872322F4F82324E4
:103B200094F8232694F8232894F8F16783A7472F65
:103B3000232AF4F8130684F1930584F5130584F918
:103B4000914711479146EFF09F81930784F913073E
:103B500084F1930600043686BA853E85EF309115D0
:103B60008327C4FE85072326F4FE0327C4FE95475A
:103B7000E3D8E7E6032744F2832784EE98C383273C
:103B800084EE9107032744F398C3832784EEA107AB
:103B9000032744F498C3232404FE55A0832784FEFE
:103BA00013962700032784FEBA878607B386E700AB
:103BB00093172600130704FFBA9703A787F293977A
:103BC0002600930604FFB69723A2E7F0832784FE1E
:103BD0008A0713861700032784FEBA878607BA97D9
:103BE0009386170093172600130704FFBA9703A7BD
:103BF00087F293972600930604FFB69723A2E7F077
:103C0000832784FE8A0713862700032784FEBA874A
:103C10008607BA979386270093172600130704FF99
:103C2000BA9703A787F293972600930604FFB697E7
:103C300023A2E7F0832784FE85072324F4FE0327CD
:103C400084FE8947E3DCE7F4832784EE1387C7000B
:103C5000930744EFBA853E85EFF0EFFF0100832024
:103C6000C111032481118324411115618280717176
:103C700006D722D526D34AD14ECF52CD0019232EB6
:103C8000A4F4232CB4F4232AC4F4832784F59107E5
:103C90002326F4FC832784F5938747022324F4FC2E
:103CA000832784F5938747042322F4FC832784F534
:103CB000938747062320F4FC832784F593874708DE
:103CC000232EF4FA832784F59387470A232CF4FAEA
:103CD000232E04FC79A00327C4FD8D4763CCE700A5
:103CE0008327C4FD8A070327C4FCBA97716703279B
:103CF000873098C38327C4FD8A07032784FCBA97BB
:103D000071670327873098C38327C4FD8A07032779
:103D100044FCBA9771670327873098C38327C4FD93
:103D20008A07032704FCBA9771670327873098C373
:103D30008327C4FD8A070327C4FBBA97716703274B
:103D4000873098C38327C4FD8A07032784FBBA976B
:103D500071670327873098C38327C4FD8507232E07
:103D6000F4FC0327C4FD9D47E3D7E7F68327C4F59A
:103D7000DC47232AF4FA8327C4F5DC4F2328F4FA1E
:103D80008327C4F5DC572326F4FA832544FB032557
:103D900044FBEF20B14BAA87BE84832504FB032597
:103DA00004FBEF20B14AAA87BE852685EF2061512A
:103DB000AA87BE848325C4FA0325C4FAEF201149DB
:103DC000AA87BE852685EF20C14FAA872324F4FA4F
:103DD000832544FB032504FBEFE060712A878327DA
:103DE00084FC98C3032704FBB7070080B346F700A1
:103DF000032744FBB70700803D8F832784FC93840F
:103E00004700BA853685EFE0806EAA879CC0232CD8
:103E100004FC6F00B001832784FD8A07032784FC1C
:103E2000BA979C433E85EFE0E05B2A87B7070080A6
:103E300093C7F7FF7D8FF16783A507363A85EF209B
:103E4000D12FAA87635FF028832784FD8A07032781
:103E500084FCBA979C433E85EFE0C058AA87BE8594
:103E6000032544FBEF20817CAA873E87B70700200B
:103E700093870700DC4BBE853A85EF207166AA87E1
:103E80002322F4FAB7070020938707009C47BE85DA
:103E90000325C4FAEF20D164AA872320F4FAB707D8
:103EA000002093870700985FF16783A70731BE85DD
:103EB0003A85EFE0E063AA84B70700209387070004
:103EC000D85BF16783A70731BE853A85EFE0406292
:103ED000AA87BE852685EF20C13EAA87BE84B70784
:103EE000002093870700D853F16783A70731BE8569
:103EF0003A85EFE0E05FAA87BE852685EF20515E18
:103F0000AA87BE84F16783A70731BE85032544FADB
:103F1000EFE0005EAA87BE852685EF20715CAA8748
:103F2000BE84F16783A70731BE85032504FAEFE05D
:103F3000205CAA87BE852685EF20915AAA87BE8479
:103F4000B707002093870700DC53BE853E85EF202E
:103F50004137AA87BE852685EF20416DAA87232E8B
:103F6000F4F88325C4F9032544FAEF207157AA8792
:103F70003E87B707008093C7F7FF7D8FF16783A562
:103F800047363A85EF20711BAA876358F012F16714
:103F900083A70731BE85032504FAEFE06055AA84A4
:103FA000F16783A70731BE85032544FAEFE040544B
:103FB000AA87BE852685EF20C130AA87BE84F16717
:103FC00083A70731BE850325C4F9EFE06052AA87B5
:103FD000BE852685EF20D150AA873E85EFE0F0040C
:103FE000AA87832504FA3E85EF20A12DAA87BE84E7
:103FF0008325C4F9032544FAEF20914EAA87BE8594
:104000002685EFE0C04EAA86832784FD8E0703270E
:1040100044FCB304F700B6853685EF20812AAA87D1
:104020009CC0F16783A70731BE85032504FAEFE042
:10403000204CAA84F16783A70731BE85032544FA83
:10404000EFE0004BAA87BE852685EF208127AA874F
:10405000BE84F16783A70731BE850325C4F9EFE06D
:104060002049AA87BE852685EF209147AA873E85ED
:10407000EFE0A07BAA87BE85032504FAEF20514616
:10408000AA87BE848325C4F9032544FAEF2051454D
:10409000AA87BE852685EFE08045AA86832784FD12
:1040A0008E079107032744FCB304F700B6853685D5
:1040B000EF202121AA879CC0E9A4832784FD8E07D5
:1040C0009107032744FCBA9771670327873698C383
:1040D000032784FD0E07832644FC36979C431CC3AC
:1040E0004DA4832784FD8A07032784FCBA979C4349
:1040F0003E85EFE06037AA87BE85032504FBEF20ED
:10410000E152AA873E87B707002093870700DC4B60
:10411000BE853A85EF20D13CAA87232CF4F8B70757
:104120000020938707009C47BE850325C4FAEF2033
:10413000313BAA87232AF4F8F16783A70731BE85AC
:10414000032584F9EFE0C03AAA84F16783A7073119
:10415000BE85032544F9EFE0A039AA87BE852685F0
:10416000EF202116AA87BE84B70700209387070097
:10417000D853F16783A70731BE853A85EFE0403712
:10418000AA87BE852685EF20C113AA87BE84B707FC
:10419000002093870700D85BF16783A70731BE85AE
:1041A0003A85EFE0E034AA87BE852685EF205133BB
:1041B000AA87BE84B707002093870700985FF1673E
:1041C00083A70731BE853A85EFE08032AA87BE8596
:1041D0002685EF20F130AA873E87B7070080B344D9
:1041E000F700B707002093870700DC53BE853E85A4
:1041F000EF20210DAA87BE852685EF202143AA87BF
:104200002328F4F8832504F9032584F9EF20512DA0
:10421000AA873E87B707008093C7F7FF7D8FF167B6
:1042200083A547363A85EF204171AA876358F0127B
:10423000F16783A70731BE85032544F9EFE0402BE2
:10424000AA84F16783A70731BE85032584F9EFE0CF
:10425000202AAA87BE852685EF20A106AA87BE84CC
:10426000F16783A70731BE85032504F9EFE04028F5
:10427000AA87BE852685EF20B126AA873E85EFE076
:10428000C05AAA87832544F93E85EF208103AA8777
:10429000BE84832504F9032584F9EF207124AA87BD
:1042A000BE852685EFE0A024AA86832784FD8E079D
:1042B000032744FCB304F700B6853685EF20610080
:1042C000AA879CC0F16783A70731BE85032544F9FF
:1042D000EFE00022AA84F16783A70731BE8503259A
:1042E00084F9EFE0E020AA87BE852685EF10717D76
:1042F000AA87BE84F16783A70731BE85032504F929
:10430000EFE0001FAA87BE852685EF20711DAA87D2
:104310003E85EFE08051AA87BE85032544F9EF2052
:10432000311CAA87BE84832504F9032584F9EF2074
:10433000311BAA87BE852685EFE0601BAA868327EE
:1043400084FD8E079107032744FCB304F700B6856C
:104350003685EF101177AA879CC025A0832784FD9E
:104360008E079107032744FCBA97716703278736A6
:1043700098C3032784FD0E07832644FC36979C438D
:104380001CC3832784FD8A07032784FCBA979C43B8
:104390003E85EFE02005AA87832544FB3E85EF207C
:1043A000E16AAA87BE84832784FD8A07032784FCE9
:1043B000BA979C433E85EFE0200BAA87832504FB38
:1043C0003E85EF20A168AA87BE852685EF10716F14
:1043D000AA873E87B707002093870700DC4BBE857E
:1043E0003A85EF20F10FAA872326F4F8B7070020BB
:1043F000938707009C47BE850325C4FAEF20510E22
:10440000AA872324F4F8F16783A70731BE85032523
:10441000C4F8EFE0E00DAA84F16783A70731BE85F9
:10442000032584F8EFE0C00CAA87BE852685EF102F
:104430005169AA87BE84B707002093870700D85325
:10444000F16783A70731BE853A85EFE0600AAA8746
:10445000BE852685EF20D108AA87BE84B707002035
:1044600093870700D85BF16783A70731BE853A853C
:10447000EFE00008AA87BE852685EF207106AA878F
:10448000BE84B707002093870700985FF16783A772
:104490000731BE853A85EFE0A005AA87BE8526854F
:1044A000EF201104AA87BE84B70700209387070076
:1044B000DC53BE853E85EF10D160AA87BE85268578
:1044C000EF20C116AA872322F4F8B70700209387AC
:1044D0000700985FB707002093870700DC5BBE8565
:1044E0003A85EFE0C0002A89B707002093870700CC
:1044F000D85BF16783A70731BE853A85EFD0507F3F
:10450000AA84B707002093870700985FF16783A705
:104510000731BE853A85EFD0B07DAA87BE85268556
:10452000EF10315AAA87BE84F16783A70731BE8591
:10453000032544F8EFD0D07BAA87BE852685EF20DF
:10454000217AAA873E85EFE0402EAA87832544F88A
:104550003E85EFD0D079AA86832784FD8E07032776
:10456000C4FCB304F700B6854A85EF206177AA87BB
:104570009CC0B707002093870700985FB70700200B
:1045800093870700DC5BBE853A85EFD050762A8999
:10459000B707002093870700D85BF16783A707312F
:1045A000BE853A85EFD0D074AA84B70700209387E0
:1045B0000700985FF16783A70731BE853A85EFD082
:1045C0003073AA87BE852685EF10B14FAA87BE84B7
:1045D000F16783A70731BE85032544F8EFD05071FA
:1045E000AA87BE852685EF20A16FAA873E85EFE0CA
:1045F000C0232A87B7070080B98F832544F83E85FA
:10460000EFD0F06EAA86832784FD8E0791070327DB
:10461000C4FCB304F700B6854A85EF20616CAA8715
:104620009CC0832784FD8507232CF4FC032784FD8D
:10463000854763D2E7FEA30B04FC6F0070428347FB
:1046400074FD8A07032744FCBA979C433E85EF20FC
:10465000F137F16703A6873283A6C732EF00410E18
:10466000AA872E883E85C285EF2011412A87B70789
:10467000008093C7F7FF7D8FF16783A507333A85E5
:10468000EF20A12BAA87E358F03C832784FC9C43AE
:104690003E85EF20B133F16703A6873283A6C73288
:1046A000EF00010AAA872E883E85C285EF20D13C03
:1046B0002A87B707008093C7F7FF7D8FF16783A52F
:1046C00007333A85EF206127AA87E356F0388347FE
:1046D00074FD8A070327C4FCBA979C433E85EF20EC
:1046E000F12EF16703A6873283A6C732EF0041059A
:1046F000AA872E883E85C285EF2011382A87B70702
:10470000008093C7F7FF7D8FF16783A507333A8554
:10471000EF20A122AA87E350F034834774FD8583FC
:1047200093F7F70F8A07032784FCBA979C433E85CB
:10473000EFD0504BAA84834774FD8A07032744FCBB
:10474000BA979443834774FD8A070327C4FCBA973A
:104750009C43BE853685EF10D136AA873E85EFD0C3
:10476000B050AA87BE852685EF20412EAA87232038
:10477000F4F8834774FD858393F7F70F8A070327BF
:1047800084FCBA979C433E85EFD0104EAA848347A1
:1047900074FD8A07032744FCBA979443834774FD4A
:1047A0008A070327C4FCBA979C43BE853685EF1061
:1047B0005131AA873E85EFD0304BAA87BE8526852A
:1047C000EF20C128AA87232EF4F6834774FD8A07B9
:1047D000032744FCBA979443834774FD8A07032751
:1047E000C4FCBA979C43BE853685EF10912DAA87ED
:1047F0003E85EFD0303F2A87B7070080B98F232C42
:10480000F4F68327C4F5A1079C43BE85032504F86D
:10481000EF20014DAA873E87B707008093C7F7FFB7
:10482000F98F3E85EF20911AF16703A6873583A69D
:10483000C735EF00B150AA8763D1070A8327C4F5B3
:10484000E1079C43BE850325C4F7EF206149AA8791
:104850003E87B707008093C7F7FFF98F3E85EF20AB
:10486000F116F16703A6873583A6C735EF00114D12
:10487000AA8763D407068327C4F5938787029C43DE
:10488000BE85032584F7EF20A145AA873E87B70799
:10489000008093C7F7FFF98F3E85EF203113F16752
:1048A00003A6873583A6C735EF005149AA8763D68B
:1048B0000702834774FD8A070327C4FBBA971307CF
:1048C000000098C3834774FD8A07032704FCBA9746
:1048D000032744F5584798C31DA3834774FD858378
:1048E00093F7F70F8A07032784FCBA979C433E850A
:1048F000EFD090372A878327C4F5A1079C43BE8554
:104900003A85EF20A114AA87BE84834774FD85836E
:1049100093F7F70F8A07032784FCBA979C433E85D9
:10492000EFD0502C2A878327C4F5E1079C43BE852E
:104930003A85EF20A111AA87BE852685EF20413A4E
:10494000AA87232AF4F6834774FD858393F7F70F2C
:104950008A07032784FCBA979C433E85EFD09028B2
:10496000AA84834774FD8A07032744FCBA979443BB
:10497000834774FD8A070327C4FCBA979C43BE850E
:104980003685EF101114AA873E85EFD0B025AA878F
:10499000BE852685EF20810BAA873E878327C4F535
:1049A000A1079C43BE853A85EF20410AAA87BE84B1
:1049B000834774FD858393F7F70F8A07032784FCE9
:1049C000BA979C433E85EFD0302A2A89834774FDED
:1049D0008A07032744FCBA979443834774FD8A07E8
:1049E0000327C4FCBA979C43BE853685EF10710D32
:1049F000AA873E85EFD0101FAA87BE854A85EF2083
:104A0000E104AA873E878327C4F5E1079C43BE855E
:104A10003A85EF20A103AA87BE852685EF10710A8B
:104A2000AA87BE84834774FD8A07032744FCBA978C
:104A30009443834774FD8A070327C4FCBA979C43B9
:104A4000BE853685EF10F107AA873E85EFD0D021CD
:104A50002A878327C4F5938787029C43BE853A85BE
:104A6000EF10D17EAA87BE852685EF109105AA8713
:104A70002328F4F6834774FD8A07032704FCB30454
:104A8000F700832504F7032544F7EFD05026AA87C3
:104A90009CC08327C4F5A1078443834774FD8583A5
:104AA00093F7F70F8A07032784FCBA979C433E8548
:104AB000EFD0901B2A89834774FD8A07032704FCE3
:104AC000BA979C433E85EFD0301AAA87BE854A85A7
:104AD000EF10D177AA873E89834774FD858393F7CA
:104AE000F70F8A07032784FCBA979C433E85EFD0D3
:104AF000700FAA89834774FD8A07032704FCBA97BD
:104B00009C433E85EFD0100EAA87BE854E85EF10E0
:104B1000F173AA87BE89834774FD8A07032744FC83
:104B2000BA979443834774FD8A070327C4FCBA9756
:104B30009C43BE853685EF10C178AA873E85EFD0AD
:104B4000700AAA87BE854E85EF105170AA87BE8570
:104B50004A85EF100177AA87BE852685EF10116F71
:104B6000AA873E898327C4F5E1078443834774FD00
:104B7000858393F7F70F8A07032784FCBA979C4332
:104B80003E85EFD0700EAA89834774FD8A070327FC
:104B900004FCBA979C433E85EFD0D004AA87BE851B
:104BA0004E85EF10B16AAA87BE89834774FD8A07D4
:104BB000032744FCBA979443834774FD8A0703276D
:104BC000C4FCBA979C43BE853685EF10816FAA87D7
:104BD0003E85EFD03001AA87BE854E85EF10116764
:104BE000AA87BE89834774FD858393F7F70F8A07E9
:104BF000032784FCBA979C433E85EFD0A07E2A8A87
:104C0000834774FD8A07032704FCBA979C433E85BB
:104C1000EFD09005AA87BE855285EF103163AA8731
:104C2000BE854E85EF20C10BAA87BE852685EF1075
:104C3000F161AA87BE854A85EF10A168AA873E89DF
:104C40008327C4F5938787028443834774FD8A07CB
:104C5000032704FCBA979C433E85EFD0A078AA872F
:104C6000BE852685EF10915EAA87BE84834774FDBA
:104C70008A07032744FCBA979443834774FD8A0745
:104C80000327C4FCBA979C43BE853685EF10616349
:104C9000AA873E85EFD0407DAA87BE852685EF1086
:104CA000F15AAA87BE854A85EF10A161AA872326FB
:104CB000F4F68327C4F5A1078443834774FD8583F5
:104CC00093F7F70F8A07032784FCBA979C433E8526
:104CD000EFD04071AA87BE852685EF103157AA878D
:104CE000BE84834774FD8A07032744FCBA97944324
:104CF000834774FD8A070327C4FCBA979C43BE858B
:104D00003685EF10015CAA873E85EFD0E075AA8753
:104D1000BE852685EF109153AA873E898327C4F567
:104D2000E1078443834774FD858393F7F70F8A0770
:104D3000032784FCBA979C433E85EFD0E072AA8794
:104D4000BE852685EF109150AA87BE84834774FDE7
:104D50008A07032744FCBA979443834774FD8A0764
:104D60000327C4FCBA979C43BE853685EF10615576
:104D7000AA873E85EFD0406FAA87BE852685EF10B3
:104D8000F14CAA87BE854A85EF10A153AA873E89B8
:104D90008327C4F5938787028443834774FD8A077A
:104DA000032744FCBA979443834774FD8A0703277B
:104DB000C4FCBA979C43BE853685EF108150AA8704
:104DC0003E85EFD02062AA87BE852685EF10114868
:104DD000AA87BE854A85EF10B170AA872324F4F60E
:104DE000834774FD8A070327C4FBB304F7008325B8
:104DF00084F60325C4F6EFD0806FAA879CC0832772
:104E0000C4F58443834774FD858393F7F70F8A07BE
:104E1000032784FCBA979C433E85EFD0E0642A893F
:104E2000834774FD8A07032704FCBA979C433E8599
:104E3000EFD0405BAA87BE854A85EF103141AA8733
:104E40003E89834774FD858393F7F70F8A0703270D
:104E500084FCBA979C433E85EFD0C058AA8983470B
:104E600074FD8A07032744FCBA979443834774FD73
:104E70008A070327C4FCBA979C43BE853685EF108A
:104E80004144AA873E85EFD0E055AA87BE854E856E
:104E9000EF10D13BAA87BE89834774FD8A07032799
:104EA00004FCBA979C433E85EFD0005CAA87BE8580
:104EB0004E85EF10B139AA87BE854A85EF10516241
:104EC000AA87BE852685EF107138AA873E89832779
:104ED000C4F5C1078443834774FD858393F7F70FB7
:104EE0008A07032784FCBA979C433E85EFD0C057BE
:104EF000AA89834774FD8A07032744FCBA97944321
:104F0000834774FD8A070327C4FCBA979C43BE8578
:104F10003685EF10013BAA873E85EFD0A04CAA87CB
:104F2000BE854E85EF109132AA87BE89834774FDF6
:104F30008A07032704FCBA979C433E85EFD0C052F2
:104F4000AA87BE854E85EF107130AA87BE89834738
:104F500074FD858393F7F70F8A07032784FCBA97BC
:104F60009C433E85EFD000482A8A834774FD8A0718
:104F7000032704FCBA979C433E85EFD0A046AA873E
:104F8000BE855285EF10912CAA87BE854E85EF1005
:104F90004133AA87BE852685EF10512BAA87BE858F
:104FA0004A85EF10F153AA873E898327C4F593877A
:104FB00007028443834774FD8A07032744FCBA979A
:104FC0009443834774FD8A070327C4FCBA979C4324
:104FD000BE853685EF10E12EAA873E85EFD0C0480A
:104FE000AA89834774FD8A07032704FCBA979C4368
:104FF0003E85EFD06047AA87BE854E85EF1011250C
:10500000AA87BE852685EF107124AA87BE854A85AA
:10501000EF10114DAA872322F4F68327C4F59107D8
:105020008443834774FD858393F7F70F8A0703272B
:1050300084FCBA979C433E85EFD000432A8983477E
:1050400074FD8A07032704FCBA979C433E85EFD082
:105050006039AA87BE854A85EF10511FAA873E890D
:10506000834774FD858393F7F70F8A07032784FC32
:10507000BA979C433E85EFD0E036AA89834774FDFA
:105080008A07032744FCBA979443834774FD8A0731
:105090000327C4FCBA979C43BE853685EF10612276
:1050A000AA873E85EFD00034AA87BE854E85EF10D3
:1050B000F119AA87BE89834774FD8A07032704FC78
:1050C000BA979C433E85EFD0203AAA87BE854E858D
:1050D000EF10D117AA87BE854A85EF107140AA87C5
:1050E000BE852685EF109116AA873E898327C4F5D1
:1050F000D1078443834774FD858393F7F70F8A07AD
:10510000032784FCBA979C433E85EFD0E035AA89FB
:10511000834774FD8A07032744FCBA979443834767
:1051200074FD8A070327C4FCBA979C43BE85368565
:10513000EF102119AA873E85EFD0C02AAA87BE8525
:105140004E85EF10B110AA87BE89834774FD8A0788
:10515000032704FCBA979C433E85EFD0E030AA8732
:10516000BE854E85EF10910EAA87BE89834774FDD8
:10517000858393F7F70F8A07032784FCBA979C432C
:105180003E85EFD020262A8A834774FD8A070327AD
:1051900004FCBA979C433E85EFD0C024AA87BE8505
:1051A0005285EF10B10AAA87BE854E85EF106111B6
:1051B000AA87BE852685EF107109AA87BE854A8514
:1051C000EF101132AA873E898327C4F593874702DF
:1051D0008443834774FD8A07032744FCBA979443AA
:1051E000834774FD8A070327C4FCBA979C43BE8596
:1051F0003685EF10010DAA873E85EFD0E026AA89FB
:10520000834774FD8A07032704FCBA979C433E85B5
:10521000EFD08025AA87BE854E85EF103103AA877F
:10522000BE852685EF109102AA87BE854A85EF10BC
:10523000312BAA872320F4F6834774FD8A070327BE
:1052400084FBB304F700832504F6032544F6EFD06E
:10525000002AAA879CC0834774FD8507A30BF4FC32
:10526000034774FD8D4763FCE7BC832784FCB107CB
:10527000032784FC584398C3032784FC21079C43DD
:105280001CC3832784FC9107032784FC184398C31D
:10529000232804FCDDA0832704FD8A07032784FC60
:1052A0003E97832704FD91078A07832684FCB697DF
:1052B000184398C3832704FD8A07032744FC3E97BD
:1052C000832704FD91078A07832644FCB697184379
:1052D00098C3832704FD8A070327C4FC3E978327CE
:1052E00004FD91078A078326C4FCB697184398C328
:1052F000832704FD8A07032704FCBA979443832776
:1053000004FD91078A07032704FCB304F700F16743
:1053100083A587363685EF00D17AAA879CC083277C
:1053200004FD8A070327C4FBBA979443832704FD2F
:1053300091078A070327C4FBBA9737070080358F88
:1053400098C3832704FD8A07032784FBBA979443F5
:10535000832704FD91078A07032784FBB304F70022
:10536000F16783A587363685EF00B175AA879CC0A3
:10537000832704FD85072328F4FC032704FD8D47BC
:10538000E3DBE7F001003E85BA502A549A540A59EB
:10539000FA496A4A4D618280397106DE22DC80005A
:1053A0002326A4FCAE872322C4FCA305F4FC832798
:1053B000C4FC9C433E85EFD03FF82326A4FE032582
:1053C00044FCEFD07FF7232CA4FC19A8F16783A538
:1053D000C7360325C4FEEF00D16EAA872326F4FE4C
:1053E000F16783A507370325C4FEEF10615DAA8727
:1053F000E3CE07FC19A8F16783A5C7360325C4FED1
:10540000EF10110EAA872326F4FEF16783A5473714
:105410000325C4FEEF106152AA87E34EF0FC03257A
:10542000C4FEEFD01FEF2A878327C4FC98C38347AD
:10543000B4FC1547636CF72613972700F56793872D
:10544000C7BDBA979C438287854795A4F16783A51A
:105450008737032584FDEF00D166AA87232AF4FC51
:10546000F16783A54737032544FDEF10215EAA8726
:105470003E85EF10B155F16703A6073883A647387C
:10548000EFF0101FAA872E883E85C285EF00D15508
:10549000AA872324F4FEF16783A50737032544FD7B
:1054A000EF10C15AAA873E85EF105152F16703A64B
:1054B000073883A64738EFF0B01BAA872E883E85B1
:1054C000C285EF007152AA872322F4FE032784FECF
:1054D0009307400B63D7E7009307400B2324F4FEA8
:1054E00039A0832784FE63D40700232404FE832786
:1054F00044FE6355F000232204FE19A8032744FE4E
:105500009307C0F46356F7009307C0F42322F4FE18
:10551000032544FEEF10313FAA87BE850325C4FE54
:10552000EF10A141AA8763D3070049A2032584FE97
:10553000EF10713DAA87BE850325C4FEEF104148D8
:10554000AA876353F0009DA2854795A2854785A24F
:10555000F16783A587380325C4FEEF10013EAA87B3
:1055600063D30700A1A2F16783A5C7380325C4FE52
:10557000EF100145AA876353F0000DAA854705AADD
:10558000032784FDB707008093C7F7FFF98F232017
:10559000F4FEF16783A50739032504FEEF10E13916
:1055A000AA876357F000F16783A707392320F4FE29
:1055B000F16783A50739032504FEEF102107AA87A9
:1055C0003E85EF10B140F16703A6073883A6473840
:1055D000EF002102AA872E883E85C285F16703A6C7
:1055E000873983A6C739EF00414CAA872E883E85AC
:1055F000C285EF00713FAA87232EF4FC0325C4FD6A
:10560000EF1071302A87F16783A507393A85EF10CB
:10561000C132AA876357F0009307A005232EF4FC3C
:105620001DA00325C4FDEF10112E2A87F16783A565
:10563000073A3A85EF10C138AA8763D60700930767
:10564000C0F9232EF4FC0325C4FDEF10D12BAA874B
:10565000BE850325C4FEEF10412EAA8763D3070041
:10566000B1A0F16783A507390325C4FEEF104135CA
:10567000AA876353F0001DA8854715A8F16783A585
:10568000473A0325C4FEEF10412BAA8763D30700D6
:1056900031A8F16783A587370325C4FEEF10413297
:1056A000AA876353F00019A0854711A081473E8562
:1056B000F250625421618280797106D622D426D2BA
:1056C0000018232EA4FC232CB4FCA30704FE0DA871
:1056D0008347F4FE8A070327C4FDBA9794438347A0
:1056E000F4FE8A07032784FDB304F7003685EFD064
:1056F0005FC2AA879CC08347F4FE8507A307F4FE18
:105700000347F4FE9547E3F5E7FC0100B25022544D
:10571000925445618280797106D622D426D200182F
:10572000232EA4FC232CB4FCA30704FE0DA883475E
:10573000F4FE8A070327C4FDBA9794438347F4FE17
:105740008A07032784FDB304F7003685EFD0DFBE58
:10575000AA879CC08347F4FE8507A307F4FE03478E
:10576000F4FE9547E3F5E7FC0100B2502254925451
:10577000456182802D71232E1110232C811000127F
:105780002326A4EE2324B4EE930744F52146814555
:105790003E85EFA03FAE9307C4F9BE850325C4EE56
:1057A000EFD03FE91306C4F51305C4F9914711473B
:1057B0009146B705002093850506EFD05FBA9307A1
:1057C000C4F3BE85B7C700201385C767EFF0DFEECF
:1057D0009307C4F31307C4F53E86B7C7002093852B
:1057E000075A3A85EFE0AFC8AA87A303F4FE8347C0
:1057F00074FE6380076CA1472303F4FEA30704FE35
:10580000230704FEADAE8347E4FE37C7002093872D
:1058100087021307075A8A07BA97DC433E85EF10C1
:10582000F11AF16703A6873283A6C732EFE0507101
:10583000AA872E883E85C285EF1011242A87B707D4
:10584000008093C7F7FF7D8FF16783A507333A8503
:10585000EF10A10EAA87635FF0308347F4FE85073F
:10586000A307F4FE8347E4FE130704FFBA97054736
:105870002382E7F68347E4FE938787021397270086
:10588000B7C700209387075ABA97910713060000FD
:1058900095453E85EFF05FB0AA8791EF8347E4FE20
:1058A000130704FFBA97238207F68347F4FEFD1718
:1058B000A307F4FEC1A48347E4FE9387070213976E
:1058C0002700B7C700209387075ABA979107130696
:1058D000000091453E85EFF03FACAA8791EF8347EA
:1058E000E4FE130704FFBA97238207F68347F4FE0A
:1058F000FD17A307F4FEBDAC8347E4FEE107139751
:105900002700B7C700209387075ABA9793864700A6
:105910008347E4FE37C700201307075A8A07BA9760
:10592000DC433E868D453685EFF01FA7AA8791EFB1
:105930008347E4FE130704FFBA97238207F68347E1
:10594000F4FEFD17A307F4FE35A48347E4FEA10788
:1059500013972700B7C700209387075ABA97910774
:105960001306000081453E85EFF01FA3AA8791EF43
:105970008347E4FE130704FFBA97238207F68347A1
:10598000F4FEFD17A307F4FEF5A28347E4FEC1076A
:1059900013972700B7C700209387075ABA97910734
:1059A0001306000085453E85EFF01F9FAA8791EF03
:1059B0008347E4FE130704FFBA97238207F6834761
:1059C000F4FEFD17A307F4FE75A28347E4FE1397C8
:1059D0002700B7C700209387075ABA9793864700D6
:1059E0008347E4FE37C70020E1071307075A8A07F9
:1059F000BA97DC433E8689453685EFF0FF99AA8742
:105A000091EF8347E4FE130704FFBA97238207F65A
:105A10008347F4FEFD17A307F4FEA9AA8347E4FE1B
:105A200037C70020A1071307075A8A07BA97D84338
:105A3000B707002093870700D8C78347E4FE37C71E
:105A40000020C1071307075A8A07BA97D843B70738
:105A5000002093870700D8CF8347E4FE37C7002094
:105A60001307075A8A07BA97D843B70700209387C6
:105A70000700D8D78347E4FE37C70020E1071307A4
:105A8000075A8A07BA97D843B707002093870700B9
:105A9000D8DF8347E4FE37C7002093870702130748
:105AA000075A8A07BA97D843B70700209387070099
:105AB000F8C78347E4FE37C70020938787021307A0
:105AC000075A8A07BA97D843B70700209387070079
:105AD000F8CF9307C4F1BE85B707002013850700F0
