:100000006F80D048130000001300000013000000B0
:100010001300000013000000130000001300000094
:100020001300000013000000130000001300000084
:08003000130000007300100032
:100038000000000000000000BE6B0000CE6B000056
:1000480000000000D28B000000000000000000004B
:10005800D48B0000D68B00000000000000000000D8
:10006800D88B000000000000DA8B000000000000C0
:10007800DC8B0000DE8B0000E08B0000E28B0000D0
:10008800E48B0000E68B0000B8660000DC66000028
:10009800046700002C67000060670000F28B000016
:1000A800F48B0000F68B0000F88B0000FA8B000040
:1000B800FC8B0000FE8B0000008C0000028C00000E
:1000C8006E6B0000068C0000088C0000846700003E
:1000D8000C8C0000A4680000108C0000128C00003A
:1000E800D4680000F4680000246900001A8C00003D
:1000F8001C8C00001E8C0000208C0000228C00004C
:10010800248C0000A0640000D46400003665000060
:10011800106800002E8C0000308C0000328C00002B
:10012800E0690000368C0000388C00003A8C000032
:100138003C8C00003E8C000054690000428C00009A
:100148006A6500009E65000084690000B0690000CF
:100158004C8C00004E8C0000508C0000528C00002B
:10016800548C00008C640000588C00005A8C0000ED
:100178005C8C00005E8C0000608C0000F2BF000008
:10018800648C0000668C00007A660000CE65000072
:10019800026600004E660000708C0000166B0000BE
:1001A800748C0000768C0000788C0000466B000090
:1001B8007C8C00007E8C0000808C0000828C00000B
:1001C800848C0000868C0000888C00008A8C0000DB
:1001D8000000000000000000000000000000000017
:1001E8000000000000000000000000000000000007
:0801F8000000000000000000FF
:10020000737504308280B76200009382820873A005
:1002100002308280397101436EC619A03971415391
:100220006AC866CA62CC5ECE19A0397101535AD031
:1002300056D252D44ED64AD826DA22DC06DE330114
:100240006140828241114AC026C222C406C682820F
:10025000B24D4101024D924C224CB24B4101024B36
:10026000924A224AB2494101024992442244B24090
:10027000410182803D432A876373C3029377F7006D
:10028000BDEFADE5937606FF3D8ABA960CC34CC32D
:100290000CC74CC74107E36BD7FE11E28280B3065F
:1002A000C3408A069702000096966780A60023073F
:1002B000B700A306B7002306B700A305B7002305C0
:1002C000B700A304B7002304B700A303B7002303B8
:1002D000B700A302B7002302B700A301B7002301B0
:1002E000B700A300B7002300B700828093F5F50F95
:1002F00093968500D58D93960501D58D61B793961C
:1003000027009702000096968682E78086FA9680FC
:10031000C1171D8F3E96E374C3F8A5B73367B500C8
:10032000FD530D8B79E7B7877F7F9387F7F71041F0
:100330009441B372F6003363F600BE92B3E26200FA
:100340006397720C6318D6065041D441B372F6001D
:100350003363F600BE92B3E262006398720A631BD5
:10036000D60410459445B372F6003363F600BE928E
:10037000B3E262006391720A631ED6025045D4450F
:10038000B372F6003363F600BE92B3E26200639A82
:1003900072086311D60210499449B372F6003363B0
:1003A000F600BE92B3E26200639372085105D10574
:1003B000E30FD6F61317060193970601631CF700A7
:1003C0001357060193D706013305F7409375F50FD0
:1003D00091E982804183C1833305F7409375F50F1E
:1003E00091E182801377F70F93F7F70F3305F7400A
:1003F00082800346050083C6050005058505631355
:10040000D60065FA3305D640828011059105E312C6
:10041000D6FE014582802105A105E31CD6FC0145DD
:1004200082803105B105E316D6FC01458280410585
:10043000C105E310D6FC01458280011122CE0010D7
:100440002324A4FE2326B4FEB7F700E023A0070070
:10045000B7F700E08146014794C7D8C7B7F700E077
:10046000054798C30100B7F700E003A8C7009C4701
:100470000327C4FEC286636CD7000327C4FEC2866E
:10048000E313D7FE032784FE6363F700E9BF01008F
:10049000724405618280797122D60018232EA4FC53
:1004A0008327C4FD958393F7F70F9D8BA307F4FE75
:1004B0008327C4FD93F7F70FBD8B2307F4FE034793
:1004C000F4FEF9670A0793874713BA979C43DC4702
:1004D0000347E4FE85463397E600420741833A86A8
:1004E0008346F4FE79678A06130747133697184345
:1004F000B18F5CC70100325445618280797106D6A4
:1005000022D40018232EA4FC232CB4FC232AC4FCE0
:100510002328D4FC8327C4FD958393F7F70F9D8B85
:10052000A307F4FE8327C4FD93F7F70FBD8B2307C2
:10053000F4FE0327C4FD9307F00F6305F7140327A8
:10054000C4FD9307F00F6301F7148347F4FE91E7AE
:1005500085451145EFA0704B41A00347F4FE854748
:100560006317F70085452145EFA0304AB5A0034742
:10057000F4FE89476317F70085454145EFA0F04831
:10058000A1A80347F4FE8D476318F70085451305BE
:100590000002EFA0904789A00347F4FE914763183B
:1005A000F700854513050004EFA0304635A003474A
:1005B000F4FE95476318F700854513050008EFA082
:1005C000D04419A80347F4FE99476317F7008545FF
:1005D00013050010EFA070438347E4FE0547B317EF
:1005E000F700C207C1832310F4FE032784FD85476B
:1005F0006317F702832704FDC207C183A183C207E3
:10060000C18389E78D472322F4FE11A8832704FDC7
:10061000C207C183A183C207C1832322F4FE8327BB
:1006200004FDC207C18393F7F70F2324F4FE0347A9
:10063000F4FEF9670A0793874713BA979C433E87EE
:10064000930704FEBE853A85EFA00015032784FDBD
:100650008547631CF7020347F4FEF9670A0793878F
:100660004713BA979C43BE868347E4FE0547B317FA
:10067000F700C207C183032644FDBE853685EFA07F
:10068000803821A0010011A00100B2502254456120
:1006900082801D7186CEA2CC80102326A4FA23244A
:1006A000B4FAF96703AE47B5138747B5032347008C
:1006B000138747B583288700138747B50328C700EA
:1006C000138747B5084B138747B54C4B138747B57E
:1006D000104F138747B5544F138747B51853938767
:1006E00047B5DC532322C4FD232464FC232614FDD8
:1006F000232804FD232AA4FC232CB4FC232EC4FCB1
:100700002320D4FE2322E4FE2324F4FE8545032582
:10071000C4FAEF00C07AAA873E8713065002F96731
:10072000938587AF3A85EF20C02A832784FAB337B1
:10073000F00093F7F70F3E8713066002F967938581
:1007400087AF3A85EF20E028832784FABD832317FB
:10075000F4FE8357E4FE85073E87832784FAB3D7E8
:10076000E7022316F4FE0325C4FAEF00C07A83578C
:10077000C4FE231EF4FA8357E4FE231CF4FA231F5D
:1007800004FA231D04FA230004FCF9670327C4FAC2
:100790000A0793874715BA979C433E87930784FBC4
:1007A000BE853A85EFA07070F9670327C4FA0A077F
:1007B00093874715BA979C43054685453E85EFB01C
:1007C000200CF9670327C4FA0A0793874715BA97DD
:1007D0009C4385453E85EFB0A0188327C4FA93F764
:1007E000F70F8A07130704FFBA9783A747FD8D45C4
:1007F0003E85EF2020638327C4FA8A07130704FF8E
:10080000BA9783A747FD3E85EF20405EF96703272F
:10081000C4FA0A0793874715BA979C4385453E85D6
:10082000EFB080000100F6406644256182805D7172
:1008300086C6A2C48008232EA4FAF96703AE47B582
:10084000138747B503234700138747B583288700DD
:10085000138747B50328C700138747B5084B13878D
:1008600047B54C4B138747B5104F138747B5544FC7
:10087000138747B51853938747B5DC532324C4FD2A
:10088000232664FC232814FD232A04FD232CA4FC26
:10089000232EB4FC2320C4FE2322D4FE2324E4FE12
:1008A0002326F4FE8327C4FB8A07130704FFBA97A5
:1008B00083A787FD3E85EF2060530100B6402644A4
:1008C000616182805D7186C6A2C48008232EA4FA6D
:1008D000F96703AE47B5138747B50323470013876E
:1008E00047B583288700138747B50328C7001387B8
:1008F00047B5084B138747B54C4B138747B5104F87
:10090000138747B5544F138747B51853938747B597
:10091000DC532324C4FD232664FC232814FD232A4E
:1009200004FD232CA4FC232EB4FC2320C4FE23228C
:10093000D4FE2324E4FE2326F4FE8327C4FB8A0787
:10094000130704FFBA9783A787FD3E85EF20C04BAE
:100950000100B640264461618280011106CE22CC9E
:1009600000102326A4FE2324B4FE2322C4FE232049
:10097000D4FE8327C4FE81EB93068031054685456E
:100980001545AD3E41A00327C4FEC147631AF700D9
:1009900093068031054685451305300285369DA0B6
:1009A0000327C4FE93070002631AF7009306803101
:1009B000054685451305D0029136A9A00327C4FE3C
:1009C00093070003631AF7009306803105468545B7
:1009D0001305300225363DA00327C4FE930700040B
:1009E000631AF70093068031054685451305A00478
:1009F000313609A813069002F9679385C7B70145F8
:100A0000EF10307D032784FE89476319F7009306B2
:100A10008031054685451D45D53441A0032784FE18
:100A2000C947631AF70093068031054685451305CB
:100A30005002E9349DA0032784FE93072002631A25
:100A4000F70093068031054685451305F0027D3495
:100A5000A9A0032784FE93072003631AF7009306D7
:100A600080310546854513055002493C3DA00327CA
:100A700084FE93072004631AF7009306803105462D
:100A800085451305C0049D3C09A813060003F967BA
:100A90009385C7B70145EF10D073032744FE854700
:100AA0006319F70093064030054681451945B9346E
:100AB00059A8032744FEC547631AF7009306403040
:100AC0000546814513054002153CB5A8032744FEA1
:100AD00093071002631AF7009306403005468145DC
:100AE0001305E002213C85A0032744FE9307100470
:100AF000631AF70093064030054681451305B0049C
:100B0000F53A91A0032744FE93071003631AF700F8
:100B1000930640300546814513054002C53225A0A5
:100B2000032744FE9307F00F6317F7009307F00FB6
:100B30002322F4FE09A813068003F9679385C7B73B
:100B40000145EF10106993060031014685450325E4
:100B500004FE6D320100F2406244056182805D71E5
:100B600086C6A2C480082326A4FC2324B4FC232226
:100B7000C4FC2320D4FC232EE4FA232CF4FA232AE9
:100B800004FB231704FEF9670327C4FC0A079387B5
:100B90008714BA979C433E85EFA0B0148545054560
:100BA000EFA0A066032704FCC1476311F7020327E7
:100BB000C4FBC947631CF700032784FBC5476317C1
:100BC000F70085450545EF90906715A8032704FCBD
:100BD000930700046315F7020327C4FB930720045F
:100BE000631FF700032784FB930710046319F700C2
:100BF0008545B717200013850710EF9050648327B1
:100C0000C4FC91E785450565EFA0206025A003277A
:100C1000C4FC85476317F70085451165EFA0406365
:100C200011A80327C4FC89476316F7008545216591
:100C3000EFA00062832644FB032684FB8325C4FBCC
:100C4000032504FC193B231E04FC93074010231FBB
:100C5000F4FC231004FE032784FC85476305F70298
:100C6000832784FC81CF032784FC89476303F70231
:100C7000032784FC8D476304F7020DA8231104FEAB
:100C8000231204FE25A0231104FE85472312F4FE3F
:100C900031A889472311F4FE231204FE01A88947D5
:100CA0002311F4FE85472312F4FE010003A7418BB4
:100CB000832744FCB357F7022317F4FE0357E4FEDF
:100CC0009307F00F63F7E700930780032317F4FE01
:100CD00061A80357E4FE9307F00763F7E700930763
:100CE00000032317F4FE49A00357E4FE9307F00323
:100CF00063F7E700930780022317F4FEB5A00357BC
:100D0000E4FEFD4763F7E700930700022317F4FEB4
:100D1000A1A80357E4FEBD4763F6E700E1472317A8
:100D2000F4FE99A00357E4FE9D4763F6E700C14730
:100D30002317F4FE15A80357E4FE8D4763F6E7007A
:100D4000A1472317F4FE0DA00357E4FE854763F582
:100D5000E700231704FE09A81306D008F967938556
:100D6000C7B70145EF10F0468357E4FE2314F4FEA5
:100D7000930700202313F4FE231504FE9D4723163A
:100D8000F4FEF9670327C4FC0A0793878714BA9710
:100D90009C433E879307C4FDBE853A85EFA0C07B88
:100DA000F9670327C4FC0A0793878714BA979C4303
:100DB00085453E85EFA0D0090100B640264461611B
:100DC0008280011122CE00102326A4FEAE87A30547
:100DD000F4FEF9670327C4FE0A0793878714BA97BE
:100DE0009C433E878347B4FEC207C1832316F700A6
:100DF0000100F9670327C4FE0A0793878714BA978F
:100E00009C4383D78700C207C18393F70708F5F394
:100E10000100724405618280011122CE0010232658
:100E2000A4FEAE872315F4FE8357A4FEA183C20758
:100E3000C18393F6F70FF9670327C4FE0A07938768
:100E40008714BA979C433E8793970601C183231664
:100E5000F7000100F9670327C4FE0A079387871488
:100E6000BA979C4383D78700C207C18393F70708CB
:100E7000F5F38357A4FE93F6F70FF9670327C4FE33
:100E80000A0793878714BA979C433E879397060176
:100E9000C1832316F7000100F9670327C4FE0A0780
:100EA00093878714BA979C4383D78700C207C1836F
:100EB00093F70708F5F30100724405618280011180
:100EC00022CE00102326A4FE2324B4FE0327C4FE52
:100ED0000A079387019FBA979C4381EF0327C4FEBB
:100EE0000A079387019FBA97032784FE98C3854713
:100EF00039A80327C4FE0A079387019FBA979C432A
:100F0000032784FE6314F700854711A081473E85BF
:100F1000724405618280011106CE22CC0010232686
:100F2000A4FE8327C4FE81EB854585671385078072
:100F3000EFA0A02D6DA80327C4FE85476317F70017
:100F400085450545EFA0C0305DA00327C4FE894755
:100F50006317F70085450945EFA0802F49A80327AF
:100F6000C4FE8D476317F70085451145EFA0402E5D
:100F7000BDA80327C4FE91476317F70085452145A7
:100F8000EFA0002DADA00327C4FE95476317F7001F
:100F900085454145EFA0C02B99A80327C4FE99477A
:100FA0006318F700854513050002EFA0602A81A0B1
:100FB0000327C4FE9D476317F70085450965EFA029
:100FC000C02435A00327C4FEA1476318F700854558
:100FD00037050800EFA0602319A80327C4FEA54722
:100FE0006317F700854537051000EFA000220100C8
:100FF000F240624405618280011106CE22CC0010CD
:101000002326A4FE2324B4FE8327C4FE81EBE146FD
:10101000014685452545EFF06FCEC9AA0327C4FEDA
:101020008947631AF700E1460146854513056002CA
:10103000EFF0CFCC65AA0327C4FEC1476319F700C0
:10104000E146014685450945EFF04FCB45A2032710
:10105000C4FEC947631AF700E146014685451305FA
:101060005006EFF0AFC959A20327C4FE9307000250
:10107000631AF700E146014685451305A002EFF02B
:10108000EFC7ADA20327C4FE93072002631AF7003F
:10109000E146014685451305A004EFF02FC6B9A22D
:1010A0000327C4FE93074002631AF700E146014696
:1010B000854513058006EFF06FC40DAA0327C4FE13
:1010C00093070004631AF700E146014685451305BE
:1010D000A004EFF0AFC219AA0327C4FE93072004AF
:1010E000631AF700E1460146854513050002EFF05B
:1010F000EFC0EDA80327C4FE93070005631AF700AD
:10110000E146014685451305C004EFF02FBFF9A85D
:101110000327C4FE93072005631AF700E146014642
:10112000854513058008EFF06FBDC9A00327C4FEF5
:1011300093070006631AF700E1460146854513054B
:101140000004EFF0AFBB5DA00327C4FE93072006A9
:10115000631AF700E1460146854513050004EFF0E8
:10116000EFB969A00327C4FE93070007631AF700CD
:10117000E1460146854513052004EFF02FB8BDA0D8
:101180000327C4FE930720076319F700E1460146D1
:1011900085451945EFF08FB691A80327C4FE930744
:1011A0004007631AF700E146014685451305C0086C
:1011B000EFF0CFB425A80327C4FE93070008631AF5
:1011C000F700E1460146854513054004EFF00FB3F3
:1011D00031A80327C4FE930720086319F700E146EE
:1011E000014685451305E008EFF04FB1032784FE63
:1011F0008547631AF7009306800401468145294517
:10120000EFF0CFAFD5AA032784FE8D47631BF7000D
:10121000930680040146814513057002EFF00FAE7E
:10122000E1AA032784FEC547631AF70093068004EA
:10123000014681450D45EFF06FAC7DAA032784FE82
:10124000CD47631BF70093068004014681451305D3
:101250006006EFF0AFAA4DA2032784FE93071002A9
:10126000631BF70093068004014681451305B00215
:10127000EFF0CFA851A2032784FE93073002631B2F
:10128000F70093068004014681451305B004EFF092
:10129000EFA69DA2032784FE93075002631BF7006D
:1012A000930680040146814513059006EFF00FA5D3
:1012B000A1A2032784FE93071004631BF700930683
:1012C0008004014681451305B004EFF02FA32DA241
:1012D000032784FE93073004631BF7009306800402
:1012E0000146814513051002EFF04FA131A20327FB
:1012F00084FE93071005631BF700930680040146E4
:10130000814513052006EFF06F9FFDA0032784FEA3
:1013100093073005631BF70093068004014681455F
:1013200013059008EFF08F9DC1A8032784FE930753
:101330001006631BF70093068004014681451305E0
:101340001004EFF0AF9B4DA8032784FE93073006EF
:10135000631BF70093068004014681451305B0081E
:10136000EFF0CF9951A8032784FE93071007631B62
:10137000F700930680040146814513053004EFF021
:10138000EF979DA8032784FE93073007631AF700A1
:1013900093068004014681451D45EFF02F96A9A8CC
:1013A000032784FE93075007631BF700930680040E
:1013B000014681451305D008EFF04F9435A8032767
:1013C00084FE93071008631BF70093068004014610
:1013D000814513055004EFF06F9239A8032784FE6E
:1013E00093073008631AF70093068004014681458D
:1013F0001305F008EFF08F900100F24062440561A0
:101400008280011122CE00102326A4FEAE87A30500
:10141000F4FE0100F9670327C4FE0A079387C71784
:10142000BA979C4383D70700C207C18393F7070885
:10143000F5D3F9670327C4FE0A079387C717BA973E
:101440009C433E878347B4FEC207C1832312F70043
:101450000100724405618280011106CE22CC001089
:101460002326A4FE2324B4FE2322C4FE29A8832716
:1014700084FE138717002324E4FE83C70700BE857C
:101480000325C4FEBD3F832744FE1387F7FF2322B5
:10149000E4FEF1FF0100F240624405618280011127
:1014A00006CE22CC00102326A4FEAE87A305F4FEB0
:1014B000F9670327C4FE0A079387C717BA979C43A7
:1014C0003E878347B4FE3E86930550523A85EFA08F
:1014D0004075B7E700E0938641850327C4FE369741
:1014E00003470700BA97238007408347B4FE81CFA4
:1014F000138741858327C4FEBA9783C707003E85BB
:10150000EF10D00E19A8138741858327C4FEBA9720
:1015100083C707003E85EF10300F0100F2406244A0
:1015200005618280011122CE00102326A4FE23240F
:10153000B4FEF9670327C4FE0A079387C717BA9753
:101540009C4383D70700C207C18393F707028DC767
:10155000F9670327C4FE0A079387C717BA979C4306
:1015600083D74700C207C18313F7F70F832784FE91
:101570002380E700854711A081473E8572440561BD
:101580008280797106D622D40018232EA4FC232C45
:10159000B4FC232AC4FC2328D4FC85450545EF90E0
:1015A000D046832504FD032544FDB934032744FDBB
:1015B0008947631CF700032704FD8D476317F70075
:1015C00085451145EF90A04795A2032744FDC947E3
:1015D000631CF700032704FDCD476317F70085451B
:1015E0002145EF90C04599A2032744FD93072002AF
:1015F0006310F702032704FD93073002631AF70014
:101600008545B707140013850701EF90404339AAB9
:10161000032744FD930740026310F702032704FDEC
:1016200093075002631AF7008545B7071400138526
:101630000703EF90C040DDA8032744FD9307200473
:10164000631DF700032704FD930730046317F700B9
:1016500085450565EF90A03ED1A8032744FD93077B
:1016600020056310F702032704FD93073005631A72
:10167000F7008545B707200013851700EF90203C41
:1016800075A0032744FD930720066310F702032784
:1016900004FD93073006631AF7008545B7170080ED
:1016A00013850780EF90A03951A0032744FD9307CD
:1016B00020076312F702032704FD93073007631C1A
:1016C000F700B7070140D44FB70701403707400084
:1016D000558FD8CFA1A8032744FD93074007631275
:1016E000F702032704FD93075007631CF700B707B1
:1016F0000140D44FB707014037078000558FD8CF3E
:1017000035A0032744FD930720086311F702032740
:1017100004FD93073008631BF700B7070140D44F5F
:10172000B707014037070002558FD8CF8327C4FD84
:1017300091E785451165EF90502D69A80327C4FDF9
:1017400085476318F700854537050200EF90503054
:1017500051A00327C4FD89476318F7008545370565
:101760000400EF90F02EBDA00327C4FD8D47631841
:10177000F700854537050800EF90902DA1A80327B5
:10178000C4FD91476318F700854537051000EF90B9
:10179000302C89A00327C4FD95476318F7008545C1
:1017A00013050004EF90D02A35A00327C4FD994704
:1017B0006318F700854513050008EF90702919A8F4
:1017C0000327C4FD9D476317F700854513050010E7
:1017D000EF901028832784FD2320F4FE231204FEBB
:1017E000231304FE231404FE231604FEB14723151D
:1017F000F4FEF9670327C4FD0A079387C717BA9752
:101800009C433E87930704FEBE853A85EFA02018CF
:10181000F9670327C4FD0A079387C717BA979C4344
:1018200085453E85EFA0E0390100B2502254456164
:101830008280411106C622C400089385018919459A
:10184000D531054693850189138581A1EF10402983
:101850000100B240224441018280411106C622C4E7
:1018600000089385118905457539054693851189C9
:101870001385C1A2EF10C0260100B24022444101ED
:101880008280411106C622C4000803A7818A8947C5
:10189000630FF70003A7818A8D476314F70099202F
:1018A00039A003A7818A91476313F70045280100F7
:1018B000B240224441018280411106C622C4000880
:1018C00003A7818A91476314F700DD2839A003A795
:1018D000818A8D476313F70085280100B2402244B6
:1018E00041018280411106C622C4000883C7718964
:1018F0003E8793874189BA97BE8511452531AA87CE
:1019000081CB83C77189850713F7F70FA38BE18814
:1019100003C771898547631AF70003C74189930795
:10192000500A6304F700A38B018803C771898D47B0
:101930006317F700A38B01880547238CE18801001A
:10194000B240224441018280411122C6000805476D
:101950002389E1880100324441018280411106C699
:1019600022C4000883C7F1893E879387C189BA974B
:10197000BE851145453EAA8781CB83C7F18985077E
:1019800013F7F70FA38FE18803C7F1898547631A1F
:10199000F70003C7C1899307500A6304F700A38FB8
:1019A000018803C7F1898D476317F700A38F01886A
:1019B00005472380E18A0100B24022444101828030
:1019C000411122C600080547A380E18A0100324484
:1019D00041018280011106CE22CC0010AA87A30704
:1019E000F4FEF96793874713DC433E8785671CCB7A
:1019F000F96793874713DC433E8785675CCBF967BC
:101A000093874713DC473E87930700105CCB8347DF
:101A1000F4FEBE850545EFF0CFBAF967938747130B
:101A2000DC433E8785671CCBF96793874713DC4708
:101A30003E87930700101CCBF96793874713DC435D
:101A40003E8785675CCB0100F2406244056182807D
:101A5000011106CE22CC0010AA8736872317F4FE88
:101A6000AE872316F4FEB2872315F4FEBA8723143B
:101A7000F4FEB707002083C7472CC207C183035772
:101A8000E4FEB337F70093F7F70F3E871306F00431
:101A9000F967938587BD3A85EF00B07383C751809E
:101AA000C207C1830357C4FEB337F70093F7F70F9C
:101AB0003E8713060005F967938587BD3A85EF00D9
:101AC0005071B707002083C7472CC207C183035753
:101AD000A4FEB337F70093F7F70F3E871306100500
:101AE000F967938587BD3A85EF00B06E83C7518053
:101AF000C207C183035784FEB337F70093F7F70F8C
:101B00003E8713062005F967938587BD3A85EF0068
:101B1000506C83A7418A91C703A7418A8547631503
:101B2000F7081305A0027D3581450545EFF06FA943
:101B30008357E4FE93F7F70F890793F7F70FBE85F6
:101B40000545EFF00FA881450545EFF08FA78357B6
:101B5000A4FE93F7F70F890793F7F70FBE850545A6
:101B6000EFF02FA61305B002B53581450545EFF01E
:101B70004FA58357C4FE93F7F70F850793F7F70F29
:101B8000BE850545EFF0EFA381450545EFF06FA356
:101B9000835784FE93F7F70F850793F7F70FBE85FA
:101BA0000545EFF00FA259A01305A0022535814588
:101BB0000545EFF00FA18357E4FE93F7F70F850774
:101BC00093F7F70FBE850545EFF0AF9F81450545BB
:101BD000EFF02F9F8357A4FE93F7F70F850793F736
:101BE000F70FBE850545EFF0CF9D1305B002DD333D
:101BF00081450545EFF0EF9C8357C4FE93F7F70F3F
:101C0000890793F7F70FBE850545EFF08F9B814558
:101C10000545EFF00F9B835784FE93F7F70F890775
:101C200093F7F70FBE850545EFF0AF991305C00296
:101C300055330100F240624405618280797106D615
:101C400022D40018AA87231FF4FCB707002083C7FB
:101C5000472C3E8783C75180B307F7022326F4FE43
:101C6000B707002083C7472CC207C183FD1713970E
:101C70000701418383C75180C207C183FD17C20793
:101C8000C183BE863A8681450145D93321A8835751
:101C9000E4FDBE850545EFF02F988327C4FEFD17B0
:101CA0002326F4FE8327C4FEFDF30100B250225424
:101CB00045618280011122CE00102326A4FE032755
:101CC000C4FE23A2E18A0327C4FE854763EDE70033
:101CD000B7070020130700F82382E72C130700FA48
:101CE000A382E18019A8B7070020130700FA238216
:101CF000E72C130700F8A382E1800100724405611C
:101D00008280011122CE0010AA872E872317F4FEAD
:101D1000BA872316F4FEB70700200357E4FE23908A
:101D2000E72CB70700200357C4FE2391E72C0100DE
:101D3000724405618280797106D622D40018AA8780
:101D4000AE863287231FF4FCB687231EF4FCBA87C5
:101D5000A30DF4FCB707002083C7472CC207C1833B
:101D60000357E4FDB337F70093F7F70F3E871306E9
:101D7000800FF967938587BD3A85EF00904583C74B
:101D80005180C207C1830357C4FDB337F70093F7EF
:101D9000F70F3E871306900FF967938587BD3A8545
:101DA000EF003043A30704FE75A88347F4FE1397A2
:101DB000070141838357C4FDBA9793950701C181F9
:101DC0008357E4FD9D071396070141828347F4FE84
:101DD0001397070141838357C4FDBA9713970701EF
:101DE00041838357E4FDBA863E859D318307B4FD68
:101DF000938607FE8347F4FE796792061307C71997
:101E00003697BA9783C70700A306F4FE230704FE9C
:101E100081A08347D4FE858B91CBB707002083D761
:101E2000072CBE850545EFE03FFF09A8B707002056
:101E300083D7272CBE850545EFE01FFE8347D4FEE0
:101E40008583A306F4FE8347E4FE85072307F4FE9B
:101E50000347E4FE9D47E3FEE7FA8347F4FE850768
:101E6000A307F4FE0347F4FEBD47E3F0E7F40100E7
:101E7000B250225445618280797106D622D400186E
:101E8000AA872E87232CC4FC231FF4FCBA87231EA9
:101E9000F4FCB707002083C7472CC207C183035750
:101EA000E4FDB337F70093F7F70F3E871306701181
:101EB000F967938587BD3A85EF00B03183C75180BC
:101EC000C207C1830357C4FDB337F70093F7F70F79
:101ED0003E8713068011F967938587BD3A85EF0029
:101EE000502F231704FE3DA88357E4FE8E07139757
:101EF000070141838357E4FDBA9793960701C18296
:101F00008357E4FE032784FDBA97038707008357AE
:101F1000C4FD3A86BE853685393D8357E4FE850784
:101F20002317F4FE8357E4FE032784FDBA978387C3
:101F30000700DDFB0100B2502254456182803971F7
:101F400006DE22DC8000AA872324C4FC3687231700
:101F5000F4FCAE872316F4FCBA87A303F4FCB7079E
:101F6000002083C7472CC207C1830357E4FCB33763
:101F7000F70093F7F70F3E871306E012F967938592
:101F800087BD3A85EF00F02483C75180C207C18323
:101F90000357C4FCB337F70093F7F70F3E871306D8
:101FA000F012F967938587BD3A85EF009022834749
:101FB00074FCB337F00093F7F70F3E871306001356
:101FC000F967938587BD3A85EF00B020834774FC9D
:101FD00093B7B70093F7F70F3E8713061013F9670F
:101FE000938587BD3A85EF00D01E832784FC232686
:101FF000F4FE85472324F4FE9307C4FD3146814552
:102000003E85EFE02FA7834774FC85073E87930743
:10201000C4FD3A86930500023E85EFE0AFA5034775
:1020200074FCA54763EBE70231A8032784FEBA8757
:102030008A07BA9786072324F4FE834774FCFD17AA
:10204000A303F4FC834774FCEDF30327C4FE83274A
:1020500084FEB367F7022326F4FE9307C4FD8325AD
:10206000C4FE3E85EF00D0379306C4FD0357C4FC81
:102070008357E4FC3686BA853E85FD3B0100F2506D
:10208000625421618280397106DE22DC8000AA87D9
:102090002324C4FC36872317F4FCAE872316F4FCF4
:1020A000BA87A303F4FCB707002083C7472CC207F5
:1020B000C1830357E4FCB337F70093F7F70F3E876C
:1020C00013060015F967938587BD3A85EF007010F8
:1020D00083C75180C207C1830357C4FCB337F700DD
:1020E00093F7F70F3E8713061015F967938587BDA1
:1020F0003A85EF00100E834774FCB337F00093F776
:10210000F70F3E8713062015F967938587BD3A853B
:10211000EF00300C834774FC93B7B70093F7F70FC9
:102120003E8713063015F967938587BD3A85EF0022
:10213000500A832784FC2326F4FE85472324F4FEDB
:102140009307C4FD314681453E85EFE0AF920347DA
:1021500074FC9307C4FD3A86930500023E85EFE0C8
:102160006F91034774FCA54763EBE70231A803278F
:1021700084FEBA878A07BA9786072324F4FE83472A
:1021800074FCFD17A303F4FC834774FCEDF3832771
:1021900084FE0327C4FEB377F7022326F4FE9307D9
:1021A000C4FD8325C4FE3E85EF0050309306C4FD78
:1021B0000357C4FC8357E4FC3686BA853E856D39E7
:1021C0000100F250625421618280011106CE22CCBE
:1021D0004ACA4EC852C656C45AC25EC0001083A72F
:1021E000418B13D627001308F00F9307F00F130746
:1021F00020029306000281450545EFE05F96C14647
:102200000146854513058006EFE04FAFC146014604
:1022100085451305A006EFE06FAEC1460146854532
:102220001305C002EFE08FADC14605468545130595
:10223000C006EFE0AFAC83A7418A3E85EFF09FA7D1
:10224000B707002003D7072CB707002083D7272C18
:10225000BE853A85EFF0FFAAF96793874713DC47FD
:102260003E87930700405CCB03A7418B8967938728
:1022700007F43357F702BA878A07BA9786073E8B67
:10228000814B5A85DE85EFE04F9BF96793874713B3
:10229000DC473E87930700401CCB03A7418B89672F
:1022A000938707F43357F702BA879207998F8E07FF
:1022B0003E8A814A5285D685EFE02F984545EFF05A
:1022C0006FF103A7418B8967938707F43357F702B0
:1022D000BA879207998F8E073E8981494A85CE85B4
:1022E000EFE0AF951305100BEFF0CFEE85450545F8
:1022F000EFE03FAD9305C0020545EFE09FAC9305CD
:10230000D0020545EFE0FFAB1305200BEFF08FEC9B
:1023100085450545EFE0FFAA9305C0020545EFE0BE
:102320005FAA9305D0020545EFE0BFA91305300B66
:10233000EFF04FEA85450545EFE0BFA89305C002E1
:102340000545EFE01FA89305D0020545EFE07FA704
:1023500085450545EFE0FFA69305C0020545EFE082
:102360005FA69305D0020545EFE0BFA51305400B1E
:10237000EFF04FE69D450545EFE0BFA41305000CC7
:10238000EFF04FE59305200A0545EFE09FA389454F
:102390000545EFE01FA3930540080545EFE07FA248
:1023A0001305100CEFF00FE39305500C0545EFE01B
:1023B0005FA11305200CEFF0EFE1A9450545EFE023
:1023C0005FA081450545EFE0DF9F1305300CEFF07E
:1023D0006FE09305A0080545EFE0BF9E9305A002BE
:1023E0000545EFE01F9E1305400CEFF0AFDE9305AF
:1023F000A0080545EFE0FF9C9305E00E0545EFE0E2
:102400005F9C1305500CEFF0EFDCB9450545EFE09C
:102410005F9B13056003EFF0EFDB83A7418A05475D
:102420006380E70281CB09476381E7020D4763843C
:10243000E70205A89305000C0545EFE09F9815A05D
:1024400081450545EFE0FF9729A89305000A05455A
:10245000EFE03F9739A0930500060545EFE07F9632
:1024600001001305000EEFF0EFD6BD450545EFE086
:102470005F95E9450545EFE0DF94BD450545EFE093
:102480005F94E1450545EFE0DF939305F0020545D4
:10249000EFE03F93930580020545EFE09F9293059F
:1024A00000020545EFE0FF91930520020545EFE0AE
:1024B0005F91FD450545EFE0DF90ED450545EFE017
:1024C0005F90930530020545EFE0BF8F93057003E1
:1024D0000545EFE01F8F81450545EFE09F8E9D4547
:1024E0000545EFE01F8E89450545EFE09F8DC1450D
:1024F0000545EFE01F8D1305100EEFF0AFCDBD4584
:102500000545EFE01F8CED450545EFE09F8BBD4590
:102510000545EFE01F8BDD450545EFE09F8A9305FC
:1025200030030545EFE0FF899305C0020545EFE064
:102530005F89930590020545EFE0BF889305E002AF
:102540000545EFE01F88930500030545EFE07F8711
:10255000930500030545EFE0DF86930590030545ED
:10256000EFE03F869305F0030545EFE09F85814549
:102570000545EFE01F859D450545EFE09F848D45AE
:102580000545EFE01F84C1450545EFE09F83130536
:10259000A002EFF02FC481450545EFE09F828945F9
:1025A0000545EFE01F8281450545EFE09F819305DA
:1025B00020080545EFE0FF801305B002EFF08FC162
:1025C00081450545EFE0EFFF8D450545EFE06FFFE5
:1025D00081450545EFE0EFFE930530080545EFE046
:1025E0004FFE1305000FEFF0EFBE85450545EFE008
:1025F0004FFD1305600FEFF0EFBD81450545EFE09E
:102600004FFC1305A003EFF0EFBC95450545EFE047
:102610004FFB13059002EFF0EFBBB707002083D705
:10262000272C3E85EFF08FE10100F24062445249D1
:10263000C249324AA24A124B824B05618280411143
:1026400006C622C400089385018B0545EFE09FED87
:1026500005469385018B138501A459210100B240E1
:10266000224441018280411106C622C4000893859C
:10267000118B0545EFE01FEB05469385118B138504
:1026800041A5B9290100B2402244410182800111D3
:1026900006CE22CC00102326A4FE0327C4FE23AAC4
:1026A000E18A19280325C4FE5920EF00207A010091
:1026B000F240624405618280411122C60008B717CA
:1026C00002409843B71702401367170098C3B71723
:1026D0000240D443B71702403707FFF8758FD8C3BD
:1026E000B71702409443B71702403707F7FE7D172C
:1026F000758F98C3B71702409443B7170240370746
:10270000FCFF7D17758F98C3B7170240D443B717E6
:102710000240370781FF7D17758FD8C3B717024076
:1027200037079F0098C701003244410182807971C8
:1027300022D60018232EA4FC232604FE232404FE04
:10274000B71702409443B71702404167558F98C3AB
:10275000B71702409843B7070200F98F2324F4FE0D
:102760008327C4FE85072326F4FE832784FE99E78A
:102770000327C4FE93070050E31CF7FCB717024081
:102780009843B7070200F98F89C785472324F4FED1
:1027900019A0232404FE032784FE85476315F71E32
:1027A000B72702409843B72702401367070198C331
:1027B000B72702409843B7270240719B98C3B727B9
:1027C000024094438327C4FD1387F7FFB7376E0198
:1027D00093870760B357F70213F77700B7270240D4
:1027E000558F98C337170240B71702405843D8C3D4
:1027F00037170240B71702405843D8C33717024073
:10280000B71702405843D8C30327C4FDB7177A004F
:1028100093870720631BF702B7170240D843B71707
:102820000240719BD8C3B7170240D843B717024084
:1028300013671700D8C30100B7170240DC4313F732
:10284000C7009147E31AF7FE81A2B7170240D443AD
:10285000B71702403707C1FF7D17758FD8C303270D
:10286000C4FDB747950893870740631BF700B71768
:102870000240D443B71702404167558FD8C355A8CB
:102880000327C4FDB7172707938707E0631CF700EA
:10289000B7170240D443B717024037073900558FA6
:1028A000D8C341A80327C4FDB7E7B80593870780BD
:1028B000631CF700B7170240D443B717024037072D
:1028C0002900558FD8C3B5A00327C4FDB7A74A0474
:1028D00093870720631CF700B7170240D443B7174C
:1028E000024037071D00558FD8C3A1A00327C4FDA0
:1028F000B777DC02938707C0631CF700B717024065
:10290000D443B717024037071100558FD8C315A01D
:102910000327C4FDB7376E0193870760631BF70079
:10292000B7170240D443B717024037070500558F49
:10293000D8C3B71702409443B717024037070001C6
:10294000558F98C30100B71702409843B70700029C
:10295000F98FF5DBB7170240D843B7170240719BD8
:10296000D8C3B7170240D843B717024013672700F0
:10297000D8C30100B7170240DC4313F7C700A147D3
:10298000E31AF7FE11A001A0325445618280411183
:1029900022C6000801000100324441018280411139
:1029A00006C622C400089306100213060002F1674F
:1029B000938507200945EFE0DFBC85450945EFE039
:1029C0001FAE0547238CE18A0100B2402244410139
:1029D0008280011106CE22CC0010AA872324B4FEE7
:1029E0002322C4FEA307F4FE8347F4FE85E383C7D6
:1029F000818B91CB032644FE832584FEF9671385E2
:102A0000C7C3EF60912C49215937FDBF0100F24047
:102A1000624405618280797106D622D40018232E83
:102A2000A4FC232CB4FC232AC4FC232604FEA9A066
:102A30000100F9679387C7179C47930500043E85FB
:102A4000EF90402DAA87F5D7F9679387C7179C4762
:102A5000BE86832784FD13871700232CE4FC83871D
:102A60000700C207C183BE853685EF90C027832744
:102A7000C4FE85072326F4FE0327C4FE832744FDF6
:102A8000E348F7FA832744FD3E85B250225445615E
:102A90008280011122CE00102326A4FE2324B4FE3E
:102AA0008327C4FED843832784FE3E978327C4FE32
:102AB000D8C319A88327C4FED8438327C4FE9C4BE0
:102AC0001D8F8327C4FED8C38327C4FE984B83275A
:102AD000C4FEDC43E3F0E7FE01007244056182803E
:102AE000797106D622D40018232EA4FC232CB4FC22
:102AF000232AC4FC8327C4FDDC47032744FD637BF2
:102B0000F70C59268327C4FD984B8327C4FDDC436B
:102B1000B307F7402326F4FE032744FD8327C4FEB2
:102B200063FBE7068327C4FD98438327C4FDDC438A
:102B3000BA970326C4FE832584FD3E85EF50316E8F
:102B40008325C4FE0325C4FDA937032784FD8327FD
:102B5000C4FEBA97232CF4FC8327C4FD9843832733
:102B6000C4FDDC43B306F700032744FD8327C4FEFE
:102B7000B307F7403E86832584FD3685EF50316AE2
:102B8000032744FD8327C4FEB307F740BE85032512
:102B9000C4FD013725A08327C4FD98438327C4FDC6
:102BA000DC43BA97032644FD832584FD3E85EF5020
:102BB0001167832544FD0325C4FDE13D8327C4FD42
:102BC000D847832744FD1D8F8327C4FDD8C77124B0
:102BD000814711A089473E85B250225445618280C9
:102BE000397122DE80002326A4FC2324B4FCA30731
:102BF00004FE832784FC63DD07008327C4FC13875E
:102C000017002326E4FC1307D0022380E70089A8DD
:102C1000832784FCB1E78327C4FC130700032380C8
:102C2000E70051A0032784FCA947B367F70213D735
:102C3000F741B98F998F0347F4FE93061700A30756
:102C4000D4FEBA8613F7F70F930704FFB6972386CF
:102C5000E7FE032784FCA947B347F7022324F4FCCB
:102C6000832784FCE1F32DA88347F4FEFD171307A7
:102C700004FFBA9783C7C7FE9387070393F6F70F3E
:102C80008327C4FC138717002326E4FC13978601CF
:102C900061872380E7008347F4FEFD17A307F4FE56
:102CA0008347F4FEF1F3725421618280397122DE90
:102CB00080002326A4FC2324B4FCA30704FE83275E
:102CC00084FCB1E38327C4FC130700032380E700DF
:102CD00061A0032784FCA947B376F7028347F4FE7B
:102CE00013871700A307E4FE1397860161879306F5
:102CF00004FFB6972386E7FE032784FCA947B35752
:102D0000F7022324F4FC832784FCE1F799A083478E
:102D1000F4FEFD17130704FFBA978387C7FE13D786
:102D2000F741B98F998F93F7F70F9387070393F6BE
:102D3000F70F8327C4FC138717002326E4FC13979F
:102D4000860161872380E7008347F4FEFD17A30710
:102D5000F4FE8347F4FEC5FF7254216182800111A5
:102D600022CE00102326A4FE8327C4FEFD8B054738
:102D7000B316F70037E700E08327C4FE95839387F7
:102D800007048A07BA9794C30100724405618280E0
:102D9000011122CE00102326A4FE8327C4FEFD8B42
:102DA0000547B316F70037E700E08327C4FE958395
:102DB000938707068A07BA9794C301007244056196
:102DC0008280011122CE00102326A4FEAE87A30527
:102DD000F4FE37E700E08327C4FEBA970347B4FE4A
:102DE0002380E7400100724405618280011106CE14
:102DF00022CC00102326A4FE0325C4FE8D3701003B
:102E0000F240624405618280011106CE22CC00109E
:102E10002326A4FE0325C4FEA53F0100F240624420
:102E200005618280011106CE22CC00102326A4FE6B
:102E3000AE87A305F4FE8347B4FEBE850325C4FE1A
:102E400049370100F240624405618280411122C687
:102E500000080100324441018280411106C622C4AB
:102E6000000883A7C18B99C783A7C18B1387F7FF7E
:102E700023AEE18A83A7C18B99E3EFD0CFB80100DD
:102E8000B240224441018280411106C622C400089A
:102E900083A7C18B99E3EFD0AFB683A7C18B13870C
:102EA000170023AEE18A0100B24022444101828032
:102EB000011122CE00102326A4FE8327C4FEFD8B21
:102EC0000547B316F70037E700E08327C4FE958374
:102ED000938707048A07BA9794C301007244056177
:102EE0008280011122CE00102326A4FEAE87A30506
:102EF000F4FE37E700E08327C4FEBA970347B4FE29
:102F00002380E7400100724405618280011106CEF2
:102F100022CC0010232204FE232404FE232604FED8
:102F2000854513050004EF80402E8967938707804D
:102F30002312F4FEC1472326F4FE8D472324F4FE1A
:102F4000930744FEBE85B727014013850780EF70C5
:102F5000B00405450128054581280100F24062447E
:102F600005618280011106CE22CC0010AA87A3073A
:102F7000F4FE8347F4FE99CB856793850780B727D6
:102F8000014013850780EF70D02311A885679385D2
:102F90000780B727014013850780EF70B024010038
:102FA000F240624405618280011106CE22CC0010FD
:102FB000AA87A307F4FE8347F4FE89CB8565B7276C
:102FC000014013850780EF70D01F01A88565B727E2
:102FD000014013850780EF70F0200100F240624449
:102FE00005618280011106CE22CC0010AA87A307BA
:102FF000F4FE8347F4FE91CB8347F4FEBE85F96768
:10300000138547C8EF60614C11A00100F240624493
:1030100005618280397106DE22DC80002326A4FC53
:103020002324B4FC2322C4FC2320D4FC9307005F98
:10303000232CF4FC93070032232EF4FC856793873E
:10304000871F2320F4FEA9472322F4FE9307B00232
:103050002324F4FE930784FD3E85EFA08049832658
:1030600004FC032644FC832584FC0325C4FCEFA058
:103070000039AA87A307F4FE8347F4FE3E85F25089
:10308000625421618280011106CE22CC4ACA4EC808
:1030900052C656C400100145EF80403C4145EF80C8
:1030A00040333565EF8020372D45EF80802705457B
:1030B000EF80C03A03A7418B8967938707F43357A2
:1030C000F70293074006B307F7023E8A814A52850A
:1030D000D685EFD08FB615A003A7418B896793875C
:1030E00007F43357F7029307401FB307F7023E89EF
:1030F00081494A85CE85EFD04FB41305D003EF80C8
:103100006024AA87F1DB85450545EF80A00B01000F
:10311000F24062445249C249324AA24A0561828061
:10312000011106CE22CC0010232204FE232404FE2B
:10313000231604FE85450545EF8080119307700C2A
:103140002314F4FE89679387F7C12312F4FE231535
:1031500004FE231304FE930744FEBE85370500409A
:10316000EF80A0540546854537050040EF8040714B
:10317000854537050040EF80206B854537050040C9
:10318000EF80007E930500081305C002EFF07FD5A5
:103190001305C002EFF0DFD10100F2406244056187
:1031A00082805D7186C6A2C48008930704FB130663
:1031B000C00381453E85EFD0EF8B83A74181232E4D
:1031C000F4FC83D78181232AF4FC83D7A181138760
:1031D000170093160701C182239DD180232CF4FC94
:1031E0008D472326F4FC83C7618C3E8793070064D8
:1031F0003307F702B7970020938707DBBA97232C92
:10320000F4FA93070064232EF4FA930704FBBE85B7
:103210001385618CEFA06045AA87A307F4FE83C7DE
:10322000618CBE85F967138547C9EF60012A834722
:10323000F4FE3E85EFF01FDB83C7618C3E85EFA077
:103240001052AA87A307F4FE8347F4FE3E85EFF0F1
:103250007FD90100B640264461618280797106D62B
:1032600022D44AD24ED00018AA872E87A30FF4FC8E
:10327000BA87230FF4FC8347E4FD918B85CF834706
:10328000F4FD81453E85EFA0E07AAA872326F4FE6F
:103290009307C4FE0347F4FD3E86B7C7002093851D
:1032A00007FB3A85EFA0C05BB7C70020138507FB7B
:1032B000EF40E0558347E4FDA18B91C7F967138583
:1032C000C7CAEF60E1328347E4FDC18B91C7F9675C
:1032D000138547CCEF60C1318347E4FD93F70704C2
:1032E0008DCBF967138547CDEF60813003A7418B04
:1032F0008967938707F43357F7029307800CB30766
:10330000F7023E8981494A85CE85EFD00F93EFF0D1
:103310005FE90100B25022541259825945618280FE
:10332000011106CE22CC0010EFA09022AA87A3069E
:10333000F4FE8347D4FE858B91C7F967138507CECA
:10334000EF60012B8347D4FE898B91C7F967138502
:1033500047CFEF60E1298347D4FE918B99CFEFA04F
:10336000703FAA872317F4FE8357E4FE918B91C721
:10337000F9671385C7D0EF60A1278347D4FEC18BBF
:10338000A9C7231704FE2DA88357E4FE93F7F70F70
:103390003E85EFA0301DAA872306F4FE8347C4FEB6
:1033A00099CB8357E4FE93F7F70F0347C4FEBA8522
:1033B0003E85EFF0BFEA8357E4FE85072317F4FE4E
:1033C0000357E4FE9D47E3F1E7FC0100F24062444D
:1033D00005618280011106CE22CC4ACA4EC8001077
:1033E000EFF07FCAEFF0DFD31385018CEF909008E8
:1033F0009386018C138601819385C180138581801A
:10340000EFF05FC1AA87A307F4FE15A003A7418BC5
:103410008967938707F43357F70293074006B3078A
:10342000F7023E8981494A85CE85EFD00F81EFA012
:103430007032AA87918BF9DBEFF0BFD60100F24022
:1034400062445249C24905618280597186D6A2D42C
:103450008018AA87A30FF4F8AE87230FF4F8B28779
:10346000A30EF4F8B687231DF4F8BA87230EF4F8F8
:10347000232204FE232404FE232604FE232204FC2C
:10348000232404FC232604FC232804FC232A04FC14
:10349000232C04FC232E04FC232004FE232804FAFE
:1034A000232A04FA232C04FA232E04FA232004FCF2
:1034B00085451545EF707055854537050002EF705D
:1034C000305985672312F4FEE1472326F4FE8D4729
:1034D0002324F4FE930744FEBE85B71701401385ED
:1034E0000780EF70602B8567938707802312F4FEB7
:1034F000930780042326F4FE930744FEBE85B71786
:10350000014013850780EF702029232604FC23281F
:1035100004FC232A04FC8547232CF4FC232E04FC02
:10352000232004FE8347C4F92303F4FC8347F4F902
:10353000A303F4FC8347D4F92304F4FC8347E4F9A0
:10354000A304F4FC8357A4F92312F4FC930744FC6E
:10355000BE85B767004013850740EF50701B230DF1
:1035600004FA8547A30DF4FA230E04FA93070040EA
:103570002318F4FA930700042319F4FA93070002BE
:10358000231AF4FA231B04FA231C04FA8547232088
:10359000F4FC930704FB3E85EF50703A8945B7670A
:1035A000004013850740EF60C05F9307400223048B
:1035B000F4FA8547A304F4FA230504FA8547232681
:1035C000F4FA930784FA3E85EF70C06F054689458B
:1035D000B767004013850740EF60A0370100B65081
:1035E000265465618280397106DE22DC8000232644
:1035F000A4FCAE872322C4FCA305F4FC231704FE1D
:10360000832744FC232CF4FC230004FEA30004FEC7
:103610008347B4FC2301F4FE231704FE25A083573F
:10362000E4FE0327C4FC3E978357E4FE03470700EC
:10363000930604FFB697A389E7FE8357E4FE850748
:103640002317F4FE8347B4FCC207C1830357E4FE8B
:10365000E367F7FC930784FDBE85B76700401385D9
:103660000740EF505055AA87A306F4FE231704FE27
:1036700031A08357E4FE85072317F4FE8347D4FE69
:10368000BE85B767004013850740EF505075AA8785
:103690003E8785476308F7000357E4FE8567F917FF
:1036A000E3F9E7FC0357E4FE8567FD176314F700B1
:1036B000854711A081473E85F25062542161828086
:1036C000397106DE22DC80002326A4FC8145B76721
:1036D000004013850740EF604022AA8799E38147A5
:1036E00081A8930784FD3E868145B7670040138516
:1036F0000740EF60A000A30704FE25A00347F4FEE7
:103700008347F4FE8326C4FCB697930604FF3697DE
:10371000034737FF2380E7008347F4FE8507A307AD
:10372000F4FE0347F4FE9D47E3FAE7FC834724FEDB
:103730003E85F250625421618280011106CE22CC76
:1037400000102326A4FEF96783A587D30325C4FEB2
:10375000EF406144AA873E85F24062440561828061
:10376000011106CE22CC00102326A4FEF96783A502
:1037700087D30325C4FEEF401104AA873E85F2409B
:10378000624405618280397106DE22DC8000232ECE
:10379000A4FC232CB4FC232AC4FC2328D4FC232619
:1037A000E4FC2324F4FC232404FE7DA8232204FE4D
:1037B0004DA0930700002326F4FE232004FEB9A8A1
:1037C0000327C4FC832784FE3307F702832704FE04
:1037D000BA978A070327C4FDBA979443032784FC4A
:1037E000832704FE3307F702832744FEBA978A072C
:1037F000032784FDBA979C43BE853685EF40A17BA5
:10380000AA87BE850325C4FEEF404102AA8723266E
:10381000F4FE832704FE85072320F4FE032704FE1D
:103820008327C4FCE34EF7F8032784FC832784FE38
:103830003307F702832744FEBA978A07032744FD1C
:10384000BA970327C4FE98C3832744FE8507232223
:10385000F4FE032744FE832784FCE34CF7F483271C
:1038600084FE85072324F4FE032784FE832704FDBA
:10387000E34EF7F20100F2506254216182807971C7
:1038800006D622D426D24AD00018232EA4FC232CFC
:10389000B4FC8327C4FDA1079843B707008093C7F2
:1038A000F7FFF98F3E85EF401169F96703A607D44A
:1038B00083A647D4EF304114AA87635DF0088327BD
:1038C000C4FDA1079C43930500003E85EF40E165E0
:1038D000AA8763D30704832784FD910779670327A9
:1038E000C7D498C3832784FDA1071307000098C39A
:1038F0008327C4FD910798438327C4FDC1079C43D8
:10390000BE853A85EF0041152A87B70700803D8FB5
:10391000832784FD98C325AA832784FD91077967AF
:10392000032787D498C3832784FDA10713070000CA
:1039300098C38327C4FD910798438327C4FDC1071B
:103940009C43BE853A85EF0021112A87832784FD99
:1039500098C3F5A88327C4FDA10703A907008327FF
:10396000C4FD98438327C4FD9C43BE853A85EF4040
:103970008164AA87BE848327C4FD91079843832767
:10398000C4FD91079C43BE853A85EF40C162AA877A
:10399000BE852685EF309169AA873E85EF00813F7D
:1039A0002A87832784FD93844700BA854A85EF00E0
:1039B000A10AAA879CC0832784FD91079C433E856A
:1039C000EFF0F0782326A4FE8327C4FDD1079843A7
:1039D000B7070080B98F8325C4FE3E85EF40A11B49
:1039E000AA87BE848327C4FD938707029C4383254F
:1039F000C4FE3E85EF40211AAA87BE852685EF00CA
:103A0000A1052A87832784FD98C38327C4FD9107D6
:103A10009843B7070080B98F8325C4FE3E85EF40E9
:103A20008117AA873E898327C4FD9C438325C4FE52
:103A30003E85EF404116AA873E87832784FD938405
:103A40008700BA854A85EF002101AA879CC0B25041
:103A500022549254025945618280397106DE22DC7B
:103A600026DA4AD880002326A4FC2324B4FC83272A
:103A700084FCB1070327C4FC184398C3832784FC44
:103A8000F1070327C4FC584398C3832784FC93871A
:103A9000C7020327C4FC184798C3832784FC938775
:103AA00007031307000098C3832784FC9387470309
:103AB00098C3832784FC9387870398C3832784FC58
:103AC0009387C70379670327C7D398C38327C4FCA9
:103AD000D1079C433E85EFF090672326A4FE832701
:103AE000C4FCD1079C433E85EFF0B06E2324A4FEB6
:103AF0008327C4FCC1079C433E85EFF05065232219
:103B0000A4FE8327C4FCC1079C433E85EFF0706C84
:103B10002320A4FE8327C4FCB1079C433E85EFF01D
:103B20001063232EA4FC8327C4FCB1079C433E856D
:103B3000EFF0306A232CA4FC832544FE0325C4FE49
:103B4000EF406147AA873E87832784FC98C30327F9
:103B500084FEB70700803D8F832784FC9384470051
:103B6000832544FE3A85EF400145AA879CC0832700
:103B700084FCA107032704FE98C3832504FE0325C4
:103B800084FDEF404143AA87832584FE3E85EF40B4
:103B90008142AA873E89832584FE0325C4FDEF4028
:103BA0008141AA873E87832784FC93840701BA85D5
:103BB0004A85EF30B147AA879CC0032784FEB70728
:103BC0000080B98F832504FE3E85EF40C13EAA8761
:103BD000832584FD3E85EF40013EAA873E898325EB
:103BE000C4FD0325C4FEEF40013DAA873E8783271D
:103BF00084FC93844701BA854A85EF303143AA8714
:103C00009CC0032784FDB70700803D8F832784FC79
:103C100093848701832544FE3A85EF40C139AA8702
:103C20009CC00327C4FDB7070080B98F832504FE1D
:103C30003E85EF404138AA878325C4FE3E85EF408C
:103C40008137AA873E89832584FE032584FDEF40C2
:103C50008136AA873E87832784FC93840702BA852E
:103C60004A85EF30B13CAA879CC0832504FE03251A
:103C7000C4FDEF404134AA87832584FE3E85EF4092
:103C80008133AA873E898325C4FE032584FDEF4046
:103C90008132AA873E87832784FC93844702BA85B2
:103CA0004A85EF30B138AA879CC0832784FC93846F
:103CB0008702832544FE0325C4FDEF40C12FAA8758
:103CC0009CC00100F2506254D2544259216182805A
:103CD0002D71232E1110232C8110232A91100012F4
:103CE0002326A4EE2324B4EE8327C4EE9C433E8512
:103CF000EFF0F0452322A4FE8327C4EE9C433E85CB
:103D0000EFF0304D2320A4FE8327C4EEB1079C437F
:103D10003E85EFF0D043232EA4FC8327C4EEB107E9
:103D20009C433E85EFF0F04A232CA4FC8327C4FD7E
:103D3000232CF4F8032784FDB7070080B98F232EC6
:103D4000F4F893040000232094FA8327C4EEDC43A4
:103D50002322F4FA832544FE032584FDEF40A125A8
:103D6000AA872324F4FA832544FE0325C4FDEF40EB
:103D70008124AA872326F4FA032704FEB7070080CC
:103D8000B98F2328F4FA032704FEB70700803D8F7C
:103D90008327C4EEA1079C43BE853A85EF40A1214D
:103DA000AA87232AF4FA832504FE032584FDEF4025
:103DB0008120AA87232CF4FA832504FE0325C4FD61
:103DC000EF40611FAA87232EF4FA832744FE2320A5
:103DD000F4FC8327C4EEA1079C43832544FE3E8563
:103DE000EF40611DAA872322F4FC232494FC2326A0
:103DF00094FC232894FCF96783A7C7D3232AF4FCF7
:103E000085472326F4FE71A28327C4FE9207032769
:103E1000C4EEBA979C433E85EFF070332322A4FE94
:103E20008327C4FE92070327C4EEBA979C433E85BE
:103E3000EFF0303A2320A4FE8327C4FE9207B10797
:103E40000327C4EEBA979C433E85EFF05030232EF3
:103E5000A4FC8327C4FE9207B1070327C4EEBA97D8
:103E60009C433E85EFF0F036232CA4FC8327C4FD51
:103E7000232CF4F4032784FDB7070080B98F232E89
:103E8000F4F493040000232094F68327C4FE9207E1
:103E900091070327C4EEBA979C432322F4F68325A7
:103EA00044FE032584FDEF400111AA872324F4F684
:103EB000832544FE0325C4FDEF40E10FAA87232696
:103EC000F4F6032704FEB7070080B98F2328F4F621
:103ED000032704FEB7070080B346F7008327C4FE1C
:103EE0009207A1070327C4EEBA979C43BE85368587
:103EF000EF40610CAA87232AF4F6832504FE0325EC
:103F000084FDEF40410BAA87232CF4F6832504FEA1
:103F10000325C4FDEF40210AAA87232EF4F6832748
:103F200044FE2320F4F88327C4FE9207A107032749
:103F3000C4EEBA979C43832544FE3E85EF40A1071B
:103F4000AA872322F4F8232494F8232694F823281C
:103F500094F8F96783A7C7D3232AF4F8130684F1EA
:103F6000930584F5130584F9914711479146EFF0C5
:103F70009F81930784F9130784F193060004368622
:103F8000BA853E85EF40B1298327C4FE85072326E5
:103F9000F4FE0327C4FE9547E3D8E7E6032744F27F
:103FA000832784EE98C3832784EE9107032744F385
:103FB00098C3832784EEA107032744F498C32324DE
:103FC00004FE55A0832784FE13962700032784FE52
:103FD000BA878607B386E70093172600130704FF06
:103FE000BA9703A787F293972600930604FFB69724
:103FF00023A2E7F0832784FE8A071386170003278E
:1040000084FEBA878607BA9793861700931726000F
:10401000130704FFBA9703A787F293972600930626
:1040200004FFB69723A2E7F0832784FE8A0713864E
:104030002700032784FEBA878607BA97938627004E
:1040400093172600130704FFBA9703A787F29397E5
:104050002600930604FFB69723A2E7F0832784FE89
:1040600085072324F4FE032784FE8947E3DCE7F475
:10407000832784EE1387C700930744EFBA853E85F4
:10408000EFF0EFFF01008320C1110324811183248D
:10409000411115618280717106D722D526D34AD18C
:1040A0004ECF52CD0019232EA4F4232CB4F4232A8E
:1040B000C4F4832784F591072326F4FC832784F531
:1040C000938747022324F4FC832784F593874704CE
:1040D0002322F4FC832784F5938747062320F4FCEE
:1040E000832784F593874708232EF4FA832784F5E2
:1040F0009387470A232CF4FA232E04FC79A0032784
:10410000C4FD8D4763CCE7008327C4FD8A070327DE
:10411000C4FCBA977967032707D598C38327C4FDE2
:104120008A07032784FCBA977967032707D598C3C2
:104130008327C4FD8A07032744FCBA9779670327BE
:1041400007D598C38327C4FD8A07032704FCBA97C1
:104150007967032707D598C38327C4FD8A070327F8
:10416000C4FBBA977967032707D598C38327C4FD93
:104170008A07032784FBBA977967032707D598C373
:104180008327C4FD8507232EF4FC0327C4FD9D4728
:10419000E3D7E7F68327C4F5DC47232AF4FA83271D
:1041A000C4F5DC4F2328F4FA8327C4F5DC57232613
:1041B000F4FA832544FB032544FBEF30D15FAA8743
:1041C000BE84832504FB032504FBEF30D15EAA8760
:1041D000BE852685EF308165AA87BE848325C4FA13
:1041E0000325C4FAEF30315DAA87BE852685EF30FE
:1041F000E163AA872324F4FA832544FB032504FB07
:10420000EFF090052A87832784FC98C3032704FBDB
:10421000B7070080B346F700032744FBB7070080C9
:104220003D8F832784FC93844700BA853685EFF061
:10423000B002AA879CC0232C04FC6F00B001832726
:1042400084FD8A07032784FCBA979C433E85EFF0E0
:1042500000702A87B707008093C7F7FF7D8FF96743
:1042600083A587DA3A85EF30F143AA87635FF028A8
:10427000832784FD8A07032784FCBA979C433E85E5
:10428000EFF0E06CAA87BE85032544FBEF30B11048
:10429000AA873E87B707002093870700DC4BBE85BF
:1042A0003A85EF30917AAA872322F4FAB7070020E3
:1042B000938707009C47BE850325C4FAEF30F17849
:1042C000AA872320F4FAB707002093870700985F96
:1042D000F96783A787D5BE853A85EFF00078AA8471
:1042E000B707002093870700D85BF96783A787D5B6
:1042F000BE853A85EFF06076AA87BE852685EF30C9
:10430000E152AA87BE84B707002093870700D853DD
:10431000F96783A787D5BE853A85EFF00074AA8731
:10432000BE852685EF307172AA87BE84F96783A7A0
:1043300087D5BE85032544FAEFF02072AA87BE8593
:104340002685EF309170AA87BE84F96783A787D549
:10435000BE85032504FAEFF04070AA87BE85268546
:10436000EF30B16EAA87BE84B7070020938707009D
:10437000DC53BE853E85EF30614BAA87BE8526851E
:10438000EF307101AA87232EF4F88325C4F90325A1
:1043900044FAEF30916BAA873E87B707008093C736
:1043A000F7FF7D8FF96783A5C7DA3A85EF30912F44
:1043B000AA876358F012F96783A787D5BE850325BE
:1043C00004FAEFF08069AA84F96783A787D5BE85D0
:1043D000032544FAEFF06068AA87BE852685EF3092
:1043E000E144AA87BE84F96783A787D5BE850325E4
:1043F000C4F9EFF08066AA87BE852685EF30F164A8
:10440000AA873E85EFF01019AA87832504FA3E8516
:10441000EF30C141AA87BE848325C4F9032544FA3D
:10442000EF30B162AA87BE852685EFF0E062AA86EA
:10443000832784FD8E07032744FCB304F700B68569
:104440003685EF30A13EAA879CC0F96783A787D540
:10445000BE85032504FAEFF04060AA84F96783A7BC
:1044600087D5BE85032544FAEFF0205FAA87BE8575
:104470002685EF30A13BAA87BE84F96783A787D53D
:10448000BE850325C4F9EFF0405DAA87BE85268569
:10449000EF30B15BAA873E85EFF0D00FAA87BE85CB
:1044A000032504FAEF30715AAA87BE848325C4F924
:1044B000032544FAEF307159AA87BE852685EFF0AF
:1044C000A059AA86832784FD8E079107032744FC01
:1044D000B304F700B6853685EF304135AA879CC016
:1044E000E9A4832784FD8E079107032744FCBA972C
:1044F0007967032707DB98C3032784FD0E0783260C
:1045000044FC36979C431CC34DA4832784FD8A0733
:10451000032784FCBA979C433E85EFF0804BAA8723
:10452000BE85032504FBEF300167AA873E87B707E6
:10453000002093870700DC4BBE853A85EF30F150B1
:10454000AA87232CF4F8B7070020938707009C471D
:10455000BE850325C4FAEF30514FAA87232AF4F809
:10456000F96783A787D5BE85032584F9EFF0E04E70
:10457000AA84F96783A787D5BE85032544F9EFF0A0
:10458000C04DAA87BE852685EF30412AAA87BE8402
:10459000B707002093870700D853F96783A787D50B
:1045A000BE853A85EFF0604BAA87BE852685EF3041
:1045B000E127AA87BE84B707002093870700D85B4E
:1045C000F96783A787D5BE853A85EFF00049AA87AA
:1045D000BE852685EF307147AA87BE84B7070020C5
:1045E00093870700985FF96783A787D5BE853A85CB
:1045F000EFF0A046AA87BE852685EF301145AA8731
:104600003E87B7070080B344F700B70700209387C1
:104610000700DC53BE853E85EF304121AA87BE8569
:104620002685EF304157AA872328F4F8832504F91B
:10463000032584F9EF307141AA873E87B7070080D0
:1046400093C7F7FF7D8FF96783A5C7DA3A85EF3007
:104650007105AA876358F012F96783A787D5BE85CD
:10466000032544F9EFF0603FAA84F96783A787D553
:10467000BE85032584F9EFF0403EAA87BE852685D6
:10468000EF30C11AAA87BE84F96783A787D5BE8594
:10469000032504F9EFF0603CAA87BE852685EF303C
:1046A000D13AAA873E85EFF0E06EAA87832544F9C8
:1046B0003E85EF30A117AA87BE84832504F9032520
:1046C00084F9EF309138AA87BE852685EFF0C0388F
:1046D000AA86832784FD8E07032744FCB304F700D2
:1046E000B6853685EF308114AA879CC0F96783A709
:1046F00087D5BE85032544F9EFF02036AA84F967F3
:1047000083A787D5BE85032584F9EFF00035AA87F6
:10471000BE852685EF308111AA87BE84F96783A7FD
:1047200087D5BE85032504F9EFF02033AA87BE851F
:104730002685EF309131AA873E85EFF0A065AA87E4
:10474000BE85032544F9EF305130AA87BE84832506
:1047500004F9032584F9EF30512FAA87BE852685F9
:10476000EFF0802FAA86832784FD8E079107032709
:1047700044FCB304F700B6853685EF30210BAA87D9
:104780009CC025A0832784FD8E079107032744FC46
:10479000BA977967032707DB98C3032784FD0E07C1
:1047A000832644FC36979C431CC3832784FD8A07D9
:1047B000032784FCBA979C433E85EFF04019AA87F3
:1047C000832544FB3E85EF30017FAA87BE84832783
:1047D00084FD8A07032784FCBA979C433E85EFF04B
:1047E000401FAA87832504FB3E85EF30C17CAA8742
:1047F000BE852685EF308103AA873E87B707002054
:1048000093870700DC4BBE853A85EF301124AA87D9
:104810002326F4F8B7070020938707009C47BE853E
:104820000325C4FAEF307122AA872324F4F8F9672C
:1048300083A787D5BE850325C4F8EFF00022AA849C
:10484000F96783A787D5BE85032584F8EFF0E020BC
:10485000AA87BE852685EF20717DAA87BE84B7070B
:10486000002093870700D853F96783A787D5BE85B3
:104870003A85EFF0801EAA87BE852685EF30F11CB1
:10488000AA87BE84B707002093870700D85BF96723
:1048900083A787D5BE853A85EFF0201CAA87BE8501
:1048A0002685EF30911AAA87BE84B7070020938728
:1048B0000700985FF96783A787D5BE853A85EFF033
:1048C000C019AA87BE852685EF303118AA87BE8415
:1048D000B707002093870700DC53BE853E85EF2095
:1048E000F174AA87BE852685EF30E12AAA872322A4
:1048F000F4F8B707002093870700985FB7070020F8
:1049000093870700DC5BBE853A85EFF0E0142A89C7
:10491000B707002093870700D85BF96783A787D57F
:10492000BE853A85EFF06013AA84B707002093870D
:104930000700985FF96783A787D5BE853A85EFF0B2
:10494000C011AA87BE852685EF20516EAA87BE8436
:10495000F96783A787D5BE85032544F8EFF0E00FFC
:10496000AA87BE852685EF30510EAA873E85EFF0D7
:104970006042AA87832544F83E85EFF0E00DAA86C1
:10498000832784FD8E070327C4FCB304F700B68594
:104990004A85EF30910BAA879CC0B7070020938708
:1049A0000700985FB707002093870700DC5BBE8590
:1049B0003A85EFF0600A2A89B7070020938707003D
:1049C000D85BF96783A787D5BE853A85EFF0E00805
:1049D000AA84B707002093870700985FF96783A729
:1049E00087D5BE853A85EFF04007AA87BE85268524
:1049F000EF20D163AA87BE84F96783A787D5BE85D8
:104A0000032544F8EFF06005AA87BE852685EF30C0
:104A1000D103AA873E85EFF0E0372A87B7070080E9
:104A2000B98F832544F83E85EFF00003AA868327DB
:104A300084FD8E0791070327C4FCB304F700B685F5
:104A40004A85EF309100AA879CC0832784FD8507A3
:104A5000232CF4FC032784FD854763D2E7FEA30BD8
:104A600004FC6F007042834774FD8A07032744FCEF
:104A7000BA979C433E85EF30114CF96703A607D7E0
:104A800083A647D7EF106122AA872E883E85C2856C
:104A9000EF3031552A87B707008093C7F7FF7D8F26
:104AA000F96783A587D73A85EF30C13FAA87E358D6
:104AB000F03C832784FC9C433E85EF30D147F96767
:104AC00003A607D783A647D7EF10211EAA872E88F3
:104AD0003E85C285EF30F1502A87B707008093C723
:104AE000F7FF7D8FF96783A587D73A85EF30813B44
:104AF000AA87E356F038834774FD8A070327C4FC6E
:104B0000BA979C433E85EF301143F96703A607D758
:104B100083A647D7EF106119AA872E883E85C285E4
:104B2000EF30314C2A87B707008093C7F7FF7D8F9E
:104B3000F96783A587D73A85EF30C136AA87E35056
:104B4000F034834774FD858393F7F70F8A070327B3
:104B500084FCBA979C433E85EFE0705FAA8483474C
:104B600074FD8A07032744FCBA979443834774FD76
:104B70008A070327C4FCBA979C43BE853685EF207D
:104B8000F14AAA873E85EFE0D064AA87BE852685D4
:104B9000EF306142AA872320F4F8834774FD8583B0
:104BA00093F7F70F8A07032784FCBA979C433E8547
:104BB000EFE03062AA84834774FD8A07032744FC30
:104BC000BA979443834774FD8A070327C4FCBA97B6
:104BD0009C43BE853685EF207145AA873E85EFE070
:104BE000505FAA87BE852685EF30E13CAA87232E39
:104BF000F4F6834774FD8A07032744FCBA9794436D
:104C0000834774FD8A070327C4FCBA979C43BE857B
:104C10003685EF20B141AA873E85EFE050532A87C1
:104C2000B7070080B98F232CF4F68327C4F5A107BA
:104C30009C43BE85032504F8EF302161AA873E8797
:104C4000B707008093C7F7FFF98F3E85EF30B12E8D
:104C5000F96703A607DA83A647DAEF10D164AA87BB
:104C600063D1070A8327C4F5E1079C43BE8503256A
:104C7000C4F7EF30815DAA873E87B707008093C7EE
:104C8000F7FFF98F3E85EF30112BF96703A607DA9E
:104C900083A647DAEF103161AA8763D4070683271A
:104CA000C4F5938787029C43BE85032584F7EF30C4
:104CB000C159AA873E87B707008093C7F7FFF98FCE
:104CC0003E85EF305127F96703A607DA83A647DA56
:104CD000EF10715DAA8763D60702834774FD8A07C8
:104CE0000327C4FBBA971307000098C3834774FDDA
:104CF0008A07032704FCBA97032744F5584798C34B
:104D00001DA3834774FD858393F7F70F8A07032755
:104D100084FCBA979C433E85EFE0B04B2A878327FB
:104D2000C4F5A1079C43BE853A85EF30C128AA8708
:104D3000BE84834774FD858393F7F70F8A070327A3
:104D400084FCBA979C433E85EFE070402A87832716
:104D5000C4F5E1079C43BE853A85EF30C125AA879B
:104D6000BE852685EF30614EAA87232AF4F6834755
:104D700074FD858393F7F70F8A07032784FCBA979E
:104D80009C433E85EFE0B03CAA84834774FD8A07CC
:104D9000032744FCBA979443834774FD8A0703278B
:104DA000C4FCBA979C43BE853685EF203128AA877C
:104DB0003E85EFE0D039AA87BE852685EF30A11F5A
:104DC000AA873E878327C4F5A1079C43BE853A8501
:104DD000EF30611EAA87BE84834774FD858393F7F5
:104DE000F70F8A07032784FCBA979C433E85EFE0C0
:104DF000503E2A89834774FD8A07032744FCBA97EB
:104E00009443834774FD8A070327C4FCBA979C43E5
:104E1000BE853685EF209121AA873E85EFE03033AD
:104E2000AA87BE854A85EF300119AA873E87832766
:104E3000C4F5E1079C43BE853A85EF30C117AA87C8
:104E4000BE852685EF20911EAA87BE84834774FD08
:104E50008A07032744FCBA979443834774FD8A0763
:104E60000327C4FCBA979C43BE853685EF20111CEE
:104E7000AA873E85EFE0F0352A878327C4F593871C
:104E800087029C43BE853A85EF30E112AA87BE8532
:104E90002685EF20B119AA872328F4F6834774FDED
:104EA0008A07032704FCB304F700832504F70325CE
:104EB00044F7EFE0703AAA879CC08327C4F5A107A6
:104EC0008443834774FD858393F7F70F8A0703278D
:104ED00084FCBA979C433E85EFE0B02F2A89834734
:104EE00074FD8A07032704FCBA979C433E85EFE0D4
:104EF000502EAA87BE854A85EF30E10BAA873E89EE
:104F0000834774FD858393F7F70F8A07032784FC93
:104F1000BA979C433E85EFE09023AA89834774FDAE
:104F20008A07032704FCBA979C433E85EFE03022B2
:104F3000AA87BE854E85EF300108AA87BE898347C0
:104F400074FD8A07032744FCBA979443834774FD92
:104F50008A070327C4FCBA979C43BE853685EF2099
:104F6000F10CAA873E85EFE0901EAA87BE854E858C
:104F7000EF306104AA87BE854A85EF20310BAA87EE
:104F8000BE852685EF302103AA873E898327C4F595
:104F9000E1078443834774FD858393F7F70F8A07FE
:104FA000032784FCBA979C433E85EFE09022AA89B0
:104FB000834774FD8A07032704FCBA979C433E8508
:104FC000EFE0F018AA87BE854E85EF20D17EAA8734
:104FD000BE89834774FD8A07032744FCBA9794432C
:104FE000834774FD8A070327C4FCBA979C43BE8598
:104FF0003685EF20B103AA873E85EFE05015AA87DA
:10500000BE854E85EF20317BAA87BE89834774FD1C
:10501000858393F7F70F8A07032784FCBA979C438D
:105020003E85EFE0D0122A8A834774FD8A07032762
:1050300004FCBA979C433E85EFE0B019AA87BE8571
:105040005285EF205177AA87BE854E85EF30E11F4C
:10505000AA87BE852685EF201176AA87BE854A8558
:10506000EF20C17CAA873E898327C4F593878702F6
:105070008443834774FD8A07032704FCBA979C4343
:105080003E85EFE0D00CAA87BE852685EF20B17261
:10509000AA87BE84834774FD8A07032744FCBA9716
:1050A0009443834774FD8A070327C4FCBA979C4343
:1050B000BE853685EF208177AA873E85EFE07011A7
:1050C000AA87BE852685EF20116FAA87BE854A85EF
:1050D000EF20C175AA872326F4F68327C4F5A1071C
:1050E0008443834774FD858393F7F70F8A0703276B
:1050F00084FCBA979C433E85EFE07005AA87BE8585
:105100002685EF20516BAA87BE84834774FD8A07EA
:10511000032744FCBA979443834774FD8A07032707
:10512000C4FCBA979C43BE853685EF202170AA87C0
:105130003E85EFE0100AAA87BE852685EF20B1677D
:10514000AA873E898327C4F5E1078443834774FD1A
:10515000858393F7F70F8A07032784FCBA979C434C
:105160003E85EFE01007AA87BE852685EF20B16453
:10517000AA87BE84834774FD8A07032744FCBA9735
:105180009443834774FD8A070327C4FCBA979C4362
:10519000BE853685EF208169AA873E85EFE07003E2
:1051A000AA87BE852685EF201161AA87BE854A851C
:1051B000EF20C167AA873E898327C4F593878702BA
:1051C0008443834774FD8A07032744FCBA979443BA
:1051D000834774FD8A070327C4FCBA979C43BE85A6
:1051E0003685EF20A164AA873E85EFE04076AA8746
:1051F000BE852685EF20315CAA87BE854A85EF30C3
:10520000C104AA872324F4F6834774FD8A07032781
:10521000C4FBB304F700832584F60325C4F6EFE04E
:10522000B003AA879CC08327C4F58443834774FDD9
:10523000858393F7F70F8A07032784FCBA979C436B
:105240003E85EFE000792A89834774FD8A070327AA
:1052500004FCBA979C433E85EFE0606FAA87BE8549
:105260004A85EF205155AA873E89834774FD85837F
:1052700093F7F70F8A07032784FCBA979C433E8570
:10528000EFE0E06CAA89834774FD8A07032744FC9A
:10529000BA979443834774FD8A070327C4FCBA97DF
:1052A0009C43BE853685EF206158AA873E85EFE096
:1052B000006AAA87BE854E85EF20F14FAA87BE8976
:1052C000834774FD8A07032704FCBA979C433E85F5
:1052D000EFE02070AA87BE854E85EF20D14DAA87CA
:1052E000BE854A85EF207176AA87BE852685EF2088
:1052F000914CAA873E898327C4F5C107844383471D
:1053000074FD858393F7F70F8A07032784FCBA9708
:105310009C433E85EFE0E06BAA89834774FD8A07D2
:10532000032744FCBA979443834774FD8A070327F5
:10533000C4FCBA979C43BE853685EF20214FAA87CF
:105340003E85EFE0C060AA87BE854E85EF20B1465E
:10535000AA87BE89834774FD8A07032704FCBA978E
:105360009C433E85EFE0E066AA87BE854E85EF2030
:105370009144AA87BE89834774FD858393F7F70F0D
:105380008A07032784FCBA979C433E85EFE0205CA4
:105390002A8A834774FD8A07032704FCBA979C4333
:1053A0003E85EFE0C05AAA87BE855285EF20B14006
:1053B000AA87BE854E85EF206147AA87BE852685D0
:1053C000EF20713FAA87BE854A85EF201168AA8722
:1053D0003E898327C4F5938707028443834774FD7E
:1053E0008A07032744FCBA979443834774FD8A07CE
:1053F0000327C4FCBA979C43BE853685EF20014342
:10540000AA873E85EFE0E05CAA89834774FD8A079E
:10541000032704FCBA979C433E85EFE0805BAA8794
:10542000BE854E85EF203139AA87BE852685EF20BF
:105430009138AA87BE854A85EF203161AA87232249
:10544000F4F68327C4F591078443834774FD85836D
:1054500093F7F70F8A07032784FCBA979C433E858E
:10546000EFE020572A89834774FD8A07032704FC4D
:10547000BA979C433E85EFE0804DAA87BE854A855A
:10548000EF207133AA873E89834774FD858393F7A4
:10549000F70F8A07032784FCBA979C433E85EFE009
:1054A000004BAA89834774FD8A07032744FCBA97F7
:1054B0009443834774FD8A070327C4FCBA979C432F
:1054C000BE853685EF208136AA873E85EFE02048ED
:1054D000AA87BE854E85EF20112EAA87BE898347F5
:1054E00074FD8A07032704FCBA979C433E85EFE0CE
:1054F000404EAA87BE854E85EF20F12BAA87BE8538
:105500004A85EF209154AA87BE852685EF20B12ACF
:10551000AA873E898327C4F5D1078443834774FD56
:10552000858393F7F70F8A07032784FCBA979C4378
:105530003E85EFE0004AAA89834774FD8A07032766
:1055400044FCBA979443834774FD8A070327C4FC3D
:10555000BA979C43BE853685EF20412DAA873E85AC
:10556000EFE0E03EAA87BE854E85EF20D124AA87D2
:10557000BE89834774FD8A07032704FCBA979C43BE
:105580003E85EFE00045AA87BE854E85EF20B1221B
:10559000AA87BE89834774FD858393F7F70F8A072F
:1055A000032784FCBA979C433E85EFE0403A2A8A61
:1055B000834774FD8A07032704FCBA979C433E8502
:1055C000EFE0E038AA87BE855285EF20D11EAA877A
:1055D000BE854E85EF208125AA87BE852685EF20D2
:1055E000911DAA87BE854A85EF203146AA873E894C
:1055F0008327C4F5938747028443834774FD8A0752
:10560000032744FCBA979443834774FD8A07032712
:10561000C4FCBA979C43BE853685EF202121AA871A
:105620003E85EFE0003BAA89834774FD8A07032784
:1056300004FCBA979C433E85EFE0A039AA87BE855B
:105640004E85EF205117AA87BE852685EF20B1161B
:10565000AA87BE854A85EF20513FAA872320F4F60A
:10566000834774FD8A07032784FBB304F70083256F
:1056700004F6032544F6EFE0203EAA879CC083474A
:1056800074FD8507A30BF4FC034774FD8D4763FC91
:10569000E7BC832784FCB107032784FC584398C3E5
:1056A000032784FC21079C431CC3832784FC9107A8
:1056B000032784FC184398C3232804FCDDA0832718
:1056C00004FD8A07032784FC3E97832704FD910786
:1056D0008A07832684FCB697184398C3832704FD62
:1056E0008A07032744FC3E97832704FD91078A0716
:1056F000832644FCB697184398C3832704FD8A0782
:105700000327C4FC3E97832704FD91078A0783265D
:10571000C4FCB697184398C3832704FD8A07032760
:1057200004FCBA979443832704FD91078A07032753
:1057300004FCB304F700F96783A507DB3685EF2087
:10574000E10EAA879CC0832704FD8A070327C4FBB8
:10575000BA979443832704FD91078A070327C4FB64
:10576000BA9737070080358F98C3832704FD8A07CF
:10577000032784FBBA979443832704FD91078A0784
:10578000032784FBB304F700F96783A507DB36859D
:10579000EF20C109AA879CC0832704FD8507232821
:1057A000F4FC032704FD8D47E3DBE7F001003E85B1
:1057B000BA502A549A540A59FA496A4A4D61828069
:1057C000397106DE22DC80002326A4FCAE8723226A
:1057D000C4FCA305F4FC8327C4FC9C433E85EFD0A6
:1057E0003FF82326A4FE032544FCEFD07FF7232CAB
:1057F000A4FC19A8F96783A547DB0325C4FEEF20A5
:10580000E102AA872326F4FEF96783A587DB032537
:10581000C4FEEF208171AA87E3CE07FC19A8F967BF
:1058200083A547DB0325C4FEEF203122AA87232668
:10583000F4FEF96783A5C7DB0325C4FEEF2081666C
:10584000AA87E34EF0FC0325C4FEEFD01FEF2A87A2
:105850008327C4FC98C38347B4FC1547636CF726C1
:1058600013972700F9679387C77ABA979C43828773
:10587000854795A4F96783A507DC032584FDEF1010
:10588000F17AAA87232AF4FCF96783A5C7DB0325ED
:1058900044FDEF204172AA873E85EF20D169F96768
:1058A00003A687DC83A6C7DCEF003133AA872E88E6
:1058B0003E85C285EF10F169AA872324F4FEF967BB
:1058C00083A587DB032544FDEF20E16EAA873E8593
:1058D000EF207166F96703A687DC83A6C7DCEF00BB
:1058E000D12FAA872E883E85C285EF109166AA87A0
:1058F0002322F4FE032784FE9307400B63D7E700BF
:105900009307400B2324F4FE39A0832784FE63D43D
:105910000700232404FE832744FE6355F00023225E
:1059200004FE19A8032744FE9307C0F46356F7004A
:105930009307C0F42322F4FE032544FEEF205153C5
:10594000AA87BE850325C4FEEF20C155AA8763D36D
:10595000070049A2032584FEEF209151AA87BE8546
:105960000325C4FEEF20615CAA876353F0009DA26B
:10597000854795A2854785A2F96783A507DD03259D
:10598000C4FEEF202152AA8763D30700A1A2F967C2
:1059900083A547DD0325C4FEEF202159AA87635361
:1059A000F0000DAA854705AA032784FDB7070080EC
:1059B00093C7F7FFF98F2320F4FEF96783A587DDEE
:1059C000032504FEEF20014EAA876357F000F96714
:1059D00083A787DD2320F4FEF96783A587DD0325F0
:1059E00004FEEF20411BAA873E85EF20D154F967C2
:1059F00003A687DC83A6C7DCEF104116AA872E8892
:105A00003E85C285F96703A607DE83A647DEEF1051
:105A10006160AA872E883E85C285EF109153AA87C0
:105A2000232EF4FC0325C4FDEF2091442A87F96757
:105A300083A587DD3A85EF20E146AA876357F0000A
:105A40009307A005232EF4FC1DA00325C4FDEF2021
:105A500031422A87F96783A587DE3A85EF20E14C3A
:105A6000AA8763D607009307C0F9232EF4FC032509
:105A7000C4FDEF20F13FAA87BE850325C4FEEF20B9
:105A80006142AA8763D30700B1A0F96783A587DDC8
:105A90000325C4FEEF206149AA876353F0001DA8C7
:105AA000854715A8F96783A5C7DE0325C4FEEF2047
:105AB000613FAA8763D3070031A8F96783A507DC94
:105AC0000325C4FEEF206146AA876353F00019A0A6
:105AD000854711A081473E85F25062542161828042
